{
  "contractName": "DigitalReserve",
  "abi": [
    {
      "inputs": [
        {
          "internalType": "address",
          "name": "_router",
          "type": "address"
        },
        {
          "internalType": "address",
          "name": "_drcAddress",
          "type": "address"
        }
      ],
      "stateMutability": "nonpayable",
      "type": "constructor"
    },
    {
      "anonymous": false,
      "inputs": [
        {
          "indexed": true,
          "internalType": "address",
          "name": "owner",
          "type": "address"
        },
        {
          "indexed": true,
          "internalType": "address",
          "name": "spender",
          "type": "address"
        },
        {
          "indexed": false,
          "internalType": "uint256",
          "name": "value",
          "type": "uint256"
        }
      ],
      "name": "Approval",
      "type": "event"
    },
    {
      "anonymous": false,
      "inputs": [
        {
          "indexed": false,
          "internalType": "address",
          "name": "user",
          "type": "address"
        },
        {
          "indexed": false,
          "internalType": "uint256",
          "name": "amount",
          "type": "uint256"
        }
      ],
      "name": "Deposit",
      "type": "event"
    },
    {
      "anonymous": false,
      "inputs": [
        {
          "indexed": true,
          "internalType": "address",
          "name": "previousOwner",
          "type": "address"
        },
        {
          "indexed": true,
          "internalType": "address",
          "name": "newOwner",
          "type": "address"
        }
      ],
      "name": "OwnershipTransferred",
      "type": "event"
    },
    {
      "anonymous": false,
      "inputs": [
        {
          "indexed": false,
          "internalType": "address[]",
          "name": "strategyTokens",
          "type": "address[]"
        },
        {
          "indexed": false,
          "internalType": "uint8[]",
          "name": "tokenPercentage",
          "type": "uint8[]"
        }
      ],
      "name": "Rebalance",
      "type": "event"
    },
    {
      "anonymous": false,
      "inputs": [
        {
          "indexed": false,
          "internalType": "address[]",
          "name": "oldTokens",
          "type": "address[]"
        },
        {
          "indexed": false,
          "internalType": "uint8[]",
          "name": "oldPercentage",
          "type": "uint8[]"
        },
        {
          "indexed": false,
          "internalType": "address[]",
          "name": "newTokens",
          "type": "address[]"
        },
        {
          "indexed": false,
          "internalType": "uint8[]",
          "name": "newPercentage",
          "type": "uint8[]"
        }
      ],
      "name": "StrategyChange",
      "type": "event"
    },
    {
      "anonymous": false,
      "inputs": [
        {
          "indexed": true,
          "internalType": "address",
          "name": "from",
          "type": "address"
        },
        {
          "indexed": true,
          "internalType": "address",
          "name": "to",
          "type": "address"
        },
        {
          "indexed": false,
          "internalType": "uint256",
          "name": "value",
          "type": "uint256"
        }
      ],
      "name": "Transfer",
      "type": "event"
    },
    {
      "anonymous": false,
      "inputs": [
        {
          "indexed": false,
          "internalType": "address",
          "name": "user",
          "type": "address"
        },
        {
          "indexed": false,
          "internalType": "uint256",
          "name": "amount",
          "type": "uint256"
        },
        {
          "indexed": false,
          "internalType": "uint256",
          "name": "fees",
          "type": "uint256"
        }
      ],
      "name": "Withdraw",
      "type": "event"
    },
    {
      "inputs": [
        {
          "internalType": "address",
          "name": "owner",
          "type": "address"
        },
        {
          "internalType": "address",
          "name": "spender",
          "type": "address"
        }
      ],
      "name": "allowance",
      "outputs": [
        {
          "internalType": "uint256",
          "name": "",
          "type": "uint256"
        }
      ],
      "stateMutability": "view",
      "type": "function"
    },
    {
      "inputs": [
        {
          "internalType": "address",
          "name": "spender",
          "type": "address"
        },
        {
          "internalType": "uint256",
          "name": "amount",
          "type": "uint256"
        }
      ],
      "name": "approve",
      "outputs": [
        {
          "internalType": "bool",
          "name": "",
          "type": "bool"
        }
      ],
      "stateMutability": "nonpayable",
      "type": "function"
    },
    {
      "inputs": [
        {
          "internalType": "address",
          "name": "account",
          "type": "address"
        }
      ],
      "name": "balanceOf",
      "outputs": [
        {
          "internalType": "uint256",
          "name": "",
          "type": "uint256"
        }
      ],
      "stateMutability": "view",
      "type": "function"
    },
    {
      "inputs": [],
      "name": "decimals",
      "outputs": [
        {
          "internalType": "uint8",
          "name": "",
          "type": "uint8"
        }
      ],
      "stateMutability": "view",
      "type": "function"
    },
    {
      "inputs": [
        {
          "internalType": "address",
          "name": "spender",
          "type": "address"
        },
        {
          "internalType": "uint256",
          "name": "subtractedValue",
          "type": "uint256"
        }
      ],
      "name": "decreaseAllowance",
      "outputs": [
        {
          "internalType": "bool",
          "name": "",
          "type": "bool"
        }
      ],
      "stateMutability": "nonpayable",
      "type": "function"
    },
    {
      "inputs": [],
      "name": "feePercentage",
      "outputs": [
        {
          "internalType": "uint8",
          "name": "",
          "type": "uint8"
        }
      ],
      "stateMutability": "view",
      "type": "function"
    },
    {
      "inputs": [
        {
          "internalType": "address",
          "name": "spender",
          "type": "address"
        },
        {
          "internalType": "uint256",
          "name": "addedValue",
          "type": "uint256"
        }
      ],
      "name": "increaseAllowance",
      "outputs": [
        {
          "internalType": "bool",
          "name": "",
          "type": "bool"
        }
      ],
      "stateMutability": "nonpayable",
      "type": "function"
    },
    {
      "inputs": [],
      "name": "name",
      "outputs": [
        {
          "internalType": "string",
          "name": "",
          "type": "string"
        }
      ],
      "stateMutability": "view",
      "type": "function"
    },
    {
      "inputs": [],
      "name": "owner",
      "outputs": [
        {
          "internalType": "address",
          "name": "",
          "type": "address"
        }
      ],
      "stateMutability": "view",
      "type": "function"
    },
    {
      "inputs": [],
      "name": "priceDecimal",
      "outputs": [
        {
          "internalType": "uint8",
          "name": "",
          "type": "uint8"
        }
      ],
      "stateMutability": "view",
      "type": "function"
    },
    {
      "inputs": [],
      "name": "renounceOwnership",
      "outputs": [],
      "stateMutability": "nonpayable",
      "type": "function"
    },
    {
      "inputs": [],
      "name": "strategyTokenCount",
      "outputs": [
        {
          "internalType": "uint8",
          "name": "",
          "type": "uint8"
        }
      ],
      "stateMutability": "view",
      "type": "function"
    },
    {
      "inputs": [
        {
          "internalType": "uint256",
          "name": "",
          "type": "uint256"
        }
      ],
      "name": "strategyTokens",
      "outputs": [
        {
          "internalType": "address",
          "name": "",
          "type": "address"
        }
      ],
      "stateMutability": "view",
      "type": "function"
    },
    {
      "inputs": [],
      "name": "symbol",
      "outputs": [
        {
          "internalType": "string",
          "name": "",
          "type": "string"
        }
      ],
      "stateMutability": "view",
      "type": "function"
    },
    {
      "inputs": [
        {
          "internalType": "address",
          "name": "",
          "type": "address"
        }
      ],
      "name": "tokenPercentage",
      "outputs": [
        {
          "internalType": "uint8",
          "name": "",
          "type": "uint8"
        }
      ],
      "stateMutability": "view",
      "type": "function"
    },
    {
      "inputs": [],
      "name": "totalSupply",
      "outputs": [
        {
          "internalType": "uint256",
          "name": "",
          "type": "uint256"
        }
      ],
      "stateMutability": "view",
      "type": "function"
    },
    {
      "inputs": [
        {
          "internalType": "address",
          "name": "recipient",
          "type": "address"
        },
        {
          "internalType": "uint256",
          "name": "amount",
          "type": "uint256"
        }
      ],
      "name": "transfer",
      "outputs": [
        {
          "internalType": "bool",
          "name": "",
          "type": "bool"
        }
      ],
      "stateMutability": "nonpayable",
      "type": "function"
    },
    {
      "inputs": [
        {
          "internalType": "address",
          "name": "sender",
          "type": "address"
        },
        {
          "internalType": "address",
          "name": "recipient",
          "type": "address"
        },
        {
          "internalType": "uint256",
          "name": "amount",
          "type": "uint256"
        }
      ],
      "name": "transferFrom",
      "outputs": [
        {
          "internalType": "bool",
          "name": "",
          "type": "bool"
        }
      ],
      "stateMutability": "nonpayable",
      "type": "function"
    },
    {
      "inputs": [
        {
          "internalType": "address",
          "name": "newOwner",
          "type": "address"
        }
      ],
      "name": "transferOwnership",
      "outputs": [],
      "stateMutability": "nonpayable",
      "type": "function"
    },
    {
      "inputs": [
        {
          "internalType": "bool",
          "name": "_status",
          "type": "bool"
        }
      ],
      "name": "changeDepositStatus",
      "outputs": [],
      "stateMutability": "nonpayable",
      "type": "function"
    },
    {
      "inputs": [
        {
          "internalType": "bool",
          "name": "_status",
          "type": "bool"
        }
      ],
      "name": "changeWithdrawalStatus",
      "outputs": [],
      "stateMutability": "nonpayable",
      "type": "function"
    },
    {
      "inputs": [
        {
          "internalType": "uint8",
          "name": "_feePercentage",
          "type": "uint8"
        }
      ],
      "name": "changeFee",
      "outputs": [],
      "stateMutability": "nonpayable",
      "type": "function"
    },
    {
      "inputs": [],
      "name": "totalTokenStored",
      "outputs": [
        {
          "internalType": "uint256[]",
          "name": "",
          "type": "uint256[]"
        }
      ],
      "stateMutability": "view",
      "type": "function"
    },
    {
      "inputs": [
        {
          "internalType": "address",
          "name": "_user",
          "type": "address"
        }
      ],
      "name": "getUserVaultInDrc",
      "outputs": [
        {
          "internalType": "uint256",
          "name": "",
          "type": "uint256"
        },
        {
          "internalType": "uint256",
          "name": "",
          "type": "uint256"
        },
        {
          "internalType": "uint256",
          "name": "",
          "type": "uint256"
        }
      ],
      "stateMutability": "view",
      "type": "function"
    },
    {
      "inputs": [],
      "name": "getProofOfDepositPrice",
      "outputs": [
        {
          "internalType": "uint256",
          "name": "",
          "type": "uint256"
        }
      ],
      "stateMutability": "view",
      "type": "function"
    },
    {
      "inputs": [
        {
          "internalType": "uint256",
          "name": "_amount",
          "type": "uint256"
        },
        {
          "internalType": "uint32",
          "name": "deadline",
          "type": "uint32"
        }
      ],
      "name": "depositDrc",
      "outputs": [],
      "stateMutability": "nonpayable",
      "type": "function"
    },
    {
      "inputs": [
        {
          "internalType": "uint256",
          "name": "drcAmount",
          "type": "uint256"
        },
        {
          "internalType": "uint32",
          "name": "deadline",
          "type": "uint32"
        }
      ],
      "name": "withdrawDrc",
      "outputs": [],
      "stateMutability": "nonpayable",
      "type": "function"
    },
    {
      "inputs": [
        {
          "internalType": "uint8",
          "name": "percentage",
          "type": "uint8"
        },
        {
          "internalType": "uint32",
          "name": "deadline",
          "type": "uint32"
        }
      ],
      "name": "withdrawPercentage",
      "outputs": [],
      "stateMutability": "nonpayable",
      "type": "function"
    },
    {
      "inputs": [
        {
          "internalType": "address[]",
          "name": "_strategyTokens",
          "type": "address[]"
        },
        {
          "internalType": "uint8[]",
          "name": "_tokenPercentage",
          "type": "uint8[]"
        },
        {
          "internalType": "uint8",
          "name": "_strategyTokenCount",
          "type": "uint8"
        },
        {
          "internalType": "uint32",
          "name": "deadline",
          "type": "uint32"
        }
      ],
      "name": "changeStrategy",
      "outputs": [],
      "stateMutability": "nonpayable",
      "type": "function"
    },
    {
      "inputs": [
        {
          "internalType": "uint32",
          "name": "deadline",
          "type": "uint32"
        }
      ],
      "name": "rebalance",
      "outputs": [],
      "stateMutability": "nonpayable",
      "type": "function"
    }
  ],
  "bytecode": "0x60806040526001600860006101000a81548160ff021916908360ff1602179055506012600860016101000a81548160ff021916908360ff1602179055506000600960146101000a81548160ff0219169083151502179055506001600960156101000a81548160ff0219169083151502179055503480156200007f57600080fd5b50604051620062f0380380620062f083398181016040526040811015620000a557600080fd5b8101908080519060200190929190805190602001909291905050506040518060400160405280600f81526020017f4469676974616c205265736572766500000000000000000000000000000000008152506040518060400160405280600681526020017f44522d504f44000000000000000000000000000000000000000000000000000081525081600390805190602001906200014492919062000300565b5080600490805190602001906200015d92919062000300565b506012600560006101000a81548160ff021916908360ff160217905550505060006200018e620002f860201b60201c565b905080600560016101000a81548173ffffffffffffffffffffffffffffffffffffffff021916908373ffffffffffffffffffffffffffffffffffffffff1602179055508073ffffffffffffffffffffffffffffffffffffffff16600073ffffffffffffffffffffffffffffffffffffffff167f8be0079c531659141344cd1fd0a4f28419497f9722a3daafe3b4186f6b6457e060405160405180910390a35080600960006101000a81548173ffffffffffffffffffffffffffffffffffffffff021916908373ffffffffffffffffffffffffffffffffffffffff16021790555081600860026101000a81548173ffffffffffffffffffffffffffffffffffffffff021916908373ffffffffffffffffffffffffffffffffffffffff16021790555081600a60006101000a81548173ffffffffffffffffffffffffffffffffffffffff021916908373ffffffffffffffffffffffffffffffffffffffff1602179055505050620003af565b600033905090565b828054600181600116156101000203166002900490600052602060002090601f016020900481019282601f106200034357805160ff191683800117855562000374565b8280016001018555821562000374579182015b828111156200037357825182559160200191906001019062000356565b5b50905062000383919062000387565b5090565b620003ac91905b80821115620003a85760008160009055506001016200038e565b5090565b90565b615f3180620003bf6000396000f3fe608060405234801561001057600080fd5b50600436106101da5760003560e01c80638da5cb5b11610104578063bb2a9ad7116100a2578063dd62ed3e11610071578063dd62ed3e1461096a578063df9f8564146109e2578063e48e192e14610a06578063f2fde38b14610af1576101da565b8063bb2a9ad714610823578063bc9113f014610889578063bd806621146108ad578063d34ee4c01461090c576101da565b8063a457c2d7116100de578063a457c2d7146106f7578063a47c12b51461075d578063a9059cbb1461078d578063b73b9e0d146107f3576101da565b80638da5cb5b1461060657806395d89b4114610650578063a001ecdd146106d3576101da565b8063438bacaa1161017c5780636f827c341161014b5780636f827c341461052f57806370a0823114610570578063715018a6146105c857806380a35fbb146105d2576101da565b8063438bacaa1461041457806347e6dece146104455780634c183918146104835780634cd46f00146104c1576101da565b806318181a9c116101b857806318181a9c146102e657806323b872dd14610304578063313ce5671461038a57806339509351146103ae576101da565b806306fdde03146101df578063095ea7b31461026257806318160ddd146102c8575b600080fd5b6101e7610b35565b6040518080602001828103825283818151815260200191508051906020019080838360005b8381101561022757808201518184015260208101905061020c565b50505050905090810190601f1680156102545780820380516001836020036101000a031916815260200191505b509250505060405180910390f35b6102ae6004803603604081101561027857600080fd5b81019080803573ffffffffffffffffffffffffffffffffffffffff16906020019092919080359060200190929190505050610bd7565b604051808215151515815260200191505060405180910390f35b6102d0610bf5565b6040518082815260200191505060405180910390f35b6102ee610bff565b6040518082815260200191505060405180910390f35b6103706004803603606081101561031a57600080fd5b81019080803573ffffffffffffffffffffffffffffffffffffffff169060200190929190803573ffffffffffffffffffffffffffffffffffffffff16906020019092919080359060200190929190505050610c5f565b604051808215151515815260200191505060405180910390f35b610392610d38565b604051808260ff1660ff16815260200191505060405180910390f35b6103fa600480360360408110156103c457600080fd5b81019080803573ffffffffffffffffffffffffffffffffffffffff16906020019092919080359060200190929190505050610d4f565b604051808215151515815260200191505060405180910390f35b6104436004803603602081101561042a57600080fd5b81019080803560ff169060200190929190505050610e02565b005b6104816004803603604081101561045b57600080fd5b8101908080359060200190929190803563ffffffff169060200190929190505050610f64565b005b6104bf6004803603604081101561049957600080fd5b8101908080359060200190929190803563ffffffff16906020019092919050505061140a565b005b6104ed600480360360208110156104d757600080fd5b8101908080359060200190929190505050611569565b604051808273ffffffffffffffffffffffffffffffffffffffff1673ffffffffffffffffffffffffffffffffffffffff16815260200191505060405180910390f35b61056e6004803603604081101561054557600080fd5b81019080803560ff169060200190929190803563ffffffff1690602001909291905050506115a5565b005b6105b26004803603602081101561058657600080fd5b81019080803573ffffffffffffffffffffffffffffffffffffffff1690602001909291905050506116c8565b6040518082815260200191505060405180910390f35b6105d0611710565b005b610604600480360360208110156105e857600080fd5b81019080803563ffffffff16906020019092919050505061189b565b005b61060e611bc5565b604051808273ffffffffffffffffffffffffffffffffffffffff1673ffffffffffffffffffffffffffffffffffffffff16815260200191505060405180910390f35b610658611bef565b6040518080602001828103825283818151815260200191508051906020019080838360005b8381101561069857808201518184015260208101905061067d565b50505050905090810190601f1680156106c55780820380516001836020036101000a031916815260200191505b509250505060405180910390f35b6106db611c91565b604051808260ff1660ff16815260200191505060405180910390f35b6107436004803603604081101561070d57600080fd5b81019080803573ffffffffffffffffffffffffffffffffffffffff16906020019092919080359060200190929190505050611ca4565b604051808215151515815260200191505060405180910390f35b61078b6004803603602081101561077357600080fd5b81019080803515159060200190929190505050611d71565b005b6107d9600480360360408110156107a357600080fd5b81019080803573ffffffffffffffffffffffffffffffffffffffff16906020019092919080359060200190929190505050611e58565b604051808215151515815260200191505060405180910390f35b6108216004803603602081101561080957600080fd5b81019080803515159060200190929190505050611e76565b005b6108656004803603602081101561083957600080fd5b81019080803573ffffffffffffffffffffffffffffffffffffffff169060200190929190505050611f5d565b60405180848152602001838152602001828152602001935050505060405180910390f35b610891612063565b604051808260ff1660ff16815260200191505060405180910390f35b6108b5612076565b6040518080602001828103825283818151815260200191508051906020019060200280838360005b838110156108f85780820151818401526020810190506108dd565b505050509050019250505060405180910390f35b61094e6004803603602081101561092257600080fd5b81019080803573ffffffffffffffffffffffffffffffffffffffff169060200190929190505050612202565b604051808260ff1660ff16815260200191505060405180910390f35b6109cc6004803603604081101561098057600080fd5b81019080803573ffffffffffffffffffffffffffffffffffffffff169060200190929190803573ffffffffffffffffffffffffffffffffffffffff169060200190929190505050612222565b6040518082815260200191505060405180910390f35b6109ea6122a9565b604051808260ff1660ff16815260200191505060405180910390f35b610aef60048036036080811015610a1c57600080fd5b8101908080359060200190640100000000811115610a3957600080fd5b820183602082011115610a4b57600080fd5b80359060200191846020830284011164010000000083111715610a6d57600080fd5b909192939192939080359060200190640100000000811115610a8e57600080fd5b820183602082011115610aa057600080fd5b80359060200191846020830284011164010000000083111715610ac257600080fd5b9091929391929390803560ff169060200190929190803563ffffffff1690602001909291905050506122bc565b005b610b3360048036036020811015610b0757600080fd5b81019080803573ffffffffffffffffffffffffffffffffffffffff169060200190929190505050612a3f565b005b606060038054600181600116156101000203166002900480601f016020809104026020016040519081016040528092919081815260200182805460018160011615610100020316600290048015610bcd5780601f10610ba257610100808354040283529160200191610bcd565b820191906000526020600020905b815481529060010190602001808311610bb057829003601f168201915b5050505050905090565b6000610beb610be4612c4f565b8484612c57565b6001905092915050565b6000600254905090565b6000806000610c0c610bf5565b1115610c5857610c55610c1d610bf5565b610c47670de0b6b3a7640000610c39610c34612076565b612e4e565b61307390919063ffffffff16565b6130f990919063ffffffff16565b90505b8091505090565b6000610c6c848484613143565b610d2d84610c78612c4f565b610d2885604051806060016040528060288152602001615d8c60289139600160008b73ffffffffffffffffffffffffffffffffffffffff1673ffffffffffffffffffffffffffffffffffffffff1681526020019081526020016000206000610cde612c4f565b73ffffffffffffffffffffffffffffffffffffffff1673ffffffffffffffffffffffffffffffffffffffff168152602001908152602001600020546134049092919063ffffffff16565b612c57565b600190509392505050565b6000600560009054906101000a900460ff16905090565b6000610df8610d5c612c4f565b84610df38560016000610d6d612c4f565b73ffffffffffffffffffffffffffffffffffffffff1673ffffffffffffffffffffffffffffffffffffffff16815260200190815260200160002060008973ffffffffffffffffffffffffffffffffffffffff1673ffffffffffffffffffffffffffffffffffffffff168152602001908152602001600020546134c490919063ffffffff16565b612c57565b6001905092915050565b610e0a612c4f565b73ffffffffffffffffffffffffffffffffffffffff16600560019054906101000a900473ffffffffffffffffffffffffffffffffffffffff1673ffffffffffffffffffffffffffffffffffffffff1614610ecc576040517f08c379a00000000000000000000000000000000000000000000000000000000081526004018080602001828103825260208152602001807f4f776e61626c653a2063616c6c6572206973206e6f7420746865206f776e657281525060200191505060405180910390fd5b60648160ff161115610f46576040517f08c379a000000000000000000000000000000000000000000000000000000000815260040180806020018281038252601c8152602001807f4665652070657263656e74616765206578636565646564203130302e0000000081525060200191505060405180910390fd5b80600860006101000a81548160ff021916908360ff16021790555050565b600960149054906101000a900460ff16610fe6576040517f08c379a00000000000000000000000000000000000000000000000000000000081526004018080602001828103825260148152602001807f4465706f7369742069732064697361626c65642e00000000000000000000000081525060200191505060405180910390fd5b81600960009054906101000a900473ffffffffffffffffffffffffffffffffffffffff1673ffffffffffffffffffffffffffffffffffffffff1663dd62ed3e33306040518363ffffffff1660e01b8152600401808373ffffffffffffffffffffffffffffffffffffffff1673ffffffffffffffffffffffffffffffffffffffff1681526020018273ffffffffffffffffffffffffffffffffffffffff1673ffffffffffffffffffffffffffffffffffffffff1681526020019250505060206040518083038186803b1580156110ba57600080fd5b505afa1580156110ce573d6000803e3d6000fd5b505050506040513d60208110156110e457600080fd5b8101908080519060200190929190505050101561114c576040517f08c379a000000000000000000000000000000000000000000000000000000000815260040180806020018281038252602c815260200180615eab602c913960400191505060405180910390fd5b81600960009054906101000a900473ffffffffffffffffffffffffffffffffffffffff1673ffffffffffffffffffffffffffffffffffffffff166370a08231336040518263ffffffff1660e01b8152600401808273ffffffffffffffffffffffffffffffffffffffff1673ffffffffffffffffffffffffffffffffffffffff16815260200191505060206040518083038186803b1580156111ec57600080fd5b505afa158015611200573d6000803e3d6000fd5b505050506040513d602081101561121657600080fd5b8101908080519060200190929190505050101561127e576040517f08c379a0000000000000000000000000000000000000000000000000000000008152600401808060200182810382526027815260200180615be36027913960400191505060405180910390fd5b6112ac600960009054906101000a900473ffffffffffffffffffffffffffffffffffffffff1633308561354c565b60006112b6610bff565b905060006112e784600960009054906101000a900473ffffffffffffffffffffffffffffffffffffffff1685613639565b90506112f38184613c60565b5060008090506000611303610bf5565b141561132a5761132366038d7ea4c680008661307390919063ffffffff16565b905061138e565b600061133c611337612076565b612e4e565b9050600061136d8561135f670de0b6b3a76400008561307390919063ffffffff16565b6130f990919063ffffffff16565b905061138961137a610bf5565b82613df690919063ffffffff16565b925050505b6113983382613e40565b7fe1fffcc4923d04b559f4d29a8bfc6cda04eb5b0d3c460751c2402c5c5cc9109c3386604051808373ffffffffffffffffffffffffffffffffffffffff1673ffffffffffffffffffffffffffffffffffffffff1681526020018281526020019250505060405180910390a15050505050565b600960159054906101000a900460ff1661148c576040517f08c379a00000000000000000000000000000000000000000000000000000000081526004018080602001828103825260158152602001807f57697468647261772069732064697361626c65642e000000000000000000000081525060200191505060405180910390fd5b600061149733611f5d565b50915050828110156114f4576040517f08c379a000000000000000000000000000000000000000000000000000000000815260040180806020018281038252602d815260200180615db4602d913960400191505060405180910390fd5b6000611520826115126402540be4008761307390919063ffffffff16565b6130f990919063ffffffff16565b905060006115566402540be4006115488461153a336116c8565b61307390919063ffffffff16565b6130f990919063ffffffff16565b90506115628185614007565b5050505050565b6006818154811061157657fe5b906000526020600020016000915054906101000a900473ffffffffffffffffffffffffffffffffffffffff1681565b600960159054906101000a900460ff16611627576040517f08c379a00000000000000000000000000000000000000000000000000000000081526004018080602001828103825260158152602001807f57697468647261772069732064697361626c65642e000000000000000000000081525060200191505060405180910390fd5b60648260ff161115611684576040517f08c379a000000000000000000000000000000000000000000000000000000000815260040180806020018281038252602f815260200180615d0a602f913960400191505060405180910390fd5b60006116b760646116a98560ff1661169b336116c8565b61307390919063ffffffff16565b6130f990919063ffffffff16565b90506116c38183614007565b505050565b60008060008373ffffffffffffffffffffffffffffffffffffffff1673ffffffffffffffffffffffffffffffffffffffff168152602001908152602001600020549050919050565b611718612c4f565b73ffffffffffffffffffffffffffffffffffffffff16600560019054906101000a900473ffffffffffffffffffffffffffffffffffffffff1673ffffffffffffffffffffffffffffffffffffffff16146117da576040517f08c379a00000000000000000000000000000000000000000000000000000000081526004018080602001828103825260208152602001807f4f776e61626c653a2063616c6c6572206973206e6f7420746865206f776e657281525060200191505060405180910390fd5b600073ffffffffffffffffffffffffffffffffffffffff16600560019054906101000a900473ffffffffffffffffffffffffffffffffffffffff1673ffffffffffffffffffffffffffffffffffffffff167f8be0079c531659141344cd1fd0a4f28419497f9722a3daafe3b4186f6b6457e060405160405180910390a36000600560016101000a81548173ffffffffffffffffffffffffffffffffffffffff021916908373ffffffffffffffffffffffffffffffffffffffff160217905550565b6118a3612c4f565b73ffffffffffffffffffffffffffffffffffffffff16600560019054906101000a900473ffffffffffffffffffffffffffffffffffffffff1673ffffffffffffffffffffffffffffffffffffffff1614611965576040517f08c379a00000000000000000000000000000000000000000000000000000000081526004018080602001828103825260208152602001807f4f776e61626c653a2063616c6c6572206973206e6f7420746865206f776e657281525060200191505060405180910390fd5b6000600560159054906101000a900460ff1660ff161161198457600080fd5b6060600560159054906101000a900460ff1660ff166040519080825280602002602001820160405280156119c75781602001602082028038833980820191505090505b50905060008090505b600560159054906101000a900460ff1660ff168160ff161015611aaa576007600060068360ff1681548110611a0157fe5b9060005260206000200160009054906101000a900473ffffffffffffffffffffffffffffffffffffffff1673ffffffffffffffffffffffffffffffffffffffff1673ffffffffffffffffffffffffffffffffffffffff16815260200190815260200160002060009054906101000a900460ff16828260ff1681518110611a8357fe5b602002602001018181510191509060ff16908160ff168152505080806001019150506119d0565b507fb32bb5a705a3fe2dcd1ccb4c9d06b92fec03383d384acf8bfbc4e376db590d516006826040518080602001806020018381038352858181548152602001915080548015611b4e57602002820191906000526020600020905b8160009054906101000a900473ffffffffffffffffffffffffffffffffffffffff1673ffffffffffffffffffffffffffffffffffffffff1681526020019060010190808311611b04575b5050838103825284818151815260200191508051906020019060200280838360005b83811015611b8b578082015181840152602081019050611b70565b5050505090500194505050505060405180910390a16000611bb3611bad612076565b8461424b565b9050611bbf8184613c60565b50505050565b6000600560019054906101000a900473ffffffffffffffffffffffffffffffffffffffff16905090565b606060048054600181600116156101000203166002900480601f016020809104026020016040519081016040528092919081815260200182805460018160011615610100020316600290048015611c875780601f10611c5c57610100808354040283529160200191611c87565b820191906000526020600020905b815481529060010190602001808311611c6a57829003601f168201915b5050505050905090565b600860009054906101000a900460ff1681565b6000611d67611cb1612c4f565b84611d6285604051806060016040528060258152602001615ed76025913960016000611cdb612c4f565b73ffffffffffffffffffffffffffffffffffffffff1673ffffffffffffffffffffffffffffffffffffffff16815260200190815260200160002060008a73ffffffffffffffffffffffffffffffffffffffff1673ffffffffffffffffffffffffffffffffffffffff168152602001908152602001600020546134049092919063ffffffff16565b612c57565b6001905092915050565b611d79612c4f565b73ffffffffffffffffffffffffffffffffffffffff16600560019054906101000a900473ffffffffffffffffffffffffffffffffffffffff1673ffffffffffffffffffffffffffffffffffffffff1614611e3b576040517f08c379a00000000000000000000000000000000000000000000000000000000081526004018080602001828103825260208152602001807f4f776e61626c653a2063616c6c6572206973206e6f7420746865206f776e657281525060200191505060405180910390fd5b80600960146101000a81548160ff02191690831515021790555050565b6000611e6c611e65612c4f565b8484613143565b6001905092915050565b611e7e612c4f565b73ffffffffffffffffffffffffffffffffffffffff16600560019054906101000a900473ffffffffffffffffffffffffffffffffffffffff1673ffffffffffffffffffffffffffffffffffffffff1614611f40576040517f08c379a00000000000000000000000000000000000000000000000000000000081526004018080602001828103825260208152602001807f4f776e61626c653a2063616c6c6572206973206e6f7420746865206f776e657281525060200191505060405180910390fd5b80600960156101000a81548160ff02191690831515021790555050565b600080600080611f9f670de0b6b3a7640000611f91611f7a610bff565b611f83896116c8565b61307390919063ffffffff16565b6130f990919063ffffffff16565b90506000611fdb6064611fcd600860009054906101000a900460ff1660ff168561307390919063ffffffff16565b6130f990919063ffffffff16565b9050600061200b83600960009054906101000a900473ffffffffffffffffffffffffffffffffffffffff166142fe565b9050600061204d6120258486613df690919063ffffffff16565b600960009054906101000a900473ffffffffffffffffffffffffffffffffffffffff166142fe565b9050818184965096509650505050509193909250565b600860019054906101000a900460ff1681565b606080600560159054906101000a900460ff1660ff166040519080825280602002602001820160405280156120ba5781602001602082028038833980820191505090505b50905060008090505b600560159054906101000a900460ff1660ff168160ff1610156121fa5760068160ff16815481106120f057fe5b9060005260206000200160009054906101000a900473ffffffffffffffffffffffffffffffffffffffff1673ffffffffffffffffffffffffffffffffffffffff166370a08231306040518263ffffffff1660e01b8152600401808273ffffffffffffffffffffffffffffffffffffffff1673ffffffffffffffffffffffffffffffffffffffff16815260200191505060206040518083038186803b15801561219757600080fd5b505afa1580156121ab573d6000803e3d6000fd5b505050506040513d60208110156121c157600080fd5b8101908080519060200190929190505050828260ff16815181106121e157fe5b60200260200101818152505080806001019150506120c3565b508091505090565b60076020528060005260406000206000915054906101000a900460ff1681565b6000600160008473ffffffffffffffffffffffffffffffffffffffff1673ffffffffffffffffffffffffffffffffffffffff16815260200190815260200160002060008373ffffffffffffffffffffffffffffffffffffffff1673ffffffffffffffffffffffffffffffffffffffff16815260200190815260200160002054905092915050565b600560159054906101000a900460ff1681565b6122c4612c4f565b73ffffffffffffffffffffffffffffffffffffffff16600560019054906101000a900473ffffffffffffffffffffffffffffffffffffffff1673ffffffffffffffffffffffffffffffffffffffff1614612386576040517f08c379a00000000000000000000000000000000000000000000000000000000081526004018080602001828103825260208152602001807f4f776e61626c653a2063616c6c6572206973206e6f7420746865206f776e657281525060200191505060405180910390fd5b60018260ff161015612400576040517f08c379a000000000000000000000000000000000000000000000000000000000815260040180806020018281038252601d8152602001807f53657474696e6720737472617465677920746f203020746f6b656e732e00000081525060200191505060405180910390fd5b8160ff16868690501461245e576040517f08c379a0000000000000000000000000000000000000000000000000000000008152600401808060200182810382526027815260200180615c4f6027913960400191505060405180910390fd5b8160ff1684849050146124bc576040517f08c379a0000000000000000000000000000000000000000000000000000000008152600401808060200182810382526032815260200180615d396032913960400191505060405180910390fd5b600080905060008090505b8360ff168160ff1610156125ee57600960009054906101000a900473ffffffffffffffffffffffffffffffffffffffff1673ffffffffffffffffffffffffffffffffffffffff1688888360ff1681811061251d57fe5b9050602002013573ffffffffffffffffffffffffffffffffffffffff1673ffffffffffffffffffffffffffffffffffffffff1614156125c4576040517f08c379a00000000000000000000000000000000000000000000000000000000081526004018080602001828103825260138152602001807f546f6b656e2063616e2774206265204452432e0000000000000000000000000081525060200191505060405180910390fd5b85858260ff168181106125d357fe5b9050602002013560ff168201915080806001019150506124c7565b5060648160ff16146125ff57600080fd5b6060600560159054906101000a900460ff1660ff166040519080825280602002602001820160405280156126425781602001602082028038833980820191505090505b50905060008090505b600560159054906101000a900460ff1660ff168160ff1610156127a8576007600060068360ff168154811061267c57fe5b9060005260206000200160009054906101000a900473ffffffffffffffffffffffffffffffffffffffff1673ffffffffffffffffffffffffffffffffffffffff1673ffffffffffffffffffffffffffffffffffffffff16815260200190815260200160002060009054906101000a900460ff16828260ff16815181106126fe57fe5b602002602001019060ff16908160ff16815250506007600060068360ff168154811061272657fe5b9060005260206000200160009054906101000a900473ffffffffffffffffffffffffffffffffffffffff1673ffffffffffffffffffffffffffffffffffffffff1673ffffffffffffffffffffffffffffffffffffffff16815260200190815260200160002060006101000a81549060ff0219169055808060010191505061264b565b507f3e92ff021819876e3929d389ccc560772c36af85773e666546da33084b3bdc896006828a8a8a8a604051808060200180602001806020018060200185810385528b818154815260200191508054801561285857602002820191906000526020600020905b8160009054906101000a900473ffffffffffffffffffffffffffffffffffffffff1673ffffffffffffffffffffffffffffffffffffffff168152602001906001019080831161280e575b505085810384528a818151815260200191508051906020019060200280838360005b8381101561289557808201518184015260208101905061287a565b505050509050018581038352898982818152602001925060200280828437600081840152601f19601f8201169050808301925050508581038252878782818152602001925060200280828437600081840152601f19601f8201169050808301925050509a505050505050505050505060405180910390a1600061291f612919612076565b8561424b565b9050888860069190612932929190615aff565b5084600560156101000a81548160ff021916908360ff16021790555060008090505b600560159054906101000a900460ff1660ff168160ff161015612a285787878260ff1681811061298057fe5b9050602002013560ff166007600060068460ff168154811061299e57fe5b9060005260206000200160009054906101000a900473ffffffffffffffffffffffffffffffffffffffff1673ffffffffffffffffffffffffffffffffffffffff1673ffffffffffffffffffffffffffffffffffffffff16815260200190815260200160002060006101000a81548160ff021916908360ff1602179055508080600101915050612954565b50612a338185613c60565b50505050505050505050565b612a47612c4f565b73ffffffffffffffffffffffffffffffffffffffff16600560019054906101000a900473ffffffffffffffffffffffffffffffffffffffff1673ffffffffffffffffffffffffffffffffffffffff1614612b09576040517f08c379a00000000000000000000000000000000000000000000000000000000081526004018080602001828103825260208152602001807f4f776e61626c653a2063616c6c6572206973206e6f7420746865206f776e657281525060200191505060405180910390fd5b600073ffffffffffffffffffffffffffffffffffffffff168173ffffffffffffffffffffffffffffffffffffffff161415612b8f576040517f08c379a0000000000000000000000000000000000000000000000000000000008152600401808060200182810382526026815260200180615c766026913960400191505060405180910390fd5b8073ffffffffffffffffffffffffffffffffffffffff16600560019054906101000a900473ffffffffffffffffffffffffffffffffffffffff1673ffffffffffffffffffffffffffffffffffffffff167f8be0079c531659141344cd1fd0a4f28419497f9722a3daafe3b4186f6b6457e060405160405180910390a380600560016101000a81548173ffffffffffffffffffffffffffffffffffffffff021916908373ffffffffffffffffffffffffffffffffffffffff16021790555050565b600033905090565b600073ffffffffffffffffffffffffffffffffffffffff168373ffffffffffffffffffffffffffffffffffffffff161415612cdd576040517f08c379a0000000000000000000000000000000000000000000000000000000008152600401808060200182810382526024815260200180615e276024913960400191505060405180910390fd5b600073ffffffffffffffffffffffffffffffffffffffff168273ffffffffffffffffffffffffffffffffffffffff161415612d63576040517f08c379a0000000000000000000000000000000000000000000000000000000008152600401808060200182810382526022815260200180615c9c6022913960400191505060405180910390fd5b80600160008573ffffffffffffffffffffffffffffffffffffffff1673ffffffffffffffffffffffffffffffffffffffff16815260200190815260200160002060008473ffffffffffffffffffffffffffffffffffffffff1673ffffffffffffffffffffffffffffffffffffffff168152602001908152602001600020819055508173ffffffffffffffffffffffffffffffffffffffff168373ffffffffffffffffffffffffffffffffffffffff167f8c5be1e5ebec7d5bd14f71427d1e84f3dd0314c0f7b2291e5b200ac8c7c3b925836040518082815260200191505060405180910390a3505050565b60008060606002604051908082528060200260200182016040528015612e835781602001602082028038833980820191505090505b509050600a60009054906101000a900473ffffffffffffffffffffffffffffffffffffffff1673ffffffffffffffffffffffffffffffffffffffff1663ad5c46486040518163ffffffff1660e01b815260040160206040518083038186803b158015612eee57600080fd5b505afa158015612f02573d6000803e3d6000fd5b505050506040513d6020811015612f1857600080fd5b810190808051906020019092919050505081600181518110612f3657fe5b602002602001019073ffffffffffffffffffffffffffffffffffffffff16908173ffffffffffffffffffffffffffffffffffffffff168152505060008090505b600560159054906101000a900460ff1660ff168160ff16101561306857600060068260ff1681548110612fa557fe5b9060005260206000200160009054906101000a900473ffffffffffffffffffffffffffffffffffffffff1690508083600081518110612fe057fe5b602002602001019073ffffffffffffffffffffffffffffffffffffffff16908173ffffffffffffffffffffffffffffffffffffffff16815250506000868360ff168151811061302b57fe5b6020026020010151905060006130418284614686565b905061305681876134c490919063ffffffff16565b95505050508080600101915050612f76565b508192505050919050565b60008083141561308657600090506130f3565b600082840290508284828161309757fe5b04146130ee576040517f08c379a0000000000000000000000000000000000000000000000000000000008152600401808060200182810382526021815260200180615d6b6021913960400191505060405180910390fd5b809150505b92915050565b600061313b83836040518060400160405280601a81526020017f536166654d6174683a206469766973696f6e206279207a65726f000000000000815250614a0e565b905092915050565b600073ffffffffffffffffffffffffffffffffffffffff168373ffffffffffffffffffffffffffffffffffffffff1614156131c9576040517f08c379a0000000000000000000000000000000000000000000000000000000008152600401808060200182810382526025815260200180615e026025913960400191505060405180910390fd5b600073ffffffffffffffffffffffffffffffffffffffff168273ffffffffffffffffffffffffffffffffffffffff16141561324f576040517f08c379a0000000000000000000000000000000000000000000000000000000008152600401808060200182810382526023815260200180615c0a6023913960400191505060405180910390fd5b61325a838383614ad4565b6132c581604051806060016040528060268152602001615cbe602691396000808773ffffffffffffffffffffffffffffffffffffffff1673ffffffffffffffffffffffffffffffffffffffff168152602001908152602001600020546134049092919063ffffffff16565b6000808573ffffffffffffffffffffffffffffffffffffffff1673ffffffffffffffffffffffffffffffffffffffff16815260200190815260200160002081905550613358816000808573ffffffffffffffffffffffffffffffffffffffff1673ffffffffffffffffffffffffffffffffffffffff168152602001908152602001600020546134c490919063ffffffff16565b6000808473ffffffffffffffffffffffffffffffffffffffff1673ffffffffffffffffffffffffffffffffffffffff168152602001908152602001600020819055508173ffffffffffffffffffffffffffffffffffffffff168373ffffffffffffffffffffffffffffffffffffffff167fddf252ad1be2c89b69c2b068fc378daa952ba7f163c4a11628f55a4df523b3ef836040518082815260200191505060405180910390a3505050565b60008383111582906134b1576040517f08c379a00000000000000000000000000000000000000000000000000000000081526004018080602001828103825283818151815260200191508051906020019080838360005b8381101561347657808201518184015260208101905061345b565b50505050905090810190601f1680156134a35780820380516001836020036101000a031916815260200191505b509250505060405180910390fd5b5060008385039050809150509392505050565b600080828401905083811015613542576040517f08c379a000000000000000000000000000000000000000000000000000000000815260040180806020018281038252601b8152602001807f536166654d6174683a206164646974696f6e206f766572666c6f77000000000081525060200191505060405180910390fd5b8091505092915050565b613633846323b872dd60e01b858585604051602401808473ffffffffffffffffffffffffffffffffffffffff1673ffffffffffffffffffffffffffffffffffffffff1681526020018373ffffffffffffffffffffffffffffffffffffffff1673ffffffffffffffffffffffffffffffffffffffff1681526020018281526020019350505050604051602081830303815290604052907bffffffffffffffffffffffffffffffffffffffffffffffffffffffff19166020820180517bffffffffffffffffffffffffffffffffffffffffffffffffffffffff8381831617835250505050614ad9565b50505050565b6000600a60009054906101000a900473ffffffffffffffffffffffffffffffffffffffff1673ffffffffffffffffffffffffffffffffffffffff1663ad5c46486040518163ffffffff1660e01b815260040160206040518083038186803b1580156136a357600080fd5b505afa1580156136b7573d6000803e3d6000fd5b505050506040513d60208110156136cd57600080fd5b810190808051906020019092919050505073ffffffffffffffffffffffffffffffffffffffff168373ffffffffffffffffffffffffffffffffffffffff161415801561371a575060008414155b15613c5857606060026040519080825280602002602001820160405280156137515781602001602082028038833980820191505090505b509050838160008151811061376257fe5b602002602001019073ffffffffffffffffffffffffffffffffffffffff16908173ffffffffffffffffffffffffffffffffffffffff1681525050600a60009054906101000a900473ffffffffffffffffffffffffffffffffffffffff1673ffffffffffffffffffffffffffffffffffffffff1663ad5c46486040518163ffffffff1660e01b815260040160206040518083038186803b15801561380457600080fd5b505afa158015613818573d6000803e3d6000fd5b505050506040513d602081101561382e57600080fd5b81019080805190602001909291905050508160018151811061384c57fe5b602002602001019073ffffffffffffffffffffffffffffffffffffffff16908173ffffffffffffffffffffffffffffffffffffffff16815250506138c78160008151811061389657fe5b6020026020010151600860029054906101000a900473ffffffffffffffffffffffffffffffffffffffff1687614bc8565b6000600a60009054906101000a900473ffffffffffffffffffffffffffffffffffffffff1673ffffffffffffffffffffffffffffffffffffffff1663d06ca61f87846040518363ffffffff1660e01b81526004018083815260200180602001828103825283818151815260200191508051906020019060200280838360005b83811015613961578082015181840152602081019050613946565b50505050905001935050505060006040518083038186803b15801561398557600080fd5b505afa158015613999573d6000803e3d6000fd5b505050506040513d6000823e3d601f19601f8201168201806040525060208110156139c357600080fd5b81019080805160405193929190846401000000008211156139e357600080fd5b838201915060208201858111156139f957600080fd5b8251866020820283011164010000000082111715613a1657600080fd5b8083526020830192505050908051906020019060200280838360005b83811015613a4d578082015181840152602081019050613a32565b50505050905001604052505050600181518110613a6657fe5b60200260200101519050600a60009054906101000a900473ffffffffffffffffffffffffffffffffffffffff1673ffffffffffffffffffffffffffffffffffffffff166338ed173987838530896040518663ffffffff1660e01b815260040180868152602001858152602001806020018473ffffffffffffffffffffffffffffffffffffffff1673ffffffffffffffffffffffffffffffffffffffff1681526020018363ffffffff168152602001828103825285818151815260200191508051906020019060200280838360005b83811015613b4f578082015181840152602081019050613b34565b505050509050019650505050505050600060405180830381600087803b158015613b7857600080fd5b505af1158015613b8c573d6000803e3d6000fd5b505050506040513d6000823e3d601f19601f820116820180604052506020811015613bb657600080fd5b8101908080516040519392919084640100000000821115613bd657600080fd5b83820191506020820185811115613bec57600080fd5b8251866020820283011164010000000082111715613c0957600080fd5b8083526020830192505050908051906020019060200280838360005b83811015613c40578082015181840152602081019050613c25565b50505050905001604052505050508092505050613c59565b5b9392505050565b606080600560159054906101000a900460ff1660ff16604051908082528060200260200182016040528015613ca45781602001602082028038833980820191505090505b50905060008090505b600560159054906101000a900460ff1660ff168160ff161015613deb576000613d7b6064613d6d6007600060068760ff1681548110613ce857fe5b9060005260206000200160009054906101000a900473ffffffffffffffffffffffffffffffffffffffff1673ffffffffffffffffffffffffffffffffffffffff1673ffffffffffffffffffffffffffffffffffffffff16815260200190815260200160002060009054906101000a900460ff1660ff168961307390919063ffffffff16565b6130f990919063ffffffff16565b9050613dc28160068460ff1681548110613d9157fe5b9060005260206000200160009054906101000a900473ffffffffffffffffffffffffffffffffffffffff1687614dcf565b838360ff1681518110613dd157fe5b602002602001018181525050508080600101915050613cad565b508091505092915050565b6000613e3883836040518060400160405280601e81526020017f536166654d6174683a207375627472616374696f6e206f766572666c6f770000815250613404565b905092915050565b600073ffffffffffffffffffffffffffffffffffffffff168273ffffffffffffffffffffffffffffffffffffffff161415613ee3576040517f08c379a000000000000000000000000000000000000000000000000000000000815260040180806020018281038252601f8152602001807f45524332303a206d696e7420746f20746865207a65726f20616464726573730081525060200191505060405180910390fd5b613eef60008383614ad4565b613f04816002546134c490919063ffffffff16565b600281905550613f5b816000808573ffffffffffffffffffffffffffffffffffffffff1673ffffffffffffffffffffffffffffffffffffffff168152602001908152602001600020546134c490919063ffffffff16565b6000808473ffffffffffffffffffffffffffffffffffffffff1673ffffffffffffffffffffffffffffffffffffffff168152602001908152602001600020819055508173ffffffffffffffffffffffffffffffffffffffff16600073ffffffffffffffffffffffffffffffffffffffff167fddf252ad1be2c89b69c2b068fc378daa952ba7f163c4a11628f55a4df523b3ef836040518082815260200191505060405180910390a35050565b6060600560159054906101000a900460ff1660ff1660405190808252806020026020018201604052801561404a5781602001602082028038833980820191505090505b509050614056836153f6565b905061406233846155e3565b600061406e828461424b565b905060006140aa606461409c600860009054906101000a900460ff1660ff168561307390919063ffffffff16565b6130f990919063ffffffff16565b905060006140ed6140c48385613df690919063ffffffff16565b600960009054906101000a900473ffffffffffffffffffffffffffffffffffffffff1687614dcf565b905061411c600960009054906101000a900473ffffffffffffffffffffffffffffffffffffffff1633836157a7565b6141d0600a60009054906101000a900473ffffffffffffffffffffffffffffffffffffffff1673ffffffffffffffffffffffffffffffffffffffff1663ad5c46486040518163ffffffff1660e01b815260040160206040518083038186803b15801561418757600080fd5b505afa15801561419b573d6000803e3d6000fd5b505050506040513d60208110156141b157600080fd5b81019080805190602001909291905050506141ca611bc5565b846157a7565b7ff279e6a1f5e320cca91135676d9cb6e44ca8a08c0b88342bcdb1144f6511b568338284604051808473ffffffffffffffffffffffffffffffffffffffff1673ffffffffffffffffffffffffffffffffffffffff168152602001838152602001828152602001935050505060405180910390a1505050505050565b60008060008090505b600560159054906101000a900460ff1660ff168160ff1610156142f35760006142ce868360ff168151811061428557fe5b602002602001015160068460ff168154811061429d57fe5b9060005260206000200160009054906101000a900473ffffffffffffffffffffffffffffffffffffffff1687613639565b90506142e381846134c490919063ffffffff16565b9250508080600101915050614254565b508091505092915050565b6000606060026040519080825280602002602001820160405280156143325781602001602082028038833980820191505090505b509050600a60009054906101000a900473ffffffffffffffffffffffffffffffffffffffff1673ffffffffffffffffffffffffffffffffffffffff1663ad5c46486040518163ffffffff1660e01b815260040160206040518083038186803b15801561439d57600080fd5b505afa1580156143b1573d6000803e3d6000fd5b505050506040513d60208110156143c757600080fd5b8101908080519060200190929190505050816000815181106143e557fe5b602002602001019073ffffffffffffffffffffffffffffffffffffffff16908173ffffffffffffffffffffffffffffffffffffffff1681525050828160018151811061442d57fe5b602002602001019073ffffffffffffffffffffffffffffffffffffffff16908173ffffffffffffffffffffffffffffffffffffffff16815250508060018151811061447457fe5b602002602001015173ffffffffffffffffffffffffffffffffffffffff168160008151811061449f57fe5b602002602001015173ffffffffffffffffffffffffffffffffffffffff16141580156144cc575060008414155b1561467e57600a60009054906101000a900473ffffffffffffffffffffffffffffffffffffffff1673ffffffffffffffffffffffffffffffffffffffff1663d06ca61f85836040518363ffffffff1660e01b81526004018083815260200180602001828103825283818151815260200191508051906020019060200280838360005b8381101561456957808201518184015260208101905061454e565b50505050905001935050505060006040518083038186803b15801561458d57600080fd5b505afa1580156145a1573d6000803e3d6000fd5b505050506040513d6000823e3d601f19601f8201168201806040525060208110156145cb57600080fd5b81019080805160405193929190846401000000008211156145eb57600080fd5b8382019150602082018581111561460157600080fd5b825186602082028301116401000000008211171561461e57600080fd5b8083526020830192505050908051906020019060200280838360005b8381101561465557808201518184015260208101905061463a565b5050505090500160405250505060018151811061466e57fe5b6020026020010151915050614680565b505b92915050565b6000606060026040519080825280602002602001820160405280156146ba5781602001602082028038833980820191505090505b50905082816000815181106146cb57fe5b602002602001019073ffffffffffffffffffffffffffffffffffffffff16908173ffffffffffffffffffffffffffffffffffffffff1681525050600a60009054906101000a900473ffffffffffffffffffffffffffffffffffffffff1673ffffffffffffffffffffffffffffffffffffffff1663ad5c46486040518163ffffffff1660e01b815260040160206040518083038186803b15801561476d57600080fd5b505afa158015614781573d6000803e3d6000fd5b505050506040513d602081101561479757600080fd5b8101908080519060200190929190505050816001815181106147b557fe5b602002602001019073ffffffffffffffffffffffffffffffffffffffff16908173ffffffffffffffffffffffffffffffffffffffff1681525050806001815181106147fc57fe5b602002602001015173ffffffffffffffffffffffffffffffffffffffff168160008151811061482757fe5b602002602001015173ffffffffffffffffffffffffffffffffffffffff1614158015614854575060008414155b15614a0657600a60009054906101000a900473ffffffffffffffffffffffffffffffffffffffff1673ffffffffffffffffffffffffffffffffffffffff1663d06ca61f85836040518363ffffffff1660e01b81526004018083815260200180602001828103825283818151815260200191508051906020019060200280838360005b838110156148f15780820151818401526020810190506148d6565b50505050905001935050505060006040518083038186803b15801561491557600080fd5b505afa158015614929573d6000803e3d6000fd5b505050506040513d6000823e3d601f19601f82011682018060405250602081101561495357600080fd5b810190808051604051939291908464010000000082111561497357600080fd5b8382019150602082018581111561498957600080fd5b82518660208202830111640100000000821117156149a657600080fd5b8083526020830192505050908051906020019060200280838360005b838110156149dd5780820151818401526020810190506149c2565b505050509050016040525050506001815181106149f657fe5b6020026020010151915050614a08565b505b92915050565b60008083118290614aba576040517f08c379a00000000000000000000000000000000000000000000000000000000081526004018080602001828103825283818151815260200191508051906020019080838360005b83811015614a7f578082015181840152602081019050614a64565b50505050905090810190601f168015614aac5780820380516001836020036101000a031916815260200191505b509250505060405180910390fd5b506000838581614ac657fe5b049050809150509392505050565b505050565b6060614b3b826040518060400160405280602081526020017f5361666545524332303a206c6f772d6c6576656c2063616c6c206661696c65648152508573ffffffffffffffffffffffffffffffffffffffff1661585f9092919063ffffffff16565b9050600081511115614bc357808060200190516020811015614b5c57600080fd5b8101908080519060200190929190505050614bc2576040517f08c379a000000000000000000000000000000000000000000000000000000000815260040180806020018281038252602a815260200180615e4b602a913960400191505060405180910390fd5b5b505050565b6000811480614cc2575060008373ffffffffffffffffffffffffffffffffffffffff1663dd62ed3e30856040518363ffffffff1660e01b8152600401808373ffffffffffffffffffffffffffffffffffffffff1673ffffffffffffffffffffffffffffffffffffffff1681526020018273ffffffffffffffffffffffffffffffffffffffff1673ffffffffffffffffffffffffffffffffffffffff1681526020019250505060206040518083038186803b158015614c8557600080fd5b505afa158015614c99573d6000803e3d6000fd5b505050506040513d6020811015614caf57600080fd5b8101908080519060200190929190505050145b614d17576040517f08c379a0000000000000000000000000000000000000000000000000000000008152600401808060200182810382526036815260200180615e756036913960400191505060405180910390fd5b614dca8363095ea7b360e01b8484604051602401808373ffffffffffffffffffffffffffffffffffffffff1673ffffffffffffffffffffffffffffffffffffffff16815260200182815260200192505050604051602081830303815290604052907bffffffffffffffffffffffffffffffffffffffffffffffffffffffff19166020820180517bffffffffffffffffffffffffffffffffffffffffffffffffffffffff8381831617835250505050614ad9565b505050565b6000600a60009054906101000a900473ffffffffffffffffffffffffffffffffffffffff1673ffffffffffffffffffffffffffffffffffffffff1663ad5c46486040518163ffffffff1660e01b815260040160206040518083038186803b158015614e3957600080fd5b505afa158015614e4d573d6000803e3d6000fd5b505050506040513d6020811015614e6357600080fd5b810190808051906020019092919050505073ffffffffffffffffffffffffffffffffffffffff168373ffffffffffffffffffffffffffffffffffffffff1614158015614eb0575060008414155b156153ee5760606002604051908082528060200260200182016040528015614ee75781602001602082028038833980820191505090505b509050600a60009054906101000a900473ffffffffffffffffffffffffffffffffffffffff1673ffffffffffffffffffffffffffffffffffffffff1663ad5c46486040518163ffffffff1660e01b815260040160206040518083038186803b158015614f5257600080fd5b505afa158015614f66573d6000803e3d6000fd5b505050506040513d6020811015614f7c57600080fd5b810190808051906020019092919050505081600081518110614f9a57fe5b602002602001019073ffffffffffffffffffffffffffffffffffffffff16908173ffffffffffffffffffffffffffffffffffffffff16815250508381600181518110614fe257fe5b602002602001019073ffffffffffffffffffffffffffffffffffffffff16908173ffffffffffffffffffffffffffffffffffffffff168152505061505d8160008151811061502c57fe5b6020026020010151600860029054906101000a900473ffffffffffffffffffffffffffffffffffffffff1687614bc8565b6000600a60009054906101000a900473ffffffffffffffffffffffffffffffffffffffff1673ffffffffffffffffffffffffffffffffffffffff1663d06ca61f87846040518363ffffffff1660e01b81526004018083815260200180602001828103825283818151815260200191508051906020019060200280838360005b838110156150f75780820151818401526020810190506150dc565b50505050905001935050505060006040518083038186803b15801561511b57600080fd5b505afa15801561512f573d6000803e3d6000fd5b505050506040513d6000823e3d601f19601f82011682018060405250602081101561515957600080fd5b810190808051604051939291908464010000000082111561517957600080fd5b8382019150602082018581111561518f57600080fd5b82518660208202830111640100000000821117156151ac57600080fd5b8083526020830192505050908051906020019060200280838360005b838110156151e35780820151818401526020810190506151c8565b505050509050016040525050506001815181106151fc57fe5b60200260200101519050600a60009054906101000a900473ffffffffffffffffffffffffffffffffffffffff1673ffffffffffffffffffffffffffffffffffffffff166338ed173987838530896040518663ffffffff1660e01b815260040180868152602001858152602001806020018473ffffffffffffffffffffffffffffffffffffffff1673ffffffffffffffffffffffffffffffffffffffff1681526020018363ffffffff168152602001828103825285818151815260200191508051906020019060200280838360005b838110156152e55780820151818401526020810190506152ca565b505050509050019650505050505050600060405180830381600087803b15801561530e57600080fd5b505af1158015615322573d6000803e3d6000fd5b505050506040513d6000823e3d601f19601f82011682018060405250602081101561534c57600080fd5b810190808051604051939291908464010000000082111561536c57600080fd5b8382019150602082018581111561538257600080fd5b825186602082028301116401000000008211171561539f57600080fd5b8083526020830192505050908051906020019060200280838360005b838110156153d65780820151818401526020810190506153bb565b505050509050016040525050505080925050506153ef565b5b9392505050565b606080600560159054906101000a900460ff1660ff1660405190808252806020026020018201604052801561543a5781602001602082028038833980820191505090505b509050600061547061544a610bf5565b6154626402540be4008761307390919063ffffffff16565b6130f990919063ffffffff16565b905060008090505b600560159054906101000a900460ff1660ff168160ff1610156155d8576155b06402540be4006155a28460068560ff16815481106154b257fe5b9060005260206000200160009054906101000a900473ffffffffffffffffffffffffffffffffffffffff1673ffffffffffffffffffffffffffffffffffffffff166370a08231306040518263ffffffff1660e01b8152600401808273ffffffffffffffffffffffffffffffffffffffff1673ffffffffffffffffffffffffffffffffffffffff16815260200191505060206040518083038186803b15801561555957600080fd5b505afa15801561556d573d6000803e3d6000fd5b505050506040513d602081101561558357600080fd5b810190808051906020019092919050505061307390919063ffffffff16565b6130f990919063ffffffff16565b838260ff16815181106155bf57fe5b6020026020010181815250508080600101915050615478565b508192505050919050565b600073ffffffffffffffffffffffffffffffffffffffff168273ffffffffffffffffffffffffffffffffffffffff161415615669576040517f08c379a0000000000000000000000000000000000000000000000000000000008152600401808060200182810382526021815260200180615de16021913960400191505060405180910390fd5b61567582600083614ad4565b6156e081604051806060016040528060228152602001615c2d602291396000808673ffffffffffffffffffffffffffffffffffffffff1673ffffffffffffffffffffffffffffffffffffffff168152602001908152602001600020546134049092919063ffffffff16565b6000808473ffffffffffffffffffffffffffffffffffffffff1673ffffffffffffffffffffffffffffffffffffffff1681526020019081526020016000208190555061573781600254613df690919063ffffffff16565b600281905550600073ffffffffffffffffffffffffffffffffffffffff168273ffffffffffffffffffffffffffffffffffffffff167fddf252ad1be2c89b69c2b068fc378daa952ba7f163c4a11628f55a4df523b3ef836040518082815260200191505060405180910390a35050565b61585a8363a9059cbb60e01b8484604051602401808373ffffffffffffffffffffffffffffffffffffffff1673ffffffffffffffffffffffffffffffffffffffff16815260200182815260200192505050604051602081830303815290604052907bffffffffffffffffffffffffffffffffffffffffffffffffffffffff19166020820180517bffffffffffffffffffffffffffffffffffffffffffffffffffffffff8381831617835250505050614ad9565b505050565b606061586e8484600085615877565b90509392505050565b6060824710156158d2576040517f08c379a0000000000000000000000000000000000000000000000000000000008152600401808060200182810382526026815260200180615ce46026913960400191505060405180910390fd5b6158db85615a20565b61594d576040517f08c379a000000000000000000000000000000000000000000000000000000000815260040180806020018281038252601d8152602001807f416464726573733a2063616c6c20746f206e6f6e2d636f6e747261637400000081525060200191505060405180910390fd5b600060608673ffffffffffffffffffffffffffffffffffffffff1685876040518082805190602001908083835b6020831061599d578051825260208201915060208101905060208303925061597a565b6001836020036101000a03801982511681845116808217855250505050505090500191505060006040518083038185875af1925050503d80600081146159ff576040519150601f19603f3d011682016040523d82523d6000602084013e615a04565b606091505b5091509150615a14828286615a33565b92505050949350505050565b600080823b905060008111915050919050565b60608315615a4357829050615af8565b600083511115615a565782518084602001fd5b816040517f08c379a00000000000000000000000000000000000000000000000000000000081526004018080602001828103825283818151815260200191508051906020019080838360005b83811015615abd578082015181840152602081019050615aa2565b50505050905090810190601f168015615aea5780820380516001836020036101000a031916815260200191505b509250505060405180910390fd5b9392505050565b828054828255906000526020600020908101928215615b8e579160200282015b82811115615b8d57823573ffffffffffffffffffffffffffffffffffffffff168260006101000a81548173ffffffffffffffffffffffffffffffffffffffff021916908373ffffffffffffffffffffffffffffffffffffffff16021790555091602001919060010190615b1f565b5b509050615b9b9190615b9f565b5090565b615bdf91905b80821115615bdb57600081816101000a81549073ffffffffffffffffffffffffffffffffffffffff021916905550600101615ba5565b5090565b9056fe417474656d7074656420746f206465706f736974206d6f7265207468616e2062616c616e63652e45524332303a207472616e7366657220746f20746865207a65726f206164647265737345524332303a206275726e20616d6f756e7420657863656564732062616c616e6365546f6b656e20636f756e7420646f65736e2774206d6174636820746f6b656e73206c656e6774684f776e61626c653a206e6577206f776e657220697320746865207a65726f206164647265737345524332303a20617070726f766520746f20746865207a65726f206164647265737345524332303a207472616e7366657220616d6f756e7420657863656564732062616c616e6365416464726573733a20696e73756666696369656e742062616c616e636520666f722063616c6c417474656d707420746f207769746864726177206d6f7265207468616e2031303025206f6620746865206173736574546f6b656e20636f756e7420646f65736e2774206d6174636820746f6b656e2070657263656e7461676573206c656e677468536166654d6174683a206d756c7469706c69636174696f6e206f766572666c6f7745524332303a207472616e7366657220616d6f756e74206578636565647320616c6c6f77616e6365417474656d707420746f207769746864726177206d6f7265207468616e2075736572277320686f6c64696e672e45524332303a206275726e2066726f6d20746865207a65726f206164647265737345524332303a207472616e736665722066726f6d20746865207a65726f206164647265737345524332303a20617070726f76652066726f6d20746865207a65726f20616464726573735361666545524332303a204552433230206f7065726174696f6e20646964206e6f7420737563636565645361666545524332303a20617070726f76652066726f6d206e6f6e2d7a65726f20746f206e6f6e2d7a65726f20616c6c6f77616e6365436f6e7472616374206973206e6f7420616c6c6f77656420746f207370656e6420757365722773204452432e45524332303a2064656372656173656420616c6c6f77616e63652062656c6f77207a65726fa2646970667358221220de4fba688bc3c36bb04580ef40652312f84a09e0c10291b345fc3ca99188193864736f6c63430006020033",
  "source": "// SPDX-License-Identifier: GPL-3.0-or-later\n\npragma solidity ^0.6.0;\n\nimport \"@openzeppelin/contracts/math/SafeMath.sol\";\nimport \"@openzeppelin/contracts/utils/ReentrancyGuard.sol\";\nimport \"@openzeppelin/contracts/token/ERC20/SafeERC20.sol\";\nimport \"@openzeppelin/contracts/token/ERC20/ERC20.sol\";\nimport \"@openzeppelin/contracts/access/Ownable.sol\";\n\nimport \"./Interfaces/Uniswap/IUniswapV2Router02.sol\";\n\ncontract DigitalReserve is ERC20, Ownable {\n    using SafeMath for uint256;\n\n    constructor(address _router, address _drcAddress) ERC20(\"Digital Reserve\", \"DR-POD\") public {\n        drcAddress = _drcAddress;\n        router = _router;\n        uniswapRouter = IUniswapV2Router02(_router);\n    }\n\n    uint8 public strategyTokenCount;\n    address[] public strategyTokens;\n    mapping(address => uint8) public tokenPercentage;\n    uint8 public feePercentage = 1;\n    uint8 public priceDecimal = 18;\n\n    address private router;\n    address private drcAddress;\n\n    bool private depositEnabled = false;\n    bool private withdrawalEnabled = true;\n\n    IUniswapV2Router02 private uniswapRouter;\n\n    event StrategyChange(address[] oldTokens, uint8[] oldPercentage, address[] newTokens, uint8[] newPercentage);\n    event Rebalance(address[] strategyTokens, uint8[] tokenPercentage);\n    event Deposit(address user, uint256 amount);\n    event Withdraw(address user, uint256 amount, uint256 fees);\n\n    function changeDepositStatus(bool _status) external onlyOwner {\n        depositEnabled = _status;\n    }\n\n    function changeWithdrawalStatus(bool _status) external onlyOwner {\n        withdrawalEnabled = _status;\n    }\n\n    function changeFee(uint8 _feePercentage) external onlyOwner {\n        require(_feePercentage <= 100, \"Fee percentage exceeded 100.\");\n        feePercentage = _feePercentage;\n    }\n\n    function totalTokenStored() public view returns (uint256[] memory) {\n        uint256[] memory amounts = new uint256[](strategyTokenCount);\n        for (uint8 i = 0; i < strategyTokenCount; i++) {\n            amounts[i] = IERC20(strategyTokens[i]).balanceOf(address(this));\n        }\n        return amounts;\n    }\n\n    function getUserVaultInDrc(address _user) public view returns (uint256, uint256, uint256) {\n        uint256 userVaultWorthInEth = balanceOf(_user).mul(getProofOfDepositPrice()).div(1e18);\n\n        uint256 fees = userVaultWorthInEth.mul(feePercentage).div(100);\n        uint256 drcAmount = _getTokenAmountByEthAmount(userVaultWorthInEth, drcAddress);\n        uint256 drcAmountExcludeFees = _getTokenAmountByEthAmount(userVaultWorthInEth.sub(fees), drcAddress);\n\n        return (drcAmount, drcAmountExcludeFees, fees);\n    }\n\n    function getProofOfDepositPrice() public view returns (uint256) {\n        uint256 proofOfDepositPrice;\n        if (totalSupply() > 0) {\n            proofOfDepositPrice = _getEthAmountByStrategyTokensAmount(totalTokenStored()).mul(1e18).div(totalSupply());\n        }\n        return proofOfDepositPrice;\n    }\n\n    function depositDrc(uint256 _amount, uint32 deadline) external {\n        require(depositEnabled, \"Deposit is disabled.\");\n        require(IERC20(drcAddress).allowance(msg.sender, address(this)) >= _amount, \"Contract is not allowed to spend user's DRC.\");\n        require(IERC20(drcAddress).balanceOf(msg.sender) >= _amount, \"Attempted to deposit more than balance.\");\n\n        SafeERC20.safeTransferFrom(IERC20(drcAddress), msg.sender, address(this), _amount);\n\n        // Get current unit price before adding tokens to vault\n        uint256 currentPodUnitPrice = getProofOfDepositPrice();\n\n        uint256 ethConverted = _convertTokenToEth(_amount, drcAddress, deadline);\n        _convertEthToStrategyTokens(ethConverted, deadline);\n\n        uint256 podToMint = 0;\n        if (totalSupply() == 0) {\n            podToMint = _amount.mul(1e15);\n        } else {\n            uint256 vaultTotalInEth = _getEthAmountByStrategyTokensAmount(totalTokenStored());\n            uint256 newPodTotal = vaultTotalInEth.mul(1e18).div(currentPodUnitPrice);\n            podToMint = newPodTotal.sub(totalSupply());\n        }\n\n        _mint(msg.sender, podToMint);\n\n        emit Deposit(msg.sender, _amount);\n    }\n\n    function withdrawDrc(uint256 drcAmount, uint32 deadline) external {\n        require(withdrawalEnabled, \"Withdraw is disabled.\");\n\n        (, uint256 userVaultInDrc, ) = getUserVaultInDrc(msg.sender);\n        require(userVaultInDrc >= drcAmount, \"Attempt to withdraw more than user's holding.\");\n\n        uint256 amountFraction = drcAmount.mul(1e10).div(userVaultInDrc);\n        uint256 podToBurn = balanceOf(msg.sender).mul(amountFraction).div(1e10);\n        _withdrawProofOfDeposit(podToBurn, deadline);\n    }\n\n    function withdrawPercentage(uint8 percentage, uint32 deadline) external {\n        require(withdrawalEnabled, \"Withdraw is disabled.\");\n        require(percentage <= 100, \"Attempt to withdraw more than 100% of the asset\");\n\n        uint256 podToBurn = balanceOf(msg.sender).mul(percentage).div(100);\n        _withdrawProofOfDeposit(podToBurn, deadline);\n    }\n\n    function changeStrategy(\n        address[] calldata _strategyTokens,\n        uint8[] calldata _tokenPercentage,\n        uint8 _strategyTokenCount,\n        uint32 deadline\n    ) external onlyOwner {\n        require(_strategyTokenCount >= 1, \"Setting strategy to 0 tokens.\");\n        require(_strategyTokens.length == _strategyTokenCount, \"Token count doesn't match tokens length\");\n        require(_tokenPercentage.length == _strategyTokenCount, \"Token count doesn't match token percentages length\");\n        \n        uint8 totalPercentage = 0;\n        for (uint8 i = 0; i < _strategyTokenCount; i++) {\n            require(_strategyTokens[i] != drcAddress, \"Token can't be DRC.\");\n            totalPercentage += _tokenPercentage[i];\n        }\n        require(totalPercentage == 100);\n\n        uint8[] memory oldPercentage = new uint8[](strategyTokenCount);\n        for (uint8 i = 0; i < strategyTokenCount; i++) {\n            oldPercentage[i] = tokenPercentage[strategyTokens[i]];\n            delete tokenPercentage[strategyTokens[i]];\n        }\n\n        emit StrategyChange(strategyTokens, oldPercentage, _strategyTokens, _tokenPercentage);\n\n        // Before mutate strategyTokens, convert current strategy tokens to ETH\n        uint256 ethConverted = _convertStrategyTokensToEth(totalTokenStored(), deadline);\n\n        strategyTokens = _strategyTokens;\n        strategyTokenCount = _strategyTokenCount;\n        for (uint8 i = 0; i < strategyTokenCount; i++) {\n            tokenPercentage[strategyTokens[i]] = _tokenPercentage[i];\n        }\n\n        _convertEthToStrategyTokens(ethConverted, deadline);\n    }\n\n    function rebalance(uint32 deadline) external onlyOwner {\n        require(strategyTokenCount > 0);\n\n        uint8[] memory percentageArray = new uint8[](strategyTokenCount);\n        for (uint8 i = 0; i < strategyTokenCount; i++) {\n            percentageArray[i] += tokenPercentage[strategyTokens[i]];\n        }\n\n        emit Rebalance(strategyTokens, percentageArray);\n\n        uint256 ethConverted = _convertStrategyTokensToEth(totalTokenStored(), deadline);\n        _convertEthToStrategyTokens(ethConverted, deadline);\n    }\n\n    function _withdrawProofOfDeposit(uint256 podToBurn, uint32 deadline) private {\n        // get strategy tokens to withdraw by pod to withdraw\n        uint256[] memory strategyTokensToWithdraw = new uint256[](strategyTokenCount);\n        strategyTokensToWithdraw = _getStrateTokensByPodAmount(podToBurn);\n\n        // Reduce user holding by withdrawed amount in pod and strategy tokens\n        _burn(msg.sender, podToBurn);\n\n        uint256 ethConverted = _convertStrategyTokensToEth(strategyTokensToWithdraw, deadline);\n        uint256 fees = ethConverted.mul(feePercentage).div(100);\n\n        uint256 drcAmount = _convertEthToToken(ethConverted.sub(fees), drcAddress, deadline);\n        SafeERC20.safeTransfer(IERC20(drcAddress), msg.sender, drcAmount);\n        SafeERC20.safeTransfer(IERC20(uniswapRouter.WETH()), owner(), fees);\n        emit Withdraw(msg.sender, drcAmount, fees);\n    }\n\n    function _getTokenAmountByEthAmount(uint256 _amount, address _tokenAddress) private view returns (uint256) {\n        address[] memory path = new address[](2);\n        path[0] = uniswapRouter.WETH();\n        path[1] = _tokenAddress;\n\n        if (path[0] != path[1] && _amount != 0) {\n            return uniswapRouter.getAmountsOut(_amount, path)[1];\n        }\n    }\n\n    function _getEthAmountByTokenAmount(uint256 _amount, address _tokenAddress) private view returns (uint256) {\n        address[] memory path = new address[](2);\n        path[0] = _tokenAddress;\n        path[1] = uniswapRouter.WETH();\n\n        if (path[0] != path[1] && _amount != 0) {\n            return uniswapRouter.getAmountsOut(_amount, path)[1];\n        }\n    }\n\n    function _getEthAmountByStrategyTokensAmount(uint256[] memory _strategyTokensBalance) private view returns (uint256) {\n        uint256 amountOut;\n        address[] memory path = new address[](2);\n        path[1] = uniswapRouter.WETH();\n\n        for (uint8 i = 0; i < strategyTokenCount; i++) {\n            address tokenAddress = strategyTokens[i];\n            path[0] = tokenAddress;\n            uint256 tokenAmount = _strategyTokensBalance[i];\n            uint256 tokenAmountInEth = _getEthAmountByTokenAmount(tokenAmount, tokenAddress);\n\n            amountOut = amountOut.add(tokenAmountInEth);\n        }\n        return amountOut;\n    }\n\n    function _getStrateTokensByPodAmount(uint256 _amount) private view returns (uint256[] memory) {\n        uint256[] memory strategyTokenAmount = new uint256[](strategyTokenCount);\n        \n        uint256 podFraction = _amount.mul(1e10).div(totalSupply());\n        for (uint8 i = 0; i < strategyTokenCount; i++) {\n            strategyTokenAmount[i] = IERC20(strategyTokens[i]).balanceOf(address(this)).mul(podFraction).div(1e10);\n        }\n        return strategyTokenAmount;\n    }\n\n    function _convertTokenToEth(uint256 _amount, address _tokenAddress,uint32 deadline) private returns (uint256) {\n        if (_tokenAddress != uniswapRouter.WETH() && _amount != 0) {\n            address[] memory path = new address[](2);\n            path[0] = _tokenAddress;\n            path[1] = uniswapRouter.WETH();\n            SafeERC20.safeApprove(IERC20(path[0]), router, _amount);\n            uint256 amountOut = uniswapRouter.getAmountsOut(_amount, path)[1];\n            uniswapRouter.swapExactTokensForTokens(_amount, amountOut, path, address(this), deadline);\n            return amountOut;\n        }\n    }\n\n    function _convertEthToToken(uint256 _amount, address _tokenAddress, uint32 deadline) private returns (uint256) {\n        if (_tokenAddress != uniswapRouter.WETH() && _amount != 0) {\n            address[] memory path = new address[](2);\n            path[0] = uniswapRouter.WETH();\n            path[1] = _tokenAddress;\n            SafeERC20.safeApprove(IERC20(path[0]), router, _amount);\n            uint256 amountOut = uniswapRouter.getAmountsOut(_amount, path)[1];\n            uniswapRouter.swapExactTokensForTokens(_amount, amountOut, path, address(this), deadline);\n            return amountOut;\n        }\n    }\n\n    function _convertEthToStrategyTokens(uint256 amount, uint32 deadline) private returns (uint256[] memory) {\n        uint256[] memory amounts = new uint256[](strategyTokenCount);\n        for (uint8 i = 0; i < strategyTokenCount; i++) {\n            uint256 amountToConvert = amount.mul(tokenPercentage[strategyTokens[i]]).div(100);\n            amounts[i] = _convertEthToToken(amountToConvert, strategyTokens[i], deadline);\n        }\n        return amounts;\n    }\n\n    function _convertStrategyTokensToEth(uint256[] memory amountToConvert, uint32 deadline) private returns (uint256) {\n        uint256 ethConverted;\n        for (uint8 i = 0; i < strategyTokenCount; i++) {\n            uint256 amountConverted = _convertTokenToEth(amountToConvert[i], strategyTokens[i], deadline);\n            ethConverted = ethConverted.add(amountConverted);\n        }\n        return ethConverted;\n    }\n}\n",
  "sourcePath": "/Users/fayexue/if-x-github/digital-reserve/contracts/DigitalReserve.sol",
  "compiler": {
    "name": "solc",
    "version": "0.6.2+commit.bacdbe57.Emscripten.clang"
  },
  "schemaVersion": "3.3.3",
  "updatedAt": "2021-01-16T08:05:34.044Z",
  "devdoc": {
    "methods": {
      "allowance(address,address)": {
        "details": "See {IERC20-allowance}."
      },
      "approve(address,uint256)": {
        "details": "See {IERC20-approve}.     * Requirements:     * - `spender` cannot be the zero address."
      },
      "balanceOf(address)": {
        "details": "See {IERC20-balanceOf}."
      },
      "decimals()": {
        "details": "Returns the number of decimals used to get its user representation. For example, if `decimals` equals `2`, a balance of `505` tokens should be displayed to a user as `5,05` (`505 / 10 ** 2`).     * Tokens usually opt for a value of 18, imitating the relationship between Ether and Wei. This is the value {ERC20} uses, unless {_setupDecimals} is called.     * NOTE: This information is only used for _display_ purposes: it in no way affects any of the arithmetic of the contract, including {IERC20-balanceOf} and {IERC20-transfer}."
      },
      "decreaseAllowance(address,uint256)": {
        "details": "Atomically decreases the allowance granted to `spender` by the caller.     * This is an alternative to {approve} that can be used as a mitigation for problems described in {IERC20-approve}.     * Emits an {Approval} event indicating the updated allowance.     * Requirements:     * - `spender` cannot be the zero address. - `spender` must have allowance for the caller of at least `subtractedValue`."
      },
      "increaseAllowance(address,uint256)": {
        "details": "Atomically increases the allowance granted to `spender` by the caller.     * This is an alternative to {approve} that can be used as a mitigation for problems described in {IERC20-approve}.     * Emits an {Approval} event indicating the updated allowance.     * Requirements:     * - `spender` cannot be the zero address."
      },
      "name()": {
        "details": "Returns the name of the token."
      },
      "owner()": {
        "details": "Returns the address of the current owner."
      },
      "renounceOwnership()": {
        "details": "Leaves the contract without owner. It will not be possible to call `onlyOwner` functions anymore. Can only be called by the current owner.     * NOTE: Renouncing ownership will leave the contract without an owner, thereby removing any functionality that is only available to the owner."
      },
      "symbol()": {
        "details": "Returns the symbol of the token, usually a shorter version of the name."
      },
      "totalSupply()": {
        "details": "See {IERC20-totalSupply}."
      },
      "transfer(address,uint256)": {
        "details": "See {IERC20-transfer}.     * Requirements:     * - `recipient` cannot be the zero address. - the caller must have a balance of at least `amount`."
      },
      "transferFrom(address,address,uint256)": {
        "details": "See {IERC20-transferFrom}.     * Emits an {Approval} event indicating the updated allowance. This is not required by the EIP. See the note at the beginning of {ERC20}.     * Requirements:     * - `sender` and `recipient` cannot be the zero address. - `sender` must have a balance of at least `amount`. - the caller must have allowance for ``sender``'s tokens of at least `amount`."
      },
      "transferOwnership(address)": {
        "details": "Transfers ownership of the contract to a new account (`newOwner`). Can only be called by the current owner."
      }
    }
  },
  "userdoc": {
    "methods": {}
  }
}