{
  "contractName": "DigitalReserve",
  "abi": [
    {
      "inputs": [
        {
          "internalType": "address",
          "name": "_router",
          "type": "address"
        },
        {
          "internalType": "address",
          "name": "_drcAddress",
          "type": "address"
        },
        {
          "internalType": "string",
          "name": "_name",
          "type": "string"
        }
      ],
      "stateMutability": "nonpayable",
      "type": "constructor"
    },
    {
      "anonymous": false,
      "inputs": [
        {
          "indexed": true,
          "internalType": "address",
          "name": "owner",
          "type": "address"
        },
        {
          "indexed": true,
          "internalType": "address",
          "name": "spender",
          "type": "address"
        },
        {
          "indexed": false,
          "internalType": "uint256",
          "name": "value",
          "type": "uint256"
        }
      ],
      "name": "Approval",
      "type": "event"
    },
    {
      "anonymous": false,
      "inputs": [
        {
          "indexed": false,
          "internalType": "address",
          "name": "user",
          "type": "address"
        },
        {
          "indexed": false,
          "internalType": "uint256",
          "name": "amount",
          "type": "uint256"
        },
        {
          "indexed": false,
          "internalType": "uint256",
          "name": "podMinted",
          "type": "uint256"
        },
        {
          "indexed": false,
          "internalType": "uint256",
          "name": "podTotalSupply",
          "type": "uint256"
        }
      ],
      "name": "Deposit",
      "type": "event"
    },
    {
      "anonymous": false,
      "inputs": [
        {
          "indexed": true,
          "internalType": "address",
          "name": "previousOwner",
          "type": "address"
        },
        {
          "indexed": true,
          "internalType": "address",
          "name": "newOwner",
          "type": "address"
        }
      ],
      "name": "OwnershipTransferred",
      "type": "event"
    },
    {
      "anonymous": false,
      "inputs": [
        {
          "indexed": false,
          "internalType": "address[]",
          "name": "strategyTokens",
          "type": "address[]"
        },
        {
          "indexed": false,
          "internalType": "uint8[]",
          "name": "tokenPercentage",
          "type": "uint8[]"
        }
      ],
      "name": "Rebalance",
      "type": "event"
    },
    {
      "anonymous": false,
      "inputs": [
        {
          "indexed": false,
          "internalType": "address[]",
          "name": "oldTokens",
          "type": "address[]"
        },
        {
          "indexed": false,
          "internalType": "uint8[]",
          "name": "oldPercentage",
          "type": "uint8[]"
        },
        {
          "indexed": false,
          "internalType": "address[]",
          "name": "newTokens",
          "type": "address[]"
        },
        {
          "indexed": false,
          "internalType": "uint8[]",
          "name": "newPercentage",
          "type": "uint8[]"
        }
      ],
      "name": "StrategyChange",
      "type": "event"
    },
    {
      "anonymous": false,
      "inputs": [
        {
          "indexed": true,
          "internalType": "address",
          "name": "from",
          "type": "address"
        },
        {
          "indexed": true,
          "internalType": "address",
          "name": "to",
          "type": "address"
        },
        {
          "indexed": false,
          "internalType": "uint256",
          "name": "value",
          "type": "uint256"
        }
      ],
      "name": "Transfer",
      "type": "event"
    },
    {
      "anonymous": false,
      "inputs": [
        {
          "indexed": false,
          "internalType": "address",
          "name": "user",
          "type": "address"
        },
        {
          "indexed": false,
          "internalType": "uint256",
          "name": "amount",
          "type": "uint256"
        },
        {
          "indexed": false,
          "internalType": "uint256",
          "name": "fees",
          "type": "uint256"
        },
        {
          "indexed": false,
          "internalType": "uint256",
          "name": "podBurned",
          "type": "uint256"
        },
        {
          "indexed": false,
          "internalType": "uint256",
          "name": "podTotalSupply",
          "type": "uint256"
        }
      ],
      "name": "Withdraw",
      "type": "event"
    },
    {
      "inputs": [
        {
          "internalType": "address",
          "name": "owner",
          "type": "address"
        },
        {
          "internalType": "address",
          "name": "spender",
          "type": "address"
        }
      ],
      "name": "allowance",
      "outputs": [
        {
          "internalType": "uint256",
          "name": "",
          "type": "uint256"
        }
      ],
      "stateMutability": "view",
      "type": "function"
    },
    {
      "inputs": [
        {
          "internalType": "address",
          "name": "spender",
          "type": "address"
        },
        {
          "internalType": "uint256",
          "name": "amount",
          "type": "uint256"
        }
      ],
      "name": "approve",
      "outputs": [
        {
          "internalType": "bool",
          "name": "",
          "type": "bool"
        }
      ],
      "stateMutability": "nonpayable",
      "type": "function"
    },
    {
      "inputs": [
        {
          "internalType": "address",
          "name": "account",
          "type": "address"
        }
      ],
      "name": "balanceOf",
      "outputs": [
        {
          "internalType": "uint256",
          "name": "",
          "type": "uint256"
        }
      ],
      "stateMutability": "view",
      "type": "function"
    },
    {
      "inputs": [],
      "name": "decimals",
      "outputs": [
        {
          "internalType": "uint8",
          "name": "",
          "type": "uint8"
        }
      ],
      "stateMutability": "view",
      "type": "function"
    },
    {
      "inputs": [
        {
          "internalType": "address",
          "name": "spender",
          "type": "address"
        },
        {
          "internalType": "uint256",
          "name": "subtractedValue",
          "type": "uint256"
        }
      ],
      "name": "decreaseAllowance",
      "outputs": [
        {
          "internalType": "bool",
          "name": "",
          "type": "bool"
        }
      ],
      "stateMutability": "nonpayable",
      "type": "function"
    },
    {
      "inputs": [
        {
          "internalType": "address",
          "name": "spender",
          "type": "address"
        },
        {
          "internalType": "uint256",
          "name": "addedValue",
          "type": "uint256"
        }
      ],
      "name": "increaseAllowance",
      "outputs": [
        {
          "internalType": "bool",
          "name": "",
          "type": "bool"
        }
      ],
      "stateMutability": "nonpayable",
      "type": "function"
    },
    {
      "inputs": [],
      "name": "name",
      "outputs": [
        {
          "internalType": "string",
          "name": "",
          "type": "string"
        }
      ],
      "stateMutability": "view",
      "type": "function"
    },
    {
      "inputs": [],
      "name": "owner",
      "outputs": [
        {
          "internalType": "address",
          "name": "",
          "type": "address"
        }
      ],
      "stateMutability": "view",
      "type": "function"
    },
    {
      "inputs": [],
      "name": "renounceOwnership",
      "outputs": [],
      "stateMutability": "nonpayable",
      "type": "function"
    },
    {
      "inputs": [],
      "name": "symbol",
      "outputs": [
        {
          "internalType": "string",
          "name": "",
          "type": "string"
        }
      ],
      "stateMutability": "view",
      "type": "function"
    },
    {
      "inputs": [],
      "name": "totalSupply",
      "outputs": [
        {
          "internalType": "uint256",
          "name": "",
          "type": "uint256"
        }
      ],
      "stateMutability": "view",
      "type": "function"
    },
    {
      "inputs": [
        {
          "internalType": "address",
          "name": "recipient",
          "type": "address"
        },
        {
          "internalType": "uint256",
          "name": "amount",
          "type": "uint256"
        }
      ],
      "name": "transfer",
      "outputs": [
        {
          "internalType": "bool",
          "name": "",
          "type": "bool"
        }
      ],
      "stateMutability": "nonpayable",
      "type": "function"
    },
    {
      "inputs": [
        {
          "internalType": "address",
          "name": "sender",
          "type": "address"
        },
        {
          "internalType": "address",
          "name": "recipient",
          "type": "address"
        },
        {
          "internalType": "uint256",
          "name": "amount",
          "type": "uint256"
        }
      ],
      "name": "transferFrom",
      "outputs": [
        {
          "internalType": "bool",
          "name": "",
          "type": "bool"
        }
      ],
      "stateMutability": "nonpayable",
      "type": "function"
    },
    {
      "inputs": [
        {
          "internalType": "address",
          "name": "newOwner",
          "type": "address"
        }
      ],
      "name": "transferOwnership",
      "outputs": [],
      "stateMutability": "nonpayable",
      "type": "function"
    },
    {
      "inputs": [],
      "name": "strategyTokenCount",
      "outputs": [
        {
          "internalType": "uint8",
          "name": "",
          "type": "uint8"
        }
      ],
      "stateMutability": "view",
      "type": "function"
    },
    {
      "inputs": [
        {
          "internalType": "uint8",
          "name": "index",
          "type": "uint8"
        }
      ],
      "name": "strategyTokens",
      "outputs": [
        {
          "internalType": "address",
          "name": "",
          "type": "address"
        }
      ],
      "stateMutability": "view",
      "type": "function"
    },
    {
      "inputs": [
        {
          "internalType": "address",
          "name": "tokenAddress",
          "type": "address"
        }
      ],
      "name": "tokenPercentage",
      "outputs": [
        {
          "internalType": "uint8",
          "name": "",
          "type": "uint8"
        }
      ],
      "stateMutability": "view",
      "type": "function"
    },
    {
      "inputs": [],
      "name": "withdrawalFee",
      "outputs": [
        {
          "internalType": "uint8",
          "name": "",
          "type": "uint8"
        },
        {
          "internalType": "uint8",
          "name": "",
          "type": "uint8"
        }
      ],
      "stateMutability": "view",
      "type": "function"
    },
    {
      "inputs": [],
      "name": "priceDecimals",
      "outputs": [
        {
          "internalType": "uint8",
          "name": "",
          "type": "uint8"
        }
      ],
      "stateMutability": "view",
      "type": "function"
    },
    {
      "inputs": [],
      "name": "totalTokenStored",
      "outputs": [
        {
          "internalType": "uint256[]",
          "name": "",
          "type": "uint256[]"
        }
      ],
      "stateMutability": "view",
      "type": "function"
    },
    {
      "inputs": [
        {
          "internalType": "address",
          "name": "user",
          "type": "address"
        },
        {
          "internalType": "uint8",
          "name": "percentage",
          "type": "uint8"
        }
      ],
      "name": "getUserVaultInDrc",
      "outputs": [
        {
          "internalType": "uint256",
          "name": "",
          "type": "uint256"
        },
        {
          "internalType": "uint256",
          "name": "",
          "type": "uint256"
        },
        {
          "internalType": "uint256",
          "name": "",
          "type": "uint256"
        }
      ],
      "stateMutability": "view",
      "type": "function"
    },
    {
      "inputs": [],
      "name": "getProofOfDepositPrice",
      "outputs": [
        {
          "internalType": "uint256",
          "name": "",
          "type": "uint256"
        }
      ],
      "stateMutability": "view",
      "type": "function"
    },
    {
      "inputs": [
        {
          "internalType": "uint256",
          "name": "drcAmount",
          "type": "uint256"
        },
        {
          "internalType": "uint32",
          "name": "deadline",
          "type": "uint32"
        }
      ],
      "name": "depositDrc",
      "outputs": [],
      "stateMutability": "nonpayable",
      "type": "function"
    },
    {
      "inputs": [
        {
          "internalType": "uint256",
          "name": "drcAmount",
          "type": "uint256"
        },
        {
          "internalType": "uint32",
          "name": "deadline",
          "type": "uint32"
        }
      ],
      "name": "withdrawDrc",
      "outputs": [],
      "stateMutability": "nonpayable",
      "type": "function"
    },
    {
      "inputs": [
        {
          "internalType": "uint8",
          "name": "percentage",
          "type": "uint8"
        },
        {
          "internalType": "uint32",
          "name": "deadline",
          "type": "uint32"
        }
      ],
      "name": "withdrawPercentage",
      "outputs": [],
      "stateMutability": "nonpayable",
      "type": "function"
    },
    {
      "inputs": [
        {
          "internalType": "bool",
          "name": "status",
          "type": "bool"
        }
      ],
      "name": "changeDepositStatus",
      "outputs": [],
      "stateMutability": "nonpayable",
      "type": "function"
    },
    {
      "inputs": [
        {
          "internalType": "uint8",
          "name": "withdrawalFeeFraction_",
          "type": "uint8"
        },
        {
          "internalType": "uint8",
          "name": "withdrawalFeeBase_",
          "type": "uint8"
        }
      ],
      "name": "changeFee",
      "outputs": [],
      "stateMutability": "nonpayable",
      "type": "function"
    },
    {
      "inputs": [
        {
          "internalType": "address[]",
          "name": "strategyTokens_",
          "type": "address[]"
        },
        {
          "internalType": "uint8[]",
          "name": "tokenPercentage_",
          "type": "uint8[]"
        },
        {
          "internalType": "uint8",
          "name": "strategyTokenCount_",
          "type": "uint8"
        },
        {
          "internalType": "uint32",
          "name": "deadline",
          "type": "uint32"
        }
      ],
      "name": "changeStrategy",
      "outputs": [],
      "stateMutability": "nonpayable",
      "type": "function"
    },
    {
      "inputs": [
        {
          "internalType": "uint32",
          "name": "deadline",
          "type": "uint32"
        }
      ],
      "name": "rebalance",
      "outputs": [],
      "stateMutability": "nonpayable",
      "type": "function"
    }
  ],
  "bytecode": "0x608060405260088054600160ff199091161761ff0019166164001762ff00001916621200001790556009805460ff60a01b191690553480156200004157600080fd5b506040516200522b3803806200522b833981810160405260608110156200006757600080fd5b815160208301516040808501805191519395929483019291846401000000008211156200009357600080fd5b908301906020820185811115620000a957600080fd5b8251640100000000811182820188101715620000c457600080fd5b82525081516020918201929091019080838360005b83811015620000f3578181015183820152602001620000d9565b50505050905090810190601f168015620001215780820380516001836020036101000a031916815260200191505b5060408181019052600681526511148b5413d160d21b60208083019190915285518695509193506200015b9250600391908501906200023d565b508051620001719060049060208401906200023d565b50506005805460ff191660121790555060006200018d62000239565b60058054610100600160a81b0319166101006001600160a01b03841690810291909117909155604051919250906000907f8be0079c531659141344cd1fd0a4f28419497f9722a3daafe3b4186f6b6457e0908290a35050600980546001600160a01b03199081166001600160a01b0393841617909155600880546301000000600160b81b03191663010000009490931693840292909217909155600a80549091169091179055620002d9565b3390565b828054600181600116156101000203166002900490600052602060002090601f016020900481019282601f106200028057805160ff1916838001178555620002b0565b82800160010185558215620002b0579182015b82811115620002b057825182559160200191906001019062000293565b50620002be929150620002c2565b5090565b5b80821115620002be5760008155600101620002c3565b614f4280620002e96000396000f3fe608060405234801561001057600080fd5b50600436106101ce5760003560e01c8063715018a611610104578063a47c12b5116100a2578063dd62ed3e11610071578063dd62ed3e14610661578063df9f85641461069c578063e48e192e146106a4578063f2fde38b14610775576101ce565b8063a47c12b51461057e578063a9059cbb1461059d578063bd806621146105d6578063d34ee4c01461062e576101ce565b80638bc7e8c4116100de5780638bc7e8c41461050a5780638da5cb5b1461053557806395d89b411461053d578063a457c2d714610545576101ce565b8063715018a6146104855780637b123c3a1461048d57806380a35fbb146104e7576101ce565b8063313ce567116101715780634c1839181161014b5780634c183918146103d55780636c3f4e07146103fe5780636f827c341461042657806370a0823114610452576101ce565b8063313ce56714610369578063395093511461037157806347e6dece146103aa576101ce565b8063095ea7b3116101ad578063095ea7b3146102b757806318160ddd1461030457806318181a9c1461031e57806323b872dd14610326576101ce565b80627865b5146101d357806305300b281461021c57806306fdde031461023a575b600080fd5b6101f3600480360360208110156101e957600080fd5b503560ff166107a8565b6040805173ffffffffffffffffffffffffffffffffffffffff9092168252519081900360200190f35b6102246107e2565b6040805160ff9092168252519081900360200190f35b6102426107f1565b6040805160208082528351818301528351919283929083019185019080838360005b8381101561027c578181015183820152602001610264565b50505050905090810190601f1680156102a95780820380516001836020036101000a031916815260200191505b509250505060405180910390f35b6102f0600480360360408110156102cd57600080fd5b5073ffffffffffffffffffffffffffffffffffffffff81351690602001356108a5565b604080519115158252519081900360200190f35b61030c6108c3565b60408051918252519081900360200190f35b61030c6108c9565b6102f06004803603606081101561033c57600080fd5b5073ffffffffffffffffffffffffffffffffffffffff813581169160208101359091169060400135610919565b6102246109bb565b6102f06004803603604081101561038757600080fd5b5073ffffffffffffffffffffffffffffffffffffffff81351690602001356109c4565b6103d3600480360360408110156103c057600080fd5b508035906020013563ffffffff16610a1f565b005b6103d3600480360360408110156103eb57600080fd5b508035906020013563ffffffff16610e69565b6103d36004803603604081101561041457600080fd5b5060ff81358116916020013516611219565b6103d36004803603604081101561043c57600080fd5b50803560ff16906020013563ffffffff166113f9565b61030c6004803603602081101561046857600080fd5b503573ffffffffffffffffffffffffffffffffffffffff1661147e565b6103d36114a6565b6104c9600480360360408110156104a357600080fd5b50803573ffffffffffffffffffffffffffffffffffffffff16906020013560ff166115b0565b60408051938452602084019290925282820152519081900360600190f35b6103d3600480360360208110156104fd57600080fd5b503563ffffffff16611680565b610512611e14565b604051808360ff1681526020018260ff1681526020019250505060405180910390f35b6101f3611e27565b610242611e48565b6102f06004803603604081101561055b57600080fd5b5073ffffffffffffffffffffffffffffffffffffffff8135169060200135611ec7565b6103d36004803603602081101561059457600080fd5b50351515611f3c565b6102f0600480360360408110156105b357600080fd5b5073ffffffffffffffffffffffffffffffffffffffff813516906020013561201c565b6105de612030565b60408051602080825283518183015283519192839290830191858101910280838360005b8381101561061a578181015183820152602001610602565b505050509050019250505060405180910390f35b6102246004803603602081101561064457600080fd5b503573ffffffffffffffffffffffffffffffffffffffff1661219f565b61030c6004803603604081101561067757600080fd5b5073ffffffffffffffffffffffffffffffffffffffff813581169160200135166121ca565b610224612202565b6103d3600480360360808110156106ba57600080fd5b8101906020810181356401000000008111156106d557600080fd5b8201836020820111156106e757600080fd5b8035906020019184602083028401116401000000008311171561070957600080fd5b91939092909160208101903564010000000081111561072757600080fd5b82018360208201111561073957600080fd5b8035906020019184602083028401116401000000008311171561075b57600080fd5b9193509150803560ff16906020013563ffffffff16612224565b6103d36004803603602081101561078b57600080fd5b503573ffffffffffffffffffffffffffffffffffffffff166128a3565b600060068260ff16815481106107ba57fe5b60009182526020909120015473ffffffffffffffffffffffffffffffffffffffff1692915050565b60085462010000900460ff1690565b60038054604080516020601f60027fffffffffffffffffffffffffffffffffffffffffffffffffffffffffffffffff61010060018816150201909516949094049384018190048102820181019092528281526060939092909183018282801561089b5780601f106108705761010080835404028352916020019161089b565b820191906000526020600020905b81548152906001019060200180831161087e57829003601f168201915b5050505050905090565b60006108b96108b2612a3d565b8484612a41565b5060015b92915050565b60025490565b60008060006108d66108c3565b1115610914576109116108e76108c3565b61090b670de0b6b3a76400006109056108fe612030565b6001612b88565b90612d87565b90612dfa565b90505b905090565b6000610926848484612e3c565b6109b084610932612a3d565b6109ab85604051806060016040528060288152602001614d6a6028913973ffffffffffffffffffffffffffffffffffffffff8a1660009081526001602052604081209061097d612a3d565b73ffffffffffffffffffffffffffffffffffffffff168152602081019190915260400160002054919061300c565b612a41565b5060015b9392505050565b60055460ff1690565b60006108b96109d1612a3d565b846109ab85600160006109e2612a3d565b73ffffffffffffffffffffffffffffffffffffffff908116825260208083019390935260409182016000908120918c1681529252902054906130bd565b6005546001750100000000000000000000000000000000000000000090910460ff161015610aae57604080517f08c379a000000000000000000000000000000000000000000000000000000000815260206004820152601960248201527f5374726174656779206861736e2774206265656e207365742e00000000000000604482015290519081900360640190fd5b60095474010000000000000000000000000000000000000000900460ff16610b3757604080517f08c379a000000000000000000000000000000000000000000000000000000000815260206004820152601460248201527f4465706f7369742069732064697361626c65642e000000000000000000000000604482015290519081900360640190fd5b600954604080517fdd62ed3e0000000000000000000000000000000000000000000000000000000081523360048201523060248201529051849273ffffffffffffffffffffffffffffffffffffffff169163dd62ed3e916044808301926020929190829003018186803b158015610bad57600080fd5b505afa158015610bc1573d6000803e3d6000fd5b505050506040513d6020811015610bd757600080fd5b50511015610c30576040517f08c379a000000000000000000000000000000000000000000000000000000000815260040180806020018281038252602c815260200180614ebc602c913960400191505060405180910390fd5b600954604080517f70a082310000000000000000000000000000000000000000000000000000000081523360048201529051849273ffffffffffffffffffffffffffffffffffffffff16916370a08231916024808301926020929190829003018186803b158015610ca057600080fd5b505afa158015610cb4573d6000803e3d6000fd5b505050506040513d6020811015610cca57600080fd5b50511015610d23576040517f08c379a0000000000000000000000000000000000000000000000000000000008152600401808060200182810382526027815260200180614bcc6027913960400191505060405180910390fd5b600954610d489073ffffffffffffffffffffffffffffffffffffffff16333085613131565b6000610d526108c9565b600954909150600090610d7d90859073ffffffffffffffffffffffffffffffffffffffff16856131cc565b9050610d898184613785565b506000610d946108c3565b610db057610da98566038d7ea4c68000612d87565b9050610df0565b6000610dbd6108fe612030565b90506000610dd78561090b84670de0b6b3a7640000612d87565b9050610deb610de46108c3565b82906138dc565b925050505b610dfa338261391e565b7f36af321ec8d3c75236829c5317affd40ddb308863a1236d2d277a4025cccee1e338683610e266108c3565b6040805173ffffffffffffffffffffffffffffffffffffffff90951685526020850193909352838301919091526060830152519081900360800190a15050505050565b60408051600280825260608083018452926020830190803683375050600a54604080517fad5c4648000000000000000000000000000000000000000000000000000000008152905193945073ffffffffffffffffffffffffffffffffffffffff9091169263ad5c464892506004808301926020929190829003018186803b158015610ef357600080fd5b505afa158015610f07573d6000803e3d6000fd5b505050506040513d6020811015610f1d57600080fd5b505181518290600090610f2c57fe5b73ffffffffffffffffffffffffffffffffffffffff9283166020918202929092010152600954825191169082906001908110610f6457fe5b73ffffffffffffffffffffffffffffffffffffffff928316602091820292909201810191909152600a54604080517f1f00ca7400000000000000000000000000000000000000000000000000000000815260048101888152602482019283528651604483015286516000969490941694631f00ca74948a948994909260649091019185820191028083838c5b83811015611008578181015183820152602001610ff0565b50505050905001935050505060006040518083038186803b15801561102c57600080fd5b505afa158015611040573d6000803e3d6000fd5b505050506040513d6000823e601f3d9081017fffffffffffffffffffffffffffffffffffffffffffffffffffffffffffffffe0168201604052602081101561108757600080fd5b81019080805160405193929190846401000000008211156110a757600080fd5b9083019060208201858111156110bc57600080fd5b82518660208202830111640100000000821117156110d957600080fd5b82525081516020918201928201910280838360005b838110156111065781810151838201526020016110ee565b5050505090500160405250505060008151811061111f57fe5b60209081029190910101516008549091506000906111549060ff8082166101009092048116918203169061090b908590612d87565b905060606111696111643361147e565b613a4f565b90506000611178826000612b88565b9050828110156111d3576040517f08c379a000000000000000000000000000000000000000000000000000000000815260040180806020018281038252602d815260200180614d92602d913960400191505060405180910390fd5b60006111e88261090b866402540be400612d87565b905060006112026402540be40061090b846109053361147e565b905061120e8189613bf0565b505050505050505050565b611221612a3d565b600554610100900473ffffffffffffffffffffffffffffffffffffffff9081169116146112af57604080517f08c379a000000000000000000000000000000000000000000000000000000000815260206004820181905260248201527f4f776e61626c653a2063616c6c6572206973206e6f7420746865206f776e6572604482015290519081900360640190fd5b8060ff168260ff16111561132457604080517f08c379a000000000000000000000000000000000000000000000000000000000815260206004820152601b60248201527f466565206672616374696f6e20657863656564656420626173652e0000000000604482015290519081900360640190fd5b60008160ff168360640260ff168161133857fe5b04905060028160ff161115611398576040517f08c379a0000000000000000000000000000000000000000000000000000000008152600401808060200182810382526029815260200180614c806029913960400191505060405180910390fd5b506008805460ff928316610100027fffffffffffffffffffffffffffffffffffffffffffffffffffffffffffff00ff949093167fffffffffffffffffffffffffffffffffffffffffffffffffffffffffffffff009091161792909216179055565b60648260ff161115611456576040517f08c379a000000000000000000000000000000000000000000000000000000000815260040180806020018281038252602f815260200180614d1a602f913960400191505060405180910390fd5b600061146d606461090b8560ff166109053361147e565b90506114798183613bf0565b505050565b73ffffffffffffffffffffffffffffffffffffffff1660009081526020819052604090205490565b6114ae612a3d565b600554610100900473ffffffffffffffffffffffffffffffffffffffff90811691161461153c57604080517f08c379a000000000000000000000000000000000000000000000000000000000815260206004820181905260248201527f4f776e61626c653a2063616c6c6572206973206e6f7420746865206f776e6572604482015290519081900360640190fd5b600554604051600091610100900473ffffffffffffffffffffffffffffffffffffffff16907f8be0079c531659141344cd1fd0a4f28419497f9722a3daafe3b4186f6b6457e0908390a3600580547fffffffffffffffffffffff0000000000000000000000000000000000000000ff169055565b600080600060606115cf611164606461090b8860ff166109058b61147e565b905060006115de826001612b88565b905060006115ed836000612b88565b60095490915060009061161990849073ffffffffffffffffffffffffffffffffffffffff166001613da9565b60085490915060009061163c9060ff610100820481169161090b91879116612d87565b9050600061166d61164d85846138dc565b60095473ffffffffffffffffffffffffffffffffffffffff166000613da9565b9298509196509450505050509250925092565b611688612a3d565b600554610100900473ffffffffffffffffffffffffffffffffffffffff90811691161461171657604080517f08c379a000000000000000000000000000000000000000000000000000000000815260206004820181905260248201527f4f776e61626c653a2063616c6c6572206973206e6f7420746865206f776e6572604482015290519081900360640190fd5b6005547501000000000000000000000000000000000000000000900460ff166117a057604080517f08c379a000000000000000000000000000000000000000000000000000000000815260206004820152601860248201527f5374726174656779206861736e2774206265656e207365740000000000000000604482015290519081900360640190fd5b6005546000906060907501000000000000000000000000000000000000000000900460ff1667ffffffffffffffff811180156117db57600080fd5b50604051908082528060200260200182016040528015611805578160200160208202803683370190505b50905060005b60055460ff75010000000000000000000000000000000000000000009091048116908216101561195757600061192560068360ff168154811061184a57fe5b60009182526020918290200154604080517f70a08231000000000000000000000000000000000000000000000000000000008152306004820152905173ffffffffffffffffffffffffffffffffffffffff909216926370a0823192602480840193829003018186803b1580156118bf57600080fd5b505afa1580156118d3573d6000803e3d6000fd5b505050506040513d60208110156118e957600080fd5b50516006805460ff86169081106118fc57fe5b60009182526020909120015473ffffffffffffffffffffffffffffffffffffffff166001613e52565b905061193184826130bd565b935080838360ff168151811061194357fe5b60209081029190910101525060010161180b565b506005546060907501000000000000000000000000000000000000000000900460ff1667ffffffffffffffff8111801561199057600080fd5b506040519080825280602002602001820160405280156119ba578160200160208202803683370190505b5060055490915060009081906060907501000000000000000000000000000000000000000000900460ff1667ffffffffffffffff811180156119fb57600080fd5b50604051908082528060200260200182016040528015611a25578160200160208202803683370190505b50905060005b60055460ff750100000000000000000000000000000000000000000090910481169082161015611c96576007600060068360ff1681548110611a6957fe5b600091825260208083209091015473ffffffffffffffffffffffffffffffffffffffff168352820192909252604001902054855160ff918216918791908416908110611ab157fe5b602002602001019060ff16908160ff16815250506000611b1f606461090b6007600060068760ff1681548110611ae357fe5b600091825260208083209091015473ffffffffffffffffffffffffffffffffffffffff1683528201929092526040019020548b9060ff16612d87565b905080878360ff1681518110611b3157fe5b602002602001015111611bb257611b67878360ff1681518110611b5057fe5b6020026020010151826138dc90919063ffffffff16565b838360ff1681518110611b7657fe5b602002602001018181525050611bab838360ff1681518110611b9457fe5b6020026020010151866130bd90919063ffffffff16565b9450611c8d565b6000838360ff1681518110611bc357fe5b6020026020010181815250506000611bfa82898560ff1681518110611be457fe5b60200260200101516138dc90919063ffffffff16565b90506000611c3b8260068660ff1681548110611c1257fe5b60009182526020909120015473ffffffffffffffffffffffffffffffffffffffff166001613da9565b90506000611c7b8260068760ff1681548110611c5357fe5b60009182526020909120015473ffffffffffffffffffffffffffffffffffffffff168e6131cc565b9050611c8787826130bd565b96505050505b50600101611a2b565b5060005b60055460ff750100000000000000000000000000000000000000000090910481169082161015611d3b576000611cf38561090b858560ff1681518110611cdc57fe5b602002602001015187612d8790919063ffffffff16565b9050611d318160068460ff1681548110611d0957fe5b60009182526020909120015473ffffffffffffffffffffffffffffffffffffffff168b613ef3565b5050600101611c9a565b507fb32bb5a705a3fe2dcd1ccb4c9d06b92fec03383d384acf8bfbc4e376db590d516006856040518080602001806020018381038352858181548152602001915080548015611dc057602002820191906000526020600020905b815473ffffffffffffffffffffffffffffffffffffffff168152600190910190602001808311611d95575b50508381038252845181528451602091820191808701910280838360005b83811015611df6578181015183820152602001611dde565b5050505090500194505050505060405180910390a150505050505050565b60085460ff808216916101009004169091565b600554610100900473ffffffffffffffffffffffffffffffffffffffff1690565b60048054604080516020601f60027fffffffffffffffffffffffffffffffffffffffffffffffffffffffffffffffff61010060018816150201909516949094049384018190048102820181019092528281526060939092909183018282801561089b5780601f106108705761010080835404028352916020019161089b565b60006108b9611ed4612a3d565b846109ab85604051806060016040528060258152602001614ee86025913960016000611efe612a3d565b73ffffffffffffffffffffffffffffffffffffffff908116825260208083019390935260409182016000908120918d1681529252902054919061300c565b611f44612a3d565b600554610100900473ffffffffffffffffffffffffffffffffffffffff908116911614611fd257604080517f08c379a000000000000000000000000000000000000000000000000000000000815260206004820181905260248201527f4f776e61626c653a2063616c6c6572206973206e6f7420746865206f776e6572604482015290519081900360640190fd5b6009805491151574010000000000000000000000000000000000000000027fffffffffffffffffffffff00ffffffffffffffffffffffffffffffffffffffff909216919091179055565b60006108b9612029612a3d565b8484612e3c565b60055460609081907501000000000000000000000000000000000000000000900460ff1667ffffffffffffffff8111801561206a57600080fd5b50604051908082528060200260200182016040528015612094578160200160208202803683370190505b50905060005b60055460ff7501000000000000000000000000000000000000000000909104811690821610156121995760068160ff16815481106120d457fe5b60009182526020918290200154604080517f70a08231000000000000000000000000000000000000000000000000000000008152306004820152905173ffffffffffffffffffffffffffffffffffffffff909216926370a0823192602480840193829003018186803b15801561214957600080fd5b505afa15801561215d573d6000803e3d6000fd5b505050506040513d602081101561217357600080fd5b50518251839060ff841690811061218657fe5b602090810291909101015260010161209a565b50905090565b73ffffffffffffffffffffffffffffffffffffffff1660009081526007602052604090205460ff1690565b73ffffffffffffffffffffffffffffffffffffffff918216600090815260016020908152604080832093909416825291909152205490565b6005547501000000000000000000000000000000000000000000900460ff1690565b61222c612a3d565b600554610100900473ffffffffffffffffffffffffffffffffffffffff9081169116146122ba57604080517f08c379a000000000000000000000000000000000000000000000000000000000815260206004820181905260248201527f4f776e61626c653a2063616c6c6572206973206e6f7420746865206f776e6572604482015290519081900360640190fd5b60018260ff16101561232d57604080517f08c379a000000000000000000000000000000000000000000000000000000000815260206004820152601d60248201527f53657474696e6720737472617465677920746f203020746f6b656e732e000000604482015290519081900360640190fd5b60ff82168514612388576040517f08c379a0000000000000000000000000000000000000000000000000000000008152600401808060200182810382526028815260200180614cf26028913960400191505060405180910390fd5b60ff821683146123e3576040517f08c379a0000000000000000000000000000000000000000000000000000000008152600401808060200182810382526033815260200180614e536033913960400191505060405180910390fd5b6000805b8360ff168160ff16101561241f5785858260ff1681811061240457fe5b9050602002013560ff168201915080806001019150506123e7565b508060ff1660641461247c576040517f08c379a0000000000000000000000000000000000000000000000000000000008152600401808060200182810382526023815260200180614ca96023913960400191505060405180910390fd5b6005546060907501000000000000000000000000000000000000000000900460ff1667ffffffffffffffff811180156124b457600080fd5b506040519080825280602002602001820160405280156124de578160200160208202803683370190505b50905060005b60055460ff7501000000000000000000000000000000000000000000909104811690821610156125f1576007600060068360ff168154811061252257fe5b600091825260208083209091015473ffffffffffffffffffffffffffffffffffffffff168352820192909252604001902054825160ff91821691849190841690811061256a57fe5b602002602001019060ff16908160ff16815250506007600060068360ff168154811061259257fe5b600091825260208083209091015473ffffffffffffffffffffffffffffffffffffffff168352820192909252604001902080547fffffffffffffffffffffffffffffffffffffffffffffffffffffffffffffff001690556001016124e4565b507f3e92ff021819876e3929d389ccc560772c36af85773e666546da33084b3bdc896006828a8a8a8a604051808060200180602001806020018060200185810385528b818154815260200191508054801561268257602002820191906000526020600020905b815473ffffffffffffffffffffffffffffffffffffffff168152600190910190602001808311612657575b505085810384528a5181528a51602091820191808d01910280838360005b838110156126b85781810151838201526020016126a0565b505050509050018581038352898982818152602001925060200280828437600083820152601f017fffffffffffffffffffffffffffffffffffffffffffffffffffffffffffffffe0169091018681038352878152602090810191508890880280828437600083820152604051601f9091017fffffffffffffffffffffffffffffffffffffffffffffffffffffffffffffffe0169092018290039c50909a5050505050505050505050a1600061277461276e612030565b856140c5565b905061278260068a8a614b0c565b50600580547fffffffffffffffffffff00ffffffffffffffffffffffffffffffffffffffffff16750100000000000000000000000000000000000000000060ff88160217905560005b60055460ff75010000000000000000000000000000000000000000009091048116908216101561288c5787878260ff1681811061280457fe5b9050602002013560ff166007600060068460ff168154811061282257fe5b60009182526020808320919091015473ffffffffffffffffffffffffffffffffffffffff168352820192909252604001902080547fffffffffffffffffffffffffffffffffffffffffffffffffffffffffffffff001660ff929092169190911790556001016127cb565b506128978185613785565b50505050505050505050565b6128ab612a3d565b600554610100900473ffffffffffffffffffffffffffffffffffffffff90811691161461293957604080517f08c379a000000000000000000000000000000000000000000000000000000000815260206004820181905260248201527f4f776e61626c653a2063616c6c6572206973206e6f7420746865206f776e6572604482015290519081900360640190fd5b73ffffffffffffffffffffffffffffffffffffffff81166129a5576040517f08c379a0000000000000000000000000000000000000000000000000000000008152600401808060200182810382526026815260200180614c386026913960400191505060405180910390fd5b60055460405173ffffffffffffffffffffffffffffffffffffffff80841692610100900416907f8be0079c531659141344cd1fd0a4f28419497f9722a3daafe3b4186f6b6457e090600090a36005805473ffffffffffffffffffffffffffffffffffffffff909216610100027fffffffffffffffffffffff0000000000000000000000000000000000000000ff909216919091179055565b3390565b73ffffffffffffffffffffffffffffffffffffffff8316612aad576040517f08c379a0000000000000000000000000000000000000000000000000000000008152600401808060200182810382526024815260200180614e056024913960400191505060405180910390fd5b73ffffffffffffffffffffffffffffffffffffffff8216612b19576040517f08c379a0000000000000000000000000000000000000000000000000000000008152600401808060200182810382526022815260200180614c5e6022913960400191505060405180910390fd5b73ffffffffffffffffffffffffffffffffffffffff808416600081815260016020908152604080832094871680845294825291829020859055815185815291517f8c5be1e5ebec7d5bd14f71427d1e84f3dd0314c0f7b2291e5b200ac8c7c3b9259281900390910190a3505050565b6040805160028082526060808301845260009384939192906020830190803683375050600a54604080517fad5c4648000000000000000000000000000000000000000000000000000000008152905193945073ffffffffffffffffffffffffffffffffffffffff9091169263ad5c464892506004808301926020929190829003018186803b158015612c1957600080fd5b505afa158015612c2d573d6000803e3d6000fd5b505050506040513d6020811015612c4357600080fd5b5051815182906001908110612c5457fe5b602002602001019073ffffffffffffffffffffffffffffffffffffffff16908173ffffffffffffffffffffffffffffffffffffffff168152505060005b60055460ff750100000000000000000000000000000000000000000090910481169082161015612d7d57600060068260ff1681548110612ccd57fe5b6000918252602082200154845173ffffffffffffffffffffffffffffffffffffffff909116925082918591612cfe57fe5b602002602001019073ffffffffffffffffffffffffffffffffffffffff16908173ffffffffffffffffffffffffffffffffffffffff16815250506000878360ff1681518110612d4957fe5b602002602001015190506000612d6082848a613e52565b9050612d6c86826130bd565b95505060019092019150612c919050565b5090949350505050565b600082612d96575060006108bd565b82820282848281612da357fe5b04146109b4576040517f08c379a0000000000000000000000000000000000000000000000000000000008152600401808060200182810382526021815260200180614d496021913960400191505060405180910390fd5b60006109b483836040518060400160405280601a81526020017f536166654d6174683a206469766973696f6e206279207a65726f000000000000815250614160565b73ffffffffffffffffffffffffffffffffffffffff8316612ea8576040517f08c379a0000000000000000000000000000000000000000000000000000000008152600401808060200182810382526025815260200180614de06025913960400191505060405180910390fd5b73ffffffffffffffffffffffffffffffffffffffff8216612f14576040517f08c379a0000000000000000000000000000000000000000000000000000000008152600401808060200182810382526023815260200180614bf36023913960400191505060405180910390fd5b612f1f838383611479565b612f6981604051806060016040528060268152602001614ccc6026913973ffffffffffffffffffffffffffffffffffffffff8616600090815260208190526040902054919061300c565b73ffffffffffffffffffffffffffffffffffffffff8085166000908152602081905260408082209390935590841681522054612fa590826130bd565b73ffffffffffffffffffffffffffffffffffffffff8084166000818152602081815260409182902094909455805185815290519193928716927fddf252ad1be2c89b69c2b068fc378daa952ba7f163c4a11628f55a4df523b3ef92918290030190a3505050565b600081848411156130b5576040517f08c379a00000000000000000000000000000000000000000000000000000000081526004018080602001828103825283818151815260200191508051906020019080838360005b8381101561307a578181015183820152602001613062565b50505050905090810190601f1680156130a75780820380516001836020036101000a031916815260200191505b509250505060405180910390fd5b505050900390565b6000828201838110156109b457604080517f08c379a000000000000000000000000000000000000000000000000000000000815260206004820152601b60248201527f536166654d6174683a206164646974696f6e206f766572666c6f770000000000604482015290519081900360640190fd5b6040805173ffffffffffffffffffffffffffffffffffffffff80861660248301528416604482015260648082018490528251808303909101815260849091019091526020810180517bffffffffffffffffffffffffffffffffffffffffffffffffffffffff167f23b872dd000000000000000000000000000000000000000000000000000000001790526131c69085906141df565b50505050565b600a54604080517fad5c4648000000000000000000000000000000000000000000000000000000008152905160009273ffffffffffffffffffffffffffffffffffffffff169163ad5c4648916004808301926020929190829003018186803b15801561323757600080fd5b505afa15801561324b573d6000803e3d6000fd5b505050506040513d602081101561326157600080fd5b505173ffffffffffffffffffffffffffffffffffffffff84811691161480613287575083155b156132935750826109b4565b604080516002808252606080830184529260208301908036833701905050905083816000815181106132c157fe5b73ffffffffffffffffffffffffffffffffffffffff928316602091820292909201810191909152600a54604080517fad5c46480000000000000000000000000000000000000000000000000000000081529051919093169263ad5c4648926004808301939192829003018186803b15801561333b57600080fd5b505afa15801561334f573d6000803e3d6000fd5b505050506040513d602081101561336557600080fd5b505181518290600190811061337657fe5b602002602001019073ffffffffffffffffffffffffffffffffffffffff16908173ffffffffffffffffffffffffffffffffffffffff16815250506133f1816000815181106133c057fe5b6020026020010151600860039054906101000a900473ffffffffffffffffffffffffffffffffffffffff16876142b7565b600a54604080517fd06ca61f000000000000000000000000000000000000000000000000000000008152600481018881526024820192835284516044830152845160009473ffffffffffffffffffffffffffffffffffffffff169363d06ca61f938b93889390929160640190602080860191028083838c5b83811015613481578181015183820152602001613469565b50505050905001935050505060006040518083038186803b1580156134a557600080fd5b505afa1580156134b9573d6000803e3d6000fd5b505050506040513d6000823e601f3d9081017fffffffffffffffffffffffffffffffffffffffffffffffffffffffffffffffe0168201604052602081101561350057600080fd5b810190808051604051939291908464010000000082111561352057600080fd5b90830190602082018581111561353557600080fd5b825186602082028301116401000000008211171561355257600080fd5b82525081516020918201928201910280838360005b8381101561357f578181015183820152602001613567565b5050505090500160405250505060018151811061359857fe5b60200260200101519050600a60009054906101000a900473ffffffffffffffffffffffffffffffffffffffff1673ffffffffffffffffffffffffffffffffffffffff166338ed173987838530896040518663ffffffff1660e01b815260040180868152602001858152602001806020018473ffffffffffffffffffffffffffffffffffffffff1681526020018363ffffffff168152602001828103825285818151815260200191508051906020019060200280838360005b83811015613668578181015183820152602001613650565b505050509050019650505050505050600060405180830381600087803b15801561369157600080fd5b505af11580156136a5573d6000803e3d6000fd5b505050506040513d6000823e601f3d9081017fffffffffffffffffffffffffffffffffffffffffffffffffffffffffffffffe016820160405260208110156136ec57600080fd5b810190808051604051939291908464010000000082111561370c57600080fd5b90830190602082018581111561372157600080fd5b825186602082028301116401000000008211171561373e57600080fd5b82525081516020918201928201910280838360005b8381101561376b578181015183820152602001613753565b505050509050016040525050505080925050509392505050565b60055460609081907501000000000000000000000000000000000000000000900460ff1667ffffffffffffffff811180156137bf57600080fd5b506040519080825280602002602001820160405280156137e9578160200160208202803683370190505b50905060005b60055460ff7501000000000000000000000000000000000000000000909104811690821610156138d4576000613873606461090b6007600060068760ff168154811061383757fe5b600091825260208083209091015473ffffffffffffffffffffffffffffffffffffffff168352820192909252604001902054899060ff16612d87565b90506138b18160068460ff168154811061388957fe5b60009182526020909120015473ffffffffffffffffffffffffffffffffffffffff1687613ef3565b838360ff16815181106138c057fe5b6020908102919091010152506001016137ef565b509392505050565b60006109b483836040518060400160405280601e81526020017f536166654d6174683a207375627472616374696f6e206f766572666c6f77000081525061300c565b73ffffffffffffffffffffffffffffffffffffffff82166139a057604080517f08c379a000000000000000000000000000000000000000000000000000000000815260206004820152601f60248201527f45524332303a206d696e7420746f20746865207a65726f206164647265737300604482015290519081900360640190fd5b6139ac60008383611479565b6002546139b990826130bd565b60025573ffffffffffffffffffffffffffffffffffffffff82166000908152602081905260409020546139ec90826130bd565b73ffffffffffffffffffffffffffffffffffffffff83166000818152602081815260408083209490945583518581529351929391927fddf252ad1be2c89b69c2b068fc378daa952ba7f163c4a11628f55a4df523b3ef9281900390910190a35050565b60055460609081907501000000000000000000000000000000000000000000900460ff1667ffffffffffffffff81118015613a8957600080fd5b50604051908082528060200260200182016040528015613ab3578160200160208202803683370190505b5090506000613ad2613ac36108c3565b61090b866402540be400612d87565b905060005b60055460ff750100000000000000000000000000000000000000000090910481169082161015613be757613bc56402540be40061090b8460068560ff1681548110613b1e57fe5b60009182526020918290200154604080517f70a08231000000000000000000000000000000000000000000000000000000008152306004820152905173ffffffffffffffffffffffffffffffffffffffff909216926370a0823192602480840193829003018186803b158015613b9357600080fd5b505afa158015613ba7573d6000803e3d6000fd5b505050506040513d6020811015613bbd57600080fd5b505190612d87565b838260ff1681518110613bd457fe5b6020908102919091010152600101613ad7565b50909392505050565b6060613bfb83613a4f565b9050613c073384614445565b6000613c1382846140c5565b600854909150600090613c369060ff610100820481169161090b91869116612d87565b90506000613c66613c4784846138dc565b60095473ffffffffffffffffffffffffffffffffffffffff1687613ef3565b600954909150613c8d9073ffffffffffffffffffffffffffffffffffffffff16338361458f565b600a54604080517fad5c46480000000000000000000000000000000000000000000000000000000081529051613d339273ffffffffffffffffffffffffffffffffffffffff169163ad5c4648916004808301926020929190829003018186803b158015613cf957600080fd5b505afa158015613d0d573d6000803e3d6000fd5b505050506040513d6020811015613d2357600080fd5b5051613d2d611e27565b8461458f565b7fe08737ac48a1dab4b1a46c7dc9398bd5bfc6d7ad6fabb7cd8caa254de14def3533828489613d606108c3565b6040805173ffffffffffffffffffffffffffffffffffffffff909616865260208601949094528484019290925260608401526080830152519081900360a00190a1505050505050565b6000613e4a84600a60009054906101000a900473ffffffffffffffffffffffffffffffffffffffff1673ffffffffffffffffffffffffffffffffffffffff1663ad5c46486040518163ffffffff1660e01b815260040160206040518083038186803b158015613e1757600080fd5b505afa158015613e2b573d6000803e3d6000fd5b505050506040513d6020811015613e4157600080fd5b5051858561461c565b949350505050565b6000613e4a8484600a60009054906101000a900473ffffffffffffffffffffffffffffffffffffffff1673ffffffffffffffffffffffffffffffffffffffff1663ad5c46486040518163ffffffff1660e01b815260040160206040518083038186803b158015613ec157600080fd5b505afa158015613ed5573d6000803e3d6000fd5b505050506040513d6020811015613eeb57600080fd5b50518561461c565b600a54604080517fad5c4648000000000000000000000000000000000000000000000000000000008152905160009273ffffffffffffffffffffffffffffffffffffffff169163ad5c4648916004808301926020929190829003018186803b158015613f5e57600080fd5b505afa158015613f72573d6000803e3d6000fd5b505050506040513d6020811015613f8857600080fd5b505173ffffffffffffffffffffffffffffffffffffffff84811691161480613fae575083155b15613fba5750826109b4565b60408051600280825260608083018452926020830190803683375050600a54604080517fad5c4648000000000000000000000000000000000000000000000000000000008152905193945073ffffffffffffffffffffffffffffffffffffffff9091169263ad5c464892506004808301926020929190829003018186803b15801561404457600080fd5b505afa158015614058573d6000803e3d6000fd5b505050506040513d602081101561406e57600080fd5b50518151829060009061407d57fe5b602002602001019073ffffffffffffffffffffffffffffffffffffffff16908173ffffffffffffffffffffffffffffffffffffffff1681525050838160018151811061337657fe5b60008060005b60055460ff7501000000000000000000000000000000000000000000909104811690821610156138d4576000614149868360ff168151811061410957fe5b602002602001015160068460ff168154811061412157fe5b60009182526020909120015473ffffffffffffffffffffffffffffffffffffffff16876131cc565b905061415583826130bd565b9250506001016140cb565b600081836141c9576040517f08c379a000000000000000000000000000000000000000000000000000000000815260206004820181815283516024840152835190928392604490910191908501908083836000831561307a578181015183820152602001613062565b5060008385816141d557fe5b0495945050505050565b6060614241826040518060400160405280602081526020017f5361666545524332303a206c6f772d6c6576656c2063616c6c206661696c65648152508573ffffffffffffffffffffffffffffffffffffffff1661491b9092919063ffffffff16565b8051909150156114795780806020019051602081101561426057600080fd5b5051611479576040517f08c379a000000000000000000000000000000000000000000000000000000000815260040180806020018281038252602a815260200180614e29602a913960400191505060405180910390fd5b8015806143635750604080517fdd62ed3e00000000000000000000000000000000000000000000000000000000815230600482015273ffffffffffffffffffffffffffffffffffffffff848116602483015291519185169163dd62ed3e91604480820192602092909190829003018186803b15801561433557600080fd5b505afa158015614349573d6000803e3d6000fd5b505050506040513d602081101561435f57600080fd5b5051155b6143b8576040517f08c379a0000000000000000000000000000000000000000000000000000000008152600401808060200182810382526036815260200180614e866036913960400191505060405180910390fd5b6040805173ffffffffffffffffffffffffffffffffffffffff8416602482015260448082018490528251808303909101815260649091019091526020810180517bffffffffffffffffffffffffffffffffffffffffffffffffffffffff167f095ea7b3000000000000000000000000000000000000000000000000000000001790526114799084906141df565b73ffffffffffffffffffffffffffffffffffffffff82166144b1576040517f08c379a0000000000000000000000000000000000000000000000000000000008152600401808060200182810382526021815260200180614dbf6021913960400191505060405180910390fd5b6144bd82600083611479565b61450781604051806060016040528060228152602001614c166022913973ffffffffffffffffffffffffffffffffffffffff8516600090815260208190526040902054919061300c565b73ffffffffffffffffffffffffffffffffffffffff831660009081526020819052604090205560025461453a90826138dc565b60025560408051828152905160009173ffffffffffffffffffffffffffffffffffffffff8516917fddf252ad1be2c89b69c2b068fc378daa952ba7f163c4a11628f55a4df523b3ef9181900360200190a35050565b6040805173ffffffffffffffffffffffffffffffffffffffff8416602482015260448082018490528251808303909101815260649091019091526020810180517bffffffffffffffffffffffffffffffffffffffffffffffffffffffff167fa9059cbb000000000000000000000000000000000000000000000000000000001790526114799084906141df565b6040805160028082526060808301845260009390929190602083019080368337019050509050848160008151811061465057fe5b602002602001019073ffffffffffffffffffffffffffffffffffffffff16908173ffffffffffffffffffffffffffffffffffffffff1681525050838160018151811061469857fe5b602002602001019073ffffffffffffffffffffffffffffffffffffffff16908173ffffffffffffffffffffffffffffffffffffffff1681525050806001815181106146df57fe5b602002602001015173ffffffffffffffffffffffffffffffffffffffff168160008151811061470a57fe5b602002602001015173ffffffffffffffffffffffffffffffffffffffff161480614732575085155b156147405785915050613e4a565b600a54604080517fd06ca61f000000000000000000000000000000000000000000000000000000008152600481018981526024820192835284516044830152845160009473ffffffffffffffffffffffffffffffffffffffff169363d06ca61f938c93889390929160640190602080860191028083838c5b838110156147d05781810151838201526020016147b8565b50505050905001935050505060006040518083038186803b1580156147f457600080fd5b505afa158015614808573d6000803e3d6000fd5b505050506040513d6000823e601f3d9081017fffffffffffffffffffffffffffffffffffffffffffffffffffffffffffffffe0168201604052602081101561484f57600080fd5b810190808051604051939291908464010000000082111561486f57600080fd5b90830190602082018581111561488457600080fd5b82518660208202830111640100000000821117156148a157600080fd5b82525081516020918201928201910280838360005b838110156148ce5781810151838201526020016148b6565b505050509050016040525050506001815181106148e757fe5b602002602001015190508315614912576149096103e561090b836103e8612d87565b92505050613e4a565b9150613e4a9050565b6060613e4a84846000858561492f85614a86565b61499a57604080517f08c379a000000000000000000000000000000000000000000000000000000000815260206004820152601d60248201527f416464726573733a2063616c6c20746f206e6f6e2d636f6e7472616374000000604482015290519081900360640190fd5b600060608673ffffffffffffffffffffffffffffffffffffffff1685876040518082805190602001908083835b60208310614a0457805182527fffffffffffffffffffffffffffffffffffffffffffffffffffffffffffffffe090920191602091820191016149c7565b6001836020036101000a03801982511681845116808217855250505050505090500191505060006040518083038185875af1925050503d8060008114614a66576040519150601f19603f3d011682016040523d82523d6000602084013e614a6b565b606091505b5091509150614a7b828286614a8c565b979650505050505050565b3b151590565b60608315614a9b5750816109b4565b825115614aab5782518084602001fd5b6040517f08c379a000000000000000000000000000000000000000000000000000000000815260206004820181815284516024840152845185939192839260440191908501908083836000831561307a578181015183820152602001613062565b828054828255906000526020600020908101928215614b84579160200282015b82811115614b845781547fffffffffffffffffffffffff00000000000000000000000000000000000000001673ffffffffffffffffffffffffffffffffffffffff843516178255602090920191600190910190614b2c565b50614b90929150614b94565b5090565b5b80821115614b905780547fffffffffffffffffffffffff0000000000000000000000000000000000000000168155600101614b9556fe417474656d7074656420746f206465706f736974206d6f7265207468616e2062616c616e63652e45524332303a207472616e7366657220746f20746865207a65726f206164647265737345524332303a206275726e20616d6f756e7420657863656564732062616c616e63654f776e61626c653a206e6577206f776e657220697320746865207a65726f206164647265737345524332303a20617070726f766520746f20746865207a65726f2061646472657373417474656d707420746f207365742070657263656e7461676520686967686572207468616e2032252e546f74616c20746f6b656e2070657263656e74616765206973206e6f7420313030252e45524332303a207472616e7366657220616d6f756e7420657863656564732062616c616e6365546f6b656e20636f756e7420646f65736e2774206d6174636820746f6b656e73206c656e6774682e417474656d707420746f207769746864726177206d6f7265207468616e2031303025206f6620746865206173736574536166654d6174683a206d756c7469706c69636174696f6e206f766572666c6f7745524332303a207472616e7366657220616d6f756e74206578636565647320616c6c6f77616e6365417474656d707420746f207769746864726177206d6f7265207468616e2075736572277320686f6c64696e672e45524332303a206275726e2066726f6d20746865207a65726f206164647265737345524332303a207472616e736665722066726f6d20746865207a65726f206164647265737345524332303a20617070726f76652066726f6d20746865207a65726f20616464726573735361666545524332303a204552433230206f7065726174696f6e20646964206e6f742073756363656564546f6b656e20636f756e7420646f65736e2774206d6174636820746f6b656e2070657263656e7461676573206c656e6774682e5361666545524332303a20617070726f76652066726f6d206e6f6e2d7a65726f20746f206e6f6e2d7a65726f20616c6c6f77616e6365436f6e7472616374206973206e6f7420616c6c6f77656420746f207370656e6420757365722773204452432e45524332303a2064656372656173656420616c6c6f77616e63652062656c6f77207a65726fa2646970667358221220d861c4dfb294794c7b4c5148415d98b06d724c774da56ad75ef0818fdfe9271a64736f6c634300060c0033",
  "immutableReferences": {},
  "source": "// SPDX-License-Identifier: AGPL-3.0-or-later\n\npragma solidity ^0.6.6;\n\nimport \"@openzeppelin/contracts/access/Ownable.sol\";\nimport \"@openzeppelin/contracts/math/SafeMath.sol\";\nimport \"@openzeppelin/contracts/token/ERC20/ERC20.sol\";\nimport \"@openzeppelin/contracts/token/ERC20/SafeERC20.sol\";\nimport \"@openzeppelin/contracts/utils/ReentrancyGuard.sol\";\n\nimport \"./interfaces/Uniswap/IUniswapV2Router02.sol\";\nimport \"./interfaces/IDigitalReserve.sol\";\n\n/**\n * @dev Implementation of Digital Reserve contract.\n * Digital Reserve contract converts user's DRC into a set of SoV assets using the Uniswap router, \n * and hold these assets for it's users. \n * When users initiate a withdrawal action, the contract converts a share of the vault, \n * that the user is requesting, to DRC and sends it back to their wallet.\n */\ncontract DigitalReserve is IDigitalReserve, ERC20, Ownable {\n    using SafeMath for uint256;\n\n    /**\n     * @dev Set Uniswap router address, DRC token address, DR name.\n     */\n    constructor(\n        address _router,\n        address _drcAddress,\n        string memory _name\n    ) public ERC20(_name, \"DR-POD\") {\n        drcAddress = _drcAddress;\n        router = _router;\n        uniswapRouter = IUniswapV2Router02(_router);\n    }\n\n    uint8 private _strategyTokenCount;\n    address[] private _strategyTokens;\n    mapping(address => uint8) private _tokenPercentage;\n    uint8 private _withdrawalFeeFraction = 1;\n    uint8 private _withdrawalFeeBase = 100;\n    uint8 private _priceDecimals = 18;\n\n    address private router;\n    address private drcAddress;\n\n    bool private depositEnabled = false;\n\n    IUniswapV2Router02 private uniswapRouter;\n\n    /**\n     * @dev See {IDigitalReserve-strategyTokenCount}.\n     */\n    function strategyTokenCount() external view override returns (uint8) {\n        return _strategyTokenCount;\n    }\n\n    /**\n     * @dev See {IDigitalReserve-strategyTokens}.\n     */\n    function strategyTokens(uint8 index) external view override returns (address) {\n        return _strategyTokens[index];\n    }\n\n    /**\n     * @dev See {IDigitalReserve-tokenPercentage}.\n     */\n    function tokenPercentage(address tokenAddress) external view override returns (uint8) {\n        return _tokenPercentage[tokenAddress];\n    }\n\n    /**\n     * @dev See {IDigitalReserve-withdrawalFee}.\n     */\n    function withdrawalFee() external view override returns (uint8, uint8) {\n        return (_withdrawalFeeFraction, _withdrawalFeeBase);\n    }\n\n    /**\n     * @dev See {IDigitalReserve-priceDecimals}.\n     */\n    function priceDecimals() external view override returns (uint8) {\n        return _priceDecimals;\n    }\n\n    /**\n     * @dev See {IDigitalReserve-totalTokenStored}.\n     */\n    function totalTokenStored() public view override returns (uint256[] memory) {\n        uint256[] memory amounts = new uint256[](_strategyTokenCount);\n        for (uint8 i = 0; i < _strategyTokenCount; i++) {\n            amounts[i] = IERC20(_strategyTokens[i]).balanceOf(address(this));\n        }\n        return amounts;\n    }\n\n    /**\n     * @dev See {IDigitalReserve-getUserVaultInDrc}.\n     */\n    function getUserVaultInDrc(address user, uint8 percentage) public view override returns (uint256, uint256, uint256) {\n        uint256[] memory userStrategyTokens = _getStrategyTokensByPodAmount(balanceOf(user).mul(percentage).div(100));\n        uint256 userVaultWorthInEth = _getEthAmountByStrategyTokensAmount(userStrategyTokens, true);\n        uint256 userVaultWorthInEthAfterSwap = _getEthAmountByStrategyTokensAmount(userStrategyTokens, false);\n\n        uint256 drcAmountBeforeFees = _getTokenAmountByEthAmount(userVaultWorthInEth, drcAddress, true);\n\n        uint256 fees = userVaultWorthInEthAfterSwap.mul(_withdrawalFeeFraction).div(_withdrawalFeeBase);\n        uint256 drcAmountAfterFees = _getTokenAmountByEthAmount(userVaultWorthInEthAfterSwap.sub(fees), drcAddress, false);\n\n        return (drcAmountBeforeFees, drcAmountAfterFees, fees);\n    }\n\n    /**\n     * @dev See {IDigitalReserve-getProofOfDepositPrice}.\n     */\n    function getProofOfDepositPrice() public view override returns (uint256) {\n        uint256 proofOfDepositPrice;\n        if (totalSupply() > 0) {\n            proofOfDepositPrice = _getEthAmountByStrategyTokensAmount(totalTokenStored(), true).mul(1e18).div(totalSupply());\n        }\n        return proofOfDepositPrice;\n    }\n\n    /**\n     * @dev See {IDigitalReserve-depositDrc}.\n     */\n    function depositDrc(uint256 drcAmount, uint32 deadline) external override {\n        require(_strategyTokenCount >= 1, \"Strategy hasn't been set.\");\n        require(depositEnabled, \"Deposit is disabled.\");\n        require(IERC20(drcAddress).allowance(msg.sender, address(this)) >= drcAmount, \"Contract is not allowed to spend user's DRC.\");\n        require(IERC20(drcAddress).balanceOf(msg.sender) >= drcAmount, \"Attempted to deposit more than balance.\");\n\n        SafeERC20.safeTransferFrom(IERC20(drcAddress), msg.sender, address(this), drcAmount);\n\n        // Get current unit price before adding tokens to vault\n        uint256 currentPodUnitPrice = getProofOfDepositPrice();\n\n        uint256 ethConverted = _convertTokenToEth(drcAmount, drcAddress, deadline);\n        _convertEthToStrategyTokens(ethConverted, deadline);\n\n        uint256 podToMint = 0;\n        if (totalSupply() == 0) {\n            podToMint = drcAmount.mul(1e15);\n        } else {\n            uint256 vaultTotalInEth = _getEthAmountByStrategyTokensAmount(totalTokenStored(), true);\n            uint256 newPodTotal = vaultTotalInEth.mul(1e18).div(currentPodUnitPrice);\n            podToMint = newPodTotal.sub(totalSupply());\n        }\n\n        _mint(msg.sender, podToMint);\n\n        emit Deposit(msg.sender, drcAmount, podToMint, totalSupply());\n    }\n\n    /**\n     * @dev See {IDigitalReserve-withdrawDrc}.\n     */\n    function withdrawDrc(uint256 drcAmount, uint32 deadline) external override {\n        address[] memory path = new address[](2);\n        path[0] = uniswapRouter.WETH();\n        path[1] = drcAddress;\n\n        uint256 ethNeeded = uniswapRouter.getAmountsIn(drcAmount, path)[0];\n        uint256 ethNeededPlusFee = ethNeeded.mul(_withdrawalFeeBase).div(_withdrawalFeeBase - _withdrawalFeeFraction);\n\n        uint256[] memory userStrategyTokens = _getStrategyTokensByPodAmount(balanceOf(msg.sender));\n        uint256 userVaultWorth = _getEthAmountByStrategyTokensAmount(userStrategyTokens, false);\n\n        require(userVaultWorth >= ethNeededPlusFee, \"Attempt to withdraw more than user's holding.\");\n\n        uint256 amountFraction = ethNeededPlusFee.mul(1e10).div(userVaultWorth);\n        uint256 podToBurn = balanceOf(msg.sender).mul(amountFraction).div(1e10);\n\n        _withdrawProofOfDeposit(podToBurn, deadline);\n    }\n\n    /**\n     * @dev See {IDigitalReserve-withdrawPercentage}.\n     */\n    function withdrawPercentage(uint8 percentage, uint32 deadline) external override {\n        require(percentage <= 100, \"Attempt to withdraw more than 100% of the asset\");\n\n        uint256 podToBurn = balanceOf(msg.sender).mul(percentage).div(100);\n        _withdrawProofOfDeposit(podToBurn, deadline);\n    }\n\n    /**\n     * @dev Enable or disable deposit.\n     * @param status Deposit allowed or not\n     * Disable deposit if it is to protect users' fund if there's any security issue or assist DR upgrade.\n     */\n    function changeDepositStatus(bool status) external onlyOwner {\n        depositEnabled = status;\n    }\n\n    /**\n     * @dev Change withdrawal fee percentage.\n     * If 1%, then input (1,100)\n     * If 0.5%, then input (5,1000)\n     * @param withdrawalFeeFraction_ Fraction of withdrawal fee based on withdrawalFeeBase_\n     * @param withdrawalFeeBase_ Fraction of withdrawal fee base\n     */\n    function changeFee(uint8 withdrawalFeeFraction_, uint8 withdrawalFeeBase_) external onlyOwner {\n        require(withdrawalFeeFraction_ <= withdrawalFeeBase_, \"Fee fraction exceeded base.\");\n        uint8 percentage = withdrawalFeeFraction_ * 100 / withdrawalFeeBase_;\n        require(percentage <= 2, \"Attempt to set percentage higher than 2%.\"); // Requested by community\n        \n        _withdrawalFeeFraction = withdrawalFeeFraction_;\n        _withdrawalFeeBase = withdrawalFeeBase_;\n    }\n\n    /**\n     * @dev Set or change DR strategy tokens and allocations.\n     * @param strategyTokens_ Array of strategy tokens.\n     * @param tokenPercentage_ Array of strategy tokens' percentage allocations.\n     * @param strategyTokenCount_ Number of strategy tokens.\n     * @param deadline Unix timestamp after which the transaction will revert.\n     */\n    function changeStrategy(\n        address[] calldata strategyTokens_,\n        uint8[] calldata tokenPercentage_,\n        uint8 strategyTokenCount_,\n        uint32 deadline\n    ) external onlyOwner {\n        require(strategyTokenCount_ >= 1, \"Setting strategy to 0 tokens.\");\n        require(strategyTokens_.length == strategyTokenCount_, \"Token count doesn't match tokens length.\");\n        require(tokenPercentage_.length == strategyTokenCount_, \"Token count doesn't match token percentages length.\");\n\n        uint8 totalPercentage = 0;\n        for (uint8 i = 0; i < strategyTokenCount_; i++) {\n            totalPercentage += tokenPercentage_[i];\n        }\n        require(totalPercentage == 100, \"Total token percentage is not 100%.\");\n\n        uint8[] memory oldPercentage = new uint8[](_strategyTokenCount);\n        for (uint8 i = 0; i < _strategyTokenCount; i++) {\n            oldPercentage[i] = _tokenPercentage[_strategyTokens[i]];\n            delete _tokenPercentage[_strategyTokens[i]];\n        }\n\n        emit StrategyChange(_strategyTokens, oldPercentage, strategyTokens_, tokenPercentage_);\n\n        // Before mutate strategyTokens, convert current strategy tokens to ETH\n        uint256 ethConverted = _convertStrategyTokensToEth(totalTokenStored(), deadline);\n\n        _strategyTokens = strategyTokens_;\n        _strategyTokenCount = strategyTokenCount_;\n        for (uint8 i = 0; i < _strategyTokenCount; i++) {\n            _tokenPercentage[_strategyTokens[i]] = tokenPercentage_[i];\n        }\n\n        _convertEthToStrategyTokens(ethConverted, deadline);\n    }\n\n    /**\n     * @dev Realigning the weighting of a portfolio of assets to the strategy allocation that is defined.\n     * Only convert the amount that's necessory to convert to not be charged 0.3% uniswap fee for everything.\n     * This in total saves 0.6% fee for majority of the assets.\n     * @param deadline Unix timestamp after which the transaction will revert.\n     */\n    function rebalance(uint32 deadline) external onlyOwner {\n        require(_strategyTokenCount > 0, \"Strategy hasn't been set\");\n\n        // Get each tokens worth and the total worth in ETH\n        uint256 totalWorthInEth;\n        uint256[] memory tokensWorthInEth = new uint256[](_strategyTokenCount);\n\n        for (uint8 i = 0; i < _strategyTokenCount; i++) {\n            uint256 tokenWorth = _getEthAmountByTokenAmount(IERC20(_strategyTokens[i]).balanceOf(address(this)), _strategyTokens[i], true);\n            totalWorthInEth = totalWorthInEth.add(tokenWorth);\n            tokensWorthInEth[i] = tokenWorth;\n        }\n\n        uint8[] memory percentageArray = new uint8[](_strategyTokenCount); // Get percentages for event param\n        uint256 totalInEthToConvert = 0; // Get total token worth in ETH needed to be converted\n        uint256 totalEthConverted = 0; // Get total token worth in ETH needed to be converted\n        uint256[] memory tokenInEthNeeded = new uint256[](_strategyTokenCount); // Get token worth need to be filled\n\n        for (uint8 i = 0; i < _strategyTokenCount; i++) {\n            percentageArray[i] = _tokenPercentage[_strategyTokens[i]];\n\n            uint256 tokenShouldWorth = totalWorthInEth.mul(_tokenPercentage[_strategyTokens[i]]).div(100);\n\n            if(tokensWorthInEth[i] <= tokenShouldWorth) {\n                // If token worth less than should be, calculate the diff and store as needed\n                tokenInEthNeeded[i] = tokenShouldWorth.sub(tokensWorthInEth[i]);\n                totalInEthToConvert = totalInEthToConvert.add(tokenInEthNeeded[i]);\n            } else {\n                tokenInEthNeeded[i] = 0;\n\n                // If token worth more than should be, convert the overflowed amount to ETH\n                uint256 tokenInEthOverflowed = tokensWorthInEth[i].sub(tokenShouldWorth);\n                uint256 tokensToConvert = _getTokenAmountByEthAmount(tokenInEthOverflowed, _strategyTokens[i], true);\n                uint256 ethConverted = _convertTokenToEth(tokensToConvert, _strategyTokens[i], deadline);\n                totalEthConverted = totalEthConverted.add(ethConverted);\n            }\n            // Need the total value to help calculate how to distributed the converted ETH\n        }\n\n        // Distribute newly converted ETH by portion of each token to be converted to, and convert to that token needed.\n        // Note: totalEthConverted would be a bit smaller than totalInEthToConvert due to Uniswap fee.\n        // Converting everything is another way of rebalancing, but Uniswap would take 0.6% fee on everything.\n        // In this method we reach the closest number with the lowest possible swapping fee.\n        for (uint8 i = 0; i < _strategyTokenCount; i++) {\n            uint256 ethToConvert = totalEthConverted.mul(tokenInEthNeeded[i]).div(totalInEthToConvert);\n            _convertEthToToken(ethToConvert, _strategyTokens[i], deadline);\n        }\n\n        emit Rebalance(_strategyTokens, percentageArray);\n    }\n\n    /**\n     * @dev Withdraw DRC by DR-POD amount to burn.\n     * @param podToBurn Amount of DR-POD to burn in exchange for DRC.\n     * @param deadline Unix timestamp after which the transaction will revert.\n     */\n    function _withdrawProofOfDeposit(uint256 podToBurn, uint32 deadline) private {\n        uint256[] memory strategyTokensToWithdraw = _getStrategyTokensByPodAmount(podToBurn);\n\n        _burn(msg.sender, podToBurn);\n\n        uint256 ethConverted = _convertStrategyTokensToEth(strategyTokensToWithdraw, deadline);\n        uint256 fees = ethConverted.mul(_withdrawalFeeFraction).div(_withdrawalFeeBase);\n\n        uint256 drcAmount = _convertEthToToken(ethConverted.sub(fees), drcAddress, deadline);\n\n        SafeERC20.safeTransfer(IERC20(drcAddress), msg.sender, drcAmount);\n        SafeERC20.safeTransfer(IERC20(uniswapRouter.WETH()), owner(), fees);\n\n        emit Withdraw(msg.sender, drcAmount, fees, podToBurn, totalSupply());\n    }\n\n    /**\n     * @dev Get ETH worth of a certain amount of a token.\n     * @param _amount Amount of token to convert.\n     * @param _fromAddress Address of token to convert from.\n     * @param _toAddress Address of token to convert to.\n     * @param excludeFees If uniswap fees is considered.\n     */\n    function _getAAmountByBAmount(uint256 _amount, address _fromAddress, address _toAddress, bool excludeFees) private view returns (uint256) {\n        address[] memory path = new address[](2);\n        path[0] = _fromAddress;\n        path[1] = _toAddress;\n\n        if (path[0] == path[1] || _amount == 0) {\n            return _amount;\n        }\n\n        uint256 amountOut = uniswapRouter.getAmountsOut(_amount, path)[1];\n        \n        if(excludeFees) {\n            return amountOut.mul(1000).div(997);\n        } else {\n            return amountOut;\n        }\n    }\n\n    /**\n     * @dev Get the worth in a token of a certain amount of ETH.\n     * @param _amount Amount of ETH to convert.\n     * @param _tokenAddress Address of the token to convert to.\n     * @param excludeFees If uniswap fees is considered.\n     */\n    function _getTokenAmountByEthAmount(uint256 _amount, address _tokenAddress, bool excludeFees) private view returns (uint256) {\n        return _getAAmountByBAmount(_amount, uniswapRouter.WETH(), _tokenAddress, excludeFees);\n    }\n\n    /**\n     * @dev Get ETH worth of a certain amount of a token.\n     * @param _amount Amount of token to convert.\n     * @param _tokenAddress Address of token to convert from.\n     * @param excludeFees If uniswap fees is considered.\n     */\n    function _getEthAmountByTokenAmount(uint256 _amount, address _tokenAddress, bool excludeFees) private view returns (uint256) {\n        return _getAAmountByBAmount(_amount, _tokenAddress, uniswapRouter.WETH(), excludeFees);\n    }\n\n    /**\n     * @dev Get ETH worth of an array of strategy tokens.\n     * @param strategyTokensBalance_ Array amounts of strategy tokens to convert.\n     * @param excludeFees If uniswap fees is considered.\n     */\n    function _getEthAmountByStrategyTokensAmount(uint256[] memory strategyTokensBalance_, bool excludeFees) private view returns (uint256) {\n        uint256 amountOut;\n        address[] memory path = new address[](2);\n        path[1] = uniswapRouter.WETH();\n\n        for (uint8 i = 0; i < _strategyTokenCount; i++) {\n            address tokenAddress = _strategyTokens[i];\n            path[0] = tokenAddress;\n            uint256 tokenAmount = strategyTokensBalance_[i];\n            uint256 tokenAmountInEth = _getEthAmountByTokenAmount(tokenAmount, tokenAddress, excludeFees);\n\n            amountOut = amountOut.add(tokenAmountInEth);\n        }\n        return amountOut;\n    }\n\n    /**\n     * @dev Get DR-POD worth in an array of strategy tokens.\n     * @param _amount Amount of DR-POD to convert.\n     */\n    function _getStrategyTokensByPodAmount(uint256 _amount) private view returns (uint256[] memory) {\n        uint256[] memory strategyTokenAmount = new uint256[](_strategyTokenCount);\n\n        uint256 podFraction = _amount.mul(1e10).div(totalSupply());\n        for (uint8 i = 0; i < _strategyTokenCount; i++) {\n            strategyTokenAmount[i] = IERC20(_strategyTokens[i]).balanceOf(address(this)).mul(podFraction).div(1e10);\n        }\n        return strategyTokenAmount;\n    }\n\n    /**\n     * @dev Convert a token to WETH via the Uniswap router.\n     * @param _amount Amount of tokens to swap.\n     * @param _tokenAddress Address of token to swap.\n     * @param deadline Unix timestamp after which the transaction will revert.\n     */\n    function _convertTokenToEth(\n        uint256 _amount,\n        address _tokenAddress,\n        uint32 deadline\n    ) private returns (uint256) {\n        if (_tokenAddress == uniswapRouter.WETH() || _amount == 0) {\n            return _amount;\n        }\n        address[] memory path = new address[](2);\n        path[0] = _tokenAddress;\n        path[1] = uniswapRouter.WETH();\n        SafeERC20.safeApprove(IERC20(path[0]), router, _amount);\n        uint256 amountOut = uniswapRouter.getAmountsOut(_amount, path)[1];\n        uniswapRouter.swapExactTokensForTokens(_amount, amountOut, path, address(this), deadline);\n        return amountOut;\n    }\n\n    /**\n     * @dev Convert ETH to another token via the Uniswap router.\n     * @param _amount Amount of WETH to swap.\n     * @param _tokenAddress Address of token to swap to.\n     * @param deadline Unix timestamp after which the transaction will revert.\n     */\n    function _convertEthToToken(\n        uint256 _amount,\n        address _tokenAddress,\n        uint32 deadline\n    ) private returns (uint256) {\n        if (_tokenAddress == uniswapRouter.WETH() || _amount == 0) {\n            return _amount;\n        }\n        address[] memory path = new address[](2);\n        path[0] = uniswapRouter.WETH();\n        path[1] = _tokenAddress;\n        SafeERC20.safeApprove(IERC20(path[0]), router, _amount);\n        uint256 amountOut = uniswapRouter.getAmountsOut(_amount, path)[1];\n        uniswapRouter.swapExactTokensForTokens(_amount, amountOut, path, address(this), deadline);\n        return amountOut;\n    }\n\n    /**\n     * @dev Convert ETH to strategy tokens of DR in their allocation percentage.\n     * @param amount Amount of WETH to swap.\n     * @param deadline Unix timestamp after which the transaction will revert.\n     */\n    function _convertEthToStrategyTokens(uint256 amount, uint32 deadline) private returns (uint256[] memory) {\n        uint256[] memory amounts = new uint256[](_strategyTokenCount);\n        for (uint8 i = 0; i < _strategyTokenCount; i++) {\n            uint256 amountToConvert = amount.mul(_tokenPercentage[_strategyTokens[i]]).div(100);\n            amounts[i] = _convertEthToToken(amountToConvert, _strategyTokens[i], deadline);\n        }\n        return amounts;\n    }\n\n    /**\n     * @dev Convert strategy tokens to WETH.\n     * @param amountToConvert Array of the amounts of strategy tokens to swap.\n     * @param deadline Unix timestamp after which the transaction will revert.\n     */\n    function _convertStrategyTokensToEth(uint256[] memory amountToConvert, uint32 deadline) private returns (uint256) {\n        uint256 ethConverted;\n        for (uint8 i = 0; i < _strategyTokenCount; i++) {\n            uint256 amountConverted = _convertTokenToEth(amountToConvert[i], _strategyTokens[i], deadline);\n            ethConverted = ethConverted.add(amountConverted);\n        }\n        return ethConverted;\n    }\n}\n",
  "sourcePath": "/Users/fayexue/if-x-github/digital-reserve/contracts/DigitalReserve.sol",
  "compiler": {
    "name": "solc",
    "version": "0.6.12+commit.27d51765.Emscripten.clang"
  },
  "schemaVersion": "3.3.3",
  "updatedAt": "2021-01-28T09:54:12.633Z",
  "devdoc": {
    "details": "Implementation of Digital Reserve contract. Digital Reserve contract converts user's DRC into a set of SoV assets using the Uniswap router,  and hold these assets for it's users.  When users initiate a withdrawal action, the contract converts a share of the vault,  that the user is requesting, to DRC and sends it back to their wallet.",
    "kind": "dev",
    "methods": {
      "allowance(address,address)": {
        "details": "See {IERC20-allowance}."
      },
      "approve(address,uint256)": {
        "details": "See {IERC20-approve}. Requirements: - `spender` cannot be the zero address."
      },
      "balanceOf(address)": {
        "details": "See {IERC20-balanceOf}."
      },
      "changeDepositStatus(bool)": {
        "details": "Enable or disable deposit.",
        "params": {
          "status": "Deposit allowed or not Disable deposit if it is to protect users' fund if there's any security issue or assist DR upgrade."
        }
      },
      "changeFee(uint8,uint8)": {
        "details": "Change withdrawal fee percentage. If 1%, then input (1,100) If 0.5%, then input (5,1000)",
        "params": {
          "withdrawalFeeBase_": "Fraction of withdrawal fee base",
          "withdrawalFeeFraction_": "Fraction of withdrawal fee based on withdrawalFeeBase_"
        }
      },
      "changeStrategy(address[],uint8[],uint8,uint32)": {
        "details": "Set or change DR strategy tokens and allocations.",
        "params": {
          "deadline": "Unix timestamp after which the transaction will revert.",
          "strategyTokenCount_": "Number of strategy tokens.",
          "strategyTokens_": "Array of strategy tokens.",
          "tokenPercentage_": "Array of strategy tokens' percentage allocations."
        }
      },
      "constructor": {
        "details": "Set Uniswap router address, DRC token address, DR name."
      },
      "decimals()": {
        "details": "Returns the number of decimals used to get its user representation. For example, if `decimals` equals `2`, a balance of `505` tokens should be displayed to a user as `5,05` (`505 / 10 ** 2`). Tokens usually opt for a value of 18, imitating the relationship between Ether and Wei. This is the value {ERC20} uses, unless {_setupDecimals} is called. NOTE: This information is only used for _display_ purposes: it in no way affects any of the arithmetic of the contract, including {IERC20-balanceOf} and {IERC20-transfer}."
      },
      "decreaseAllowance(address,uint256)": {
        "details": "Atomically decreases the allowance granted to `spender` by the caller. This is an alternative to {approve} that can be used as a mitigation for problems described in {IERC20-approve}. Emits an {Approval} event indicating the updated allowance. Requirements: - `spender` cannot be the zero address. - `spender` must have allowance for the caller of at least `subtractedValue`."
      },
      "depositDrc(uint256,uint32)": {
        "details": "See {IDigitalReserve-depositDrc}."
      },
      "getProofOfDepositPrice()": {
        "details": "See {IDigitalReserve-getProofOfDepositPrice}."
      },
      "getUserVaultInDrc(address,uint8)": {
        "details": "See {IDigitalReserve-getUserVaultInDrc}."
      },
      "increaseAllowance(address,uint256)": {
        "details": "Atomically increases the allowance granted to `spender` by the caller. This is an alternative to {approve} that can be used as a mitigation for problems described in {IERC20-approve}. Emits an {Approval} event indicating the updated allowance. Requirements: - `spender` cannot be the zero address."
      },
      "name()": {
        "details": "Returns the name of the token."
      },
      "owner()": {
        "details": "Returns the address of the current owner."
      },
      "priceDecimals()": {
        "details": "See {IDigitalReserve-priceDecimals}."
      },
      "rebalance(uint32)": {
        "details": "Realigning the weighting of a portfolio of assets to the strategy allocation that is defined. Only convert the amount that's necessory to convert to not be charged 0.3% uniswap fee for everything. This in total saves 0.6% fee for majority of the assets.",
        "params": {
          "deadline": "Unix timestamp after which the transaction will revert."
        }
      },
      "renounceOwnership()": {
        "details": "Leaves the contract without owner. It will not be possible to call `onlyOwner` functions anymore. Can only be called by the current owner. NOTE: Renouncing ownership will leave the contract without an owner, thereby removing any functionality that is only available to the owner."
      },
      "strategyTokenCount()": {
        "details": "See {IDigitalReserve-strategyTokenCount}."
      },
      "strategyTokens(uint8)": {
        "details": "See {IDigitalReserve-strategyTokens}."
      },
      "symbol()": {
        "details": "Returns the symbol of the token, usually a shorter version of the name."
      },
      "tokenPercentage(address)": {
        "details": "See {IDigitalReserve-tokenPercentage}."
      },
      "totalSupply()": {
        "details": "See {IERC20-totalSupply}."
      },
      "totalTokenStored()": {
        "details": "See {IDigitalReserve-totalTokenStored}."
      },
      "transfer(address,uint256)": {
        "details": "See {IERC20-transfer}. Requirements: - `recipient` cannot be the zero address. - the caller must have a balance of at least `amount`."
      },
      "transferFrom(address,address,uint256)": {
        "details": "See {IERC20-transferFrom}. Emits an {Approval} event indicating the updated allowance. This is not required by the EIP. See the note at the beginning of {ERC20}. Requirements: - `sender` and `recipient` cannot be the zero address. - `sender` must have a balance of at least `amount`. - the caller must have allowance for ``sender``'s tokens of at least `amount`."
      },
      "transferOwnership(address)": {
        "details": "Transfers ownership of the contract to a new account (`newOwner`). Can only be called by the current owner."
      },
      "withdrawDrc(uint256,uint32)": {
        "details": "See {IDigitalReserve-withdrawDrc}."
      },
      "withdrawPercentage(uint8,uint32)": {
        "details": "See {IDigitalReserve-withdrawPercentage}."
      },
      "withdrawalFee()": {
        "details": "See {IDigitalReserve-withdrawalFee}."
      }
    },
    "version": 1
  },
  "userdoc": {
    "kind": "user",
    "methods": {},
    "version": 1
  }
}