{
  "contractName": "DigitalReserveERC20",
  "abi": [
    {
      "inputs": [
        {
          "internalType": "address",
          "name": "_router",
          "type": "address"
        },
        {
          "internalType": "address",
          "name": "_drcAddress",
          "type": "address"
        }
      ],
      "stateMutability": "nonpayable",
      "type": "constructor"
    },
    {
      "anonymous": false,
      "inputs": [
        {
          "indexed": true,
          "internalType": "address",
          "name": "owner",
          "type": "address"
        },
        {
          "indexed": true,
          "internalType": "address",
          "name": "spender",
          "type": "address"
        },
        {
          "indexed": false,
          "internalType": "uint256",
          "name": "value",
          "type": "uint256"
        }
      ],
      "name": "Approval",
      "type": "event"
    },
    {
      "anonymous": false,
      "inputs": [
        {
          "indexed": false,
          "internalType": "address",
          "name": "user",
          "type": "address"
        },
        {
          "indexed": false,
          "internalType": "uint256",
          "name": "amount",
          "type": "uint256"
        }
      ],
      "name": "Deposit",
      "type": "event"
    },
    {
      "anonymous": false,
      "inputs": [
        {
          "indexed": true,
          "internalType": "address",
          "name": "previousOwner",
          "type": "address"
        },
        {
          "indexed": true,
          "internalType": "address",
          "name": "newOwner",
          "type": "address"
        }
      ],
      "name": "OwnershipTransferred",
      "type": "event"
    },
    {
      "anonymous": false,
      "inputs": [
        {
          "indexed": false,
          "internalType": "address[]",
          "name": "strategyTokens",
          "type": "address[]"
        },
        {
          "indexed": false,
          "internalType": "uint8[]",
          "name": "tokenPercentage",
          "type": "uint8[]"
        }
      ],
      "name": "Rebalance",
      "type": "event"
    },
    {
      "anonymous": false,
      "inputs": [
        {
          "indexed": false,
          "internalType": "address[]",
          "name": "oldTokens",
          "type": "address[]"
        },
        {
          "indexed": false,
          "internalType": "uint8[]",
          "name": "oldPercentage",
          "type": "uint8[]"
        },
        {
          "indexed": false,
          "internalType": "address[]",
          "name": "newTokens",
          "type": "address[]"
        },
        {
          "indexed": false,
          "internalType": "uint8[]",
          "name": "newPercentage",
          "type": "uint8[]"
        }
      ],
      "name": "StrategyChange",
      "type": "event"
    },
    {
      "anonymous": false,
      "inputs": [
        {
          "indexed": true,
          "internalType": "address",
          "name": "from",
          "type": "address"
        },
        {
          "indexed": true,
          "internalType": "address",
          "name": "to",
          "type": "address"
        },
        {
          "indexed": false,
          "internalType": "uint256",
          "name": "value",
          "type": "uint256"
        }
      ],
      "name": "Transfer",
      "type": "event"
    },
    {
      "anonymous": false,
      "inputs": [
        {
          "indexed": false,
          "internalType": "address",
          "name": "user",
          "type": "address"
        },
        {
          "indexed": false,
          "internalType": "uint256",
          "name": "amount",
          "type": "uint256"
        },
        {
          "indexed": false,
          "internalType": "uint256",
          "name": "fees",
          "type": "uint256"
        }
      ],
      "name": "Withdraw",
      "type": "event"
    },
    {
      "inputs": [
        {
          "internalType": "address",
          "name": "owner",
          "type": "address"
        },
        {
          "internalType": "address",
          "name": "spender",
          "type": "address"
        }
      ],
      "name": "allowance",
      "outputs": [
        {
          "internalType": "uint256",
          "name": "",
          "type": "uint256"
        }
      ],
      "stateMutability": "view",
      "type": "function"
    },
    {
      "inputs": [
        {
          "internalType": "address",
          "name": "spender",
          "type": "address"
        },
        {
          "internalType": "uint256",
          "name": "amount",
          "type": "uint256"
        }
      ],
      "name": "approve",
      "outputs": [
        {
          "internalType": "bool",
          "name": "",
          "type": "bool"
        }
      ],
      "stateMutability": "nonpayable",
      "type": "function"
    },
    {
      "inputs": [
        {
          "internalType": "address",
          "name": "account",
          "type": "address"
        }
      ],
      "name": "balanceOf",
      "outputs": [
        {
          "internalType": "uint256",
          "name": "",
          "type": "uint256"
        }
      ],
      "stateMutability": "view",
      "type": "function"
    },
    {
      "inputs": [],
      "name": "decimals",
      "outputs": [
        {
          "internalType": "uint8",
          "name": "",
          "type": "uint8"
        }
      ],
      "stateMutability": "view",
      "type": "function"
    },
    {
      "inputs": [
        {
          "internalType": "address",
          "name": "spender",
          "type": "address"
        },
        {
          "internalType": "uint256",
          "name": "subtractedValue",
          "type": "uint256"
        }
      ],
      "name": "decreaseAllowance",
      "outputs": [
        {
          "internalType": "bool",
          "name": "",
          "type": "bool"
        }
      ],
      "stateMutability": "nonpayable",
      "type": "function"
    },
    {
      "inputs": [
        {
          "internalType": "address",
          "name": "spender",
          "type": "address"
        },
        {
          "internalType": "uint256",
          "name": "addedValue",
          "type": "uint256"
        }
      ],
      "name": "increaseAllowance",
      "outputs": [
        {
          "internalType": "bool",
          "name": "",
          "type": "bool"
        }
      ],
      "stateMutability": "nonpayable",
      "type": "function"
    },
    {
      "inputs": [],
      "name": "name",
      "outputs": [
        {
          "internalType": "string",
          "name": "",
          "type": "string"
        }
      ],
      "stateMutability": "view",
      "type": "function"
    },
    {
      "inputs": [],
      "name": "owner",
      "outputs": [
        {
          "internalType": "address",
          "name": "",
          "type": "address"
        }
      ],
      "stateMutability": "view",
      "type": "function"
    },
    {
      "inputs": [],
      "name": "renounceOwnership",
      "outputs": [],
      "stateMutability": "nonpayable",
      "type": "function"
    },
    {
      "inputs": [],
      "name": "strategyTokenCount",
      "outputs": [
        {
          "internalType": "uint8",
          "name": "",
          "type": "uint8"
        }
      ],
      "stateMutability": "view",
      "type": "function"
    },
    {
      "inputs": [
        {
          "internalType": "uint256",
          "name": "",
          "type": "uint256"
        }
      ],
      "name": "strategyTokens",
      "outputs": [
        {
          "internalType": "address",
          "name": "",
          "type": "address"
        }
      ],
      "stateMutability": "view",
      "type": "function"
    },
    {
      "inputs": [],
      "name": "symbol",
      "outputs": [
        {
          "internalType": "string",
          "name": "",
          "type": "string"
        }
      ],
      "stateMutability": "view",
      "type": "function"
    },
    {
      "inputs": [],
      "name": "totalSupply",
      "outputs": [
        {
          "internalType": "uint256",
          "name": "",
          "type": "uint256"
        }
      ],
      "stateMutability": "view",
      "type": "function"
    },
    {
      "inputs": [
        {
          "internalType": "address",
          "name": "recipient",
          "type": "address"
        },
        {
          "internalType": "uint256",
          "name": "amount",
          "type": "uint256"
        }
      ],
      "name": "transfer",
      "outputs": [
        {
          "internalType": "bool",
          "name": "",
          "type": "bool"
        }
      ],
      "stateMutability": "nonpayable",
      "type": "function"
    },
    {
      "inputs": [
        {
          "internalType": "address",
          "name": "sender",
          "type": "address"
        },
        {
          "internalType": "address",
          "name": "recipient",
          "type": "address"
        },
        {
          "internalType": "uint256",
          "name": "amount",
          "type": "uint256"
        }
      ],
      "name": "transferFrom",
      "outputs": [
        {
          "internalType": "bool",
          "name": "",
          "type": "bool"
        }
      ],
      "stateMutability": "nonpayable",
      "type": "function"
    },
    {
      "inputs": [
        {
          "internalType": "address",
          "name": "newOwner",
          "type": "address"
        }
      ],
      "name": "transferOwnership",
      "outputs": [],
      "stateMutability": "nonpayable",
      "type": "function"
    },
    {
      "inputs": [
        {
          "internalType": "bool",
          "name": "_status",
          "type": "bool"
        }
      ],
      "name": "changeDepositStatus",
      "outputs": [],
      "stateMutability": "nonpayable",
      "type": "function"
    },
    {
      "inputs": [
        {
          "internalType": "bool",
          "name": "_status",
          "type": "bool"
        }
      ],
      "name": "changeWithdrawalStatus",
      "outputs": [],
      "stateMutability": "nonpayable",
      "type": "function"
    },
    {
      "inputs": [
        {
          "internalType": "uint8",
          "name": "_feePercentage",
          "type": "uint8"
        }
      ],
      "name": "changeFee",
      "outputs": [],
      "stateMutability": "nonpayable",
      "type": "function"
    },
    {
      "inputs": [],
      "name": "totalTokenStored",
      "outputs": [
        {
          "internalType": "uint256[]",
          "name": "",
          "type": "uint256[]"
        }
      ],
      "stateMutability": "view",
      "type": "function"
    },
    {
      "inputs": [
        {
          "internalType": "address",
          "name": "_user",
          "type": "address"
        }
      ],
      "name": "getUserVaultInDrc",
      "outputs": [
        {
          "internalType": "uint256",
          "name": "",
          "type": "uint256"
        },
        {
          "internalType": "uint256",
          "name": "",
          "type": "uint256"
        },
        {
          "internalType": "uint256",
          "name": "",
          "type": "uint256"
        }
      ],
      "stateMutability": "view",
      "type": "function"
    },
    {
      "inputs": [],
      "name": "getProofOfDepositPrice",
      "outputs": [
        {
          "internalType": "uint256",
          "name": "",
          "type": "uint256"
        }
      ],
      "stateMutability": "view",
      "type": "function"
    },
    {
      "inputs": [
        {
          "internalType": "uint256",
          "name": "_amount",
          "type": "uint256"
        },
        {
          "internalType": "uint32",
          "name": "deadline",
          "type": "uint32"
        }
      ],
      "name": "depositDrc",
      "outputs": [],
      "stateMutability": "nonpayable",
      "type": "function"
    },
    {
      "inputs": [
        {
          "internalType": "uint256",
          "name": "drcAmount",
          "type": "uint256"
        },
        {
          "internalType": "uint32",
          "name": "deadline",
          "type": "uint32"
        }
      ],
      "name": "withdrawDrc",
      "outputs": [],
      "stateMutability": "nonpayable",
      "type": "function"
    },
    {
      "inputs": [
        {
          "internalType": "uint8",
          "name": "percentage",
          "type": "uint8"
        },
        {
          "internalType": "uint32",
          "name": "deadline",
          "type": "uint32"
        }
      ],
      "name": "withdrawPercentage",
      "outputs": [],
      "stateMutability": "nonpayable",
      "type": "function"
    },
    {
      "inputs": [
        {
          "internalType": "address[]",
          "name": "_strategyTokens",
          "type": "address[]"
        },
        {
          "internalType": "uint8[]",
          "name": "_tokenPercentage",
          "type": "uint8[]"
        },
        {
          "internalType": "uint8",
          "name": "_strategyTokenCount",
          "type": "uint8"
        },
        {
          "internalType": "uint32",
          "name": "deadline",
          "type": "uint32"
        }
      ],
      "name": "changeStrategy",
      "outputs": [],
      "stateMutability": "nonpayable",
      "type": "function"
    },
    {
      "inputs": [
        {
          "internalType": "uint32",
          "name": "deadline",
          "type": "uint32"
        }
      ],
      "name": "rebalance",
      "outputs": [],
      "stateMutability": "nonpayable",
      "type": "function"
    }
  ],
  "bytecode": "0x60806040526001600860006101000a81548160ff021916908360ff1602179055506000600960146101000a81548160ff0219169083151502179055506001600960156101000a81548160ff0219169083151502179055503480156200006357600080fd5b50604051620061f5380380620061f5833981810160405260408110156200008957600080fd5b8101908080519060200190929190805190602001909291905050506040518060400160405280602081526020017f4469676974616c20526573657276652050726f6f66206f66204465706f7369748152506040518060400160405280600681526020017f44522d504f440000000000000000000000000000000000000000000000000000815250816003908051906020019062000128929190620002e4565b50806004908051906020019062000141929190620002e4565b506012600560006101000a81548160ff021916908360ff1602179055505050600062000172620002dc60201b60201c565b905080600560016101000a81548173ffffffffffffffffffffffffffffffffffffffff021916908373ffffffffffffffffffffffffffffffffffffffff1602179055508073ffffffffffffffffffffffffffffffffffffffff16600073ffffffffffffffffffffffffffffffffffffffff167f8be0079c531659141344cd1fd0a4f28419497f9722a3daafe3b4186f6b6457e060405160405180910390a35080600960006101000a81548173ffffffffffffffffffffffffffffffffffffffff021916908373ffffffffffffffffffffffffffffffffffffffff16021790555081600860016101000a81548173ffffffffffffffffffffffffffffffffffffffff021916908373ffffffffffffffffffffffffffffffffffffffff16021790555081600a60006101000a81548173ffffffffffffffffffffffffffffffffffffffff021916908373ffffffffffffffffffffffffffffffffffffffff160217905550505062000393565b600033905090565b828054600181600116156101000203166002900490600052602060002090601f016020900481019282601f106200032757805160ff191683800117855562000358565b8280016001018555821562000358579182015b82811115620003575782518255916020019190600101906200033a565b5b5090506200036791906200036b565b5090565b6200039091905b808211156200038c57600081600090555060010162000372565b5090565b90565b615e5280620003a36000396000f3fe608060405234801561001057600080fd5b50600436106101a95760003560e01c8063715018a6116100f9578063b73b9e0d11610097578063dd62ed3e11610071578063dd62ed3e14610893578063df9f85641461090b578063e48e192e1461092f578063f2fde38b14610a1a576101a9565b8063b73b9e0d1461079e578063bb2a9ad7146107ce578063bd80662114610834576101a9565b806395d89b41116100d357806395d89b411461061f578063a457c2d7146106a2578063a47c12b514610708578063a9059cbb14610738576101a9565b8063715018a61461059757806380a35fbb146105a15780638da5cb5b146105d5576101a9565b806339509351116101665780634c183918116101405780634c183918146104525780634cd46f00146104905780636f827c34146104fe57806370a082311461053f576101a9565b8063395093511461037d578063438bacaa146103e357806347e6dece14610414576101a9565b806306fdde03146101ae578063095ea7b31461023157806318160ddd1461029757806318181a9c146102b557806323b872dd146102d3578063313ce56714610359575b600080fd5b6101b6610a5e565b6040518080602001828103825283818151815260200191508051906020019080838360005b838110156101f65780820151818401526020810190506101db565b50505050905090810190601f1680156102235780820380516001836020036101000a031916815260200191505b509250505060405180910390f35b61027d6004803603604081101561024757600080fd5b81019080803573ffffffffffffffffffffffffffffffffffffffff16906020019092919080359060200190929190505050610b00565b604051808215151515815260200191505060405180910390f35b61029f610b1e565b6040518082815260200191505060405180910390f35b6102bd610b28565b6040518082815260200191505060405180910390f35b61033f600480360360608110156102e957600080fd5b81019080803573ffffffffffffffffffffffffffffffffffffffff169060200190929190803573ffffffffffffffffffffffffffffffffffffffff16906020019092919080359060200190929190505050610b88565b604051808215151515815260200191505060405180910390f35b610361610c61565b604051808260ff1660ff16815260200191505060405180910390f35b6103c96004803603604081101561039357600080fd5b81019080803573ffffffffffffffffffffffffffffffffffffffff16906020019092919080359060200190929190505050610c78565b604051808215151515815260200191505060405180910390f35b610412600480360360208110156103f957600080fd5b81019080803560ff169060200190929190505050610d2b565b005b6104506004803603604081101561042a57600080fd5b8101908080359060200190929190803563ffffffff169060200190929190505050610e24565b005b61048e6004803603604081101561046857600080fd5b8101908080359060200190929190803563ffffffff16906020019092919050505061131c565b005b6104bc600480360360208110156104a657600080fd5b81019080803590602001909291905050506113c6565b604051808273ffffffffffffffffffffffffffffffffffffffff1673ffffffffffffffffffffffffffffffffffffffff16815260200191505060405180910390f35b61053d6004803603604081101561051457600080fd5b81019080803560ff169060200190929190803563ffffffff169060200190929190505050611402565b005b6105816004803603602081101561055557600080fd5b81019080803573ffffffffffffffffffffffffffffffffffffffff169060200190929190505050611470565b6040518082815260200191505060405180910390f35b61059f6114b8565b005b6105d3600480360360208110156105b757600080fd5b81019080803563ffffffff169060200190929190505050611643565b005b6105dd611ac0565b604051808273ffffffffffffffffffffffffffffffffffffffff1673ffffffffffffffffffffffffffffffffffffffff16815260200191505060405180910390f35b610627611aea565b6040518080602001828103825283818151815260200191508051906020019080838360005b8381101561066757808201518184015260208101905061064c565b50505050905090810190601f1680156106945780820380516001836020036101000a031916815260200191505b509250505060405180910390f35b6106ee600480360360408110156106b857600080fd5b81019080803573ffffffffffffffffffffffffffffffffffffffff16906020019092919080359060200190929190505050611b8c565b604051808215151515815260200191505060405180910390f35b6107366004803603602081101561071e57600080fd5b81019080803515159060200190929190505050611c59565b005b6107846004803603604081101561074e57600080fd5b81019080803573ffffffffffffffffffffffffffffffffffffffff16906020019092919080359060200190929190505050611d40565b604051808215151515815260200191505060405180910390f35b6107cc600480360360208110156107b457600080fd5b81019080803515159060200190929190505050611d5e565b005b610810600480360360208110156107e457600080fd5b81019080803573ffffffffffffffffffffffffffffffffffffffff169060200190929190505050611e45565b60405180848152602001838152602001828152602001935050505060405180910390f35b61083c611f4b565b6040518080602001828103825283818151815260200191508051906020019060200280838360005b8381101561087f578082015181840152602081019050610864565b505050509050019250505060405180910390f35b6108f5600480360360408110156108a957600080fd5b81019080803573ffffffffffffffffffffffffffffffffffffffff169060200190929190803573ffffffffffffffffffffffffffffffffffffffff1690602001909291905050506120d7565b6040518082815260200191505060405180910390f35b61091361215e565b604051808260ff1660ff16815260200191505060405180910390f35b610a186004803603608081101561094557600080fd5b810190808035906020019064010000000081111561096257600080fd5b82018360208201111561097457600080fd5b8035906020019184602083028401116401000000008311171561099657600080fd5b9091929391929390803590602001906401000000008111156109b757600080fd5b8201836020820111156109c957600080fd5b803590602001918460208302840111640100000000831117156109eb57600080fd5b9091929391929390803560ff169060200190929190803563ffffffff169060200190929190505050612171565b005b610a5c60048036036020811015610a3057600080fd5b81019080803573ffffffffffffffffffffffffffffffffffffffff169060200190929190505050612857565b005b606060038054600181600116156101000203166002900480601f016020809104026020016040519081016040528092919081815260200182805460018160011615610100020316600290048015610af65780601f10610acb57610100808354040283529160200191610af6565b820191906000526020600020905b815481529060010190602001808311610ad957829003601f168201915b5050505050905090565b6000610b14610b0d612a67565b8484612a6f565b6001905092915050565b6000600254905090565b6000806000610b35610b1e565b1115610b8157610b7e610b46610b1e565b610b70670de0b6b3a7640000610b62610b5d611f4b565b612c66565b612e8b90919063ffffffff16565b612f1190919063ffffffff16565b90505b8091505090565b6000610b95848484612f5b565b610c5684610ba1612a67565b610c5185604051806060016040528060288152602001615d0660289139600160008b73ffffffffffffffffffffffffffffffffffffffff1673ffffffffffffffffffffffffffffffffffffffff1681526020019081526020016000206000610c07612a67565b73ffffffffffffffffffffffffffffffffffffffff1673ffffffffffffffffffffffffffffffffffffffff1681526020019081526020016000205461321c9092919063ffffffff16565b612a6f565b600190509392505050565b6000600560009054906101000a900460ff16905090565b6000610d21610c85612a67565b84610d1c8560016000610c96612a67565b73ffffffffffffffffffffffffffffffffffffffff1673ffffffffffffffffffffffffffffffffffffffff16815260200190815260200160002060008973ffffffffffffffffffffffffffffffffffffffff1673ffffffffffffffffffffffffffffffffffffffff168152602001908152602001600020546132dc90919063ffffffff16565b612a6f565b6001905092915050565b610d33612a67565b73ffffffffffffffffffffffffffffffffffffffff16600560019054906101000a900473ffffffffffffffffffffffffffffffffffffffff1673ffffffffffffffffffffffffffffffffffffffff1614610df5576040517f08c379a00000000000000000000000000000000000000000000000000000000081526004018080602001828103825260208152602001807f4f776e61626c653a2063616c6c6572206973206e6f7420746865206f776e657281525060200191505060405180910390fd5b60648160ff161115610e0657600080fd5b80600860006101000a81548160ff021916908360ff16021790555050565b600960149054906101000a900460ff16610e3d57600080fd5b81600960009054906101000a900473ffffffffffffffffffffffffffffffffffffffff1673ffffffffffffffffffffffffffffffffffffffff166370a08231336040518263ffffffff1660e01b8152600401808273ffffffffffffffffffffffffffffffffffffffff1673ffffffffffffffffffffffffffffffffffffffff16815260200191505060206040518083038186803b158015610edd57600080fd5b505afa158015610ef1573d6000803e3d6000fd5b505050506040513d6020811015610f0757600080fd5b81019080805190602001909291905050501015610f2357600080fd5b81600960009054906101000a900473ffffffffffffffffffffffffffffffffffffffff1673ffffffffffffffffffffffffffffffffffffffff1663dd62ed3e33306040518363ffffffff1660e01b8152600401808373ffffffffffffffffffffffffffffffffffffffff1673ffffffffffffffffffffffffffffffffffffffff1681526020018273ffffffffffffffffffffffffffffffffffffffff1673ffffffffffffffffffffffffffffffffffffffff1681526020019250505060206040518083038186803b158015610ff757600080fd5b505afa15801561100b573d6000803e3d6000fd5b505050506040513d602081101561102157600080fd5b8101908080519060200190929190505050101561103d57600080fd5b61106b600960009054906101000a900473ffffffffffffffffffffffffffffffffffffffff16333085613364565b6000611075610b28565b90506110a483600960009054906101000a900473ffffffffffffffffffffffffffffffffffffffff1684613451565b611207600a60009054906101000a900473ffffffffffffffffffffffffffffffffffffffff1673ffffffffffffffffffffffffffffffffffffffff1663ad5c46486040518163ffffffff1660e01b815260040160206040518083038186803b15801561110f57600080fd5b505afa158015611123573d6000803e3d6000fd5b505050506040513d602081101561113957600080fd5b810190808051906020019092919050505073ffffffffffffffffffffffffffffffffffffffff166370a08231306040518263ffffffff1660e01b8152600401808273ffffffffffffffffffffffffffffffffffffffff1673ffffffffffffffffffffffffffffffffffffffff16815260200191505060206040518083038186803b1580156111c657600080fd5b505afa1580156111da573d6000803e3d6000fd5b505050506040513d60208110156111f057600080fd5b810190808051906020019092919050505083613a6c565b60008090506000611216610b1e565b141561123d5761123666038d7ea4c6800085612e8b90919063ffffffff16565b90506112a1565b600061124f61124a611f4b565b612c66565b9050600061128084611272670de0b6b3a764000085612e8b90919063ffffffff16565b612f1190919063ffffffff16565b905061129c61128d610b1e565b82613b9a90919063ffffffff16565b925050505b6112ab3382613be4565b7fe1fffcc4923d04b559f4d29a8bfc6cda04eb5b0d3c460751c2402c5c5cc9109c3385604051808373ffffffffffffffffffffffffffffffffffffffff1673ffffffffffffffffffffffffffffffffffffffff1681526020018281526020019250505060405180910390a150505050565b600960159054906101000a900460ff1661133557600080fd5b600061134033611e45565b509150508281101561135157600080fd5b600061137d8261136f6402540be40087612e8b90919063ffffffff16565b612f1190919063ffffffff16565b905060006113b36402540be4006113a58461139733611470565b612e8b90919063ffffffff16565b612f1190919063ffffffff16565b90506113bf8185613dab565b5050505050565b600681815481106113d357fe5b906000526020600020016000915054906101000a900473ffffffffffffffffffffffffffffffffffffffff1681565b600960159054906101000a900460ff1661141b57600080fd5b60648260ff16111561142c57600080fd5b600061145f60646114518560ff1661144333611470565b612e8b90919063ffffffff16565b612f1190919063ffffffff16565b905061146b8183613dab565b505050565b60008060008373ffffffffffffffffffffffffffffffffffffffff1673ffffffffffffffffffffffffffffffffffffffff168152602001908152602001600020549050919050565b6114c0612a67565b73ffffffffffffffffffffffffffffffffffffffff16600560019054906101000a900473ffffffffffffffffffffffffffffffffffffffff1673ffffffffffffffffffffffffffffffffffffffff1614611582576040517f08c379a00000000000000000000000000000000000000000000000000000000081526004018080602001828103825260208152602001807f4f776e61626c653a2063616c6c6572206973206e6f7420746865206f776e657281525060200191505060405180910390fd5b600073ffffffffffffffffffffffffffffffffffffffff16600560019054906101000a900473ffffffffffffffffffffffffffffffffffffffff1673ffffffffffffffffffffffffffffffffffffffff167f8be0079c531659141344cd1fd0a4f28419497f9722a3daafe3b4186f6b6457e060405160405180910390a36000600560016101000a81548173ffffffffffffffffffffffffffffffffffffffff021916908373ffffffffffffffffffffffffffffffffffffffff160217905550565b61164b612a67565b73ffffffffffffffffffffffffffffffffffffffff16600560019054906101000a900473ffffffffffffffffffffffffffffffffffffffff1673ffffffffffffffffffffffffffffffffffffffff161461170d576040517f08c379a00000000000000000000000000000000000000000000000000000000081526004018080602001828103825260208152602001807f4f776e61626c653a2063616c6c6572206973206e6f7420746865206f776e657281525060200191505060405180910390fd5b6000600560159054906101000a900460ff1660ff161161172c57600080fd5b6060600560159054906101000a900460ff1660ff1660405190808252806020026020018201604052801561176f5781602001602082028038833980820191505090505b50905060008090505b600560159054906101000a900460ff1660ff168160ff161015611852576007600060068360ff16815481106117a957fe5b9060005260206000200160009054906101000a900473ffffffffffffffffffffffffffffffffffffffff1673ffffffffffffffffffffffffffffffffffffffff1673ffffffffffffffffffffffffffffffffffffffff16815260200190815260200160002060009054906101000a900460ff16828260ff168151811061182b57fe5b602002602001018181510191509060ff16908160ff16815250508080600101915050611778565b507fb32bb5a705a3fe2dcd1ccb4c9d06b92fec03383d384acf8bfbc4e376db590d5160068260405180806020018060200183810383528581815481526020019150805480156118f657602002820191906000526020600020905b8160009054906101000a900473ffffffffffffffffffffffffffffffffffffffff1673ffffffffffffffffffffffffffffffffffffffff16815260200190600101908083116118ac575b5050838103825284818151815260200191508051906020019060200280838360005b83811015611933578082015181840152602081019050611918565b5050505090500194505050505060405180910390a1611959611953611f4b565b836142a3565b611abc600a60009054906101000a900473ffffffffffffffffffffffffffffffffffffffff1673ffffffffffffffffffffffffffffffffffffffff1663ad5c46486040518163ffffffff1660e01b815260040160206040518083038186803b1580156119c457600080fd5b505afa1580156119d8573d6000803e3d6000fd5b505050506040513d60208110156119ee57600080fd5b810190808051906020019092919050505073ffffffffffffffffffffffffffffffffffffffff166370a08231306040518263ffffffff1660e01b8152600401808273ffffffffffffffffffffffffffffffffffffffff1673ffffffffffffffffffffffffffffffffffffffff16815260200191505060206040518083038186803b158015611a7b57600080fd5b505afa158015611a8f573d6000803e3d6000fd5b505050506040513d6020811015611aa557600080fd5b810190808051906020019092919050505083613a6c565b5050565b6000600560019054906101000a900473ffffffffffffffffffffffffffffffffffffffff16905090565b606060048054600181600116156101000203166002900480601f016020809104026020016040519081016040528092919081815260200182805460018160011615610100020316600290048015611b825780601f10611b5757610100808354040283529160200191611b82565b820191906000526020600020905b815481529060010190602001808311611b6557829003601f168201915b5050505050905090565b6000611c4f611b99612a67565b84611c4a85604051806060016040528060258152602001615df86025913960016000611bc3612a67565b73ffffffffffffffffffffffffffffffffffffffff1673ffffffffffffffffffffffffffffffffffffffff16815260200190815260200160002060008a73ffffffffffffffffffffffffffffffffffffffff1673ffffffffffffffffffffffffffffffffffffffff1681526020019081526020016000205461321c9092919063ffffffff16565b612a6f565b6001905092915050565b611c61612a67565b73ffffffffffffffffffffffffffffffffffffffff16600560019054906101000a900473ffffffffffffffffffffffffffffffffffffffff1673ffffffffffffffffffffffffffffffffffffffff1614611d23576040517f08c379a00000000000000000000000000000000000000000000000000000000081526004018080602001828103825260208152602001807f4f776e61626c653a2063616c6c6572206973206e6f7420746865206f776e657281525060200191505060405180910390fd5b80600960146101000a81548160ff02191690831515021790555050565b6000611d54611d4d612a67565b8484612f5b565b6001905092915050565b611d66612a67565b73ffffffffffffffffffffffffffffffffffffffff16600560019054906101000a900473ffffffffffffffffffffffffffffffffffffffff1673ffffffffffffffffffffffffffffffffffffffff1614611e28576040517f08c379a00000000000000000000000000000000000000000000000000000000081526004018080602001828103825260208152602001807f4f776e61626c653a2063616c6c6572206973206e6f7420746865206f776e657281525060200191505060405180910390fd5b80600960156101000a81548160ff02191690831515021790555050565b600080600080611e87670de0b6b3a7640000611e79611e62610b28565b611e6b89611470565b612e8b90919063ffffffff16565b612f1190919063ffffffff16565b90506000611ec36064611eb5600860009054906101000a900460ff1660ff1685612e8b90919063ffffffff16565b612f1190919063ffffffff16565b90506000611ef383600960009054906101000a900473ffffffffffffffffffffffffffffffffffffffff16614333565b90506000611f35611f0d8486613b9a90919063ffffffff16565b600960009054906101000a900473ffffffffffffffffffffffffffffffffffffffff16614333565b9050818184965096509650505050509193909250565b606080600560159054906101000a900460ff1660ff16604051908082528060200260200182016040528015611f8f5781602001602082028038833980820191505090505b50905060008090505b600560159054906101000a900460ff1660ff168160ff1610156120cf5760068160ff1681548110611fc557fe5b9060005260206000200160009054906101000a900473ffffffffffffffffffffffffffffffffffffffff1673ffffffffffffffffffffffffffffffffffffffff166370a08231306040518263ffffffff1660e01b8152600401808273ffffffffffffffffffffffffffffffffffffffff1673ffffffffffffffffffffffffffffffffffffffff16815260200191505060206040518083038186803b15801561206c57600080fd5b505afa158015612080573d6000803e3d6000fd5b505050506040513d602081101561209657600080fd5b8101908080519060200190929190505050828260ff16815181106120b657fe5b6020026020010181815250508080600101915050611f98565b508091505090565b6000600160008473ffffffffffffffffffffffffffffffffffffffff1673ffffffffffffffffffffffffffffffffffffffff16815260200190815260200160002060008373ffffffffffffffffffffffffffffffffffffffff1673ffffffffffffffffffffffffffffffffffffffff16815260200190815260200160002054905092915050565b600560159054906101000a900460ff1681565b612179612a67565b73ffffffffffffffffffffffffffffffffffffffff16600560019054906101000a900473ffffffffffffffffffffffffffffffffffffffff1673ffffffffffffffffffffffffffffffffffffffff161461223b576040517f08c379a00000000000000000000000000000000000000000000000000000000081526004018080602001828103825260208152602001807f4f776e61626c653a2063616c6c6572206973206e6f7420746865206f776e657281525060200191505060405180910390fd5b60018260ff16101561224c57600080fd5b8160ff16868690501461225e57600080fd5b8160ff16848490501461227057600080fd5b600080905060008090505b8360ff168160ff1610156122b35785858260ff1681811061229857fe5b9050602002013560ff1682019150808060010191505061227b565b5060648160ff16146122c457600080fd5b6060600560159054906101000a900460ff1660ff166040519080825280602002602001820160405280156123075781602001602082028038833980820191505090505b50905060008090505b600560159054906101000a900460ff1660ff168160ff16101561246d576007600060068360ff168154811061234157fe5b9060005260206000200160009054906101000a900473ffffffffffffffffffffffffffffffffffffffff1673ffffffffffffffffffffffffffffffffffffffff1673ffffffffffffffffffffffffffffffffffffffff16815260200190815260200160002060009054906101000a900460ff16828260ff16815181106123c357fe5b602002602001019060ff16908160ff16815250506007600060068360ff16815481106123eb57fe5b9060005260206000200160009054906101000a900473ffffffffffffffffffffffffffffffffffffffff1673ffffffffffffffffffffffffffffffffffffffff1673ffffffffffffffffffffffffffffffffffffffff16815260200190815260200160002060006101000a81549060ff02191690558080600101915050612310565b507f3e92ff021819876e3929d389ccc560772c36af85773e666546da33084b3bdc896006828a8a8a8a604051808060200180602001806020018060200185810385528b818154815260200191508054801561251d57602002820191906000526020600020905b8160009054906101000a900473ffffffffffffffffffffffffffffffffffffffff1673ffffffffffffffffffffffffffffffffffffffff16815260200190600101908083116124d3575b505085810384528a818151815260200191508051906020019060200280838360005b8381101561255a57808201518184015260208101905061253f565b505050509050018581038352898982818152602001925060200280828437600081840152601f19601f8201169050808301925050508581038252878782818152602001925060200280828437600081840152601f19601f8201169050808301925050509a505050505050505050505060405180910390a16125e26125dc611f4b565b846142a3565b8787600691906125f3929190615b28565b5083600560156101000a81548160ff021916908360ff16021790555060008090505b600560159054906101000a900460ff1660ff168160ff1610156126e95786868260ff1681811061264157fe5b9050602002013560ff166007600060068460ff168154811061265f57fe5b9060005260206000200160009054906101000a900473ffffffffffffffffffffffffffffffffffffffff1673ffffffffffffffffffffffffffffffffffffffff1673ffffffffffffffffffffffffffffffffffffffff16815260200190815260200160002060006101000a81548160ff021916908360ff1602179055508080600101915050612615565b5061284d600a60009054906101000a900473ffffffffffffffffffffffffffffffffffffffff1673ffffffffffffffffffffffffffffffffffffffff1663ad5c46486040518163ffffffff1660e01b815260040160206040518083038186803b15801561275557600080fd5b505afa158015612769573d6000803e3d6000fd5b505050506040513d602081101561277f57600080fd5b810190808051906020019092919050505073ffffffffffffffffffffffffffffffffffffffff166370a08231306040518263ffffffff1660e01b8152600401808273ffffffffffffffffffffffffffffffffffffffff1673ffffffffffffffffffffffffffffffffffffffff16815260200191505060206040518083038186803b15801561280c57600080fd5b505afa158015612820573d6000803e3d6000fd5b505050506040513d602081101561283657600080fd5b810190808051906020019092919050505084613a6c565b5050505050505050565b61285f612a67565b73ffffffffffffffffffffffffffffffffffffffff16600560019054906101000a900473ffffffffffffffffffffffffffffffffffffffff1673ffffffffffffffffffffffffffffffffffffffff1614612921576040517f08c379a00000000000000000000000000000000000000000000000000000000081526004018080602001828103825260208152602001807f4f776e61626c653a2063616c6c6572206973206e6f7420746865206f776e657281525060200191505060405180910390fd5b600073ffffffffffffffffffffffffffffffffffffffff168173ffffffffffffffffffffffffffffffffffffffff1614156129a7576040517f08c379a0000000000000000000000000000000000000000000000000000000008152600401808060200182810382526026815260200180615c516026913960400191505060405180910390fd5b8073ffffffffffffffffffffffffffffffffffffffff16600560019054906101000a900473ffffffffffffffffffffffffffffffffffffffff1673ffffffffffffffffffffffffffffffffffffffff167f8be0079c531659141344cd1fd0a4f28419497f9722a3daafe3b4186f6b6457e060405160405180910390a380600560016101000a81548173ffffffffffffffffffffffffffffffffffffffff021916908373ffffffffffffffffffffffffffffffffffffffff16021790555050565b600033905090565b600073ffffffffffffffffffffffffffffffffffffffff168373ffffffffffffffffffffffffffffffffffffffff161415612af5576040517f08c379a0000000000000000000000000000000000000000000000000000000008152600401808060200182810382526024815260200180615d746024913960400191505060405180910390fd5b600073ffffffffffffffffffffffffffffffffffffffff168273ffffffffffffffffffffffffffffffffffffffff161415612b7b576040517f08c379a0000000000000000000000000000000000000000000000000000000008152600401808060200182810382526022815260200180615c776022913960400191505060405180910390fd5b80600160008573ffffffffffffffffffffffffffffffffffffffff1673ffffffffffffffffffffffffffffffffffffffff16815260200190815260200160002060008473ffffffffffffffffffffffffffffffffffffffff1673ffffffffffffffffffffffffffffffffffffffff168152602001908152602001600020819055508173ffffffffffffffffffffffffffffffffffffffff168373ffffffffffffffffffffffffffffffffffffffff167f8c5be1e5ebec7d5bd14f71427d1e84f3dd0314c0f7b2291e5b200ac8c7c3b925836040518082815260200191505060405180910390a3505050565b60008060606002604051908082528060200260200182016040528015612c9b5781602001602082028038833980820191505090505b509050600a60009054906101000a900473ffffffffffffffffffffffffffffffffffffffff1673ffffffffffffffffffffffffffffffffffffffff1663ad5c46486040518163ffffffff1660e01b815260040160206040518083038186803b158015612d0657600080fd5b505afa158015612d1a573d6000803e3d6000fd5b505050506040513d6020811015612d3057600080fd5b810190808051906020019092919050505081600181518110612d4e57fe5b602002602001019073ffffffffffffffffffffffffffffffffffffffff16908173ffffffffffffffffffffffffffffffffffffffff168152505060008090505b600560159054906101000a900460ff1660ff168160ff161015612e8057600060068260ff1681548110612dbd57fe5b9060005260206000200160009054906101000a900473ffffffffffffffffffffffffffffffffffffffff1690508083600081518110612df857fe5b602002602001019073ffffffffffffffffffffffffffffffffffffffff16908173ffffffffffffffffffffffffffffffffffffffff16815250506000868360ff1681518110612e4357fe5b602002602001015190506000612e5982846146bb565b9050612e6e81876132dc90919063ffffffff16565b95505050508080600101915050612d8e565b508192505050919050565b600080831415612e9e5760009050612f0b565b6000828402905082848281612eaf57fe5b0414612f06576040517f08c379a0000000000000000000000000000000000000000000000000000000008152600401808060200182810382526021815260200180615ce56021913960400191505060405180910390fd5b809150505b92915050565b6000612f5383836040518060400160405280601a81526020017f536166654d6174683a206469766973696f6e206279207a65726f000000000000815250614a43565b905092915050565b600073ffffffffffffffffffffffffffffffffffffffff168373ffffffffffffffffffffffffffffffffffffffff161415612fe1576040517f08c379a0000000000000000000000000000000000000000000000000000000008152600401808060200182810382526025815260200180615d4f6025913960400191505060405180910390fd5b600073ffffffffffffffffffffffffffffffffffffffff168273ffffffffffffffffffffffffffffffffffffffff161415613067576040517f08c379a0000000000000000000000000000000000000000000000000000000008152600401808060200182810382526023815260200180615c0c6023913960400191505060405180910390fd5b613072838383614b09565b6130dd81604051806060016040528060268152602001615c99602691396000808773ffffffffffffffffffffffffffffffffffffffff1673ffffffffffffffffffffffffffffffffffffffff1681526020019081526020016000205461321c9092919063ffffffff16565b6000808573ffffffffffffffffffffffffffffffffffffffff1673ffffffffffffffffffffffffffffffffffffffff16815260200190815260200160002081905550613170816000808573ffffffffffffffffffffffffffffffffffffffff1673ffffffffffffffffffffffffffffffffffffffff168152602001908152602001600020546132dc90919063ffffffff16565b6000808473ffffffffffffffffffffffffffffffffffffffff1673ffffffffffffffffffffffffffffffffffffffff168152602001908152602001600020819055508173ffffffffffffffffffffffffffffffffffffffff168373ffffffffffffffffffffffffffffffffffffffff167fddf252ad1be2c89b69c2b068fc378daa952ba7f163c4a11628f55a4df523b3ef836040518082815260200191505060405180910390a3505050565b60008383111582906132c9576040517f08c379a00000000000000000000000000000000000000000000000000000000081526004018080602001828103825283818151815260200191508051906020019080838360005b8381101561328e578082015181840152602081019050613273565b50505050905090810190601f1680156132bb5780820380516001836020036101000a031916815260200191505b509250505060405180910390fd5b5060008385039050809150509392505050565b60008082840190508381101561335a576040517f08c379a000000000000000000000000000000000000000000000000000000000815260040180806020018281038252601b8152602001807f536166654d6174683a206164646974696f6e206f766572666c6f77000000000081525060200191505060405180910390fd5b8091505092915050565b61344b846323b872dd60e01b858585604051602401808473ffffffffffffffffffffffffffffffffffffffff1673ffffffffffffffffffffffffffffffffffffffff1681526020018373ffffffffffffffffffffffffffffffffffffffff1673ffffffffffffffffffffffffffffffffffffffff1681526020018281526020019350505050604051602081830303815290604052907bffffffffffffffffffffffffffffffffffffffffffffffffffffffff19166020820180517bffffffffffffffffffffffffffffffffffffffffffffffffffffffff8381831617835250505050614b0e565b50505050565b600a60009054906101000a900473ffffffffffffffffffffffffffffffffffffffff1673ffffffffffffffffffffffffffffffffffffffff1663ad5c46486040518163ffffffff1660e01b815260040160206040518083038186803b1580156134b957600080fd5b505afa1580156134cd573d6000803e3d6000fd5b505050506040513d60208110156134e357600080fd5b810190808051906020019092919050505073ffffffffffffffffffffffffffffffffffffffff168273ffffffffffffffffffffffffffffffffffffffff1614158015613530575060008314155b15613a6757606060026040519080825280602002602001820160405280156135675781602001602082028038833980820191505090505b509050828160008151811061357857fe5b602002602001019073ffffffffffffffffffffffffffffffffffffffff16908173ffffffffffffffffffffffffffffffffffffffff1681525050600a60009054906101000a900473ffffffffffffffffffffffffffffffffffffffff1673ffffffffffffffffffffffffffffffffffffffff1663ad5c46486040518163ffffffff1660e01b815260040160206040518083038186803b15801561361a57600080fd5b505afa15801561362e573d6000803e3d6000fd5b505050506040513d602081101561364457600080fd5b81019080805190602001909291905050508160018151811061366257fe5b602002602001019073ffffffffffffffffffffffffffffffffffffffff16908173ffffffffffffffffffffffffffffffffffffffff16815250506136dd816000815181106136ac57fe5b6020026020010151600860019054906101000a900473ffffffffffffffffffffffffffffffffffffffff1686614bfd565b6000600a60009054906101000a900473ffffffffffffffffffffffffffffffffffffffff1673ffffffffffffffffffffffffffffffffffffffff1663d06ca61f86846040518363ffffffff1660e01b81526004018083815260200180602001828103825283818151815260200191508051906020019060200280838360005b8381101561377757808201518184015260208101905061375c565b50505050905001935050505060006040518083038186803b15801561379b57600080fd5b505afa1580156137af573d6000803e3d6000fd5b505050506040513d6000823e3d601f19601f8201168201806040525060208110156137d957600080fd5b81019080805160405193929190846401000000008211156137f957600080fd5b8382019150602082018581111561380f57600080fd5b825186602082028301116401000000008211171561382c57600080fd5b8083526020830192505050908051906020019060200280838360005b83811015613863578082015181840152602081019050613848565b5050505090500160405250505060018151811061387c57fe5b60200260200101519050600a60009054906101000a900473ffffffffffffffffffffffffffffffffffffffff1673ffffffffffffffffffffffffffffffffffffffff166338ed173986838530886040518663ffffffff1660e01b815260040180868152602001858152602001806020018473ffffffffffffffffffffffffffffffffffffffff1673ffffffffffffffffffffffffffffffffffffffff1681526020018363ffffffff168152602001828103825285818151815260200191508051906020019060200280838360005b8381101561396557808201518184015260208101905061394a565b505050509050019650505050505050600060405180830381600087803b15801561398e57600080fd5b505af11580156139a2573d6000803e3d6000fd5b505050506040513d6000823e3d601f19601f8201168201806040525060208110156139cc57600080fd5b81019080805160405193929190846401000000008211156139ec57600080fd5b83820191506020820185811115613a0257600080fd5b8251866020820283011164010000000082111715613a1f57600080fd5b8083526020830192505050908051906020019060200280838360005b83811015613a56578082015181840152602081019050613a3b565b505050509050016040525050505050505b505050565b60008090505b600560159054906101000a900460ff1660ff168160ff161015613b95576000613b406064613b326007600060068760ff1681548110613aad57fe5b9060005260206000200160009054906101000a900473ffffffffffffffffffffffffffffffffffffffff1673ffffffffffffffffffffffffffffffffffffffff1673ffffffffffffffffffffffffffffffffffffffff16815260200190815260200160002060009054906101000a900460ff1660ff1687612e8b90919063ffffffff16565b612f1190919063ffffffff16565b9050613b878160068460ff1681548110613b5657fe5b9060005260206000200160009054906101000a900473ffffffffffffffffffffffffffffffffffffffff1685614e04565b508080600101915050613a72565b505050565b6000613bdc83836040518060400160405280601e81526020017f536166654d6174683a207375627472616374696f6e206f766572666c6f77000081525061321c565b905092915050565b600073ffffffffffffffffffffffffffffffffffffffff168273ffffffffffffffffffffffffffffffffffffffff161415613c87576040517f08c379a000000000000000000000000000000000000000000000000000000000815260040180806020018281038252601f8152602001807f45524332303a206d696e7420746f20746865207a65726f20616464726573730081525060200191505060405180910390fd5b613c9360008383614b09565b613ca8816002546132dc90919063ffffffff16565b600281905550613cff816000808573ffffffffffffffffffffffffffffffffffffffff1673ffffffffffffffffffffffffffffffffffffffff168152602001908152602001600020546132dc90919063ffffffff16565b6000808473ffffffffffffffffffffffffffffffffffffffff1673ffffffffffffffffffffffffffffffffffffffff168152602001908152602001600020819055508173ffffffffffffffffffffffffffffffffffffffff16600073ffffffffffffffffffffffffffffffffffffffff167fddf252ad1be2c89b69c2b068fc378daa952ba7f163c4a11628f55a4df523b3ef836040518082815260200191505060405180910390a35050565b6060600560159054906101000a900460ff1660ff16604051908082528060200260200182016040528015613dee5781602001602082028038833980820191505090505b509050613dfa8361541f565b9050613e06338461560c565b613e1081836142a3565b6000600a60009054906101000a900473ffffffffffffffffffffffffffffffffffffffff1673ffffffffffffffffffffffffffffffffffffffff1663ad5c46486040518163ffffffff1660e01b815260040160206040518083038186803b158015613e7a57600080fd5b505afa158015613e8e573d6000803e3d6000fd5b505050506040513d6020811015613ea457600080fd5b810190808051906020019092919050505073ffffffffffffffffffffffffffffffffffffffff166370a08231306040518263ffffffff1660e01b8152600401808273ffffffffffffffffffffffffffffffffffffffff1673ffffffffffffffffffffffffffffffffffffffff16815260200191505060206040518083038186803b158015613f3157600080fd5b505afa158015613f45573d6000803e3d6000fd5b505050506040513d6020811015613f5b57600080fd5b810190808051906020019092919050505090506000613fa86064613f9a600860009054906101000a900460ff1660ff1685612e8b90919063ffffffff16565b612f1190919063ffffffff16565b9050613fe9613fc08284613b9a90919063ffffffff16565b600960009054906101000a900473ffffffffffffffffffffffffffffffffffffffff1686614e04565b6000600a60009054906101000a900473ffffffffffffffffffffffffffffffffffffffff1673ffffffffffffffffffffffffffffffffffffffff1663ad5c46486040518163ffffffff1660e01b815260040160206040518083038186803b15801561405357600080fd5b505afa158015614067573d6000803e3d6000fd5b505050506040513d602081101561407d57600080fd5b810190808051906020019092919050505073ffffffffffffffffffffffffffffffffffffffff166370a08231306040518263ffffffff1660e01b8152600401808273ffffffffffffffffffffffffffffffffffffffff1673ffffffffffffffffffffffffffffffffffffffff16815260200191505060206040518083038186803b15801561410a57600080fd5b505afa15801561411e573d6000803e3d6000fd5b505050506040513d602081101561413457600080fd5b81019080805190602001909291905050509050614174600960009054906101000a900473ffffffffffffffffffffffffffffffffffffffff1633836157d0565b614228600a60009054906101000a900473ffffffffffffffffffffffffffffffffffffffff1673ffffffffffffffffffffffffffffffffffffffff1663ad5c46486040518163ffffffff1660e01b815260040160206040518083038186803b1580156141df57600080fd5b505afa1580156141f3573d6000803e3d6000fd5b505050506040513d602081101561420957600080fd5b8101908080519060200190929190505050614222611ac0565b846157d0565b7ff279e6a1f5e320cca91135676d9cb6e44ca8a08c0b88342bcdb1144f6511b568338284604051808473ffffffffffffffffffffffffffffffffffffffff1673ffffffffffffffffffffffffffffffffffffffff168152602001838152602001828152602001935050505060405180910390a1505050505050565b60008090505b600560159054906101000a900460ff1660ff168160ff16101561432e57614321838260ff16815181106142d857fe5b602002602001015160068360ff16815481106142f057fe5b9060005260206000200160009054906101000a900473ffffffffffffffffffffffffffffffffffffffff1684613451565b80806001019150506142a9565b505050565b6000606060026040519080825280602002602001820160405280156143675781602001602082028038833980820191505090505b509050600a60009054906101000a900473ffffffffffffffffffffffffffffffffffffffff1673ffffffffffffffffffffffffffffffffffffffff1663ad5c46486040518163ffffffff1660e01b815260040160206040518083038186803b1580156143d257600080fd5b505afa1580156143e6573d6000803e3d6000fd5b505050506040513d60208110156143fc57600080fd5b81019080805190602001909291905050508160008151811061441a57fe5b602002602001019073ffffffffffffffffffffffffffffffffffffffff16908173ffffffffffffffffffffffffffffffffffffffff1681525050828160018151811061446257fe5b602002602001019073ffffffffffffffffffffffffffffffffffffffff16908173ffffffffffffffffffffffffffffffffffffffff1681525050806001815181106144a957fe5b602002602001015173ffffffffffffffffffffffffffffffffffffffff16816000815181106144d457fe5b602002602001015173ffffffffffffffffffffffffffffffffffffffff1614158015614501575060008414155b156146b357600a60009054906101000a900473ffffffffffffffffffffffffffffffffffffffff1673ffffffffffffffffffffffffffffffffffffffff1663d06ca61f85836040518363ffffffff1660e01b81526004018083815260200180602001828103825283818151815260200191508051906020019060200280838360005b8381101561459e578082015181840152602081019050614583565b50505050905001935050505060006040518083038186803b1580156145c257600080fd5b505afa1580156145d6573d6000803e3d6000fd5b505050506040513d6000823e3d601f19601f82011682018060405250602081101561460057600080fd5b810190808051604051939291908464010000000082111561462057600080fd5b8382019150602082018581111561463657600080fd5b825186602082028301116401000000008211171561465357600080fd5b8083526020830192505050908051906020019060200280838360005b8381101561468a57808201518184015260208101905061466f565b505050509050016040525050506001815181106146a357fe5b60200260200101519150506146b5565b505b92915050565b6000606060026040519080825280602002602001820160405280156146ef5781602001602082028038833980820191505090505b509050828160008151811061470057fe5b602002602001019073ffffffffffffffffffffffffffffffffffffffff16908173ffffffffffffffffffffffffffffffffffffffff1681525050600a60009054906101000a900473ffffffffffffffffffffffffffffffffffffffff1673ffffffffffffffffffffffffffffffffffffffff1663ad5c46486040518163ffffffff1660e01b815260040160206040518083038186803b1580156147a257600080fd5b505afa1580156147b6573d6000803e3d6000fd5b505050506040513d60208110156147cc57600080fd5b8101908080519060200190929190505050816001815181106147ea57fe5b602002602001019073ffffffffffffffffffffffffffffffffffffffff16908173ffffffffffffffffffffffffffffffffffffffff16815250508060018151811061483157fe5b602002602001015173ffffffffffffffffffffffffffffffffffffffff168160008151811061485c57fe5b602002602001015173ffffffffffffffffffffffffffffffffffffffff1614158015614889575060008414155b15614a3b57600a60009054906101000a900473ffffffffffffffffffffffffffffffffffffffff1673ffffffffffffffffffffffffffffffffffffffff1663d06ca61f85836040518363ffffffff1660e01b81526004018083815260200180602001828103825283818151815260200191508051906020019060200280838360005b8381101561492657808201518184015260208101905061490b565b50505050905001935050505060006040518083038186803b15801561494a57600080fd5b505afa15801561495e573d6000803e3d6000fd5b505050506040513d6000823e3d601f19601f82011682018060405250602081101561498857600080fd5b81019080805160405193929190846401000000008211156149a857600080fd5b838201915060208201858111156149be57600080fd5b82518660208202830111640100000000821117156149db57600080fd5b8083526020830192505050908051906020019060200280838360005b83811015614a125780820151818401526020810190506149f7565b50505050905001604052505050600181518110614a2b57fe5b6020026020010151915050614a3d565b505b92915050565b60008083118290614aef576040517f08c379a00000000000000000000000000000000000000000000000000000000081526004018080602001828103825283818151815260200191508051906020019080838360005b83811015614ab4578082015181840152602081019050614a99565b50505050905090810190601f168015614ae15780820380516001836020036101000a031916815260200191505b509250505060405180910390fd5b506000838581614afb57fe5b049050809150509392505050565b505050565b6060614b70826040518060400160405280602081526020017f5361666545524332303a206c6f772d6c6576656c2063616c6c206661696c65648152508573ffffffffffffffffffffffffffffffffffffffff166158889092919063ffffffff16565b9050600081511115614bf857808060200190516020811015614b9157600080fd5b8101908080519060200190929190505050614bf7576040517f08c379a000000000000000000000000000000000000000000000000000000000815260040180806020018281038252602a815260200180615d98602a913960400191505060405180910390fd5b5b505050565b6000811480614cf7575060008373ffffffffffffffffffffffffffffffffffffffff1663dd62ed3e30856040518363ffffffff1660e01b8152600401808373ffffffffffffffffffffffffffffffffffffffff1673ffffffffffffffffffffffffffffffffffffffff1681526020018273ffffffffffffffffffffffffffffffffffffffff1673ffffffffffffffffffffffffffffffffffffffff1681526020019250505060206040518083038186803b158015614cba57600080fd5b505afa158015614cce573d6000803e3d6000fd5b505050506040513d6020811015614ce457600080fd5b8101908080519060200190929190505050145b614d4c576040517f08c379a0000000000000000000000000000000000000000000000000000000008152600401808060200182810382526036815260200180615dc26036913960400191505060405180910390fd5b614dff8363095ea7b360e01b8484604051602401808373ffffffffffffffffffffffffffffffffffffffff1673ffffffffffffffffffffffffffffffffffffffff16815260200182815260200192505050604051602081830303815290604052907bffffffffffffffffffffffffffffffffffffffffffffffffffffffff19166020820180517bffffffffffffffffffffffffffffffffffffffffffffffffffffffff8381831617835250505050614b0e565b505050565b600a60009054906101000a900473ffffffffffffffffffffffffffffffffffffffff1673ffffffffffffffffffffffffffffffffffffffff1663ad5c46486040518163ffffffff1660e01b815260040160206040518083038186803b158015614e6c57600080fd5b505afa158015614e80573d6000803e3d6000fd5b505050506040513d6020811015614e9657600080fd5b810190808051906020019092919050505073ffffffffffffffffffffffffffffffffffffffff168273ffffffffffffffffffffffffffffffffffffffff1614158015614ee3575060008314155b1561541a5760606002604051908082528060200260200182016040528015614f1a5781602001602082028038833980820191505090505b509050600a60009054906101000a900473ffffffffffffffffffffffffffffffffffffffff1673ffffffffffffffffffffffffffffffffffffffff1663ad5c46486040518163ffffffff1660e01b815260040160206040518083038186803b158015614f8557600080fd5b505afa158015614f99573d6000803e3d6000fd5b505050506040513d6020811015614faf57600080fd5b810190808051906020019092919050505081600081518110614fcd57fe5b602002602001019073ffffffffffffffffffffffffffffffffffffffff16908173ffffffffffffffffffffffffffffffffffffffff1681525050828160018151811061501557fe5b602002602001019073ffffffffffffffffffffffffffffffffffffffff16908173ffffffffffffffffffffffffffffffffffffffff16815250506150908160008151811061505f57fe5b6020026020010151600860019054906101000a900473ffffffffffffffffffffffffffffffffffffffff1686614bfd565b6000600a60009054906101000a900473ffffffffffffffffffffffffffffffffffffffff1673ffffffffffffffffffffffffffffffffffffffff1663d06ca61f86846040518363ffffffff1660e01b81526004018083815260200180602001828103825283818151815260200191508051906020019060200280838360005b8381101561512a57808201518184015260208101905061510f565b50505050905001935050505060006040518083038186803b15801561514e57600080fd5b505afa158015615162573d6000803e3d6000fd5b505050506040513d6000823e3d601f19601f82011682018060405250602081101561518c57600080fd5b81019080805160405193929190846401000000008211156151ac57600080fd5b838201915060208201858111156151c257600080fd5b82518660208202830111640100000000821117156151df57600080fd5b8083526020830192505050908051906020019060200280838360005b838110156152165780820151818401526020810190506151fb565b5050505090500160405250505060018151811061522f57fe5b60200260200101519050600a60009054906101000a900473ffffffffffffffffffffffffffffffffffffffff1673ffffffffffffffffffffffffffffffffffffffff166338ed173986838530886040518663ffffffff1660e01b815260040180868152602001858152602001806020018473ffffffffffffffffffffffffffffffffffffffff1673ffffffffffffffffffffffffffffffffffffffff1681526020018363ffffffff168152602001828103825285818151815260200191508051906020019060200280838360005b838110156153185780820151818401526020810190506152fd565b505050509050019650505050505050600060405180830381600087803b15801561534157600080fd5b505af1158015615355573d6000803e3d6000fd5b505050506040513d6000823e3d601f19601f82011682018060405250602081101561537f57600080fd5b810190808051604051939291908464010000000082111561539f57600080fd5b838201915060208201858111156153b557600080fd5b82518660208202830111640100000000821117156153d257600080fd5b8083526020830192505050908051906020019060200280838360005b838110156154095780820151818401526020810190506153ee565b505050509050016040525050505050505b505050565b606080600560159054906101000a900460ff1660ff166040519080825280602002602001820160405280156154635781602001602082028038833980820191505090505b5090506000615499615473610b1e565b61548b6402540be40087612e8b90919063ffffffff16565b612f1190919063ffffffff16565b905060008090505b600560159054906101000a900460ff1660ff168160ff161015615601576155d96402540be4006155cb8460068560ff16815481106154db57fe5b9060005260206000200160009054906101000a900473ffffffffffffffffffffffffffffffffffffffff1673ffffffffffffffffffffffffffffffffffffffff166370a08231306040518263ffffffff1660e01b8152600401808273ffffffffffffffffffffffffffffffffffffffff1673ffffffffffffffffffffffffffffffffffffffff16815260200191505060206040518083038186803b15801561558257600080fd5b505afa158015615596573d6000803e3d6000fd5b505050506040513d60208110156155ac57600080fd5b8101908080519060200190929190505050612e8b90919063ffffffff16565b612f1190919063ffffffff16565b838260ff16815181106155e857fe5b60200260200101818152505080806001019150506154a1565b508192505050919050565b600073ffffffffffffffffffffffffffffffffffffffff168273ffffffffffffffffffffffffffffffffffffffff161415615692576040517f08c379a0000000000000000000000000000000000000000000000000000000008152600401808060200182810382526021815260200180615d2e6021913960400191505060405180910390fd5b61569e82600083614b09565b61570981604051806060016040528060228152602001615c2f602291396000808673ffffffffffffffffffffffffffffffffffffffff1673ffffffffffffffffffffffffffffffffffffffff1681526020019081526020016000205461321c9092919063ffffffff16565b6000808473ffffffffffffffffffffffffffffffffffffffff1673ffffffffffffffffffffffffffffffffffffffff1681526020019081526020016000208190555061576081600254613b9a90919063ffffffff16565b600281905550600073ffffffffffffffffffffffffffffffffffffffff168273ffffffffffffffffffffffffffffffffffffffff167fddf252ad1be2c89b69c2b068fc378daa952ba7f163c4a11628f55a4df523b3ef836040518082815260200191505060405180910390a35050565b6158838363a9059cbb60e01b8484604051602401808373ffffffffffffffffffffffffffffffffffffffff1673ffffffffffffffffffffffffffffffffffffffff16815260200182815260200192505050604051602081830303815290604052907bffffffffffffffffffffffffffffffffffffffffffffffffffffffff19166020820180517bffffffffffffffffffffffffffffffffffffffffffffffffffffffff8381831617835250505050614b0e565b505050565b606061589784846000856158a0565b90509392505050565b6060824710156158fb576040517f08c379a0000000000000000000000000000000000000000000000000000000008152600401808060200182810382526026815260200180615cbf6026913960400191505060405180910390fd5b61590485615a49565b615976576040517f08c379a000000000000000000000000000000000000000000000000000000000815260040180806020018281038252601d8152602001807f416464726573733a2063616c6c20746f206e6f6e2d636f6e747261637400000081525060200191505060405180910390fd5b600060608673ffffffffffffffffffffffffffffffffffffffff1685876040518082805190602001908083835b602083106159c657805182526020820191506020810190506020830392506159a3565b6001836020036101000a03801982511681845116808217855250505050505090500191505060006040518083038185875af1925050503d8060008114615a28576040519150601f19603f3d011682016040523d82523d6000602084013e615a2d565b606091505b5091509150615a3d828286615a5c565b92505050949350505050565b600080823b905060008111915050919050565b60608315615a6c57829050615b21565b600083511115615a7f5782518084602001fd5b816040517f08c379a00000000000000000000000000000000000000000000000000000000081526004018080602001828103825283818151815260200191508051906020019080838360005b83811015615ae6578082015181840152602081019050615acb565b50505050905090810190601f168015615b135780820380516001836020036101000a031916815260200191505b509250505060405180910390fd5b9392505050565b828054828255906000526020600020908101928215615bb7579160200282015b82811115615bb657823573ffffffffffffffffffffffffffffffffffffffff168260006101000a81548173ffffffffffffffffffffffffffffffffffffffff021916908373ffffffffffffffffffffffffffffffffffffffff16021790555091602001919060010190615b48565b5b509050615bc49190615bc8565b5090565b615c0891905b80821115615c0457600081816101000a81549073ffffffffffffffffffffffffffffffffffffffff021916905550600101615bce565b5090565b9056fe45524332303a207472616e7366657220746f20746865207a65726f206164647265737345524332303a206275726e20616d6f756e7420657863656564732062616c616e63654f776e61626c653a206e6577206f776e657220697320746865207a65726f206164647265737345524332303a20617070726f766520746f20746865207a65726f206164647265737345524332303a207472616e7366657220616d6f756e7420657863656564732062616c616e6365416464726573733a20696e73756666696369656e742062616c616e636520666f722063616c6c536166654d6174683a206d756c7469706c69636174696f6e206f766572666c6f7745524332303a207472616e7366657220616d6f756e74206578636565647320616c6c6f77616e636545524332303a206275726e2066726f6d20746865207a65726f206164647265737345524332303a207472616e736665722066726f6d20746865207a65726f206164647265737345524332303a20617070726f76652066726f6d20746865207a65726f20616464726573735361666545524332303a204552433230206f7065726174696f6e20646964206e6f7420737563636565645361666545524332303a20617070726f76652066726f6d206e6f6e2d7a65726f20746f206e6f6e2d7a65726f20616c6c6f77616e636545524332303a2064656372656173656420616c6c6f77616e63652062656c6f77207a65726fa2646970667358221220d9fb77d98696df3d4d388ab939650723cb4b4a811acc81cae7d6b61ffdd2e47764736f6c63430006020033",
  "source": "// SPDX-License-Identifier: GPL-3.0-or-later\n\npragma solidity ^0.6.0;\n\nimport \"@openzeppelin/contracts/math/SafeMath.sol\";\nimport \"@openzeppelin/contracts/utils/ReentrancyGuard.sol\";\nimport \"@openzeppelin/contracts/token/ERC20/SafeERC20.sol\";\nimport \"@openzeppelin/contracts/token/ERC20/ERC20.sol\";\nimport \"@openzeppelin/contracts/access/Ownable.sol\";\n\nimport \"./Interfaces/Uniswap/IUniswapV2Router02.sol\";\n\ncontract DigitalReserveERC20 is ERC20, Ownable {\n    using SafeMath for uint256;\n\n    constructor(address _router, address _drcAddress) ERC20(\"Digital Reserve Proof of Deposit\", \"DR-POD\") public {\n        drcAddress = _drcAddress;\n        router = _router;\n        uniswapRouter = IUniswapV2Router02(_router);\n    }\n\n    uint8 public strategyTokenCount;\n    address[] public strategyTokens;\n    mapping(address => uint8) private tokenPercentage;\n    uint8 private feePercentage = 1;\n\n    address private router;\n    address private drcAddress;\n\n    bool private depositEnabled = false;\n    bool private withdrawalEnabled = true;\n\n    IUniswapV2Router02 private uniswapRouter;\n\n    event StrategyChange(address[] oldTokens, uint8[] oldPercentage, address[] newTokens, uint8[] newPercentage);\n    event Rebalance(address[] strategyTokens, uint8[] tokenPercentage);\n    event Deposit(address user, uint256 amount);\n    event Withdraw(address user, uint256 amount, uint256 fees);\n\n    function changeDepositStatus(bool _status) external onlyOwner {\n        depositEnabled = _status;\n    }\n\n    function changeWithdrawalStatus(bool _status) external onlyOwner {\n        withdrawalEnabled = _status;\n    }\n\n    function changeFee(uint8 _feePercentage) external onlyOwner {\n        require(_feePercentage <= 100);\n        feePercentage = _feePercentage;\n    }\n\n    function totalTokenStored() public view returns (uint256[] memory) {\n        uint256[] memory amounts = new uint256[](strategyTokenCount);\n        for (uint8 i = 0; i < strategyTokenCount; i++) {\n            amounts[i] = IERC20(strategyTokens[i]).balanceOf(address(this));\n        }\n        return amounts;\n    }\n\n    function getUserVaultInDrc(address _user) public view returns (uint256, uint256, uint256) {\n        uint256 userVaultWorthInEth = balanceOf(_user).mul(getProofOfDepositPrice()).div(1e18);\n\n        uint256 fees = userVaultWorthInEth.mul(feePercentage).div(100);\n        uint256 drcAmount = _getTokenAmountByEthAmount(userVaultWorthInEth, drcAddress);\n        uint256 drcAmountExcludeFees = _getTokenAmountByEthAmount(userVaultWorthInEth.sub(fees), drcAddress);\n\n        return (drcAmount, drcAmountExcludeFees, fees);\n    }\n\n    function getProofOfDepositPrice() public view returns (uint256) {\n        uint256 proofOfDepositPrice;\n        if (totalSupply() > 0) {\n            proofOfDepositPrice = _getEthAmountByStrategyTokensAmount(totalTokenStored()).mul(1e18).div(totalSupply());\n        }\n        return proofOfDepositPrice;\n    }\n\n    function depositDrc(uint256 _amount, uint32 deadline) external {\n        require(depositEnabled);\n\n        require(IERC20(drcAddress).balanceOf(msg.sender) >= _amount);\n        require(IERC20(drcAddress).allowance(msg.sender, address(this)) >= _amount);\n        SafeERC20.safeTransferFrom(IERC20(drcAddress), msg.sender, address(this), _amount);\n\n        // Get current unit price before adding tokens to vault\n        uint256 currentPodUnitPrice = getProofOfDepositPrice();\n\n        _convertTokenToEth(_amount, drcAddress, deadline);\n        _convertEthToStrategyTokens(IERC20(uniswapRouter.WETH()).balanceOf(address(this)), deadline);\n\n        uint256 podToMint = 0;\n        if (totalSupply() == 0) {\n            podToMint = _amount.mul(1e15);\n        } else {\n            uint256 vaultTotalInEth = _getEthAmountByStrategyTokensAmount(totalTokenStored());\n            uint256 newPodTotal = vaultTotalInEth.mul(1e18).div(currentPodUnitPrice);\n            podToMint = newPodTotal.sub(totalSupply());\n        }\n\n        _mint(msg.sender, podToMint);\n\n        emit Deposit(msg.sender, _amount);\n    }\n\n    function withdrawDrc(uint256 drcAmount, uint32 deadline) external {\n        require(withdrawalEnabled);\n\n        (, uint256 userVaultInDrc, ) = getUserVaultInDrc(msg.sender);\n        require(userVaultInDrc >= drcAmount);\n\n        uint256 amountFraction = drcAmount.mul(1e10).div(userVaultInDrc);\n        uint256 podToBurn = balanceOf(msg.sender).mul(amountFraction).div(1e10);\n        _withdrawProofOfDeposit(podToBurn, deadline);\n    }\n\n    function withdrawPercentage(uint8 percentage, uint32 deadline) external {\n        require(withdrawalEnabled);\n        require(percentage <= 100);\n\n        uint256 podToBurn = balanceOf(msg.sender).mul(percentage).div(100);\n        _withdrawProofOfDeposit(podToBurn, deadline);\n    }\n\n    function changeStrategy(\n        address[] calldata _strategyTokens,\n        uint8[] calldata _tokenPercentage,\n        uint8 _strategyTokenCount,\n        uint32 deadline\n    ) external onlyOwner {\n        require(_strategyTokenCount >= 1);\n        require(_strategyTokens.length == _strategyTokenCount);\n        require(_tokenPercentage.length == _strategyTokenCount);\n\n        uint8 totalPercentage = 0;\n        for (uint8 i = 0; i < _strategyTokenCount; i++) {\n            totalPercentage += _tokenPercentage[i];\n        }\n        require(totalPercentage == 100);\n\n        uint8[] memory oldPercentage = new uint8[](strategyTokenCount);\n        for (uint8 i = 0; i < strategyTokenCount; i++) {\n            oldPercentage[i] = tokenPercentage[strategyTokens[i]];\n            delete tokenPercentage[strategyTokens[i]];\n        }\n\n        emit StrategyChange(strategyTokens, oldPercentage, _strategyTokens, _tokenPercentage);\n\n        // Before mutate strategyTokens, convert current strategy tokens to ETH\n        _convertStrategyTokensToEth(totalTokenStored(), deadline);\n\n        strategyTokens = _strategyTokens;\n        strategyTokenCount = _strategyTokenCount;\n        for (uint8 i = 0; i < strategyTokenCount; i++) {\n            tokenPercentage[strategyTokens[i]] = _tokenPercentage[i];\n        }\n\n        _convertEthToStrategyTokens(IERC20(uniswapRouter.WETH()).balanceOf(address(this)), deadline);\n    }\n\n    function rebalance(uint32 deadline) external onlyOwner {\n        require(strategyTokenCount > 0);\n\n        uint8[] memory percentageArray = new uint8[](strategyTokenCount);\n        for (uint8 i = 0; i < strategyTokenCount; i++) {\n            percentageArray[i] += tokenPercentage[strategyTokens[i]];\n        }\n\n        emit Rebalance(strategyTokens, percentageArray);\n\n        _convertStrategyTokensToEth(totalTokenStored(), deadline);\n        _convertEthToStrategyTokens(IERC20(uniswapRouter.WETH()).balanceOf(address(this)), deadline);\n    }\n\n    function _withdrawProofOfDeposit(uint256 podToBurn, uint32 deadline) private {\n        // get strategy tokens to withdraw by pod to withdraw\n        uint256[] memory strategyTokensToWithdraw = new uint256[](strategyTokenCount);\n        strategyTokensToWithdraw = _getStrateTokensByPodAmount(podToBurn);\n\n        // Reduce user holding by withdrawed amount in pod and strategy tokens\n        _burn(msg.sender, podToBurn);\n\n        _convertStrategyTokensToEth(strategyTokensToWithdraw, deadline);\n        uint256 ethSwapped = IERC20(uniswapRouter.WETH()).balanceOf(address(this));\n        uint256 fees = ethSwapped.mul(feePercentage).div(100);\n\n        _convertEthToToken(ethSwapped.sub(fees), drcAddress, deadline);\n        uint256 drcAmount = IERC20(uniswapRouter.WETH()).balanceOf(address(this));\n        SafeERC20.safeTransfer(IERC20(drcAddress), msg.sender, drcAmount);\n        SafeERC20.safeTransfer(IERC20(uniswapRouter.WETH()), owner(), fees);\n        emit Withdraw(msg.sender, drcAmount, fees);\n    }\n\n    function addTwoArrays(uint256[] memory array1, uint256[] memory array2) private pure returns (uint256[] memory) {\n        uint256[] memory array3 = new uint256[](array1.length);\n        for (uint256 i = 0; i < array1.length; i++) {\n            array3[i] = array1[i].add(array2[i]);\n        }\n        return array3;\n    }\n\n    function subTwoArrays(uint256[] memory array1, uint256[] memory array2) private pure returns (uint256[] memory) {\n        uint256[] memory array3 = new uint256[](array1.length);\n        for (uint256 i = 0; i < array1.length; i++) {\n            array3[i] = array1[i].sub(array2[i]);\n        }\n        return array3;\n    }\n\n    function _getTokenAmountByEthAmount(uint256 _amount, address _tokenAddress) private view returns (uint256) {\n        address[] memory path = new address[](2);\n        path[0] = uniswapRouter.WETH();\n        path[1] = _tokenAddress;\n\n        if (path[0] != path[1] && _amount != 0) {\n            return uniswapRouter.getAmountsOut(_amount, path)[1];\n        }\n    }\n\n    function _getEthAmountByTokenAmount(uint256 _amount, address _tokenAddress) private view returns (uint256) {\n        address[] memory path = new address[](2);\n        path[0] = _tokenAddress;\n        path[1] = uniswapRouter.WETH();\n\n        if (path[0] != path[1] && _amount != 0) {\n            return uniswapRouter.getAmountsOut(_amount, path)[1];\n        }\n    }\n\n    function _getEthAmountByStrategyTokensAmount(uint256[] memory _strategyTokensBalance) private view returns (uint256) {\n        uint256 amountOut;\n        address[] memory path = new address[](2);\n        path[1] = uniswapRouter.WETH();\n\n        for (uint8 i = 0; i < strategyTokenCount; i++) {\n            address tokenAddress = strategyTokens[i];\n            path[0] = tokenAddress;\n            uint256 tokenAmount = _strategyTokensBalance[i];\n            uint256 tokenAmountInEth = _getEthAmountByTokenAmount(tokenAmount, tokenAddress);\n\n            amountOut = amountOut.add(tokenAmountInEth);\n        }\n        return amountOut;\n    }\n\n    function _getStrateTokensByPodAmount(uint256 _amount) private view returns (uint256[] memory) {\n        uint256[] memory strategyTokenAmount = new uint256[](strategyTokenCount);\n\n        uint256 podFraction = _amount.mul(1e10).div(totalSupply());\n        for (uint8 i = 0; i < strategyTokenCount; i++) {\n            strategyTokenAmount[i] = IERC20(strategyTokens[i]).balanceOf(address(this)).mul(podFraction).div(1e10);\n        }\n        return strategyTokenAmount;\n    }\n\n    function _convertTokenToEth(uint256 _amount, address _tokenAddress,uint32 deadline) private {\n        if (_tokenAddress != uniswapRouter.WETH() && _amount != 0) {\n            address[] memory path = new address[](2);\n            path[0] = _tokenAddress;\n            path[1] = uniswapRouter.WETH();\n            SafeERC20.safeApprove(IERC20(path[0]), router, _amount);\n            uint256 amountOut = uniswapRouter.getAmountsOut(_amount, path)[1];\n            uniswapRouter.swapExactTokensForTokens(_amount, amountOut, path, address(this), deadline);\n        }\n    }\n\n    function _convertEthToToken(uint256 _amount, address _tokenAddress, uint32 deadline) private {\n        if (_tokenAddress != uniswapRouter.WETH() && _amount != 0) {\n            address[] memory path = new address[](2);\n            path[0] = uniswapRouter.WETH();\n            path[1] = _tokenAddress;\n            SafeERC20.safeApprove(IERC20(path[0]), router, _amount);\n            uint256 amountOut = uniswapRouter.getAmountsOut(_amount, path)[1];\n            uniswapRouter.swapExactTokensForTokens(_amount, amountOut, path, address(this), deadline);\n        }\n    }\n\n    function _convertEthToStrategyTokens(uint256 amount, uint32 deadline) private {\n        for (uint8 i = 0; i < strategyTokenCount; i++) {\n            uint256 amountToConvert = amount.mul(tokenPercentage[strategyTokens[i]]).div(100);\n            _convertEthToToken(amountToConvert, strategyTokens[i], deadline);\n        }\n    }\n\n    function _convertStrategyTokensToEth(uint256[] memory amountToConvert, uint32 deadline) private {\n        for (uint8 i = 0; i < strategyTokenCount; i++) {\n            _convertTokenToEth(amountToConvert[i], strategyTokens[i], deadline);\n        }\n    }\n}\n",
  "sourcePath": "/Users/fayexue/if-x-github/digital-reserve/contracts/DigitalReserveERC20.sol",
  "compiler": {
    "name": "solc",
    "version": "0.6.2+commit.bacdbe57.Emscripten.clang"
  },
  "schemaVersion": "3.3.3",
  "updatedAt": "2021-01-16T03:09:21.253Z",
  "devdoc": {
    "methods": {
      "allowance(address,address)": {
        "details": "See {IERC20-allowance}."
      },
      "approve(address,uint256)": {
        "details": "See {IERC20-approve}.     * Requirements:     * - `spender` cannot be the zero address."
      },
      "balanceOf(address)": {
        "details": "See {IERC20-balanceOf}."
      },
      "decimals()": {
        "details": "Returns the number of decimals used to get its user representation. For example, if `decimals` equals `2`, a balance of `505` tokens should be displayed to a user as `5,05` (`505 / 10 ** 2`).     * Tokens usually opt for a value of 18, imitating the relationship between Ether and Wei. This is the value {ERC20} uses, unless {_setupDecimals} is called.     * NOTE: This information is only used for _display_ purposes: it in no way affects any of the arithmetic of the contract, including {IERC20-balanceOf} and {IERC20-transfer}."
      },
      "decreaseAllowance(address,uint256)": {
        "details": "Atomically decreases the allowance granted to `spender` by the caller.     * This is an alternative to {approve} that can be used as a mitigation for problems described in {IERC20-approve}.     * Emits an {Approval} event indicating the updated allowance.     * Requirements:     * - `spender` cannot be the zero address. - `spender` must have allowance for the caller of at least `subtractedValue`."
      },
      "increaseAllowance(address,uint256)": {
        "details": "Atomically increases the allowance granted to `spender` by the caller.     * This is an alternative to {approve} that can be used as a mitigation for problems described in {IERC20-approve}.     * Emits an {Approval} event indicating the updated allowance.     * Requirements:     * - `spender` cannot be the zero address."
      },
      "name()": {
        "details": "Returns the name of the token."
      },
      "owner()": {
        "details": "Returns the address of the current owner."
      },
      "renounceOwnership()": {
        "details": "Leaves the contract without owner. It will not be possible to call `onlyOwner` functions anymore. Can only be called by the current owner.     * NOTE: Renouncing ownership will leave the contract without an owner, thereby removing any functionality that is only available to the owner."
      },
      "symbol()": {
        "details": "Returns the symbol of the token, usually a shorter version of the name."
      },
      "totalSupply()": {
        "details": "See {IERC20-totalSupply}."
      },
      "transfer(address,uint256)": {
        "details": "See {IERC20-transfer}.     * Requirements:     * - `recipient` cannot be the zero address. - the caller must have a balance of at least `amount`."
      },
      "transferFrom(address,address,uint256)": {
        "details": "See {IERC20-transferFrom}.     * Emits an {Approval} event indicating the updated allowance. This is not required by the EIP. See the note at the beginning of {ERC20}.     * Requirements:     * - `sender` and `recipient` cannot be the zero address. - `sender` must have a balance of at least `amount`. - the caller must have allowance for ``sender``'s tokens of at least `amount`."
      },
      "transferOwnership(address)": {
        "details": "Transfers ownership of the contract to a new account (`newOwner`). Can only be called by the current owner."
      }
    }
  },
  "userdoc": {
    "methods": {}
  }
}