{
  "contractName": "DigitalReserve",
  "abi": [
    {
      "inputs": [
        {
          "internalType": "address",
          "name": "_router",
          "type": "address"
        },
        {
          "internalType": "address",
          "name": "_drcAddress",
          "type": "address"
        },
        {
          "internalType": "string",
          "name": "_name",
          "type": "string"
        },
        {
          "internalType": "string",
          "name": "_symbol",
          "type": "string"
        }
      ],
      "stateMutability": "nonpayable",
      "type": "constructor"
    },
    {
      "anonymous": false,
      "inputs": [
        {
          "indexed": true,
          "internalType": "address",
          "name": "owner",
          "type": "address"
        },
        {
          "indexed": true,
          "internalType": "address",
          "name": "spender",
          "type": "address"
        },
        {
          "indexed": false,
          "internalType": "uint256",
          "name": "value",
          "type": "uint256"
        }
      ],
      "name": "Approval",
      "type": "event"
    },
    {
      "anonymous": false,
      "inputs": [
        {
          "indexed": true,
          "internalType": "address",
          "name": "user",
          "type": "address"
        },
        {
          "indexed": false,
          "internalType": "uint256",
          "name": "amount",
          "type": "uint256"
        },
        {
          "indexed": false,
          "internalType": "uint256",
          "name": "podMinted",
          "type": "uint256"
        },
        {
          "indexed": false,
          "internalType": "uint256",
          "name": "podTotalSupply",
          "type": "uint256"
        },
        {
          "indexed": false,
          "internalType": "uint256[]",
          "name": "tokensStored",
          "type": "uint256[]"
        }
      ],
      "name": "Deposit",
      "type": "event"
    },
    {
      "anonymous": false,
      "inputs": [
        {
          "indexed": true,
          "internalType": "address",
          "name": "previousOwner",
          "type": "address"
        },
        {
          "indexed": true,
          "internalType": "address",
          "name": "newOwner",
          "type": "address"
        }
      ],
      "name": "OwnershipTransferred",
      "type": "event"
    },
    {
      "anonymous": false,
      "inputs": [
        {
          "indexed": false,
          "internalType": "address[]",
          "name": "strategyTokens",
          "type": "address[]"
        },
        {
          "indexed": false,
          "internalType": "uint8[]",
          "name": "tokenPercentage",
          "type": "uint8[]"
        },
        {
          "indexed": false,
          "internalType": "uint256[]",
          "name": "tokensStored",
          "type": "uint256[]"
        }
      ],
      "name": "Rebalance",
      "type": "event"
    },
    {
      "anonymous": false,
      "inputs": [
        {
          "indexed": false,
          "internalType": "address[]",
          "name": "oldTokens",
          "type": "address[]"
        },
        {
          "indexed": false,
          "internalType": "uint8[]",
          "name": "oldPercentage",
          "type": "uint8[]"
        },
        {
          "indexed": false,
          "internalType": "address[]",
          "name": "newTokens",
          "type": "address[]"
        },
        {
          "indexed": false,
          "internalType": "uint8[]",
          "name": "newPercentage",
          "type": "uint8[]"
        },
        {
          "indexed": false,
          "internalType": "uint256[]",
          "name": "tokensStored",
          "type": "uint256[]"
        }
      ],
      "name": "StrategyChange",
      "type": "event"
    },
    {
      "anonymous": false,
      "inputs": [
        {
          "indexed": true,
          "internalType": "address",
          "name": "from",
          "type": "address"
        },
        {
          "indexed": true,
          "internalType": "address",
          "name": "to",
          "type": "address"
        },
        {
          "indexed": false,
          "internalType": "uint256",
          "name": "value",
          "type": "uint256"
        }
      ],
      "name": "Transfer",
      "type": "event"
    },
    {
      "anonymous": false,
      "inputs": [
        {
          "indexed": true,
          "internalType": "address",
          "name": "user",
          "type": "address"
        },
        {
          "indexed": false,
          "internalType": "uint256",
          "name": "amount",
          "type": "uint256"
        },
        {
          "indexed": false,
          "internalType": "uint256",
          "name": "fees",
          "type": "uint256"
        },
        {
          "indexed": false,
          "internalType": "uint256",
          "name": "podBurned",
          "type": "uint256"
        },
        {
          "indexed": false,
          "internalType": "uint256",
          "name": "podTotalSupply",
          "type": "uint256"
        },
        {
          "indexed": false,
          "internalType": "uint256[]",
          "name": "tokensStored",
          "type": "uint256[]"
        }
      ],
      "name": "Withdraw",
      "type": "event"
    },
    {
      "inputs": [
        {
          "internalType": "address",
          "name": "owner",
          "type": "address"
        },
        {
          "internalType": "address",
          "name": "spender",
          "type": "address"
        }
      ],
      "name": "allowance",
      "outputs": [
        {
          "internalType": "uint256",
          "name": "",
          "type": "uint256"
        }
      ],
      "stateMutability": "view",
      "type": "function",
      "constant": true
    },
    {
      "inputs": [
        {
          "internalType": "address",
          "name": "spender",
          "type": "address"
        },
        {
          "internalType": "uint256",
          "name": "amount",
          "type": "uint256"
        }
      ],
      "name": "approve",
      "outputs": [
        {
          "internalType": "bool",
          "name": "",
          "type": "bool"
        }
      ],
      "stateMutability": "nonpayable",
      "type": "function"
    },
    {
      "inputs": [
        {
          "internalType": "address",
          "name": "account",
          "type": "address"
        }
      ],
      "name": "balanceOf",
      "outputs": [
        {
          "internalType": "uint256",
          "name": "",
          "type": "uint256"
        }
      ],
      "stateMutability": "view",
      "type": "function",
      "constant": true
    },
    {
      "inputs": [],
      "name": "decimals",
      "outputs": [
        {
          "internalType": "uint8",
          "name": "",
          "type": "uint8"
        }
      ],
      "stateMutability": "view",
      "type": "function",
      "constant": true
    },
    {
      "inputs": [
        {
          "internalType": "address",
          "name": "spender",
          "type": "address"
        },
        {
          "internalType": "uint256",
          "name": "subtractedValue",
          "type": "uint256"
        }
      ],
      "name": "decreaseAllowance",
      "outputs": [
        {
          "internalType": "bool",
          "name": "",
          "type": "bool"
        }
      ],
      "stateMutability": "nonpayable",
      "type": "function"
    },
    {
      "inputs": [
        {
          "internalType": "address",
          "name": "spender",
          "type": "address"
        },
        {
          "internalType": "uint256",
          "name": "addedValue",
          "type": "uint256"
        }
      ],
      "name": "increaseAllowance",
      "outputs": [
        {
          "internalType": "bool",
          "name": "",
          "type": "bool"
        }
      ],
      "stateMutability": "nonpayable",
      "type": "function"
    },
    {
      "inputs": [],
      "name": "name",
      "outputs": [
        {
          "internalType": "string",
          "name": "",
          "type": "string"
        }
      ],
      "stateMutability": "view",
      "type": "function",
      "constant": true
    },
    {
      "inputs": [],
      "name": "owner",
      "outputs": [
        {
          "internalType": "address",
          "name": "",
          "type": "address"
        }
      ],
      "stateMutability": "view",
      "type": "function",
      "constant": true
    },
    {
      "inputs": [],
      "name": "renounceOwnership",
      "outputs": [],
      "stateMutability": "nonpayable",
      "type": "function"
    },
    {
      "inputs": [],
      "name": "symbol",
      "outputs": [
        {
          "internalType": "string",
          "name": "",
          "type": "string"
        }
      ],
      "stateMutability": "view",
      "type": "function",
      "constant": true
    },
    {
      "inputs": [],
      "name": "totalSupply",
      "outputs": [
        {
          "internalType": "uint256",
          "name": "",
          "type": "uint256"
        }
      ],
      "stateMutability": "view",
      "type": "function",
      "constant": true
    },
    {
      "inputs": [
        {
          "internalType": "address",
          "name": "recipient",
          "type": "address"
        },
        {
          "internalType": "uint256",
          "name": "amount",
          "type": "uint256"
        }
      ],
      "name": "transfer",
      "outputs": [
        {
          "internalType": "bool",
          "name": "",
          "type": "bool"
        }
      ],
      "stateMutability": "nonpayable",
      "type": "function"
    },
    {
      "inputs": [
        {
          "internalType": "address",
          "name": "sender",
          "type": "address"
        },
        {
          "internalType": "address",
          "name": "recipient",
          "type": "address"
        },
        {
          "internalType": "uint256",
          "name": "amount",
          "type": "uint256"
        }
      ],
      "name": "transferFrom",
      "outputs": [
        {
          "internalType": "bool",
          "name": "",
          "type": "bool"
        }
      ],
      "stateMutability": "nonpayable",
      "type": "function"
    },
    {
      "inputs": [
        {
          "internalType": "address",
          "name": "newOwner",
          "type": "address"
        }
      ],
      "name": "transferOwnership",
      "outputs": [],
      "stateMutability": "nonpayable",
      "type": "function"
    },
    {
      "inputs": [],
      "name": "strategyTokenCount",
      "outputs": [
        {
          "internalType": "uint256",
          "name": "",
          "type": "uint256"
        }
      ],
      "stateMutability": "view",
      "type": "function",
      "constant": true
    },
    {
      "inputs": [
        {
          "internalType": "uint8",
          "name": "index",
          "type": "uint8"
        }
      ],
      "name": "strategyTokens",
      "outputs": [
        {
          "internalType": "address",
          "name": "",
          "type": "address"
        },
        {
          "internalType": "uint8",
          "name": "",
          "type": "uint8"
        }
      ],
      "stateMutability": "view",
      "type": "function",
      "constant": true
    },
    {
      "inputs": [],
      "name": "withdrawalFee",
      "outputs": [
        {
          "internalType": "uint8",
          "name": "",
          "type": "uint8"
        },
        {
          "internalType": "uint8",
          "name": "",
          "type": "uint8"
        }
      ],
      "stateMutability": "view",
      "type": "function",
      "constant": true
    },
    {
      "inputs": [],
      "name": "priceDecimals",
      "outputs": [
        {
          "internalType": "uint8",
          "name": "",
          "type": "uint8"
        }
      ],
      "stateMutability": "view",
      "type": "function",
      "constant": true
    },
    {
      "inputs": [],
      "name": "totalTokenStored",
      "outputs": [
        {
          "internalType": "uint256[]",
          "name": "",
          "type": "uint256[]"
        }
      ],
      "stateMutability": "view",
      "type": "function",
      "constant": true
    },
    {
      "inputs": [
        {
          "internalType": "address",
          "name": "user",
          "type": "address"
        },
        {
          "internalType": "uint8",
          "name": "percentage",
          "type": "uint8"
        }
      ],
      "name": "getUserVaultInDrc",
      "outputs": [
        {
          "internalType": "uint256",
          "name": "",
          "type": "uint256"
        },
        {
          "internalType": "uint256",
          "name": "",
          "type": "uint256"
        },
        {
          "internalType": "uint256",
          "name": "",
          "type": "uint256"
        }
      ],
      "stateMutability": "view",
      "type": "function",
      "constant": true
    },
    {
      "inputs": [],
      "name": "getProofOfDepositPrice",
      "outputs": [
        {
          "internalType": "uint256",
          "name": "",
          "type": "uint256"
        }
      ],
      "stateMutability": "view",
      "type": "function",
      "constant": true
    },
    {
      "inputs": [
        {
          "internalType": "uint256",
          "name": "drcAmount",
          "type": "uint256"
        }
      ],
      "name": "depositPriceImpact",
      "outputs": [
        {
          "internalType": "uint256",
          "name": "",
          "type": "uint256"
        }
      ],
      "stateMutability": "view",
      "type": "function",
      "constant": true
    },
    {
      "inputs": [
        {
          "internalType": "uint256",
          "name": "drcAmount",
          "type": "uint256"
        },
        {
          "internalType": "uint32",
          "name": "deadline",
          "type": "uint32"
        }
      ],
      "name": "depositDrc",
      "outputs": [],
      "stateMutability": "nonpayable",
      "type": "function"
    },
    {
      "inputs": [
        {
          "internalType": "uint256",
          "name": "drcAmount",
          "type": "uint256"
        },
        {
          "internalType": "uint32",
          "name": "deadline",
          "type": "uint32"
        }
      ],
      "name": "withdrawDrc",
      "outputs": [],
      "stateMutability": "nonpayable",
      "type": "function"
    },
    {
      "inputs": [
        {
          "internalType": "uint8",
          "name": "percentage",
          "type": "uint8"
        },
        {
          "internalType": "uint32",
          "name": "deadline",
          "type": "uint32"
        }
      ],
      "name": "withdrawPercentage",
      "outputs": [],
      "stateMutability": "nonpayable",
      "type": "function"
    },
    {
      "inputs": [
        {
          "internalType": "bool",
          "name": "status",
          "type": "bool"
        }
      ],
      "name": "changeDepositStatus",
      "outputs": [],
      "stateMutability": "nonpayable",
      "type": "function"
    },
    {
      "inputs": [
        {
          "internalType": "uint8",
          "name": "withdrawalFeeFraction_",
          "type": "uint8"
        },
        {
          "internalType": "uint8",
          "name": "withdrawalFeeBase_",
          "type": "uint8"
        }
      ],
      "name": "changeFee",
      "outputs": [],
      "stateMutability": "nonpayable",
      "type": "function"
    },
    {
      "inputs": [
        {
          "internalType": "address[]",
          "name": "strategyTokens_",
          "type": "address[]"
        },
        {
          "internalType": "uint8[]",
          "name": "tokenPercentage_",
          "type": "uint8[]"
        },
        {
          "internalType": "uint32",
          "name": "deadline",
          "type": "uint32"
        }
      ],
      "name": "changeStrategy",
      "outputs": [],
      "stateMutability": "nonpayable",
      "type": "function"
    },
    {
      "inputs": [
        {
          "internalType": "uint32",
          "name": "deadline",
          "type": "uint32"
        }
      ],
      "name": "rebalance",
      "outputs": [],
      "stateMutability": "nonpayable",
      "type": "function"
    }
  ],
  "bytecode": "0x60a060405260088054600160ff199091161761ff0019166164001760ff60b01b191690553480156200003057600080fd5b506040516200576f3803806200576f833981810160405260808110156200005657600080fd5b815160208301516040808501805191519395929483019291846401000000008211156200008257600080fd5b9083019060208201858111156200009857600080fd5b8251640100000000811182820188101715620000b357600080fd5b82525081516020918201929091019080838360005b83811015620000e2578181015183820152602001620000c8565b50505050905090810190601f168015620001105780820380516001836020036101000a031916815260200191505b50604052602001805160405193929190846401000000008211156200013457600080fd5b9083019060208201858111156200014a57600080fd5b82516401000000008111828201881017156200016557600080fd5b82525081516020918201929091019080838360005b83811015620001945781810151838201526020016200017a565b50505050905090810190601f168015620001c25780820380516001836020036101000a031916815260200191505b50604052505082518391508290620001e2906003906020850190620002b1565b508051620001f8906004906020840190620002b1565b50506005805460ff1916601217905550600062000214620002ad565b60058054610100600160a81b0319166101006001600160a01b03841690810291909117909155604051919250906000907f8be0079c531659141344cd1fd0a4f28419497f9722a3daafe3b4186f6b6457e0908290a350506008805462010000600160b01b031916620100006001600160a01b039490941693909302929092179091555060601b6001600160601b0319166080526200034d565b3390565b828054600181600116156101000203166002900490600052602060002090601f016020900481019282601f10620002f457805160ff191683800117855562000324565b8280016001018555821562000324579182015b828111156200032457825182559160200191906001019062000307565b506200033292915062000336565b5090565b5b8082111562000332576000815560010162000337565b60805160601c6153b4620003bb60003980610faa52806110c55280612c3f5280613233528061335d528061345052806134cd52806136455280613a3d5280613dab5280613efd5280613f98528061407a528061464152806147e652806148c65280614ad852506153b46000f3fe608060405234801561001057600080fd5b50600436106101ce5760003560e01c806370a0823111610104578063a22af857116100a2578063bd80662111610071578063bd806621146106ed578063dd62ed3e14610745578063df9f856414610780578063f2fde38b14610788576101ce565b8063a22af85714610594578063a457c2d71461065c578063a47c12b514610695578063a9059cbb146106b4576101ce565b806380a35fbb116100de57806380a35fbb1461050d5780638bc7e8c4146105305780638da5cb5b1461055b57806395d89b411461058c576101ce565b806370a0823114610478578063715018a6146104ab5780637b123c3a146104b3576101ce565b8063313ce567116101715780634976c0591161014b5780634976c059146103de5780634c183918146103fb5780636c3f4e07146104245780636f827c341461044c576101ce565b8063313ce56714610372578063395093511461037a57806347e6dece146103b3576101ce565b8063095ea7b3116101ad578063095ea7b3146102c057806318160ddd1461030d57806318181a9c1461032757806323b872dd1461032f576101ce565b80627865b5146101d357806305300b281461022557806306fdde0314610243575b600080fd5b6101f3600480360360208110156101e957600080fd5b503560ff166107bb565b6040805173ffffffffffffffffffffffffffffffffffffffff909316835260ff90911660208301528051918290030190f35b61022d610806565b6040805160ff9092168252519081900360200190f35b61024b61080b565b6040805160208082528351818301528351919283929083019185019080838360005b8381101561028557818101518382015260200161026d565b50505050905090810190601f1680156102b25780820380516001836020036101000a031916815260200191505b509250505060405180910390f35b6102f9600480360360408110156102d657600080fd5b5073ffffffffffffffffffffffffffffffffffffffff81351690602001356108bf565b604080519115158252519081900360200190f35b6103156108dd565b60408051918252519081900360200190f35b6103156108e3565b6102f96004803603606081101561034557600080fd5b5073ffffffffffffffffffffffffffffffffffffffff813581169160208101359091169060400135610932565b61022d6109d4565b6102f96004803603604081101561039057600080fd5b5073ffffffffffffffffffffffffffffffffffffffff81351690602001356109dd565b6103dc600480360360408110156103c957600080fd5b508035906020013563ffffffff16610a38565b005b610315600480360360208110156103f457600080fd5b5035610f4c565b6103dc6004803603604081101561041157600080fd5b508035906020013563ffffffff16610f88565b6103dc6004803603604081101561043a57600080fd5b5060ff81358116916020013516611364565b6103dc6004803603604081101561046257600080fd5b50803560ff16906020013563ffffffff16611544565b6103156004803603602081101561048e57600080fd5b503573ffffffffffffffffffffffffffffffffffffffff166115c9565b6103dc6115f1565b6104ef600480360360408110156104c957600080fd5b50803573ffffffffffffffffffffffffffffffffffffffff16906020013560ff166116fb565b60408051938452602084019290925282820152519081900360600190f35b6103dc6004803603602081101561052357600080fd5b503563ffffffff166117dd565b610538611f03565b604051808360ff1681526020018260ff1681526020019250505060405180910390f35b610563611f16565b6040805173ffffffffffffffffffffffffffffffffffffffff9092168252519081900360200190f35b61024b611f37565b6103dc600480360360608110156105aa57600080fd5b8101906020810181356401000000008111156105c557600080fd5b8201836020820111156105d757600080fd5b803590602001918460208302840111640100000000831117156105f957600080fd5b91939092909160208101903564010000000081111561061757600080fd5b82018360208201111561062957600080fd5b8035906020019184602083028401116401000000008311171561064b57600080fd5b91935091503563ffffffff16611fb6565b6102f96004803603604081101561067257600080fd5b5073ffffffffffffffffffffffffffffffffffffffff813516906020013561265a565b6103dc600480360360208110156106ab57600080fd5b503515156126cf565b6102f9600480360360408110156106ca57600080fd5b5073ffffffffffffffffffffffffffffffffffffffff81351690602001356127b1565b6106f56127c5565b60408051602080825283518183015283519192839290830191858101910280838360005b83811015610731578181015183820152602001610719565b505050509050019250505060405180910390f35b6103156004803603604081101561075b57600080fd5b5073ffffffffffffffffffffffffffffffffffffffff813581169160200135166128f3565b61031561292b565b6103dc6004803603602081101561079e57600080fd5b503573ffffffffffffffffffffffffffffffffffffffff16612931565b60ff80821660009081526006602052604090205473ffffffffffffffffffffffffffffffffffffffff8116917401000000000000000000000000000000000000000090910416915091565b601290565b60038054604080516020601f60027fffffffffffffffffffffffffffffffffffffffffffffffffffffffffffffffff6101006001881615020190951694909404938401819004810282018101909252828152606093909290918301828280156108b55780601f1061088a576101008083540402835291602001916108b5565b820191906000526020600020905b81548152906001019060200180831161089857829003601f168201915b5050505050905090565b60006108d36108cc612acb565b8484612acf565b5060015b92915050565b60025490565b600080806108ef6108dd565b111561092d5761092a6109006108dd565b610924670de0b6b3a764000061091e6109176127c5565b6001612c16565b90612dea565b90612e5d565b90505b905090565b600061093f848484612e9f565b6109c98461094b612acb565b6109c4856040518060600160405280602881526020016151a86028913973ffffffffffffffffffffffffffffffffffffffff8a16600090815260016020526040812090610996612acb565b73ffffffffffffffffffffffffffffffffffffffff168152602081019190915260400160002054919061306f565b612acf565b5060015b9392505050565b60055460ff1690565b60006108d36109ea612acb565b846109c485600160006109fb612acb565b73ffffffffffffffffffffffffffffffffffffffff908116825260208083019390935260409182016000908120918c168152925290205490613120565b60016007541015610aaa57604080517f08c379a000000000000000000000000000000000000000000000000000000000815260206004820152601960248201527f5374726174656779206861736e2774206265656e207365742e00000000000000604482015290519081900360640190fd5b600854760100000000000000000000000000000000000000000000900460ff16610b3557604080517f08c379a000000000000000000000000000000000000000000000000000000000815260206004820152601460248201527f4465706f7369742069732064697361626c65642e000000000000000000000000604482015290519081900360640190fd5b600854604080517fdd62ed3e0000000000000000000000000000000000000000000000000000000081523360048201523060248201529051849262010000900473ffffffffffffffffffffffffffffffffffffffff169163dd62ed3e916044808301926020929190829003018186803b158015610bb157600080fd5b505afa158015610bc5573d6000803e3d6000fd5b505050506040513d6020811015610bdb57600080fd5b50511015610c34576040517f08c379a000000000000000000000000000000000000000000000000000000000815260040180806020018281038252602c81526020018061532e602c913960400191505060405180910390fd5b600854604080517f70a082310000000000000000000000000000000000000000000000000000000081523360048201529051849262010000900473ffffffffffffffffffffffffffffffffffffffff16916370a08231916024808301926020929190829003018186803b158015610caa57600080fd5b505afa158015610cbe573d6000803e3d6000fd5b505050506040513d6020811015610cd457600080fd5b50511015610d2d576040517f08c379a0000000000000000000000000000000000000000000000000000000008152600401808060200182810382526027815260200180614ff56027913960400191505060405180910390fd5b600854610d589062010000900473ffffffffffffffffffffffffffffffffffffffff16333085613194565b6000610d6383610f4c565b60085490915060009060ff8082166101009092048116820116906127100261ffff1681610d8c57fe5b0461ffff16905080606401821115610def576040517f08c379a00000000000000000000000000000000000000000000000000000000081526004018080602001828103825260408152602001806152436040913960400191505060405180910390fd5b6000610df96108e3565b90506000610e2a86600860029054906101000a900473ffffffffffffffffffffffffffffffffffffffff168761322f565b9050610e368186613824565b506000610e416108dd565b610e5d57610e568766038d7ea4c68000612dea565b9050610e9d565b6000610e6a6109176127c5565b90506000610e848561092484670de0b6b3a7640000612dea565b9050610e98610e916108dd565b82906138c1565b925050505b610ea73382613903565b337fb6612cab106733f4b1d00a1ce087eec48ed4655a50cf2faa2e46ff415db691b98883610ed36108dd565b610edb6127c5565b6040518085815260200184815260200183815260200180602001828103825283818151815260200191508051906020019060200280838360005b83811015610f2d578181015183820152602001610f15565b505050509050019550505050505060405180910390a250505050505050565b600080610f7d83600860029054906101000a900473ffffffffffffffffffffffffffffffffffffffff166000613a34565b90506109cd81613adb565b60408051600280825260608083018452926020830190803683370190505090507f000000000000000000000000000000000000000000000000000000000000000073ffffffffffffffffffffffffffffffffffffffff1663ad5c46486040518163ffffffff1660e01b815260040160206040518083038186803b15801561100e57600080fd5b505afa158015611022573d6000803e3d6000fd5b505050506040513d602081101561103857600080fd5b50518151829060009061104757fe5b73ffffffffffffffffffffffffffffffffffffffff9283166020918202929092010152600854825162010000909104909116908290600190811061108757fe5b602002602001019073ffffffffffffffffffffffffffffffffffffffff16908173ffffffffffffffffffffffffffffffffffffffff168152505060007f000000000000000000000000000000000000000000000000000000000000000073ffffffffffffffffffffffffffffffffffffffff16631f00ca7485846040518363ffffffff1660e01b81526004018083815260200180602001828103825283818151815260200191508051906020019060200280838360005b8381101561115657818101518382015260200161113e565b50505050905001935050505060006040518083038186803b15801561117a57600080fd5b505afa15801561118e573d6000803e3d6000fd5b505050506040513d6000823e601f3d9081017fffffffffffffffffffffffffffffffffffffffffffffffffffffffffffffffe016820160405260208110156111d557600080fd5b81019080805160405193929190846401000000008211156111f557600080fd5b90830190602082018581111561120a57600080fd5b825186602082028301116401000000008211171561122757600080fd5b82525081516020918201928201910280838360005b8381101561125457818101518382015260200161123c565b5050505090500160405250505060008151811061126d57fe5b602090810291909101015160085490915060009061129f9060ff61010082048116916109249186918116840116612dea565b905060606112b46112af336115c9565b613b93565b905060006112c3826000612c16565b90508281101561131e576040517f08c379a000000000000000000000000000000000000000000000000000000000815260040180806020018281038252602d8152602001806151d0602d913960400191505060405180910390fd5b600061133382610924866402540be400612dea565b9050600061134d6402540be4006109248461091e336115c9565b90506113598189613cf7565b505050505050505050565b61136c612acb565b600554610100900473ffffffffffffffffffffffffffffffffffffffff9081169116146113fa57604080517f08c379a000000000000000000000000000000000000000000000000000000000815260206004820181905260248201527f4f776e61626c653a2063616c6c6572206973206e6f7420746865206f776e6572604482015290519081900360640190fd5b8060ff168260ff16111561146f57604080517f08c379a000000000000000000000000000000000000000000000000000000000815260206004820152601b60248201527f466565206672616374696f6e20657863656564656420626173652e0000000000604482015290519081900360640190fd5b60008160ff168360640260ff168161148357fe5b04905060028160ff1611156114e3576040517f08c379a00000000000000000000000000000000000000000000000000000000081526004018080602001828103825260298152602001806150a96029913960400191505060405180910390fd5b506008805460ff928316610100027fffffffffffffffffffffffffffffffffffffffffffffffffffffffffffff00ff949093167fffffffffffffffffffffffffffffffffffffffffffffffffffffffffffffff009091161792909216179055565b60648260ff1611156115a1576040517f08c379a000000000000000000000000000000000000000000000000000000000815260040180806020018281038252602f81526020018061511b602f913960400191505060405180910390fd5b60006115b860646109248560ff1661091e336115c9565b90506115c48183613cf7565b505050565b73ffffffffffffffffffffffffffffffffffffffff1660009081526020819052604090205490565b6115f9612acb565b600554610100900473ffffffffffffffffffffffffffffffffffffffff90811691161461168757604080517f08c379a000000000000000000000000000000000000000000000000000000000815260206004820181905260248201527f4f776e61626c653a2063616c6c6572206973206e6f7420746865206f776e6572604482015290519081900360640190fd5b600554604051600091610100900473ffffffffffffffffffffffffffffffffffffffff16907f8be0079c531659141344cd1fd0a4f28419497f9722a3daafe3b4186f6b6457e0908390a3600580547fffffffffffffffffffffff0000000000000000000000000000000000000000ff169055565b6000806000606061171a6112af60646109248860ff1661091e8b6115c9565b90506000611729826001612c16565b90506000611738836000612c16565b9050600061176a83600860029054906101000a900473ffffffffffffffffffffffffffffffffffffffff166001613ef5565b6008549091506000906117939060ff808216610100909204811682011690610924908690612dea565b905060006117ca6117a485846138c1565b60085462010000900473ffffffffffffffffffffffffffffffffffffffff166000613ef5565b9298509196509450505050509250925092565b6117e5612acb565b600554610100900473ffffffffffffffffffffffffffffffffffffffff90811691161461187357604080517f08c379a000000000000000000000000000000000000000000000000000000000815260206004820181905260248201527f4f776e61626c653a2063616c6c6572206973206e6f7420746865206f776e6572604482015290519081900360640190fd5b6000600754116118e457604080517f08c379a000000000000000000000000000000000000000000000000000000000815260206004820152601860248201527f5374726174656779206861736e2774206265656e207365740000000000000000604482015290519081900360640190fd5b6000606060075467ffffffffffffffff8111801561190157600080fd5b5060405190808252806020026020018201604052801561192b578160200160208202803683370190505b50905060005b6007548160ff161015611a2b5760ff811660009081526006602090815260408083205481517f70a08231000000000000000000000000000000000000000000000000000000008152306004820152915173ffffffffffffffffffffffffffffffffffffffff90911693926119f89285926370a0823192602480840193919291829003018186803b1580156119c457600080fd5b505afa1580156119d8573d6000803e3d6000fd5b505050506040513d60208110156119ee57600080fd5b5051836001613a34565b9050611a048582613120565b945080848460ff1681518110611a1657fe5b60209081029190910101525050600101611931565b50606060075467ffffffffffffffff81118015611a4757600080fd5b50604051908082528060200260200182016040528015611a71578160200160208202803683370190505b509050606060075467ffffffffffffffff81118015611a8f57600080fd5b50604051908082528060200260200182016040528015611ab9578160200160208202803683370190505b509050600080606060075467ffffffffffffffff81118015611ada57600080fd5b50604051908082528060200260200182016040528015611b04578160200160208202803683370190505b50905060005b6007548160ff161015611d6e5760ff8116600081815260066020526040902054875173ffffffffffffffffffffffffffffffffffffffff9091169188918110611b4f57fe5b73ffffffffffffffffffffffffffffffffffffffff90921660209283029190910182015260ff808316600081815260069093526040909220548751740100000000000000000000000000000000000000009091049091169187918110611bb157fe5b60ff9283166020918202929092018101919091528282166000908152600690915260408120549091611c0591606491610924918d917401000000000000000000000000000000000000000090910416612dea565b905080888360ff1681518110611c1757fe5b602002602001015111611c9857611c4d888360ff1681518110611c3657fe5b6020026020010151826138c190919063ffffffff16565b838360ff1681518110611c5c57fe5b602002602001018181525050611c91838360ff1681518110611c7a57fe5b60200260200101518661312090919063ffffffff16565b9450611d65565b6000838360ff1681518110611ca957fe5b6020026020010181815250506000611ce0828a8560ff1681518110611cca57fe5b60200260200101516138c190919063ffffffff16565b60ff841660009081526006602052604081205491925090611d1a90839073ffffffffffffffffffffffffffffffffffffffff166001613ef5565b60ff851660009081526006602052604081205491925090611d5390839073ffffffffffffffffffffffffffffffffffffffff168f61322f565b9050611d5f8782613120565b96505050505b50600101611b0a565b5060005b6007548160ff161015611df0576000611dae85610924858560ff1681518110611d9757fe5b602002602001015187612dea90919063ffffffff16565b60ff8316600090815260066020526040902054909150611de690829073ffffffffffffffffffffffffffffffffffffffff168c613f94565b5050600101611d72565b507f266da61503975711d4058ea98596fa73002f2ba34e14a1984d6b6c9f5d1659918585611e1c6127c5565b60405180806020018060200180602001848103845287818151815260200191508051906020019060200280838360005b83811015611e64578181015183820152602001611e4c565b50505050905001848103835286818151815260200191508051906020019060200280838360005b83811015611ea3578181015183820152602001611e8b565b50505050905001848103825285818151815260200191508051906020019060200280838360005b83811015611ee2578181015183820152602001611eca565b50505050905001965050505050505060405180910390a15050505050505050565b60085460ff808216916101009004169091565b600554610100900473ffffffffffffffffffffffffffffffffffffffff1690565b60048054604080516020601f60027fffffffffffffffffffffffffffffffffffffffffffffffffffffffffffffffff6101006001881615020190951694909404938401819004810282018101909252828152606093909290918301828280156108b55780601f1061088a576101008083540402835291602001916108b5565b611fbe612acb565b600554610100900473ffffffffffffffffffffffffffffffffffffffff90811691161461204c57604080517f08c379a000000000000000000000000000000000000000000000000000000000815260206004820181905260248201527f4f776e61626c653a2063616c6c6572206973206e6f7420746865206f776e6572604482015290519081900360640190fd5b60018410156120bc57604080517f08c379a000000000000000000000000000000000000000000000000000000000815260206004820152601d60248201527f53657474696e6720737472617465677920746f203020746f6b656e732e000000604482015290519081900360640190fd5b6005841115612116576040517f08c379a00000000000000000000000000000000000000000000000000000000081526004018080602001828103825260278152602001806152a76027913960400191505060405180910390fd5b83821461216e576040517f08c379a000000000000000000000000000000000000000000000000000000000815260040180806020018281038252603d81526020018061514a603d913960400191505060405180910390fd5b6000805b60ff81168411156121a75784848260ff1681811061218c57fe5b9050602002013560ff16820191508080600101915050612172565b508060ff16606414612204576040517f08c379a00000000000000000000000000000000000000000000000000000000081526004018080602001828103825260238152602001806150d26023913960400191505060405180910390fd5b606060075467ffffffffffffffff8111801561221f57600080fd5b50604051908082528060200260200182016040528015612249578160200160208202803683370190505b509050606060075467ffffffffffffffff8111801561226757600080fd5b50604051908082528060200260200182016040528015612291578160200160208202803683370190505b50905060005b6007548160ff1610156123585760ff8116600081815260066020526040902054845173ffffffffffffffffffffffffffffffffffffffff90911691859181106122dc57fe5b73ffffffffffffffffffffffffffffffffffffffff90921660209283029190910182015260ff80831660008181526006909352604090922054845174010000000000000000000000000000000000000000909104909116918491811061233e57fe5b60ff90921660209283029190910190910152600101612297565b50600061236c6123666127c5565b8661415f565b6007899055905060005b6007548160ff16101561249b5760405180604001604052808b8b8460ff1681811061239d57fe5b9050602002013573ffffffffffffffffffffffffffffffffffffffff1673ffffffffffffffffffffffffffffffffffffffff16815260200189898460ff168181106123e457fe5b6020908102929092013560ff90811690935250838216600090815260068252604090208351815494909201517fffffffffffffffffffffffff000000000000000000000000000000000000000090941673ffffffffffffffffffffffffffffffffffffffff909216919091177fffffffffffffffffffffff00ffffffffffffffffffffffffffffffffffffffff16740100000000000000000000000000000000000000009390921692909202179055600101612376565b506124a68186613824565b507f78798c5f9f4b9bd15a3bce2ae480205cb99cf5b89b89b1bb505168c66887a94883838b8b8b8b6124d66127c5565b60405180806020018060200180602001806020018060200186810386528d818151815260200191508051906020019060200280838360005b8381101561252657818101518382015260200161250e565b5050505090500186810385528c818151815260200191508051906020019060200280838360005b8381101561256557818101518382015260200161254d565b5050505090500186810384528b8b82818152602001925060200280828437600083820152601f017fffffffffffffffffffffffffffffffffffffffffffffffffffffffffffffffe0169091018781038452898152602090810191508a908a02808284376000838201819052601f9091017fffffffffffffffffffffffffffffffffffffffffffffffffffffffffffffffe0169092018881038452895181528951602091820193828c0193509102908190849084905b8381101561263257818101518382015260200161261a565b505050509050019c5050505050505050505050505060405180910390a1505050505050505050565b60006108d3612667612acb565b846109c48560405180606001604052806025815260200161535a6025913960016000612691612acb565b73ffffffffffffffffffffffffffffffffffffffff908116825260208083019390935260409182016000908120918d1681529252902054919061306f565b6126d7612acb565b600554610100900473ffffffffffffffffffffffffffffffffffffffff90811691161461276557604080517f08c379a000000000000000000000000000000000000000000000000000000000815260206004820181905260248201527f4f776e61626c653a2063616c6c6572206973206e6f7420746865206f776e6572604482015290519081900360640190fd5b60088054911515760100000000000000000000000000000000000000000000027fffffffffffffffffff00ffffffffffffffffffffffffffffffffffffffffffff909216919091179055565b60006108d36127be612acb565b8484612e9f565b60608060075467ffffffffffffffff811180156127e157600080fd5b5060405190808252806020026020018201604052801561280b578160200160208202803683370190505b50905060005b6007548160ff1610156128ed5760ff81166000908152600660209081526040918290205482517f70a08231000000000000000000000000000000000000000000000000000000008152306004820152925173ffffffffffffffffffffffffffffffffffffffff909116926370a08231926024808301939192829003018186803b15801561289d57600080fd5b505afa1580156128b1573d6000803e3d6000fd5b505050506040513d60208110156128c757600080fd5b50518251839060ff84169081106128da57fe5b6020908102919091010152600101612811565b50905090565b73ffffffffffffffffffffffffffffffffffffffff918216600090815260016020908152604080832093909416825291909152205490565b60075490565b612939612acb565b600554610100900473ffffffffffffffffffffffffffffffffffffffff9081169116146129c757604080517f08c379a000000000000000000000000000000000000000000000000000000000815260206004820181905260248201527f4f776e61626c653a2063616c6c6572206973206e6f7420746865206f776e6572604482015290519081900360640190fd5b73ffffffffffffffffffffffffffffffffffffffff8116612a33576040517f08c379a00000000000000000000000000000000000000000000000000000000081526004018080602001828103825260268152602001806150616026913960400191505060405180910390fd5b60055460405173ffffffffffffffffffffffffffffffffffffffff80841692610100900416907f8be0079c531659141344cd1fd0a4f28419497f9722a3daafe3b4186f6b6457e090600090a36005805473ffffffffffffffffffffffffffffffffffffffff909216610100027fffffffffffffffffffffff0000000000000000000000000000000000000000ff909216919091179055565b3390565b73ffffffffffffffffffffffffffffffffffffffff8316612b3b576040517f08c379a00000000000000000000000000000000000000000000000000000000081526004018080602001828103825260248152602001806152836024913960400191505060405180910390fd5b73ffffffffffffffffffffffffffffffffffffffff8216612ba7576040517f08c379a00000000000000000000000000000000000000000000000000000000081526004018080602001828103825260228152602001806150876022913960400191505060405180910390fd5b73ffffffffffffffffffffffffffffffffffffffff808416600081815260016020908152604080832094871680845294825291829020859055815185815291517f8c5be1e5ebec7d5bd14f71427d1e84f3dd0314c0f7b2291e5b200ac8c7c3b9259281900390910190a3505050565b6040805160028082526060808301845260009384939192906020830190803683370190505090507f000000000000000000000000000000000000000000000000000000000000000073ffffffffffffffffffffffffffffffffffffffff1663ad5c46486040518163ffffffff1660e01b815260040160206040518083038186803b158015612ca357600080fd5b505afa158015612cb7573d6000803e3d6000fd5b505050506040513d6020811015612ccd57600080fd5b5051815182906001908110612cde57fe5b602002602001019073ffffffffffffffffffffffffffffffffffffffff16908173ffffffffffffffffffffffffffffffffffffffff168152505060005b6007548160ff161015612de05760ff8116600090815260066020526040812054835173ffffffffffffffffffffffffffffffffffffffff909116918291859190612d6157fe5b602002602001019073ffffffffffffffffffffffffffffffffffffffff16908173ffffffffffffffffffffffffffffffffffffffff16815250506000878360ff1681518110612dac57fe5b602002602001015190506000612dc382848a613a34565b9050612dcf8682613120565b95505060019092019150612d1b9050565b5090949350505050565b600082612df9575060006108d7565b82820282848281612e0657fe5b04146109cd576040517f08c379a00000000000000000000000000000000000000000000000000000000081526004018080602001828103825260218152602001806151876021913960400191505060405180910390fd5b60006109cd83836040518060400160405280601a81526020017f536166654d6174683a206469766973696f6e206279207a65726f0000000000008152506141e0565b73ffffffffffffffffffffffffffffffffffffffff8316612f0b576040517f08c379a000000000000000000000000000000000000000000000000000000000815260040180806020018281038252602581526020018061521e6025913960400191505060405180910390fd5b73ffffffffffffffffffffffffffffffffffffffff8216612f77576040517f08c379a000000000000000000000000000000000000000000000000000000000815260040180806020018281038252602381526020018061501c6023913960400191505060405180910390fd5b612f828383836115c4565b612fcc816040518060600160405280602681526020016150f56026913973ffffffffffffffffffffffffffffffffffffffff8616600090815260208190526040902054919061306f565b73ffffffffffffffffffffffffffffffffffffffff80851660009081526020819052604080822093909355908416815220546130089082613120565b73ffffffffffffffffffffffffffffffffffffffff8084166000818152602081815260409182902094909455805185815290519193928716927fddf252ad1be2c89b69c2b068fc378daa952ba7f163c4a11628f55a4df523b3ef92918290030190a3505050565b60008184841115613118576040517f08c379a00000000000000000000000000000000000000000000000000000000081526004018080602001828103825283818151815260200191508051906020019080838360005b838110156130dd5781810151838201526020016130c5565b50505050905090810190601f16801561310a5780820380516001836020036101000a031916815260200191505b509250505060405180910390fd5b505050900390565b6000828201838110156109cd57604080517f08c379a000000000000000000000000000000000000000000000000000000000815260206004820152601b60248201527f536166654d6174683a206164646974696f6e206f766572666c6f770000000000604482015290519081900360640190fd5b6040805173ffffffffffffffffffffffffffffffffffffffff80861660248301528416604482015260648082018490528251808303909101815260849091019091526020810180517bffffffffffffffffffffffffffffffffffffffffffffffffffffffff167f23b872dd0000000000000000000000000000000000000000000000000000000017905261322990859061425f565b50505050565b60007f000000000000000000000000000000000000000000000000000000000000000073ffffffffffffffffffffffffffffffffffffffff1663ad5c46486040518163ffffffff1660e01b815260040160206040518083038186803b15801561329757600080fd5b505afa1580156132ab573d6000803e3d6000fd5b505050506040513d60208110156132c157600080fd5b505173ffffffffffffffffffffffffffffffffffffffff848116911614806132e7575083155b156132f35750826109cd565b6040805160028082526060808301845292602083019080368337019050509050838160008151811061332157fe5b602002602001019073ffffffffffffffffffffffffffffffffffffffff16908173ffffffffffffffffffffffffffffffffffffffff16815250507f000000000000000000000000000000000000000000000000000000000000000073ffffffffffffffffffffffffffffffffffffffff1663ad5c46486040518163ffffffff1660e01b815260040160206040518083038186803b1580156133c157600080fd5b505afa1580156133d5573d6000803e3d6000fd5b505050506040513d60208110156133eb57600080fd5b50518151829060019081106133fc57fe5b602002602001019073ffffffffffffffffffffffffffffffffffffffff16908173ffffffffffffffffffffffffffffffffffffffff16815250506134758160008151811061344657fe5b60200260200101517f000000000000000000000000000000000000000000000000000000000000000087614337565b604080517fd06ca61f000000000000000000000000000000000000000000000000000000008152600481018781526024820192835283516044830152835160009373ffffffffffffffffffffffffffffffffffffffff7f0000000000000000000000000000000000000000000000000000000000000000169363d06ca61f938b938893919260640190602080860191028083838c5b8381101561352257818101518382015260200161350a565b50505050905001935050505060006040518083038186803b15801561354657600080fd5b505afa15801561355a573d6000803e3d6000fd5b505050506040513d6000823e601f3d9081017fffffffffffffffffffffffffffffffffffffffffffffffffffffffffffffffe016820160405260208110156135a157600080fd5b81019080805160405193929190846401000000008211156135c157600080fd5b9083019060208201858111156135d657600080fd5b82518660208202830111640100000000821117156135f357600080fd5b82525081516020918201928201910280838360005b83811015613620578181015183820152602001613608565b5050505090500160405250505060018151811061363957fe5b602002602001015190507f000000000000000000000000000000000000000000000000000000000000000073ffffffffffffffffffffffffffffffffffffffff166338ed173987838530896040518663ffffffff1660e01b815260040180868152602001858152602001806020018473ffffffffffffffffffffffffffffffffffffffff1681526020018363ffffffff168152602001828103825285818151815260200191508051906020019060200280838360005b838110156137075781810151838201526020016136ef565b505050509050019650505050505050600060405180830381600087803b15801561373057600080fd5b505af1158015613744573d6000803e3d6000fd5b505050506040513d6000823e601f3d9081017fffffffffffffffffffffffffffffffffffffffffffffffffffffffffffffffe0168201604052602081101561378b57600080fd5b81019080805160405193929190846401000000008211156137ab57600080fd5b9083019060208201858111156137c057600080fd5b82518660208202830111640100000000821117156137dd57600080fd5b82525081516020918201928201910280838360005b8381101561380a5781810151838201526020016137f2565b505050509050016040525050505080925050509392505050565b606060005b6007548160ff1610156138ba5760ff8082166000908152600660205260408120549091613878916064916109249189917401000000000000000000000000000000000000000090910416612dea565b60ff83166000908152600660205260409020549091506138b090829073ffffffffffffffffffffffffffffffffffffffff1686613f94565b5050600101613829565b5092915050565b60006109cd83836040518060400160405280601e81526020017f536166654d6174683a207375627472616374696f6e206f766572666c6f77000081525061306f565b73ffffffffffffffffffffffffffffffffffffffff821661398557604080517f08c379a000000000000000000000000000000000000000000000000000000000815260206004820152601f60248201527f45524332303a206d696e7420746f20746865207a65726f206164647265737300604482015290519081900360640190fd5b613991600083836115c4565b60025461399e9082613120565b60025573ffffffffffffffffffffffffffffffffffffffff82166000908152602081905260409020546139d19082613120565b73ffffffffffffffffffffffffffffffffffffffff83166000818152602081815260408083209490945583518581529351929391927fddf252ad1be2c89b69c2b068fc378daa952ba7f163c4a11628f55a4df523b3ef9281900390910190a35050565b6000613ad384847f000000000000000000000000000000000000000000000000000000000000000073ffffffffffffffffffffffffffffffffffffffff1663ad5c46486040518163ffffffff1660e01b815260040160206040518083038186803b158015613aa157600080fd5b505afa158015613ab5573d6000803e3d6000fd5b505050506040513d6020811015613acb57600080fd5b5051856144c5565b949350505050565b600080805b6007548160ff1610156138ba5760ff80821660009081526006602052604081205474010000000000000000000000000000000000000000900490911690613b2c60646109248885612dea565b60ff841660009081526006602052604081205491925090613b6490839073ffffffffffffffffffffffffffffffffffffffff166147e1565b9050613b82613b7b60646109248460ff8816612dea565b8690613120565b94505060019092019150613ae09050565b60608060075467ffffffffffffffff81118015613baf57600080fd5b50604051908082528060200260200182016040528015613bd9578160200160208202803683370190505b5090506000613bf8613be96108dd565b610924866402540be400612dea565b905060005b6007548160ff161015613cee5760ff81166000908152600660209081526040918290205482517f70a082310000000000000000000000000000000000000000000000000000000081523060048201529251613ccc936402540be4009361092493889373ffffffffffffffffffffffffffffffffffffffff909116926370a08231926024808301939192829003018186803b158015613c9a57600080fd5b505afa158015613cae573d6000803e3d6000fd5b505050506040513d6020811015613cc457600080fd5b505190612dea565b838260ff1681518110613cdb57fe5b6020908102919091010152600101613bfd565b50909392505050565b6060613d0283613b93565b9050613d0e3384614c2c565b6000613d1a828461415f565b600854909150600090613d439060ff808216610100909204811682011690610924908590612dea565b90506000613d79613d5484846138c1565b60085462010000900473ffffffffffffffffffffffffffffffffffffffff1687613f94565b600854909150613da69062010000900473ffffffffffffffffffffffffffffffffffffffff163383614d76565b613e497f000000000000000000000000000000000000000000000000000000000000000073ffffffffffffffffffffffffffffffffffffffff1663ad5c46486040518163ffffffff1660e01b815260040160206040518083038186803b158015613e0f57600080fd5b505afa158015613e23573d6000803e3d6000fd5b505050506040513d6020811015613e3957600080fd5b5051613e43611f16565b84614d76565b337f9dfaab8d9cf3cf8c531d0dbfcd7dcd22f353ccae0b4d1e96cfe491d86734ae73828489613e766108dd565b613e7e6127c5565b6040518086815260200185815260200184815260200183815260200180602001828103825283818151815260200191508051906020019060200280838360005b83811015613ed6578181015183820152602001613ebe565b50505050905001965050505050505060405180910390a2505050505050565b6000613ad3847f000000000000000000000000000000000000000000000000000000000000000073ffffffffffffffffffffffffffffffffffffffff1663ad5c46486040518163ffffffff1660e01b815260040160206040518083038186803b158015613f6157600080fd5b505afa158015613f75573d6000803e3d6000fd5b505050506040513d6020811015613f8b57600080fd5b505185856144c5565b60007f000000000000000000000000000000000000000000000000000000000000000073ffffffffffffffffffffffffffffffffffffffff1663ad5c46486040518163ffffffff1660e01b815260040160206040518083038186803b158015613ffc57600080fd5b505afa158015614010573d6000803e3d6000fd5b505050506040513d602081101561402657600080fd5b505173ffffffffffffffffffffffffffffffffffffffff8481169116148061404c575083155b156140585750826109cd565b60408051600280825260608083018452926020830190803683370190505090507f000000000000000000000000000000000000000000000000000000000000000073ffffffffffffffffffffffffffffffffffffffff1663ad5c46486040518163ffffffff1660e01b815260040160206040518083038186803b1580156140de57600080fd5b505afa1580156140f2573d6000803e3d6000fd5b505050506040513d602081101561410857600080fd5b50518151829060009061411757fe5b602002602001019073ffffffffffffffffffffffffffffffffffffffff16908173ffffffffffffffffffffffffffffffffffffffff168152505083816001815181106133fc57fe5b600080805b6007548160ff1610156141d85760006141c1868360ff168151811061418557fe5b60209081029190910181015160ff85166000908152600690925260409091205473ffffffffffffffffffffffffffffffffffffffff168761322f565b90506141cd8382613120565b925050600101614164565b509392505050565b60008183614249576040517f08c379a00000000000000000000000000000000000000000000000000000000081526020600482018181528351602484015283519092839260449091019190850190808383600083156130dd5781810151838201526020016130c5565b50600083858161425557fe5b0495945050505050565b60606142c1826040518060400160405280602081526020017f5361666545524332303a206c6f772d6c6576656c2063616c6c206661696c65648152508573ffffffffffffffffffffffffffffffffffffffff16614e039092919063ffffffff16565b8051909150156115c4578080602001905160208110156142e057600080fd5b50516115c4576040517f08c379a000000000000000000000000000000000000000000000000000000000815260040180806020018281038252602a8152602001806152ce602a913960400191505060405180910390fd5b8015806143e35750604080517fdd62ed3e00000000000000000000000000000000000000000000000000000000815230600482015273ffffffffffffffffffffffffffffffffffffffff848116602483015291519185169163dd62ed3e91604480820192602092909190829003018186803b1580156143b557600080fd5b505afa1580156143c9573d6000803e3d6000fd5b505050506040513d60208110156143df57600080fd5b5051155b614438576040517f08c379a00000000000000000000000000000000000000000000000000000000081526004018080602001828103825260368152602001806152f86036913960400191505060405180910390fd5b6040805173ffffffffffffffffffffffffffffffffffffffff8416602482015260448082018490528251808303909101815260649091019091526020810180517bffffffffffffffffffffffffffffffffffffffffffffffffffffffff167f095ea7b3000000000000000000000000000000000000000000000000000000001790526115c490849061425f565b604080516002808252606080830184526000939092919060208301908036833701905050905084816000815181106144f957fe5b602002602001019073ffffffffffffffffffffffffffffffffffffffff16908173ffffffffffffffffffffffffffffffffffffffff1681525050838160018151811061454157fe5b602002602001019073ffffffffffffffffffffffffffffffffffffffff16908173ffffffffffffffffffffffffffffffffffffffff16815250508060018151811061458857fe5b602002602001015173ffffffffffffffffffffffffffffffffffffffff16816000815181106145b357fe5b602002602001015173ffffffffffffffffffffffffffffffffffffffff1614806145db575085155b156145e95785915050613ad3565b604080517fd06ca61f000000000000000000000000000000000000000000000000000000008152600481018881526024820192835283516044830152835160009373ffffffffffffffffffffffffffffffffffffffff7f0000000000000000000000000000000000000000000000000000000000000000169363d06ca61f938c938893919260640190602080860191028083838c5b8381101561469657818101518382015260200161467e565b50505050905001935050505060006040518083038186803b1580156146ba57600080fd5b505afa1580156146ce573d6000803e3d6000fd5b505050506040513d6000823e601f3d9081017fffffffffffffffffffffffffffffffffffffffffffffffffffffffffffffffe0168201604052602081101561471557600080fd5b810190808051604051939291908464010000000082111561473557600080fd5b90830190602082018581111561474a57600080fd5b825186602082028301116401000000008211171561476757600080fd5b82525081516020918201928201910280838360005b8381101561479457818101518382015260200161477c565b505050509050016040525050506001815181106147ad57fe5b6020026020010151905083156147d8576147cf6103e5610924836103e8612dea565b92505050613ad3565b9150613ad39050565b6000807f000000000000000000000000000000000000000000000000000000000000000073ffffffffffffffffffffffffffffffffffffffff1663c45a01556040518163ffffffff1660e01b815260040160206040518083038186803b15801561484a57600080fd5b505afa15801561485e573d6000803e3d6000fd5b505050506040513d602081101561487457600080fd5b5051604080517fad5c4648000000000000000000000000000000000000000000000000000000008152905191925060009173ffffffffffffffffffffffffffffffffffffffff8085169263e6a43905927f00000000000000000000000000000000000000000000000000000000000000009092169163ad5c464891600480820192602092909190829003018186803b15801561490f57600080fd5b505afa158015614923573d6000803e3d6000fd5b505050506040513d602081101561493957600080fd5b5051604080517fffffffff0000000000000000000000000000000000000000000000000000000060e085901b16815273ffffffffffffffffffffffffffffffffffffffff92831660048201529188166024830152516044808301926020929190829003018186803b1580156149ad57600080fd5b505afa1580156149c1573d6000803e3d6000fd5b505050506040513d60208110156149d757600080fd5b5051604080517f0902f1ac0000000000000000000000000000000000000000000000000000000081529051919250600091829173ffffffffffffffffffffffffffffffffffffffff851691630902f1ac91600480820192606092909190829003018186803b158015614a4857600080fd5b505afa158015614a5c573d6000803e3d6000fd5b505050506040513d6060811015614a7257600080fd5b508051602091820151604080517fad5c464800000000000000000000000000000000000000000000000000000000815290516dffffffffffffffffffffffffffff938416965092909116935060009273ffffffffffffffffffffffffffffffffffffffff7f0000000000000000000000000000000000000000000000000000000000000000169263ad5c4648926004808201939291829003018186803b158015614b1b57600080fd5b505afa158015614b2f573d6000803e3d6000fd5b505050506040513d6020811015614b4557600080fd5b5051604080517f0dfe1681000000000000000000000000000000000000000000000000000000008152905173ffffffffffffffffffffffffffffffffffffffff92831692871691630dfe1681916004808301926020929190829003018186803b158015614bb157600080fd5b505afa158015614bc5573d6000803e3d6000fd5b505050506040513d6020811015614bdb57600080fd5b505173ffffffffffffffffffffffffffffffffffffffff161415614c00575081614c03565b50805b614c1c614c10828a613120565b61092483612710612dea565b6127100398975050505050505050565b73ffffffffffffffffffffffffffffffffffffffff8216614c98576040517f08c379a00000000000000000000000000000000000000000000000000000000081526004018080602001828103825260218152602001806151fd6021913960400191505060405180910390fd5b614ca4826000836115c4565b614cee8160405180606001604052806022815260200161503f6022913973ffffffffffffffffffffffffffffffffffffffff8516600090815260208190526040902054919061306f565b73ffffffffffffffffffffffffffffffffffffffff8316600090815260208190526040902055600254614d2190826138c1565b60025560408051828152905160009173ffffffffffffffffffffffffffffffffffffffff8516917fddf252ad1be2c89b69c2b068fc378daa952ba7f163c4a11628f55a4df523b3ef9181900360200190a35050565b6040805173ffffffffffffffffffffffffffffffffffffffff8416602482015260448082018490528251808303909101815260649091019091526020810180517bffffffffffffffffffffffffffffffffffffffffffffffffffffffff167fa9059cbb000000000000000000000000000000000000000000000000000000001790526115c490849061425f565b6060613ad3848460008585614e1785614f6e565b614e8257604080517f08c379a000000000000000000000000000000000000000000000000000000000815260206004820152601d60248201527f416464726573733a2063616c6c20746f206e6f6e2d636f6e7472616374000000604482015290519081900360640190fd5b600060608673ffffffffffffffffffffffffffffffffffffffff1685876040518082805190602001908083835b60208310614eec57805182527fffffffffffffffffffffffffffffffffffffffffffffffffffffffffffffffe09092019160209182019101614eaf565b6001836020036101000a03801982511681845116808217855250505050505090500191505060006040518083038185875af1925050503d8060008114614f4e576040519150601f19603f3d011682016040523d82523d6000602084013e614f53565b606091505b5091509150614f63828286614f74565b979650505050505050565b3b151590565b60608315614f835750816109cd565b825115614f935782518084602001fd5b6040517f08c379a00000000000000000000000000000000000000000000000000000000081526020600482018181528451602484015284518593919283926044019190850190808383600083156130dd5781810151838201526020016130c556fe417474656d7074656420746f206465706f736974206d6f7265207468616e2062616c616e63652e45524332303a207472616e7366657220746f20746865207a65726f206164647265737345524332303a206275726e20616d6f756e7420657863656564732062616c616e63654f776e61626c653a206e6577206f776e657220697320746865207a65726f206164647265737345524332303a20617070726f766520746f20746865207a65726f2061646472657373417474656d707420746f207365742070657263656e7461676520686967686572207468616e2032252e546f74616c20746f6b656e2070657263656e74616765206973206e6f7420313030252e45524332303a207472616e7366657220616d6f756e7420657863656564732062616c616e6365417474656d707420746f207769746864726177206d6f7265207468616e2031303025206f6620746865206173736574537472617465677920746f6b656e73206c656e67746820646f65736e2774206d6174636820746f6b656e2070657263656e74616765206c656e6774682e536166654d6174683a206d756c7469706c69636174696f6e206f766572666c6f7745524332303a207472616e7366657220616d6f756e74206578636565647320616c6c6f77616e6365417474656d707420746f207769746864726177206d6f7265207468616e2075736572277320686f6c64696e672e45524332303a206275726e2066726f6d20746865207a65726f206164647265737345524332303a207472616e736665722066726f6d20746865207a65726f2061646472657373507269636520696d70616374206f6e20746869732073776170206973206c6172676572207468616e20312520706c7573206665652070657263656e746167652e45524332303a20617070726f76652066726f6d20746865207a65726f206164647265737353657474696e6720737472617465677920746f206d6f7265207468616e203520746f6b656e732e5361666545524332303a204552433230206f7065726174696f6e20646964206e6f7420737563636565645361666545524332303a20617070726f76652066726f6d206e6f6e2d7a65726f20746f206e6f6e2d7a65726f20616c6c6f77616e6365436f6e7472616374206973206e6f7420616c6c6f77656420746f207370656e6420757365722773204452432e45524332303a2064656372656173656420616c6c6f77616e63652062656c6f77207a65726fa2646970667358221220f6f1b25bce1bf8fe5d1f48753bf61e3f571944e6f5e4fa9071fe8c98b02c5d6d64736f6c634300060c0033",
  "immutableReferences": {
    "74": [
      {
        "length": 32,
        "start": 4010
      },
      {
        "length": 32,
        "start": 4293
      },
      {
        "length": 32,
        "start": 11327
      },
      {
        "length": 32,
        "start": 12851
      },
      {
        "length": 32,
        "start": 13149
      },
      {
        "length": 32,
        "start": 13392
      },
      {
        "length": 32,
        "start": 13517
      },
      {
        "length": 32,
        "start": 13893
      },
      {
        "length": 32,
        "start": 14909
      },
      {
        "length": 32,
        "start": 15787
      },
      {
        "length": 32,
        "start": 16125
      },
      {
        "length": 32,
        "start": 16280
      },
      {
        "length": 32,
        "start": 16506
      },
      {
        "length": 32,
        "start": 17985
      },
      {
        "length": 32,
        "start": 18406
      },
      {
        "length": 32,
        "start": 18630
      },
      {
        "length": 32,
        "start": 19160
      }
    ]
  },
  "source": "// SPDX-License-Identifier: AGPL-3.0-or-later\n\npragma solidity =0.6.12;\n\nimport \"@openzeppelin/contracts/access/Ownable.sol\";\nimport \"@openzeppelin/contracts/math/SafeMath.sol\";\nimport \"@openzeppelin/contracts/token/ERC20/ERC20.sol\";\nimport \"@openzeppelin/contracts/token/ERC20/SafeERC20.sol\";\nimport \"@openzeppelin/contracts/utils/ReentrancyGuard.sol\";\n\nimport \"./interfaces/Uniswap/IUniswapV2Factory.sol\";\nimport \"./interfaces/Uniswap/IUniswapV2Pair.sol\";\nimport \"./interfaces/Uniswap/IUniswapV2Router02.sol\";\nimport \"./interfaces/IDigitalReserve.sol\";\n\n/**\n * @dev Implementation of Digital Reserve contract.\n * Digital Reserve contract converts user's DRC into a set of SoV assets using the Uniswap router,\n * and hold these assets for it's users.\n * When users initiate a withdrawal action, the contract converts a share of the vault,\n * that the user is requesting, to DRC and sends it back to their wallet.\n */\ncontract DigitalReserve is IDigitalReserve, ERC20, Ownable {\n    using SafeMath for uint256;\n\n    struct StategyToken {\n        address tokenAddress;\n        uint8 tokenPercentage;\n    }\n\n    /**\n     * @dev Set Uniswap router address, DRC token address, DR name.\n     */\n    constructor(\n        address _router,\n        address _drcAddress,\n        string memory _name,\n        string memory _symbol\n    ) public ERC20(_name, _symbol) {\n        drcAddress = _drcAddress;\n        uniswapRouter = IUniswapV2Router02(_router);\n    }\n\n    mapping(uint8 => StategyToken) private _strategyTokens;\n    uint256 private _strategyTokenCount;\n    uint8 private _feeFraction = 1;\n    uint8 private _feeBase = 100;\n    uint8 private constant _priceDecimals = 18;\n\n    address private drcAddress;\n\n    bool private depositEnabled = false;\n\n    IUniswapV2Router02 private immutable uniswapRouter;\n\n    /**\n     * @dev See {IDigitalReserve-strategyTokenCount}.\n     */\n    function strategyTokenCount() external view override returns (uint256) {\n        return _strategyTokenCount;\n    }\n\n    /**\n     * @dev See {IDigitalReserve-strategyTokens}.\n     */\n    function strategyTokens(uint8 index) external view override returns (address, uint8) {\n        return (_strategyTokens[index].tokenAddress, _strategyTokens[index].tokenPercentage);\n    }\n\n    /**\n     * @dev See {IDigitalReserve-withdrawalFee}.\n     */\n    function withdrawalFee() external view override returns (uint8, uint8) {\n        return (_feeFraction, _feeBase);\n    }\n\n    /**\n     * @dev See {IDigitalReserve-priceDecimals}.\n     */\n    function priceDecimals() external view override returns (uint8) {\n        return _priceDecimals;\n    }\n\n    /**\n     * @dev See {IDigitalReserve-totalTokenStored}.\n     */\n    function totalTokenStored() public view override returns (uint256[] memory) {\n        uint256[] memory amounts = new uint256[](_strategyTokenCount);\n        for (uint8 i = 0; i < _strategyTokenCount; i++) {\n            amounts[i] = IERC20(_strategyTokens[i].tokenAddress).balanceOf(address(this));\n        }\n        return amounts;\n    }\n\n    /**\n     * @dev See {IDigitalReserve-getUserVaultInDrc}.\n     */\n    function getUserVaultInDrc(\n        address user, \n        uint8 percentage\n    ) public view override returns (uint256, uint256, uint256) {\n        uint256[] memory userStrategyTokens = _getStrategyTokensByPodAmount(balanceOf(user).mul(percentage).div(100));\n        uint256 userVaultWorthInEth = _getEthAmountByStrategyTokensAmount(userStrategyTokens, true);\n        uint256 userVaultWorthInEthAfterSwap = _getEthAmountByStrategyTokensAmount(userStrategyTokens, false);\n\n        uint256 drcAmountBeforeFees = _getTokenAmountByEthAmount(userVaultWorthInEth, drcAddress, true);\n\n        uint256 fees = userVaultWorthInEthAfterSwap.mul(_feeFraction).div(_feeBase + _feeFraction);\n        uint256 drcAmountAfterFees = _getTokenAmountByEthAmount(userVaultWorthInEthAfterSwap.sub(fees), drcAddress, false);\n\n        return (drcAmountBeforeFees, drcAmountAfterFees, fees);\n    }\n\n    /**\n     * @dev See {IDigitalReserve-getProofOfDepositPrice}.\n     */\n    function getProofOfDepositPrice() public view override returns (uint256) {\n        uint256 proofOfDepositPrice = 0;\n        if (totalSupply() > 0) {\n            proofOfDepositPrice = _getEthAmountByStrategyTokensAmount(totalTokenStored(), true).mul(1e18).div(totalSupply());\n        }\n        return proofOfDepositPrice;\n    }\n\n    /**\n     * @dev See {IDigitalReserve-depositPriceImpact}.\n     */\n    function depositPriceImpact(uint256 drcAmount) public view override returns (uint256) {\n        uint256 ethWorth = _getEthAmountByTokenAmount(drcAmount, drcAddress, false);\n        return _getEthToStrategyTokensPriceImpact(ethWorth);\n    }\n\n    /**\n     * @dev See {IDigitalReserve-depositDrc}.\n     */\n    function depositDrc(uint256 drcAmount, uint32 deadline) external override {\n        require(_strategyTokenCount >= 1, \"Strategy hasn't been set.\");\n        require(depositEnabled, \"Deposit is disabled.\");\n        require(IERC20(drcAddress).allowance(msg.sender, address(this)) >= drcAmount, \"Contract is not allowed to spend user's DRC.\");\n        require(IERC20(drcAddress).balanceOf(msg.sender) >= drcAmount, \"Attempted to deposit more than balance.\");\n\n        SafeERC20.safeTransferFrom(IERC20(drcAddress), msg.sender, address(this), drcAmount);\n\n        uint256 swapPriceImpact = depositPriceImpact(drcAmount);\n        uint256 feeImpact = (_feeFraction * 10000) / (_feeBase + _feeFraction);\n        require(swapPriceImpact <= 100 + feeImpact, \"Price impact on this swap is larger than 1% plus fee percentage.\");\n\n        // Get current unit price before adding tokens to vault\n        uint256 currentPodUnitPrice = getProofOfDepositPrice();\n\n        uint256 ethConverted = _convertTokenToEth(drcAmount, drcAddress, deadline);\n        _convertEthToStrategyTokens(ethConverted, deadline);\n\n        uint256 podToMint = 0;\n        if (totalSupply() == 0) {\n            podToMint = drcAmount.mul(1e15);\n        } else {\n            uint256 vaultTotalInEth = _getEthAmountByStrategyTokensAmount(totalTokenStored(), true);\n            uint256 newPodTotal = vaultTotalInEth.mul(1e18).div(currentPodUnitPrice);\n            podToMint = newPodTotal.sub(totalSupply());\n        }\n\n        _mint(msg.sender, podToMint);\n\n        emit Deposit(msg.sender, drcAmount, podToMint, totalSupply(), totalTokenStored());\n    }\n\n    /**\n     * @dev See {IDigitalReserve-withdrawDrc}.\n     */\n    function withdrawDrc(uint256 drcAmount, uint32 deadline) external override {\n        address[] memory path = new address[](2);\n        path[0] = uniswapRouter.WETH();\n        path[1] = drcAddress;\n\n        uint256 ethNeeded = uniswapRouter.getAmountsIn(drcAmount, path)[0];\n        uint256 ethNeededPlusFee = ethNeeded.mul(_feeBase + _feeFraction).div(_feeBase);\n\n        uint256[] memory userStrategyTokens = _getStrategyTokensByPodAmount(balanceOf(msg.sender));\n        uint256 userVaultWorth = _getEthAmountByStrategyTokensAmount(userStrategyTokens, false);\n\n        require(userVaultWorth >= ethNeededPlusFee, \"Attempt to withdraw more than user's holding.\");\n\n        uint256 amountFraction = ethNeededPlusFee.mul(1e10).div(userVaultWorth);\n        uint256 podToBurn = balanceOf(msg.sender).mul(amountFraction).div(1e10);\n\n        _withdrawProofOfDeposit(podToBurn, deadline);\n    }\n\n    /**\n     * @dev See {IDigitalReserve-withdrawPercentage}.\n     */\n    function withdrawPercentage(uint8 percentage, uint32 deadline) external override {\n        require(percentage <= 100, \"Attempt to withdraw more than 100% of the asset\");\n\n        uint256 podToBurn = balanceOf(msg.sender).mul(percentage).div(100);\n        _withdrawProofOfDeposit(podToBurn, deadline);\n    }\n\n    /**\n     * @dev Enable or disable deposit.\n     * @param status Deposit allowed or not\n     * Disable deposit if it is to protect users' fund if there's any security issue or assist DR upgrade.\n     */\n    function changeDepositStatus(bool status) external onlyOwner {\n        depositEnabled = status;\n    }\n\n    /**\n     * @dev Change withdrawal fee percentage.\n     * If 1%, then input (1,100)\n     * If 0.5%, then input (5,1000)\n     * @param withdrawalFeeFraction_ Fraction of withdrawal fee based on withdrawalFeeBase_\n     * @param withdrawalFeeBase_ Fraction of withdrawal fee base\n     */\n    function changeFee(uint8 withdrawalFeeFraction_, uint8 withdrawalFeeBase_) external onlyOwner {\n        require(withdrawalFeeFraction_ <= withdrawalFeeBase_, \"Fee fraction exceeded base.\");\n        uint8 percentage = (withdrawalFeeFraction_ * 100) / withdrawalFeeBase_;\n        require(percentage <= 2, \"Attempt to set percentage higher than 2%.\"); // Requested by community\n\n        _feeFraction = withdrawalFeeFraction_;\n        _feeBase = withdrawalFeeBase_;\n    }\n\n    /**\n     * @dev Set or change DR strategy tokens and allocations.\n     * @param strategyTokens_ Array of strategy tokens.\n     * @param tokenPercentage_ Array of strategy tokens' percentage allocations.\n     * @param deadline Unix timestamp after which the transaction will revert.\n     */\n    function changeStrategy(\n        address[] calldata strategyTokens_,\n        uint8[] calldata tokenPercentage_,\n        uint32 deadline\n    ) external onlyOwner {\n        require(strategyTokens_.length >= 1, \"Setting strategy to 0 tokens.\");\n        require(strategyTokens_.length <= 5, \"Setting strategy to more than 5 tokens.\");\n        require(strategyTokens_.length == tokenPercentage_.length, \"Strategy tokens length doesn't match token percentage length.\");\n\n        uint8 totalPercentage = 0;\n        for (uint8 i = 0; i < tokenPercentage_.length; i++) {\n            totalPercentage += tokenPercentage_[i];\n        }\n        require(totalPercentage == 100, \"Total token percentage is not 100%.\");\n\n        address[] memory oldTokens = new address[](_strategyTokenCount);\n        uint8[] memory oldPercentage = new uint8[](_strategyTokenCount);\n        for (uint8 i = 0; i < _strategyTokenCount; i++) {\n            oldTokens[i] = _strategyTokens[i].tokenAddress;\n            oldPercentage[i] = _strategyTokens[i].tokenPercentage;\n        }\n\n        // Before mutate strategyTokens, convert current strategy tokens to ETH\n        uint256 ethConverted = _convertStrategyTokensToEth(totalTokenStored(), deadline);\n\n        _strategyTokenCount = strategyTokens_.length;\n        for (uint8 i = 0; i < _strategyTokenCount; i++) {\n            _strategyTokens[i] = StategyToken(strategyTokens_[i], tokenPercentage_[i]);\n        }\n\n        _convertEthToStrategyTokens(ethConverted, deadline);\n\n        emit StrategyChange(oldTokens, oldPercentage, strategyTokens_, tokenPercentage_, totalTokenStored());\n    }\n\n    /**\n     * @dev Realigning the weighting of a portfolio of assets to the strategy allocation that is defined.\n     * Only convert the amount that's necessory to convert to not be charged 0.3% uniswap fee for everything.\n     * This in total saves 0.6% fee for majority of the assets.\n     * @param deadline Unix timestamp after which the transaction will revert.\n     */\n    function rebalance(uint32 deadline) external onlyOwner {\n        require(_strategyTokenCount > 0, \"Strategy hasn't been set\");\n\n        // Get each tokens worth and the total worth in ETH\n        uint256 totalWorthInEth = 0;\n        uint256[] memory tokensWorthInEth = new uint256[](_strategyTokenCount);\n\n        for (uint8 i = 0; i < _strategyTokenCount; i++) {\n            address currentToken = _strategyTokens[i].tokenAddress;\n            uint256 tokenWorth = _getEthAmountByTokenAmount(IERC20(currentToken).balanceOf(address(this)), currentToken, true);\n            totalWorthInEth = totalWorthInEth.add(tokenWorth);\n            tokensWorthInEth[i] = tokenWorth;\n        }\n\n        address[] memory strategyTokensArray = new address[](_strategyTokenCount); // Get percentages for event param\n        uint8[] memory percentageArray = new uint8[](_strategyTokenCount); // Get percentages for event param\n        uint256 totalInEthToConvert = 0; // Get total token worth in ETH needed to be converted\n        uint256 totalEthConverted = 0; // Get total token worth in ETH needed to be converted\n        uint256[] memory tokenInEthNeeded = new uint256[](_strategyTokenCount); // Get token worth need to be filled\n\n        for (uint8 i = 0; i < _strategyTokenCount; i++) {\n            strategyTokensArray[i] =  _strategyTokens[i].tokenAddress;\n            percentageArray[i] = _strategyTokens[i].tokenPercentage;\n\n            uint256 tokenShouldWorth = totalWorthInEth.mul(_strategyTokens[i].tokenPercentage).div(100);\n\n            if (tokensWorthInEth[i] <= tokenShouldWorth) {\n                // If token worth less than should be, calculate the diff and store as needed\n                tokenInEthNeeded[i] = tokenShouldWorth.sub(tokensWorthInEth[i]);\n                totalInEthToConvert = totalInEthToConvert.add(tokenInEthNeeded[i]);\n            } else {\n                tokenInEthNeeded[i] = 0;\n\n                // If token worth more than should be, convert the overflowed amount to ETH\n                uint256 tokenInEthOverflowed = tokensWorthInEth[i].sub(tokenShouldWorth);\n                uint256 tokensToConvert = _getTokenAmountByEthAmount(tokenInEthOverflowed, _strategyTokens[i].tokenAddress, true);\n                uint256 ethConverted = _convertTokenToEth(tokensToConvert, _strategyTokens[i].tokenAddress, deadline);\n                totalEthConverted = totalEthConverted.add(ethConverted);\n            }\n            // Need the total value to help calculate how to distributed the converted ETH\n        }\n\n        // Distribute newly converted ETH by portion of each token to be converted to, and convert to that token needed.\n        // Note: totalEthConverted would be a bit smaller than totalInEthToConvert due to Uniswap fee.\n        // Converting everything is another way of rebalancing, but Uniswap would take 0.6% fee on everything.\n        // In this method we reach the closest number with the lowest possible swapping fee.\n        for (uint8 i = 0; i < _strategyTokenCount; i++) {\n            uint256 ethToConvert = totalEthConverted.mul(tokenInEthNeeded[i]).div(totalInEthToConvert);\n            _convertEthToToken(ethToConvert, _strategyTokens[i].tokenAddress, deadline);\n        }\n\n        emit Rebalance(strategyTokensArray, percentageArray, totalTokenStored());\n    }\n\n    /**\n     * @dev Withdraw DRC by DR-POD amount to burn.\n     * @param podToBurn Amount of DR-POD to burn in exchange for DRC.\n     * @param deadline Unix timestamp after which the transaction will revert.\n     */\n    function _withdrawProofOfDeposit(uint256 podToBurn, uint32 deadline) private {\n        uint256[] memory strategyTokensToWithdraw = _getStrategyTokensByPodAmount(podToBurn);\n\n        _burn(msg.sender, podToBurn);\n\n        uint256 ethConverted = _convertStrategyTokensToEth(strategyTokensToWithdraw, deadline);\n        uint256 fees = ethConverted.mul(_feeFraction).div(_feeBase + _feeFraction);\n\n        uint256 drcAmount = _convertEthToToken(ethConverted.sub(fees), drcAddress, deadline);\n\n        SafeERC20.safeTransfer(IERC20(drcAddress), msg.sender, drcAmount);\n        SafeERC20.safeTransfer(IERC20(uniswapRouter.WETH()), owner(), fees);\n\n        emit Withdraw(msg.sender, drcAmount, fees, podToBurn, totalSupply(), totalTokenStored());\n    }\n\n    /**\n     * @dev Get ETH worth of a certain amount of a token.\n     * @param _amount Amount of token to convert.\n     * @param _fromAddress Address of token to convert from.\n     * @param _toAddress Address of token to convert to.\n     * @param excludeFees If uniswap fees is considered.\n     */\n    function _getAAmountByBAmount(\n        uint256 _amount,\n        address _fromAddress,\n        address _toAddress,\n        bool excludeFees\n    ) private view returns (uint256) {\n        address[] memory path = new address[](2);\n        path[0] = _fromAddress;\n        path[1] = _toAddress;\n\n        if (path[0] == path[1] || _amount == 0) {\n            return _amount;\n        }\n\n        uint256 amountOut = uniswapRouter.getAmountsOut(_amount, path)[1];\n\n        if (excludeFees) {\n            return amountOut.mul(1000).div(997);\n        } else {\n            return amountOut;\n        }\n    }\n\n    /**\n     * @dev Get the worth in a token of a certain amount of ETH.\n     * @param _amount Amount of ETH to convert.\n     * @param _tokenAddress Address of the token to convert to.\n     * @param excludeFees If uniswap fees is considered.\n     */\n    function _getTokenAmountByEthAmount(\n        uint256 _amount,\n        address _tokenAddress,\n        bool excludeFees\n    ) private view returns (uint256) {\n        return _getAAmountByBAmount(_amount, uniswapRouter.WETH(), _tokenAddress, excludeFees);\n    }\n\n    /**\n     * @dev Get ETH worth of a certain amount of a token.\n     * @param _amount Amount of token to convert.\n     * @param _tokenAddress Address of token to convert from.\n     * @param excludeFees If uniswap fees is considered.\n     */\n    function _getEthAmountByTokenAmount(\n        uint256 _amount,\n        address _tokenAddress,\n        bool excludeFees\n    ) private view returns (uint256) {\n        return _getAAmountByBAmount(_amount, _tokenAddress, uniswapRouter.WETH(), excludeFees);\n    }\n\n    /**\n     * @dev Get ETH worth of an array of strategy tokens.\n     * @param strategyTokensBalance_ Array amounts of strategy tokens to convert.\n     * @param excludeFees If uniswap fees is considered.\n     */\n    function _getEthAmountByStrategyTokensAmount(\n        uint256[] memory strategyTokensBalance_, \n        bool excludeFees\n    ) private view returns (uint256) {\n        uint256 amountOut = 0;\n        address[] memory path = new address[](2);\n        path[1] = uniswapRouter.WETH();\n\n        for (uint8 i = 0; i < _strategyTokenCount; i++) {\n            address tokenAddress = _strategyTokens[i].tokenAddress;\n            path[0] = tokenAddress;\n            uint256 tokenAmount = strategyTokensBalance_[i];\n            uint256 tokenAmountInEth = _getEthAmountByTokenAmount(tokenAmount, tokenAddress, excludeFees);\n\n            amountOut = amountOut.add(tokenAmountInEth);\n        }\n        return amountOut;\n    }\n\n    /**\n     * @dev Get DR-POD worth in an array of strategy tokens.\n     * @param _amount Amount of DR-POD to convert.\n     */\n    function _getStrategyTokensByPodAmount(uint256 _amount) private view returns (uint256[] memory) {\n        uint256[] memory strategyTokenAmount = new uint256[](_strategyTokenCount);\n\n        uint256 podFraction = _amount.mul(1e10).div(totalSupply());\n        for (uint8 i = 0; i < _strategyTokenCount; i++) {\n            strategyTokenAmount[i] = IERC20(_strategyTokens[i].tokenAddress).balanceOf(address(this)).mul(podFraction).div(1e10);\n        }\n        return strategyTokenAmount;\n    }\n\n    /**\n     * @dev Get price impact when swap ETH to a token via the Uniswap router.\n     * @param _amount Amount of eth to swap.\n     * @param _tokenAddress Address of token to swap to.\n     */\n    function _getEthToTokenPriceImpact(uint256 _amount, address _tokenAddress) private view returns (uint256) {\n        address factory = uniswapRouter.factory();\n        address pair = IUniswapV2Factory(factory).getPair(uniswapRouter.WETH(), _tokenAddress);\n        (uint256 reserve0, uint256 reserve1, ) = IUniswapV2Pair(pair).getReserves();\n        uint256 reserveEth = 0;\n        if(IUniswapV2Pair(pair).token0() == uniswapRouter.WETH()) {\n            reserveEth = reserve0;\n        } else {\n            reserveEth = reserve1;\n        }\n        return 10000 - reserveEth.mul(10000).div(reserveEth.add(_amount));\n    }\n\n    /**\n     * @dev Get price impact when swap ETH to strategy tokens via the Uniswap router.\n     * @param _amount Amount of eth to swap.\n     */\n    function _getEthToStrategyTokensPriceImpact(uint256 _amount) private view returns (uint256) {\n        uint256 priceImpact = 0;\n        for (uint8 i = 0; i < _strategyTokenCount; i++) {\n            uint8 tokenPercentage = _strategyTokens[i].tokenPercentage;\n            uint256 amountToConvert = _amount.mul(tokenPercentage).div(100);\n            uint256 tokenSwapPriceImpact = _getEthToTokenPriceImpact(amountToConvert, _strategyTokens[i].tokenAddress);\n            priceImpact = priceImpact.add(tokenSwapPriceImpact.mul(tokenPercentage).div(100));\n        }\n        return priceImpact;\n    }\n\n    /**\n     * @dev Convert a token to WETH via the Uniswap router.\n     * @param _amount Amount of tokens to swap.\n     * @param _tokenAddress Address of token to swap.\n     * @param deadline Unix timestamp after which the transaction will revert.\n     */\n    function _convertTokenToEth(\n        uint256 _amount,\n        address _tokenAddress,\n        uint32 deadline\n    ) private returns (uint256) {\n        if (_tokenAddress == uniswapRouter.WETH() || _amount == 0) {\n            return _amount;\n        }\n        address[] memory path = new address[](2);\n        path[0] = _tokenAddress;\n        path[1] = uniswapRouter.WETH();\n        SafeERC20.safeApprove(IERC20(path[0]), address(uniswapRouter), _amount);\n        uint256 amountOut = uniswapRouter.getAmountsOut(_amount, path)[1];\n        uniswapRouter.swapExactTokensForTokens(_amount, amountOut, path, address(this), deadline);\n        return amountOut;\n    }\n\n    /**\n     * @dev Convert ETH to another token via the Uniswap router.\n     * @param _amount Amount of WETH to swap.\n     * @param _tokenAddress Address of token to swap to.\n     * @param deadline Unix timestamp after which the transaction will revert.\n     */\n    function _convertEthToToken(\n        uint256 _amount,\n        address _tokenAddress,\n        uint32 deadline\n    ) private returns (uint256) {\n        if (_tokenAddress == uniswapRouter.WETH() || _amount == 0) {\n            return _amount;\n        }\n        address[] memory path = new address[](2);\n        path[0] = uniswapRouter.WETH();\n        path[1] = _tokenAddress;\n        SafeERC20.safeApprove(IERC20(path[0]), address(uniswapRouter), _amount);\n        uint256 amountOut = uniswapRouter.getAmountsOut(_amount, path)[1];\n        uniswapRouter.swapExactTokensForTokens(_amount, amountOut, path, address(this), deadline);\n        return amountOut;\n    }\n\n    /**\n     * @dev Convert ETH to strategy tokens of DR in their allocation percentage.\n     * @param amount Amount of WETH to swap.\n     * @param deadline Unix timestamp after which the transaction will revert.\n     */\n    function _convertEthToStrategyTokens(\n        uint256 amount, \n        uint32 deadline\n    ) private returns (uint256[] memory) {\n        for (uint8 i = 0; i < _strategyTokenCount; i++) {\n            uint256 amountToConvert = amount.mul(_strategyTokens[i].tokenPercentage).div(100);\n            _convertEthToToken(amountToConvert, _strategyTokens[i].tokenAddress, deadline);\n        }\n    }\n\n    /**\n     * @dev Convert strategy tokens to WETH.\n     * @param amountToConvert Array of the amounts of strategy tokens to swap.\n     * @param deadline Unix timestamp after which the transaction will revert.\n     */\n    function _convertStrategyTokensToEth(\n        uint256[] memory amountToConvert, \n        uint32 deadline\n    ) private returns (uint256) {\n        uint256 ethConverted = 0;\n        for (uint8 i = 0; i < _strategyTokenCount; i++) {\n            uint256 amountConverted = _convertTokenToEth(amountToConvert[i], _strategyTokens[i].tokenAddress, deadline);\n            ethConverted = ethConverted.add(amountConverted);\n        }\n        return ethConverted;\n    }\n}\n",
  "sourcePath": "/Users/fayexue/if-x-github/digital-reserve/contracts/DigitalReserve.sol",
  "compiler": {
    "name": "solc",
    "version": "0.6.12+commit.27d51765.Emscripten.clang"
  },
  "schemaVersion": "3.3.3",
  "updatedAt": "2021-02-11T05:18:25.095Z",
  "networkType": "ethereum",
  "devdoc": {
    "details": "Implementation of Digital Reserve contract. Digital Reserve contract converts user's DRC into a set of SoV assets using the Uniswap router, and hold these assets for it's users. When users initiate a withdrawal action, the contract converts a share of the vault, that the user is requesting, to DRC and sends it back to their wallet.",
    "kind": "dev",
    "methods": {
      "allowance(address,address)": {
        "details": "See {IERC20-allowance}."
      },
      "approve(address,uint256)": {
        "details": "See {IERC20-approve}. Requirements: - `spender` cannot be the zero address."
      },
      "balanceOf(address)": {
        "details": "See {IERC20-balanceOf}."
      },
      "changeDepositStatus(bool)": {
        "details": "Enable or disable deposit.",
        "params": {
          "status": "Deposit allowed or not Disable deposit if it is to protect users' fund if there's any security issue or assist DR upgrade."
        }
      },
      "changeFee(uint8,uint8)": {
        "details": "Change withdrawal fee percentage. If 1%, then input (1,100) If 0.5%, then input (5,1000)",
        "params": {
          "withdrawalFeeBase_": "Fraction of withdrawal fee base",
          "withdrawalFeeFraction_": "Fraction of withdrawal fee based on withdrawalFeeBase_"
        }
      },
      "changeStrategy(address[],uint8[],uint32)": {
        "details": "Set or change DR strategy tokens and allocations.",
        "params": {
          "deadline": "Unix timestamp after which the transaction will revert.",
          "strategyTokens_": "Array of strategy tokens.",
          "tokenPercentage_": "Array of strategy tokens' percentage allocations."
        }
      },
      "constructor": {
        "details": "Set Uniswap router address, DRC token address, DR name."
      },
      "decimals()": {
        "details": "Returns the number of decimals used to get its user representation. For example, if `decimals` equals `2`, a balance of `505` tokens should be displayed to a user as `5,05` (`505 / 10 ** 2`). Tokens usually opt for a value of 18, imitating the relationship between Ether and Wei. This is the value {ERC20} uses, unless {_setupDecimals} is called. NOTE: This information is only used for _display_ purposes: it in no way affects any of the arithmetic of the contract, including {IERC20-balanceOf} and {IERC20-transfer}."
      },
      "decreaseAllowance(address,uint256)": {
        "details": "Atomically decreases the allowance granted to `spender` by the caller. This is an alternative to {approve} that can be used as a mitigation for problems described in {IERC20-approve}. Emits an {Approval} event indicating the updated allowance. Requirements: - `spender` cannot be the zero address. - `spender` must have allowance for the caller of at least `subtractedValue`."
      },
      "depositDrc(uint256,uint32)": {
        "details": "See {IDigitalReserve-depositDrc}."
      },
      "depositPriceImpact(uint256)": {
        "details": "See {IDigitalReserve-depositPriceImpact}."
      },
      "getProofOfDepositPrice()": {
        "details": "See {IDigitalReserve-getProofOfDepositPrice}."
      },
      "getUserVaultInDrc(address,uint8)": {
        "details": "See {IDigitalReserve-getUserVaultInDrc}."
      },
      "increaseAllowance(address,uint256)": {
        "details": "Atomically increases the allowance granted to `spender` by the caller. This is an alternative to {approve} that can be used as a mitigation for problems described in {IERC20-approve}. Emits an {Approval} event indicating the updated allowance. Requirements: - `spender` cannot be the zero address."
      },
      "name()": {
        "details": "Returns the name of the token."
      },
      "owner()": {
        "details": "Returns the address of the current owner."
      },
      "priceDecimals()": {
        "details": "See {IDigitalReserve-priceDecimals}."
      },
      "rebalance(uint32)": {
        "details": "Realigning the weighting of a portfolio of assets to the strategy allocation that is defined. Only convert the amount that's necessory to convert to not be charged 0.3% uniswap fee for everything. This in total saves 0.6% fee for majority of the assets.",
        "params": {
          "deadline": "Unix timestamp after which the transaction will revert."
        }
      },
      "renounceOwnership()": {
        "details": "Leaves the contract without owner. It will not be possible to call `onlyOwner` functions anymore. Can only be called by the current owner. NOTE: Renouncing ownership will leave the contract without an owner, thereby removing any functionality that is only available to the owner."
      },
      "strategyTokenCount()": {
        "details": "See {IDigitalReserve-strategyTokenCount}."
      },
      "strategyTokens(uint8)": {
        "details": "See {IDigitalReserve-strategyTokens}."
      },
      "symbol()": {
        "details": "Returns the symbol of the token, usually a shorter version of the name."
      },
      "totalSupply()": {
        "details": "See {IERC20-totalSupply}."
      },
      "totalTokenStored()": {
        "details": "See {IDigitalReserve-totalTokenStored}."
      },
      "transfer(address,uint256)": {
        "details": "See {IERC20-transfer}. Requirements: - `recipient` cannot be the zero address. - the caller must have a balance of at least `amount`."
      },
      "transferFrom(address,address,uint256)": {
        "details": "See {IERC20-transferFrom}. Emits an {Approval} event indicating the updated allowance. This is not required by the EIP. See the note at the beginning of {ERC20}. Requirements: - `sender` and `recipient` cannot be the zero address. - `sender` must have a balance of at least `amount`. - the caller must have allowance for ``sender``'s tokens of at least `amount`."
      },
      "transferOwnership(address)": {
        "details": "Transfers ownership of the contract to a new account (`newOwner`). Can only be called by the current owner."
      },
      "withdrawDrc(uint256,uint32)": {
        "details": "See {IDigitalReserve-withdrawDrc}."
      },
      "withdrawPercentage(uint8,uint32)": {
        "details": "See {IDigitalReserve-withdrawPercentage}."
      },
      "withdrawalFee()": {
        "details": "See {IDigitalReserve-withdrawalFee}."
      }
    },
    "version": 1
  },
  "userdoc": {
    "kind": "user",
    "methods": {},
    "version": 1
  }
}