{
  "contractName": "DigitalReserve",
  "abi": [
    {
      "inputs": [
        {
          "internalType": "address",
          "name": "_router",
          "type": "address"
        },
        {
          "internalType": "address",
          "name": "_drcAddress",
          "type": "address"
        },
        {
          "internalType": "string",
          "name": "_name",
          "type": "string"
        }
      ],
      "stateMutability": "nonpayable",
      "type": "constructor"
    },
    {
      "anonymous": false,
      "inputs": [
        {
          "indexed": true,
          "internalType": "address",
          "name": "owner",
          "type": "address"
        },
        {
          "indexed": true,
          "internalType": "address",
          "name": "spender",
          "type": "address"
        },
        {
          "indexed": false,
          "internalType": "uint256",
          "name": "value",
          "type": "uint256"
        }
      ],
      "name": "Approval",
      "type": "event"
    },
    {
      "anonymous": false,
      "inputs": [
        {
          "indexed": true,
          "internalType": "address",
          "name": "user",
          "type": "address"
        },
        {
          "indexed": false,
          "internalType": "uint256",
          "name": "amount",
          "type": "uint256"
        },
        {
          "indexed": false,
          "internalType": "uint256",
          "name": "podMinted",
          "type": "uint256"
        },
        {
          "indexed": false,
          "internalType": "uint256",
          "name": "podTotalSupply",
          "type": "uint256"
        },
        {
          "indexed": false,
          "internalType": "uint256[]",
          "name": "tokensStored",
          "type": "uint256[]"
        }
      ],
      "name": "Deposit",
      "type": "event"
    },
    {
      "anonymous": false,
      "inputs": [
        {
          "indexed": true,
          "internalType": "address",
          "name": "previousOwner",
          "type": "address"
        },
        {
          "indexed": true,
          "internalType": "address",
          "name": "newOwner",
          "type": "address"
        }
      ],
      "name": "OwnershipTransferred",
      "type": "event"
    },
    {
      "anonymous": false,
      "inputs": [
        {
          "indexed": false,
          "internalType": "address[]",
          "name": "strategyTokens",
          "type": "address[]"
        },
        {
          "indexed": false,
          "internalType": "uint8[]",
          "name": "tokenPercentage",
          "type": "uint8[]"
        },
        {
          "indexed": false,
          "internalType": "uint256[]",
          "name": "tokensStored",
          "type": "uint256[]"
        }
      ],
      "name": "Rebalance",
      "type": "event"
    },
    {
      "anonymous": false,
      "inputs": [
        {
          "indexed": false,
          "internalType": "address[]",
          "name": "oldTokens",
          "type": "address[]"
        },
        {
          "indexed": false,
          "internalType": "uint8[]",
          "name": "oldPercentage",
          "type": "uint8[]"
        },
        {
          "indexed": false,
          "internalType": "address[]",
          "name": "newTokens",
          "type": "address[]"
        },
        {
          "indexed": false,
          "internalType": "uint8[]",
          "name": "newPercentage",
          "type": "uint8[]"
        },
        {
          "indexed": false,
          "internalType": "uint256[]",
          "name": "tokensStored",
          "type": "uint256[]"
        }
      ],
      "name": "StrategyChange",
      "type": "event"
    },
    {
      "anonymous": false,
      "inputs": [
        {
          "indexed": true,
          "internalType": "address",
          "name": "from",
          "type": "address"
        },
        {
          "indexed": true,
          "internalType": "address",
          "name": "to",
          "type": "address"
        },
        {
          "indexed": false,
          "internalType": "uint256",
          "name": "value",
          "type": "uint256"
        }
      ],
      "name": "Transfer",
      "type": "event"
    },
    {
      "anonymous": false,
      "inputs": [
        {
          "indexed": true,
          "internalType": "address",
          "name": "user",
          "type": "address"
        },
        {
          "indexed": false,
          "internalType": "uint256",
          "name": "amount",
          "type": "uint256"
        },
        {
          "indexed": false,
          "internalType": "uint256",
          "name": "fees",
          "type": "uint256"
        },
        {
          "indexed": false,
          "internalType": "uint256",
          "name": "podBurned",
          "type": "uint256"
        },
        {
          "indexed": false,
          "internalType": "uint256",
          "name": "podTotalSupply",
          "type": "uint256"
        },
        {
          "indexed": false,
          "internalType": "uint256[]",
          "name": "tokensStored",
          "type": "uint256[]"
        }
      ],
      "name": "Withdraw",
      "type": "event"
    },
    {
      "inputs": [
        {
          "internalType": "address",
          "name": "owner",
          "type": "address"
        },
        {
          "internalType": "address",
          "name": "spender",
          "type": "address"
        }
      ],
      "name": "allowance",
      "outputs": [
        {
          "internalType": "uint256",
          "name": "",
          "type": "uint256"
        }
      ],
      "stateMutability": "view",
      "type": "function"
    },
    {
      "inputs": [
        {
          "internalType": "address",
          "name": "spender",
          "type": "address"
        },
        {
          "internalType": "uint256",
          "name": "amount",
          "type": "uint256"
        }
      ],
      "name": "approve",
      "outputs": [
        {
          "internalType": "bool",
          "name": "",
          "type": "bool"
        }
      ],
      "stateMutability": "nonpayable",
      "type": "function"
    },
    {
      "inputs": [
        {
          "internalType": "address",
          "name": "account",
          "type": "address"
        }
      ],
      "name": "balanceOf",
      "outputs": [
        {
          "internalType": "uint256",
          "name": "",
          "type": "uint256"
        }
      ],
      "stateMutability": "view",
      "type": "function"
    },
    {
      "inputs": [],
      "name": "decimals",
      "outputs": [
        {
          "internalType": "uint8",
          "name": "",
          "type": "uint8"
        }
      ],
      "stateMutability": "view",
      "type": "function"
    },
    {
      "inputs": [
        {
          "internalType": "address",
          "name": "spender",
          "type": "address"
        },
        {
          "internalType": "uint256",
          "name": "subtractedValue",
          "type": "uint256"
        }
      ],
      "name": "decreaseAllowance",
      "outputs": [
        {
          "internalType": "bool",
          "name": "",
          "type": "bool"
        }
      ],
      "stateMutability": "nonpayable",
      "type": "function"
    },
    {
      "inputs": [
        {
          "internalType": "address",
          "name": "spender",
          "type": "address"
        },
        {
          "internalType": "uint256",
          "name": "addedValue",
          "type": "uint256"
        }
      ],
      "name": "increaseAllowance",
      "outputs": [
        {
          "internalType": "bool",
          "name": "",
          "type": "bool"
        }
      ],
      "stateMutability": "nonpayable",
      "type": "function"
    },
    {
      "inputs": [],
      "name": "name",
      "outputs": [
        {
          "internalType": "string",
          "name": "",
          "type": "string"
        }
      ],
      "stateMutability": "view",
      "type": "function"
    },
    {
      "inputs": [],
      "name": "owner",
      "outputs": [
        {
          "internalType": "address",
          "name": "",
          "type": "address"
        }
      ],
      "stateMutability": "view",
      "type": "function"
    },
    {
      "inputs": [],
      "name": "renounceOwnership",
      "outputs": [],
      "stateMutability": "nonpayable",
      "type": "function"
    },
    {
      "inputs": [],
      "name": "symbol",
      "outputs": [
        {
          "internalType": "string",
          "name": "",
          "type": "string"
        }
      ],
      "stateMutability": "view",
      "type": "function"
    },
    {
      "inputs": [],
      "name": "totalSupply",
      "outputs": [
        {
          "internalType": "uint256",
          "name": "",
          "type": "uint256"
        }
      ],
      "stateMutability": "view",
      "type": "function"
    },
    {
      "inputs": [
        {
          "internalType": "address",
          "name": "recipient",
          "type": "address"
        },
        {
          "internalType": "uint256",
          "name": "amount",
          "type": "uint256"
        }
      ],
      "name": "transfer",
      "outputs": [
        {
          "internalType": "bool",
          "name": "",
          "type": "bool"
        }
      ],
      "stateMutability": "nonpayable",
      "type": "function"
    },
    {
      "inputs": [
        {
          "internalType": "address",
          "name": "sender",
          "type": "address"
        },
        {
          "internalType": "address",
          "name": "recipient",
          "type": "address"
        },
        {
          "internalType": "uint256",
          "name": "amount",
          "type": "uint256"
        }
      ],
      "name": "transferFrom",
      "outputs": [
        {
          "internalType": "bool",
          "name": "",
          "type": "bool"
        }
      ],
      "stateMutability": "nonpayable",
      "type": "function"
    },
    {
      "inputs": [
        {
          "internalType": "address",
          "name": "newOwner",
          "type": "address"
        }
      ],
      "name": "transferOwnership",
      "outputs": [],
      "stateMutability": "nonpayable",
      "type": "function"
    },
    {
      "inputs": [],
      "name": "strategyTokenCount",
      "outputs": [
        {
          "internalType": "uint256",
          "name": "",
          "type": "uint256"
        }
      ],
      "stateMutability": "view",
      "type": "function"
    },
    {
      "inputs": [
        {
          "internalType": "uint8",
          "name": "index",
          "type": "uint8"
        }
      ],
      "name": "strategyTokens",
      "outputs": [
        {
          "internalType": "address",
          "name": "",
          "type": "address"
        },
        {
          "internalType": "uint8",
          "name": "",
          "type": "uint8"
        }
      ],
      "stateMutability": "view",
      "type": "function"
    },
    {
      "inputs": [],
      "name": "withdrawalFee",
      "outputs": [
        {
          "internalType": "uint8",
          "name": "",
          "type": "uint8"
        },
        {
          "internalType": "uint8",
          "name": "",
          "type": "uint8"
        }
      ],
      "stateMutability": "view",
      "type": "function"
    },
    {
      "inputs": [],
      "name": "priceDecimals",
      "outputs": [
        {
          "internalType": "uint8",
          "name": "",
          "type": "uint8"
        }
      ],
      "stateMutability": "view",
      "type": "function"
    },
    {
      "inputs": [],
      "name": "totalTokenStored",
      "outputs": [
        {
          "internalType": "uint256[]",
          "name": "",
          "type": "uint256[]"
        }
      ],
      "stateMutability": "view",
      "type": "function"
    },
    {
      "inputs": [
        {
          "internalType": "address",
          "name": "user",
          "type": "address"
        },
        {
          "internalType": "uint8",
          "name": "percentage",
          "type": "uint8"
        }
      ],
      "name": "getUserVaultInDrc",
      "outputs": [
        {
          "internalType": "uint256",
          "name": "",
          "type": "uint256"
        },
        {
          "internalType": "uint256",
          "name": "",
          "type": "uint256"
        },
        {
          "internalType": "uint256",
          "name": "",
          "type": "uint256"
        }
      ],
      "stateMutability": "view",
      "type": "function"
    },
    {
      "inputs": [],
      "name": "getProofOfDepositPrice",
      "outputs": [
        {
          "internalType": "uint256",
          "name": "",
          "type": "uint256"
        }
      ],
      "stateMutability": "view",
      "type": "function"
    },
    {
      "inputs": [
        {
          "internalType": "uint256",
          "name": "drcAmount",
          "type": "uint256"
        },
        {
          "internalType": "uint32",
          "name": "deadline",
          "type": "uint32"
        }
      ],
      "name": "depositDrc",
      "outputs": [],
      "stateMutability": "nonpayable",
      "type": "function"
    },
    {
      "inputs": [
        {
          "internalType": "uint256",
          "name": "drcAmount",
          "type": "uint256"
        },
        {
          "internalType": "uint32",
          "name": "deadline",
          "type": "uint32"
        }
      ],
      "name": "withdrawDrc",
      "outputs": [],
      "stateMutability": "nonpayable",
      "type": "function"
    },
    {
      "inputs": [
        {
          "internalType": "uint8",
          "name": "percentage",
          "type": "uint8"
        },
        {
          "internalType": "uint32",
          "name": "deadline",
          "type": "uint32"
        }
      ],
      "name": "withdrawPercentage",
      "outputs": [],
      "stateMutability": "nonpayable",
      "type": "function"
    },
    {
      "inputs": [
        {
          "internalType": "bool",
          "name": "status",
          "type": "bool"
        }
      ],
      "name": "changeDepositStatus",
      "outputs": [],
      "stateMutability": "nonpayable",
      "type": "function"
    },
    {
      "inputs": [
        {
          "internalType": "uint8",
          "name": "withdrawalFeeFraction_",
          "type": "uint8"
        },
        {
          "internalType": "uint8",
          "name": "withdrawalFeeBase_",
          "type": "uint8"
        }
      ],
      "name": "changeFee",
      "outputs": [],
      "stateMutability": "nonpayable",
      "type": "function"
    },
    {
      "inputs": [
        {
          "internalType": "address[]",
          "name": "strategyTokens_",
          "type": "address[]"
        },
        {
          "internalType": "uint8[]",
          "name": "tokenPercentage_",
          "type": "uint8[]"
        },
        {
          "internalType": "uint32",
          "name": "deadline",
          "type": "uint32"
        }
      ],
      "name": "changeStrategy",
      "outputs": [],
      "stateMutability": "nonpayable",
      "type": "function"
    },
    {
      "inputs": [
        {
          "internalType": "uint32",
          "name": "deadline",
          "type": "uint32"
        }
      ],
      "name": "rebalance",
      "outputs": [],
      "stateMutability": "nonpayable",
      "type": "function"
    }
  ],
  "bytecode": "0x60a060405260088054600160ff199091161761ff0019166164001760ff60b01b191690553480156200003057600080fd5b50604051620050bf380380620050bf833981810160405260608110156200005657600080fd5b815160208301516040808501805191519395929483019291846401000000008211156200008257600080fd5b9083019060208201858111156200009857600080fd5b8251640100000000811182820188101715620000b357600080fd5b82525081516020918201929091019080838360005b83811015620000e2578181015183820152602001620000c8565b50505050905090810190601f168015620001105780820380516001836020036101000a031916815260200191505b5060408181019052600681526511148b5413d160d21b60208083019190915285518695509193506200014a92506003919085019062000217565b5080516200016090600490602084019062000217565b50506005805460ff191660121790555060006200017c62000213565b60058054610100600160a81b0319166101006001600160a01b03841690810291909117909155604051919250906000907f8be0079c531659141344cd1fd0a4f28419497f9722a3daafe3b4186f6b6457e0908290a350506008805462010000600160b01b031916620100006001600160a01b03939093169290920291909117905560601b6001600160601b031916608052620002b3565b3390565b828054600181600116156101000203166002900490600052602060002090601f016020900481019282601f106200025a57805160ff19168380011785556200028a565b828001600101855582156200028a579182015b828111156200028a5782518255916020019190600101906200026d565b50620002989291506200029c565b5090565b5b808211156200029857600081556001016200029d565b60805160601c614dad6200031260003980610ead5280610fc85280612b7b528061316f5280613299528061338c528061340952806135815280613b885280613cda5280613d825280613e1c5280613efe528061469c5250614dad6000f3fe608060405234801561001057600080fd5b50600436106101c35760003560e01c8063715018a6116100f9578063a457c2d711610097578063bd80662111610071578063bd806621146106c5578063dd62ed3e1461071d578063df9f856414610758578063f2fde38b14610760576101c3565b8063a457c2d714610634578063a47c12b51461066d578063a9059cbb1461068c576101c3565b80638bc7e8c4116100d35780638bc7e8c4146105085780638da5cb5b1461053357806395d89b4114610564578063a22af8571461056c576101c3565b8063715018a6146104835780637b123c3a1461048b57806380a35fbb146104e5576101c3565b8063313ce567116101665780634c183918116101405780634c183918146103d35780636c3f4e07146103fc5780636f827c341461042457806370a0823114610450576101c3565b8063313ce56714610367578063395093511461036f57806347e6dece146103a8576101c3565b8063095ea7b3116101a2578063095ea7b3146102b557806318160ddd1461030257806318181a9c1461031c57806323b872dd14610324576101c3565b80627865b5146101c857806305300b281461021a57806306fdde0314610238575b600080fd5b6101e8600480360360208110156101de57600080fd5b503560ff16610793565b6040805173ffffffffffffffffffffffffffffffffffffffff909316835260ff90911660208301528051918290030190f35b6102226107de565b6040805160ff9092168252519081900360200190f35b6102406107e3565b6040805160208082528351818301528351919283929083019185019080838360005b8381101561027a578181015183820152602001610262565b50505050905090810190601f1680156102a75780820380516001836020036101000a031916815260200191505b509250505060405180910390f35b6102ee600480360360408110156102cb57600080fd5b5073ffffffffffffffffffffffffffffffffffffffff8135169060200135610897565b604080519115158252519081900360200190f35b61030a6108b5565b60408051918252519081900360200190f35b61030a6108bb565b6102ee6004803603606081101561033a57600080fd5b5073ffffffffffffffffffffffffffffffffffffffff81358116916020810135909116906040013561090a565b6102226109ac565b6102ee6004803603604081101561038557600080fd5b5073ffffffffffffffffffffffffffffffffffffffff81351690602001356109b5565b6103d1600480360360408110156103be57600080fd5b508035906020013563ffffffff16610a10565b005b6103d1600480360360408110156103e957600080fd5b508035906020013563ffffffff16610e8b565b6103d16004803603604081101561041257600080fd5b5060ff81358116916020013516611267565b6103d16004803603604081101561043a57600080fd5b50803560ff16906020013563ffffffff16611447565b61030a6004803603602081101561046657600080fd5b503573ffffffffffffffffffffffffffffffffffffffff166114cc565b6103d16114f4565b6104c7600480360360408110156104a157600080fd5b50803573ffffffffffffffffffffffffffffffffffffffff16906020013560ff166115fe565b60408051938452602084019290925282820152519081900360600190f35b6103d1600480360360208110156104fb57600080fd5b503563ffffffff166116e0565b610510611e06565b604051808360ff1681526020018260ff1681526020019250505060405180910390f35b61053b611e19565b6040805173ffffffffffffffffffffffffffffffffffffffff9092168252519081900360200190f35b610240611e3a565b6103d16004803603606081101561058257600080fd5b81019060208101813564010000000081111561059d57600080fd5b8201836020820111156105af57600080fd5b803590602001918460208302840111640100000000831117156105d157600080fd5b9193909290916020810190356401000000008111156105ef57600080fd5b82018360208201111561060157600080fd5b8035906020019184602083028401116401000000008311171561062357600080fd5b91935091503563ffffffff16611eb9565b6102ee6004803603604081101561064a57600080fd5b5073ffffffffffffffffffffffffffffffffffffffff8135169060200135612596565b6103d16004803603602081101561068357600080fd5b5035151561260b565b6102ee600480360360408110156106a257600080fd5b5073ffffffffffffffffffffffffffffffffffffffff81351690602001356126ed565b6106cd612701565b60408051602080825283518183015283519192839290830191858101910280838360005b838110156107095781810151838201526020016106f1565b505050509050019250505060405180910390f35b61030a6004803603604081101561073357600080fd5b5073ffffffffffffffffffffffffffffffffffffffff8135811691602001351661282f565b61030a612867565b6103d16004803603602081101561077657600080fd5b503573ffffffffffffffffffffffffffffffffffffffff1661286d565b60ff80821660009081526006602052604090205473ffffffffffffffffffffffffffffffffffffffff8116917401000000000000000000000000000000000000000090910416915091565b601290565b60038054604080516020601f60027fffffffffffffffffffffffffffffffffffffffffffffffffffffffffffffffff61010060018816150201909516949094049384018190048102820181019092528281526060939092909183018282801561088d5780601f106108625761010080835404028352916020019161088d565b820191906000526020600020905b81548152906001019060200180831161087057829003601f168201915b5050505050905090565b60006108ab6108a4612a07565b8484612a0b565b5060015b92915050565b60025490565b600080806108c76108b5565b1115610905576109026108d86108b5565b6108fc670de0b6b3a76400006108f66108ef612701565b6001612b52565b90612d26565b90612d99565b90505b905090565b6000610917848484612ddb565b6109a184610923612a07565b61099c85604051806060016040528060288152602001614be16028913973ffffffffffffffffffffffffffffffffffffffff8a1660009081526001602052604081209061096e612a07565b73ffffffffffffffffffffffffffffffffffffffff1681526020810191909152604001600020549190612fab565b612a0b565b5060015b9392505050565b60055460ff1690565b60006108ab6109c2612a07565b8461099c85600160006109d3612a07565b73ffffffffffffffffffffffffffffffffffffffff908116825260208083019390935260409182016000908120918c16815292529020549061305c565b60016007541015610a8257604080517f08c379a000000000000000000000000000000000000000000000000000000000815260206004820152601960248201527f5374726174656779206861736e2774206265656e207365742e00000000000000604482015290519081900360640190fd5b600854760100000000000000000000000000000000000000000000900460ff16610b0d57604080517f08c379a000000000000000000000000000000000000000000000000000000000815260206004820152601460248201527f4465706f7369742069732064697361626c65642e000000000000000000000000604482015290519081900360640190fd5b600854604080517fdd62ed3e0000000000000000000000000000000000000000000000000000000081523360048201523060248201529051849262010000900473ffffffffffffffffffffffffffffffffffffffff169163dd62ed3e916044808301926020929190829003018186803b158015610b8957600080fd5b505afa158015610b9d573d6000803e3d6000fd5b505050506040513d6020811015610bb357600080fd5b50511015610c0c576040517f08c379a000000000000000000000000000000000000000000000000000000000815260040180806020018281038252602c815260200180614d27602c913960400191505060405180910390fd5b600854604080517f70a082310000000000000000000000000000000000000000000000000000000081523360048201529051849262010000900473ffffffffffffffffffffffffffffffffffffffff16916370a08231916024808301926020929190829003018186803b158015610c8257600080fd5b505afa158015610c96573d6000803e3d6000fd5b505050506040513d6020811015610cac57600080fd5b50511015610d05576040517f08c379a0000000000000000000000000000000000000000000000000000000008152600401808060200182810382526027815260200180614a2e6027913960400191505060405180910390fd5b600854610d309062010000900473ffffffffffffffffffffffffffffffffffffffff163330856130d0565b6000610d3a6108bb565b90506000610d6b84600860029054906101000a900473ffffffffffffffffffffffffffffffffffffffff168561316b565b9050610d778184613760565b506000610d826108b5565b610d9e57610d978566038d7ea4c68000612d26565b9050610dde565b6000610dab6108ef612701565b90506000610dc5856108fc84670de0b6b3a7640000612d26565b9050610dd9610dd26108b5565b82906137fd565b925050505b610de8338261383f565b337fb6612cab106733f4b1d00a1ce087eec48ed4655a50cf2faa2e46ff415db691b98683610e146108b5565b610e1c612701565b6040518085815260200184815260200183815260200180602001828103825283818151815260200191508051906020019060200280838360005b83811015610e6e578181015183820152602001610e56565b505050509050019550505050505060405180910390a25050505050565b60408051600280825260608083018452926020830190803683370190505090507f000000000000000000000000000000000000000000000000000000000000000073ffffffffffffffffffffffffffffffffffffffff1663ad5c46486040518163ffffffff1660e01b815260040160206040518083038186803b158015610f1157600080fd5b505afa158015610f25573d6000803e3d6000fd5b505050506040513d6020811015610f3b57600080fd5b505181518290600090610f4a57fe5b73ffffffffffffffffffffffffffffffffffffffff92831660209182029290920101526008548251620100009091049091169082906001908110610f8a57fe5b602002602001019073ffffffffffffffffffffffffffffffffffffffff16908173ffffffffffffffffffffffffffffffffffffffff168152505060007f000000000000000000000000000000000000000000000000000000000000000073ffffffffffffffffffffffffffffffffffffffff16631f00ca7485846040518363ffffffff1660e01b81526004018083815260200180602001828103825283818151815260200191508051906020019060200280838360005b83811015611059578181015183820152602001611041565b50505050905001935050505060006040518083038186803b15801561107d57600080fd5b505afa158015611091573d6000803e3d6000fd5b505050506040513d6000823e601f3d9081017fffffffffffffffffffffffffffffffffffffffffffffffffffffffffffffffe016820160405260208110156110d857600080fd5b81019080805160405193929190846401000000008211156110f857600080fd5b90830190602082018581111561110d57600080fd5b825186602082028301116401000000008211171561112a57600080fd5b82525081516020918201928201910280838360005b8381101561115757818101518382015260200161113f565b5050505090500160405250505060008151811061117057fe5b60209081029190910101516008549091506000906111a29060ff61010082048116916108fc9186918116840116612d26565b905060606111b76111b2336114cc565b613970565b905060006111c6826000612b52565b905082811015611221576040517f08c379a000000000000000000000000000000000000000000000000000000000815260040180806020018281038252602d815260200180614c09602d913960400191505060405180910390fd5b6000611236826108fc866402540be400612d26565b905060006112506402540be4006108fc846108f6336114cc565b905061125c8189613ad4565b505050505050505050565b61126f612a07565b600554610100900473ffffffffffffffffffffffffffffffffffffffff9081169116146112fd57604080517f08c379a000000000000000000000000000000000000000000000000000000000815260206004820181905260248201527f4f776e61626c653a2063616c6c6572206973206e6f7420746865206f776e6572604482015290519081900360640190fd5b8060ff168260ff16111561137257604080517f08c379a000000000000000000000000000000000000000000000000000000000815260206004820152601b60248201527f466565206672616374696f6e20657863656564656420626173652e0000000000604482015290519081900360640190fd5b60008160ff168360640260ff168161138657fe5b04905060028160ff1611156113e6576040517f08c379a0000000000000000000000000000000000000000000000000000000008152600401808060200182810382526029815260200180614ae26029913960400191505060405180910390fd5b506008805460ff928316610100027fffffffffffffffffffffffffffffffffffffffffffffffffffffffffffff00ff949093167fffffffffffffffffffffffffffffffffffffffffffffffffffffffffffffff009091161792909216179055565b60648260ff1611156114a4576040517f08c379a000000000000000000000000000000000000000000000000000000000815260040180806020018281038252602f815260200180614b54602f913960400191505060405180910390fd5b60006114bb60646108fc8560ff166108f6336114cc565b90506114c78183613ad4565b505050565b73ffffffffffffffffffffffffffffffffffffffff1660009081526020819052604090205490565b6114fc612a07565b600554610100900473ffffffffffffffffffffffffffffffffffffffff90811691161461158a57604080517f08c379a000000000000000000000000000000000000000000000000000000000815260206004820181905260248201527f4f776e61626c653a2063616c6c6572206973206e6f7420746865206f776e6572604482015290519081900360640190fd5b600554604051600091610100900473ffffffffffffffffffffffffffffffffffffffff16907f8be0079c531659141344cd1fd0a4f28419497f9722a3daafe3b4186f6b6457e0908390a3600580547fffffffffffffffffffffff0000000000000000000000000000000000000000ff169055565b6000806000606061161d6111b260646108fc8860ff166108f68b6114cc565b9050600061162c826001612b52565b9050600061163b836000612b52565b9050600061166d83600860029054906101000a900473ffffffffffffffffffffffffffffffffffffffff166001613cd2565b6008549091506000906116969060ff8082166101009092048116820116906108fc908690612d26565b905060006116cd6116a785846137fd565b60085462010000900473ffffffffffffffffffffffffffffffffffffffff166000613cd2565b9298509196509450505050509250925092565b6116e8612a07565b600554610100900473ffffffffffffffffffffffffffffffffffffffff90811691161461177657604080517f08c379a000000000000000000000000000000000000000000000000000000000815260206004820181905260248201527f4f776e61626c653a2063616c6c6572206973206e6f7420746865206f776e6572604482015290519081900360640190fd5b6000600754116117e757604080517f08c379a000000000000000000000000000000000000000000000000000000000815260206004820152601860248201527f5374726174656779206861736e2774206265656e207365740000000000000000604482015290519081900360640190fd5b6000606060075467ffffffffffffffff8111801561180457600080fd5b5060405190808252806020026020018201604052801561182e578160200160208202803683370190505b50905060005b6007548160ff16101561192e5760ff811660009081526006602090815260408083205481517f70a08231000000000000000000000000000000000000000000000000000000008152306004820152915173ffffffffffffffffffffffffffffffffffffffff90911693926118fb9285926370a0823192602480840193919291829003018186803b1580156118c757600080fd5b505afa1580156118db573d6000803e3d6000fd5b505050506040513d60208110156118f157600080fd5b5051836001613d79565b9050611907858261305c565b945080848460ff168151811061191957fe5b60209081029190910101525050600101611834565b50606060075467ffffffffffffffff8111801561194a57600080fd5b50604051908082528060200260200182016040528015611974578160200160208202803683370190505b509050606060075467ffffffffffffffff8111801561199257600080fd5b506040519080825280602002602001820160405280156119bc578160200160208202803683370190505b509050600080606060075467ffffffffffffffff811180156119dd57600080fd5b50604051908082528060200260200182016040528015611a07578160200160208202803683370190505b50905060005b6007548160ff161015611c715760ff8116600081815260066020526040902054875173ffffffffffffffffffffffffffffffffffffffff9091169188918110611a5257fe5b73ffffffffffffffffffffffffffffffffffffffff90921660209283029190910182015260ff808316600081815260069093526040909220548751740100000000000000000000000000000000000000009091049091169187918110611ab457fe5b60ff9283166020918202929092018101919091528282166000908152600690915260408120549091611b08916064916108fc918d917401000000000000000000000000000000000000000090910416612d26565b905080888360ff1681518110611b1a57fe5b602002602001015111611b9b57611b50888360ff1681518110611b3957fe5b6020026020010151826137fd90919063ffffffff16565b838360ff1681518110611b5f57fe5b602002602001018181525050611b94838360ff1681518110611b7d57fe5b60200260200101518661305c90919063ffffffff16565b9450611c68565b6000838360ff1681518110611bac57fe5b6020026020010181815250506000611be3828a8560ff1681518110611bcd57fe5b60200260200101516137fd90919063ffffffff16565b60ff841660009081526006602052604081205491925090611c1d90839073ffffffffffffffffffffffffffffffffffffffff166001613cd2565b60ff851660009081526006602052604081205491925090611c5690839073ffffffffffffffffffffffffffffffffffffffff168f61316b565b9050611c62878261305c565b96505050505b50600101611a0d565b5060005b6007548160ff161015611cf3576000611cb1856108fc858560ff1681518110611c9a57fe5b602002602001015187612d2690919063ffffffff16565b60ff8316600090815260066020526040902054909150611ce990829073ffffffffffffffffffffffffffffffffffffffff168c613e18565b5050600101611c75565b507f266da61503975711d4058ea98596fa73002f2ba34e14a1984d6b6c9f5d1659918585611d1f612701565b60405180806020018060200180602001848103845287818151815260200191508051906020019060200280838360005b83811015611d67578181015183820152602001611d4f565b50505050905001848103835286818151815260200191508051906020019060200280838360005b83811015611da6578181015183820152602001611d8e565b50505050905001848103825285818151815260200191508051906020019060200280838360005b83811015611de5578181015183820152602001611dcd565b50505050905001965050505050505060405180910390a15050505050505050565b60085460ff808216916101009004169091565b600554610100900473ffffffffffffffffffffffffffffffffffffffff1690565b60048054604080516020601f60027fffffffffffffffffffffffffffffffffffffffffffffffffffffffffffffffff61010060018816150201909516949094049384018190048102820181019092528281526060939092909183018282801561088d5780601f106108625761010080835404028352916020019161088d565b611ec1612a07565b600554610100900473ffffffffffffffffffffffffffffffffffffffff908116911614611f4f57604080517f08c379a000000000000000000000000000000000000000000000000000000000815260206004820181905260248201527f4f776e61626c653a2063616c6c6572206973206e6f7420746865206f776e6572604482015290519081900360640190fd5b6001841015611fbf57604080517f08c379a000000000000000000000000000000000000000000000000000000000815260206004820152601d60248201527f53657474696e6720737472617465677920746f203020746f6b656e732e000000604482015290519081900360640190fd5b6005841115612019576040517f08c379a0000000000000000000000000000000000000000000000000000000008152600401808060200182810382526027815260200180614ca06027913960400191505060405180910390fd5b838214612071576040517f08c379a000000000000000000000000000000000000000000000000000000000815260040180806020018281038252603d815260200180614b83603d913960400191505060405180910390fd5b6000805b60ff81168411156120aa5784848260ff1681811061208f57fe5b9050602002013560ff16820191508080600101915050612075565b508060ff16606414612107576040517f08c379a0000000000000000000000000000000000000000000000000000000008152600401808060200182810382526023815260200180614b0b6023913960400191505060405180910390fd5b606060075467ffffffffffffffff8111801561212257600080fd5b5060405190808252806020026020018201604052801561214c578160200160208202803683370190505b509050606060075467ffffffffffffffff8111801561216a57600080fd5b50604051908082528060200260200182016040528015612194578160200160208202803683370190505b50905060005b6007548160ff1610156122945760ff8116600081815260066020526040902054845173ffffffffffffffffffffffffffffffffffffffff90911691859181106121df57fe5b73ffffffffffffffffffffffffffffffffffffffff90921660209283029190910182015260ff80831660008181526006909352604090922054845174010000000000000000000000000000000000000000909104909116918491811061224157fe5b60ff928316602091820292909201810191909152908216600090815260069091526040902080547fffffffffffffffffffffff00000000000000000000000000000000000000000016905560010161219a565b5060006122a86122a2612701565b86613fe3565b6007899055905060005b6007548160ff1610156123d75760405180604001604052808b8b8460ff168181106122d957fe5b9050602002013573ffffffffffffffffffffffffffffffffffffffff1673ffffffffffffffffffffffffffffffffffffffff16815260200189898460ff1681811061232057fe5b6020908102929092013560ff90811690935250838216600090815260068252604090208351815494909201517fffffffffffffffffffffffff000000000000000000000000000000000000000090941673ffffffffffffffffffffffffffffffffffffffff909216919091177fffffffffffffffffffffff00ffffffffffffffffffffffffffffffffffffffff167401000000000000000000000000000000000000000093909216929092021790556001016122b2565b506123e28186613760565b507f78798c5f9f4b9bd15a3bce2ae480205cb99cf5b89b89b1bb505168c66887a94883838b8b8b8b612412612701565b60405180806020018060200180602001806020018060200186810386528d818151815260200191508051906020019060200280838360005b8381101561246257818101518382015260200161244a565b5050505090500186810385528c818151815260200191508051906020019060200280838360005b838110156124a1578181015183820152602001612489565b5050505090500186810384528b8b82818152602001925060200280828437600083820152601f017fffffffffffffffffffffffffffffffffffffffffffffffffffffffffffffffe0169091018781038452898152602090810191508a908a02808284376000838201819052601f9091017fffffffffffffffffffffffffffffffffffffffffffffffffffffffffffffffe0169092018881038452895181528951602091820193828c0193509102908190849084905b8381101561256e578181015183820152602001612556565b505050509050019c5050505050505050505050505060405180910390a1505050505050505050565b60006108ab6125a3612a07565b8461099c85604051806060016040528060258152602001614d5360259139600160006125cd612a07565b73ffffffffffffffffffffffffffffffffffffffff908116825260208083019390935260409182016000908120918d16815292529020549190612fab565b612613612a07565b600554610100900473ffffffffffffffffffffffffffffffffffffffff9081169116146126a157604080517f08c379a000000000000000000000000000000000000000000000000000000000815260206004820181905260248201527f4f776e61626c653a2063616c6c6572206973206e6f7420746865206f776e6572604482015290519081900360640190fd5b60088054911515760100000000000000000000000000000000000000000000027fffffffffffffffffff00ffffffffffffffffffffffffffffffffffffffffffff909216919091179055565b60006108ab6126fa612a07565b8484612ddb565b60608060075467ffffffffffffffff8111801561271d57600080fd5b50604051908082528060200260200182016040528015612747578160200160208202803683370190505b50905060005b6007548160ff1610156128295760ff81166000908152600660209081526040918290205482517f70a08231000000000000000000000000000000000000000000000000000000008152306004820152925173ffffffffffffffffffffffffffffffffffffffff909116926370a08231926024808301939192829003018186803b1580156127d957600080fd5b505afa1580156127ed573d6000803e3d6000fd5b505050506040513d602081101561280357600080fd5b50518251839060ff841690811061281657fe5b602090810291909101015260010161274d565b50905090565b73ffffffffffffffffffffffffffffffffffffffff918216600090815260016020908152604080832093909416825291909152205490565b60075490565b612875612a07565b600554610100900473ffffffffffffffffffffffffffffffffffffffff90811691161461290357604080517f08c379a000000000000000000000000000000000000000000000000000000000815260206004820181905260248201527f4f776e61626c653a2063616c6c6572206973206e6f7420746865206f776e6572604482015290519081900360640190fd5b73ffffffffffffffffffffffffffffffffffffffff811661296f576040517f08c379a0000000000000000000000000000000000000000000000000000000008152600401808060200182810382526026815260200180614a9a6026913960400191505060405180910390fd5b60055460405173ffffffffffffffffffffffffffffffffffffffff80841692610100900416907f8be0079c531659141344cd1fd0a4f28419497f9722a3daafe3b4186f6b6457e090600090a36005805473ffffffffffffffffffffffffffffffffffffffff909216610100027fffffffffffffffffffffff0000000000000000000000000000000000000000ff909216919091179055565b3390565b73ffffffffffffffffffffffffffffffffffffffff8316612a77576040517f08c379a0000000000000000000000000000000000000000000000000000000008152600401808060200182810382526024815260200180614c7c6024913960400191505060405180910390fd5b73ffffffffffffffffffffffffffffffffffffffff8216612ae3576040517f08c379a0000000000000000000000000000000000000000000000000000000008152600401808060200182810382526022815260200180614ac06022913960400191505060405180910390fd5b73ffffffffffffffffffffffffffffffffffffffff808416600081815260016020908152604080832094871680845294825291829020859055815185815291517f8c5be1e5ebec7d5bd14f71427d1e84f3dd0314c0f7b2291e5b200ac8c7c3b9259281900390910190a3505050565b6040805160028082526060808301845260009384939192906020830190803683370190505090507f000000000000000000000000000000000000000000000000000000000000000073ffffffffffffffffffffffffffffffffffffffff1663ad5c46486040518163ffffffff1660e01b815260040160206040518083038186803b158015612bdf57600080fd5b505afa158015612bf3573d6000803e3d6000fd5b505050506040513d6020811015612c0957600080fd5b5051815182906001908110612c1a57fe5b602002602001019073ffffffffffffffffffffffffffffffffffffffff16908173ffffffffffffffffffffffffffffffffffffffff168152505060005b6007548160ff161015612d1c5760ff8116600090815260066020526040812054835173ffffffffffffffffffffffffffffffffffffffff909116918291859190612c9d57fe5b602002602001019073ffffffffffffffffffffffffffffffffffffffff16908173ffffffffffffffffffffffffffffffffffffffff16815250506000878360ff1681518110612ce857fe5b602002602001015190506000612cff82848a613d79565b9050612d0b868261305c565b95505060019092019150612c579050565b5090949350505050565b600082612d35575060006108af565b82820282848281612d4257fe5b04146109a5576040517f08c379a0000000000000000000000000000000000000000000000000000000008152600401808060200182810382526021815260200180614bc06021913960400191505060405180910390fd5b60006109a583836040518060400160405280601a81526020017f536166654d6174683a206469766973696f6e206279207a65726f000000000000815250614064565b73ffffffffffffffffffffffffffffffffffffffff8316612e47576040517f08c379a0000000000000000000000000000000000000000000000000000000008152600401808060200182810382526025815260200180614c576025913960400191505060405180910390fd5b73ffffffffffffffffffffffffffffffffffffffff8216612eb3576040517f08c379a0000000000000000000000000000000000000000000000000000000008152600401808060200182810382526023815260200180614a556023913960400191505060405180910390fd5b612ebe8383836114c7565b612f0881604051806060016040528060268152602001614b2e6026913973ffffffffffffffffffffffffffffffffffffffff86166000908152602081905260409020549190612fab565b73ffffffffffffffffffffffffffffffffffffffff8085166000908152602081905260408082209390935590841681522054612f44908261305c565b73ffffffffffffffffffffffffffffffffffffffff8084166000818152602081815260409182902094909455805185815290519193928716927fddf252ad1be2c89b69c2b068fc378daa952ba7f163c4a11628f55a4df523b3ef92918290030190a3505050565b60008184841115613054576040517f08c379a00000000000000000000000000000000000000000000000000000000081526004018080602001828103825283818151815260200191508051906020019080838360005b83811015613019578181015183820152602001613001565b50505050905090810190601f1680156130465780820380516001836020036101000a031916815260200191505b509250505060405180910390fd5b505050900390565b6000828201838110156109a557604080517f08c379a000000000000000000000000000000000000000000000000000000000815260206004820152601b60248201527f536166654d6174683a206164646974696f6e206f766572666c6f770000000000604482015290519081900360640190fd5b6040805173ffffffffffffffffffffffffffffffffffffffff80861660248301528416604482015260648082018490528251808303909101815260849091019091526020810180517bffffffffffffffffffffffffffffffffffffffffffffffffffffffff167f23b872dd000000000000000000000000000000000000000000000000000000001790526131659085906140e3565b50505050565b60007f000000000000000000000000000000000000000000000000000000000000000073ffffffffffffffffffffffffffffffffffffffff1663ad5c46486040518163ffffffff1660e01b815260040160206040518083038186803b1580156131d357600080fd5b505afa1580156131e7573d6000803e3d6000fd5b505050506040513d60208110156131fd57600080fd5b505173ffffffffffffffffffffffffffffffffffffffff84811691161480613223575083155b1561322f5750826109a5565b6040805160028082526060808301845292602083019080368337019050509050838160008151811061325d57fe5b602002602001019073ffffffffffffffffffffffffffffffffffffffff16908173ffffffffffffffffffffffffffffffffffffffff16815250507f000000000000000000000000000000000000000000000000000000000000000073ffffffffffffffffffffffffffffffffffffffff1663ad5c46486040518163ffffffff1660e01b815260040160206040518083038186803b1580156132fd57600080fd5b505afa158015613311573d6000803e3d6000fd5b505050506040513d602081101561332757600080fd5b505181518290600190811061333857fe5b602002602001019073ffffffffffffffffffffffffffffffffffffffff16908173ffffffffffffffffffffffffffffffffffffffff16815250506133b18160008151811061338257fe5b60200260200101517f0000000000000000000000000000000000000000000000000000000000000000876141bb565b604080517fd06ca61f000000000000000000000000000000000000000000000000000000008152600481018781526024820192835283516044830152835160009373ffffffffffffffffffffffffffffffffffffffff7f0000000000000000000000000000000000000000000000000000000000000000169363d06ca61f938b938893919260640190602080860191028083838c5b8381101561345e578181015183820152602001613446565b50505050905001935050505060006040518083038186803b15801561348257600080fd5b505afa158015613496573d6000803e3d6000fd5b505050506040513d6000823e601f3d9081017fffffffffffffffffffffffffffffffffffffffffffffffffffffffffffffffe016820160405260208110156134dd57600080fd5b81019080805160405193929190846401000000008211156134fd57600080fd5b90830190602082018581111561351257600080fd5b825186602082028301116401000000008211171561352f57600080fd5b82525081516020918201928201910280838360005b8381101561355c578181015183820152602001613544565b5050505090500160405250505060018151811061357557fe5b602002602001015190507f000000000000000000000000000000000000000000000000000000000000000073ffffffffffffffffffffffffffffffffffffffff166338ed173987838530896040518663ffffffff1660e01b815260040180868152602001858152602001806020018473ffffffffffffffffffffffffffffffffffffffff1681526020018363ffffffff168152602001828103825285818151815260200191508051906020019060200280838360005b8381101561364357818101518382015260200161362b565b505050509050019650505050505050600060405180830381600087803b15801561366c57600080fd5b505af1158015613680573d6000803e3d6000fd5b505050506040513d6000823e601f3d9081017fffffffffffffffffffffffffffffffffffffffffffffffffffffffffffffffe016820160405260208110156136c757600080fd5b81019080805160405193929190846401000000008211156136e757600080fd5b9083019060208201858111156136fc57600080fd5b825186602082028301116401000000008211171561371957600080fd5b82525081516020918201928201910280838360005b8381101561374657818101518382015260200161372e565b505050509050016040525050505080925050509392505050565b606060005b6007548160ff1610156137f65760ff80821660009081526006602052604081205490916137b4916064916108fc9189917401000000000000000000000000000000000000000090910416612d26565b60ff83166000908152600660205260409020549091506137ec90829073ffffffffffffffffffffffffffffffffffffffff1686613e18565b5050600101613765565b5092915050565b60006109a583836040518060400160405280601e81526020017f536166654d6174683a207375627472616374696f6e206f766572666c6f770000815250612fab565b73ffffffffffffffffffffffffffffffffffffffff82166138c157604080517f08c379a000000000000000000000000000000000000000000000000000000000815260206004820152601f60248201527f45524332303a206d696e7420746f20746865207a65726f206164647265737300604482015290519081900360640190fd5b6138cd600083836114c7565b6002546138da908261305c565b60025573ffffffffffffffffffffffffffffffffffffffff821660009081526020819052604090205461390d908261305c565b73ffffffffffffffffffffffffffffffffffffffff83166000818152602081815260408083209490945583518581529351929391927fddf252ad1be2c89b69c2b068fc378daa952ba7f163c4a11628f55a4df523b3ef9281900390910190a35050565b60608060075467ffffffffffffffff8111801561398c57600080fd5b506040519080825280602002602001820160405280156139b6578160200160208202803683370190505b50905060006139d56139c66108b5565b6108fc866402540be400612d26565b905060005b6007548160ff161015613acb5760ff81166000908152600660209081526040918290205482517f70a082310000000000000000000000000000000000000000000000000000000081523060048201529251613aa9936402540be400936108fc93889373ffffffffffffffffffffffffffffffffffffffff909116926370a08231926024808301939192829003018186803b158015613a7757600080fd5b505afa158015613a8b573d6000803e3d6000fd5b505050506040513d6020811015613aa157600080fd5b505190612d26565b838260ff1681518110613ab857fe5b60209081029190910101526001016139da565b50909392505050565b6060613adf83613970565b9050613aeb3384614349565b6000613af78284613fe3565b600854909150600090613b209060ff8082166101009092048116820116906108fc908590612d26565b90506000613b56613b3184846137fd565b60085462010000900473ffffffffffffffffffffffffffffffffffffffff1687613e18565b600854909150613b839062010000900473ffffffffffffffffffffffffffffffffffffffff163383614493565b613c267f000000000000000000000000000000000000000000000000000000000000000073ffffffffffffffffffffffffffffffffffffffff1663ad5c46486040518163ffffffff1660e01b815260040160206040518083038186803b158015613bec57600080fd5b505afa158015613c00573d6000803e3d6000fd5b505050506040513d6020811015613c1657600080fd5b5051613c20611e19565b84614493565b337f9dfaab8d9cf3cf8c531d0dbfcd7dcd22f353ccae0b4d1e96cfe491d86734ae73828489613c536108b5565b613c5b612701565b6040518086815260200185815260200184815260200183815260200180602001828103825283818151815260200191508051906020019060200280838360005b83811015613cb3578181015183820152602001613c9b565b50505050905001965050505050505060405180910390a2505050505050565b6000613d71847f000000000000000000000000000000000000000000000000000000000000000073ffffffffffffffffffffffffffffffffffffffff1663ad5c46486040518163ffffffff1660e01b815260040160206040518083038186803b158015613d3e57600080fd5b505afa158015613d52573d6000803e3d6000fd5b505050506040513d6020811015613d6857600080fd5b50518585614520565b949350505050565b6000613d7184847f000000000000000000000000000000000000000000000000000000000000000073ffffffffffffffffffffffffffffffffffffffff1663ad5c46486040518163ffffffff1660e01b815260040160206040518083038186803b158015613de657600080fd5b505afa158015613dfa573d6000803e3d6000fd5b505050506040513d6020811015613e1057600080fd5b505185614520565b60007f000000000000000000000000000000000000000000000000000000000000000073ffffffffffffffffffffffffffffffffffffffff1663ad5c46486040518163ffffffff1660e01b815260040160206040518083038186803b158015613e8057600080fd5b505afa158015613e94573d6000803e3d6000fd5b505050506040513d6020811015613eaa57600080fd5b505173ffffffffffffffffffffffffffffffffffffffff84811691161480613ed0575083155b15613edc5750826109a5565b60408051600280825260608083018452926020830190803683370190505090507f000000000000000000000000000000000000000000000000000000000000000073ffffffffffffffffffffffffffffffffffffffff1663ad5c46486040518163ffffffff1660e01b815260040160206040518083038186803b158015613f6257600080fd5b505afa158015613f76573d6000803e3d6000fd5b505050506040513d6020811015613f8c57600080fd5b505181518290600090613f9b57fe5b602002602001019073ffffffffffffffffffffffffffffffffffffffff16908173ffffffffffffffffffffffffffffffffffffffff1681525050838160018151811061333857fe5b600080805b6007548160ff16101561405c576000614045868360ff168151811061400957fe5b60209081029190910181015160ff85166000908152600690925260409091205473ffffffffffffffffffffffffffffffffffffffff168761316b565b9050614051838261305c565b925050600101613fe8565b509392505050565b600081836140cd576040517f08c379a0000000000000000000000000000000000000000000000000000000008152602060048201818152835160248401528351909283926044909101919085019080838360008315613019578181015183820152602001613001565b5060008385816140d957fe5b0495945050505050565b6060614145826040518060400160405280602081526020017f5361666545524332303a206c6f772d6c6576656c2063616c6c206661696c65648152508573ffffffffffffffffffffffffffffffffffffffff1661483c9092919063ffffffff16565b8051909150156114c75780806020019051602081101561416457600080fd5b50516114c7576040517f08c379a000000000000000000000000000000000000000000000000000000000815260040180806020018281038252602a815260200180614cc7602a913960400191505060405180910390fd5b8015806142675750604080517fdd62ed3e00000000000000000000000000000000000000000000000000000000815230600482015273ffffffffffffffffffffffffffffffffffffffff848116602483015291519185169163dd62ed3e91604480820192602092909190829003018186803b15801561423957600080fd5b505afa15801561424d573d6000803e3d6000fd5b505050506040513d602081101561426357600080fd5b5051155b6142bc576040517f08c379a0000000000000000000000000000000000000000000000000000000008152600401808060200182810382526036815260200180614cf16036913960400191505060405180910390fd5b6040805173ffffffffffffffffffffffffffffffffffffffff8416602482015260448082018490528251808303909101815260649091019091526020810180517bffffffffffffffffffffffffffffffffffffffffffffffffffffffff167f095ea7b3000000000000000000000000000000000000000000000000000000001790526114c79084906140e3565b73ffffffffffffffffffffffffffffffffffffffff82166143b5576040517f08c379a0000000000000000000000000000000000000000000000000000000008152600401808060200182810382526021815260200180614c366021913960400191505060405180910390fd5b6143c1826000836114c7565b61440b81604051806060016040528060228152602001614a786022913973ffffffffffffffffffffffffffffffffffffffff85166000908152602081905260409020549190612fab565b73ffffffffffffffffffffffffffffffffffffffff831660009081526020819052604090205560025461443e90826137fd565b60025560408051828152905160009173ffffffffffffffffffffffffffffffffffffffff8516917fddf252ad1be2c89b69c2b068fc378daa952ba7f163c4a11628f55a4df523b3ef9181900360200190a35050565b6040805173ffffffffffffffffffffffffffffffffffffffff8416602482015260448082018490528251808303909101815260649091019091526020810180517bffffffffffffffffffffffffffffffffffffffffffffffffffffffff167fa9059cbb000000000000000000000000000000000000000000000000000000001790526114c79084906140e3565b6040805160028082526060808301845260009390929190602083019080368337019050509050848160008151811061455457fe5b602002602001019073ffffffffffffffffffffffffffffffffffffffff16908173ffffffffffffffffffffffffffffffffffffffff1681525050838160018151811061459c57fe5b602002602001019073ffffffffffffffffffffffffffffffffffffffff16908173ffffffffffffffffffffffffffffffffffffffff1681525050806001815181106145e357fe5b602002602001015173ffffffffffffffffffffffffffffffffffffffff168160008151811061460e57fe5b602002602001015173ffffffffffffffffffffffffffffffffffffffff161480614636575085155b156146445785915050613d71565b604080517fd06ca61f000000000000000000000000000000000000000000000000000000008152600481018881526024820192835283516044830152835160009373ffffffffffffffffffffffffffffffffffffffff7f0000000000000000000000000000000000000000000000000000000000000000169363d06ca61f938c938893919260640190602080860191028083838c5b838110156146f15781810151838201526020016146d9565b50505050905001935050505060006040518083038186803b15801561471557600080fd5b505afa158015614729573d6000803e3d6000fd5b505050506040513d6000823e601f3d9081017fffffffffffffffffffffffffffffffffffffffffffffffffffffffffffffffe0168201604052602081101561477057600080fd5b810190808051604051939291908464010000000082111561479057600080fd5b9083019060208201858111156147a557600080fd5b82518660208202830111640100000000821117156147c257600080fd5b82525081516020918201928201910280838360005b838110156147ef5781810151838201526020016147d7565b5050505090500160405250505060018151811061480857fe5b6020026020010151905083156148335761482a6103e56108fc836103e8612d26565b92505050613d71565b9150613d719050565b6060613d71848460008585614850856149a7565b6148bb57604080517f08c379a000000000000000000000000000000000000000000000000000000000815260206004820152601d60248201527f416464726573733a2063616c6c20746f206e6f6e2d636f6e7472616374000000604482015290519081900360640190fd5b600060608673ffffffffffffffffffffffffffffffffffffffff1685876040518082805190602001908083835b6020831061492557805182527fffffffffffffffffffffffffffffffffffffffffffffffffffffffffffffffe090920191602091820191016148e8565b6001836020036101000a03801982511681845116808217855250505050505090500191505060006040518083038185875af1925050503d8060008114614987576040519150601f19603f3d011682016040523d82523d6000602084013e61498c565b606091505b509150915061499c8282866149ad565b979650505050505050565b3b151590565b606083156149bc5750816109a5565b8251156149cc5782518084602001fd5b6040517f08c379a000000000000000000000000000000000000000000000000000000000815260206004820181815284516024840152845185939192839260440191908501908083836000831561301957818101518382015260200161300156fe417474656d7074656420746f206465706f736974206d6f7265207468616e2062616c616e63652e45524332303a207472616e7366657220746f20746865207a65726f206164647265737345524332303a206275726e20616d6f756e7420657863656564732062616c616e63654f776e61626c653a206e6577206f776e657220697320746865207a65726f206164647265737345524332303a20617070726f766520746f20746865207a65726f2061646472657373417474656d707420746f207365742070657263656e7461676520686967686572207468616e2032252e546f74616c20746f6b656e2070657263656e74616765206973206e6f7420313030252e45524332303a207472616e7366657220616d6f756e7420657863656564732062616c616e6365417474656d707420746f207769746864726177206d6f7265207468616e2031303025206f6620746865206173736574537472617465677920746f6b656e73206c656e67746820646f65736e2774206d6174636820746f6b656e2070657263656e74616765206c656e6774682e536166654d6174683a206d756c7469706c69636174696f6e206f766572666c6f7745524332303a207472616e7366657220616d6f756e74206578636565647320616c6c6f77616e6365417474656d707420746f207769746864726177206d6f7265207468616e2075736572277320686f6c64696e672e45524332303a206275726e2066726f6d20746865207a65726f206164647265737345524332303a207472616e736665722066726f6d20746865207a65726f206164647265737345524332303a20617070726f76652066726f6d20746865207a65726f206164647265737353657474696e6720737472617465677920746f206d6f7265207468616e203520746f6b656e732e5361666545524332303a204552433230206f7065726174696f6e20646964206e6f7420737563636565645361666545524332303a20617070726f76652066726f6d206e6f6e2d7a65726f20746f206e6f6e2d7a65726f20616c6c6f77616e6365436f6e7472616374206973206e6f7420616c6c6f77656420746f207370656e6420757365722773204452432e45524332303a2064656372656173656420616c6c6f77616e63652062656c6f77207a65726fa2646970667358221220409bd19e6a28ef7950289c5bc154198b2e6846f0452029c70524a14992b81afc64736f6c634300060c0033",
  "immutableReferences": {
    "70": [
      {
        "length": 32,
        "start": 3757
      },
      {
        "length": 32,
        "start": 4040
      },
      {
        "length": 32,
        "start": 11131
      },
      {
        "length": 32,
        "start": 12655
      },
      {
        "length": 32,
        "start": 12953
      },
      {
        "length": 32,
        "start": 13196
      },
      {
        "length": 32,
        "start": 13321
      },
      {
        "length": 32,
        "start": 13697
      },
      {
        "length": 32,
        "start": 15240
      },
      {
        "length": 32,
        "start": 15578
      },
      {
        "length": 32,
        "start": 15746
      },
      {
        "length": 32,
        "start": 15900
      },
      {
        "length": 32,
        "start": 16126
      },
      {
        "length": 32,
        "start": 18076
      }
    ]
  },
  "source": "// SPDX-License-Identifier: AGPL-3.0-or-later\n\npragma solidity =0.6.12;\n\nimport \"@openzeppelin/contracts/access/Ownable.sol\";\nimport \"@openzeppelin/contracts/math/SafeMath.sol\";\nimport \"@openzeppelin/contracts/token/ERC20/ERC20.sol\";\nimport \"@openzeppelin/contracts/token/ERC20/SafeERC20.sol\";\nimport \"@openzeppelin/contracts/utils/ReentrancyGuard.sol\";\n\nimport \"./interfaces/Uniswap/IUniswapV2Router02.sol\";\nimport \"./interfaces/IDigitalReserve.sol\";\n\n/**\n * @dev Implementation of Digital Reserve contract.\n * Digital Reserve contract converts user's DRC into a set of SoV assets using the Uniswap router,\n * and hold these assets for it's users.\n * When users initiate a withdrawal action, the contract converts a share of the vault,\n * that the user is requesting, to DRC and sends it back to their wallet.\n */\ncontract DigitalReserve is IDigitalReserve, ERC20, Ownable {\n    using SafeMath for uint256;\n\n    struct StategyToken {\n        address tokenAddress;\n        uint8 tokenPercentage;\n    }\n\n    /**\n     * @dev Set Uniswap router address, DRC token address, DR name.\n     */\n    constructor(\n        address _router,\n        address _drcAddress,\n        string memory _name\n    ) public ERC20(_name, \"DR-POD\") {\n        drcAddress = _drcAddress;\n        uniswapRouter = IUniswapV2Router02(_router);\n    }\n\n    mapping(uint8 => StategyToken) private _strategyTokens;\n    uint256 private _strategyTokenCount;\n    uint8 private _feeFraction = 1;\n    uint8 private _feeBase = 100;\n    uint8 private constant _priceDecimals = 18;\n\n    address private drcAddress;\n\n    bool private depositEnabled = false;\n\n    IUniswapV2Router02 private immutable uniswapRouter;\n\n    /**\n     * @dev See {IDigitalReserve-strategyTokenCount}.\n     */\n    function strategyTokenCount() external view override returns (uint256) {\n        return _strategyTokenCount;\n    }\n\n    /**\n     * @dev See {IDigitalReserve-strategyTokens}.\n     */\n    function strategyTokens(uint8 index) external view override returns (address, uint8) {\n        return (_strategyTokens[index].tokenAddress, _strategyTokens[index].tokenPercentage);\n    }\n\n    /**\n     * @dev See {IDigitalReserve-withdrawalFee}.\n     */\n    function withdrawalFee() external view override returns (uint8, uint8) {\n        return (_feeFraction, _feeBase);\n    }\n\n    /**\n     * @dev See {IDigitalReserve-priceDecimals}.\n     */\n    function priceDecimals() external view override returns (uint8) {\n        return _priceDecimals;\n    }\n\n    /**\n     * @dev See {IDigitalReserve-totalTokenStored}.\n     */\n    function totalTokenStored() public view override returns (uint256[] memory) {\n        uint256[] memory amounts = new uint256[](_strategyTokenCount);\n        for (uint8 i = 0; i < _strategyTokenCount; i++) {\n            amounts[i] = IERC20(_strategyTokens[i].tokenAddress).balanceOf(address(this));\n        }\n        return amounts;\n    }\n\n    /**\n     * @dev See {IDigitalReserve-getUserVaultInDrc}.\n     */\n    function getUserVaultInDrc(\n        address user, \n        uint8 percentage\n    ) public view override returns (uint256, uint256, uint256) {\n        uint256[] memory userStrategyTokens = _getStrategyTokensByPodAmount(balanceOf(user).mul(percentage).div(100));\n        uint256 userVaultWorthInEth = _getEthAmountByStrategyTokensAmount(userStrategyTokens, true);\n        uint256 userVaultWorthInEthAfterSwap = _getEthAmountByStrategyTokensAmount(userStrategyTokens, false);\n\n        uint256 drcAmountBeforeFees = _getTokenAmountByEthAmount(userVaultWorthInEth, drcAddress, true);\n\n        uint256 fees = userVaultWorthInEthAfterSwap.mul(_feeFraction).div(_feeBase + _feeFraction);\n        uint256 drcAmountAfterFees = _getTokenAmountByEthAmount(userVaultWorthInEthAfterSwap.sub(fees), drcAddress, false);\n\n        return (drcAmountBeforeFees, drcAmountAfterFees, fees);\n    }\n\n    /**\n     * @dev See {IDigitalReserve-getProofOfDepositPrice}.\n     */\n    function getProofOfDepositPrice() public view override returns (uint256) {\n        uint256 proofOfDepositPrice = 0;\n        if (totalSupply() > 0) {\n            proofOfDepositPrice = _getEthAmountByStrategyTokensAmount(totalTokenStored(), true).mul(1e18).div(totalSupply());\n        }\n        return proofOfDepositPrice;\n    }\n\n    /**\n     * @dev See {IDigitalReserve-depositDrc}.\n     */\n    function depositDrc(uint256 drcAmount, uint32 deadline) external override {\n        require(_strategyTokenCount >= 1, \"Strategy hasn't been set.\");\n        require(depositEnabled, \"Deposit is disabled.\");\n        require(IERC20(drcAddress).allowance(msg.sender, address(this)) >= drcAmount, \"Contract is not allowed to spend user's DRC.\");\n        require(IERC20(drcAddress).balanceOf(msg.sender) >= drcAmount, \"Attempted to deposit more than balance.\");\n\n        SafeERC20.safeTransferFrom(IERC20(drcAddress), msg.sender, address(this), drcAmount);\n\n        // Get current unit price before adding tokens to vault\n        uint256 currentPodUnitPrice = getProofOfDepositPrice();\n\n        uint256 ethConverted = _convertTokenToEth(drcAmount, drcAddress, deadline);\n        _convertEthToStrategyTokens(ethConverted, deadline);\n\n        uint256 podToMint = 0;\n        if (totalSupply() == 0) {\n            podToMint = drcAmount.mul(1e15);\n        } else {\n            uint256 vaultTotalInEth = _getEthAmountByStrategyTokensAmount(totalTokenStored(), true);\n            uint256 newPodTotal = vaultTotalInEth.mul(1e18).div(currentPodUnitPrice);\n            podToMint = newPodTotal.sub(totalSupply());\n        }\n\n        _mint(msg.sender, podToMint);\n\n        emit Deposit(msg.sender, drcAmount, podToMint, totalSupply(), totalTokenStored());\n    }\n\n    /**\n     * @dev See {IDigitalReserve-withdrawDrc}.\n     */\n    function withdrawDrc(uint256 drcAmount, uint32 deadline) external override {\n        address[] memory path = new address[](2);\n        path[0] = uniswapRouter.WETH();\n        path[1] = drcAddress;\n\n        uint256 ethNeeded = uniswapRouter.getAmountsIn(drcAmount, path)[0];\n        uint256 ethNeededPlusFee = ethNeeded.mul(_feeBase + _feeFraction).div(_feeBase);\n\n        uint256[] memory userStrategyTokens = _getStrategyTokensByPodAmount(balanceOf(msg.sender));\n        uint256 userVaultWorth = _getEthAmountByStrategyTokensAmount(userStrategyTokens, false);\n\n        require(userVaultWorth >= ethNeededPlusFee, \"Attempt to withdraw more than user's holding.\");\n\n        uint256 amountFraction = ethNeededPlusFee.mul(1e10).div(userVaultWorth);\n        uint256 podToBurn = balanceOf(msg.sender).mul(amountFraction).div(1e10);\n\n        _withdrawProofOfDeposit(podToBurn, deadline);\n    }\n\n    /**\n     * @dev See {IDigitalReserve-withdrawPercentage}.\n     */\n    function withdrawPercentage(uint8 percentage, uint32 deadline) external override {\n        require(percentage <= 100, \"Attempt to withdraw more than 100% of the asset\");\n\n        uint256 podToBurn = balanceOf(msg.sender).mul(percentage).div(100);\n        _withdrawProofOfDeposit(podToBurn, deadline);\n    }\n\n    /**\n     * @dev Enable or disable deposit.\n     * @param status Deposit allowed or not\n     * Disable deposit if it is to protect users' fund if there's any security issue or assist DR upgrade.\n     */\n    function changeDepositStatus(bool status) external onlyOwner {\n        depositEnabled = status;\n    }\n\n    /**\n     * @dev Change withdrawal fee percentage.\n     * If 1%, then input (1,100)\n     * If 0.5%, then input (5,1000)\n     * @param withdrawalFeeFraction_ Fraction of withdrawal fee based on withdrawalFeeBase_\n     * @param withdrawalFeeBase_ Fraction of withdrawal fee base\n     */\n    function changeFee(uint8 withdrawalFeeFraction_, uint8 withdrawalFeeBase_) external onlyOwner {\n        require(withdrawalFeeFraction_ <= withdrawalFeeBase_, \"Fee fraction exceeded base.\");\n        uint8 percentage = (withdrawalFeeFraction_ * 100) / withdrawalFeeBase_;\n        require(percentage <= 2, \"Attempt to set percentage higher than 2%.\"); // Requested by community\n\n        _feeFraction = withdrawalFeeFraction_;\n        _feeBase = withdrawalFeeBase_;\n    }\n\n    /**\n     * @dev Set or change DR strategy tokens and allocations.\n     * @param strategyTokens_ Array of strategy tokens.\n     * @param tokenPercentage_ Array of strategy tokens' percentage allocations.\n     * @param deadline Unix timestamp after which the transaction will revert.\n     */\n    function changeStrategy(\n        address[] calldata strategyTokens_,\n        uint8[] calldata tokenPercentage_,\n        uint32 deadline\n    ) external onlyOwner {\n        require(strategyTokens_.length >= 1, \"Setting strategy to 0 tokens.\");\n        require(strategyTokens_.length <= 5, \"Setting strategy to more than 5 tokens.\");\n        require(strategyTokens_.length == tokenPercentage_.length, \"Strategy tokens length doesn't match token percentage length.\");\n\n        uint8 totalPercentage = 0;\n        for (uint8 i = 0; i < tokenPercentage_.length; i++) {\n            totalPercentage += tokenPercentage_[i];\n        }\n        require(totalPercentage == 100, \"Total token percentage is not 100%.\");\n\n        address[] memory oldTokens = new address[](_strategyTokenCount);\n        uint8[] memory oldPercentage = new uint8[](_strategyTokenCount);\n        for (uint8 i = 0; i < _strategyTokenCount; i++) {\n            oldTokens[i] = _strategyTokens[i].tokenAddress;\n            oldPercentage[i] = _strategyTokens[i].tokenPercentage;\n            delete _strategyTokens[i];\n        }\n\n        // Before mutate strategyTokens, convert current strategy tokens to ETH\n        uint256 ethConverted = _convertStrategyTokensToEth(totalTokenStored(), deadline);\n\n        _strategyTokenCount = strategyTokens_.length;\n        for (uint8 i = 0; i < _strategyTokenCount; i++) {\n            _strategyTokens[i] = StategyToken(strategyTokens_[i], tokenPercentage_[i]);\n        }\n\n        _convertEthToStrategyTokens(ethConverted, deadline);\n\n        emit StrategyChange(oldTokens, oldPercentage, strategyTokens_, tokenPercentage_, totalTokenStored());\n    }\n\n    /**\n     * @dev Realigning the weighting of a portfolio of assets to the strategy allocation that is defined.\n     * Only convert the amount that's necessory to convert to not be charged 0.3% uniswap fee for everything.\n     * This in total saves 0.6% fee for majority of the assets.\n     * @param deadline Unix timestamp after which the transaction will revert.\n     */\n    function rebalance(uint32 deadline) external onlyOwner {\n        require(_strategyTokenCount > 0, \"Strategy hasn't been set\");\n\n        // Get each tokens worth and the total worth in ETH\n        uint256 totalWorthInEth = 0;\n        uint256[] memory tokensWorthInEth = new uint256[](_strategyTokenCount);\n\n        for (uint8 i = 0; i < _strategyTokenCount; i++) {\n            address currentToken = _strategyTokens[i].tokenAddress;\n            uint256 tokenWorth = _getEthAmountByTokenAmount(IERC20(currentToken).balanceOf(address(this)), currentToken, true);\n            totalWorthInEth = totalWorthInEth.add(tokenWorth);\n            tokensWorthInEth[i] = tokenWorth;\n        }\n\n        address[] memory strategyTokensArray = new address[](_strategyTokenCount); // Get percentages for event param\n        uint8[] memory percentageArray = new uint8[](_strategyTokenCount); // Get percentages for event param\n        uint256 totalInEthToConvert = 0; // Get total token worth in ETH needed to be converted\n        uint256 totalEthConverted = 0; // Get total token worth in ETH needed to be converted\n        uint256[] memory tokenInEthNeeded = new uint256[](_strategyTokenCount); // Get token worth need to be filled\n\n        for (uint8 i = 0; i < _strategyTokenCount; i++) {\n            strategyTokensArray[i] =  _strategyTokens[i].tokenAddress;\n            percentageArray[i] = _strategyTokens[i].tokenPercentage;\n\n            uint256 tokenShouldWorth = totalWorthInEth.mul(_strategyTokens[i].tokenPercentage).div(100);\n\n            if (tokensWorthInEth[i] <= tokenShouldWorth) {\n                // If token worth less than should be, calculate the diff and store as needed\n                tokenInEthNeeded[i] = tokenShouldWorth.sub(tokensWorthInEth[i]);\n                totalInEthToConvert = totalInEthToConvert.add(tokenInEthNeeded[i]);\n            } else {\n                tokenInEthNeeded[i] = 0;\n\n                // If token worth more than should be, convert the overflowed amount to ETH\n                uint256 tokenInEthOverflowed = tokensWorthInEth[i].sub(tokenShouldWorth);\n                uint256 tokensToConvert = _getTokenAmountByEthAmount(tokenInEthOverflowed, _strategyTokens[i].tokenAddress, true);\n                uint256 ethConverted = _convertTokenToEth(tokensToConvert, _strategyTokens[i].tokenAddress, deadline);\n                totalEthConverted = totalEthConverted.add(ethConverted);\n            }\n            // Need the total value to help calculate how to distributed the converted ETH\n        }\n\n        // Distribute newly converted ETH by portion of each token to be converted to, and convert to that token needed.\n        // Note: totalEthConverted would be a bit smaller than totalInEthToConvert due to Uniswap fee.\n        // Converting everything is another way of rebalancing, but Uniswap would take 0.6% fee on everything.\n        // In this method we reach the closest number with the lowest possible swapping fee.\n        for (uint8 i = 0; i < _strategyTokenCount; i++) {\n            uint256 ethToConvert = totalEthConverted.mul(tokenInEthNeeded[i]).div(totalInEthToConvert);\n            _convertEthToToken(ethToConvert, _strategyTokens[i].tokenAddress, deadline);\n        }\n\n        emit Rebalance(strategyTokensArray, percentageArray, totalTokenStored());\n    }\n\n    /**\n     * @dev Withdraw DRC by DR-POD amount to burn.\n     * @param podToBurn Amount of DR-POD to burn in exchange for DRC.\n     * @param deadline Unix timestamp after which the transaction will revert.\n     */\n    function _withdrawProofOfDeposit(uint256 podToBurn, uint32 deadline) private {\n        uint256[] memory strategyTokensToWithdraw = _getStrategyTokensByPodAmount(podToBurn);\n\n        _burn(msg.sender, podToBurn);\n\n        uint256 ethConverted = _convertStrategyTokensToEth(strategyTokensToWithdraw, deadline);\n        uint256 fees = ethConverted.mul(_feeFraction).div(_feeBase + _feeFraction);\n\n        uint256 drcAmount = _convertEthToToken(ethConverted.sub(fees), drcAddress, deadline);\n\n        SafeERC20.safeTransfer(IERC20(drcAddress), msg.sender, drcAmount);\n        SafeERC20.safeTransfer(IERC20(uniswapRouter.WETH()), owner(), fees);\n\n        emit Withdraw(msg.sender, drcAmount, fees, podToBurn, totalSupply(), totalTokenStored());\n    }\n\n    /**\n     * @dev Get ETH worth of a certain amount of a token.\n     * @param _amount Amount of token to convert.\n     * @param _fromAddress Address of token to convert from.\n     * @param _toAddress Address of token to convert to.\n     * @param excludeFees If uniswap fees is considered.\n     */\n    function _getAAmountByBAmount(\n        uint256 _amount,\n        address _fromAddress,\n        address _toAddress,\n        bool excludeFees\n    ) private view returns (uint256) {\n        address[] memory path = new address[](2);\n        path[0] = _fromAddress;\n        path[1] = _toAddress;\n\n        if (path[0] == path[1] || _amount == 0) {\n            return _amount;\n        }\n\n        uint256 amountOut = uniswapRouter.getAmountsOut(_amount, path)[1];\n\n        if (excludeFees) {\n            return amountOut.mul(1000).div(997);\n        } else {\n            return amountOut;\n        }\n    }\n\n    /**\n     * @dev Get the worth in a token of a certain amount of ETH.\n     * @param _amount Amount of ETH to convert.\n     * @param _tokenAddress Address of the token to convert to.\n     * @param excludeFees If uniswap fees is considered.\n     */\n    function _getTokenAmountByEthAmount(\n        uint256 _amount,\n        address _tokenAddress,\n        bool excludeFees\n    ) private view returns (uint256) {\n        return _getAAmountByBAmount(_amount, uniswapRouter.WETH(), _tokenAddress, excludeFees);\n    }\n\n    /**\n     * @dev Get ETH worth of a certain amount of a token.\n     * @param _amount Amount of token to convert.\n     * @param _tokenAddress Address of token to convert from.\n     * @param excludeFees If uniswap fees is considered.\n     */\n    function _getEthAmountByTokenAmount(\n        uint256 _amount,\n        address _tokenAddress,\n        bool excludeFees\n    ) private view returns (uint256) {\n        return _getAAmountByBAmount(_amount, _tokenAddress, uniswapRouter.WETH(), excludeFees);\n    }\n\n    /**\n     * @dev Get ETH worth of an array of strategy tokens.\n     * @param strategyTokensBalance_ Array amounts of strategy tokens to convert.\n     * @param excludeFees If uniswap fees is considered.\n     */\n    function _getEthAmountByStrategyTokensAmount(\n        uint256[] memory strategyTokensBalance_, \n        bool excludeFees\n    ) private view returns (uint256) {\n        uint256 amountOut = 0;\n        address[] memory path = new address[](2);\n        path[1] = uniswapRouter.WETH();\n\n        for (uint8 i = 0; i < _strategyTokenCount; i++) {\n            address tokenAddress = _strategyTokens[i].tokenAddress;\n            path[0] = tokenAddress;\n            uint256 tokenAmount = strategyTokensBalance_[i];\n            uint256 tokenAmountInEth = _getEthAmountByTokenAmount(tokenAmount, tokenAddress, excludeFees);\n\n            amountOut = amountOut.add(tokenAmountInEth);\n        }\n        return amountOut;\n    }\n\n    /**\n     * @dev Get DR-POD worth in an array of strategy tokens.\n     * @param _amount Amount of DR-POD to convert.\n     */\n    function _getStrategyTokensByPodAmount(uint256 _amount) private view returns (uint256[] memory) {\n        uint256[] memory strategyTokenAmount = new uint256[](_strategyTokenCount);\n\n        uint256 podFraction = _amount.mul(1e10).div(totalSupply());\n        for (uint8 i = 0; i < _strategyTokenCount; i++) {\n            strategyTokenAmount[i] = IERC20(_strategyTokens[i].tokenAddress).balanceOf(address(this)).mul(podFraction).div(1e10);\n        }\n        return strategyTokenAmount;\n    }\n\n    /**\n     * @dev Convert a token to WETH via the Uniswap router.\n     * @param _amount Amount of tokens to swap.\n     * @param _tokenAddress Address of token to swap.\n     * @param deadline Unix timestamp after which the transaction will revert.\n     */\n    function _convertTokenToEth(\n        uint256 _amount,\n        address _tokenAddress,\n        uint32 deadline\n    ) private returns (uint256) {\n        if (_tokenAddress == uniswapRouter.WETH() || _amount == 0) {\n            return _amount;\n        }\n        address[] memory path = new address[](2);\n        path[0] = _tokenAddress;\n        path[1] = uniswapRouter.WETH();\n        SafeERC20.safeApprove(IERC20(path[0]), address(uniswapRouter), _amount);\n        uint256 amountOut = uniswapRouter.getAmountsOut(_amount, path)[1];\n        uniswapRouter.swapExactTokensForTokens(_amount, amountOut, path, address(this), deadline);\n        return amountOut;\n    }\n\n    /**\n     * @dev Convert ETH to another token via the Uniswap router.\n     * @param _amount Amount of WETH to swap.\n     * @param _tokenAddress Address of token to swap to.\n     * @param deadline Unix timestamp after which the transaction will revert.\n     */\n    function _convertEthToToken(\n        uint256 _amount,\n        address _tokenAddress,\n        uint32 deadline\n    ) private returns (uint256) {\n        if (_tokenAddress == uniswapRouter.WETH() || _amount == 0) {\n            return _amount;\n        }\n        address[] memory path = new address[](2);\n        path[0] = uniswapRouter.WETH();\n        path[1] = _tokenAddress;\n        SafeERC20.safeApprove(IERC20(path[0]), address(uniswapRouter), _amount);\n        uint256 amountOut = uniswapRouter.getAmountsOut(_amount, path)[1];\n        uniswapRouter.swapExactTokensForTokens(_amount, amountOut, path, address(this), deadline);\n        return amountOut;\n    }\n\n    /**\n     * @dev Convert ETH to strategy tokens of DR in their allocation percentage.\n     * @param amount Amount of WETH to swap.\n     * @param deadline Unix timestamp after which the transaction will revert.\n     */\n    function _convertEthToStrategyTokens(\n        uint256 amount, \n        uint32 deadline\n    ) private returns (uint256[] memory) {\n        for (uint8 i = 0; i < _strategyTokenCount; i++) {\n            uint256 amountToConvert = amount.mul(_strategyTokens[i].tokenPercentage).div(100);\n            _convertEthToToken(amountToConvert, _strategyTokens[i].tokenAddress, deadline);\n        }\n    }\n\n    /**\n     * @dev Convert strategy tokens to WETH.\n     * @param amountToConvert Array of the amounts of strategy tokens to swap.\n     * @param deadline Unix timestamp after which the transaction will revert.\n     */\n    function _convertStrategyTokensToEth(\n        uint256[] memory amountToConvert, \n        uint32 deadline\n    ) private returns (uint256) {\n        uint256 ethConverted = 0;\n        for (uint8 i = 0; i < _strategyTokenCount; i++) {\n            uint256 amountConverted = _convertTokenToEth(amountToConvert[i], _strategyTokens[i].tokenAddress, deadline);\n            ethConverted = ethConverted.add(amountConverted);\n        }\n        return ethConverted;\n    }\n}\n",
  "sourcePath": "/Users/fayexue/if-x-github/digital-reserve/contracts/DigitalReserve.sol",
  "compiler": {
    "name": "solc",
    "version": "0.6.12+commit.27d51765.Emscripten.clang"
  },
  "schemaVersion": "3.3.3",
  "updatedAt": "2021-02-11T00:12:21.521Z",
  "devdoc": {
    "details": "Implementation of Digital Reserve contract. Digital Reserve contract converts user's DRC into a set of SoV assets using the Uniswap router, and hold these assets for it's users. When users initiate a withdrawal action, the contract converts a share of the vault, that the user is requesting, to DRC and sends it back to their wallet.",
    "kind": "dev",
    "methods": {
      "allowance(address,address)": {
        "details": "See {IERC20-allowance}."
      },
      "approve(address,uint256)": {
        "details": "See {IERC20-approve}. Requirements: - `spender` cannot be the zero address."
      },
      "balanceOf(address)": {
        "details": "See {IERC20-balanceOf}."
      },
      "changeDepositStatus(bool)": {
        "details": "Enable or disable deposit.",
        "params": {
          "status": "Deposit allowed or not Disable deposit if it is to protect users' fund if there's any security issue or assist DR upgrade."
        }
      },
      "changeFee(uint8,uint8)": {
        "details": "Change withdrawal fee percentage. If 1%, then input (1,100) If 0.5%, then input (5,1000)",
        "params": {
          "withdrawalFeeBase_": "Fraction of withdrawal fee base",
          "withdrawalFeeFraction_": "Fraction of withdrawal fee based on withdrawalFeeBase_"
        }
      },
      "changeStrategy(address[],uint8[],uint32)": {
        "details": "Set or change DR strategy tokens and allocations.",
        "params": {
          "deadline": "Unix timestamp after which the transaction will revert.",
          "strategyTokens_": "Array of strategy tokens.",
          "tokenPercentage_": "Array of strategy tokens' percentage allocations."
        }
      },
      "constructor": {
        "details": "Set Uniswap router address, DRC token address, DR name."
      },
      "decimals()": {
        "details": "Returns the number of decimals used to get its user representation. For example, if `decimals` equals `2`, a balance of `505` tokens should be displayed to a user as `5,05` (`505 / 10 ** 2`). Tokens usually opt for a value of 18, imitating the relationship between Ether and Wei. This is the value {ERC20} uses, unless {_setupDecimals} is called. NOTE: This information is only used for _display_ purposes: it in no way affects any of the arithmetic of the contract, including {IERC20-balanceOf} and {IERC20-transfer}."
      },
      "decreaseAllowance(address,uint256)": {
        "details": "Atomically decreases the allowance granted to `spender` by the caller. This is an alternative to {approve} that can be used as a mitigation for problems described in {IERC20-approve}. Emits an {Approval} event indicating the updated allowance. Requirements: - `spender` cannot be the zero address. - `spender` must have allowance for the caller of at least `subtractedValue`."
      },
      "depositDrc(uint256,uint32)": {
        "details": "See {IDigitalReserve-depositDrc}."
      },
      "getProofOfDepositPrice()": {
        "details": "See {IDigitalReserve-getProofOfDepositPrice}."
      },
      "getUserVaultInDrc(address,uint8)": {
        "details": "See {IDigitalReserve-getUserVaultInDrc}."
      },
      "increaseAllowance(address,uint256)": {
        "details": "Atomically increases the allowance granted to `spender` by the caller. This is an alternative to {approve} that can be used as a mitigation for problems described in {IERC20-approve}. Emits an {Approval} event indicating the updated allowance. Requirements: - `spender` cannot be the zero address."
      },
      "name()": {
        "details": "Returns the name of the token."
      },
      "owner()": {
        "details": "Returns the address of the current owner."
      },
      "priceDecimals()": {
        "details": "See {IDigitalReserve-priceDecimals}."
      },
      "rebalance(uint32)": {
        "details": "Realigning the weighting of a portfolio of assets to the strategy allocation that is defined. Only convert the amount that's necessory to convert to not be charged 0.3% uniswap fee for everything. This in total saves 0.6% fee for majority of the assets.",
        "params": {
          "deadline": "Unix timestamp after which the transaction will revert."
        }
      },
      "renounceOwnership()": {
        "details": "Leaves the contract without owner. It will not be possible to call `onlyOwner` functions anymore. Can only be called by the current owner. NOTE: Renouncing ownership will leave the contract without an owner, thereby removing any functionality that is only available to the owner."
      },
      "strategyTokenCount()": {
        "details": "See {IDigitalReserve-strategyTokenCount}."
      },
      "strategyTokens(uint8)": {
        "details": "See {IDigitalReserve-strategyTokens}."
      },
      "symbol()": {
        "details": "Returns the symbol of the token, usually a shorter version of the name."
      },
      "totalSupply()": {
        "details": "See {IERC20-totalSupply}."
      },
      "totalTokenStored()": {
        "details": "See {IDigitalReserve-totalTokenStored}."
      },
      "transfer(address,uint256)": {
        "details": "See {IERC20-transfer}. Requirements: - `recipient` cannot be the zero address. - the caller must have a balance of at least `amount`."
      },
      "transferFrom(address,address,uint256)": {
        "details": "See {IERC20-transferFrom}. Emits an {Approval} event indicating the updated allowance. This is not required by the EIP. See the note at the beginning of {ERC20}. Requirements: - `sender` and `recipient` cannot be the zero address. - `sender` must have a balance of at least `amount`. - the caller must have allowance for ``sender``'s tokens of at least `amount`."
      },
      "transferOwnership(address)": {
        "details": "Transfers ownership of the contract to a new account (`newOwner`). Can only be called by the current owner."
      },
      "withdrawDrc(uint256,uint32)": {
        "details": "See {IDigitalReserve-withdrawDrc}."
      },
      "withdrawPercentage(uint8,uint32)": {
        "details": "See {IDigitalReserve-withdrawPercentage}."
      },
      "withdrawalFee()": {
        "details": "See {IDigitalReserve-withdrawalFee}."
      }
    },
    "version": 1
  },
  "userdoc": {
    "kind": "user",
    "methods": {},
    "version": 1
  }
}