{
  "contractName": "DigitalReserve",
  "abi": [
    {
      "inputs": [
        {
          "internalType": "address",
          "name": "_router",
          "type": "address"
        },
        {
          "internalType": "address",
          "name": "_drcAddress",
          "type": "address"
        },
        {
          "internalType": "string",
          "name": "_name",
          "type": "string"
        }
      ],
      "stateMutability": "nonpayable",
      "type": "constructor"
    },
    {
      "anonymous": false,
      "inputs": [
        {
          "indexed": true,
          "internalType": "address",
          "name": "owner",
          "type": "address"
        },
        {
          "indexed": true,
          "internalType": "address",
          "name": "spender",
          "type": "address"
        },
        {
          "indexed": false,
          "internalType": "uint256",
          "name": "value",
          "type": "uint256"
        }
      ],
      "name": "Approval",
      "type": "event"
    },
    {
      "anonymous": false,
      "inputs": [
        {
          "indexed": true,
          "internalType": "address",
          "name": "user",
          "type": "address"
        },
        {
          "indexed": false,
          "internalType": "uint256",
          "name": "amount",
          "type": "uint256"
        },
        {
          "indexed": false,
          "internalType": "uint256",
          "name": "podMinted",
          "type": "uint256"
        },
        {
          "indexed": false,
          "internalType": "uint256",
          "name": "podTotalSupply",
          "type": "uint256"
        },
        {
          "indexed": false,
          "internalType": "uint256[]",
          "name": "tokensStored",
          "type": "uint256[]"
        }
      ],
      "name": "Deposit",
      "type": "event"
    },
    {
      "anonymous": false,
      "inputs": [
        {
          "indexed": true,
          "internalType": "address",
          "name": "previousOwner",
          "type": "address"
        },
        {
          "indexed": true,
          "internalType": "address",
          "name": "newOwner",
          "type": "address"
        }
      ],
      "name": "OwnershipTransferred",
      "type": "event"
    },
    {
      "anonymous": false,
      "inputs": [
        {
          "indexed": false,
          "internalType": "address[]",
          "name": "strategyTokens",
          "type": "address[]"
        },
        {
          "indexed": false,
          "internalType": "uint8[]",
          "name": "tokenPercentage",
          "type": "uint8[]"
        },
        {
          "indexed": false,
          "internalType": "uint256[]",
          "name": "tokensStored",
          "type": "uint256[]"
        }
      ],
      "name": "Rebalance",
      "type": "event"
    },
    {
      "anonymous": false,
      "inputs": [
        {
          "indexed": false,
          "internalType": "address[]",
          "name": "oldTokens",
          "type": "address[]"
        },
        {
          "indexed": false,
          "internalType": "uint8[]",
          "name": "oldPercentage",
          "type": "uint8[]"
        },
        {
          "indexed": false,
          "internalType": "address[]",
          "name": "newTokens",
          "type": "address[]"
        },
        {
          "indexed": false,
          "internalType": "uint8[]",
          "name": "newPercentage",
          "type": "uint8[]"
        },
        {
          "indexed": false,
          "internalType": "uint256[]",
          "name": "tokensStored",
          "type": "uint256[]"
        }
      ],
      "name": "StrategyChange",
      "type": "event"
    },
    {
      "anonymous": false,
      "inputs": [
        {
          "indexed": true,
          "internalType": "address",
          "name": "from",
          "type": "address"
        },
        {
          "indexed": true,
          "internalType": "address",
          "name": "to",
          "type": "address"
        },
        {
          "indexed": false,
          "internalType": "uint256",
          "name": "value",
          "type": "uint256"
        }
      ],
      "name": "Transfer",
      "type": "event"
    },
    {
      "anonymous": false,
      "inputs": [
        {
          "indexed": true,
          "internalType": "address",
          "name": "user",
          "type": "address"
        },
        {
          "indexed": false,
          "internalType": "uint256",
          "name": "amount",
          "type": "uint256"
        },
        {
          "indexed": false,
          "internalType": "uint256",
          "name": "fees",
          "type": "uint256"
        },
        {
          "indexed": false,
          "internalType": "uint256",
          "name": "podBurned",
          "type": "uint256"
        },
        {
          "indexed": false,
          "internalType": "uint256",
          "name": "podTotalSupply",
          "type": "uint256"
        },
        {
          "indexed": false,
          "internalType": "uint256[]",
          "name": "tokensStored",
          "type": "uint256[]"
        }
      ],
      "name": "Withdraw",
      "type": "event"
    },
    {
      "inputs": [
        {
          "internalType": "address",
          "name": "owner",
          "type": "address"
        },
        {
          "internalType": "address",
          "name": "spender",
          "type": "address"
        }
      ],
      "name": "allowance",
      "outputs": [
        {
          "internalType": "uint256",
          "name": "",
          "type": "uint256"
        }
      ],
      "stateMutability": "view",
      "type": "function"
    },
    {
      "inputs": [
        {
          "internalType": "address",
          "name": "spender",
          "type": "address"
        },
        {
          "internalType": "uint256",
          "name": "amount",
          "type": "uint256"
        }
      ],
      "name": "approve",
      "outputs": [
        {
          "internalType": "bool",
          "name": "",
          "type": "bool"
        }
      ],
      "stateMutability": "nonpayable",
      "type": "function"
    },
    {
      "inputs": [
        {
          "internalType": "address",
          "name": "account",
          "type": "address"
        }
      ],
      "name": "balanceOf",
      "outputs": [
        {
          "internalType": "uint256",
          "name": "",
          "type": "uint256"
        }
      ],
      "stateMutability": "view",
      "type": "function"
    },
    {
      "inputs": [],
      "name": "decimals",
      "outputs": [
        {
          "internalType": "uint8",
          "name": "",
          "type": "uint8"
        }
      ],
      "stateMutability": "view",
      "type": "function"
    },
    {
      "inputs": [
        {
          "internalType": "address",
          "name": "spender",
          "type": "address"
        },
        {
          "internalType": "uint256",
          "name": "subtractedValue",
          "type": "uint256"
        }
      ],
      "name": "decreaseAllowance",
      "outputs": [
        {
          "internalType": "bool",
          "name": "",
          "type": "bool"
        }
      ],
      "stateMutability": "nonpayable",
      "type": "function"
    },
    {
      "inputs": [
        {
          "internalType": "address",
          "name": "spender",
          "type": "address"
        },
        {
          "internalType": "uint256",
          "name": "addedValue",
          "type": "uint256"
        }
      ],
      "name": "increaseAllowance",
      "outputs": [
        {
          "internalType": "bool",
          "name": "",
          "type": "bool"
        }
      ],
      "stateMutability": "nonpayable",
      "type": "function"
    },
    {
      "inputs": [],
      "name": "name",
      "outputs": [
        {
          "internalType": "string",
          "name": "",
          "type": "string"
        }
      ],
      "stateMutability": "view",
      "type": "function"
    },
    {
      "inputs": [],
      "name": "owner",
      "outputs": [
        {
          "internalType": "address",
          "name": "",
          "type": "address"
        }
      ],
      "stateMutability": "view",
      "type": "function"
    },
    {
      "inputs": [],
      "name": "renounceOwnership",
      "outputs": [],
      "stateMutability": "nonpayable",
      "type": "function"
    },
    {
      "inputs": [],
      "name": "symbol",
      "outputs": [
        {
          "internalType": "string",
          "name": "",
          "type": "string"
        }
      ],
      "stateMutability": "view",
      "type": "function"
    },
    {
      "inputs": [],
      "name": "totalSupply",
      "outputs": [
        {
          "internalType": "uint256",
          "name": "",
          "type": "uint256"
        }
      ],
      "stateMutability": "view",
      "type": "function"
    },
    {
      "inputs": [
        {
          "internalType": "address",
          "name": "recipient",
          "type": "address"
        },
        {
          "internalType": "uint256",
          "name": "amount",
          "type": "uint256"
        }
      ],
      "name": "transfer",
      "outputs": [
        {
          "internalType": "bool",
          "name": "",
          "type": "bool"
        }
      ],
      "stateMutability": "nonpayable",
      "type": "function"
    },
    {
      "inputs": [
        {
          "internalType": "address",
          "name": "sender",
          "type": "address"
        },
        {
          "internalType": "address",
          "name": "recipient",
          "type": "address"
        },
        {
          "internalType": "uint256",
          "name": "amount",
          "type": "uint256"
        }
      ],
      "name": "transferFrom",
      "outputs": [
        {
          "internalType": "bool",
          "name": "",
          "type": "bool"
        }
      ],
      "stateMutability": "nonpayable",
      "type": "function"
    },
    {
      "inputs": [
        {
          "internalType": "address",
          "name": "newOwner",
          "type": "address"
        }
      ],
      "name": "transferOwnership",
      "outputs": [],
      "stateMutability": "nonpayable",
      "type": "function"
    },
    {
      "inputs": [],
      "name": "strategyTokenCount",
      "outputs": [
        {
          "internalType": "uint256",
          "name": "",
          "type": "uint256"
        }
      ],
      "stateMutability": "view",
      "type": "function"
    },
    {
      "inputs": [
        {
          "internalType": "uint8",
          "name": "index",
          "type": "uint8"
        }
      ],
      "name": "strategyTokens",
      "outputs": [
        {
          "internalType": "address",
          "name": "",
          "type": "address"
        }
      ],
      "stateMutability": "view",
      "type": "function"
    },
    {
      "inputs": [
        {
          "internalType": "address",
          "name": "tokenAddress",
          "type": "address"
        }
      ],
      "name": "tokenPercentage",
      "outputs": [
        {
          "internalType": "uint8",
          "name": "",
          "type": "uint8"
        }
      ],
      "stateMutability": "view",
      "type": "function"
    },
    {
      "inputs": [],
      "name": "withdrawalFee",
      "outputs": [
        {
          "internalType": "uint8",
          "name": "",
          "type": "uint8"
        },
        {
          "internalType": "uint8",
          "name": "",
          "type": "uint8"
        }
      ],
      "stateMutability": "view",
      "type": "function"
    },
    {
      "inputs": [],
      "name": "priceDecimals",
      "outputs": [
        {
          "internalType": "uint8",
          "name": "",
          "type": "uint8"
        }
      ],
      "stateMutability": "view",
      "type": "function"
    },
    {
      "inputs": [],
      "name": "totalTokenStored",
      "outputs": [
        {
          "internalType": "uint256[]",
          "name": "",
          "type": "uint256[]"
        }
      ],
      "stateMutability": "view",
      "type": "function"
    },
    {
      "inputs": [
        {
          "internalType": "address",
          "name": "user",
          "type": "address"
        },
        {
          "internalType": "uint8",
          "name": "percentage",
          "type": "uint8"
        }
      ],
      "name": "getUserVaultInDrc",
      "outputs": [
        {
          "internalType": "uint256",
          "name": "",
          "type": "uint256"
        },
        {
          "internalType": "uint256",
          "name": "",
          "type": "uint256"
        },
        {
          "internalType": "uint256",
          "name": "",
          "type": "uint256"
        }
      ],
      "stateMutability": "view",
      "type": "function"
    },
    {
      "inputs": [],
      "name": "getProofOfDepositPrice",
      "outputs": [
        {
          "internalType": "uint256",
          "name": "",
          "type": "uint256"
        }
      ],
      "stateMutability": "view",
      "type": "function"
    },
    {
      "inputs": [
        {
          "internalType": "uint256",
          "name": "drcAmount",
          "type": "uint256"
        },
        {
          "internalType": "uint32",
          "name": "deadline",
          "type": "uint32"
        }
      ],
      "name": "depositDrc",
      "outputs": [],
      "stateMutability": "nonpayable",
      "type": "function"
    },
    {
      "inputs": [
        {
          "internalType": "uint256",
          "name": "drcAmount",
          "type": "uint256"
        },
        {
          "internalType": "uint32",
          "name": "deadline",
          "type": "uint32"
        }
      ],
      "name": "withdrawDrc",
      "outputs": [],
      "stateMutability": "nonpayable",
      "type": "function"
    },
    {
      "inputs": [
        {
          "internalType": "uint8",
          "name": "percentage",
          "type": "uint8"
        },
        {
          "internalType": "uint32",
          "name": "deadline",
          "type": "uint32"
        }
      ],
      "name": "withdrawPercentage",
      "outputs": [],
      "stateMutability": "nonpayable",
      "type": "function"
    },
    {
      "inputs": [
        {
          "internalType": "bool",
          "name": "status",
          "type": "bool"
        }
      ],
      "name": "changeDepositStatus",
      "outputs": [],
      "stateMutability": "nonpayable",
      "type": "function"
    },
    {
      "inputs": [
        {
          "internalType": "uint8",
          "name": "withdrawalFeeFraction_",
          "type": "uint8"
        },
        {
          "internalType": "uint8",
          "name": "withdrawalFeeBase_",
          "type": "uint8"
        }
      ],
      "name": "changeFee",
      "outputs": [],
      "stateMutability": "nonpayable",
      "type": "function"
    },
    {
      "inputs": [
        {
          "internalType": "address[]",
          "name": "strategyTokens_",
          "type": "address[]"
        },
        {
          "internalType": "uint8[]",
          "name": "tokenPercentage_",
          "type": "uint8[]"
        },
        {
          "internalType": "uint32",
          "name": "deadline",
          "type": "uint32"
        }
      ],
      "name": "changeStrategy",
      "outputs": [],
      "stateMutability": "nonpayable",
      "type": "function"
    },
    {
      "inputs": [
        {
          "internalType": "uint32",
          "name": "deadline",
          "type": "uint32"
        }
      ],
      "name": "rebalance",
      "outputs": [],
      "stateMutability": "nonpayable",
      "type": "function"
    }
  ],
  "bytecode": "0x60a060405260088054600160ff199091161761ff0019166164001760ff60b01b191690553480156200003057600080fd5b50604051620051d3380380620051d3833981810160405260608110156200005657600080fd5b815160208301516040808501805191519395929483019291846401000000008211156200008257600080fd5b9083019060208201858111156200009857600080fd5b8251640100000000811182820188101715620000b357600080fd5b82525081516020918201929091019080838360005b83811015620000e2578181015183820152602001620000c8565b50505050905090810190601f168015620001105780820380516001836020036101000a031916815260200191505b5060408181019052600681526511148b5413d160d21b60208083019190915285518695509193506200014a92506003919085019062000217565b5080516200016090600490602084019062000217565b50506005805460ff191660121790555060006200017c62000213565b60058054610100600160a81b0319166101006001600160a01b03841690810291909117909155604051919250906000907f8be0079c531659141344cd1fd0a4f28419497f9722a3daafe3b4186f6b6457e0908290a350506008805462010000600160b01b031916620100006001600160a01b03939093169290920291909117905560601b6001600160601b031916608052620002b3565b3390565b828054600181600116156101000203166002900490600052602060002090601f016020900481019282601f106200025a57805160ff19168380011785556200028a565b828001600101855582156200028a579182015b828111156200028a5782518255916020019190600101906200026d565b50620002989291506200029c565b5090565b5b808211156200029857600081556001016200029d565b60805160601c614ec16200031260003980610ead5280610fc85280612b89528061318c52806132b652806133a95280613426528061359e5280613bd45280613d265280613dce5280613e685280613f4a52806146f15250614ec16000f3fe608060405234801561001057600080fd5b50600436106101ce5760003560e01c8063715018a611610104578063a457c2d7116100a2578063d34ee4c011610071578063d34ee4c0146106f6578063dd62ed3e14610729578063df9f856414610764578063f2fde38b1461076c576101ce565b8063a457c2d71461060d578063a47c12b514610646578063a9059cbb14610665578063bd8066211461069e576101ce565b80638bc7e8c4116100de5780638bc7e8c41461050a5780638da5cb5b1461053557806395d89b411461053d578063a22af85714610545576101ce565b8063715018a6146104855780637b123c3a1461048d57806380a35fbb146104e7576101ce565b8063313ce567116101715780634c1839181161014b5780634c183918146103d55780636c3f4e07146103fe5780636f827c341461042657806370a0823114610452576101ce565b8063313ce56714610369578063395093511461037157806347e6dece146103aa576101ce565b8063095ea7b3116101ad578063095ea7b3146102b757806318160ddd1461030457806318181a9c1461031e57806323b872dd14610326576101ce565b80627865b5146101d357806305300b281461021c57806306fdde031461023a575b600080fd5b6101f3600480360360208110156101e957600080fd5b503560ff1661079f565b6040805173ffffffffffffffffffffffffffffffffffffffff9092168252519081900360200190f35b6102246107d9565b6040805160ff9092168252519081900360200190f35b6102426107de565b6040805160208082528351818301528351919283929083019185019080838360005b8381101561027c578181015183820152602001610264565b50505050905090810190601f1680156102a95780820380516001836020036101000a031916815260200191505b509250505060405180910390f35b6102f0600480360360408110156102cd57600080fd5b5073ffffffffffffffffffffffffffffffffffffffff8135169060200135610892565b604080519115158252519081900360200190f35b61030c6108b0565b60408051918252519081900360200190f35b61030c6108b6565b6102f06004803603606081101561033c57600080fd5b5073ffffffffffffffffffffffffffffffffffffffff813581169160208101359091169060400135610905565b6102246109a7565b6102f06004803603604081101561038757600080fd5b5073ffffffffffffffffffffffffffffffffffffffff81351690602001356109b0565b6103d3600480360360408110156103c057600080fd5b508035906020013563ffffffff16610a0b565b005b6103d3600480360360408110156103eb57600080fd5b508035906020013563ffffffff16610e8b565b6103d36004803603604081101561041457600080fd5b5060ff81358116916020013516611267565b6103d36004803603604081101561043c57600080fd5b50803560ff16906020013563ffffffff16611447565b61030c6004803603602081101561046857600080fd5b503573ffffffffffffffffffffffffffffffffffffffff166114cc565b6103d36114f4565b6104c9600480360360408110156104a357600080fd5b50803573ffffffffffffffffffffffffffffffffffffffff16906020013560ff166115fe565b60408051938452602084019290925282820152519081900360600190f35b6103d3600480360360208110156104fd57600080fd5b503563ffffffff166116e0565b610512611e19565b604051808360ff1681526020018260ff1681526020019250505060405180910390f35b6101f3611e2c565b610242611e4d565b6103d36004803603606081101561055b57600080fd5b81019060208101813564010000000081111561057657600080fd5b82018360208201111561058857600080fd5b803590602001918460208302840111640100000000831117156105aa57600080fd5b9193909290916020810190356401000000008111156105c857600080fd5b8201836020820111156105da57600080fd5b803590602001918460208302840111640100000000831117156105fc57600080fd5b91935091503563ffffffff16611ecc565b6102f06004803603604081101561062357600080fd5b5073ffffffffffffffffffffffffffffffffffffffff8135169060200135612569565b6103d36004803603602081101561065c57600080fd5b503515156125de565b6102f06004803603604081101561067b57600080fd5b5073ffffffffffffffffffffffffffffffffffffffff81351690602001356126c0565b6106a66126d4565b60408051602080825283518183015283519192839290830191858101910280838360005b838110156106e25781810151838201526020016106ca565b505050509050019250505060405180910390f35b6102246004803603602081101561070c57600080fd5b503573ffffffffffffffffffffffffffffffffffffffff16612812565b61030c6004803603604081101561073f57600080fd5b5073ffffffffffffffffffffffffffffffffffffffff8135811691602001351661283d565b61030c612875565b6103d36004803603602081101561078257600080fd5b503573ffffffffffffffffffffffffffffffffffffffff1661287b565b600060068260ff16815481106107b157fe5b60009182526020909120015473ffffffffffffffffffffffffffffffffffffffff1692915050565b601290565b60038054604080516020601f60027fffffffffffffffffffffffffffffffffffffffffffffffffffffffffffffffff6101006001881615020190951694909404938401819004810282018101909252828152606093909290918301828280156108885780601f1061085d57610100808354040283529160200191610888565b820191906000526020600020905b81548152906001019060200180831161086b57829003601f168201915b5050505050905090565b60006108a661089f612a15565b8484612a19565b5060015b92915050565b60025490565b600080806108c26108b0565b1115610900576108fd6108d36108b0565b6108f7670de0b6b3a76400006108f16108ea6126d4565b6001612b60565b90612d43565b90612db6565b90505b905090565b6000610912848484612df8565b61099c8461091e612a15565b61099785604051806060016040528060288152602001614cf56028913973ffffffffffffffffffffffffffffffffffffffff8a16600090815260016020526040812090610969612a15565b73ffffffffffffffffffffffffffffffffffffffff1681526020810191909152604001600020549190612fc8565b612a19565b5060015b9392505050565b60055460ff1690565b60006108a66109bd612a15565b8461099785600160006109ce612a15565b73ffffffffffffffffffffffffffffffffffffffff908116825260208083019390935260409182016000908120918c168152925290205490613079565b6001610a15612875565b1015610a8257604080517f08c379a000000000000000000000000000000000000000000000000000000000815260206004820152601960248201527f5374726174656779206861736e2774206265656e207365742e00000000000000604482015290519081900360640190fd5b600854760100000000000000000000000000000000000000000000900460ff16610b0d57604080517f08c379a000000000000000000000000000000000000000000000000000000000815260206004820152601460248201527f4465706f7369742069732064697361626c65642e000000000000000000000000604482015290519081900360640190fd5b600854604080517fdd62ed3e0000000000000000000000000000000000000000000000000000000081523360048201523060248201529051849262010000900473ffffffffffffffffffffffffffffffffffffffff169163dd62ed3e916044808301926020929190829003018186803b158015610b8957600080fd5b505afa158015610b9d573d6000803e3d6000fd5b505050506040513d6020811015610bb357600080fd5b50511015610c0c576040517f08c379a000000000000000000000000000000000000000000000000000000000815260040180806020018281038252602c815260200180614e3b602c913960400191505060405180910390fd5b600854604080517f70a082310000000000000000000000000000000000000000000000000000000081523360048201529051849262010000900473ffffffffffffffffffffffffffffffffffffffff16916370a08231916024808301926020929190829003018186803b158015610c8257600080fd5b505afa158015610c96573d6000803e3d6000fd5b505050506040513d6020811015610cac57600080fd5b50511015610d05576040517f08c379a0000000000000000000000000000000000000000000000000000000008152600401808060200182810382526027815260200180614b426027913960400191505060405180910390fd5b600854610d309062010000900473ffffffffffffffffffffffffffffffffffffffff163330856130ed565b6000610d3a6108b6565b90506000610d6b84600860029054906101000a900473ffffffffffffffffffffffffffffffffffffffff1685613188565b9050610d77818461377d565b506000610d826108b0565b610d9e57610d978566038d7ea4c68000612d43565b9050610dde565b6000610dab6108ea6126d4565b90506000610dc5856108f784670de0b6b3a7640000612d43565b9050610dd9610dd26108b0565b829061383d565b925050505b610de8338261387f565b337fb6612cab106733f4b1d00a1ce087eec48ed4655a50cf2faa2e46ff415db691b98683610e146108b0565b610e1c6126d4565b6040518085815260200184815260200183815260200180602001828103825283818151815260200191508051906020019060200280838360005b83811015610e6e578181015183820152602001610e56565b505050509050019550505050505060405180910390a25050505050565b60408051600280825260608083018452926020830190803683370190505090507f000000000000000000000000000000000000000000000000000000000000000073ffffffffffffffffffffffffffffffffffffffff1663ad5c46486040518163ffffffff1660e01b815260040160206040518083038186803b158015610f1157600080fd5b505afa158015610f25573d6000803e3d6000fd5b505050506040513d6020811015610f3b57600080fd5b505181518290600090610f4a57fe5b73ffffffffffffffffffffffffffffffffffffffff92831660209182029290920101526008548251620100009091049091169082906001908110610f8a57fe5b602002602001019073ffffffffffffffffffffffffffffffffffffffff16908173ffffffffffffffffffffffffffffffffffffffff168152505060007f000000000000000000000000000000000000000000000000000000000000000073ffffffffffffffffffffffffffffffffffffffff16631f00ca7485846040518363ffffffff1660e01b81526004018083815260200180602001828103825283818151815260200191508051906020019060200280838360005b83811015611059578181015183820152602001611041565b50505050905001935050505060006040518083038186803b15801561107d57600080fd5b505afa158015611091573d6000803e3d6000fd5b505050506040513d6000823e601f3d9081017fffffffffffffffffffffffffffffffffffffffffffffffffffffffffffffffe016820160405260208110156110d857600080fd5b81019080805160405193929190846401000000008211156110f857600080fd5b90830190602082018581111561110d57600080fd5b825186602082028301116401000000008211171561112a57600080fd5b82525081516020918201928201910280838360005b8381101561115757818101518382015260200161113f565b5050505090500160405250505060008151811061117057fe5b60209081029190910101516008549091506000906111a29060ff61010082048116916108f79186918116840116612d43565b905060606111b76111b2336114cc565b6139b0565b905060006111c6826000612b60565b905082811015611221576040517f08c379a000000000000000000000000000000000000000000000000000000000815260040180806020018281038252602d815260200180614d1d602d913960400191505060405180910390fd5b6000611236826108f7866402540be400612d43565b905060006112506402540be4006108f7846108f1336114cc565b905061125c8189613b20565b505050505050505050565b61126f612a15565b600554610100900473ffffffffffffffffffffffffffffffffffffffff9081169116146112fd57604080517f08c379a000000000000000000000000000000000000000000000000000000000815260206004820181905260248201527f4f776e61626c653a2063616c6c6572206973206e6f7420746865206f776e6572604482015290519081900360640190fd5b8060ff168260ff16111561137257604080517f08c379a000000000000000000000000000000000000000000000000000000000815260206004820152601b60248201527f466565206672616374696f6e20657863656564656420626173652e0000000000604482015290519081900360640190fd5b60008160ff168360640260ff168161138657fe5b04905060028160ff1611156113e6576040517f08c379a0000000000000000000000000000000000000000000000000000000008152600401808060200182810382526029815260200180614bf66029913960400191505060405180910390fd5b506008805460ff928316610100027fffffffffffffffffffffffffffffffffffffffffffffffffffffffffffff00ff949093167fffffffffffffffffffffffffffffffffffffffffffffffffffffffffffffff009091161792909216179055565b60648260ff1611156114a4576040517f08c379a000000000000000000000000000000000000000000000000000000000815260040180806020018281038252602f815260200180614c68602f913960400191505060405180910390fd5b60006114bb60646108f78560ff166108f1336114cc565b90506114c78183613b20565b505050565b73ffffffffffffffffffffffffffffffffffffffff1660009081526020819052604090205490565b6114fc612a15565b600554610100900473ffffffffffffffffffffffffffffffffffffffff90811691161461158a57604080517f08c379a000000000000000000000000000000000000000000000000000000000815260206004820181905260248201527f4f776e61626c653a2063616c6c6572206973206e6f7420746865206f776e6572604482015290519081900360640190fd5b600554604051600091610100900473ffffffffffffffffffffffffffffffffffffffff16907f8be0079c531659141344cd1fd0a4f28419497f9722a3daafe3b4186f6b6457e0908390a3600580547fffffffffffffffffffffff0000000000000000000000000000000000000000ff169055565b6000806000606061161d6111b260646108f78860ff166108f18b6114cc565b9050600061162c826001612b60565b9050600061163b836000612b60565b9050600061166d83600860029054906101000a900473ffffffffffffffffffffffffffffffffffffffff166001613d1e565b6008549091506000906116969060ff8082166101009092048116820116906108f7908690612d43565b905060006116cd6116a7858461383d565b60085462010000900473ffffffffffffffffffffffffffffffffffffffff166000613d1e565b9298509196509450505050509250925092565b6116e8612a15565b600554610100900473ffffffffffffffffffffffffffffffffffffffff90811691161461177657604080517f08c379a000000000000000000000000000000000000000000000000000000000815260206004820181905260248201527f4f776e61626c653a2063616c6c6572206973206e6f7420746865206f776e6572604482015290519081900360640190fd5b6000611780612875565b116117ec57604080517f08c379a000000000000000000000000000000000000000000000000000000000815260206004820152601860248201527f5374726174656779206861736e2774206265656e207365740000000000000000604482015290519081900360640190fd5b600060606117f8612875565b67ffffffffffffffff8111801561180e57600080fd5b50604051908082528060200260200182016040528015611838578160200160208202803683370190505b50905060005b611846612875565b8160ff16101561197257600061194060068360ff168154811061186557fe5b60009182526020918290200154604080517f70a08231000000000000000000000000000000000000000000000000000000008152306004820152905173ffffffffffffffffffffffffffffffffffffffff909216926370a0823192602480840193829003018186803b1580156118da57600080fd5b505afa1580156118ee573d6000803e3d6000fd5b505050506040513d602081101561190457600080fd5b50516006805460ff861690811061191757fe5b60009182526020909120015473ffffffffffffffffffffffffffffffffffffffff166001613dc5565b905061194c8482613079565b935080838360ff168151811061195e57fe5b60209081029190910101525060010161183e565b50606061197d612875565b67ffffffffffffffff8111801561199357600080fd5b506040519080825280602002602001820160405280156119bd578160200160208202803683370190505b50905060008060606119cd612875565b67ffffffffffffffff811180156119e357600080fd5b50604051908082528060200260200182016040528015611a0d578160200160208202803683370190505b50905060005b611a1b612875565b8160ff161015611c66576007600060068360ff1681548110611a3957fe5b600091825260208083209091015473ffffffffffffffffffffffffffffffffffffffff168352820192909252604001902054855160ff918216918791908416908110611a8157fe5b602002602001019060ff16908160ff16815250506000611aef60646108f76007600060068760ff1681548110611ab357fe5b600091825260208083209091015473ffffffffffffffffffffffffffffffffffffffff1683528201929092526040019020548b9060ff16612d43565b905080878360ff1681518110611b0157fe5b602002602001015111611b8257611b37878360ff1681518110611b2057fe5b60200260200101518261383d90919063ffffffff16565b838360ff1681518110611b4657fe5b602002602001018181525050611b7b838360ff1681518110611b6457fe5b60200260200101518661307990919063ffffffff16565b9450611c5d565b6000838360ff1681518110611b9357fe5b6020026020010181815250506000611bca82898560ff1681518110611bb457fe5b602002602001015161383d90919063ffffffff16565b90506000611c0b8260068660ff1681548110611be257fe5b60009182526020909120015473ffffffffffffffffffffffffffffffffffffffff166001613d1e565b90506000611c4b8260068760ff1681548110611c2357fe5b60009182526020909120015473ffffffffffffffffffffffffffffffffffffffff168e613188565b9050611c578782613079565b96505050505b50600101611a13565b5060005b611c72612875565b8160ff161015611cf3576000611cab856108f7858560ff1681518110611c9457fe5b602002602001015187612d4390919063ffffffff16565b9050611ce98160068460ff1681548110611cc157fe5b60009182526020909120015473ffffffffffffffffffffffffffffffffffffffff168b613e64565b5050600101611c6a565b507f266da61503975711d4058ea98596fa73002f2ba34e14a1984d6b6c9f5d165991600685611d206126d4565b604051808060200180602001806020018481038452878181548152602001915080548015611d8457602002820191906000526020600020905b815473ffffffffffffffffffffffffffffffffffffffff168152600190910190602001808311611d59575b50508481038352865181528651602091820191808901910280838360005b83811015611dba578181015183820152602001611da2565b50505050905001848103825285818151815260200191508051906020019060200280838360005b83811015611df9578181015183820152602001611de1565b50505050905001965050505050505060405180910390a150505050505050565b60085460ff808216916101009004169091565b600554610100900473ffffffffffffffffffffffffffffffffffffffff1690565b60048054604080516020601f60027fffffffffffffffffffffffffffffffffffffffffffffffffffffffffffffffff6101006001881615020190951694909404938401819004810282018101909252828152606093909290918301828280156108885780601f1061085d57610100808354040283529160200191610888565b611ed4612a15565b600554610100900473ffffffffffffffffffffffffffffffffffffffff908116911614611f6257604080517f08c379a000000000000000000000000000000000000000000000000000000000815260206004820181905260248201527f4f776e61626c653a2063616c6c6572206973206e6f7420746865206f776e6572604482015290519081900360640190fd5b6001841015611fd257604080517f08c379a000000000000000000000000000000000000000000000000000000000815260206004820152601d60248201527f53657474696e6720737472617465677920746f203020746f6b656e732e000000604482015290519081900360640190fd5b600584111561202c576040517f08c379a0000000000000000000000000000000000000000000000000000000008152600401808060200182810382526027815260200180614db46027913960400191505060405180910390fd5b838214612084576040517f08c379a000000000000000000000000000000000000000000000000000000000815260040180806020018281038252603d815260200180614c97603d913960400191505060405180910390fd5b6000805b60ff81168411156120bd5784848260ff168181106120a257fe5b9050602002013560ff16820191508080600101915050612088565b508060ff1660641461211a576040517f08c379a0000000000000000000000000000000000000000000000000000000008152600401808060200182810382526023815260200180614c1f6023913960400191505060405180910390fd5b6060600680548060200260200160405190810160405280929190818152602001828054801561217f57602002820191906000526020600020905b815473ffffffffffffffffffffffffffffffffffffffff168152600190910190602001808311612154575b505050505090506060612190612875565b67ffffffffffffffff811180156121a657600080fd5b506040519080825280602002602001820160405280156121d0578160200160208202803683370190505b50905060005b6121de612875565b8160ff1610156122cb576007600060068360ff16815481106121fc57fe5b600091825260208083209091015473ffffffffffffffffffffffffffffffffffffffff168352820192909252604001902054825160ff91821691849190841690811061224457fe5b602002602001019060ff16908160ff16815250506007600060068360ff168154811061226c57fe5b600091825260208083209091015473ffffffffffffffffffffffffffffffffffffffff168352820192909252604001902080547fffffffffffffffffffffffffffffffffffffffffffffffffffffffffffffff001690556001016121d6565b5060006122df6122d96126d4565b8661402f565b90506122ed60068a8a614a82565b5060005b6122f9612875565b8160ff16101561239a5787878260ff1681811061231257fe5b9050602002013560ff166007600060068460ff168154811061233057fe5b60009182526020808320919091015473ffffffffffffffffffffffffffffffffffffffff168352820192909252604001902080547fffffffffffffffffffffffffffffffffffffffffffffffffffffffffffffff001660ff929092169190911790556001016122f1565b506123a5818661377d565b507f78798c5f9f4b9bd15a3bce2ae480205cb99cf5b89b89b1bb505168c66887a948838360068a8a6123d56126d4565b60405180806020018060200180602001806020018060200186810386528c818151815260200191508051906020019060200280838360005b8381101561242557818101518382015260200161240d565b5050505090500186810385528b818151815260200191508051906020019060200280838360005b8381101561246457818101518382015260200161244c565b5050505090500186810384528a81815481526020019150805480156124bf57602002820191906000526020600020905b815473ffffffffffffffffffffffffffffffffffffffff168152600190910190602001808311612494575b505086810383528989828181526020019250602002808284376000838201819052601f9091017fffffffffffffffffffffffffffffffffffffffffffffffffffffffffffffffe0169092018881038452895181528951602091820193828c0193509102908190849084905b8381101561254257818101518382015260200161252a565b505050509050019b50505050505050505050505060405180910390a1505050505050505050565b60006108a6612576612a15565b8461099785604051806060016040528060258152602001614e6760259139600160006125a0612a15565b73ffffffffffffffffffffffffffffffffffffffff908116825260208083019390935260409182016000908120918d16815292529020549190612fc8565b6125e6612a15565b600554610100900473ffffffffffffffffffffffffffffffffffffffff90811691161461267457604080517f08c379a000000000000000000000000000000000000000000000000000000000815260206004820181905260248201527f4f776e61626c653a2063616c6c6572206973206e6f7420746865206f776e6572604482015290519081900360640190fd5b60088054911515760100000000000000000000000000000000000000000000027fffffffffffffffffff00ffffffffffffffffffffffffffffffffffffffffffff909216919091179055565b60006108a66126cd612a15565b8484612df8565b6060806126df612875565b67ffffffffffffffff811180156126f557600080fd5b5060405190808252806020026020018201604052801561271f578160200160208202803683370190505b50905060005b61272d612875565b8160ff16101561280c5760068160ff168154811061274757fe5b60009182526020918290200154604080517f70a08231000000000000000000000000000000000000000000000000000000008152306004820152905173ffffffffffffffffffffffffffffffffffffffff909216926370a0823192602480840193829003018186803b1580156127bc57600080fd5b505afa1580156127d0573d6000803e3d6000fd5b505050506040513d60208110156127e657600080fd5b50518251839060ff84169081106127f957fe5b6020908102919091010152600101612725565b50905090565b73ffffffffffffffffffffffffffffffffffffffff1660009081526007602052604090205460ff1690565b73ffffffffffffffffffffffffffffffffffffffff918216600090815260016020908152604080832093909416825291909152205490565b60065490565b612883612a15565b600554610100900473ffffffffffffffffffffffffffffffffffffffff90811691161461291157604080517f08c379a000000000000000000000000000000000000000000000000000000000815260206004820181905260248201527f4f776e61626c653a2063616c6c6572206973206e6f7420746865206f776e6572604482015290519081900360640190fd5b73ffffffffffffffffffffffffffffffffffffffff811661297d576040517f08c379a0000000000000000000000000000000000000000000000000000000008152600401808060200182810382526026815260200180614bae6026913960400191505060405180910390fd5b60055460405173ffffffffffffffffffffffffffffffffffffffff80841692610100900416907f8be0079c531659141344cd1fd0a4f28419497f9722a3daafe3b4186f6b6457e090600090a36005805473ffffffffffffffffffffffffffffffffffffffff909216610100027fffffffffffffffffffffff0000000000000000000000000000000000000000ff909216919091179055565b3390565b73ffffffffffffffffffffffffffffffffffffffff8316612a85576040517f08c379a0000000000000000000000000000000000000000000000000000000008152600401808060200182810382526024815260200180614d906024913960400191505060405180910390fd5b73ffffffffffffffffffffffffffffffffffffffff8216612af1576040517f08c379a0000000000000000000000000000000000000000000000000000000008152600401808060200182810382526022815260200180614bd46022913960400191505060405180910390fd5b73ffffffffffffffffffffffffffffffffffffffff808416600081815260016020908152604080832094871680845294825291829020859055815185815291517f8c5be1e5ebec7d5bd14f71427d1e84f3dd0314c0f7b2291e5b200ac8c7c3b9259281900390910190a3505050565b6040805160028082526060808301845260009384939192906020830190803683370190505090507f000000000000000000000000000000000000000000000000000000000000000073ffffffffffffffffffffffffffffffffffffffff1663ad5c46486040518163ffffffff1660e01b815260040160206040518083038186803b158015612bed57600080fd5b505afa158015612c01573d6000803e3d6000fd5b505050506040513d6020811015612c1757600080fd5b5051815182906001908110612c2857fe5b602002602001019073ffffffffffffffffffffffffffffffffffffffff16908173ffffffffffffffffffffffffffffffffffffffff168152505060005b612c6d612875565b8160ff161015612d3957600060068260ff1681548110612c8957fe5b6000918252602082200154845173ffffffffffffffffffffffffffffffffffffffff909116925082918591612cba57fe5b602002602001019073ffffffffffffffffffffffffffffffffffffffff16908173ffffffffffffffffffffffffffffffffffffffff16815250506000878360ff1681518110612d0557fe5b602002602001015190506000612d1c82848a613dc5565b9050612d288682613079565b95505060019092019150612c659050565b5090949350505050565b600082612d52575060006108aa565b82820282848281612d5f57fe5b04146109a0576040517f08c379a0000000000000000000000000000000000000000000000000000000008152600401808060200182810382526021815260200180614cd46021913960400191505060405180910390fd5b60006109a083836040518060400160405280601a81526020017f536166654d6174683a206469766973696f6e206279207a65726f0000000000008152506140b9565b73ffffffffffffffffffffffffffffffffffffffff8316612e64576040517f08c379a0000000000000000000000000000000000000000000000000000000008152600401808060200182810382526025815260200180614d6b6025913960400191505060405180910390fd5b73ffffffffffffffffffffffffffffffffffffffff8216612ed0576040517f08c379a0000000000000000000000000000000000000000000000000000000008152600401808060200182810382526023815260200180614b696023913960400191505060405180910390fd5b612edb8383836114c7565b612f2581604051806060016040528060268152602001614c426026913973ffffffffffffffffffffffffffffffffffffffff86166000908152602081905260409020549190612fc8565b73ffffffffffffffffffffffffffffffffffffffff8085166000908152602081905260408082209390935590841681522054612f619082613079565b73ffffffffffffffffffffffffffffffffffffffff8084166000818152602081815260409182902094909455805185815290519193928716927fddf252ad1be2c89b69c2b068fc378daa952ba7f163c4a11628f55a4df523b3ef92918290030190a3505050565b60008184841115613071576040517f08c379a00000000000000000000000000000000000000000000000000000000081526004018080602001828103825283818151815260200191508051906020019080838360005b8381101561303657818101518382015260200161301e565b50505050905090810190601f1680156130635780820380516001836020036101000a031916815260200191505b509250505060405180910390fd5b505050900390565b6000828201838110156109a057604080517f08c379a000000000000000000000000000000000000000000000000000000000815260206004820152601b60248201527f536166654d6174683a206164646974696f6e206f766572666c6f770000000000604482015290519081900360640190fd5b6040805173ffffffffffffffffffffffffffffffffffffffff80861660248301528416604482015260648082018490528251808303909101815260849091019091526020810180517bffffffffffffffffffffffffffffffffffffffffffffffffffffffff167f23b872dd00000000000000000000000000000000000000000000000000000000179052613182908590614138565b50505050565b60007f000000000000000000000000000000000000000000000000000000000000000073ffffffffffffffffffffffffffffffffffffffff1663ad5c46486040518163ffffffff1660e01b815260040160206040518083038186803b1580156131f057600080fd5b505afa158015613204573d6000803e3d6000fd5b505050506040513d602081101561321a57600080fd5b505173ffffffffffffffffffffffffffffffffffffffff84811691161480613240575083155b1561324c5750826109a0565b6040805160028082526060808301845292602083019080368337019050509050838160008151811061327a57fe5b602002602001019073ffffffffffffffffffffffffffffffffffffffff16908173ffffffffffffffffffffffffffffffffffffffff16815250507f000000000000000000000000000000000000000000000000000000000000000073ffffffffffffffffffffffffffffffffffffffff1663ad5c46486040518163ffffffff1660e01b815260040160206040518083038186803b15801561331a57600080fd5b505afa15801561332e573d6000803e3d6000fd5b505050506040513d602081101561334457600080fd5b505181518290600190811061335557fe5b602002602001019073ffffffffffffffffffffffffffffffffffffffff16908173ffffffffffffffffffffffffffffffffffffffff16815250506133ce8160008151811061339f57fe5b60200260200101517f000000000000000000000000000000000000000000000000000000000000000087614210565b604080517fd06ca61f000000000000000000000000000000000000000000000000000000008152600481018781526024820192835283516044830152835160009373ffffffffffffffffffffffffffffffffffffffff7f0000000000000000000000000000000000000000000000000000000000000000169363d06ca61f938b938893919260640190602080860191028083838c5b8381101561347b578181015183820152602001613463565b50505050905001935050505060006040518083038186803b15801561349f57600080fd5b505afa1580156134b3573d6000803e3d6000fd5b505050506040513d6000823e601f3d9081017fffffffffffffffffffffffffffffffffffffffffffffffffffffffffffffffe016820160405260208110156134fa57600080fd5b810190808051604051939291908464010000000082111561351a57600080fd5b90830190602082018581111561352f57600080fd5b825186602082028301116401000000008211171561354c57600080fd5b82525081516020918201928201910280838360005b83811015613579578181015183820152602001613561565b5050505090500160405250505060018151811061359257fe5b602002602001015190507f000000000000000000000000000000000000000000000000000000000000000073ffffffffffffffffffffffffffffffffffffffff166338ed173987838530896040518663ffffffff1660e01b815260040180868152602001858152602001806020018473ffffffffffffffffffffffffffffffffffffffff1681526020018363ffffffff168152602001828103825285818151815260200191508051906020019060200280838360005b83811015613660578181015183820152602001613648565b505050509050019650505050505050600060405180830381600087803b15801561368957600080fd5b505af115801561369d573d6000803e3d6000fd5b505050506040513d6000823e601f3d9081017fffffffffffffffffffffffffffffffffffffffffffffffffffffffffffffffe016820160405260208110156136e457600080fd5b810190808051604051939291908464010000000082111561370457600080fd5b90830190602082018581111561371957600080fd5b825186602082028301116401000000008211171561373657600080fd5b82525081516020918201928201910280838360005b8381101561376357818101518382015260200161374b565b505050509050016040525050505080925050509392505050565b606060005b61378a612875565b8160ff1610156138365760006137ee60646108f76007600060068760ff16815481106137b257fe5b600091825260208083209091015473ffffffffffffffffffffffffffffffffffffffff168352820192909252604001902054889060ff16612d43565b905061382c8160068460ff168154811061380457fe5b60009182526020909120015473ffffffffffffffffffffffffffffffffffffffff1686613e64565b5050600101613782565b5092915050565b60006109a083836040518060400160405280601e81526020017f536166654d6174683a207375627472616374696f6e206f766572666c6f770000815250612fc8565b73ffffffffffffffffffffffffffffffffffffffff821661390157604080517f08c379a000000000000000000000000000000000000000000000000000000000815260206004820152601f60248201527f45524332303a206d696e7420746f20746865207a65726f206164647265737300604482015290519081900360640190fd5b61390d600083836114c7565b60025461391a9082613079565b60025573ffffffffffffffffffffffffffffffffffffffff821660009081526020819052604090205461394d9082613079565b73ffffffffffffffffffffffffffffffffffffffff83166000818152602081815260408083209490945583518581529351929391927fddf252ad1be2c89b69c2b068fc378daa952ba7f163c4a11628f55a4df523b3ef9281900390910190a35050565b6060806139bb612875565b67ffffffffffffffff811180156139d157600080fd5b506040519080825280602002602001820160405280156139fb578160200160208202803683370190505b5090506000613a1a613a0b6108b0565b6108f7866402540be400612d43565b905060005b613a27612875565b8160ff161015613b1757613af56402540be4006108f78460068560ff1681548110613a4e57fe5b60009182526020918290200154604080517f70a08231000000000000000000000000000000000000000000000000000000008152306004820152905173ffffffffffffffffffffffffffffffffffffffff909216926370a0823192602480840193829003018186803b158015613ac357600080fd5b505afa158015613ad7573d6000803e3d6000fd5b505050506040513d6020811015613aed57600080fd5b505190612d43565b838260ff1681518110613b0457fe5b6020908102919091010152600101613a1f565b50909392505050565b6060613b2b836139b0565b9050613b37338461439e565b6000613b43828461402f565b600854909150600090613b6c9060ff8082166101009092048116820116906108f7908590612d43565b90506000613ba2613b7d848461383d565b60085462010000900473ffffffffffffffffffffffffffffffffffffffff1687613e64565b600854909150613bcf9062010000900473ffffffffffffffffffffffffffffffffffffffff1633836144e8565b613c727f000000000000000000000000000000000000000000000000000000000000000073ffffffffffffffffffffffffffffffffffffffff1663ad5c46486040518163ffffffff1660e01b815260040160206040518083038186803b158015613c3857600080fd5b505afa158015613c4c573d6000803e3d6000fd5b505050506040513d6020811015613c6257600080fd5b5051613c6c611e2c565b846144e8565b337f9dfaab8d9cf3cf8c531d0dbfcd7dcd22f353ccae0b4d1e96cfe491d86734ae73828489613c9f6108b0565b613ca76126d4565b6040518086815260200185815260200184815260200183815260200180602001828103825283818151815260200191508051906020019060200280838360005b83811015613cff578181015183820152602001613ce7565b50505050905001965050505050505060405180910390a2505050505050565b6000613dbd847f000000000000000000000000000000000000000000000000000000000000000073ffffffffffffffffffffffffffffffffffffffff1663ad5c46486040518163ffffffff1660e01b815260040160206040518083038186803b158015613d8a57600080fd5b505afa158015613d9e573d6000803e3d6000fd5b505050506040513d6020811015613db457600080fd5b50518585614575565b949350505050565b6000613dbd84847f000000000000000000000000000000000000000000000000000000000000000073ffffffffffffffffffffffffffffffffffffffff1663ad5c46486040518163ffffffff1660e01b815260040160206040518083038186803b158015613e3257600080fd5b505afa158015613e46573d6000803e3d6000fd5b505050506040513d6020811015613e5c57600080fd5b505185614575565b60007f000000000000000000000000000000000000000000000000000000000000000073ffffffffffffffffffffffffffffffffffffffff1663ad5c46486040518163ffffffff1660e01b815260040160206040518083038186803b158015613ecc57600080fd5b505afa158015613ee0573d6000803e3d6000fd5b505050506040513d6020811015613ef657600080fd5b505173ffffffffffffffffffffffffffffffffffffffff84811691161480613f1c575083155b15613f285750826109a0565b60408051600280825260608083018452926020830190803683370190505090507f000000000000000000000000000000000000000000000000000000000000000073ffffffffffffffffffffffffffffffffffffffff1663ad5c46486040518163ffffffff1660e01b815260040160206040518083038186803b158015613fae57600080fd5b505afa158015613fc2573d6000803e3d6000fd5b505050506040513d6020811015613fd857600080fd5b505181518290600090613fe757fe5b602002602001019073ffffffffffffffffffffffffffffffffffffffff16908173ffffffffffffffffffffffffffffffffffffffff1681525050838160018151811061335557fe5b600080805b61403c612875565b8160ff1610156140b157600061409a868360ff168151811061405a57fe5b602002602001015160068460ff168154811061407257fe5b60009182526020909120015473ffffffffffffffffffffffffffffffffffffffff1687613188565b90506140a68382613079565b925050600101614034565b509392505050565b60008183614122576040517f08c379a000000000000000000000000000000000000000000000000000000000815260206004820181815283516024840152835190928392604490910191908501908083836000831561303657818101518382015260200161301e565b50600083858161412e57fe5b0495945050505050565b606061419a826040518060400160405280602081526020017f5361666545524332303a206c6f772d6c6576656c2063616c6c206661696c65648152508573ffffffffffffffffffffffffffffffffffffffff166148919092919063ffffffff16565b8051909150156114c7578080602001905160208110156141b957600080fd5b50516114c7576040517f08c379a000000000000000000000000000000000000000000000000000000000815260040180806020018281038252602a815260200180614ddb602a913960400191505060405180910390fd5b8015806142bc5750604080517fdd62ed3e00000000000000000000000000000000000000000000000000000000815230600482015273ffffffffffffffffffffffffffffffffffffffff848116602483015291519185169163dd62ed3e91604480820192602092909190829003018186803b15801561428e57600080fd5b505afa1580156142a2573d6000803e3d6000fd5b505050506040513d60208110156142b857600080fd5b5051155b614311576040517f08c379a0000000000000000000000000000000000000000000000000000000008152600401808060200182810382526036815260200180614e056036913960400191505060405180910390fd5b6040805173ffffffffffffffffffffffffffffffffffffffff8416602482015260448082018490528251808303909101815260649091019091526020810180517bffffffffffffffffffffffffffffffffffffffffffffffffffffffff167f095ea7b3000000000000000000000000000000000000000000000000000000001790526114c7908490614138565b73ffffffffffffffffffffffffffffffffffffffff821661440a576040517f08c379a0000000000000000000000000000000000000000000000000000000008152600401808060200182810382526021815260200180614d4a6021913960400191505060405180910390fd5b614416826000836114c7565b61446081604051806060016040528060228152602001614b8c6022913973ffffffffffffffffffffffffffffffffffffffff85166000908152602081905260409020549190612fc8565b73ffffffffffffffffffffffffffffffffffffffff8316600090815260208190526040902055600254614493908261383d565b60025560408051828152905160009173ffffffffffffffffffffffffffffffffffffffff8516917fddf252ad1be2c89b69c2b068fc378daa952ba7f163c4a11628f55a4df523b3ef9181900360200190a35050565b6040805173ffffffffffffffffffffffffffffffffffffffff8416602482015260448082018490528251808303909101815260649091019091526020810180517bffffffffffffffffffffffffffffffffffffffffffffffffffffffff167fa9059cbb000000000000000000000000000000000000000000000000000000001790526114c7908490614138565b604080516002808252606080830184526000939092919060208301908036833701905050905084816000815181106145a957fe5b602002602001019073ffffffffffffffffffffffffffffffffffffffff16908173ffffffffffffffffffffffffffffffffffffffff168152505083816001815181106145f157fe5b602002602001019073ffffffffffffffffffffffffffffffffffffffff16908173ffffffffffffffffffffffffffffffffffffffff16815250508060018151811061463857fe5b602002602001015173ffffffffffffffffffffffffffffffffffffffff168160008151811061466357fe5b602002602001015173ffffffffffffffffffffffffffffffffffffffff16148061468b575085155b156146995785915050613dbd565b604080517fd06ca61f000000000000000000000000000000000000000000000000000000008152600481018881526024820192835283516044830152835160009373ffffffffffffffffffffffffffffffffffffffff7f0000000000000000000000000000000000000000000000000000000000000000169363d06ca61f938c938893919260640190602080860191028083838c5b8381101561474657818101518382015260200161472e565b50505050905001935050505060006040518083038186803b15801561476a57600080fd5b505afa15801561477e573d6000803e3d6000fd5b505050506040513d6000823e601f3d9081017fffffffffffffffffffffffffffffffffffffffffffffffffffffffffffffffe016820160405260208110156147c557600080fd5b81019080805160405193929190846401000000008211156147e557600080fd5b9083019060208201858111156147fa57600080fd5b825186602082028301116401000000008211171561481757600080fd5b82525081516020918201928201910280838360005b8381101561484457818101518382015260200161482c565b5050505090500160405250505060018151811061485d57fe5b6020026020010151905083156148885761487f6103e56108f7836103e8612d43565b92505050613dbd565b9150613dbd9050565b6060613dbd8484600085856148a5856149fc565b61491057604080517f08c379a000000000000000000000000000000000000000000000000000000000815260206004820152601d60248201527f416464726573733a2063616c6c20746f206e6f6e2d636f6e7472616374000000604482015290519081900360640190fd5b600060608673ffffffffffffffffffffffffffffffffffffffff1685876040518082805190602001908083835b6020831061497a57805182527fffffffffffffffffffffffffffffffffffffffffffffffffffffffffffffffe0909201916020918201910161493d565b6001836020036101000a03801982511681845116808217855250505050505090500191505060006040518083038185875af1925050503d80600081146149dc576040519150601f19603f3d011682016040523d82523d6000602084013e6149e1565b606091505b50915091506149f1828286614a02565b979650505050505050565b3b151590565b60608315614a115750816109a0565b825115614a215782518084602001fd5b6040517f08c379a000000000000000000000000000000000000000000000000000000000815260206004820181815284516024840152845185939192839260440191908501908083836000831561303657818101518382015260200161301e565b828054828255906000526020600020908101928215614afa579160200282015b82811115614afa5781547fffffffffffffffffffffffff00000000000000000000000000000000000000001673ffffffffffffffffffffffffffffffffffffffff843516178255602090920191600190910190614aa2565b50614b06929150614b0a565b5090565b5b80821115614b065780547fffffffffffffffffffffffff0000000000000000000000000000000000000000168155600101614b0b56fe417474656d7074656420746f206465706f736974206d6f7265207468616e2062616c616e63652e45524332303a207472616e7366657220746f20746865207a65726f206164647265737345524332303a206275726e20616d6f756e7420657863656564732062616c616e63654f776e61626c653a206e6577206f776e657220697320746865207a65726f206164647265737345524332303a20617070726f766520746f20746865207a65726f2061646472657373417474656d707420746f207365742070657263656e7461676520686967686572207468616e2032252e546f74616c20746f6b656e2070657263656e74616765206973206e6f7420313030252e45524332303a207472616e7366657220616d6f756e7420657863656564732062616c616e6365417474656d707420746f207769746864726177206d6f7265207468616e2031303025206f6620746865206173736574537472617465677920746f6b656e73206c656e67746820646f65736e2774206d6174636820746f6b656e2070657263656e74616765206c656e6774682e536166654d6174683a206d756c7469706c69636174696f6e206f766572666c6f7745524332303a207472616e7366657220616d6f756e74206578636565647320616c6c6f77616e6365417474656d707420746f207769746864726177206d6f7265207468616e2075736572277320686f6c64696e672e45524332303a206275726e2066726f6d20746865207a65726f206164647265737345524332303a207472616e736665722066726f6d20746865207a65726f206164647265737345524332303a20617070726f76652066726f6d20746865207a65726f206164647265737353657474696e6720737472617465677920746f206d6f7265207468616e203520746f6b656e732e5361666545524332303a204552433230206f7065726174696f6e20646964206e6f7420737563636565645361666545524332303a20617070726f76652066726f6d206e6f6e2d7a65726f20746f206e6f6e2d7a65726f20616c6c6f77616e6365436f6e7472616374206973206e6f7420616c6c6f77656420746f207370656e6420757365722773204452432e45524332303a2064656372656173656420616c6c6f77616e63652062656c6f77207a65726fa2646970667358221220091ab7ef89f88e2fdea95ce645004c10d6cf760ddb1f53cc794622d6c22fb96364736f6c634300060c0033",
  "immutableReferences": {
    "71": [
      {
        "length": 32,
        "start": 3757
      },
      {
        "length": 32,
        "start": 4040
      },
      {
        "length": 32,
        "start": 11145
      },
      {
        "length": 32,
        "start": 12684
      },
      {
        "length": 32,
        "start": 12982
      },
      {
        "length": 32,
        "start": 13225
      },
      {
        "length": 32,
        "start": 13350
      },
      {
        "length": 32,
        "start": 13726
      },
      {
        "length": 32,
        "start": 15316
      },
      {
        "length": 32,
        "start": 15654
      },
      {
        "length": 32,
        "start": 15822
      },
      {
        "length": 32,
        "start": 15976
      },
      {
        "length": 32,
        "start": 16202
      },
      {
        "length": 32,
        "start": 18161
      }
    ]
  },
  "source": "// SPDX-License-Identifier: AGPL-3.0-or-later\n\npragma solidity =0.6.12;\n\nimport \"@openzeppelin/contracts/access/Ownable.sol\";\nimport \"@openzeppelin/contracts/math/SafeMath.sol\";\nimport \"@openzeppelin/contracts/token/ERC20/ERC20.sol\";\nimport \"@openzeppelin/contracts/token/ERC20/SafeERC20.sol\";\nimport \"@openzeppelin/contracts/utils/ReentrancyGuard.sol\";\n\nimport \"./interfaces/Uniswap/IUniswapV2Router02.sol\";\nimport \"./interfaces/IDigitalReserve.sol\";\n\n/**\n * @dev Implementation of Digital Reserve contract.\n * Digital Reserve contract converts user's DRC into a set of SoV assets using the Uniswap router,\n * and hold these assets for it's users.\n * When users initiate a withdrawal action, the contract converts a share of the vault,\n * that the user is requesting, to DRC and sends it back to their wallet.\n */\ncontract DigitalReserve is IDigitalReserve, ERC20, Ownable {\n    using SafeMath for uint256;\n\n    struct StategyToken {\n        address tokenAddress;\n        uint8 tokenPercentage;\n    }\n\n    /**\n     * @dev Set Uniswap router address, DRC token address, DR name.\n     */\n    constructor(\n        address _router,\n        address _drcAddress,\n        string memory _name\n    ) public ERC20(_name, \"DR-POD\") {\n        drcAddress = _drcAddress;\n        uniswapRouter = IUniswapV2Router02(_router);\n    }\n\n    address[] private _strategyTokens;\n    mapping(address => uint8) private _tokenPercentage;\n    uint8 private _feeFraction = 1;\n    uint8 private _feeBase = 100;\n    uint8 private constant _priceDecimals = 18;\n\n    address private drcAddress;\n\n    bool private depositEnabled = false;\n\n    IUniswapV2Router02 private immutable uniswapRouter;\n\n    /**\n     * @dev See {IDigitalReserve-strategyTokenCount}.\n     */\n    function strategyTokenCount() public view override returns (uint256) {\n        return _strategyTokens.length;\n    }\n\n    /**\n     * @dev See {IDigitalReserve-strategyTokens}.\n     */\n    function strategyTokens(uint8 index) external view override returns (address) {\n        return _strategyTokens[index];\n    }\n\n    /**\n     * @dev See {IDigitalReserve-tokenPercentage}.\n     */\n    function tokenPercentage(address tokenAddress) external view override returns (uint8) {\n        return _tokenPercentage[tokenAddress];\n    }\n\n    /**\n     * @dev See {IDigitalReserve-withdrawalFee}.\n     */\n    function withdrawalFee() external view override returns (uint8, uint8) {\n        return (_feeFraction, _feeBase);\n    }\n\n    /**\n     * @dev See {IDigitalReserve-priceDecimals}.\n     */\n    function priceDecimals() external view override returns (uint8) {\n        return _priceDecimals;\n    }\n\n    /**\n     * @dev See {IDigitalReserve-totalTokenStored}.\n     */\n    function totalTokenStored() public view override returns (uint256[] memory) {\n        uint256[] memory amounts = new uint256[](strategyTokenCount());\n        for (uint8 i = 0; i < strategyTokenCount(); i++) {\n            amounts[i] = IERC20(_strategyTokens[i]).balanceOf(address(this));\n        }\n        return amounts;\n    }\n\n    /**\n     * @dev See {IDigitalReserve-getUserVaultInDrc}.\n     */\n    function getUserVaultInDrc(\n        address user, \n        uint8 percentage\n    ) public view override returns (uint256, uint256, uint256) {\n        uint256[] memory userStrategyTokens = _getStrategyTokensByPodAmount(balanceOf(user).mul(percentage).div(100));\n        uint256 userVaultWorthInEth = _getEthAmountByStrategyTokensAmount(userStrategyTokens, true);\n        uint256 userVaultWorthInEthAfterSwap = _getEthAmountByStrategyTokensAmount(userStrategyTokens, false);\n\n        uint256 drcAmountBeforeFees = _getTokenAmountByEthAmount(userVaultWorthInEth, drcAddress, true);\n\n        uint256 fees = userVaultWorthInEthAfterSwap.mul(_feeFraction).div(_feeBase + _feeFraction);\n        uint256 drcAmountAfterFees = _getTokenAmountByEthAmount(userVaultWorthInEthAfterSwap.sub(fees), drcAddress, false);\n\n        return (drcAmountBeforeFees, drcAmountAfterFees, fees);\n    }\n\n    /**\n     * @dev See {IDigitalReserve-getProofOfDepositPrice}.\n     */\n    function getProofOfDepositPrice() public view override returns (uint256) {\n        uint256 proofOfDepositPrice = 0;\n        if (totalSupply() > 0) {\n            proofOfDepositPrice = _getEthAmountByStrategyTokensAmount(totalTokenStored(), true).mul(1e18).div(totalSupply());\n        }\n        return proofOfDepositPrice;\n    }\n\n    /**\n     * @dev See {IDigitalReserve-depositDrc}.\n     */\n    function depositDrc(uint256 drcAmount, uint32 deadline) external override {\n        require(strategyTokenCount() >= 1, \"Strategy hasn't been set.\");\n        require(depositEnabled, \"Deposit is disabled.\");\n        require(IERC20(drcAddress).allowance(msg.sender, address(this)) >= drcAmount, \"Contract is not allowed to spend user's DRC.\");\n        require(IERC20(drcAddress).balanceOf(msg.sender) >= drcAmount, \"Attempted to deposit more than balance.\");\n\n        SafeERC20.safeTransferFrom(IERC20(drcAddress), msg.sender, address(this), drcAmount);\n\n        // Get current unit price before adding tokens to vault\n        uint256 currentPodUnitPrice = getProofOfDepositPrice();\n\n        uint256 ethConverted = _convertTokenToEth(drcAmount, drcAddress, deadline);\n        _convertEthToStrategyTokens(ethConverted, deadline);\n\n        uint256 podToMint = 0;\n        if (totalSupply() == 0) {\n            podToMint = drcAmount.mul(1e15);\n        } else {\n            uint256 vaultTotalInEth = _getEthAmountByStrategyTokensAmount(totalTokenStored(), true);\n            uint256 newPodTotal = vaultTotalInEth.mul(1e18).div(currentPodUnitPrice);\n            podToMint = newPodTotal.sub(totalSupply());\n        }\n\n        _mint(msg.sender, podToMint);\n\n        emit Deposit(msg.sender, drcAmount, podToMint, totalSupply(), totalTokenStored());\n    }\n\n    /**\n     * @dev See {IDigitalReserve-withdrawDrc}.\n     */\n    function withdrawDrc(uint256 drcAmount, uint32 deadline) external override {\n        address[] memory path = new address[](2);\n        path[0] = uniswapRouter.WETH();\n        path[1] = drcAddress;\n\n        uint256 ethNeeded = uniswapRouter.getAmountsIn(drcAmount, path)[0];\n        uint256 ethNeededPlusFee = ethNeeded.mul(_feeBase + _feeFraction).div(_feeBase);\n\n        uint256[] memory userStrategyTokens = _getStrategyTokensByPodAmount(balanceOf(msg.sender));\n        uint256 userVaultWorth = _getEthAmountByStrategyTokensAmount(userStrategyTokens, false);\n\n        require(userVaultWorth >= ethNeededPlusFee, \"Attempt to withdraw more than user's holding.\");\n\n        uint256 amountFraction = ethNeededPlusFee.mul(1e10).div(userVaultWorth);\n        uint256 podToBurn = balanceOf(msg.sender).mul(amountFraction).div(1e10);\n\n        _withdrawProofOfDeposit(podToBurn, deadline);\n    }\n\n    /**\n     * @dev See {IDigitalReserve-withdrawPercentage}.\n     */\n    function withdrawPercentage(uint8 percentage, uint32 deadline) external override {\n        require(percentage <= 100, \"Attempt to withdraw more than 100% of the asset\");\n\n        uint256 podToBurn = balanceOf(msg.sender).mul(percentage).div(100);\n        _withdrawProofOfDeposit(podToBurn, deadline);\n    }\n\n    /**\n     * @dev Enable or disable deposit.\n     * @param status Deposit allowed or not\n     * Disable deposit if it is to protect users' fund if there's any security issue or assist DR upgrade.\n     */\n    function changeDepositStatus(bool status) external onlyOwner {\n        depositEnabled = status;\n    }\n\n    /**\n     * @dev Change withdrawal fee percentage.\n     * If 1%, then input (1,100)\n     * If 0.5%, then input (5,1000)\n     * @param withdrawalFeeFraction_ Fraction of withdrawal fee based on withdrawalFeeBase_\n     * @param withdrawalFeeBase_ Fraction of withdrawal fee base\n     */\n    function changeFee(uint8 withdrawalFeeFraction_, uint8 withdrawalFeeBase_) external onlyOwner {\n        require(withdrawalFeeFraction_ <= withdrawalFeeBase_, \"Fee fraction exceeded base.\");\n        uint8 percentage = (withdrawalFeeFraction_ * 100) / withdrawalFeeBase_;\n        require(percentage <= 2, \"Attempt to set percentage higher than 2%.\"); // Requested by community\n\n        _feeFraction = withdrawalFeeFraction_;\n        _feeBase = withdrawalFeeBase_;\n    }\n\n    /**\n     * @dev Set or change DR strategy tokens and allocations.\n     * @param strategyTokens_ Array of strategy tokens.\n     * @param tokenPercentage_ Array of strategy tokens' percentage allocations.\n     * @param deadline Unix timestamp after which the transaction will revert.\n     */\n    function changeStrategy(\n        address[] calldata strategyTokens_,\n        uint8[] calldata tokenPercentage_,\n        uint32 deadline\n    ) external onlyOwner {\n        require(strategyTokens_.length >= 1, \"Setting strategy to 0 tokens.\");\n        require(strategyTokens_.length <= 5, \"Setting strategy to more than 5 tokens.\");\n        require(strategyTokens_.length == tokenPercentage_.length, \"Strategy tokens length doesn't match token percentage length.\");\n\n        uint8 totalPercentage = 0;\n        for (uint8 i = 0; i < tokenPercentage_.length; i++) {\n            totalPercentage += tokenPercentage_[i];\n        }\n        require(totalPercentage == 100, \"Total token percentage is not 100%.\");\n\n        address[] memory oldTokens = _strategyTokens;\n        uint8[] memory oldPercentage = new uint8[](strategyTokenCount());\n        for (uint8 i = 0; i < strategyTokenCount(); i++) {\n            oldPercentage[i] = _tokenPercentage[_strategyTokens[i]];\n            delete _tokenPercentage[_strategyTokens[i]];\n        }\n\n        // Before mutate strategyTokens, convert current strategy tokens to ETH\n        uint256 ethConverted = _convertStrategyTokensToEth(totalTokenStored(), deadline);\n\n        _strategyTokens = strategyTokens_;\n        for (uint8 i = 0; i < strategyTokenCount(); i++) {\n            _tokenPercentage[_strategyTokens[i]] = tokenPercentage_[i];\n        }\n\n        _convertEthToStrategyTokens(ethConverted, deadline);\n\n        emit StrategyChange(oldTokens, oldPercentage, _strategyTokens, tokenPercentage_, totalTokenStored());\n    }\n\n    /**\n     * @dev Realigning the weighting of a portfolio of assets to the strategy allocation that is defined.\n     * Only convert the amount that's necessory to convert to not be charged 0.3% uniswap fee for everything.\n     * This in total saves 0.6% fee for majority of the assets.\n     * @param deadline Unix timestamp after which the transaction will revert.\n     */\n    function rebalance(uint32 deadline) external onlyOwner {\n        require(strategyTokenCount() > 0, \"Strategy hasn't been set\");\n\n        // Get each tokens worth and the total worth in ETH\n        uint256 totalWorthInEth = 0;\n        uint256[] memory tokensWorthInEth = new uint256[](strategyTokenCount());\n\n        for (uint8 i = 0; i < strategyTokenCount(); i++) {\n            uint256 tokenWorth = _getEthAmountByTokenAmount(IERC20(_strategyTokens[i]).balanceOf(address(this)), _strategyTokens[i], true);\n            totalWorthInEth = totalWorthInEth.add(tokenWorth);\n            tokensWorthInEth[i] = tokenWorth;\n        }\n\n        uint8[] memory percentageArray = new uint8[](strategyTokenCount()); // Get percentages for event param\n        uint256 totalInEthToConvert = 0; // Get total token worth in ETH needed to be converted\n        uint256 totalEthConverted = 0; // Get total token worth in ETH needed to be converted\n        uint256[] memory tokenInEthNeeded = new uint256[](strategyTokenCount()); // Get token worth need to be filled\n\n        for (uint8 i = 0; i < strategyTokenCount(); i++) {\n            percentageArray[i] = _tokenPercentage[_strategyTokens[i]];\n\n            uint256 tokenShouldWorth = totalWorthInEth.mul(_tokenPercentage[_strategyTokens[i]]).div(100);\n\n            if (tokensWorthInEth[i] <= tokenShouldWorth) {\n                // If token worth less than should be, calculate the diff and store as needed\n                tokenInEthNeeded[i] = tokenShouldWorth.sub(tokensWorthInEth[i]);\n                totalInEthToConvert = totalInEthToConvert.add(tokenInEthNeeded[i]);\n            } else {\n                tokenInEthNeeded[i] = 0;\n\n                // If token worth more than should be, convert the overflowed amount to ETH\n                uint256 tokenInEthOverflowed = tokensWorthInEth[i].sub(tokenShouldWorth);\n                uint256 tokensToConvert = _getTokenAmountByEthAmount(tokenInEthOverflowed, _strategyTokens[i], true);\n                uint256 ethConverted = _convertTokenToEth(tokensToConvert, _strategyTokens[i], deadline);\n                totalEthConverted = totalEthConverted.add(ethConverted);\n            }\n            // Need the total value to help calculate how to distributed the converted ETH\n        }\n\n        // Distribute newly converted ETH by portion of each token to be converted to, and convert to that token needed.\n        // Note: totalEthConverted would be a bit smaller than totalInEthToConvert due to Uniswap fee.\n        // Converting everything is another way of rebalancing, but Uniswap would take 0.6% fee on everything.\n        // In this method we reach the closest number with the lowest possible swapping fee.\n        for (uint8 i = 0; i < strategyTokenCount(); i++) {\n            uint256 ethToConvert = totalEthConverted.mul(tokenInEthNeeded[i]).div(totalInEthToConvert);\n            _convertEthToToken(ethToConvert, _strategyTokens[i], deadline);\n        }\n\n        emit Rebalance(_strategyTokens, percentageArray, totalTokenStored());\n    }\n\n    /**\n     * @dev Withdraw DRC by DR-POD amount to burn.\n     * @param podToBurn Amount of DR-POD to burn in exchange for DRC.\n     * @param deadline Unix timestamp after which the transaction will revert.\n     */\n    function _withdrawProofOfDeposit(uint256 podToBurn, uint32 deadline) private {\n        uint256[] memory strategyTokensToWithdraw = _getStrategyTokensByPodAmount(podToBurn);\n\n        _burn(msg.sender, podToBurn);\n\n        uint256 ethConverted = _convertStrategyTokensToEth(strategyTokensToWithdraw, deadline);\n        uint256 fees = ethConverted.mul(_feeFraction).div(_feeBase + _feeFraction);\n\n        uint256 drcAmount = _convertEthToToken(ethConverted.sub(fees), drcAddress, deadline);\n\n        SafeERC20.safeTransfer(IERC20(drcAddress), msg.sender, drcAmount);\n        SafeERC20.safeTransfer(IERC20(uniswapRouter.WETH()), owner(), fees);\n\n        emit Withdraw(msg.sender, drcAmount, fees, podToBurn, totalSupply(), totalTokenStored());\n    }\n\n    /**\n     * @dev Get ETH worth of a certain amount of a token.\n     * @param _amount Amount of token to convert.\n     * @param _fromAddress Address of token to convert from.\n     * @param _toAddress Address of token to convert to.\n     * @param excludeFees If uniswap fees is considered.\n     */\n    function _getAAmountByBAmount(\n        uint256 _amount,\n        address _fromAddress,\n        address _toAddress,\n        bool excludeFees\n    ) private view returns (uint256) {\n        address[] memory path = new address[](2);\n        path[0] = _fromAddress;\n        path[1] = _toAddress;\n\n        if (path[0] == path[1] || _amount == 0) {\n            return _amount;\n        }\n\n        uint256 amountOut = uniswapRouter.getAmountsOut(_amount, path)[1];\n\n        if (excludeFees) {\n            return amountOut.mul(1000).div(997);\n        } else {\n            return amountOut;\n        }\n    }\n\n    /**\n     * @dev Get the worth in a token of a certain amount of ETH.\n     * @param _amount Amount of ETH to convert.\n     * @param _tokenAddress Address of the token to convert to.\n     * @param excludeFees If uniswap fees is considered.\n     */\n    function _getTokenAmountByEthAmount(\n        uint256 _amount,\n        address _tokenAddress,\n        bool excludeFees\n    ) private view returns (uint256) {\n        return _getAAmountByBAmount(_amount, uniswapRouter.WETH(), _tokenAddress, excludeFees);\n    }\n\n    /**\n     * @dev Get ETH worth of a certain amount of a token.\n     * @param _amount Amount of token to convert.\n     * @param _tokenAddress Address of token to convert from.\n     * @param excludeFees If uniswap fees is considered.\n     */\n    function _getEthAmountByTokenAmount(\n        uint256 _amount,\n        address _tokenAddress,\n        bool excludeFees\n    ) private view returns (uint256) {\n        return _getAAmountByBAmount(_amount, _tokenAddress, uniswapRouter.WETH(), excludeFees);\n    }\n\n    /**\n     * @dev Get ETH worth of an array of strategy tokens.\n     * @param strategyTokensBalance_ Array amounts of strategy tokens to convert.\n     * @param excludeFees If uniswap fees is considered.\n     */\n    function _getEthAmountByStrategyTokensAmount(\n        uint256[] memory strategyTokensBalance_, \n        bool excludeFees\n    ) private view returns (uint256) {\n        uint256 amountOut = 0;\n        address[] memory path = new address[](2);\n        path[1] = uniswapRouter.WETH();\n\n        for (uint8 i = 0; i < strategyTokenCount(); i++) {\n            address tokenAddress = _strategyTokens[i];\n            path[0] = tokenAddress;\n            uint256 tokenAmount = strategyTokensBalance_[i];\n            uint256 tokenAmountInEth = _getEthAmountByTokenAmount(tokenAmount, tokenAddress, excludeFees);\n\n            amountOut = amountOut.add(tokenAmountInEth);\n        }\n        return amountOut;\n    }\n\n    /**\n     * @dev Get DR-POD worth in an array of strategy tokens.\n     * @param _amount Amount of DR-POD to convert.\n     */\n    function _getStrategyTokensByPodAmount(uint256 _amount) private view returns (uint256[] memory) {\n        uint256[] memory strategyTokenAmount = new uint256[](strategyTokenCount());\n\n        uint256 podFraction = _amount.mul(1e10).div(totalSupply());\n        for (uint8 i = 0; i < strategyTokenCount(); i++) {\n            strategyTokenAmount[i] = IERC20(_strategyTokens[i]).balanceOf(address(this)).mul(podFraction).div(1e10);\n        }\n        return strategyTokenAmount;\n    }\n\n    /**\n     * @dev Convert a token to WETH via the Uniswap router.\n     * @param _amount Amount of tokens to swap.\n     * @param _tokenAddress Address of token to swap.\n     * @param deadline Unix timestamp after which the transaction will revert.\n     */\n    function _convertTokenToEth(\n        uint256 _amount,\n        address _tokenAddress,\n        uint32 deadline\n    ) private returns (uint256) {\n        if (_tokenAddress == uniswapRouter.WETH() || _amount == 0) {\n            return _amount;\n        }\n        address[] memory path = new address[](2);\n        path[0] = _tokenAddress;\n        path[1] = uniswapRouter.WETH();\n        SafeERC20.safeApprove(IERC20(path[0]), address(uniswapRouter), _amount);\n        uint256 amountOut = uniswapRouter.getAmountsOut(_amount, path)[1];\n        uniswapRouter.swapExactTokensForTokens(_amount, amountOut, path, address(this), deadline);\n        return amountOut;\n    }\n\n    /**\n     * @dev Convert ETH to another token via the Uniswap router.\n     * @param _amount Amount of WETH to swap.\n     * @param _tokenAddress Address of token to swap to.\n     * @param deadline Unix timestamp after which the transaction will revert.\n     */\n    function _convertEthToToken(\n        uint256 _amount,\n        address _tokenAddress,\n        uint32 deadline\n    ) private returns (uint256) {\n        if (_tokenAddress == uniswapRouter.WETH() || _amount == 0) {\n            return _amount;\n        }\n        address[] memory path = new address[](2);\n        path[0] = uniswapRouter.WETH();\n        path[1] = _tokenAddress;\n        SafeERC20.safeApprove(IERC20(path[0]), address(uniswapRouter), _amount);\n        uint256 amountOut = uniswapRouter.getAmountsOut(_amount, path)[1];\n        uniswapRouter.swapExactTokensForTokens(_amount, amountOut, path, address(this), deadline);\n        return amountOut;\n    }\n\n    /**\n     * @dev Convert ETH to strategy tokens of DR in their allocation percentage.\n     * @param amount Amount of WETH to swap.\n     * @param deadline Unix timestamp after which the transaction will revert.\n     */\n    function _convertEthToStrategyTokens(\n        uint256 amount, \n        uint32 deadline\n    ) private returns (uint256[] memory) {\n        for (uint8 i = 0; i < strategyTokenCount(); i++) {\n            uint256 amountToConvert = amount.mul(_tokenPercentage[_strategyTokens[i]]).div(100);\n            _convertEthToToken(amountToConvert, _strategyTokens[i], deadline);\n        }\n    }\n\n    /**\n     * @dev Convert strategy tokens to WETH.\n     * @param amountToConvert Array of the amounts of strategy tokens to swap.\n     * @param deadline Unix timestamp after which the transaction will revert.\n     */\n    function _convertStrategyTokensToEth(\n        uint256[] memory amountToConvert, \n        uint32 deadline\n    ) private returns (uint256) {\n        uint256 ethConverted = 0;\n        for (uint8 i = 0; i < strategyTokenCount(); i++) {\n            uint256 amountConverted = _convertTokenToEth(amountToConvert[i], _strategyTokens[i], deadline);\n            ethConverted = ethConverted.add(amountConverted);\n        }\n        return ethConverted;\n    }\n}\n",
  "sourcePath": "/Users/fayexue/if-x-github/digital-reserve/contracts/DigitalReserve.sol",
  "compiler": {
    "name": "solc",
    "version": "0.6.12+commit.27d51765.Emscripten.clang"
  },
  "schemaVersion": "3.3.3",
  "updatedAt": "2021-02-10T23:06:03.428Z",
  "devdoc": {
    "details": "Implementation of Digital Reserve contract. Digital Reserve contract converts user's DRC into a set of SoV assets using the Uniswap router, and hold these assets for it's users. When users initiate a withdrawal action, the contract converts a share of the vault, that the user is requesting, to DRC and sends it back to their wallet.",
    "kind": "dev",
    "methods": {
      "allowance(address,address)": {
        "details": "See {IERC20-allowance}."
      },
      "approve(address,uint256)": {
        "details": "See {IERC20-approve}. Requirements: - `spender` cannot be the zero address."
      },
      "balanceOf(address)": {
        "details": "See {IERC20-balanceOf}."
      },
      "changeDepositStatus(bool)": {
        "details": "Enable or disable deposit.",
        "params": {
          "status": "Deposit allowed or not Disable deposit if it is to protect users' fund if there's any security issue or assist DR upgrade."
        }
      },
      "changeFee(uint8,uint8)": {
        "details": "Change withdrawal fee percentage. If 1%, then input (1,100) If 0.5%, then input (5,1000)",
        "params": {
          "withdrawalFeeBase_": "Fraction of withdrawal fee base",
          "withdrawalFeeFraction_": "Fraction of withdrawal fee based on withdrawalFeeBase_"
        }
      },
      "changeStrategy(address[],uint8[],uint32)": {
        "details": "Set or change DR strategy tokens and allocations.",
        "params": {
          "deadline": "Unix timestamp after which the transaction will revert.",
          "strategyTokens_": "Array of strategy tokens.",
          "tokenPercentage_": "Array of strategy tokens' percentage allocations."
        }
      },
      "constructor": {
        "details": "Set Uniswap router address, DRC token address, DR name."
      },
      "decimals()": {
        "details": "Returns the number of decimals used to get its user representation. For example, if `decimals` equals `2`, a balance of `505` tokens should be displayed to a user as `5,05` (`505 / 10 ** 2`). Tokens usually opt for a value of 18, imitating the relationship between Ether and Wei. This is the value {ERC20} uses, unless {_setupDecimals} is called. NOTE: This information is only used for _display_ purposes: it in no way affects any of the arithmetic of the contract, including {IERC20-balanceOf} and {IERC20-transfer}."
      },
      "decreaseAllowance(address,uint256)": {
        "details": "Atomically decreases the allowance granted to `spender` by the caller. This is an alternative to {approve} that can be used as a mitigation for problems described in {IERC20-approve}. Emits an {Approval} event indicating the updated allowance. Requirements: - `spender` cannot be the zero address. - `spender` must have allowance for the caller of at least `subtractedValue`."
      },
      "depositDrc(uint256,uint32)": {
        "details": "See {IDigitalReserve-depositDrc}."
      },
      "getProofOfDepositPrice()": {
        "details": "See {IDigitalReserve-getProofOfDepositPrice}."
      },
      "getUserVaultInDrc(address,uint8)": {
        "details": "See {IDigitalReserve-getUserVaultInDrc}."
      },
      "increaseAllowance(address,uint256)": {
        "details": "Atomically increases the allowance granted to `spender` by the caller. This is an alternative to {approve} that can be used as a mitigation for problems described in {IERC20-approve}. Emits an {Approval} event indicating the updated allowance. Requirements: - `spender` cannot be the zero address."
      },
      "name()": {
        "details": "Returns the name of the token."
      },
      "owner()": {
        "details": "Returns the address of the current owner."
      },
      "priceDecimals()": {
        "details": "See {IDigitalReserve-priceDecimals}."
      },
      "rebalance(uint32)": {
        "details": "Realigning the weighting of a portfolio of assets to the strategy allocation that is defined. Only convert the amount that's necessory to convert to not be charged 0.3% uniswap fee for everything. This in total saves 0.6% fee for majority of the assets.",
        "params": {
          "deadline": "Unix timestamp after which the transaction will revert."
        }
      },
      "renounceOwnership()": {
        "details": "Leaves the contract without owner. It will not be possible to call `onlyOwner` functions anymore. Can only be called by the current owner. NOTE: Renouncing ownership will leave the contract without an owner, thereby removing any functionality that is only available to the owner."
      },
      "strategyTokenCount()": {
        "details": "See {IDigitalReserve-strategyTokenCount}."
      },
      "strategyTokens(uint8)": {
        "details": "See {IDigitalReserve-strategyTokens}."
      },
      "symbol()": {
        "details": "Returns the symbol of the token, usually a shorter version of the name."
      },
      "tokenPercentage(address)": {
        "details": "See {IDigitalReserve-tokenPercentage}."
      },
      "totalSupply()": {
        "details": "See {IERC20-totalSupply}."
      },
      "totalTokenStored()": {
        "details": "See {IDigitalReserve-totalTokenStored}."
      },
      "transfer(address,uint256)": {
        "details": "See {IERC20-transfer}. Requirements: - `recipient` cannot be the zero address. - the caller must have a balance of at least `amount`."
      },
      "transferFrom(address,address,uint256)": {
        "details": "See {IERC20-transferFrom}. Emits an {Approval} event indicating the updated allowance. This is not required by the EIP. See the note at the beginning of {ERC20}. Requirements: - `sender` and `recipient` cannot be the zero address. - `sender` must have a balance of at least `amount`. - the caller must have allowance for ``sender``'s tokens of at least `amount`."
      },
      "transferOwnership(address)": {
        "details": "Transfers ownership of the contract to a new account (`newOwner`). Can only be called by the current owner."
      },
      "withdrawDrc(uint256,uint32)": {
        "details": "See {IDigitalReserve-withdrawDrc}."
      },
      "withdrawPercentage(uint8,uint32)": {
        "details": "See {IDigitalReserve-withdrawPercentage}."
      },
      "withdrawalFee()": {
        "details": "See {IDigitalReserve-withdrawalFee}."
      }
    },
    "version": 1
  },
  "userdoc": {
    "kind": "user",
    "methods": {},
    "version": 1
  }
}