{
  "contractName": "DigitalReserve",
  "abi": [
    {
      "inputs": [
        {
          "internalType": "address",
          "name": "_router",
          "type": "address"
        },
        {
          "internalType": "address",
          "name": "_drcAddress",
          "type": "address"
        },
        {
          "internalType": "address",
          "name": "_pairAddress",
          "type": "address"
        }
      ],
      "stateMutability": "nonpayable",
      "type": "constructor"
    },
    {
      "anonymous": false,
      "inputs": [
        {
          "indexed": false,
          "internalType": "address",
          "name": "user",
          "type": "address"
        },
        {
          "indexed": false,
          "internalType": "uint256",
          "name": "amount",
          "type": "uint256"
        },
        {
          "indexed": false,
          "internalType": "uint256",
          "name": "totalProofOfDeposit",
          "type": "uint256"
        },
        {
          "indexed": false,
          "internalType": "uint256",
          "name": "userProofOfDeposit",
          "type": "uint256"
        },
        {
          "indexed": false,
          "internalType": "uint256",
          "name": "podMinted",
          "type": "uint256"
        }
      ],
      "name": "Deposit",
      "type": "event"
    },
    {
      "anonymous": false,
      "inputs": [
        {
          "indexed": true,
          "internalType": "address",
          "name": "previousOwner",
          "type": "address"
        },
        {
          "indexed": true,
          "internalType": "address",
          "name": "newOwner",
          "type": "address"
        }
      ],
      "name": "OwnershipTransferred",
      "type": "event"
    },
    {
      "anonymous": false,
      "inputs": [
        {
          "indexed": false,
          "internalType": "address[]",
          "name": "strategyTokens",
          "type": "address[]"
        },
        {
          "indexed": false,
          "internalType": "uint8[]",
          "name": "tokenPercentage",
          "type": "uint8[]"
        }
      ],
      "name": "Rebalance",
      "type": "event"
    },
    {
      "anonymous": false,
      "inputs": [
        {
          "indexed": false,
          "internalType": "address[]",
          "name": "oldTokens",
          "type": "address[]"
        },
        {
          "indexed": false,
          "internalType": "uint8[]",
          "name": "oldPercentage",
          "type": "uint8[]"
        },
        {
          "indexed": false,
          "internalType": "address[]",
          "name": "newTokens",
          "type": "address[]"
        },
        {
          "indexed": false,
          "internalType": "uint8[]",
          "name": "newPercentage",
          "type": "uint8[]"
        }
      ],
      "name": "StrategyChange",
      "type": "event"
    },
    {
      "anonymous": false,
      "inputs": [
        {
          "indexed": false,
          "internalType": "address",
          "name": "user",
          "type": "address"
        },
        {
          "indexed": false,
          "internalType": "uint256",
          "name": "amount",
          "type": "uint256"
        },
        {
          "indexed": false,
          "internalType": "uint256",
          "name": "fees",
          "type": "uint256"
        },
        {
          "indexed": false,
          "internalType": "string",
          "name": "tokenName",
          "type": "string"
        },
        {
          "indexed": false,
          "internalType": "uint256",
          "name": "totalProofOfDeposit",
          "type": "uint256"
        },
        {
          "indexed": false,
          "internalType": "uint256",
          "name": "userProofOfDeposit",
          "type": "uint256"
        },
        {
          "indexed": false,
          "internalType": "uint256",
          "name": "podBurned",
          "type": "uint256"
        }
      ],
      "name": "Withdraw",
      "type": "event"
    },
    {
      "inputs": [],
      "name": "owner",
      "outputs": [
        {
          "internalType": "address",
          "name": "",
          "type": "address"
        }
      ],
      "stateMutability": "view",
      "type": "function"
    },
    {
      "inputs": [],
      "name": "proofOfDepositDecimals",
      "outputs": [
        {
          "internalType": "uint8",
          "name": "",
          "type": "uint8"
        }
      ],
      "stateMutability": "view",
      "type": "function"
    },
    {
      "inputs": [],
      "name": "renounceOwnership",
      "outputs": [],
      "stateMutability": "nonpayable",
      "type": "function"
    },
    {
      "inputs": [],
      "name": "strategyTokenCount",
      "outputs": [
        {
          "internalType": "uint8",
          "name": "",
          "type": "uint8"
        }
      ],
      "stateMutability": "view",
      "type": "function"
    },
    {
      "inputs": [
        {
          "internalType": "uint256",
          "name": "",
          "type": "uint256"
        }
      ],
      "name": "strategyTokens",
      "outputs": [
        {
          "internalType": "address",
          "name": "",
          "type": "address"
        }
      ],
      "stateMutability": "view",
      "type": "function"
    },
    {
      "inputs": [],
      "name": "totalProofOfDeposit",
      "outputs": [
        {
          "internalType": "uint256",
          "name": "",
          "type": "uint256"
        }
      ],
      "stateMutability": "view",
      "type": "function"
    },
    {
      "inputs": [
        {
          "internalType": "address",
          "name": "newOwner",
          "type": "address"
        }
      ],
      "name": "transferOwnership",
      "outputs": [],
      "stateMutability": "nonpayable",
      "type": "function"
    },
    {
      "inputs": [
        {
          "internalType": "address",
          "name": "",
          "type": "address"
        }
      ],
      "name": "userProofOfDeposit",
      "outputs": [
        {
          "internalType": "uint256",
          "name": "",
          "type": "uint256"
        }
      ],
      "stateMutability": "view",
      "type": "function"
    },
    {
      "inputs": [
        {
          "internalType": "bool",
          "name": "_status",
          "type": "bool"
        }
      ],
      "name": "changeDepositStatus",
      "outputs": [],
      "stateMutability": "nonpayable",
      "type": "function"
    },
    {
      "inputs": [
        {
          "internalType": "bool",
          "name": "_status",
          "type": "bool"
        }
      ],
      "name": "changeWithdrawalStatus",
      "outputs": [],
      "stateMutability": "nonpayable",
      "type": "function"
    },
    {
      "inputs": [
        {
          "internalType": "uint8",
          "name": "_feePercentage",
          "type": "uint8"
        }
      ],
      "name": "changeFee",
      "outputs": [],
      "stateMutability": "nonpayable",
      "type": "function"
    },
    {
      "inputs": [],
      "name": "totalTokenStored",
      "outputs": [
        {
          "internalType": "uint256[]",
          "name": "",
          "type": "uint256[]"
        }
      ],
      "stateMutability": "view",
      "type": "function"
    },
    {
      "inputs": [
        {
          "internalType": "address",
          "name": "_user",
          "type": "address"
        }
      ],
      "name": "getUserVaultInDrc",
      "outputs": [
        {
          "internalType": "uint256",
          "name": "",
          "type": "uint256"
        },
        {
          "internalType": "uint256",
          "name": "",
          "type": "uint256"
        },
        {
          "internalType": "uint256",
          "name": "",
          "type": "uint256"
        }
      ],
      "stateMutability": "view",
      "type": "function"
    },
    {
      "inputs": [],
      "name": "getProofOfDepositPrice",
      "outputs": [
        {
          "internalType": "uint256",
          "name": "",
          "type": "uint256"
        }
      ],
      "stateMutability": "view",
      "type": "function"
    },
    {
      "inputs": [
        {
          "internalType": "uint256",
          "name": "_amount",
          "type": "uint256"
        },
        {
          "internalType": "uint32",
          "name": "deadline",
          "type": "uint32"
        }
      ],
      "name": "depositDrc",
      "outputs": [],
      "stateMutability": "nonpayable",
      "type": "function"
    },
    {
      "inputs": [
        {
          "internalType": "uint256",
          "name": "drcAmount",
          "type": "uint256"
        },
        {
          "internalType": "uint32",
          "name": "deadline",
          "type": "uint32"
        }
      ],
      "name": "withdrawDrc",
      "outputs": [],
      "stateMutability": "nonpayable",
      "type": "function"
    },
    {
      "inputs": [
        {
          "internalType": "uint8",
          "name": "percentage",
          "type": "uint8"
        },
        {
          "internalType": "uint32",
          "name": "deadline",
          "type": "uint32"
        }
      ],
      "name": "withdrawPercentage",
      "outputs": [],
      "stateMutability": "nonpayable",
      "type": "function"
    },
    {
      "inputs": [
        {
          "internalType": "address[]",
          "name": "_strategyTokens",
          "type": "address[]"
        },
        {
          "internalType": "uint8[]",
          "name": "_tokenPercentage",
          "type": "uint8[]"
        },
        {
          "internalType": "uint8",
          "name": "_strategyTokenCount",
          "type": "uint8"
        },
        {
          "internalType": "uint32",
          "name": "deadline",
          "type": "uint32"
        }
      ],
      "name": "changeStrategy",
      "outputs": [],
      "stateMutability": "nonpayable",
      "type": "function"
    },
    {
      "inputs": [
        {
          "internalType": "uint32",
          "name": "deadline",
          "type": "uint32"
        }
      ],
      "name": "rebalance",
      "outputs": [],
      "stateMutability": "nonpayable",
      "type": "function"
    }
  ],
  "bytecode": "0x60806040526012600360006101000a81548160ff021916908360ff1602179055506000600760146101000a81548160ff0219169083151502179055506001600760156101000a81548160ff0219169083151502179055506001600760166101000a81548160ff021916908360ff1602179055503480156200007f57600080fd5b50604051620056b9380380620056b983398181016040526060811015620000a557600080fd5b810190808051906020019092919080519060200190929190805190602001909291905050506000620000dc6200028760201b60201c565b9050806000806101000a81548173ffffffffffffffffffffffffffffffffffffffff021916908373ffffffffffffffffffffffffffffffffffffffff1602179055508073ffffffffffffffffffffffffffffffffffffffff16600073ffffffffffffffffffffffffffffffffffffffff167f8be0079c531659141344cd1fd0a4f28419497f9722a3daafe3b4186f6b6457e060405160405180910390a35081600760006101000a81548173ffffffffffffffffffffffffffffffffffffffff021916908373ffffffffffffffffffffffffffffffffffffffff16021790555082600660006101000a81548173ffffffffffffffffffffffffffffffffffffffff021916908373ffffffffffffffffffffffffffffffffffffffff16021790555080600860006101000a81548173ffffffffffffffffffffffffffffffffffffffff021916908373ffffffffffffffffffffffffffffffffffffffff16021790555082600960006101000a81548173ffffffffffffffffffffffffffffffffffffffff021916908373ffffffffffffffffffffffffffffffffffffffff1602179055505050506200028f565b600033905090565b61541a806200029f6000396000f3fe608060405234801561001057600080fd5b50600436106101215760003560e01c80638da5cb5b116100ad578063bd80662111610071578063bd80662114610464578063df9f8564146104c3578063e48e192e146104e7578063f0590223146105d2578063f2fde38b146105f657610121565b80638da5cb5b14610336578063929eb32714610380578063a47c12b51461039e578063b73b9e0d146103ce578063bb2a9ad7146103fe57610121565b80634cd46f00116100f45780634cd46f00146101f15780636f827c341461025f578063715018a6146102a057806380a35fbb146102aa5780638bf0f66c146102de57610121565b806318181a9c14610126578063438bacaa1461014457806347e6dece146101755780634c183918146101b3575b600080fd5b61012e61063a565b6040518082815260200191505060405180910390f35b6101736004803603602081101561015a57600080fd5b81019080803560ff169060200190929190505050610690565b005b6101b16004803603604081101561018b57600080fd5b8101908080359060200190929190803563ffffffff169060200190929190505050610788565b005b6101ef600480360360408110156101c957600080fd5b8101908080359060200190929190803563ffffffff169060200190929190505050610d77565b005b61021d6004803603602081101561020757600080fd5b8101908080359060200190929190505050610e58565b604051808273ffffffffffffffffffffffffffffffffffffffff1673ffffffffffffffffffffffffffffffffffffffff16815260200191505060405180910390f35b61029e6004803603604081101561027557600080fd5b81019080803560ff169060200190929190803563ffffffff169060200190929190505050610e94565b005b6102a8610f39565b005b6102dc600480360360208110156102c057600080fd5b81019080803563ffffffff1690602001909291905050506110c1565b005b610320600480360360208110156102f457600080fd5b81019080803573ffffffffffffffffffffffffffffffffffffffff16906020019092919050505061153e565b6040518082815260200191505060405180910390f35b61033e611556565b604051808273ffffffffffffffffffffffffffffffffffffffff1673ffffffffffffffffffffffffffffffffffffffff16815260200191505060405180910390f35b61038861157f565b6040518082815260200191505060405180910390f35b6103cc600480360360208110156103b457600080fd5b81019080803515159060200190929190505050611585565b005b6103fc600480360360208110156103e457600080fd5b8101908080351515906020019092919050505061166b565b005b6104406004803603602081101561041457600080fd5b81019080803573ffffffffffffffffffffffffffffffffffffffff169060200190929190505050611751565b60405180848152602001838152602001828152602001935050505060405180910390f35b61046c61188e565b6040518080602001828103825283818151815260200191508051906020019060200280838360005b838110156104af578082015181840152602081019050610494565b505050509050019250505060405180910390f35b6104cb611a1a565b604051808260ff1660ff16815260200191505060405180910390f35b6105d0600480360360808110156104fd57600080fd5b810190808035906020019064010000000081111561051a57600080fd5b82018360208201111561052c57600080fd5b8035906020019184602083028401116401000000008311171561054e57600080fd5b90919293919293908035906020019064010000000081111561056f57600080fd5b82018360208201111561058157600080fd5b803590602001918460208302840111640100000000831117156105a357600080fd5b9091929391929390803560ff169060200190929190803563ffffffff169060200190929190505050611a2d565b005b6105da612114565b604051808260ff1660ff16815260200191505060405180910390f35b6106386004803603602081101561060c57600080fd5b81019080803573ffffffffffffffffffffffffffffffffffffffff169060200190929190505050612127565b005b6000806000600454111561068957610686600454610678670de0b6b3a764000061066a61066561188e565b612334565b61255990919063ffffffff16565b6125df90919063ffffffff16565b90505b8091505090565b610698612629565b73ffffffffffffffffffffffffffffffffffffffff166000809054906101000a900473ffffffffffffffffffffffffffffffffffffffff1673ffffffffffffffffffffffffffffffffffffffff1614610759576040517f08c379a00000000000000000000000000000000000000000000000000000000081526004018080602001828103825260208152602001807f4f776e61626c653a2063616c6c6572206973206e6f7420746865206f776e657281525060200191505060405180910390fd5b60648160ff16111561076a57600080fd5b80600760166101000a81548160ff021916908360ff16021790555050565b600760149054906101000a900460ff166107a157600080fd5b81600760009054906101000a900473ffffffffffffffffffffffffffffffffffffffff1673ffffffffffffffffffffffffffffffffffffffff166370a08231336040518263ffffffff1660e01b8152600401808273ffffffffffffffffffffffffffffffffffffffff1673ffffffffffffffffffffffffffffffffffffffff16815260200191505060206040518083038186803b15801561084157600080fd5b505afa158015610855573d6000803e3d6000fd5b505050506040513d602081101561086b57600080fd5b8101908080519060200190929190505050101561088757600080fd5b81600760009054906101000a900473ffffffffffffffffffffffffffffffffffffffff1673ffffffffffffffffffffffffffffffffffffffff1663dd62ed3e33306040518363ffffffff1660e01b8152600401808373ffffffffffffffffffffffffffffffffffffffff1673ffffffffffffffffffffffffffffffffffffffff1681526020018273ffffffffffffffffffffffffffffffffffffffff1673ffffffffffffffffffffffffffffffffffffffff1681526020019250505060206040518083038186803b15801561095b57600080fd5b505afa15801561096f573d6000803e3d6000fd5b505050506040513d602081101561098557600080fd5b810190808051906020019092919050505010156109a157600080fd5b6109cf600760009054906101000a900473ffffffffffffffffffffffffffffffffffffffff16333085612631565b60006109d961063a565b9050610a0883600760009054906101000a900473ffffffffffffffffffffffffffffffffffffffff168461271e565b50610b6c600960009054906101000a900473ffffffffffffffffffffffffffffffffffffffff1673ffffffffffffffffffffffffffffffffffffffff1663ad5c46486040518163ffffffff1660e01b815260040160206040518083038186803b158015610a7457600080fd5b505afa158015610a88573d6000803e3d6000fd5b505050506040513d6020811015610a9e57600080fd5b810190808051906020019092919050505073ffffffffffffffffffffffffffffffffffffffff166370a08231306040518263ffffffff1660e01b8152600401808273ffffffffffffffffffffffffffffffffffffffff1673ffffffffffffffffffffffffffffffffffffffff16815260200191505060206040518083038186803b158015610b2b57600080fd5b505afa158015610b3f573d6000803e3d6000fd5b505050506040513d6020811015610b5557600080fd5b810190808051906020019092919050505083612d45565b50600080905060006004541415610b9e57610b9766038d7ea4c680008561255990919063ffffffff16565b9050610bfd565b6000610bb0610bab61188e565b612334565b90506000610be184610bd3670de0b6b3a76400008561255990919063ffffffff16565b6125df90919063ffffffff16565b9050610bf860045482612ea790919063ffffffff16565b925050505b610c4f81600560003373ffffffffffffffffffffffffffffffffffffffff1673ffffffffffffffffffffffffffffffffffffffff16815260200190815260200160002054612ef190919063ffffffff16565b600560003373ffffffffffffffffffffffffffffffffffffffff1673ffffffffffffffffffffffffffffffffffffffff16815260200190815260200160002081905550610ca781600454612ef190919063ffffffff16565b6004819055507f7162984403f6c73c8639375d45a9187dfd04602231bd8e587c415718b5f7e5f93385600454600560003373ffffffffffffffffffffffffffffffffffffffff1673ffffffffffffffffffffffffffffffffffffffff1681526020019081526020016000205485604051808673ffffffffffffffffffffffffffffffffffffffff1673ffffffffffffffffffffffffffffffffffffffff1681526020018581526020018481526020018381526020018281526020019550505050505060405180910390a150505050565b600760159054906101000a900460ff16610d9057600080fd5b6000610d9b33611751565b5091505082811015610dac57600080fd5b6000610dd882610dca6402540be4008761255990919063ffffffff16565b6125df90919063ffffffff16565b90506000610e456402540be400610e3784600560003373ffffffffffffffffffffffffffffffffffffffff1673ffffffffffffffffffffffffffffffffffffffff1681526020019081526020016000205461255990919063ffffffff16565b6125df90919063ffffffff16565b9050610e518185612f79565b5050505050565b60018181548110610e6557fe5b906000526020600020016000915054906101000a900473ffffffffffffffffffffffffffffffffffffffff1681565b600760159054906101000a900460ff16610ead57600080fd5b60648260ff161015610ebe57600080fd5b6000610f286064610f1a8560ff16600560003373ffffffffffffffffffffffffffffffffffffffff1673ffffffffffffffffffffffffffffffffffffffff1681526020019081526020016000205461255990919063ffffffff16565b6125df90919063ffffffff16565b9050610f348183612f79565b505050565b610f41612629565b73ffffffffffffffffffffffffffffffffffffffff166000809054906101000a900473ffffffffffffffffffffffffffffffffffffffff1673ffffffffffffffffffffffffffffffffffffffff1614611002576040517f08c379a00000000000000000000000000000000000000000000000000000000081526004018080602001828103825260208152602001807f4f776e61626c653a2063616c6c6572206973206e6f7420746865206f776e657281525060200191505060405180910390fd5b600073ffffffffffffffffffffffffffffffffffffffff166000809054906101000a900473ffffffffffffffffffffffffffffffffffffffff1673ffffffffffffffffffffffffffffffffffffffff167f8be0079c531659141344cd1fd0a4f28419497f9722a3daafe3b4186f6b6457e060405160405180910390a360008060006101000a81548173ffffffffffffffffffffffffffffffffffffffff021916908373ffffffffffffffffffffffffffffffffffffffff160217905550565b6110c9612629565b73ffffffffffffffffffffffffffffffffffffffff166000809054906101000a900473ffffffffffffffffffffffffffffffffffffffff1673ffffffffffffffffffffffffffffffffffffffff161461118a576040517f08c379a00000000000000000000000000000000000000000000000000000000081526004018080602001828103825260208152602001807f4f776e61626c653a2063616c6c6572206973206e6f7420746865206f776e657281525060200191505060405180910390fd5b60008060149054906101000a900460ff1660ff16116111a857600080fd5b6060600060149054906101000a900460ff1660ff166040519080825280602002602001820160405280156111eb5781602001602082028038833980820191505090505b50905060008090505b600060149054906101000a900460ff1660ff168160ff1610156112ce576002600060018360ff168154811061122557fe5b9060005260206000200160009054906101000a900473ffffffffffffffffffffffffffffffffffffffff1673ffffffffffffffffffffffffffffffffffffffff1673ffffffffffffffffffffffffffffffffffffffff16815260200190815260200160002060009054906101000a900460ff16828260ff16815181106112a757fe5b602002602001018181510191509060ff16908160ff168152505080806001019150506111f4565b507fb32bb5a705a3fe2dcd1ccb4c9d06b92fec03383d384acf8bfbc4e376db590d51600182604051808060200180602001838103835285818154815260200191508054801561137257602002820191906000526020600020905b8160009054906101000a900473ffffffffffffffffffffffffffffffffffffffff1673ffffffffffffffffffffffffffffffffffffffff1681526020019060010190808311611328575b5050838103825284818151815260200191508051906020019060200280838360005b838110156113af578082015181840152602081019050611394565b5050505090500194505050505060405180910390a16113d56113cf61188e565b836138a4565b50611539600960009054906101000a900473ffffffffffffffffffffffffffffffffffffffff1673ffffffffffffffffffffffffffffffffffffffff1663ad5c46486040518163ffffffff1660e01b815260040160206040518083038186803b15801561144157600080fd5b505afa158015611455573d6000803e3d6000fd5b505050506040513d602081101561146b57600080fd5b810190808051906020019092919050505073ffffffffffffffffffffffffffffffffffffffff166370a08231306040518263ffffffff1660e01b8152600401808273ffffffffffffffffffffffffffffffffffffffff1673ffffffffffffffffffffffffffffffffffffffff16815260200191505060206040518083038186803b1580156114f857600080fd5b505afa15801561150c573d6000803e3d6000fd5b505050506040513d602081101561152257600080fd5b810190808051906020019092919050505083612d45565b505050565b60056020528060005260406000206000915090505481565b60008060009054906101000a900473ffffffffffffffffffffffffffffffffffffffff16905090565b60045481565b61158d612629565b73ffffffffffffffffffffffffffffffffffffffff166000809054906101000a900473ffffffffffffffffffffffffffffffffffffffff1673ffffffffffffffffffffffffffffffffffffffff161461164e576040517f08c379a00000000000000000000000000000000000000000000000000000000081526004018080602001828103825260208152602001807f4f776e61626c653a2063616c6c6572206973206e6f7420746865206f776e657281525060200191505060405180910390fd5b80600760146101000a81548160ff02191690831515021790555050565b611673612629565b73ffffffffffffffffffffffffffffffffffffffff166000809054906101000a900473ffffffffffffffffffffffffffffffffffffffff1673ffffffffffffffffffffffffffffffffffffffff1614611734576040517f08c379a00000000000000000000000000000000000000000000000000000000081526004018080602001828103825260208152602001807f4f776e61626c653a2063616c6c6572206973206e6f7420746865206f776e657281525060200191505060405180910390fd5b80600760156101000a81548160ff02191690831515021790555050565b6000806000806117ca670de0b6b3a76400006117bc61176e61063a565b600560008a73ffffffffffffffffffffffffffffffffffffffff1673ffffffffffffffffffffffffffffffffffffffff1681526020019081526020016000205461255990919063ffffffff16565b6125df90919063ffffffff16565b9050600061180660646117f8600760169054906101000a900460ff1660ff168561255990919063ffffffff16565b6125df90919063ffffffff16565b9050600061183683600760009054906101000a900473ffffffffffffffffffffffffffffffffffffffff1661395d565b905060006118786118508486612ea790919063ffffffff16565b600760009054906101000a900473ffffffffffffffffffffffffffffffffffffffff1661395d565b9050818184965096509650505050509193909250565b606080600060149054906101000a900460ff1660ff166040519080825280602002602001820160405280156118d25781602001602082028038833980820191505090505b50905060008090505b600060149054906101000a900460ff1660ff168160ff161015611a125760018160ff168154811061190857fe5b9060005260206000200160009054906101000a900473ffffffffffffffffffffffffffffffffffffffff1673ffffffffffffffffffffffffffffffffffffffff166370a08231306040518263ffffffff1660e01b8152600401808273ffffffffffffffffffffffffffffffffffffffff1673ffffffffffffffffffffffffffffffffffffffff16815260200191505060206040518083038186803b1580156119af57600080fd5b505afa1580156119c3573d6000803e3d6000fd5b505050506040513d60208110156119d957600080fd5b8101908080519060200190929190505050828260ff16815181106119f957fe5b60200260200101818152505080806001019150506118db565b508091505090565b600060149054906101000a900460ff1681565b611a35612629565b73ffffffffffffffffffffffffffffffffffffffff166000809054906101000a900473ffffffffffffffffffffffffffffffffffffffff1673ffffffffffffffffffffffffffffffffffffffff1614611af6576040517f08c379a00000000000000000000000000000000000000000000000000000000081526004018080602001828103825260208152602001807f4f776e61626c653a2063616c6c6572206973206e6f7420746865206f776e657281525060200191505060405180910390fd5b60018260ff161015611b0757600080fd5b8160ff168686905014611b1957600080fd5b8160ff168484905014611b2b57600080fd5b600080905060008090505b8360ff168160ff161015611b6e5785858260ff16818110611b5357fe5b9050602002013560ff16820191508080600101915050611b36565b5060648160ff1614611b7f57600080fd5b6060600060149054906101000a900460ff1660ff16604051908082528060200260200182016040528015611bc25781602001602082028038833980820191505090505b50905060008090505b600060149054906101000a900460ff1660ff168160ff161015611d28576002600060018360ff1681548110611bfc57fe5b9060005260206000200160009054906101000a900473ffffffffffffffffffffffffffffffffffffffff1673ffffffffffffffffffffffffffffffffffffffff1673ffffffffffffffffffffffffffffffffffffffff16815260200190815260200160002060009054906101000a900460ff16828260ff1681518110611c7e57fe5b602002602001019060ff16908160ff16815250506002600060018360ff1681548110611ca657fe5b9060005260206000200160009054906101000a900473ffffffffffffffffffffffffffffffffffffffff1673ffffffffffffffffffffffffffffffffffffffff1673ffffffffffffffffffffffffffffffffffffffff16815260200190815260200160002060006101000a81549060ff02191690558080600101915050611bcb565b507f3e92ff021819876e3929d389ccc560772c36af85773e666546da33084b3bdc896001828a8a8a8a604051808060200180602001806020018060200185810385528b8181548152602001915080548015611dd857602002820191906000526020600020905b8160009054906101000a900473ffffffffffffffffffffffffffffffffffffffff1673ffffffffffffffffffffffffffffffffffffffff1681526020019060010190808311611d8e575b505085810384528a818151815260200191508051906020019060200280838360005b83811015611e15578082015181840152602081019050611dfa565b505050509050018581038352898982818152602001925060200280828437600081840152601f19601f8201169050808301925050508581038252878782818152602001925060200280828437600081840152601f19601f8201169050808301925050509a505050505050505050505060405180910390a1611e9d611e9761188e565b846138a4565b50878760019190611eaf929190615234565b5083600060146101000a81548160ff021916908360ff16021790555060008090505b600060149054906101000a900460ff1660ff168160ff161015611fa55786868260ff16818110611efd57fe5b9050602002013560ff166002600060018460ff1681548110611f1b57fe5b9060005260206000200160009054906101000a900473ffffffffffffffffffffffffffffffffffffffff1673ffffffffffffffffffffffffffffffffffffffff1673ffffffffffffffffffffffffffffffffffffffff16815260200190815260200160002060006101000a81548160ff021916908360ff1602179055508080600101915050611ed1565b50612109600960009054906101000a900473ffffffffffffffffffffffffffffffffffffffff1673ffffffffffffffffffffffffffffffffffffffff1663ad5c46486040518163ffffffff1660e01b815260040160206040518083038186803b15801561201157600080fd5b505afa158015612025573d6000803e3d6000fd5b505050506040513d602081101561203b57600080fd5b810190808051906020019092919050505073ffffffffffffffffffffffffffffffffffffffff166370a08231306040518263ffffffff1660e01b8152600401808273ffffffffffffffffffffffffffffffffffffffff1673ffffffffffffffffffffffffffffffffffffffff16815260200191505060206040518083038186803b1580156120c857600080fd5b505afa1580156120dc573d6000803e3d6000fd5b505050506040513d60208110156120f257600080fd5b810190808051906020019092919050505084612d45565b505050505050505050565b600360009054906101000a900460ff1681565b61212f612629565b73ffffffffffffffffffffffffffffffffffffffff166000809054906101000a900473ffffffffffffffffffffffffffffffffffffffff1673ffffffffffffffffffffffffffffffffffffffff16146121f0576040517f08c379a00000000000000000000000000000000000000000000000000000000081526004018080602001828103825260208152602001807f4f776e61626c653a2063616c6c6572206973206e6f7420746865206f776e657281525060200191505060405180910390fd5b600073ffffffffffffffffffffffffffffffffffffffff168173ffffffffffffffffffffffffffffffffffffffff161415612276576040517f08c379a00000000000000000000000000000000000000000000000000000000081526004018080602001828103825260268152602001806153186026913960400191505060405180910390fd5b8073ffffffffffffffffffffffffffffffffffffffff166000809054906101000a900473ffffffffffffffffffffffffffffffffffffffff1673ffffffffffffffffffffffffffffffffffffffff167f8be0079c531659141344cd1fd0a4f28419497f9722a3daafe3b4186f6b6457e060405160405180910390a3806000806101000a81548173ffffffffffffffffffffffffffffffffffffffff021916908373ffffffffffffffffffffffffffffffffffffffff16021790555050565b600080606060026040519080825280602002602001820160405280156123695781602001602082028038833980820191505090505b509050600960009054906101000a900473ffffffffffffffffffffffffffffffffffffffff1673ffffffffffffffffffffffffffffffffffffffff1663ad5c46486040518163ffffffff1660e01b815260040160206040518083038186803b1580156123d457600080fd5b505afa1580156123e8573d6000803e3d6000fd5b505050506040513d60208110156123fe57600080fd5b81019080805190602001909291905050508160018151811061241c57fe5b602002602001019073ffffffffffffffffffffffffffffffffffffffff16908173ffffffffffffffffffffffffffffffffffffffff168152505060008090505b600060149054906101000a900460ff1660ff168160ff16101561254e57600060018260ff168154811061248b57fe5b9060005260206000200160009054906101000a900473ffffffffffffffffffffffffffffffffffffffff16905080836000815181106124c657fe5b602002602001019073ffffffffffffffffffffffffffffffffffffffff16908173ffffffffffffffffffffffffffffffffffffffff16815250506000868360ff168151811061251157fe5b6020026020010151905060006125278284613ce5565b905061253c8187612ef190919063ffffffff16565b9550505050808060010191505061245c565b508192505050919050565b60008083141561256c57600090506125d9565b600082840290508284828161257d57fe5b04146125d4576040517f08c379a00000000000000000000000000000000000000000000000000000000081526004018080602001828103825260218152602001806153646021913960400191505060405180910390fd5b809150505b92915050565b600061262183836040518060400160405280601a81526020017f536166654d6174683a206469766973696f6e206279207a65726f00000000000081525061406d565b905092915050565b600033905090565b612718846323b872dd60e01b858585604051602401808473ffffffffffffffffffffffffffffffffffffffff1673ffffffffffffffffffffffffffffffffffffffff1681526020018373ffffffffffffffffffffffffffffffffffffffff1673ffffffffffffffffffffffffffffffffffffffff1681526020018281526020019350505050604051602081830303815290604052907bffffffffffffffffffffffffffffffffffffffffffffffffffffffff19166020820180517bffffffffffffffffffffffffffffffffffffffffffffffffffffffff8381831617835250505050614133565b50505050565b6000600960009054906101000a900473ffffffffffffffffffffffffffffffffffffffff1673ffffffffffffffffffffffffffffffffffffffff1663ad5c46486040518163ffffffff1660e01b815260040160206040518083038186803b15801561278857600080fd5b505afa15801561279c573d6000803e3d6000fd5b505050506040513d60208110156127b257600080fd5b810190808051906020019092919050505073ffffffffffffffffffffffffffffffffffffffff168373ffffffffffffffffffffffffffffffffffffffff1614806127fc5750600084145b1561280957839050612d3e565b6060600260405190808252806020026020018201604052801561283b5781602001602082028038833980820191505090505b509050838160008151811061284c57fe5b602002602001019073ffffffffffffffffffffffffffffffffffffffff16908173ffffffffffffffffffffffffffffffffffffffff1681525050600960009054906101000a900473ffffffffffffffffffffffffffffffffffffffff1673ffffffffffffffffffffffffffffffffffffffff1663ad5c46486040518163ffffffff1660e01b815260040160206040518083038186803b1580156128ee57600080fd5b505afa158015612902573d6000803e3d6000fd5b505050506040513d602081101561291857600080fd5b81019080805190602001909291905050508160018151811061293657fe5b602002602001019073ffffffffffffffffffffffffffffffffffffffff16908173ffffffffffffffffffffffffffffffffffffffff16815250506129b18160008151811061298057fe5b6020026020010151600660009054906101000a900473ffffffffffffffffffffffffffffffffffffffff1687614222565b6000600960009054906101000a900473ffffffffffffffffffffffffffffffffffffffff1673ffffffffffffffffffffffffffffffffffffffff1663d06ca61f87846040518363ffffffff1660e01b81526004018083815260200180602001828103825283818151815260200191508051906020019060200280838360005b83811015612a4b578082015181840152602081019050612a30565b50505050905001935050505060006040518083038186803b158015612a6f57600080fd5b505afa158015612a83573d6000803e3d6000fd5b505050506040513d6000823e3d601f19601f820116820180604052506020811015612aad57600080fd5b8101908080516040519392919084640100000000821115612acd57600080fd5b83820191506020820185811115612ae357600080fd5b8251866020820283011164010000000082111715612b0057600080fd5b8083526020830192505050908051906020019060200280838360005b83811015612b37578082015181840152602081019050612b1c565b50505050905001604052505050600181518110612b5057fe5b60200260200101519050600960009054906101000a900473ffffffffffffffffffffffffffffffffffffffff1673ffffffffffffffffffffffffffffffffffffffff166338ed173987838530896040518663ffffffff1660e01b815260040180868152602001858152602001806020018473ffffffffffffffffffffffffffffffffffffffff1673ffffffffffffffffffffffffffffffffffffffff1681526020018363ffffffff168152602001828103825285818151815260200191508051906020019060200280838360005b83811015612c39578082015181840152602081019050612c1e565b505050509050019650505050505050600060405180830381600087803b158015612c6257600080fd5b505af1158015612c76573d6000803e3d6000fd5b505050506040513d6000823e3d601f19601f820116820180604052506020811015612ca057600080fd5b8101908080516040519392919084640100000000821115612cc057600080fd5b83820191506020820185811115612cd657600080fd5b8251866020820283011164010000000082111715612cf357600080fd5b8083526020830192505050908051906020019060200280838360005b83811015612d2a578082015181840152602081019050612d0f565b505050509050016040525050505080925050505b9392505050565b606080600060149054906101000a900460ff1660ff16604051908082528060200260200182016040528015612d895781602001602082028038833980820191505090505b50905060008090505b600060149054906101000a900460ff1660ff168160ff161015612e9c57600060018260ff1681548110612dc157fe5b9060005260206000200160009054906101000a900473ffffffffffffffffffffffffffffffffffffffff1690506000612e656064612e57600260008673ffffffffffffffffffffffffffffffffffffffff1673ffffffffffffffffffffffffffffffffffffffff16815260200190815260200160002060009054906101000a900460ff1660ff168a61255990919063ffffffff16565b6125df90919063ffffffff16565b9050612e72818388614429565b848460ff1681518110612e8157fe5b60200260200101818152505050508080600101915050612d92565b508091505092915050565b6000612ee983836040518060400160405280601e81526020017f536166654d6174683a207375627472616374696f6e206f766572666c6f770000815250614a50565b905092915050565b600080828401905083811015612f6f576040517f08c379a000000000000000000000000000000000000000000000000000000000815260040180806020018281038252601b8152602001807f536166654d6174683a206164646974696f6e206f766572666c6f77000000000081525060200191505060405180910390fd5b8091505092915050565b600760159054906101000a900460ff16612f9257600080fd5b6060600060149054906101000a900460ff1660ff16604051908082528060200260200182016040528015612fd55781602001602082028038833980820191505090505b509050612fe183614b10565b905061303583600560003373ffffffffffffffffffffffffffffffffffffffff1673ffffffffffffffffffffffffffffffffffffffff16815260200190815260200160002054612ea790919063ffffffff16565b600560003373ffffffffffffffffffffffffffffffffffffffff1673ffffffffffffffffffffffffffffffffffffffff1681526020019081526020016000208190555061308d83600454612ea790919063ffffffff16565b60048190555061309d81836138a4565b506000600960009054906101000a900473ffffffffffffffffffffffffffffffffffffffff1673ffffffffffffffffffffffffffffffffffffffff1663ad5c46486040518163ffffffff1660e01b815260040160206040518083038186803b15801561310857600080fd5b505afa15801561311c573d6000803e3d6000fd5b505050506040513d602081101561313257600080fd5b810190808051906020019092919050505073ffffffffffffffffffffffffffffffffffffffff166370a08231306040518263ffffffff1660e01b8152600401808273ffffffffffffffffffffffffffffffffffffffff1673ffffffffffffffffffffffffffffffffffffffff16815260200191505060206040518083038186803b1580156131bf57600080fd5b505afa1580156131d3573d6000803e3d6000fd5b505050506040513d60208110156131e957600080fd5b8101908080519060200190929190505050905060006132366064613228600760169054906101000a900460ff1660ff168561255990919063ffffffff16565b6125df90919063ffffffff16565b905060006132786132508385612ea790919063ffffffff16565b600760009054906101000a900473ffffffffffffffffffffffffffffffffffffffff1661395d565b905061328381614cf8565b61351657613346600960009054906101000a900473ffffffffffffffffffffffffffffffffffffffff1673ffffffffffffffffffffffffffffffffffffffff1663ad5c46486040518163ffffffff1660e01b815260040160206040518083038186803b1580156132f257600080fd5b505afa158015613306573d6000803e3d6000fd5b505050506040513d602081101561331c57600080fd5b8101908080519060200190929190505050336133418587612ea790919063ffffffff16565b614edc565b6133fa600960009054906101000a900473ffffffffffffffffffffffffffffffffffffffff1673ffffffffffffffffffffffffffffffffffffffff1663ad5c46486040518163ffffffff1660e01b815260040160206040518083038186803b1580156133b157600080fd5b505afa1580156133c5573d6000803e3d6000fd5b505050506040513d60208110156133db57600080fd5b81019080805190602001909291905050506133f4611556565b84614edc565b7f71fdb72c1f1e2ed8cad11cf616c93bfb3cb055d5b69a046434e7b1c81989cc573361342f8486612ea790919063ffffffff16565b84600454600560003373ffffffffffffffffffffffffffffffffffffffff1673ffffffffffffffffffffffffffffffffffffffff168152602001908152602001600020548b604051808773ffffffffffffffffffffffffffffffffffffffff1673ffffffffffffffffffffffffffffffffffffffff16815260200186815260200185815260200180602001858152602001848152602001838152602001828103825260038152602001807f455448000000000000000000000000000000000000000000000000000000000081525060200197505050505050505060405180910390a161389c565b61355561352c8385612ea790919063ffffffff16565b600760009054906101000a900473ffffffffffffffffffffffffffffffffffffffff1687614429565b506000600960009054906101000a900473ffffffffffffffffffffffffffffffffffffffff1673ffffffffffffffffffffffffffffffffffffffff1663ad5c46486040518163ffffffff1660e01b815260040160206040518083038186803b1580156135c057600080fd5b505afa1580156135d4573d6000803e3d6000fd5b505050506040513d60208110156135ea57600080fd5b810190808051906020019092919050505073ffffffffffffffffffffffffffffffffffffffff166370a08231306040518263ffffffff1660e01b8152600401808273ffffffffffffffffffffffffffffffffffffffff1673ffffffffffffffffffffffffffffffffffffffff16815260200191505060206040518083038186803b15801561367757600080fd5b505afa15801561368b573d6000803e3d6000fd5b505050506040513d60208110156136a157600080fd5b810190808051906020019092919050505090506136e1600760009054906101000a900473ffffffffffffffffffffffffffffffffffffffff163383614edc565b613795600960009054906101000a900473ffffffffffffffffffffffffffffffffffffffff1673ffffffffffffffffffffffffffffffffffffffff1663ad5c46486040518163ffffffff1660e01b815260040160206040518083038186803b15801561374c57600080fd5b505afa158015613760573d6000803e3d6000fd5b505050506040513d602081101561377657600080fd5b810190808051906020019092919050505061378f611556565b85614edc565b7f71fdb72c1f1e2ed8cad11cf616c93bfb3cb055d5b69a046434e7b1c81989cc57338285600454600560003373ffffffffffffffffffffffffffffffffffffffff1673ffffffffffffffffffffffffffffffffffffffff168152602001908152602001600020548c604051808773ffffffffffffffffffffffffffffffffffffffff1673ffffffffffffffffffffffffffffffffffffffff16815260200186815260200185815260200180602001858152602001848152602001838152602001828103825260038152602001807f445243000000000000000000000000000000000000000000000000000000000081525060200197505050505050505060405180910390a1505b505050505050565b60008060008090505b600060149054906101000a900460ff1660ff168160ff16101561395257600060018260ff16815481106138dc57fe5b9060005260206000200160009054906101000a900473ffffffffffffffffffffffffffffffffffffffff169050600061392c878460ff168151811061391d57fe5b6020026020010151838861271e565b90506139418185612ef190919063ffffffff16565b9350505080806001019150506138ad565b508091505092915050565b6000606060026040519080825280602002602001820160405280156139915781602001602082028038833980820191505090505b509050600960009054906101000a900473ffffffffffffffffffffffffffffffffffffffff1673ffffffffffffffffffffffffffffffffffffffff1663ad5c46486040518163ffffffff1660e01b815260040160206040518083038186803b1580156139fc57600080fd5b505afa158015613a10573d6000803e3d6000fd5b505050506040513d6020811015613a2657600080fd5b810190808051906020019092919050505081600081518110613a4457fe5b602002602001019073ffffffffffffffffffffffffffffffffffffffff16908173ffffffffffffffffffffffffffffffffffffffff16815250508281600181518110613a8c57fe5b602002602001019073ffffffffffffffffffffffffffffffffffffffff16908173ffffffffffffffffffffffffffffffffffffffff168152505080600181518110613ad357fe5b602002602001015173ffffffffffffffffffffffffffffffffffffffff1681600081518110613afe57fe5b602002602001015173ffffffffffffffffffffffffffffffffffffffff161480613b285750600084145b15613b365783915050613cdf565b600960009054906101000a900473ffffffffffffffffffffffffffffffffffffffff1673ffffffffffffffffffffffffffffffffffffffff1663d06ca61f85836040518363ffffffff1660e01b81526004018083815260200180602001828103825283818151815260200191508051906020019060200280838360005b83811015613bce578082015181840152602081019050613bb3565b50505050905001935050505060006040518083038186803b158015613bf257600080fd5b505afa158015613c06573d6000803e3d6000fd5b505050506040513d6000823e3d601f19601f820116820180604052506020811015613c3057600080fd5b8101908080516040519392919084640100000000821115613c5057600080fd5b83820191506020820185811115613c6657600080fd5b8251866020820283011164010000000082111715613c8357600080fd5b8083526020830192505050908051906020019060200280838360005b83811015613cba578082015181840152602081019050613c9f565b50505050905001604052505050600181518110613cd357fe5b60200260200101519150505b92915050565b600060606002604051908082528060200260200182016040528015613d195781602001602082028038833980820191505090505b5090508281600081518110613d2a57fe5b602002602001019073ffffffffffffffffffffffffffffffffffffffff16908173ffffffffffffffffffffffffffffffffffffffff1681525050600960009054906101000a900473ffffffffffffffffffffffffffffffffffffffff1673ffffffffffffffffffffffffffffffffffffffff1663ad5c46486040518163ffffffff1660e01b815260040160206040518083038186803b158015613dcc57600080fd5b505afa158015613de0573d6000803e3d6000fd5b505050506040513d6020811015613df657600080fd5b810190808051906020019092919050505081600181518110613e1457fe5b602002602001019073ffffffffffffffffffffffffffffffffffffffff16908173ffffffffffffffffffffffffffffffffffffffff168152505080600181518110613e5b57fe5b602002602001015173ffffffffffffffffffffffffffffffffffffffff1681600081518110613e8657fe5b602002602001015173ffffffffffffffffffffffffffffffffffffffff161480613eb05750600084145b15613ebe5783915050614067565b600960009054906101000a900473ffffffffffffffffffffffffffffffffffffffff1673ffffffffffffffffffffffffffffffffffffffff1663d06ca61f85836040518363ffffffff1660e01b81526004018083815260200180602001828103825283818151815260200191508051906020019060200280838360005b83811015613f56578082015181840152602081019050613f3b565b50505050905001935050505060006040518083038186803b158015613f7a57600080fd5b505afa158015613f8e573d6000803e3d6000fd5b505050506040513d6000823e3d601f19601f820116820180604052506020811015613fb857600080fd5b8101908080516040519392919084640100000000821115613fd857600080fd5b83820191506020820185811115613fee57600080fd5b825186602082028301116401000000008211171561400b57600080fd5b8083526020830192505050908051906020019060200280838360005b83811015614042578082015181840152602081019050614027565b5050505090500160405250505060018151811061405b57fe5b60200260200101519150505b92915050565b60008083118290614119576040517f08c379a00000000000000000000000000000000000000000000000000000000081526004018080602001828103825283818151815260200191508051906020019080838360005b838110156140de5780820151818401526020810190506140c3565b50505050905090810190601f16801561410b5780820380516001836020036101000a031916815260200191505b509250505060405180910390fd5b50600083858161412557fe5b049050809150509392505050565b6060614195826040518060400160405280602081526020017f5361666545524332303a206c6f772d6c6576656c2063616c6c206661696c65648152508573ffffffffffffffffffffffffffffffffffffffff16614f949092919063ffffffff16565b905060008151111561421d578080602001905160208110156141b657600080fd5b810190808051906020019092919050505061421c576040517f08c379a000000000000000000000000000000000000000000000000000000000815260040180806020018281038252602a815260200180615385602a913960400191505060405180910390fd5b5b505050565b600081148061431c575060008373ffffffffffffffffffffffffffffffffffffffff1663dd62ed3e30856040518363ffffffff1660e01b8152600401808373ffffffffffffffffffffffffffffffffffffffff1673ffffffffffffffffffffffffffffffffffffffff1681526020018273ffffffffffffffffffffffffffffffffffffffff1673ffffffffffffffffffffffffffffffffffffffff1681526020019250505060206040518083038186803b1580156142df57600080fd5b505afa1580156142f3573d6000803e3d6000fd5b505050506040513d602081101561430957600080fd5b8101908080519060200190929190505050145b614371576040517f08c379a00000000000000000000000000000000000000000000000000000000081526004018080602001828103825260368152602001806153af6036913960400191505060405180910390fd5b6144248363095ea7b360e01b8484604051602401808373ffffffffffffffffffffffffffffffffffffffff1673ffffffffffffffffffffffffffffffffffffffff16815260200182815260200192505050604051602081830303815290604052907bffffffffffffffffffffffffffffffffffffffffffffffffffffffff19166020820180517bffffffffffffffffffffffffffffffffffffffffffffffffffffffff8381831617835250505050614133565b505050565b6000600960009054906101000a900473ffffffffffffffffffffffffffffffffffffffff1673ffffffffffffffffffffffffffffffffffffffff1663ad5c46486040518163ffffffff1660e01b815260040160206040518083038186803b15801561449357600080fd5b505afa1580156144a7573d6000803e3d6000fd5b505050506040513d60208110156144bd57600080fd5b810190808051906020019092919050505073ffffffffffffffffffffffffffffffffffffffff168373ffffffffffffffffffffffffffffffffffffffff1614806145075750600084145b1561451457839050614a49565b606060026040519080825280602002602001820160405280156145465781602001602082028038833980820191505090505b509050600960009054906101000a900473ffffffffffffffffffffffffffffffffffffffff1673ffffffffffffffffffffffffffffffffffffffff1663ad5c46486040518163ffffffff1660e01b815260040160206040518083038186803b1580156145b157600080fd5b505afa1580156145c5573d6000803e3d6000fd5b505050506040513d60208110156145db57600080fd5b8101908080519060200190929190505050816000815181106145f957fe5b602002602001019073ffffffffffffffffffffffffffffffffffffffff16908173ffffffffffffffffffffffffffffffffffffffff1681525050838160018151811061464157fe5b602002602001019073ffffffffffffffffffffffffffffffffffffffff16908173ffffffffffffffffffffffffffffffffffffffff16815250506146bc8160008151811061468b57fe5b6020026020010151600660009054906101000a900473ffffffffffffffffffffffffffffffffffffffff1687614222565b6000600960009054906101000a900473ffffffffffffffffffffffffffffffffffffffff1673ffffffffffffffffffffffffffffffffffffffff1663d06ca61f87846040518363ffffffff1660e01b81526004018083815260200180602001828103825283818151815260200191508051906020019060200280838360005b8381101561475657808201518184015260208101905061473b565b50505050905001935050505060006040518083038186803b15801561477a57600080fd5b505afa15801561478e573d6000803e3d6000fd5b505050506040513d6000823e3d601f19601f8201168201806040525060208110156147b857600080fd5b81019080805160405193929190846401000000008211156147d857600080fd5b838201915060208201858111156147ee57600080fd5b825186602082028301116401000000008211171561480b57600080fd5b8083526020830192505050908051906020019060200280838360005b83811015614842578082015181840152602081019050614827565b5050505090500160405250505060018151811061485b57fe5b60200260200101519050600960009054906101000a900473ffffffffffffffffffffffffffffffffffffffff1673ffffffffffffffffffffffffffffffffffffffff166338ed173987838530896040518663ffffffff1660e01b815260040180868152602001858152602001806020018473ffffffffffffffffffffffffffffffffffffffff1673ffffffffffffffffffffffffffffffffffffffff1681526020018363ffffffff168152602001828103825285818151815260200191508051906020019060200280838360005b83811015614944578082015181840152602081019050614929565b505050509050019650505050505050600060405180830381600087803b15801561496d57600080fd5b505af1158015614981573d6000803e3d6000fd5b505050506040513d6000823e3d601f19601f8201168201806040525060208110156149ab57600080fd5b81019080805160405193929190846401000000008211156149cb57600080fd5b838201915060208201858111156149e157600080fd5b82518660208202830111640100000000821117156149fe57600080fd5b8083526020830192505050908051906020019060200280838360005b83811015614a35578082015181840152602081019050614a1a565b505050509050016040525050505080925050505b9392505050565b6000838311158290614afd576040517f08c379a00000000000000000000000000000000000000000000000000000000081526004018080602001828103825283818151815260200191508051906020019080838360005b83811015614ac2578082015181840152602081019050614aa7565b50505050905090810190601f168015614aef5780820380516001836020036101000a031916815260200191505b509250505060405180910390fd5b5060008385039050809150509392505050565b606080600060149054906101000a900460ff1660ff16604051908082528060200260200182016040528015614b545781602001602082028038833980820191505090505b5090506000614b85600454614b776402540be4008761255990919063ffffffff16565b6125df90919063ffffffff16565b905060008090505b600060149054906101000a900460ff1660ff168160ff161015614ced57614cc56402540be400614cb78460018560ff1681548110614bc757fe5b9060005260206000200160009054906101000a900473ffffffffffffffffffffffffffffffffffffffff1673ffffffffffffffffffffffffffffffffffffffff166370a08231306040518263ffffffff1660e01b8152600401808273ffffffffffffffffffffffffffffffffffffffff1673ffffffffffffffffffffffffffffffffffffffff16815260200191505060206040518083038186803b158015614c6e57600080fd5b505afa158015614c82573d6000803e3d6000fd5b505050506040513d6020811015614c9857600080fd5b810190808051906020019092919050505061255990919063ffffffff16565b6125df90919063ffffffff16565b838260ff1681518110614cd457fe5b6020026020010181815250508080600101915050614b8d565b508192505050919050565b6000600760009054906101000a900473ffffffffffffffffffffffffffffffffffffffff1673ffffffffffffffffffffffffffffffffffffffff16600860009054906101000a900473ffffffffffffffffffffffffffffffffffffffff1673ffffffffffffffffffffffffffffffffffffffff16630dfe16816040518163ffffffff1660e01b815260040160206040518083038186803b158015614d9b57600080fd5b505afa158015614daf573d6000803e3d6000fd5b505050506040513d6020811015614dc557600080fd5b810190808051906020019092919050505073ffffffffffffffffffffffffffffffffffffffff161415614ed2576000600860009054906101000a900473ffffffffffffffffffffffffffffffffffffffff1673ffffffffffffffffffffffffffffffffffffffff16630902f1ac6040518163ffffffff1660e01b815260040160606040518083038186803b158015614e5c57600080fd5b505afa158015614e70573d6000803e3d6000fd5b505050506040513d6060811015614e8657600080fd5b810190808051906020019092919080519060200190929190805190602001909291905050505050905082816dffffffffffffffffffffffffffff1610614ed0576001915050614ed7565b505b600090505b919050565b614f8f8363a9059cbb60e01b8484604051602401808373ffffffffffffffffffffffffffffffffffffffff1673ffffffffffffffffffffffffffffffffffffffff16815260200182815260200192505050604051602081830303815290604052907bffffffffffffffffffffffffffffffffffffffffffffffffffffffff19166020820180517bffffffffffffffffffffffffffffffffffffffffffffffffffffffff8381831617835250505050614133565b505050565b6060614fa38484600085614fac565b90509392505050565b606082471015615007576040517f08c379a000000000000000000000000000000000000000000000000000000000815260040180806020018281038252602681526020018061533e6026913960400191505060405180910390fd5b61501085615155565b615082576040517f08c379a000000000000000000000000000000000000000000000000000000000815260040180806020018281038252601d8152602001807f416464726573733a2063616c6c20746f206e6f6e2d636f6e747261637400000081525060200191505060405180910390fd5b600060608673ffffffffffffffffffffffffffffffffffffffff1685876040518082805190602001908083835b602083106150d257805182526020820191506020810190506020830392506150af565b6001836020036101000a03801982511681845116808217855250505050505090500191505060006040518083038185875af1925050503d8060008114615134576040519150601f19603f3d011682016040523d82523d6000602084013e615139565b606091505b5091509150615149828286615168565b92505050949350505050565b600080823b905060008111915050919050565b606083156151785782905061522d565b60008351111561518b5782518084602001fd5b816040517f08c379a00000000000000000000000000000000000000000000000000000000081526004018080602001828103825283818151815260200191508051906020019080838360005b838110156151f25780820151818401526020810190506151d7565b50505050905090810190601f16801561521f5780820380516001836020036101000a031916815260200191505b509250505060405180910390fd5b9392505050565b8280548282559060005260206000209081019282156152c3579160200282015b828111156152c257823573ffffffffffffffffffffffffffffffffffffffff168260006101000a81548173ffffffffffffffffffffffffffffffffffffffff021916908373ffffffffffffffffffffffffffffffffffffffff16021790555091602001919060010190615254565b5b5090506152d091906152d4565b5090565b61531491905b8082111561531057600081816101000a81549073ffffffffffffffffffffffffffffffffffffffff0219169055506001016152da565b5090565b9056fe4f776e61626c653a206e6577206f776e657220697320746865207a65726f2061646472657373416464726573733a20696e73756666696369656e742062616c616e636520666f722063616c6c536166654d6174683a206d756c7469706c69636174696f6e206f766572666c6f775361666545524332303a204552433230206f7065726174696f6e20646964206e6f7420737563636565645361666545524332303a20617070726f76652066726f6d206e6f6e2d7a65726f20746f206e6f6e2d7a65726f20616c6c6f77616e6365a26469706673582212204cf0b26081255319b2f7ac87f71e317dd660e945aa77b2d557554eaa8364053764736f6c63430006020033",
  "source": "// SPDX-License-Identifier: GPL-3.0-or-later\n\npragma solidity ^0.6.0;\n\nimport \"@openzeppelin/contracts/math/SafeMath.sol\";\nimport \"@openzeppelin/contracts/utils/ReentrancyGuard.sol\";\nimport \"@openzeppelin/contracts/token/ERC20/SafeERC20.sol\";\nimport \"@openzeppelin/contracts/token/ERC20/IERC20.sol\";\nimport \"@openzeppelin/contracts/access/Ownable.sol\";\n\nimport \"./Interfaces/Uniswap/IUniswapV2Router02.sol\";\nimport \"./Interfaces/Uniswap/IUniswapV2Pair.sol\";\nimport \"./Interfaces/Uniswap/IWETH.sol\";\n\ncontract DigitalReserve is Ownable {\n    using SafeMath for uint256;\n\n    constructor(\n        address _router,\n        address _drcAddress,\n        address _pairAddress\n    ) public {\n        drcAddress = _drcAddress;\n        router = _router;\n        drcEthPair = IUniswapV2Pair(_pairAddress);\n        uniswapRouter = IUniswapV2Router02(_router);\n    }\n\n    uint8 public strategyTokenCount; // Number of strategy tokens\n    address[] public strategyTokens; // Token addresses of vault strategy tokens\n    mapping(address => uint8) private tokenPercentage; // Vault strategy tokens percentage allocation\n\n    uint8 public proofOfDepositDecimals = 18;\n    uint256 public totalProofOfDeposit;\n    mapping(address => uint256) public userProofOfDeposit;\n\n    address private router;\n    address private drcAddress;\n\n    bool private depositEnabled = false;\n    bool private withdrawalEnabled = true;\n    uint8 private feePercentage = 1;\n\n    IUniswapV2Pair private drcEthPair;\n    IUniswapV2Router02 private uniswapRouter;\n\n    event StrategyChange(address[] oldTokens, uint8[] oldPercentage, address[] newTokens, uint8[] newPercentage);\n    event Rebalance(address[] strategyTokens, uint8[] tokenPercentage);\n    event Deposit(\n        address user,\n        uint256 amount,\n        uint256 totalProofOfDeposit,\n        uint256 userProofOfDeposit,\n        uint256 podMinted\n    );\n    event Withdraw(\n        address user,\n        uint256 amount,\n        uint256 fees,\n        string tokenName,\n        uint256 totalProofOfDeposit,\n        uint256 userProofOfDeposit,\n        uint256 podBurned\n    );\n\n    function changeDepositStatus(bool _status) external onlyOwner {\n        depositEnabled = _status;\n    }\n\n    function changeWithdrawalStatus(bool _status) external onlyOwner {\n        withdrawalEnabled = _status;\n    }\n\n    function changeFee(uint8 _feePercentage) external onlyOwner {\n        require(_feePercentage <= 100);\n        feePercentage = _feePercentage;\n    }\n\n    function totalTokenStored() public view returns (uint256[] memory) {\n        uint256[] memory amounts = new uint256[](strategyTokenCount);\n        for (uint8 i = 0; i < strategyTokenCount; i++) {\n            amounts[i] = IERC20(strategyTokens[i]).balanceOf(address(this));\n        }\n        return amounts;\n    }\n\n    function getUserVaultInDrc(address _user) public view returns (uint256, uint256, uint256) {\n        uint256 userVaultWorthInEth = userProofOfDeposit[_user].mul(getProofOfDepositPrice()).div(1e18);\n\n        uint256 fees = userVaultWorthInEth.mul(feePercentage).div(100);\n        uint256 drcAmount = _getEthToTokenAmountOut(userVaultWorthInEth, drcAddress);\n        uint256 drcAmountExcludeFees = _getEthToTokenAmountOut(userVaultWorthInEth.sub(fees), drcAddress);\n\n        return (drcAmount, drcAmountExcludeFees, fees);\n    }\n\n    function getProofOfDepositPrice() public view returns (uint256) {\n        uint256 proofOfDepositPrice;\n        if (totalProofOfDeposit > 0) {\n            proofOfDepositPrice = _getStrategyTokensInEth(totalTokenStored()).mul(1e18).div(totalProofOfDeposit);\n        }\n\n        return proofOfDepositPrice;\n    }\n\n    function depositDrc(uint256 _amount, uint32 deadline) external {\n        require(depositEnabled);\n\n        // Step 1: transfer users DRC to this contract\n        require(IERC20(drcAddress).balanceOf(msg.sender) >= _amount);\n        require(IERC20(drcAddress).allowance(msg.sender, address(this)) >= _amount);\n        SafeERC20.safeTransferFrom(IERC20(drcAddress), msg.sender, address(this), _amount);\n\n        // Get current unit price before adding tokens to vault\n        uint256 currentPodUnitPrice = getProofOfDepositPrice();\n\n        // Step 2: Swap DRC to ETH, then swap ETH to strategy tokens\n        _convertTokenToEth(_amount, drcAddress, deadline);\n        _convertEthToStrategyTokens(IERC20(uniswapRouter.WETH()).balanceOf(address(this)), deadline);\n\n        // Step 3: Calculate how many new POD is minted, and update Vault states\n        uint256 podToMint = 0;\n\n        if (totalProofOfDeposit == 0) {\n            // Set initial POD amount to 1/1000 of the first DRC deposit amount\n            podToMint = _amount.mul(1e15);\n        } else {\n            uint256 vaultTotalInEth = _getStrategyTokensInEth(totalTokenStored());\n            uint256 newPodTotal = vaultTotalInEth.mul(1e18).div(currentPodUnitPrice);\n            podToMint = newPodTotal.sub(totalProofOfDeposit);\n        }\n\n        // Update vault states\n        userProofOfDeposit[msg.sender] = userProofOfDeposit[msg.sender].add(podToMint);\n        totalProofOfDeposit = totalProofOfDeposit.add(podToMint);\n\n        emit Deposit(msg.sender, _amount, totalProofOfDeposit, userProofOfDeposit[msg.sender], podToMint);\n    }\n\n    function withdrawDrc(uint256 drcAmount, uint32 deadline) external {\n        require(withdrawalEnabled);\n\n        (, uint256 userVaultInDrc, ) = getUserVaultInDrc(msg.sender);\n        require(userVaultInDrc >= drcAmount);\n\n        uint256 amountFraction = drcAmount.mul(1e10).div(userVaultInDrc);\n        uint256 podToBurn = userProofOfDeposit[msg.sender].mul(amountFraction).div(1e10);\n        _withdrawProofOfDeposit(podToBurn, deadline);\n    }\n\n    function withdrawPercentage(uint8 percentage, uint32 deadline) external {\n        require(withdrawalEnabled);\n        require(percentage >= 100);\n\n        uint256 podToBurn = userProofOfDeposit[msg.sender].mul(percentage).div(100);\n        _withdrawProofOfDeposit(podToBurn, deadline);\n    }\n\n    function changeStrategy(\n        address[] calldata _strategyTokens,\n        uint8[] calldata _tokenPercentage,\n        uint8 _strategyTokenCount,\n        uint32 deadline\n    ) external onlyOwner {\n        require(_strategyTokenCount >= 1);\n        require(_strategyTokens.length == _strategyTokenCount);\n        require(_tokenPercentage.length == _strategyTokenCount);\n\n        uint8 totalPercentage = 0;\n        for (uint8 i = 0; i < _strategyTokenCount; i++) {\n            totalPercentage += _tokenPercentage[i];\n        }\n        require(totalPercentage == 100);\n\n        uint8[] memory oldPercentage = new uint8[](strategyTokenCount);\n        for (uint8 i = 0; i < strategyTokenCount; i++) {\n            oldPercentage[i] = tokenPercentage[strategyTokens[i]];\n            delete tokenPercentage[strategyTokens[i]];\n        }\n\n        emit StrategyChange(strategyTokens, oldPercentage, _strategyTokens, _tokenPercentage);\n\n        // Before mutate strategyTokens, convert current tokens to ETH\n        _convertStrategyTokensToEth(totalTokenStored(), deadline);\n\n        // Update strategyTokens\n        strategyTokens = _strategyTokens;\n        strategyTokenCount = _strategyTokenCount;\n\n        for (uint8 i = 0; i < strategyTokenCount; i++) {\n            tokenPercentage[strategyTokens[i]] = _tokenPercentage[i];\n        }\n\n        _convertEthToStrategyTokens(IERC20(uniswapRouter.WETH()).balanceOf(address(this)), deadline);\n    }\n\n    function rebalance(uint32 deadline) external onlyOwner {\n        require(strategyTokenCount > 0);\n\n        uint8[] memory percentageArray = new uint8[](strategyTokenCount);\n        for (uint8 i = 0; i < strategyTokenCount; i++) {\n            percentageArray[i] += tokenPercentage[strategyTokens[i]];\n        }\n\n        emit Rebalance(strategyTokens, percentageArray);\n\n        _convertStrategyTokensToEth(totalTokenStored(), deadline);\n        _convertEthToStrategyTokens(IERC20(uniswapRouter.WETH()).balanceOf(address(this)), deadline);\n    }\n\n    function _withdrawProofOfDeposit(uint256 podToBurn, uint32 deadline) private {\n        require(withdrawalEnabled);\n\n        // get strategy tokens to withdraw by pod to withdraw\n        uint256[] memory strategyTokensToWithdraw = new uint256[](strategyTokenCount);\n        strategyTokensToWithdraw = _getPodAmountInTokens(podToBurn);\n\n        // Reduce user holding by withdrawed amount in pod and strategy tokens\n        userProofOfDeposit[msg.sender] = userProofOfDeposit[msg.sender].sub(podToBurn);\n        totalProofOfDeposit = totalProofOfDeposit.sub(podToBurn);\n\n        // Remove tokens from vault\n        _convertStrategyTokensToEth(strategyTokensToWithdraw, deadline);\n        uint256 ethSwapped = IERC20(uniswapRouter.WETH()).balanceOf(address(this));\n        uint256 fees = ethSwapped.mul(feePercentage).div(100);\n        uint256 drcAmount = _getEthToTokenAmountOut(ethSwapped.sub(fees), drcAddress);\n\n        if (!_isEnoughDrcReserve(drcAmount)) {\n            SafeERC20.safeTransfer(IERC20(uniswapRouter.WETH()), msg.sender, ethSwapped.sub(fees));\n            SafeERC20.safeTransfer(IERC20(uniswapRouter.WETH()), owner(), fees);\n            emit Withdraw(\n                msg.sender,\n                ethSwapped.sub(fees),\n                fees,\n                \"ETH\",\n                totalProofOfDeposit,\n                userProofOfDeposit[msg.sender],\n                podToBurn\n            );\n        } else {\n            _convertEthToToken(ethSwapped.sub(fees), drcAddress, deadline);\n            uint256 _drcAmount = IERC20(uniswapRouter.WETH()).balanceOf(address(this));\n            SafeERC20.safeTransfer(IERC20(drcAddress), msg.sender, _drcAmount);\n            SafeERC20.safeTransfer(IERC20(uniswapRouter.WETH()), owner(), fees);\n            emit Withdraw(\n                msg.sender,\n                _drcAmount,\n                fees,\n                \"DRC\",\n                totalProofOfDeposit,\n                userProofOfDeposit[msg.sender],\n                podToBurn\n            );\n        }\n    }\n\n    function addTwoArrays(uint256[] memory array1, uint256[] memory array2) private pure returns (uint256[] memory) {\n        uint256[] memory array3 = new uint256[](array1.length);\n        for (uint256 i = 0; i < array1.length; i++) {\n            array3[i] = array1[i].add(array2[i]);\n        }\n        return array3;\n    }\n\n    function subTwoArrays(uint256[] memory array1, uint256[] memory array2) private pure returns (uint256[] memory) {\n        uint256[] memory array3 = new uint256[](array1.length);\n        for (uint256 i = 0; i < array1.length; i++) {\n            array3[i] = array1[i].sub(array2[i]);\n        }\n        return array3;\n    }\n\n    function _isEnoughDrcReserve(uint256 _amount) private view returns (bool) {\n        if (drcEthPair.token0() == drcAddress) {\n            (uint112 reserves, , ) = drcEthPair.getReserves();\n            if (reserves >= _amount) {\n                return true;\n            }\n        }\n        return false;\n    }\n\n    function _getEthToTokenAmountOut(uint256 _amount, address _tokenAddress) private view returns (uint256) {\n        address[] memory path = new address[](2);\n        path[0] = uniswapRouter.WETH();\n        path[1] = _tokenAddress;\n\n        if (path[0] == path[1] || _amount == 0) {\n            return _amount;\n        }\n        return uniswapRouter.getAmountsOut(_amount, path)[1];\n    }\n\n    function _getTokenToEthAmountOut(uint256 _amount, address _tokenAddress) private view returns (uint256) {\n        address[] memory path = new address[](2);\n        path[0] = _tokenAddress;\n        path[1] = uniswapRouter.WETH();\n\n        if (path[0] == path[1] || _amount == 0) {\n            return _amount;\n        }\n        return uniswapRouter.getAmountsOut(_amount, path)[1];\n    }\n\n    function _getStrategyTokensInEth(uint256[] memory _strategyTokensBalance) private view returns (uint256) {\n        uint256 amountOut;\n        address[] memory path = new address[](2);\n        path[1] = uniswapRouter.WETH();\n\n        for (uint8 i = 0; i < strategyTokenCount; i++) {\n            address tokenAddress = strategyTokens[i];\n            path[0] = tokenAddress;\n            uint256 tokenAmount = _strategyTokensBalance[i];\n            uint256 tokenAmountInEth = _getTokenToEthAmountOut(tokenAmount, tokenAddress);\n\n            amountOut = amountOut.add(tokenAmountInEth);\n        }\n        return amountOut;\n    }\n\n    function _getPodAmountInTokens(uint256 _amount) private view returns (uint256[] memory) {\n        uint256[] memory strategyTokenAmount = new uint256[](strategyTokenCount);\n\n        uint256 podFraction = _amount.mul(1e10).div(totalProofOfDeposit);\n        for (uint8 i = 0; i < strategyTokenCount; i++) {\n            strategyTokenAmount[i] = IERC20(strategyTokens[i]).balanceOf(address(this)).mul(podFraction).div(1e10);\n        }\n        return strategyTokenAmount;\n    }\n\n    function _convertTokenToEth(\n        uint256 _amount,\n        address _tokenAddress,\n        uint32 deadline\n    ) private returns (uint256) {\n        if (_tokenAddress == uniswapRouter.WETH() || _amount == 0) {\n            return _amount;\n        }\n        address[] memory path = new address[](2);\n        path[0] = _tokenAddress;\n        path[1] = uniswapRouter.WETH();\n        SafeERC20.safeApprove(IERC20(path[0]), router, _amount);\n        uint256 amountOut = uniswapRouter.getAmountsOut(_amount, path)[1];\n        uniswapRouter.swapExactTokensForTokens(_amount, amountOut, path, address(this), deadline);\n        return amountOut;\n    }\n\n    function _convertEthToToken(\n        uint256 _amount,\n        address _tokenAddress,\n        uint32 deadline\n    ) private returns (uint256) {\n        if (_tokenAddress == uniswapRouter.WETH() || _amount == 0) {\n            return _amount;\n        }\n        address[] memory path = new address[](2);\n        path[0] = uniswapRouter.WETH();\n        path[1] = _tokenAddress;\n        SafeERC20.safeApprove(IERC20(path[0]), router, _amount);\n        uint256 amountOut = uniswapRouter.getAmountsOut(_amount, path)[1];\n        uniswapRouter.swapExactTokensForTokens(_amount, amountOut, path, address(this), deadline);\n        return amountOut;\n    }\n\n    function _convertEthToStrategyTokens(uint256 amount, uint32 deadline) private returns (uint256[] memory) {\n        uint256[] memory amountConverted = new uint256[](strategyTokenCount);\n        for (uint8 i = 0; i < strategyTokenCount; i++) {\n            address currentToken = strategyTokens[i];\n            uint256 amountToConvert = amount.mul(tokenPercentage[currentToken]).div(100);\n            amountConverted[i] = _convertEthToToken(amountToConvert, currentToken, deadline);\n        }\n        return amountConverted;\n    }\n\n    function _convertStrategyTokensToEth(uint256[] memory amountToConvert, uint32 deadline) private returns (uint256) {\n        uint256 ethConverted;\n        for (uint8 i = 0; i < strategyTokenCount; i++) {\n            address currentToken = strategyTokens[i];\n            uint256 amountConverted = _convertTokenToEth(amountToConvert[i], currentToken, deadline);\n            ethConverted = ethConverted.add(amountConverted);\n        }\n        return ethConverted;\n    }\n}\n",
  "sourcePath": "/Users/fayexue/if-x-github/digital-reserve/contracts/DigitalReserve.sol",
  "compiler": {
    "name": "solc",
    "version": "0.6.2+commit.bacdbe57.Emscripten.clang"
  },
  "schemaVersion": "3.3.3",
  "updatedAt": "2021-01-16T01:13:24.348Z",
  "devdoc": {
    "methods": {
      "owner()": {
        "details": "Returns the address of the current owner."
      },
      "renounceOwnership()": {
        "details": "Leaves the contract without owner. It will not be possible to call `onlyOwner` functions anymore. Can only be called by the current owner.     * NOTE: Renouncing ownership will leave the contract without an owner, thereby removing any functionality that is only available to the owner."
      },
      "transferOwnership(address)": {
        "details": "Transfers ownership of the contract to a new account (`newOwner`). Can only be called by the current owner."
      }
    }
  },
  "userdoc": {
    "methods": {}
  }
}