{
  "contractName": "DigitalReserve",
  "abi": [
    {
      "inputs": [
        {
          "internalType": "address",
          "name": "_router",
          "type": "address"
        },
        {
          "internalType": "address",
          "name": "_drcAddress",
          "type": "address"
        },
        {
          "internalType": "address",
          "name": "_pairAddress",
          "type": "address"
        }
      ],
      "stateMutability": "nonpayable",
      "type": "constructor"
    },
    {
      "anonymous": false,
      "inputs": [
        {
          "indexed": false,
          "internalType": "address",
          "name": "user",
          "type": "address"
        },
        {
          "indexed": false,
          "internalType": "uint256",
          "name": "amount",
          "type": "uint256"
        },
        {
          "indexed": false,
          "internalType": "uint256",
          "name": "totalProofOfDeposit",
          "type": "uint256"
        },
        {
          "indexed": false,
          "internalType": "uint256",
          "name": "userProofOfDeposit",
          "type": "uint256"
        },
        {
          "indexed": false,
          "internalType": "uint256",
          "name": "podMinted",
          "type": "uint256"
        }
      ],
      "name": "Deposit",
      "type": "event"
    },
    {
      "anonymous": false,
      "inputs": [
        {
          "indexed": true,
          "internalType": "address",
          "name": "previousOwner",
          "type": "address"
        },
        {
          "indexed": true,
          "internalType": "address",
          "name": "newOwner",
          "type": "address"
        }
      ],
      "name": "OwnershipTransferred",
      "type": "event"
    },
    {
      "anonymous": false,
      "inputs": [
        {
          "indexed": false,
          "internalType": "address[]",
          "name": "strategyTokens",
          "type": "address[]"
        },
        {
          "indexed": false,
          "internalType": "uint8[]",
          "name": "tokenPercentage",
          "type": "uint8[]"
        }
      ],
      "name": "Rebalance",
      "type": "event"
    },
    {
      "anonymous": false,
      "inputs": [
        {
          "indexed": false,
          "internalType": "address[]",
          "name": "oldTokens",
          "type": "address[]"
        },
        {
          "indexed": false,
          "internalType": "uint8[]",
          "name": "oldPercentage",
          "type": "uint8[]"
        },
        {
          "indexed": false,
          "internalType": "address[]",
          "name": "newTokens",
          "type": "address[]"
        },
        {
          "indexed": false,
          "internalType": "uint8[]",
          "name": "newPercentage",
          "type": "uint8[]"
        }
      ],
      "name": "StrategyChange",
      "type": "event"
    },
    {
      "anonymous": false,
      "inputs": [
        {
          "indexed": false,
          "internalType": "address",
          "name": "user",
          "type": "address"
        },
        {
          "indexed": false,
          "internalType": "uint256",
          "name": "amount",
          "type": "uint256"
        },
        {
          "indexed": false,
          "internalType": "uint256",
          "name": "fees",
          "type": "uint256"
        },
        {
          "indexed": false,
          "internalType": "string",
          "name": "tokenName",
          "type": "string"
        },
        {
          "indexed": false,
          "internalType": "uint256",
          "name": "totalProofOfDeposit",
          "type": "uint256"
        },
        {
          "indexed": false,
          "internalType": "uint256",
          "name": "userProofOfDeposit",
          "type": "uint256"
        },
        {
          "indexed": false,
          "internalType": "uint256",
          "name": "podBurned",
          "type": "uint256"
        }
      ],
      "name": "Withdraw",
      "type": "event"
    },
    {
      "inputs": [],
      "name": "owner",
      "outputs": [
        {
          "internalType": "address",
          "name": "",
          "type": "address"
        }
      ],
      "stateMutability": "view",
      "type": "function"
    },
    {
      "inputs": [],
      "name": "proofOfDepositDecimals",
      "outputs": [
        {
          "internalType": "uint8",
          "name": "",
          "type": "uint8"
        }
      ],
      "stateMutability": "view",
      "type": "function"
    },
    {
      "inputs": [],
      "name": "renounceOwnership",
      "outputs": [],
      "stateMutability": "nonpayable",
      "type": "function"
    },
    {
      "inputs": [],
      "name": "strategyTokenCount",
      "outputs": [
        {
          "internalType": "uint8",
          "name": "",
          "type": "uint8"
        }
      ],
      "stateMutability": "view",
      "type": "function"
    },
    {
      "inputs": [
        {
          "internalType": "uint256",
          "name": "",
          "type": "uint256"
        }
      ],
      "name": "strategyTokens",
      "outputs": [
        {
          "internalType": "address",
          "name": "",
          "type": "address"
        }
      ],
      "stateMutability": "view",
      "type": "function"
    },
    {
      "inputs": [],
      "name": "totalProofOfDeposit",
      "outputs": [
        {
          "internalType": "uint256",
          "name": "",
          "type": "uint256"
        }
      ],
      "stateMutability": "view",
      "type": "function"
    },
    {
      "inputs": [
        {
          "internalType": "uint256",
          "name": "",
          "type": "uint256"
        }
      ],
      "name": "totalTokenStored",
      "outputs": [
        {
          "internalType": "uint256",
          "name": "",
          "type": "uint256"
        }
      ],
      "stateMutability": "view",
      "type": "function"
    },
    {
      "inputs": [
        {
          "internalType": "address",
          "name": "newOwner",
          "type": "address"
        }
      ],
      "name": "transferOwnership",
      "outputs": [],
      "stateMutability": "nonpayable",
      "type": "function"
    },
    {
      "inputs": [
        {
          "internalType": "address",
          "name": "",
          "type": "address"
        }
      ],
      "name": "userProofOfDeposit",
      "outputs": [
        {
          "internalType": "uint256",
          "name": "",
          "type": "uint256"
        }
      ],
      "stateMutability": "view",
      "type": "function"
    },
    {
      "inputs": [
        {
          "internalType": "bool",
          "name": "_status",
          "type": "bool"
        }
      ],
      "name": "changeDepositStatus",
      "outputs": [],
      "stateMutability": "nonpayable",
      "type": "function"
    },
    {
      "inputs": [
        {
          "internalType": "bool",
          "name": "_status",
          "type": "bool"
        }
      ],
      "name": "changeWithdrawalStatus",
      "outputs": [],
      "stateMutability": "nonpayable",
      "type": "function"
    },
    {
      "inputs": [
        {
          "internalType": "uint8",
          "name": "_feePercentage",
          "type": "uint8"
        }
      ],
      "name": "changeFee",
      "outputs": [],
      "stateMutability": "nonpayable",
      "type": "function"
    },
    {
      "inputs": [
        {
          "internalType": "address",
          "name": "_user",
          "type": "address"
        },
        {
          "internalType": "address",
          "name": "_tokenAddress",
          "type": "address"
        }
      ],
      "name": "getUserVaultInToken",
      "outputs": [
        {
          "internalType": "uint256",
          "name": "",
          "type": "uint256"
        },
        {
          "internalType": "uint256",
          "name": "",
          "type": "uint256"
        },
        {
          "internalType": "uint256",
          "name": "",
          "type": "uint256"
        }
      ],
      "stateMutability": "view",
      "type": "function"
    },
    {
      "inputs": [
        {
          "internalType": "address",
          "name": "_token",
          "type": "address"
        }
      ],
      "name": "getTotalVaultInToken",
      "outputs": [
        {
          "internalType": "uint256",
          "name": "",
          "type": "uint256"
        }
      ],
      "stateMutability": "view",
      "type": "function"
    },
    {
      "inputs": [],
      "name": "getProofOfDepositPrice",
      "outputs": [
        {
          "internalType": "uint256",
          "name": "",
          "type": "uint256"
        }
      ],
      "stateMutability": "view",
      "type": "function"
    },
    {
      "inputs": [
        {
          "internalType": "uint256",
          "name": "_amount",
          "type": "uint256"
        },
        {
          "internalType": "uint32",
          "name": "deadline",
          "type": "uint32"
        }
      ],
      "name": "depositDrc",
      "outputs": [],
      "stateMutability": "nonpayable",
      "type": "function"
    },
    {
      "inputs": [
        {
          "internalType": "uint256",
          "name": "drcAmount",
          "type": "uint256"
        },
        {
          "internalType": "uint32",
          "name": "deadline",
          "type": "uint32"
        }
      ],
      "name": "withdrawDrc",
      "outputs": [],
      "stateMutability": "nonpayable",
      "type": "function"
    },
    {
      "inputs": [
        {
          "internalType": "uint8",
          "name": "percentage",
          "type": "uint8"
        },
        {
          "internalType": "uint32",
          "name": "deadline",
          "type": "uint32"
        }
      ],
      "name": "withdrawPercentage",
      "outputs": [],
      "stateMutability": "nonpayable",
      "type": "function"
    },
    {
      "inputs": [
        {
          "internalType": "address[]",
          "name": "_strategyTokens",
          "type": "address[]"
        },
        {
          "internalType": "uint8[]",
          "name": "_tokenPercentage",
          "type": "uint8[]"
        },
        {
          "internalType": "uint8",
          "name": "_strategyTokenCount",
          "type": "uint8"
        },
        {
          "internalType": "uint32",
          "name": "deadline",
          "type": "uint32"
        }
      ],
      "name": "changeStrategy",
      "outputs": [],
      "stateMutability": "nonpayable",
      "type": "function"
    },
    {
      "inputs": [
        {
          "internalType": "uint32",
          "name": "deadline",
          "type": "uint32"
        }
      ],
      "name": "rebalance",
      "outputs": [],
      "stateMutability": "nonpayable",
      "type": "function"
    },
    {
      "inputs": [],
      "name": "withdrawExtraTokens",
      "outputs": [],
      "stateMutability": "nonpayable",
      "type": "function"
    }
  ],
  "bytecode": "0x60806040526012600460006101000a81548160ff021916908360ff1602179055506000600860146101000a81548160ff0219169083151502179055506001600860156101000a81548160ff0219169083151502179055506001600860166101000a81548160ff021916908360ff1602179055503480156200007f57600080fd5b50604051620054e2380380620054e283398181016040526060811015620000a557600080fd5b810190808051906020019092919080519060200190929190805190602001909291905050506000620000dc6200028760201b60201c565b9050806000806101000a81548173ffffffffffffffffffffffffffffffffffffffff021916908373ffffffffffffffffffffffffffffffffffffffff1602179055508073ffffffffffffffffffffffffffffffffffffffff16600073ffffffffffffffffffffffffffffffffffffffff167f8be0079c531659141344cd1fd0a4f28419497f9722a3daafe3b4186f6b6457e060405160405180910390a35081600860006101000a81548173ffffffffffffffffffffffffffffffffffffffff021916908373ffffffffffffffffffffffffffffffffffffffff16021790555082600760006101000a81548173ffffffffffffffffffffffffffffffffffffffff021916908373ffffffffffffffffffffffffffffffffffffffff16021790555080600960006101000a81548173ffffffffffffffffffffffffffffffffffffffff021916908373ffffffffffffffffffffffffffffffffffffffff16021790555082600a60006101000a81548173ffffffffffffffffffffffffffffffffffffffff021916908373ffffffffffffffffffffffffffffffffffffffff1602179055505050506200028f565b600033905090565b615243806200029f6000396000f3fe608060405234801561001057600080fd5b50600436106101375760003560e01c806380a35fbb116100b8578063b73b9e0d1161007c578063b73b9e0d1461048a578063df9f8564146104ba578063e48e192e146104db578063f0590223146105c6578063f2fde38b146105e7578063fe9ffac41461062b57610137565b806380a35fbb1461037c5780638bf0f66c146103b05780638da5cb5b14610408578063929eb3271461043c578063a47c12b51461045a57610137565b80634c183918116100ff5780634c183918146102915780634cd46f00146102cf5780636f827c3414610327578063715018a61461036857806371b9cb7b1461037257610137565b806318181a9c1461013c5780632763f28e1461015a57806340d18c381461019c578063438bacaa1461022257806347e6dece14610253575b600080fd5b610144610683565b6040518082815260200191505060405180910390f35b6101866004803603602081101561017057600080fd5b8101908080359060200190929190505050610722565b6040518082815260200191505060405180910390f35b6101fe600480360360408110156101b257600080fd5b81019080803573ffffffffffffffffffffffffffffffffffffffff169060200190929190803573ffffffffffffffffffffffffffffffffffffffff169060200190929190505050610743565b60405180848152602001838152602001828152602001935050505060405180910390f35b6102516004803603602081101561023857600080fd5b81019080803560ff16906020019092919050505061083c565b005b61028f6004803603604081101561026957600080fd5b8101908080359060200190929190803563ffffffff169060200190929190505050610933565b005b6102cd600480360360408110156102a757600080fd5b8101908080359060200190929190803563ffffffff169060200190929190505050610ea1565b005b6102fb600480360360208110156102e557600080fd5b8101908080359060200190929190505050610fa5565b604051808273ffffffffffffffffffffffffffffffffffffffff16815260200191505060405180910390f35b6103666004803603604081101561033d57600080fd5b81019080803560ff169060200190929190803563ffffffff169060200190929190505050610fe1565b005b610370611086565b005b61037a61120c565b005b6103ae6004803603602081101561039257600080fd5b81019080803563ffffffff169060200190929190505050611480565b005b6103f2600480360360208110156103c657600080fd5b81019080803573ffffffffffffffffffffffffffffffffffffffff169060200190929190505050611819565b6040518082815260200191505060405180910390f35b610410611831565b604051808273ffffffffffffffffffffffffffffffffffffffff16815260200191505060405180910390f35b61044461185a565b6040518082815260200191505060405180910390f35b6104886004803603602081101561047057600080fd5b81019080803515159060200190929190505050611860565b005b6104b8600480360360208110156104a057600080fd5b81019080803515159060200190929190505050611945565b005b6104c2611a2a565b604051808260ff16815260200191505060405180910390f35b6105c4600480360360808110156104f157600080fd5b810190808035906020019064010000000081111561050e57600080fd5b82018360208201111561052057600080fd5b8035906020019184602083028401116401000000008311171561054257600080fd5b90919293919293908035906020019064010000000081111561056357600080fd5b82018360208201111561057557600080fd5b8035906020019184602083028401116401000000008311171561059757600080fd5b9091929391929390803560ff169060200190929190803563ffffffff169060200190929190505050611a3d565b005b6105ce612036565b604051808260ff16815260200191505060405180910390f35b610629600480360360208110156105fd57600080fd5b81019080803573ffffffffffffffffffffffffffffffffffffffff169060200190929190505050612049565b005b61066d6004803603602081101561064157600080fd5b81019080803573ffffffffffffffffffffffffffffffffffffffff169060200190929190505050612254565b6040518082815260200191505060405180910390f35b6000806000600554111561071b5761071860055461070a670de0b6b3a76400006106fc60038054806020026020016040519081016040528092919081815260200182805480156106f257602002820191906000526020600020905b8154815260200190600101908083116106de575b50505050506122c4565b6124fd90919063ffffffff16565b61258390919063ffffffff16565b90505b8091505090565b6003818154811061072f57fe5b906000526020600020016000915090505481565b6000806000806107bc670de0b6b3a76400006107ae610760610683565b600660008b73ffffffffffffffffffffffffffffffffffffffff1673ffffffffffffffffffffffffffffffffffffffff168152602001908152602001600020546124fd90919063ffffffff16565b61258390919063ffffffff16565b905060006107f860646107ea600860169054906101000a900460ff1660ff16856124fd90919063ffffffff16565b61258390919063ffffffff16565b9050600061080683886125cd565b90506000610826610820848661296c90919063ffffffff16565b896125cd565b9050818184965096509650505050509250925092565b6108446129b6565b73ffffffffffffffffffffffffffffffffffffffff1660008054906101000a900473ffffffffffffffffffffffffffffffffffffffff1673ffffffffffffffffffffffffffffffffffffffff1614610904576040517f08c379a00000000000000000000000000000000000000000000000000000000081526004018080602001828103825260208152602001807f4f776e61626c653a2063616c6c6572206973206e6f7420746865206f776e657281525060200191505060405180910390fd5b60648160ff16111561091557600080fd5b80600860166101000a81548160ff021916908360ff16021790555050565b600860149054906101000a900460ff1661094c57600080fd5b81600860009054906101000a900473ffffffffffffffffffffffffffffffffffffffff1673ffffffffffffffffffffffffffffffffffffffff166370a08231336040518263ffffffff1660e01b8152600401808273ffffffffffffffffffffffffffffffffffffffff16815260200191505060206040518083038186803b1580156109d657600080fd5b505afa1580156109ea573d6000803e3d6000fd5b505050506040513d6020811015610a0057600080fd5b81019080805190602001909291905050501015610a1c57600080fd5b81600860009054906101000a900473ffffffffffffffffffffffffffffffffffffffff1673ffffffffffffffffffffffffffffffffffffffff1663dd62ed3e33306040518363ffffffff1660e01b8152600401808373ffffffffffffffffffffffffffffffffffffffff1681526020018273ffffffffffffffffffffffffffffffffffffffff1681526020019250505060206040518083038186803b158015610ac457600080fd5b505afa158015610ad8573d6000803e3d6000fd5b505050506040513d6020811015610aee57600080fd5b81019080805190602001909291905050501015610b0a57600080fd5b610b38600860009054906101000a900473ffffffffffffffffffffffffffffffffffffffff163330856129be565b6000610b6783600860009054906101000a900473ffffffffffffffffffffffffffffffffffffffff1684612a7f565b90506060600060149054906101000a900460ff1660ff1667ffffffffffffffff81118015610b9457600080fd5b50604051908082528060200260200182016040528015610bc35781602001602082028036833780820191505090505b509050610bd082846130a7565b90506000806005541415610c17578160039080519060200190610bf4929190614ffb565b50610c10670de0b6b3a7640000866124fd90919063ffffffff16565b9050610d3c565b6000610c21610683565b9050610c7d6003805480602002602001604051908101604052809291908181526020018280548015610c7257602002820191906000526020600020905b815481526020019060010190808311610c5e575b50505050508461321d565b60039080519060200190610c92929190614ffb565b506000610cee6003805480602002602001604051908101604052809291908181526020018280548015610ce457602002820191906000526020600020905b815481526020019060010190808311610cd0575b50505050506122c4565b90506000610d1f83610d11670de0b6b3a7640000856124fd90919063ffffffff16565b61258390919063ffffffff16565b9050610d366005548261296c90919063ffffffff16565b93505050505b610d8e81600660003373ffffffffffffffffffffffffffffffffffffffff1673ffffffffffffffffffffffffffffffffffffffff168152602001908152602001600020546132df90919063ffffffff16565b600660003373ffffffffffffffffffffffffffffffffffffffff1673ffffffffffffffffffffffffffffffffffffffff16815260200190815260200160002081905550610de6816005546132df90919063ffffffff16565b6005819055507f7162984403f6c73c8639375d45a9187dfd04602231bd8e587c415718b5f7e5f93386600554600660003373ffffffffffffffffffffffffffffffffffffffff1673ffffffffffffffffffffffffffffffffffffffff1681526020019081526020016000205485604051808673ffffffffffffffffffffffffffffffffffffffff1681526020018581526020018481526020018381526020018281526020019550505050505060405180910390a15050505050565b600860159054906101000a900460ff16610eba57600080fd5b6000610ee833600860009054906101000a900473ffffffffffffffffffffffffffffffffffffffff16610743565b5091505082811015610ef957600080fd5b6000610f2582610f176402540be400876124fd90919063ffffffff16565b61258390919063ffffffff16565b90506000610f926402540be400610f8484600660003373ffffffffffffffffffffffffffffffffffffffff1673ffffffffffffffffffffffffffffffffffffffff168152602001908152602001600020546124fd90919063ffffffff16565b61258390919063ffffffff16565b9050610f9e8185613367565b5050505050565b60018181548110610fb257fe5b906000526020600020016000915054906101000a900473ffffffffffffffffffffffffffffffffffffffff1681565b600860159054906101000a900460ff16610ffa57600080fd5b60648260ff16101561100b57600080fd5b600061107560646110678560ff16600660003373ffffffffffffffffffffffffffffffffffffffff1673ffffffffffffffffffffffffffffffffffffffff168152602001908152602001600020546124fd90919063ffffffff16565b61258390919063ffffffff16565b90506110818183613367565b505050565b61108e6129b6565b73ffffffffffffffffffffffffffffffffffffffff1660008054906101000a900473ffffffffffffffffffffffffffffffffffffffff1673ffffffffffffffffffffffffffffffffffffffff161461114e576040517f08c379a00000000000000000000000000000000000000000000000000000000081526004018080602001828103825260208152602001807f4f776e61626c653a2063616c6c6572206973206e6f7420746865206f776e657281525060200191505060405180910390fd5b600073ffffffffffffffffffffffffffffffffffffffff1660008054906101000a900473ffffffffffffffffffffffffffffffffffffffff1673ffffffffffffffffffffffffffffffffffffffff167f8be0079c531659141344cd1fd0a4f28419497f9722a3daafe3b4186f6b6457e060405160405180910390a360008060006101000a81548173ffffffffffffffffffffffffffffffffffffffff021916908373ffffffffffffffffffffffffffffffffffffffff160217905550565b6112146129b6565b73ffffffffffffffffffffffffffffffffffffffff1660008054906101000a900473ffffffffffffffffffffffffffffffffffffffff1673ffffffffffffffffffffffffffffffffffffffff16146112d4576040517f08c379a00000000000000000000000000000000000000000000000000000000081526004018080602001828103825260208152602001807f4f776e61626c653a2063616c6c6572206973206e6f7420746865206f776e657281525060200191505060405180910390fd5b60005b600060149054906101000a900460ff1660ff168160ff16101561147d57600060018260ff168154811061130657fe5b9060005260206000200160009054906101000a900473ffffffffffffffffffffffffffffffffffffffff1673ffffffffffffffffffffffffffffffffffffffff166370a08231306040518263ffffffff1660e01b8152600401808273ffffffffffffffffffffffffffffffffffffffff16815260200191505060206040518083038186803b15801561139757600080fd5b505afa1580156113ab573d6000803e3d6000fd5b505050506040513d60208110156113c157600080fd5b8101908080519060200190929190505050905060038260ff16815481106113e457fe5b906000526020600020015481111561146f5761146e60018360ff168154811061140957fe5b9060005260206000200160009054906101000a900473ffffffffffffffffffffffffffffffffffffffff1661143c611831565b61146960038660ff168154811061144f57fe5b90600052602060002001548561296c90919063ffffffff16565b613a37565b5b5080806001019150506112d7565b50565b6114886129b6565b73ffffffffffffffffffffffffffffffffffffffff1660008054906101000a900473ffffffffffffffffffffffffffffffffffffffff1673ffffffffffffffffffffffffffffffffffffffff1614611548576040517f08c379a00000000000000000000000000000000000000000000000000000000081526004018080602001828103825260208152602001807f4f776e61626c653a2063616c6c6572206973206e6f7420746865206f776e657281525060200191505060405180910390fd5b60008060149054906101000a900460ff1660ff161161156657600080fd5b6060600060149054906101000a900460ff1660ff1667ffffffffffffffff8111801561159157600080fd5b506040519080825280602002602001820160405280156115c05781602001602082028036833780820191505090505b50905060005b600060149054906101000a900460ff1660ff168160ff1610156116a0576002600060018360ff16815481106115f757fe5b9060005260206000200160009054906101000a900473ffffffffffffffffffffffffffffffffffffffff1673ffffffffffffffffffffffffffffffffffffffff1673ffffffffffffffffffffffffffffffffffffffff16815260200190815260200160002060009054906101000a900460ff16828260ff168151811061167957fe5b602002602001018181510191509060ff16908160ff168152505080806001019150506115c6565b507fb32bb5a705a3fe2dcd1ccb4c9d06b92fec03383d384acf8bfbc4e376db590d51600182604051808060200180602001838103835285818154815260200191508054801561174457602002820191906000526020600020905b8160009054906101000a900473ffffffffffffffffffffffffffffffffffffffff1673ffffffffffffffffffffffffffffffffffffffff16815260200190600101908083116116fa575b5050838103825284818151815260200191508051906020019060200280838360005b83811015611781578082015181840152602081019050611766565b5050505090500194505050505060405180910390a160006117f260038054806020026020016040519081016040528092919081815260200182805480156117e757602002820191906000526020600020905b8154815260200190600101908083116117d3575b505050505084613ad9565b90506117fe81846130a7565b60039080519060200190611813929190614ffb565b50505050565b60066020528060005260406000206000915090505481565b60008060009054906101000a900473ffffffffffffffffffffffffffffffffffffffff16905090565b60055481565b6118686129b6565b73ffffffffffffffffffffffffffffffffffffffff1660008054906101000a900473ffffffffffffffffffffffffffffffffffffffff1673ffffffffffffffffffffffffffffffffffffffff1614611928576040517f08c379a00000000000000000000000000000000000000000000000000000000081526004018080602001828103825260208152602001807f4f776e61626c653a2063616c6c6572206973206e6f7420746865206f776e657281525060200191505060405180910390fd5b80600860146101000a81548160ff02191690831515021790555050565b61194d6129b6565b73ffffffffffffffffffffffffffffffffffffffff1660008054906101000a900473ffffffffffffffffffffffffffffffffffffffff1673ffffffffffffffffffffffffffffffffffffffff1614611a0d576040517f08c379a00000000000000000000000000000000000000000000000000000000081526004018080602001828103825260208152602001807f4f776e61626c653a2063616c6c6572206973206e6f7420746865206f776e657281525060200191505060405180910390fd5b80600860156101000a81548160ff02191690831515021790555050565b600060149054906101000a900460ff1681565b611a456129b6565b73ffffffffffffffffffffffffffffffffffffffff1660008054906101000a900473ffffffffffffffffffffffffffffffffffffffff1673ffffffffffffffffffffffffffffffffffffffff1614611b05576040517f08c379a00000000000000000000000000000000000000000000000000000000081526004018080602001828103825260208152602001807f4f776e61626c653a2063616c6c6572206973206e6f7420746865206f776e657281525060200191505060405180910390fd5b60018260ff161015611b1657600080fd5b8160ff168686905014611b2857600080fd5b8160ff168484905014611b3a57600080fd5b6000805b8360ff168160ff161015611b765785858260ff16818110611b5b57fe5b9050602002013560ff16820191508080600101915050611b3e565b5060648160ff1614611b8757600080fd5b6060600060149054906101000a900460ff1660ff1667ffffffffffffffff81118015611bb257600080fd5b50604051908082528060200260200182016040528015611be15781602001602082028036833780820191505090505b50905060005b600060149054906101000a900460ff1660ff168160ff161015611d44576002600060018360ff1681548110611c1857fe5b9060005260206000200160009054906101000a900473ffffffffffffffffffffffffffffffffffffffff1673ffffffffffffffffffffffffffffffffffffffff1673ffffffffffffffffffffffffffffffffffffffff16815260200190815260200160002060009054906101000a900460ff16828260ff1681518110611c9a57fe5b602002602001019060ff16908160ff16815250506002600060018360ff1681548110611cc257fe5b9060005260206000200160009054906101000a900473ffffffffffffffffffffffffffffffffffffffff1673ffffffffffffffffffffffffffffffffffffffff1673ffffffffffffffffffffffffffffffffffffffff16815260200190815260200160002060006101000a81549060ff02191690558080600101915050611be7565b507f3e92ff021819876e3929d389ccc560772c36af85773e666546da33084b3bdc896001828a8a8a8a604051808060200180602001806020018060200185810385528b8181548152602001915080548015611df457602002820191906000526020600020905b8160009054906101000a900473ffffffffffffffffffffffffffffffffffffffff1673ffffffffffffffffffffffffffffffffffffffff1681526020019060010190808311611daa575b505085810384528a818151815260200191508051906020019060200280838360005b83811015611e31578082015181840152602081019050611e16565b505050509050018581038352898982818152602001925060200280828437600081840152601f19601f8201169050808301925050508581038252878782818152602001925060200280828437600081840152601f19601f8201169050808301925050509a505050505050505050505060405180910390a16000611f046003805480602002602001604051908101604052809291908181526020018280548015611ef957602002820191906000526020600020905b815481526020019060010190808311611ee5575b505050505085613ad9565b9050888860019190611f17929190615048565b5084600060146101000a81548160ff021916908360ff16021790555060005b600060149054906101000a900460ff1660ff168160ff16101561200a5787878260ff16818110611f6257fe5b9050602002013560ff166002600060018460ff1681548110611f8057fe5b9060005260206000200160009054906101000a900473ffffffffffffffffffffffffffffffffffffffff1673ffffffffffffffffffffffffffffffffffffffff1673ffffffffffffffffffffffffffffffffffffffff16815260200190815260200160002060006101000a81548160ff021916908360ff1602179055508080600101915050611f36565b5061201581856130a7565b6003908051906020019061202a929190614ffb565b50505050505050505050565b600460009054906101000a900460ff1681565b6120516129b6565b73ffffffffffffffffffffffffffffffffffffffff1660008054906101000a900473ffffffffffffffffffffffffffffffffffffffff1673ffffffffffffffffffffffffffffffffffffffff1614612111576040517f08c379a00000000000000000000000000000000000000000000000000000000081526004018080602001828103825260208152602001807f4f776e61626c653a2063616c6c6572206973206e6f7420746865206f776e657281525060200191505060405180910390fd5b600073ffffffffffffffffffffffffffffffffffffffff168173ffffffffffffffffffffffffffffffffffffffff161415612197576040517f08c379a00000000000000000000000000000000000000000000000000000000081526004018080602001828103825260268152602001806151416026913960400191505060405180910390fd5b8073ffffffffffffffffffffffffffffffffffffffff1660008054906101000a900473ffffffffffffffffffffffffffffffffffffffff1673ffffffffffffffffffffffffffffffffffffffff167f8be0079c531659141344cd1fd0a4f28419497f9722a3daafe3b4186f6b6457e060405160405180910390a3806000806101000a81548173ffffffffffffffffffffffffffffffffffffffff021916908373ffffffffffffffffffffffffffffffffffffffff16021790555050565b6000806122b060038054806020026020016040519081016040528092919081815260200182805480156122a657602002820191906000526020600020905b815481526020019060010190808311612292575b50505050506122c4565b90506122bc81846125cd565b915050919050565b6000806060600267ffffffffffffffff811180156122e157600080fd5b506040519080825280602002602001820160405280156123105781602001602082028036833780820191505090505b509050600a60009054906101000a900473ffffffffffffffffffffffffffffffffffffffff1673ffffffffffffffffffffffffffffffffffffffff1663ad5c46486040518163ffffffff1660e01b815260040160206040518083038186803b15801561237b57600080fd5b505afa15801561238f573d6000803e3d6000fd5b505050506040513d60208110156123a557600080fd5b8101908080519060200190929190505050816001815181106123c357fe5b602002602001019073ffffffffffffffffffffffffffffffffffffffff16908173ffffffffffffffffffffffffffffffffffffffff168152505060005b600060149054906101000a900460ff1660ff168160ff1610156124f257600060018260ff168154811061242f57fe5b9060005260206000200160009054906101000a900473ffffffffffffffffffffffffffffffffffffffff169050808360008151811061246a57fe5b602002602001019073ffffffffffffffffffffffffffffffffffffffff16908173ffffffffffffffffffffffffffffffffffffffff16815250506000868360ff16815181106124b557fe5b6020026020010151905060006124cb8284613b8f565b90506124e081876132df90919063ffffffff16565b95505050508080600101915050612400565b508192505050919050565b600080831415612510576000905061257d565b600082840290508284828161252157fe5b0414612578576040517f08c379a000000000000000000000000000000000000000000000000000000000815260040180806020018281038252602181526020018061518d6021913960400191505060405180910390fd5b809150505b92915050565b60006125c583836040518060400160405280601a81526020017f536166654d6174683a206469766973696f6e206279207a65726f000000000000815250613f2e565b905092915050565b60006060600267ffffffffffffffff811180156125e957600080fd5b506040519080825280602002602001820160405280156126185781602001602082028036833780820191505090505b509050600a60009054906101000a900473ffffffffffffffffffffffffffffffffffffffff1673ffffffffffffffffffffffffffffffffffffffff1663ad5c46486040518163ffffffff1660e01b815260040160206040518083038186803b15801561268357600080fd5b505afa158015612697573d6000803e3d6000fd5b505050506040513d60208110156126ad57600080fd5b8101908080519060200190929190505050816000815181106126cb57fe5b602002602001019073ffffffffffffffffffffffffffffffffffffffff16908173ffffffffffffffffffffffffffffffffffffffff1681525050828160018151811061271357fe5b602002602001019073ffffffffffffffffffffffffffffffffffffffff16908173ffffffffffffffffffffffffffffffffffffffff16815250508060018151811061275a57fe5b602002602001015173ffffffffffffffffffffffffffffffffffffffff168160008151811061278557fe5b602002602001015173ffffffffffffffffffffffffffffffffffffffff1614806127af5750600084145b156127bd5783915050612966565b600a60009054906101000a900473ffffffffffffffffffffffffffffffffffffffff1673ffffffffffffffffffffffffffffffffffffffff1663d06ca61f85836040518363ffffffff1660e01b81526004018083815260200180602001828103825283818151815260200191508051906020019060200280838360005b8381101561285557808201518184015260208101905061283a565b50505050905001935050505060006040518083038186803b15801561287957600080fd5b505afa15801561288d573d6000803e3d6000fd5b505050506040513d6000823e3d601f19601f8201168201806040525060208110156128b757600080fd5b81019080805160405193929190846401000000008211156128d757600080fd5b838201915060208201858111156128ed57600080fd5b825186602082028301116401000000008211171561290a57600080fd5b8083526020830192505050908051906020019060200280838360005b83811015612941578082015181840152602081019050612926565b5050505090500160405250505060018151811061295a57fe5b60200260200101519150505b92915050565b60006129ae83836040518060400160405280601e81526020017f536166654d6174683a207375627472616374696f6e206f766572666c6f770000815250613ff4565b905092915050565b600033905090565b612a79846323b872dd60e01b858585604051602401808473ffffffffffffffffffffffffffffffffffffffff1681526020018373ffffffffffffffffffffffffffffffffffffffff1681526020018281526020019350505050604051602081830303815290604052907bffffffffffffffffffffffffffffffffffffffffffffffffffffffff19166020820180517bffffffffffffffffffffffffffffffffffffffffffffffffffffffff83818316178352505050506140b4565b50505050565b6000600a60009054906101000a900473ffffffffffffffffffffffffffffffffffffffff1673ffffffffffffffffffffffffffffffffffffffff1663ad5c46486040518163ffffffff1660e01b815260040160206040518083038186803b158015612ae957600080fd5b505afa158015612afd573d6000803e3d6000fd5b505050506040513d6020811015612b1357600080fd5b810190808051906020019092919050505073ffffffffffffffffffffffffffffffffffffffff168373ffffffffffffffffffffffffffffffffffffffff161480612b5d5750600084145b15612b6a578390506130a0565b6060600267ffffffffffffffff81118015612b8457600080fd5b50604051908082528060200260200182016040528015612bb35781602001602082028036833780820191505090505b5090508381600081518110612bc457fe5b602002602001019073ffffffffffffffffffffffffffffffffffffffff16908173ffffffffffffffffffffffffffffffffffffffff1681525050600a60009054906101000a900473ffffffffffffffffffffffffffffffffffffffff1673ffffffffffffffffffffffffffffffffffffffff1663ad5c46486040518163ffffffff1660e01b815260040160206040518083038186803b158015612c6657600080fd5b505afa158015612c7a573d6000803e3d6000fd5b505050506040513d6020811015612c9057600080fd5b810190808051906020019092919050505081600181518110612cae57fe5b602002602001019073ffffffffffffffffffffffffffffffffffffffff16908173ffffffffffffffffffffffffffffffffffffffff1681525050612d2981600081518110612cf857fe5b6020026020010151600760009054906101000a900473ffffffffffffffffffffffffffffffffffffffff16876141a3565b6000600a60009054906101000a900473ffffffffffffffffffffffffffffffffffffffff1673ffffffffffffffffffffffffffffffffffffffff1663d06ca61f87846040518363ffffffff1660e01b81526004018083815260200180602001828103825283818151815260200191508051906020019060200280838360005b83811015612dc3578082015181840152602081019050612da8565b50505050905001935050505060006040518083038186803b158015612de757600080fd5b505afa158015612dfb573d6000803e3d6000fd5b505050506040513d6000823e3d601f19601f820116820180604052506020811015612e2557600080fd5b8101908080516040519392919084640100000000821115612e4557600080fd5b83820191506020820185811115612e5b57600080fd5b8251866020820283011164010000000082111715612e7857600080fd5b8083526020830192505050908051906020019060200280838360005b83811015612eaf578082015181840152602081019050612e94565b50505050905001604052505050600181518110612ec857fe5b60200260200101519050600a60009054906101000a900473ffffffffffffffffffffffffffffffffffffffff1673ffffffffffffffffffffffffffffffffffffffff166338ed173987838530896040518663ffffffff1660e01b815260040180868152602001858152602001806020018473ffffffffffffffffffffffffffffffffffffffff1681526020018363ffffffff168152602001828103825285818151815260200191508051906020019060200280838360005b83811015612f9b578082015181840152602081019050612f80565b505050509050019650505050505050600060405180830381600087803b158015612fc457600080fd5b505af1158015612fd8573d6000803e3d6000fd5b505050506040513d6000823e3d601f19601f82011682018060405250602081101561300257600080fd5b810190808051604051939291908464010000000082111561302257600080fd5b8382019150602082018581111561303857600080fd5b825186602082028301116401000000008211171561305557600080fd5b8083526020830192505050908051906020019060200280838360005b8381101561308c578082015181840152602081019050613071565b505050509050016040525050505080925050505b9392505050565b606080600060149054906101000a900460ff1660ff1667ffffffffffffffff811180156130d357600080fd5b506040519080825280602002602001820160405280156131025781602001602082028036833780820191505090505b50905060005b600060149054906101000a900460ff1660ff168160ff16101561321257600060018260ff168154811061313757fe5b9060005260206000200160009054906101000a900473ffffffffffffffffffffffffffffffffffffffff16905060006131db60646131cd600260008673ffffffffffffffffffffffffffffffffffffffff1673ffffffffffffffffffffffffffffffffffffffff16815260200190815260200160002060009054906101000a900460ff1660ff168a6124fd90919063ffffffff16565b61258390919063ffffffff16565b90506131e8818388614368565b848460ff16815181106131f757fe5b60200260200101818152505050508080600101915050613108565b508091505092915050565b606080835167ffffffffffffffff8111801561323857600080fd5b506040519080825280602002602001820160405280156132675781602001602082028036833780820191505090505b50905060005b84518110156132d4576132af84828151811061328557fe5b602002602001015186838151811061329957fe5b60200260200101516132df90919063ffffffff16565b8282815181106132bb57fe5b602002602001018181525050808060010191505061326d565b508091505092915050565b60008082840190508381101561335d576040517f08c379a000000000000000000000000000000000000000000000000000000000815260040180806020018281038252601b8152602001807f536166654d6174683a206164646974696f6e206f766572666c6f77000000000081525060200191505060405180910390fd5b8091505092915050565b600860159054906101000a900460ff1661338057600080fd5b6060600060149054906101000a900460ff1660ff1667ffffffffffffffff811180156133ab57600080fd5b506040519080825280602002602001820160405280156133da5781602001602082028036833780820191505090505b5090506133e683614990565b905061343a83600660003373ffffffffffffffffffffffffffffffffffffffff1673ffffffffffffffffffffffffffffffffffffffff1681526020019081526020016000205461296c90919063ffffffff16565b600660003373ffffffffffffffffffffffffffffffffffffffff1673ffffffffffffffffffffffffffffffffffffffff168152602001908152602001600020819055506134928360055461296c90919063ffffffff16565b6005819055506134f260038054806020026020016040519081016040528092919081815260200182805480156134e757602002820191906000526020600020905b8154815260200190600101908083116134d3575b505050505082614ab5565b60039080519060200190613507929190614ffb565b5060006135148284613ad9565b905060006135506064613542600860169054906101000a900460ff1660ff16856124fd90919063ffffffff16565b61258390919063ffffffff16565b9050600061359261356a838561296c90919063ffffffff16565b600860009054906101000a900473ffffffffffffffffffffffffffffffffffffffff166125cd565b905061359d81614b77565b61381a57613660600a60009054906101000a900473ffffffffffffffffffffffffffffffffffffffff1673ffffffffffffffffffffffffffffffffffffffff1663ad5c46486040518163ffffffff1660e01b815260040160206040518083038186803b15801561360c57600080fd5b505afa158015613620573d6000803e3d6000fd5b505050506040513d602081101561363657600080fd5b81019080805190602001909291905050503361365b858761296c90919063ffffffff16565b613a37565b613714600a60009054906101000a900473ffffffffffffffffffffffffffffffffffffffff1673ffffffffffffffffffffffffffffffffffffffff1663ad5c46486040518163ffffffff1660e01b815260040160206040518083038186803b1580156136cb57600080fd5b505afa1580156136df573d6000803e3d6000fd5b505050506040513d60208110156136f557600080fd5b810190808051906020019092919050505061370e611831565b84613a37565b7f71fdb72c1f1e2ed8cad11cf616c93bfb3cb055d5b69a046434e7b1c81989cc5733613749848661296c90919063ffffffff16565b84600554600660003373ffffffffffffffffffffffffffffffffffffffff1673ffffffffffffffffffffffffffffffffffffffff168152602001908152602001600020548b604051808773ffffffffffffffffffffffffffffffffffffffff16815260200186815260200185815260200180602001858152602001848152602001838152602001828103825260038152602001807f455448000000000000000000000000000000000000000000000000000000000081525060200197505050505050505060405180910390a1613a2f565b600061385b613832848661296c90919063ffffffff16565b600860009054906101000a900473ffffffffffffffffffffffffffffffffffffffff1688614368565b905061388a600860009054906101000a900473ffffffffffffffffffffffffffffffffffffffff163383613a37565b61393e600a60009054906101000a900473ffffffffffffffffffffffffffffffffffffffff1673ffffffffffffffffffffffffffffffffffffffff1663ad5c46486040518163ffffffff1660e01b815260040160206040518083038186803b1580156138f557600080fd5b505afa158015613909573d6000803e3d6000fd5b505050506040513d602081101561391f57600080fd5b8101908080519060200190929190505050613938611831565b85613a37565b7f71fdb72c1f1e2ed8cad11cf616c93bfb3cb055d5b69a046434e7b1c81989cc57338285600554600660003373ffffffffffffffffffffffffffffffffffffffff1673ffffffffffffffffffffffffffffffffffffffff168152602001908152602001600020548c604051808773ffffffffffffffffffffffffffffffffffffffff16815260200186815260200185815260200180602001858152602001848152602001838152602001828103825260038152602001807f445243000000000000000000000000000000000000000000000000000000000081525060200197505050505050505060405180910390a1505b505050505050565b613ad48363a9059cbb60e01b8484604051602401808373ffffffffffffffffffffffffffffffffffffffff16815260200182815260200192505050604051602081830303815290604052907bffffffffffffffffffffffffffffffffffffffffffffffffffffffff19166020820180517bffffffffffffffffffffffffffffffffffffffffffffffffffffffff83818316178352505050506140b4565b505050565b60008060005b600060149054906101000a900460ff1660ff168160ff161015613b8457600060018260ff1681548110613b0e57fe5b9060005260206000200160009054906101000a900473ffffffffffffffffffffffffffffffffffffffff1690506000613b5e878460ff1681518110613b4f57fe5b60200260200101518388612a7f565b9050613b7381856132df90919063ffffffff16565b935050508080600101915050613adf565b508091505092915050565b60006060600267ffffffffffffffff81118015613bab57600080fd5b50604051908082528060200260200182016040528015613bda5781602001602082028036833780820191505090505b5090508281600081518110613beb57fe5b602002602001019073ffffffffffffffffffffffffffffffffffffffff16908173ffffffffffffffffffffffffffffffffffffffff1681525050600a60009054906101000a900473ffffffffffffffffffffffffffffffffffffffff1673ffffffffffffffffffffffffffffffffffffffff1663ad5c46486040518163ffffffff1660e01b815260040160206040518083038186803b158015613c8d57600080fd5b505afa158015613ca1573d6000803e3d6000fd5b505050506040513d6020811015613cb757600080fd5b810190808051906020019092919050505081600181518110613cd557fe5b602002602001019073ffffffffffffffffffffffffffffffffffffffff16908173ffffffffffffffffffffffffffffffffffffffff168152505080600181518110613d1c57fe5b602002602001015173ffffffffffffffffffffffffffffffffffffffff1681600081518110613d4757fe5b602002602001015173ffffffffffffffffffffffffffffffffffffffff161480613d715750600084145b15613d7f5783915050613f28565b600a60009054906101000a900473ffffffffffffffffffffffffffffffffffffffff1673ffffffffffffffffffffffffffffffffffffffff1663d06ca61f85836040518363ffffffff1660e01b81526004018083815260200180602001828103825283818151815260200191508051906020019060200280838360005b83811015613e17578082015181840152602081019050613dfc565b50505050905001935050505060006040518083038186803b158015613e3b57600080fd5b505afa158015613e4f573d6000803e3d6000fd5b505050506040513d6000823e3d601f19601f820116820180604052506020811015613e7957600080fd5b8101908080516040519392919084640100000000821115613e9957600080fd5b83820191506020820185811115613eaf57600080fd5b8251866020820283011164010000000082111715613ecc57600080fd5b8083526020830192505050908051906020019060200280838360005b83811015613f03578082015181840152602081019050613ee8565b50505050905001604052505050600181518110613f1c57fe5b60200260200101519150505b92915050565b60008083118290613fda576040517f08c379a00000000000000000000000000000000000000000000000000000000081526004018080602001828103825283818151815260200191508051906020019080838360005b83811015613f9f578082015181840152602081019050613f84565b50505050905090810190601f168015613fcc5780820380516001836020036101000a031916815260200191505b509250505060405180910390fd5b506000838581613fe657fe5b049050809150509392505050565b60008383111582906140a1576040517f08c379a00000000000000000000000000000000000000000000000000000000081526004018080602001828103825283818151815260200191508051906020019080838360005b8381101561406657808201518184015260208101905061404b565b50505050905090810190601f1680156140935780820380516001836020036101000a031916815260200191505b509250505060405180910390fd5b5060008385039050809150509392505050565b6060614116826040518060400160405280602081526020017f5361666545524332303a206c6f772d6c6576656c2063616c6c206661696c65648152508573ffffffffffffffffffffffffffffffffffffffff16614d5b9092919063ffffffff16565b905060008151111561419e5780806020019051602081101561413757600080fd5b810190808051906020019092919050505061419d576040517f08c379a000000000000000000000000000000000000000000000000000000000815260040180806020018281038252602a8152602001806151ae602a913960400191505060405180910390fd5b5b505050565b6000811480614271575060008373ffffffffffffffffffffffffffffffffffffffff1663dd62ed3e30856040518363ffffffff1660e01b8152600401808373ffffffffffffffffffffffffffffffffffffffff1681526020018273ffffffffffffffffffffffffffffffffffffffff1681526020019250505060206040518083038186803b15801561423457600080fd5b505afa158015614248573d6000803e3d6000fd5b505050506040513d602081101561425e57600080fd5b8101908080519060200190929190505050145b6142c6576040517f08c379a00000000000000000000000000000000000000000000000000000000081526004018080602001828103825260368152602001806151d86036913960400191505060405180910390fd5b6143638363095ea7b360e01b8484604051602401808373ffffffffffffffffffffffffffffffffffffffff16815260200182815260200192505050604051602081830303815290604052907bffffffffffffffffffffffffffffffffffffffffffffffffffffffff19166020820180517bffffffffffffffffffffffffffffffffffffffffffffffffffffffff83818316178352505050506140b4565b505050565b6000600a60009054906101000a900473ffffffffffffffffffffffffffffffffffffffff1673ffffffffffffffffffffffffffffffffffffffff1663ad5c46486040518163ffffffff1660e01b815260040160206040518083038186803b1580156143d257600080fd5b505afa1580156143e6573d6000803e3d6000fd5b505050506040513d60208110156143fc57600080fd5b810190808051906020019092919050505073ffffffffffffffffffffffffffffffffffffffff168373ffffffffffffffffffffffffffffffffffffffff1614806144465750600084145b1561445357839050614989565b6060600267ffffffffffffffff8111801561446d57600080fd5b5060405190808252806020026020018201604052801561449c5781602001602082028036833780820191505090505b509050600a60009054906101000a900473ffffffffffffffffffffffffffffffffffffffff1673ffffffffffffffffffffffffffffffffffffffff1663ad5c46486040518163ffffffff1660e01b815260040160206040518083038186803b15801561450757600080fd5b505afa15801561451b573d6000803e3d6000fd5b505050506040513d602081101561453157600080fd5b81019080805190602001909291905050508160008151811061454f57fe5b602002602001019073ffffffffffffffffffffffffffffffffffffffff16908173ffffffffffffffffffffffffffffffffffffffff1681525050838160018151811061459757fe5b602002602001019073ffffffffffffffffffffffffffffffffffffffff16908173ffffffffffffffffffffffffffffffffffffffff1681525050614612816000815181106145e157fe5b6020026020010151600760009054906101000a900473ffffffffffffffffffffffffffffffffffffffff16876141a3565b6000600a60009054906101000a900473ffffffffffffffffffffffffffffffffffffffff1673ffffffffffffffffffffffffffffffffffffffff1663d06ca61f87846040518363ffffffff1660e01b81526004018083815260200180602001828103825283818151815260200191508051906020019060200280838360005b838110156146ac578082015181840152602081019050614691565b50505050905001935050505060006040518083038186803b1580156146d057600080fd5b505afa1580156146e4573d6000803e3d6000fd5b505050506040513d6000823e3d601f19601f82011682018060405250602081101561470e57600080fd5b810190808051604051939291908464010000000082111561472e57600080fd5b8382019150602082018581111561474457600080fd5b825186602082028301116401000000008211171561476157600080fd5b8083526020830192505050908051906020019060200280838360005b8381101561479857808201518184015260208101905061477d565b505050509050016040525050506001815181106147b157fe5b60200260200101519050600a60009054906101000a900473ffffffffffffffffffffffffffffffffffffffff1673ffffffffffffffffffffffffffffffffffffffff166338ed173987838530896040518663ffffffff1660e01b815260040180868152602001858152602001806020018473ffffffffffffffffffffffffffffffffffffffff1681526020018363ffffffff168152602001828103825285818151815260200191508051906020019060200280838360005b83811015614884578082015181840152602081019050614869565b505050509050019650505050505050600060405180830381600087803b1580156148ad57600080fd5b505af11580156148c1573d6000803e3d6000fd5b505050506040513d6000823e3d601f19601f8201168201806040525060208110156148eb57600080fd5b810190808051604051939291908464010000000082111561490b57600080fd5b8382019150602082018581111561492157600080fd5b825186602082028301116401000000008211171561493e57600080fd5b8083526020830192505050908051906020019060200280838360005b8381101561497557808201518184015260208101905061495a565b505050509050016040525050505080925050505b9392505050565b606080600060149054906101000a900460ff1660ff1667ffffffffffffffff811180156149bc57600080fd5b506040519080825280602002602001820160405280156149eb5781602001602082028036833780820191505090505b5090506000614a1c600554614a0e6402540be400876124fd90919063ffffffff16565b61258390919063ffffffff16565b905060005b600060149054906101000a900460ff1660ff168160ff161015614aaa57614a826402540be400614a748460038560ff1681548110614a5b57fe5b90600052602060002001546124fd90919063ffffffff16565b61258390919063ffffffff16565b838260ff1681518110614a9157fe5b6020026020010181815250508080600101915050614a21565b508192505050919050565b606080835167ffffffffffffffff81118015614ad057600080fd5b50604051908082528060200260200182016040528015614aff5781602001602082028036833780820191505090505b50905060005b8451811015614b6c57614b47848281518110614b1d57fe5b6020026020010151868381518110614b3157fe5b602002602001015161296c90919063ffffffff16565b828281518110614b5357fe5b6020026020010181815250508080600101915050614b05565b508091505092915050565b6000600860009054906101000a900473ffffffffffffffffffffffffffffffffffffffff1673ffffffffffffffffffffffffffffffffffffffff16600960009054906101000a900473ffffffffffffffffffffffffffffffffffffffff1673ffffffffffffffffffffffffffffffffffffffff16630dfe16816040518163ffffffff1660e01b815260040160206040518083038186803b158015614c1a57600080fd5b505afa158015614c2e573d6000803e3d6000fd5b505050506040513d6020811015614c4457600080fd5b810190808051906020019092919050505073ffffffffffffffffffffffffffffffffffffffff161415614d51576000600960009054906101000a900473ffffffffffffffffffffffffffffffffffffffff1673ffffffffffffffffffffffffffffffffffffffff16630902f1ac6040518163ffffffff1660e01b815260040160606040518083038186803b158015614cdb57600080fd5b505afa158015614cef573d6000803e3d6000fd5b505050506040513d6060811015614d0557600080fd5b810190808051906020019092919080519060200190929190805190602001909291905050505050905082816dffffffffffffffffffffffffffff1610614d4f576001915050614d56565b505b600090505b919050565b6060614d6a8484600085614d73565b90509392505050565b606082471015614dce576040517f08c379a00000000000000000000000000000000000000000000000000000000081526004018080602001828103825260268152602001806151676026913960400191505060405180910390fd5b614dd785614f1c565b614e49576040517f08c379a000000000000000000000000000000000000000000000000000000000815260040180806020018281038252601d8152602001807f416464726573733a2063616c6c20746f206e6f6e2d636f6e747261637400000081525060200191505060405180910390fd5b600060608673ffffffffffffffffffffffffffffffffffffffff1685876040518082805190602001908083835b60208310614e995780518252602082019150602081019050602083039250614e76565b6001836020036101000a03801982511681845116808217855250505050505090500191505060006040518083038185875af1925050503d8060008114614efb576040519150601f19603f3d011682016040523d82523d6000602084013e614f00565b606091505b5091509150614f10828286614f2f565b92505050949350505050565b600080823b905060008111915050919050565b60608315614f3f57829050614ff4565b600083511115614f525782518084602001fd5b816040517f08c379a00000000000000000000000000000000000000000000000000000000081526004018080602001828103825283818151815260200191508051906020019080838360005b83811015614fb9578082015181840152602081019050614f9e565b50505050905090810190601f168015614fe65780820380516001836020036101000a031916815260200191505b509250505060405180910390fd5b9392505050565b828054828255906000526020600020908101928215615037579160200282015b8281111561503657825182559160200191906001019061501b565b5b50905061504491906150e8565b5090565b8280548282559060005260206000209081019282156150d7579160200282015b828111156150d657823573ffffffffffffffffffffffffffffffffffffffff168260006101000a81548173ffffffffffffffffffffffffffffffffffffffff021916908373ffffffffffffffffffffffffffffffffffffffff16021790555091602001919060010190615068565b5b5090506150e49190615105565b5090565b5b808211156151015760008160009055506001016150e9565b5090565b5b8082111561513c57600081816101000a81549073ffffffffffffffffffffffffffffffffffffffff021916905550600101615106565b509056fe4f776e61626c653a206e6577206f776e657220697320746865207a65726f2061646472657373416464726573733a20696e73756666696369656e742062616c616e636520666f722063616c6c536166654d6174683a206d756c7469706c69636174696f6e206f766572666c6f775361666545524332303a204552433230206f7065726174696f6e20646964206e6f7420737563636565645361666545524332303a20617070726f76652066726f6d206e6f6e2d7a65726f20746f206e6f6e2d7a65726f20616c6c6f77616e6365a2646970667358221220d7d8aafc8da26573b8a7abb40b0555b893e8cde189bbec1110916bfc34dab53664736f6c634300060c0033",
  "immutableReferences": {},
  "source": "// SPDX-License-Identifier: GPL-3.0-or-later\n\npragma solidity ^0.6.0;\n\nimport \"@openzeppelin/contracts/math/SafeMath.sol\";\nimport \"@openzeppelin/contracts/utils/ReentrancyGuard.sol\";\nimport \"@openzeppelin/contracts/token/ERC20/SafeERC20.sol\";\nimport \"@openzeppelin/contracts/token/ERC20/IERC20.sol\";\nimport \"@openzeppelin/contracts/access/Ownable.sol\";\n\nimport \"./Interfaces/Uniswap/IUniswapV2Router02.sol\";\nimport \"./Interfaces/Uniswap/IUniswapV2Pair.sol\";\nimport \"./Interfaces/Uniswap/IWETH.sol\";\n\ncontract DigitalReserve is Ownable {\n    using SafeMath for uint256;\n\n    constructor(\n        address _router,\n        address _drcAddress,\n        address _pairAddress\n    ) public {\n        drcAddress = _drcAddress;\n        router = _router;\n        drcEthPair = IUniswapV2Pair(_pairAddress);\n        uniswapRouter = IUniswapV2Router02(_router);\n    }\n\n    uint8 public strategyTokenCount; // Number of strategy tokens\n    address[] public strategyTokens; // Token addresses of vault strategy tokens\n    mapping(address => uint8) private tokenPercentage; // Vault strategy tokens percentage allocation\n\n    uint256[] public totalTokenStored; // Vault tokens balance\n\n    uint8 public proofOfDepositDecimals = 18;\n    uint256 public totalProofOfDeposit;\n    mapping(address => uint256) public userProofOfDeposit;\n\n    address private router;\n    address private drcAddress;\n\n    bool private depositEnabled = false;\n    bool private withdrawalEnabled = true;\n    uint8 private feePercentage = 1;\n\n    IUniswapV2Pair private drcEthPair;\n    IUniswapV2Router02 private uniswapRouter;\n\n    event StrategyChange(address[] oldTokens, uint8[] oldPercentage, address[] newTokens, uint8[] newPercentage);\n    event Rebalance(address[] strategyTokens, uint8[] tokenPercentage);\n    event Deposit(\n        address user,\n        uint256 amount,\n        uint256 totalProofOfDeposit,\n        uint256 userProofOfDeposit,\n        uint256 podMinted\n    );\n    event Withdraw(\n        address user,\n        uint256 amount,\n        uint256 fees,\n        string tokenName,\n        uint256 totalProofOfDeposit,\n        uint256 userProofOfDeposit,\n        uint256 podBurned\n    );\n\n    function changeDepositStatus(bool _status) external onlyOwner {\n        depositEnabled = _status;\n    }\n\n    function changeWithdrawalStatus(bool _status) external onlyOwner {\n        withdrawalEnabled = _status;\n    }\n\n    function changeFee(uint8 _feePercentage) external onlyOwner {\n        require(_feePercentage <= 100);\n        feePercentage = _feePercentage;\n    }\n\n    function getUserVaultInToken(address _user, address _tokenAddress) public view returns (uint256, uint256, uint256) {\n        uint256 userVaultWorthInEth = userProofOfDeposit[_user].mul(getProofOfDepositPrice()).div(1e18);\n\n        uint256 fees = userVaultWorthInEth.mul(feePercentage).div(100);\n        uint256 tokenAmount = _getEthToTokenAmountOut(userVaultWorthInEth, _tokenAddress);\n        uint256 tokenAmountExcludeFees = _getEthToTokenAmountOut(userVaultWorthInEth.sub(fees), _tokenAddress);\n\n        return (tokenAmount, tokenAmountExcludeFees, fees);\n    }\n\n    function getTotalVaultInToken(address _token) public view returns (uint256) {\n        uint256 totalTokenAmountInEth = _getStrategyTokensInEth(totalTokenStored);\n        return _getEthToTokenAmountOut(totalTokenAmountInEth, _token);\n    }\n\n    function getProofOfDepositPrice() public view returns (uint256) {\n        uint256 proofOfDepositPrice;\n        if (totalProofOfDeposit > 0) {\n            proofOfDepositPrice = _getStrategyTokensInEth(totalTokenStored).mul(1e18).div(totalProofOfDeposit);\n        }\n\n        return proofOfDepositPrice;\n    }\n\n    function depositDrc(uint256 _amount, uint32 deadline) external {\n        require(depositEnabled);\n\n        // Step 1: transfer users DRC to this contract\n        require(IERC20(drcAddress).balanceOf(msg.sender) >= _amount);\n        require(IERC20(drcAddress).allowance(msg.sender, address(this)) >= _amount);\n        SafeERC20.safeTransferFrom(IERC20(drcAddress), msg.sender, address(this), _amount);\n\n        // Step 2: Swap DRC to ETH, then swap ETH to strategy tokens\n        uint256 ethSwapped = _convertTokenToEth(_amount, drcAddress, deadline);\n        uint256[] memory strategyAmount = new uint256[](strategyTokenCount);\n        strategyAmount = _convertEthToStrategyTokens(ethSwapped, deadline);\n\n        // Step 3: Calculate how many new POD is minted, and update Vault states\n        uint256 podToMint = 0;\n\n        if (totalProofOfDeposit == 0) {\n            totalTokenStored = strategyAmount;\n            // Set initial POD amount to first DRC deposit amount with 18 decimals\n            podToMint = _amount.mul(1e18);\n        } else {\n            // Get current unit price before adding tokens to vault\n            uint256 currentPodUnitPrice = getProofOfDepositPrice();\n\n            // Add tokens to vault\n            totalTokenStored = addTwoArrays(totalTokenStored, strategyAmount);\n\n            // Get new total worth in ETH\n            uint256 vaultTotalInEth = _getStrategyTokensInEth(totalTokenStored);\n            // Get new total amount of POD there should be\n            uint256 newPodTotal = vaultTotalInEth.mul(1e18).div(currentPodUnitPrice);\n            // Get new total amount of POD there should be\n            podToMint = newPodTotal.sub(totalProofOfDeposit);\n        }\n\n        // Update vault states\n        userProofOfDeposit[msg.sender] = userProofOfDeposit[msg.sender].add(podToMint);\n        totalProofOfDeposit = totalProofOfDeposit.add(podToMint);\n\n        emit Deposit(msg.sender, _amount, totalProofOfDeposit, userProofOfDeposit[msg.sender], podToMint);\n    }\n\n    function withdrawDrc(uint256 drcAmount, uint32 deadline) external {\n        require(withdrawalEnabled);\n\n        (, uint256 userVaultInDrc, ) = getUserVaultInToken(msg.sender, drcAddress);\n        require(userVaultInDrc >= drcAmount);\n\n        uint256 amountFraction = drcAmount.mul(1e10).div(userVaultInDrc);\n        uint256 podToBurn = userProofOfDeposit[msg.sender].mul(amountFraction).div(1e10);\n        _withdrawProofOfDeposit(podToBurn, deadline);\n    }\n\n    function withdrawPercentage(uint8 percentage, uint32 deadline) external {\n        require(withdrawalEnabled);\n        require(percentage >= 100);\n\n        uint256 podToBurn = userProofOfDeposit[msg.sender].mul(percentage).div(100);\n        _withdrawProofOfDeposit(podToBurn, deadline);\n    }\n\n    function changeStrategy(\n        address[] calldata _strategyTokens,\n        uint8[] calldata _tokenPercentage,\n        uint8 _strategyTokenCount,\n        uint32 deadline\n    ) external onlyOwner {\n        require(_strategyTokenCount >= 1);\n        require(_strategyTokens.length == _strategyTokenCount);\n        require(_tokenPercentage.length == _strategyTokenCount);\n\n        uint8 totalPercentage = 0;\n        for (uint8 i = 0; i < _strategyTokenCount; i++) {\n            totalPercentage += _tokenPercentage[i];\n        }\n        require(totalPercentage == 100);\n\n        uint8[] memory oldPercentage = new uint8[](strategyTokenCount);\n        for (uint8 i = 0; i < strategyTokenCount; i++) {\n            oldPercentage[i] = tokenPercentage[strategyTokens[i]];\n            delete tokenPercentage[strategyTokens[i]];\n        }\n\n        emit StrategyChange(strategyTokens, oldPercentage, _strategyTokens, _tokenPercentage);\n\n        // Before mutate strategyTokens, convert current tokens to ETH\n        uint256 totalEthTokens = _convertStrategyTokensToEth(totalTokenStored, deadline);\n\n        // Update strategyTokens\n        strategyTokens = _strategyTokens;\n        strategyTokenCount = _strategyTokenCount;\n\n        for (uint8 i = 0; i < strategyTokenCount; i++) {\n            tokenPercentage[strategyTokens[i]] = _tokenPercentage[i];\n        }\n\n        // Convert ETH to new strategy tokens\n        totalTokenStored = _convertEthToStrategyTokens(totalEthTokens, deadline);\n    }\n\n    function rebalance(uint32 deadline) external onlyOwner {\n        require(strategyTokenCount > 0);\n\n        uint8[] memory percentageArray = new uint8[](strategyTokenCount);\n        for (uint8 i = 0; i < strategyTokenCount; i++) {\n            percentageArray[i] += tokenPercentage[strategyTokens[i]];\n        }\n\n        emit Rebalance(strategyTokens, percentageArray);\n\n        uint256 totalEthTokens = _convertStrategyTokensToEth(totalTokenStored, deadline);\n        totalTokenStored = _convertEthToStrategyTokens(totalEthTokens, deadline);\n    }\n\n    function withdrawExtraTokens() external onlyOwner {\n        for (uint8 i = 0; i < strategyTokenCount; i++) {\n            uint256 tokenBalance = IERC20(strategyTokens[i]).balanceOf(address(this));\n            if (tokenBalance > totalTokenStored[i]) {\n                SafeERC20.safeTransfer(IERC20(strategyTokens[i]), owner(), tokenBalance.sub(totalTokenStored[i]));\n            }\n        }\n    }\n\n    function _withdrawProofOfDeposit(uint256 podToBurn, uint32 deadline) internal {\n        require(withdrawalEnabled);\n\n        // get strategy tokens to withdraw by pod to withdraw\n        uint256[] memory strategyTokensToWithdraw = new uint256[](strategyTokenCount);\n        strategyTokensToWithdraw = _getPodAmountInTokens(podToBurn);\n\n        // Reduce user holding by withdrawed amount in pod and strategy tokens\n        userProofOfDeposit[msg.sender] = userProofOfDeposit[msg.sender].sub(podToBurn);\n        totalProofOfDeposit = totalProofOfDeposit.sub(podToBurn);\n\n        // Remove tokens from vault\n        totalTokenStored = subTwoArrays(totalTokenStored, strategyTokensToWithdraw);\n\n        uint256 ethSwapped = _convertStrategyTokensToEth(strategyTokensToWithdraw, deadline);\n        uint256 fees = ethSwapped.mul(feePercentage).div(100);\n        uint256 drcAmount = _getEthToTokenAmountOut(ethSwapped.sub(fees), drcAddress);\n\n        if (!_isEnoughDrcReserve(drcAmount)) {\n            SafeERC20.safeTransfer(IERC20(uniswapRouter.WETH()), msg.sender, ethSwapped.sub(fees));\n            SafeERC20.safeTransfer(IERC20(uniswapRouter.WETH()), owner(), fees);\n            emit Withdraw(\n                msg.sender,\n                ethSwapped.sub(fees),\n                fees,\n                \"ETH\",\n                totalProofOfDeposit,\n                userProofOfDeposit[msg.sender],\n                podToBurn\n            );\n        } else {\n            uint256 _drcAmount = _convertEthToToken(ethSwapped.sub(fees), drcAddress, deadline);\n            SafeERC20.safeTransfer(IERC20(drcAddress), msg.sender, _drcAmount);\n            SafeERC20.safeTransfer(IERC20(uniswapRouter.WETH()), owner(), fees);\n            emit Withdraw(\n                msg.sender,\n                _drcAmount,\n                fees,\n                \"DRC\",\n                totalProofOfDeposit,\n                userProofOfDeposit[msg.sender],\n                podToBurn\n            );\n        }\n    }\n\n    function addTwoArrays(uint256[] memory array1, uint256[] memory array2) internal pure returns (uint256[] memory) {\n        uint256[] memory array3 = new uint256[](array1.length);\n        for (uint256 i = 0; i < array1.length; i++) {\n            array3[i] = array1[i].add(array2[i]);\n        }\n        return array3;\n    }\n\n    function subTwoArrays(uint256[] memory array1, uint256[] memory array2) internal pure returns (uint256[] memory) {\n        uint256[] memory array3 = new uint256[](array1.length);\n        for (uint256 i = 0; i < array1.length; i++) {\n            array3[i] = array1[i].sub(array2[i]);\n        }\n        return array3;\n    }\n\n    function _isEnoughDrcReserve(uint256 _amount) internal view returns (bool) {\n        if (drcEthPair.token0() == drcAddress) {\n            (uint112 reserves, , ) = drcEthPair.getReserves();\n            if (reserves >= _amount) {\n                return true;\n            }\n        }\n        return false;\n    }\n\n    function _getEthToTokenAmountOut(uint256 _amount, address _tokenAddress) internal view returns (uint256) {\n        address[] memory path = new address[](2);\n        path[0] = uniswapRouter.WETH();\n        path[1] = _tokenAddress;\n\n        if (path[0] == path[1] || _amount == 0) {\n            return _amount;\n        }\n        return uniswapRouter.getAmountsOut(_amount, path)[1];\n    }\n\n    function _getTokenToEthAmountOut(uint256 _amount, address _tokenAddress) internal view returns (uint256) {\n        address[] memory path = new address[](2);\n        path[0] = _tokenAddress;\n        path[1] = uniswapRouter.WETH();\n\n        if (path[0] == path[1] || _amount == 0) {\n            return _amount;\n        }\n        return uniswapRouter.getAmountsOut(_amount, path)[1];\n    }\n\n    function _getStrategyTokensInEth(uint256[] memory _strategyTokensBalance) internal view returns (uint256) {\n        uint256 amountOut;\n        address[] memory path = new address[](2);\n        path[1] = uniswapRouter.WETH();\n\n        for (uint8 i = 0; i < strategyTokenCount; i++) {\n            address tokenAddress = strategyTokens[i];\n            path[0] = tokenAddress;\n            uint256 tokenAmount = _strategyTokensBalance[i];\n            uint256 tokenAmountInEth = _getTokenToEthAmountOut(tokenAmount, tokenAddress);\n\n            amountOut = amountOut.add(tokenAmountInEth);\n        }\n        return amountOut;\n    }\n\n    function _getPodAmountInTokens(uint256 _amount) internal view returns (uint256[] memory) {\n        uint256[] memory strategyTokenAmount = new uint256[](strategyTokenCount);\n\n        uint256 podFraction = _amount.mul(1e10).div(totalProofOfDeposit);\n        for (uint8 i = 0; i < strategyTokenCount; i++) {\n            strategyTokenAmount[i] = totalTokenStored[i].mul(podFraction).div(1e10);\n        }\n        return strategyTokenAmount;\n    }\n\n    function _convertTokenToEth(\n        uint256 _amount,\n        address _tokenAddress,\n        uint32 deadline\n    ) internal returns (uint256) {\n        if (_tokenAddress == uniswapRouter.WETH() || _amount == 0) {\n            return _amount;\n        }\n        address[] memory path = new address[](2);\n        path[0] = _tokenAddress;\n        path[1] = uniswapRouter.WETH();\n        SafeERC20.safeApprove(IERC20(path[0]), router, _amount);\n        uint256 amountOut = uniswapRouter.getAmountsOut(_amount, path)[1];\n        uniswapRouter.swapExactTokensForTokens(_amount, amountOut, path, address(this), deadline);\n        return amountOut;\n    }\n\n    function _convertEthToToken(\n        uint256 _amount,\n        address _tokenAddress,\n        uint32 deadline\n    ) internal returns (uint256) {\n        if (_tokenAddress == uniswapRouter.WETH() || _amount == 0) {\n            return _amount;\n        }\n        address[] memory path = new address[](2);\n        path[0] = uniswapRouter.WETH();\n        path[1] = _tokenAddress;\n        SafeERC20.safeApprove(IERC20(path[0]), router, _amount);\n        uint256 amountOut = uniswapRouter.getAmountsOut(_amount, path)[1];\n        uniswapRouter.swapExactTokensForTokens(_amount, amountOut, path, address(this), deadline);\n        return amountOut;\n    }\n\n    function _convertEthToStrategyTokens(uint256 amount, uint32 deadline) internal returns (uint256[] memory) {\n        uint256[] memory amountConverted = new uint256[](strategyTokenCount);\n        for (uint8 i = 0; i < strategyTokenCount; i++) {\n            address currentToken = strategyTokens[i];\n            uint256 amountToConvert = amount.mul(tokenPercentage[currentToken]).div(100);\n            amountConverted[i] = _convertEthToToken(amountToConvert, currentToken, deadline);\n        }\n        return amountConverted;\n    }\n\n    function _convertStrategyTokensToEth(uint256[] memory amountToConvert, uint32 deadline) internal returns (uint256) {\n        uint256 ethConverted;\n        for (uint8 i = 0; i < strategyTokenCount; i++) {\n            address currentToken = strategyTokens[i];\n            uint256 amountConverted = _convertTokenToEth(amountToConvert[i], currentToken, deadline);\n            ethConverted = ethConverted.add(amountConverted);\n        }\n        return ethConverted;\n    }\n}\n",
  "sourcePath": "/Users/fayexue/if-x-github/digital-reserve/contracts/DigitalReserve.sol",
  "compiler": {
    "name": "solc",
    "version": "0.6.12+commit.27d51765.Emscripten.clang"
  },
  "schemaVersion": "3.3.3",
  "updatedAt": "2021-01-14T08:49:26.517Z",
  "devdoc": {
    "kind": "dev",
    "methods": {
      "owner()": {
        "details": "Returns the address of the current owner."
      },
      "renounceOwnership()": {
        "details": "Leaves the contract without owner. It will not be possible to call `onlyOwner` functions anymore. Can only be called by the current owner. NOTE: Renouncing ownership will leave the contract without an owner, thereby removing any functionality that is only available to the owner."
      },
      "transferOwnership(address)": {
        "details": "Transfers ownership of the contract to a new account (`newOwner`). Can only be called by the current owner."
      }
    },
    "version": 1
  },
  "userdoc": {
    "kind": "user",
    "methods": {},
    "version": 1
  }
}