{
  "contractName": "DigitalReserve",
  "abi": [
    {
      "inputs": [
        {
          "internalType": "address",
          "name": "_router",
          "type": "address"
        },
        {
          "internalType": "address",
          "name": "_drcAddress",
          "type": "address"
        }
      ],
      "stateMutability": "nonpayable",
      "type": "constructor"
    },
    {
      "anonymous": false,
      "inputs": [
        {
          "indexed": false,
          "internalType": "address",
          "name": "user",
          "type": "address"
        },
        {
          "indexed": false,
          "internalType": "uint256",
          "name": "amount",
          "type": "uint256"
        },
        {
          "indexed": false,
          "internalType": "uint256",
          "name": "totalProofOfDeposit",
          "type": "uint256"
        },
        {
          "indexed": false,
          "internalType": "uint256",
          "name": "userProofOfDeposit",
          "type": "uint256"
        },
        {
          "indexed": false,
          "internalType": "uint256",
          "name": "podMinted",
          "type": "uint256"
        }
      ],
      "name": "Deposit",
      "type": "event"
    },
    {
      "anonymous": false,
      "inputs": [
        {
          "indexed": true,
          "internalType": "address",
          "name": "previousOwner",
          "type": "address"
        },
        {
          "indexed": true,
          "internalType": "address",
          "name": "newOwner",
          "type": "address"
        }
      ],
      "name": "OwnershipTransferred",
      "type": "event"
    },
    {
      "anonymous": false,
      "inputs": [
        {
          "indexed": false,
          "internalType": "address[]",
          "name": "strategyTokens",
          "type": "address[]"
        },
        {
          "indexed": false,
          "internalType": "uint8[]",
          "name": "tokenPercentage",
          "type": "uint8[]"
        }
      ],
      "name": "Rebalance",
      "type": "event"
    },
    {
      "anonymous": false,
      "inputs": [
        {
          "indexed": false,
          "internalType": "address[]",
          "name": "oldTokens",
          "type": "address[]"
        },
        {
          "indexed": false,
          "internalType": "uint8[]",
          "name": "oldPercentage",
          "type": "uint8[]"
        },
        {
          "indexed": false,
          "internalType": "address[]",
          "name": "newTokens",
          "type": "address[]"
        },
        {
          "indexed": false,
          "internalType": "uint8[]",
          "name": "newPercentage",
          "type": "uint8[]"
        }
      ],
      "name": "StrategyChange",
      "type": "event"
    },
    {
      "anonymous": false,
      "inputs": [
        {
          "indexed": false,
          "internalType": "address",
          "name": "user",
          "type": "address"
        },
        {
          "indexed": false,
          "internalType": "uint256",
          "name": "amount",
          "type": "uint256"
        },
        {
          "indexed": false,
          "internalType": "uint256",
          "name": "fees",
          "type": "uint256"
        },
        {
          "indexed": false,
          "internalType": "string",
          "name": "tokenName",
          "type": "string"
        },
        {
          "indexed": false,
          "internalType": "uint256",
          "name": "totalProofOfDeposit",
          "type": "uint256"
        },
        {
          "indexed": false,
          "internalType": "uint256",
          "name": "userProofOfDeposit",
          "type": "uint256"
        },
        {
          "indexed": false,
          "internalType": "uint256",
          "name": "podBurned",
          "type": "uint256"
        }
      ],
      "name": "Withdraw",
      "type": "event"
    },
    {
      "inputs": [],
      "name": "owner",
      "outputs": [
        {
          "internalType": "address",
          "name": "",
          "type": "address"
        }
      ],
      "stateMutability": "view",
      "type": "function"
    },
    {
      "inputs": [],
      "name": "proofOfDepositDecimals",
      "outputs": [
        {
          "internalType": "uint8",
          "name": "",
          "type": "uint8"
        }
      ],
      "stateMutability": "view",
      "type": "function"
    },
    {
      "inputs": [],
      "name": "renounceOwnership",
      "outputs": [],
      "stateMutability": "nonpayable",
      "type": "function"
    },
    {
      "inputs": [],
      "name": "strategyTokenCount",
      "outputs": [
        {
          "internalType": "uint8",
          "name": "",
          "type": "uint8"
        }
      ],
      "stateMutability": "view",
      "type": "function"
    },
    {
      "inputs": [
        {
          "internalType": "uint256",
          "name": "",
          "type": "uint256"
        }
      ],
      "name": "strategyTokens",
      "outputs": [
        {
          "internalType": "address",
          "name": "",
          "type": "address"
        }
      ],
      "stateMutability": "view",
      "type": "function"
    },
    {
      "inputs": [],
      "name": "totalProofOfDeposit",
      "outputs": [
        {
          "internalType": "uint256",
          "name": "",
          "type": "uint256"
        }
      ],
      "stateMutability": "view",
      "type": "function"
    },
    {
      "inputs": [
        {
          "internalType": "address",
          "name": "newOwner",
          "type": "address"
        }
      ],
      "name": "transferOwnership",
      "outputs": [],
      "stateMutability": "nonpayable",
      "type": "function"
    },
    {
      "inputs": [
        {
          "internalType": "address",
          "name": "",
          "type": "address"
        }
      ],
      "name": "userProofOfDeposit",
      "outputs": [
        {
          "internalType": "uint256",
          "name": "",
          "type": "uint256"
        }
      ],
      "stateMutability": "view",
      "type": "function"
    },
    {
      "inputs": [
        {
          "internalType": "bool",
          "name": "_status",
          "type": "bool"
        }
      ],
      "name": "changeDepositStatus",
      "outputs": [],
      "stateMutability": "nonpayable",
      "type": "function"
    },
    {
      "inputs": [
        {
          "internalType": "bool",
          "name": "_status",
          "type": "bool"
        }
      ],
      "name": "changeWithdrawalStatus",
      "outputs": [],
      "stateMutability": "nonpayable",
      "type": "function"
    },
    {
      "inputs": [
        {
          "internalType": "uint8",
          "name": "_feePercentage",
          "type": "uint8"
        }
      ],
      "name": "changeFee",
      "outputs": [],
      "stateMutability": "nonpayable",
      "type": "function"
    },
    {
      "inputs": [],
      "name": "totalTokenStored",
      "outputs": [
        {
          "internalType": "uint256[]",
          "name": "",
          "type": "uint256[]"
        }
      ],
      "stateMutability": "view",
      "type": "function"
    },
    {
      "inputs": [
        {
          "internalType": "address",
          "name": "_user",
          "type": "address"
        }
      ],
      "name": "getUserVaultInDrc",
      "outputs": [
        {
          "internalType": "uint256",
          "name": "",
          "type": "uint256"
        },
        {
          "internalType": "uint256",
          "name": "",
          "type": "uint256"
        },
        {
          "internalType": "uint256",
          "name": "",
          "type": "uint256"
        }
      ],
      "stateMutability": "view",
      "type": "function"
    },
    {
      "inputs": [],
      "name": "getProofOfDepositPrice",
      "outputs": [
        {
          "internalType": "uint256",
          "name": "",
          "type": "uint256"
        }
      ],
      "stateMutability": "view",
      "type": "function"
    },
    {
      "inputs": [
        {
          "internalType": "uint256",
          "name": "_amount",
          "type": "uint256"
        },
        {
          "internalType": "uint32",
          "name": "deadline",
          "type": "uint32"
        }
      ],
      "name": "depositDrc",
      "outputs": [],
      "stateMutability": "nonpayable",
      "type": "function"
    },
    {
      "inputs": [
        {
          "internalType": "uint256",
          "name": "drcAmount",
          "type": "uint256"
        },
        {
          "internalType": "uint32",
          "name": "deadline",
          "type": "uint32"
        }
      ],
      "name": "withdrawDrc",
      "outputs": [],
      "stateMutability": "nonpayable",
      "type": "function"
    },
    {
      "inputs": [
        {
          "internalType": "uint8",
          "name": "percentage",
          "type": "uint8"
        },
        {
          "internalType": "uint32",
          "name": "deadline",
          "type": "uint32"
        }
      ],
      "name": "withdrawPercentage",
      "outputs": [],
      "stateMutability": "nonpayable",
      "type": "function"
    },
    {
      "inputs": [
        {
          "internalType": "address[]",
          "name": "_strategyTokens",
          "type": "address[]"
        },
        {
          "internalType": "uint8[]",
          "name": "_tokenPercentage",
          "type": "uint8[]"
        },
        {
          "internalType": "uint8",
          "name": "_strategyTokenCount",
          "type": "uint8"
        },
        {
          "internalType": "uint32",
          "name": "deadline",
          "type": "uint32"
        }
      ],
      "name": "changeStrategy",
      "outputs": [],
      "stateMutability": "nonpayable",
      "type": "function"
    },
    {
      "inputs": [
        {
          "internalType": "uint32",
          "name": "deadline",
          "type": "uint32"
        }
      ],
      "name": "rebalance",
      "outputs": [],
      "stateMutability": "nonpayable",
      "type": "function"
    }
  ],
  "bytecode": "0x60806040526012600360006101000a81548160ff021916908360ff1602179055506000600760146101000a81548160ff0219169083151502179055506001600760156101000a81548160ff0219169083151502179055506001600760166101000a81548160ff021916908360ff1602179055503480156200007f57600080fd5b506040516200512c3803806200512c83398181016040526040811015620000a557600080fd5b8101908080519060200190929190805190602001909291905050506000620000d26200023b60201b60201c565b9050806000806101000a81548173ffffffffffffffffffffffffffffffffffffffff021916908373ffffffffffffffffffffffffffffffffffffffff1602179055508073ffffffffffffffffffffffffffffffffffffffff16600073ffffffffffffffffffffffffffffffffffffffff167f8be0079c531659141344cd1fd0a4f28419497f9722a3daafe3b4186f6b6457e060405160405180910390a35080600760006101000a81548173ffffffffffffffffffffffffffffffffffffffff021916908373ffffffffffffffffffffffffffffffffffffffff16021790555081600660006101000a81548173ffffffffffffffffffffffffffffffffffffffff021916908373ffffffffffffffffffffffffffffffffffffffff16021790555081600860006101000a81548173ffffffffffffffffffffffffffffffffffffffff021916908373ffffffffffffffffffffffffffffffffffffffff160217905550505062000243565b600033905090565b614ed980620002536000396000f3fe608060405234801561001057600080fd5b50600436106101215760003560e01c80638da5cb5b116100ad578063bd80662111610071578063bd80662114610464578063df9f8564146104c3578063e48e192e146104e7578063f0590223146105d2578063f2fde38b146105f657610121565b80638da5cb5b14610336578063929eb32714610380578063a47c12b51461039e578063b73b9e0d146103ce578063bb2a9ad7146103fe57610121565b80634cd46f00116100f45780634cd46f00146101f15780636f827c341461025f578063715018a6146102a057806380a35fbb146102aa5780638bf0f66c146102de57610121565b806318181a9c14610126578063438bacaa1461014457806347e6dece146101755780634c183918146101b3575b600080fd5b61012e61063a565b6040518082815260200191505060405180910390f35b6101736004803603602081101561015a57600080fd5b81019080803560ff169060200190929190505050610690565b005b6101b16004803603604081101561018b57600080fd5b8101908080359060200190929190803563ffffffff169060200190929190505050610788565b005b6101ef600480360360408110156101c957600080fd5b8101908080359060200190929190803563ffffffff169060200190929190505050610d75565b005b61021d6004803603602081101561020757600080fd5b8101908080359060200190929190505050610e56565b604051808273ffffffffffffffffffffffffffffffffffffffff1673ffffffffffffffffffffffffffffffffffffffff16815260200191505060405180910390f35b61029e6004803603604081101561027557600080fd5b81019080803560ff169060200190929190803563ffffffff169060200190929190505050610e92565b005b6102a8610f37565b005b6102dc600480360360208110156102c057600080fd5b81019080803563ffffffff1690602001909291905050506110bf565b005b610320600480360360208110156102f457600080fd5b81019080803573ffffffffffffffffffffffffffffffffffffffff16906020019092919050505061153a565b6040518082815260200191505060405180910390f35b61033e611552565b604051808273ffffffffffffffffffffffffffffffffffffffff1673ffffffffffffffffffffffffffffffffffffffff16815260200191505060405180910390f35b61038861157b565b6040518082815260200191505060405180910390f35b6103cc600480360360208110156103b457600080fd5b81019080803515159060200190929190505050611581565b005b6103fc600480360360208110156103e457600080fd5b81019080803515159060200190929190505050611667565b005b6104406004803603602081101561041457600080fd5b81019080803573ffffffffffffffffffffffffffffffffffffffff16906020019092919050505061174d565b60405180848152602001838152602001828152602001935050505060405180910390f35b61046c61188a565b6040518080602001828103825283818151815260200191508051906020019060200280838360005b838110156104af578082015181840152602081019050610494565b505050509050019250505060405180910390f35b6104cb611a16565b604051808260ff1660ff16815260200191505060405180910390f35b6105d0600480360360808110156104fd57600080fd5b810190808035906020019064010000000081111561051a57600080fd5b82018360208201111561052c57600080fd5b8035906020019184602083028401116401000000008311171561054e57600080fd5b90919293919293908035906020019064010000000081111561056f57600080fd5b82018360208201111561058157600080fd5b803590602001918460208302840111640100000000831117156105a357600080fd5b9091929391929390803560ff169060200190929190803563ffffffff169060200190929190505050611a29565b005b6105da61210e565b604051808260ff1660ff16815260200191505060405180910390f35b6106386004803603602081101561060c57600080fd5b81019080803573ffffffffffffffffffffffffffffffffffffffff169060200190929190505050612121565b005b6000806000600454111561068957610686600454610678670de0b6b3a764000061066a61066561188a565b61232e565b61255390919063ffffffff16565b6125d990919063ffffffff16565b90505b8091505090565b610698612623565b73ffffffffffffffffffffffffffffffffffffffff166000809054906101000a900473ffffffffffffffffffffffffffffffffffffffff1673ffffffffffffffffffffffffffffffffffffffff1614610759576040517f08c379a00000000000000000000000000000000000000000000000000000000081526004018080602001828103825260208152602001807f4f776e61626c653a2063616c6c6572206973206e6f7420746865206f776e657281525060200191505060405180910390fd5b60648160ff16111561076a57600080fd5b80600760166101000a81548160ff021916908360ff16021790555050565b600760149054906101000a900460ff166107a157600080fd5b81600760009054906101000a900473ffffffffffffffffffffffffffffffffffffffff1673ffffffffffffffffffffffffffffffffffffffff166370a08231336040518263ffffffff1660e01b8152600401808273ffffffffffffffffffffffffffffffffffffffff1673ffffffffffffffffffffffffffffffffffffffff16815260200191505060206040518083038186803b15801561084157600080fd5b505afa158015610855573d6000803e3d6000fd5b505050506040513d602081101561086b57600080fd5b8101908080519060200190929190505050101561088757600080fd5b81600760009054906101000a900473ffffffffffffffffffffffffffffffffffffffff1673ffffffffffffffffffffffffffffffffffffffff1663dd62ed3e33306040518363ffffffff1660e01b8152600401808373ffffffffffffffffffffffffffffffffffffffff1673ffffffffffffffffffffffffffffffffffffffff1681526020018273ffffffffffffffffffffffffffffffffffffffff1673ffffffffffffffffffffffffffffffffffffffff1681526020019250505060206040518083038186803b15801561095b57600080fd5b505afa15801561096f573d6000803e3d6000fd5b505050506040513d602081101561098557600080fd5b810190808051906020019092919050505010156109a157600080fd5b6109cf600760009054906101000a900473ffffffffffffffffffffffffffffffffffffffff1633308561262b565b60006109d961063a565b9050610a0883600760009054906101000a900473ffffffffffffffffffffffffffffffffffffffff1684612718565b610b6b600860009054906101000a900473ffffffffffffffffffffffffffffffffffffffff1673ffffffffffffffffffffffffffffffffffffffff1663ad5c46486040518163ffffffff1660e01b815260040160206040518083038186803b158015610a7357600080fd5b505afa158015610a87573d6000803e3d6000fd5b505050506040513d6020811015610a9d57600080fd5b810190808051906020019092919050505073ffffffffffffffffffffffffffffffffffffffff166370a08231306040518263ffffffff1660e01b8152600401808273ffffffffffffffffffffffffffffffffffffffff1673ffffffffffffffffffffffffffffffffffffffff16815260200191505060206040518083038186803b158015610b2a57600080fd5b505afa158015610b3e573d6000803e3d6000fd5b505050506040513d6020811015610b5457600080fd5b810190808051906020019092919050505083612d33565b600080905060006004541415610b9c57610b9566038d7ea4c680008561255390919063ffffffff16565b9050610bfb565b6000610bae610ba961188a565b61232e565b90506000610bdf84610bd1670de0b6b3a76400008561255390919063ffffffff16565b6125d990919063ffffffff16565b9050610bf660045482612e6190919063ffffffff16565b925050505b610c4d81600560003373ffffffffffffffffffffffffffffffffffffffff1673ffffffffffffffffffffffffffffffffffffffff16815260200190815260200160002054612eab90919063ffffffff16565b600560003373ffffffffffffffffffffffffffffffffffffffff1673ffffffffffffffffffffffffffffffffffffffff16815260200190815260200160002081905550610ca581600454612eab90919063ffffffff16565b6004819055507f7162984403f6c73c8639375d45a9187dfd04602231bd8e587c415718b5f7e5f93385600454600560003373ffffffffffffffffffffffffffffffffffffffff1673ffffffffffffffffffffffffffffffffffffffff1681526020019081526020016000205485604051808673ffffffffffffffffffffffffffffffffffffffff1673ffffffffffffffffffffffffffffffffffffffff1681526020018581526020018481526020018381526020018281526020019550505050505060405180910390a150505050565b600760159054906101000a900460ff16610d8e57600080fd5b6000610d993361174d565b5091505082811015610daa57600080fd5b6000610dd682610dc86402540be4008761255390919063ffffffff16565b6125d990919063ffffffff16565b90506000610e436402540be400610e3584600560003373ffffffffffffffffffffffffffffffffffffffff1673ffffffffffffffffffffffffffffffffffffffff1681526020019081526020016000205461255390919063ffffffff16565b6125d990919063ffffffff16565b9050610e4f8185612f33565b5050505050565b60018181548110610e6357fe5b906000526020600020016000915054906101000a900473ffffffffffffffffffffffffffffffffffffffff1681565b600760159054906101000a900460ff16610eab57600080fd5b60648260ff161015610ebc57600080fd5b6000610f266064610f188560ff16600560003373ffffffffffffffffffffffffffffffffffffffff1673ffffffffffffffffffffffffffffffffffffffff1681526020019081526020016000205461255390919063ffffffff16565b6125d990919063ffffffff16565b9050610f328183612f33565b505050565b610f3f612623565b73ffffffffffffffffffffffffffffffffffffffff166000809054906101000a900473ffffffffffffffffffffffffffffffffffffffff1673ffffffffffffffffffffffffffffffffffffffff1614611000576040517f08c379a00000000000000000000000000000000000000000000000000000000081526004018080602001828103825260208152602001807f4f776e61626c653a2063616c6c6572206973206e6f7420746865206f776e657281525060200191505060405180910390fd5b600073ffffffffffffffffffffffffffffffffffffffff166000809054906101000a900473ffffffffffffffffffffffffffffffffffffffff1673ffffffffffffffffffffffffffffffffffffffff167f8be0079c531659141344cd1fd0a4f28419497f9722a3daafe3b4186f6b6457e060405160405180910390a360008060006101000a81548173ffffffffffffffffffffffffffffffffffffffff021916908373ffffffffffffffffffffffffffffffffffffffff160217905550565b6110c7612623565b73ffffffffffffffffffffffffffffffffffffffff166000809054906101000a900473ffffffffffffffffffffffffffffffffffffffff1673ffffffffffffffffffffffffffffffffffffffff1614611188576040517f08c379a00000000000000000000000000000000000000000000000000000000081526004018080602001828103825260208152602001807f4f776e61626c653a2063616c6c6572206973206e6f7420746865206f776e657281525060200191505060405180910390fd5b60008060149054906101000a900460ff1660ff16116111a657600080fd5b6060600060149054906101000a900460ff1660ff166040519080825280602002602001820160405280156111e95781602001602082028038833980820191505090505b50905060008090505b600060149054906101000a900460ff1660ff168160ff1610156112cc576002600060018360ff168154811061122357fe5b9060005260206000200160009054906101000a900473ffffffffffffffffffffffffffffffffffffffff1673ffffffffffffffffffffffffffffffffffffffff1673ffffffffffffffffffffffffffffffffffffffff16815260200190815260200160002060009054906101000a900460ff16828260ff16815181106112a557fe5b602002602001018181510191509060ff16908160ff168152505080806001019150506111f2565b507fb32bb5a705a3fe2dcd1ccb4c9d06b92fec03383d384acf8bfbc4e376db590d51600182604051808060200180602001838103835285818154815260200191508054801561137057602002820191906000526020600020905b8160009054906101000a900473ffffffffffffffffffffffffffffffffffffffff1673ffffffffffffffffffffffffffffffffffffffff1681526020019060010190808311611326575b5050838103825284818151815260200191508051906020019060200280838360005b838110156113ad578082015181840152602081019050611392565b5050505090500194505050505060405180910390a16113d36113cd61188a565b8361357c565b611536600860009054906101000a900473ffffffffffffffffffffffffffffffffffffffff1673ffffffffffffffffffffffffffffffffffffffff1663ad5c46486040518163ffffffff1660e01b815260040160206040518083038186803b15801561143e57600080fd5b505afa158015611452573d6000803e3d6000fd5b505050506040513d602081101561146857600080fd5b810190808051906020019092919050505073ffffffffffffffffffffffffffffffffffffffff166370a08231306040518263ffffffff1660e01b8152600401808273ffffffffffffffffffffffffffffffffffffffff1673ffffffffffffffffffffffffffffffffffffffff16815260200191505060206040518083038186803b1580156114f557600080fd5b505afa158015611509573d6000803e3d6000fd5b505050506040513d602081101561151f57600080fd5b810190808051906020019092919050505083612d33565b5050565b60056020528060005260406000206000915090505481565b60008060009054906101000a900473ffffffffffffffffffffffffffffffffffffffff16905090565b60045481565b611589612623565b73ffffffffffffffffffffffffffffffffffffffff166000809054906101000a900473ffffffffffffffffffffffffffffffffffffffff1673ffffffffffffffffffffffffffffffffffffffff161461164a576040517f08c379a00000000000000000000000000000000000000000000000000000000081526004018080602001828103825260208152602001807f4f776e61626c653a2063616c6c6572206973206e6f7420746865206f776e657281525060200191505060405180910390fd5b80600760146101000a81548160ff02191690831515021790555050565b61166f612623565b73ffffffffffffffffffffffffffffffffffffffff166000809054906101000a900473ffffffffffffffffffffffffffffffffffffffff1673ffffffffffffffffffffffffffffffffffffffff1614611730576040517f08c379a00000000000000000000000000000000000000000000000000000000081526004018080602001828103825260208152602001807f4f776e61626c653a2063616c6c6572206973206e6f7420746865206f776e657281525060200191505060405180910390fd5b80600760156101000a81548160ff02191690831515021790555050565b6000806000806117c6670de0b6b3a76400006117b861176a61063a565b600560008a73ffffffffffffffffffffffffffffffffffffffff1673ffffffffffffffffffffffffffffffffffffffff1681526020019081526020016000205461255390919063ffffffff16565b6125d990919063ffffffff16565b9050600061180260646117f4600760169054906101000a900460ff1660ff168561255390919063ffffffff16565b6125d990919063ffffffff16565b9050600061183283600760009054906101000a900473ffffffffffffffffffffffffffffffffffffffff1661360c565b9050600061187461184c8486612e6190919063ffffffff16565b600760009054906101000a900473ffffffffffffffffffffffffffffffffffffffff1661360c565b9050818184965096509650505050509193909250565b606080600060149054906101000a900460ff1660ff166040519080825280602002602001820160405280156118ce5781602001602082028038833980820191505090505b50905060008090505b600060149054906101000a900460ff1660ff168160ff161015611a0e5760018160ff168154811061190457fe5b9060005260206000200160009054906101000a900473ffffffffffffffffffffffffffffffffffffffff1673ffffffffffffffffffffffffffffffffffffffff166370a08231306040518263ffffffff1660e01b8152600401808273ffffffffffffffffffffffffffffffffffffffff1673ffffffffffffffffffffffffffffffffffffffff16815260200191505060206040518083038186803b1580156119ab57600080fd5b505afa1580156119bf573d6000803e3d6000fd5b505050506040513d60208110156119d557600080fd5b8101908080519060200190929190505050828260ff16815181106119f557fe5b60200260200101818152505080806001019150506118d7565b508091505090565b600060149054906101000a900460ff1681565b611a31612623565b73ffffffffffffffffffffffffffffffffffffffff166000809054906101000a900473ffffffffffffffffffffffffffffffffffffffff1673ffffffffffffffffffffffffffffffffffffffff1614611af2576040517f08c379a00000000000000000000000000000000000000000000000000000000081526004018080602001828103825260208152602001807f4f776e61626c653a2063616c6c6572206973206e6f7420746865206f776e657281525060200191505060405180910390fd5b60018260ff161015611b0357600080fd5b8160ff168686905014611b1557600080fd5b8160ff168484905014611b2757600080fd5b600080905060008090505b8360ff168160ff161015611b6a5785858260ff16818110611b4f57fe5b9050602002013560ff16820191508080600101915050611b32565b5060648160ff1614611b7b57600080fd5b6060600060149054906101000a900460ff1660ff16604051908082528060200260200182016040528015611bbe5781602001602082028038833980820191505090505b50905060008090505b600060149054906101000a900460ff1660ff168160ff161015611d24576002600060018360ff1681548110611bf857fe5b9060005260206000200160009054906101000a900473ffffffffffffffffffffffffffffffffffffffff1673ffffffffffffffffffffffffffffffffffffffff1673ffffffffffffffffffffffffffffffffffffffff16815260200190815260200160002060009054906101000a900460ff16828260ff1681518110611c7a57fe5b602002602001019060ff16908160ff16815250506002600060018360ff1681548110611ca257fe5b9060005260206000200160009054906101000a900473ffffffffffffffffffffffffffffffffffffffff1673ffffffffffffffffffffffffffffffffffffffff1673ffffffffffffffffffffffffffffffffffffffff16815260200190815260200160002060006101000a81549060ff02191690558080600101915050611bc7565b507f3e92ff021819876e3929d389ccc560772c36af85773e666546da33084b3bdc896001828a8a8a8a604051808060200180602001806020018060200185810385528b8181548152602001915080548015611dd457602002820191906000526020600020905b8160009054906101000a900473ffffffffffffffffffffffffffffffffffffffff1673ffffffffffffffffffffffffffffffffffffffff1681526020019060010190808311611d8a575b505085810384528a818151815260200191508051906020019060200280838360005b83811015611e11578082015181840152602081019050611df6565b505050509050018581038352898982818152602001925060200280828437600081840152601f19601f8201169050808301925050508581038252878782818152602001925060200280828437600081840152601f19601f8201169050808301925050509a505050505050505050505060405180910390a1611e99611e9361188a565b8461357c565b878760019190611eaa929190614cf3565b5083600060146101000a81548160ff021916908360ff16021790555060008090505b600060149054906101000a900460ff1660ff168160ff161015611fa05786868260ff16818110611ef857fe5b9050602002013560ff166002600060018460ff1681548110611f1657fe5b9060005260206000200160009054906101000a900473ffffffffffffffffffffffffffffffffffffffff1673ffffffffffffffffffffffffffffffffffffffff1673ffffffffffffffffffffffffffffffffffffffff16815260200190815260200160002060006101000a81548160ff021916908360ff1602179055508080600101915050611ecc565b50612104600860009054906101000a900473ffffffffffffffffffffffffffffffffffffffff1673ffffffffffffffffffffffffffffffffffffffff1663ad5c46486040518163ffffffff1660e01b815260040160206040518083038186803b15801561200c57600080fd5b505afa158015612020573d6000803e3d6000fd5b505050506040513d602081101561203657600080fd5b810190808051906020019092919050505073ffffffffffffffffffffffffffffffffffffffff166370a08231306040518263ffffffff1660e01b8152600401808273ffffffffffffffffffffffffffffffffffffffff1673ffffffffffffffffffffffffffffffffffffffff16815260200191505060206040518083038186803b1580156120c357600080fd5b505afa1580156120d7573d6000803e3d6000fd5b505050506040513d60208110156120ed57600080fd5b810190808051906020019092919050505084612d33565b5050505050505050565b600360009054906101000a900460ff1681565b612129612623565b73ffffffffffffffffffffffffffffffffffffffff166000809054906101000a900473ffffffffffffffffffffffffffffffffffffffff1673ffffffffffffffffffffffffffffffffffffffff16146121ea576040517f08c379a00000000000000000000000000000000000000000000000000000000081526004018080602001828103825260208152602001807f4f776e61626c653a2063616c6c6572206973206e6f7420746865206f776e657281525060200191505060405180910390fd5b600073ffffffffffffffffffffffffffffffffffffffff168173ffffffffffffffffffffffffffffffffffffffff161415612270576040517f08c379a0000000000000000000000000000000000000000000000000000000008152600401808060200182810382526026815260200180614dd76026913960400191505060405180910390fd5b8073ffffffffffffffffffffffffffffffffffffffff166000809054906101000a900473ffffffffffffffffffffffffffffffffffffffff1673ffffffffffffffffffffffffffffffffffffffff167f8be0079c531659141344cd1fd0a4f28419497f9722a3daafe3b4186f6b6457e060405160405180910390a3806000806101000a81548173ffffffffffffffffffffffffffffffffffffffff021916908373ffffffffffffffffffffffffffffffffffffffff16021790555050565b600080606060026040519080825280602002602001820160405280156123635781602001602082028038833980820191505090505b509050600860009054906101000a900473ffffffffffffffffffffffffffffffffffffffff1673ffffffffffffffffffffffffffffffffffffffff1663ad5c46486040518163ffffffff1660e01b815260040160206040518083038186803b1580156123ce57600080fd5b505afa1580156123e2573d6000803e3d6000fd5b505050506040513d60208110156123f857600080fd5b81019080805190602001909291905050508160018151811061241657fe5b602002602001019073ffffffffffffffffffffffffffffffffffffffff16908173ffffffffffffffffffffffffffffffffffffffff168152505060008090505b600060149054906101000a900460ff1660ff168160ff16101561254857600060018260ff168154811061248557fe5b9060005260206000200160009054906101000a900473ffffffffffffffffffffffffffffffffffffffff16905080836000815181106124c057fe5b602002602001019073ffffffffffffffffffffffffffffffffffffffff16908173ffffffffffffffffffffffffffffffffffffffff16815250506000868360ff168151811061250b57fe5b6020026020010151905060006125218284613994565b90506125368187612eab90919063ffffffff16565b95505050508080600101915050612456565b508192505050919050565b60008083141561256657600090506125d3565b600082840290508284828161257757fe5b04146125ce576040517f08c379a0000000000000000000000000000000000000000000000000000000008152600401808060200182810382526021815260200180614e236021913960400191505060405180910390fd5b809150505b92915050565b600061261b83836040518060400160405280601a81526020017f536166654d6174683a206469766973696f6e206279207a65726f000000000000815250613d1c565b905092915050565b600033905090565b612712846323b872dd60e01b858585604051602401808473ffffffffffffffffffffffffffffffffffffffff1673ffffffffffffffffffffffffffffffffffffffff1681526020018373ffffffffffffffffffffffffffffffffffffffff1673ffffffffffffffffffffffffffffffffffffffff1681526020018281526020019350505050604051602081830303815290604052907bffffffffffffffffffffffffffffffffffffffffffffffffffffffff19166020820180517bffffffffffffffffffffffffffffffffffffffffffffffffffffffff8381831617835250505050613de2565b50505050565b600860009054906101000a900473ffffffffffffffffffffffffffffffffffffffff1673ffffffffffffffffffffffffffffffffffffffff1663ad5c46486040518163ffffffff1660e01b815260040160206040518083038186803b15801561278057600080fd5b505afa158015612794573d6000803e3d6000fd5b505050506040513d60208110156127aa57600080fd5b810190808051906020019092919050505073ffffffffffffffffffffffffffffffffffffffff168273ffffffffffffffffffffffffffffffffffffffff16141580156127f7575060008314155b15612d2e576060600260405190808252806020026020018201604052801561282e5781602001602082028038833980820191505090505b509050828160008151811061283f57fe5b602002602001019073ffffffffffffffffffffffffffffffffffffffff16908173ffffffffffffffffffffffffffffffffffffffff1681525050600860009054906101000a900473ffffffffffffffffffffffffffffffffffffffff1673ffffffffffffffffffffffffffffffffffffffff1663ad5c46486040518163ffffffff1660e01b815260040160206040518083038186803b1580156128e157600080fd5b505afa1580156128f5573d6000803e3d6000fd5b505050506040513d602081101561290b57600080fd5b81019080805190602001909291905050508160018151811061292957fe5b602002602001019073ffffffffffffffffffffffffffffffffffffffff16908173ffffffffffffffffffffffffffffffffffffffff16815250506129a48160008151811061297357fe5b6020026020010151600660009054906101000a900473ffffffffffffffffffffffffffffffffffffffff1686613ed1565b6000600860009054906101000a900473ffffffffffffffffffffffffffffffffffffffff1673ffffffffffffffffffffffffffffffffffffffff1663d06ca61f86846040518363ffffffff1660e01b81526004018083815260200180602001828103825283818151815260200191508051906020019060200280838360005b83811015612a3e578082015181840152602081019050612a23565b50505050905001935050505060006040518083038186803b158015612a6257600080fd5b505afa158015612a76573d6000803e3d6000fd5b505050506040513d6000823e3d601f19601f820116820180604052506020811015612aa057600080fd5b8101908080516040519392919084640100000000821115612ac057600080fd5b83820191506020820185811115612ad657600080fd5b8251866020820283011164010000000082111715612af357600080fd5b8083526020830192505050908051906020019060200280838360005b83811015612b2a578082015181840152602081019050612b0f565b50505050905001604052505050600181518110612b4357fe5b60200260200101519050600860009054906101000a900473ffffffffffffffffffffffffffffffffffffffff1673ffffffffffffffffffffffffffffffffffffffff166338ed173986838530886040518663ffffffff1660e01b815260040180868152602001858152602001806020018473ffffffffffffffffffffffffffffffffffffffff1673ffffffffffffffffffffffffffffffffffffffff1681526020018363ffffffff168152602001828103825285818151815260200191508051906020019060200280838360005b83811015612c2c578082015181840152602081019050612c11565b505050509050019650505050505050600060405180830381600087803b158015612c5557600080fd5b505af1158015612c69573d6000803e3d6000fd5b505050506040513d6000823e3d601f19601f820116820180604052506020811015612c9357600080fd5b8101908080516040519392919084640100000000821115612cb357600080fd5b83820191506020820185811115612cc957600080fd5b8251866020820283011164010000000082111715612ce657600080fd5b8083526020830192505050908051906020019060200280838360005b83811015612d1d578082015181840152602081019050612d02565b505050509050016040525050505050505b505050565b60008090505b600060149054906101000a900460ff1660ff168160ff161015612e5c576000612e076064612df96002600060018760ff1681548110612d7457fe5b9060005260206000200160009054906101000a900473ffffffffffffffffffffffffffffffffffffffff1673ffffffffffffffffffffffffffffffffffffffff1673ffffffffffffffffffffffffffffffffffffffff16815260200190815260200160002060009054906101000a900460ff1660ff168761255390919063ffffffff16565b6125d990919063ffffffff16565b9050612e4e8160018460ff1681548110612e1d57fe5b9060005260206000200160009054906101000a900473ffffffffffffffffffffffffffffffffffffffff16856140d8565b508080600101915050612d39565b505050565b6000612ea383836040518060400160405280601e81526020017f536166654d6174683a207375627472616374696f6e206f766572666c6f7700008152506146f3565b905092915050565b600080828401905083811015612f29576040517f08c379a000000000000000000000000000000000000000000000000000000000815260040180806020018281038252601b8152602001807f536166654d6174683a206164646974696f6e206f766572666c6f77000000000081525060200191505060405180910390fd5b8091505092915050565b600760159054906101000a900460ff16612f4c57600080fd5b6060600060149054906101000a900460ff1660ff16604051908082528060200260200182016040528015612f8f5781602001602082028038833980820191505090505b509050612f9b836147b3565b9050612fef83600560003373ffffffffffffffffffffffffffffffffffffffff1673ffffffffffffffffffffffffffffffffffffffff16815260200190815260200160002054612e6190919063ffffffff16565b600560003373ffffffffffffffffffffffffffffffffffffffff1673ffffffffffffffffffffffffffffffffffffffff1681526020019081526020016000208190555061304783600454612e6190919063ffffffff16565b600481905550613057818361357c565b6000600860009054906101000a900473ffffffffffffffffffffffffffffffffffffffff1673ffffffffffffffffffffffffffffffffffffffff1663ad5c46486040518163ffffffff1660e01b815260040160206040518083038186803b1580156130c157600080fd5b505afa1580156130d5573d6000803e3d6000fd5b505050506040513d60208110156130eb57600080fd5b810190808051906020019092919050505073ffffffffffffffffffffffffffffffffffffffff166370a08231306040518263ffffffff1660e01b8152600401808273ffffffffffffffffffffffffffffffffffffffff1673ffffffffffffffffffffffffffffffffffffffff16815260200191505060206040518083038186803b15801561317857600080fd5b505afa15801561318c573d6000803e3d6000fd5b505050506040513d60208110156131a257600080fd5b8101908080519060200190929190505050905060006131ef60646131e1600760169054906101000a900460ff1660ff168561255390919063ffffffff16565b6125d990919063ffffffff16565b90506132306132078284612e6190919063ffffffff16565b600760009054906101000a900473ffffffffffffffffffffffffffffffffffffffff16866140d8565b6000600860009054906101000a900473ffffffffffffffffffffffffffffffffffffffff1673ffffffffffffffffffffffffffffffffffffffff1663ad5c46486040518163ffffffff1660e01b815260040160206040518083038186803b15801561329a57600080fd5b505afa1580156132ae573d6000803e3d6000fd5b505050506040513d60208110156132c457600080fd5b810190808051906020019092919050505073ffffffffffffffffffffffffffffffffffffffff166370a08231306040518263ffffffff1660e01b8152600401808273ffffffffffffffffffffffffffffffffffffffff1673ffffffffffffffffffffffffffffffffffffffff16815260200191505060206040518083038186803b15801561335157600080fd5b505afa158015613365573d6000803e3d6000fd5b505050506040513d602081101561337b57600080fd5b810190808051906020019092919050505090506133bb600760009054906101000a900473ffffffffffffffffffffffffffffffffffffffff16338361499b565b61346f600860009054906101000a900473ffffffffffffffffffffffffffffffffffffffff1673ffffffffffffffffffffffffffffffffffffffff1663ad5c46486040518163ffffffff1660e01b815260040160206040518083038186803b15801561342657600080fd5b505afa15801561343a573d6000803e3d6000fd5b505050506040513d602081101561345057600080fd5b8101908080519060200190929190505050613469611552565b8461499b565b7f71fdb72c1f1e2ed8cad11cf616c93bfb3cb055d5b69a046434e7b1c81989cc57338284600454600560003373ffffffffffffffffffffffffffffffffffffffff1673ffffffffffffffffffffffffffffffffffffffff168152602001908152602001600020548b604051808773ffffffffffffffffffffffffffffffffffffffff1673ffffffffffffffffffffffffffffffffffffffff16815260200186815260200185815260200180602001858152602001848152602001838152602001828103825260038152602001807f445243000000000000000000000000000000000000000000000000000000000081525060200197505050505050505060405180910390a1505050505050565b60008090505b600060149054906101000a900460ff1660ff168160ff161015613607576135fa838260ff16815181106135b157fe5b602002602001015160018360ff16815481106135c957fe5b9060005260206000200160009054906101000a900473ffffffffffffffffffffffffffffffffffffffff1684612718565b8080600101915050613582565b505050565b6000606060026040519080825280602002602001820160405280156136405781602001602082028038833980820191505090505b509050600860009054906101000a900473ffffffffffffffffffffffffffffffffffffffff1673ffffffffffffffffffffffffffffffffffffffff1663ad5c46486040518163ffffffff1660e01b815260040160206040518083038186803b1580156136ab57600080fd5b505afa1580156136bf573d6000803e3d6000fd5b505050506040513d60208110156136d557600080fd5b8101908080519060200190929190505050816000815181106136f357fe5b602002602001019073ffffffffffffffffffffffffffffffffffffffff16908173ffffffffffffffffffffffffffffffffffffffff1681525050828160018151811061373b57fe5b602002602001019073ffffffffffffffffffffffffffffffffffffffff16908173ffffffffffffffffffffffffffffffffffffffff16815250508060018151811061378257fe5b602002602001015173ffffffffffffffffffffffffffffffffffffffff16816000815181106137ad57fe5b602002602001015173ffffffffffffffffffffffffffffffffffffffff1614806137d75750600084145b156137e5578391505061398e565b600860009054906101000a900473ffffffffffffffffffffffffffffffffffffffff1673ffffffffffffffffffffffffffffffffffffffff1663d06ca61f85836040518363ffffffff1660e01b81526004018083815260200180602001828103825283818151815260200191508051906020019060200280838360005b8381101561387d578082015181840152602081019050613862565b50505050905001935050505060006040518083038186803b1580156138a157600080fd5b505afa1580156138b5573d6000803e3d6000fd5b505050506040513d6000823e3d601f19601f8201168201806040525060208110156138df57600080fd5b81019080805160405193929190846401000000008211156138ff57600080fd5b8382019150602082018581111561391557600080fd5b825186602082028301116401000000008211171561393257600080fd5b8083526020830192505050908051906020019060200280838360005b8381101561396957808201518184015260208101905061394e565b5050505090500160405250505060018151811061398257fe5b60200260200101519150505b92915050565b6000606060026040519080825280602002602001820160405280156139c85781602001602082028038833980820191505090505b50905082816000815181106139d957fe5b602002602001019073ffffffffffffffffffffffffffffffffffffffff16908173ffffffffffffffffffffffffffffffffffffffff1681525050600860009054906101000a900473ffffffffffffffffffffffffffffffffffffffff1673ffffffffffffffffffffffffffffffffffffffff1663ad5c46486040518163ffffffff1660e01b815260040160206040518083038186803b158015613a7b57600080fd5b505afa158015613a8f573d6000803e3d6000fd5b505050506040513d6020811015613aa557600080fd5b810190808051906020019092919050505081600181518110613ac357fe5b602002602001019073ffffffffffffffffffffffffffffffffffffffff16908173ffffffffffffffffffffffffffffffffffffffff168152505080600181518110613b0a57fe5b602002602001015173ffffffffffffffffffffffffffffffffffffffff1681600081518110613b3557fe5b602002602001015173ffffffffffffffffffffffffffffffffffffffff161480613b5f5750600084145b15613b6d5783915050613d16565b600860009054906101000a900473ffffffffffffffffffffffffffffffffffffffff1673ffffffffffffffffffffffffffffffffffffffff1663d06ca61f85836040518363ffffffff1660e01b81526004018083815260200180602001828103825283818151815260200191508051906020019060200280838360005b83811015613c05578082015181840152602081019050613bea565b50505050905001935050505060006040518083038186803b158015613c2957600080fd5b505afa158015613c3d573d6000803e3d6000fd5b505050506040513d6000823e3d601f19601f820116820180604052506020811015613c6757600080fd5b8101908080516040519392919084640100000000821115613c8757600080fd5b83820191506020820185811115613c9d57600080fd5b8251866020820283011164010000000082111715613cba57600080fd5b8083526020830192505050908051906020019060200280838360005b83811015613cf1578082015181840152602081019050613cd6565b50505050905001604052505050600181518110613d0a57fe5b60200260200101519150505b92915050565b60008083118290613dc8576040517f08c379a00000000000000000000000000000000000000000000000000000000081526004018080602001828103825283818151815260200191508051906020019080838360005b83811015613d8d578082015181840152602081019050613d72565b50505050905090810190601f168015613dba5780820380516001836020036101000a031916815260200191505b509250505060405180910390fd5b506000838581613dd457fe5b049050809150509392505050565b6060613e44826040518060400160405280602081526020017f5361666545524332303a206c6f772d6c6576656c2063616c6c206661696c65648152508573ffffffffffffffffffffffffffffffffffffffff16614a539092919063ffffffff16565b9050600081511115613ecc57808060200190516020811015613e6557600080fd5b8101908080519060200190929190505050613ecb576040517f08c379a000000000000000000000000000000000000000000000000000000000815260040180806020018281038252602a815260200180614e44602a913960400191505060405180910390fd5b5b505050565b6000811480613fcb575060008373ffffffffffffffffffffffffffffffffffffffff1663dd62ed3e30856040518363ffffffff1660e01b8152600401808373ffffffffffffffffffffffffffffffffffffffff1673ffffffffffffffffffffffffffffffffffffffff1681526020018273ffffffffffffffffffffffffffffffffffffffff1673ffffffffffffffffffffffffffffffffffffffff1681526020019250505060206040518083038186803b158015613f8e57600080fd5b505afa158015613fa2573d6000803e3d6000fd5b505050506040513d6020811015613fb857600080fd5b8101908080519060200190929190505050145b614020576040517f08c379a0000000000000000000000000000000000000000000000000000000008152600401808060200182810382526036815260200180614e6e6036913960400191505060405180910390fd5b6140d38363095ea7b360e01b8484604051602401808373ffffffffffffffffffffffffffffffffffffffff1673ffffffffffffffffffffffffffffffffffffffff16815260200182815260200192505050604051602081830303815290604052907bffffffffffffffffffffffffffffffffffffffffffffffffffffffff19166020820180517bffffffffffffffffffffffffffffffffffffffffffffffffffffffff8381831617835250505050613de2565b505050565b600860009054906101000a900473ffffffffffffffffffffffffffffffffffffffff1673ffffffffffffffffffffffffffffffffffffffff1663ad5c46486040518163ffffffff1660e01b815260040160206040518083038186803b15801561414057600080fd5b505afa158015614154573d6000803e3d6000fd5b505050506040513d602081101561416a57600080fd5b810190808051906020019092919050505073ffffffffffffffffffffffffffffffffffffffff168273ffffffffffffffffffffffffffffffffffffffff16141580156141b7575060008314155b156146ee57606060026040519080825280602002602001820160405280156141ee5781602001602082028038833980820191505090505b509050600860009054906101000a900473ffffffffffffffffffffffffffffffffffffffff1673ffffffffffffffffffffffffffffffffffffffff1663ad5c46486040518163ffffffff1660e01b815260040160206040518083038186803b15801561425957600080fd5b505afa15801561426d573d6000803e3d6000fd5b505050506040513d602081101561428357600080fd5b8101908080519060200190929190505050816000815181106142a157fe5b602002602001019073ffffffffffffffffffffffffffffffffffffffff16908173ffffffffffffffffffffffffffffffffffffffff168152505082816001815181106142e957fe5b602002602001019073ffffffffffffffffffffffffffffffffffffffff16908173ffffffffffffffffffffffffffffffffffffffff16815250506143648160008151811061433357fe5b6020026020010151600660009054906101000a900473ffffffffffffffffffffffffffffffffffffffff1686613ed1565b6000600860009054906101000a900473ffffffffffffffffffffffffffffffffffffffff1673ffffffffffffffffffffffffffffffffffffffff1663d06ca61f86846040518363ffffffff1660e01b81526004018083815260200180602001828103825283818151815260200191508051906020019060200280838360005b838110156143fe5780820151818401526020810190506143e3565b50505050905001935050505060006040518083038186803b15801561442257600080fd5b505afa158015614436573d6000803e3d6000fd5b505050506040513d6000823e3d601f19601f82011682018060405250602081101561446057600080fd5b810190808051604051939291908464010000000082111561448057600080fd5b8382019150602082018581111561449657600080fd5b82518660208202830111640100000000821117156144b357600080fd5b8083526020830192505050908051906020019060200280838360005b838110156144ea5780820151818401526020810190506144cf565b5050505090500160405250505060018151811061450357fe5b60200260200101519050600860009054906101000a900473ffffffffffffffffffffffffffffffffffffffff1673ffffffffffffffffffffffffffffffffffffffff166338ed173986838530886040518663ffffffff1660e01b815260040180868152602001858152602001806020018473ffffffffffffffffffffffffffffffffffffffff1673ffffffffffffffffffffffffffffffffffffffff1681526020018363ffffffff168152602001828103825285818151815260200191508051906020019060200280838360005b838110156145ec5780820151818401526020810190506145d1565b505050509050019650505050505050600060405180830381600087803b15801561461557600080fd5b505af1158015614629573d6000803e3d6000fd5b505050506040513d6000823e3d601f19601f82011682018060405250602081101561465357600080fd5b810190808051604051939291908464010000000082111561467357600080fd5b8382019150602082018581111561468957600080fd5b82518660208202830111640100000000821117156146a657600080fd5b8083526020830192505050908051906020019060200280838360005b838110156146dd5780820151818401526020810190506146c2565b505050509050016040525050505050505b505050565b60008383111582906147a0576040517f08c379a00000000000000000000000000000000000000000000000000000000081526004018080602001828103825283818151815260200191508051906020019080838360005b8381101561476557808201518184015260208101905061474a565b50505050905090810190601f1680156147925780820380516001836020036101000a031916815260200191505b509250505060405180910390fd5b5060008385039050809150509392505050565b606080600060149054906101000a900460ff1660ff166040519080825280602002602001820160405280156147f75781602001602082028038833980820191505090505b509050600061482860045461481a6402540be4008761255390919063ffffffff16565b6125d990919063ffffffff16565b905060008090505b600060149054906101000a900460ff1660ff168160ff161015614990576149686402540be40061495a8460018560ff168154811061486a57fe5b9060005260206000200160009054906101000a900473ffffffffffffffffffffffffffffffffffffffff1673ffffffffffffffffffffffffffffffffffffffff166370a08231306040518263ffffffff1660e01b8152600401808273ffffffffffffffffffffffffffffffffffffffff1673ffffffffffffffffffffffffffffffffffffffff16815260200191505060206040518083038186803b15801561491157600080fd5b505afa158015614925573d6000803e3d6000fd5b505050506040513d602081101561493b57600080fd5b810190808051906020019092919050505061255390919063ffffffff16565b6125d990919063ffffffff16565b838260ff168151811061497757fe5b6020026020010181815250508080600101915050614830565b508192505050919050565b614a4e8363a9059cbb60e01b8484604051602401808373ffffffffffffffffffffffffffffffffffffffff1673ffffffffffffffffffffffffffffffffffffffff16815260200182815260200192505050604051602081830303815290604052907bffffffffffffffffffffffffffffffffffffffffffffffffffffffff19166020820180517bffffffffffffffffffffffffffffffffffffffffffffffffffffffff8381831617835250505050613de2565b505050565b6060614a628484600085614a6b565b90509392505050565b606082471015614ac6576040517f08c379a0000000000000000000000000000000000000000000000000000000008152600401808060200182810382526026815260200180614dfd6026913960400191505060405180910390fd5b614acf85614c14565b614b41576040517f08c379a000000000000000000000000000000000000000000000000000000000815260040180806020018281038252601d8152602001807f416464726573733a2063616c6c20746f206e6f6e2d636f6e747261637400000081525060200191505060405180910390fd5b600060608673ffffffffffffffffffffffffffffffffffffffff1685876040518082805190602001908083835b60208310614b915780518252602082019150602081019050602083039250614b6e565b6001836020036101000a03801982511681845116808217855250505050505090500191505060006040518083038185875af1925050503d8060008114614bf3576040519150601f19603f3d011682016040523d82523d6000602084013e614bf8565b606091505b5091509150614c08828286614c27565b92505050949350505050565b600080823b905060008111915050919050565b60608315614c3757829050614cec565b600083511115614c4a5782518084602001fd5b816040517f08c379a00000000000000000000000000000000000000000000000000000000081526004018080602001828103825283818151815260200191508051906020019080838360005b83811015614cb1578082015181840152602081019050614c96565b50505050905090810190601f168015614cde5780820380516001836020036101000a031916815260200191505b509250505060405180910390fd5b9392505050565b828054828255906000526020600020908101928215614d82579160200282015b82811115614d8157823573ffffffffffffffffffffffffffffffffffffffff168260006101000a81548173ffffffffffffffffffffffffffffffffffffffff021916908373ffffffffffffffffffffffffffffffffffffffff16021790555091602001919060010190614d13565b5b509050614d8f9190614d93565b5090565b614dd391905b80821115614dcf57600081816101000a81549073ffffffffffffffffffffffffffffffffffffffff021916905550600101614d99565b5090565b9056fe4f776e61626c653a206e6577206f776e657220697320746865207a65726f2061646472657373416464726573733a20696e73756666696369656e742062616c616e636520666f722063616c6c536166654d6174683a206d756c7469706c69636174696f6e206f766572666c6f775361666545524332303a204552433230206f7065726174696f6e20646964206e6f7420737563636565645361666545524332303a20617070726f76652066726f6d206e6f6e2d7a65726f20746f206e6f6e2d7a65726f20616c6c6f77616e6365a2646970667358221220628893c1b71a05df650fc10230e4847b54cf9b0cf2e048bfbadf3838f8300b1464736f6c63430006020033",
  "source": "// SPDX-License-Identifier: GPL-3.0-or-later\n\npragma solidity ^0.6.0;\n\nimport \"@openzeppelin/contracts/math/SafeMath.sol\";\nimport \"@openzeppelin/contracts/utils/ReentrancyGuard.sol\";\nimport \"@openzeppelin/contracts/token/ERC20/SafeERC20.sol\";\nimport \"@openzeppelin/contracts/token/ERC20/IERC20.sol\";\nimport \"@openzeppelin/contracts/access/Ownable.sol\";\n\nimport \"./Interfaces/Uniswap/IUniswapV2Router02.sol\";\n\ncontract DigitalReserve is Ownable {\n    using SafeMath for uint256;\n\n    constructor(\n        address _router,\n        address _drcAddress\n    ) public {\n        drcAddress = _drcAddress;\n        router = _router;\n        uniswapRouter = IUniswapV2Router02(_router);\n    }\n\n    uint8 public strategyTokenCount;\n    address[] public strategyTokens;\n    mapping(address => uint8) private tokenPercentage;\n\n    uint8 public proofOfDepositDecimals = 18;\n    uint256 public totalProofOfDeposit;\n    mapping(address => uint256) public userProofOfDeposit;\n\n    address private router;\n    address private drcAddress;\n\n    bool private depositEnabled = false;\n    bool private withdrawalEnabled = true;\n    uint8 private feePercentage = 1;\n\n    IUniswapV2Router02 private uniswapRouter;\n\n    event StrategyChange(address[] oldTokens, uint8[] oldPercentage, address[] newTokens, uint8[] newPercentage);\n    event Rebalance(address[] strategyTokens, uint8[] tokenPercentage);\n    event Deposit(address user, uint256 amount, uint256 totalProofOfDeposit, uint256 userProofOfDeposit, uint256 podMinted);\n    event Withdraw(\n        address user,\n        uint256 amount,\n        uint256 fees,\n        string tokenName,\n        uint256 totalProofOfDeposit,\n        uint256 userProofOfDeposit,\n        uint256 podBurned\n    );\n\n    function changeDepositStatus(bool _status) external onlyOwner {\n        depositEnabled = _status;\n    }\n\n    function changeWithdrawalStatus(bool _status) external onlyOwner {\n        withdrawalEnabled = _status;\n    }\n\n    function changeFee(uint8 _feePercentage) external onlyOwner {\n        require(_feePercentage <= 100);\n        feePercentage = _feePercentage;\n    }\n\n    function totalTokenStored() public view returns (uint256[] memory) {\n        uint256[] memory amounts = new uint256[](strategyTokenCount);\n        for (uint8 i = 0; i < strategyTokenCount; i++) {\n            amounts[i] = IERC20(strategyTokens[i]).balanceOf(address(this));\n        }\n        return amounts;\n    }\n\n    function getUserVaultInDrc(address _user) public view returns (uint256, uint256, uint256) {\n        uint256 userVaultWorthInEth = userProofOfDeposit[_user].mul(getProofOfDepositPrice()).div(1e18);\n\n        uint256 fees = userVaultWorthInEth.mul(feePercentage).div(100);\n        uint256 drcAmount = _getTokenAmountByEthAmount(userVaultWorthInEth, drcAddress);\n        uint256 drcAmountExcludeFees = _getTokenAmountByEthAmount(userVaultWorthInEth.sub(fees), drcAddress);\n\n        return (drcAmount, drcAmountExcludeFees, fees);\n    }\n\n    function getProofOfDepositPrice() public view returns (uint256) {\n        uint256 proofOfDepositPrice;\n        if (totalProofOfDeposit > 0) {\n            proofOfDepositPrice = _getEthAmountByStrategyTokensAmount(totalTokenStored()).mul(1e18).div(totalProofOfDeposit);\n        }\n\n        return proofOfDepositPrice;\n    }\n\n    function depositDrc(uint256 _amount, uint32 deadline) external {\n        require(depositEnabled);\n\n        require(IERC20(drcAddress).balanceOf(msg.sender) >= _amount);\n        require(IERC20(drcAddress).allowance(msg.sender, address(this)) >= _amount);\n        SafeERC20.safeTransferFrom(IERC20(drcAddress), msg.sender, address(this), _amount);\n\n        // Get current unit price before adding tokens to vault\n        uint256 currentPodUnitPrice = getProofOfDepositPrice();\n\n        _convertTokenToEth(_amount, drcAddress, deadline);\n        _convertEthToStrategyTokens(IERC20(uniswapRouter.WETH()).balanceOf(address(this)), deadline);\n\n        uint256 podToMint = 0;\n        if (totalProofOfDeposit == 0) {\n            podToMint = _amount.mul(1e15);\n        } else {\n            uint256 vaultTotalInEth = _getEthAmountByStrategyTokensAmount(totalTokenStored());\n            uint256 newPodTotal = vaultTotalInEth.mul(1e18).div(currentPodUnitPrice);\n            podToMint = newPodTotal.sub(totalProofOfDeposit);\n        }\n\n        userProofOfDeposit[msg.sender] = userProofOfDeposit[msg.sender].add(podToMint);\n        totalProofOfDeposit = totalProofOfDeposit.add(podToMint);\n\n        emit Deposit(msg.sender, _amount, totalProofOfDeposit, userProofOfDeposit[msg.sender], podToMint);\n    }\n\n    function withdrawDrc(uint256 drcAmount, uint32 deadline) external {\n        require(withdrawalEnabled);\n\n        (, uint256 userVaultInDrc, ) = getUserVaultInDrc(msg.sender);\n        require(userVaultInDrc >= drcAmount);\n\n        uint256 amountFraction = drcAmount.mul(1e10).div(userVaultInDrc);\n        uint256 podToBurn = userProofOfDeposit[msg.sender].mul(amountFraction).div(1e10);\n        _withdrawProofOfDeposit(podToBurn, deadline);\n    }\n\n    function withdrawPercentage(uint8 percentage, uint32 deadline) external {\n        require(withdrawalEnabled);\n        require(percentage >= 100);\n\n        uint256 podToBurn = userProofOfDeposit[msg.sender].mul(percentage).div(100);\n        _withdrawProofOfDeposit(podToBurn, deadline);\n    }\n\n    function changeStrategy(\n        address[] calldata _strategyTokens,\n        uint8[] calldata _tokenPercentage,\n        uint8 _strategyTokenCount,\n        uint32 deadline\n    ) external onlyOwner {\n        require(_strategyTokenCount >= 1);\n        require(_strategyTokens.length == _strategyTokenCount);\n        require(_tokenPercentage.length == _strategyTokenCount);\n\n        uint8 totalPercentage = 0;\n        for (uint8 i = 0; i < _strategyTokenCount; i++) {\n            totalPercentage += _tokenPercentage[i];\n        }\n        require(totalPercentage == 100);\n\n        uint8[] memory oldPercentage = new uint8[](strategyTokenCount);\n        for (uint8 i = 0; i < strategyTokenCount; i++) {\n            oldPercentage[i] = tokenPercentage[strategyTokens[i]];\n            delete tokenPercentage[strategyTokens[i]];\n        }\n\n        emit StrategyChange(strategyTokens, oldPercentage, _strategyTokens, _tokenPercentage);\n\n        // Before mutate strategyTokens, convert current strategy tokens to ETH\n        _convertStrategyTokensToEth(totalTokenStored(), deadline);\n\n        strategyTokens = _strategyTokens;\n        strategyTokenCount = _strategyTokenCount;\n        for (uint8 i = 0; i < strategyTokenCount; i++) {\n            tokenPercentage[strategyTokens[i]] = _tokenPercentage[i];\n        }\n\n        _convertEthToStrategyTokens(IERC20(uniswapRouter.WETH()).balanceOf(address(this)), deadline);\n    }\n\n    function rebalance(uint32 deadline) external onlyOwner {\n        require(strategyTokenCount > 0);\n\n        uint8[] memory percentageArray = new uint8[](strategyTokenCount);\n        for (uint8 i = 0; i < strategyTokenCount; i++) {\n            percentageArray[i] += tokenPercentage[strategyTokens[i]];\n        }\n\n        emit Rebalance(strategyTokens, percentageArray);\n\n        _convertStrategyTokensToEth(totalTokenStored(), deadline);\n        _convertEthToStrategyTokens(IERC20(uniswapRouter.WETH()).balanceOf(address(this)), deadline);\n    }\n\n    function _withdrawProofOfDeposit(uint256 podToBurn, uint32 deadline) private {\n        require(withdrawalEnabled);\n\n        // get strategy tokens to withdraw by pod to withdraw\n        uint256[] memory strategyTokensToWithdraw = new uint256[](strategyTokenCount);\n        strategyTokensToWithdraw = _getStrateTokensByPodAmount(podToBurn);\n\n        // Reduce user holding by withdrawed amount in pod and strategy tokens\n        userProofOfDeposit[msg.sender] = userProofOfDeposit[msg.sender].sub(podToBurn);\n        totalProofOfDeposit = totalProofOfDeposit.sub(podToBurn);\n\n        _convertStrategyTokensToEth(strategyTokensToWithdraw, deadline);\n        uint256 ethSwapped = IERC20(uniswapRouter.WETH()).balanceOf(address(this));\n        uint256 fees = ethSwapped.mul(feePercentage).div(100);\n\n        _convertEthToToken(ethSwapped.sub(fees), drcAddress, deadline);\n        uint256 drcAmount = IERC20(uniswapRouter.WETH()).balanceOf(address(this));\n        SafeERC20.safeTransfer(IERC20(drcAddress), msg.sender, drcAmount);\n        SafeERC20.safeTransfer(IERC20(uniswapRouter.WETH()), owner(), fees);\n        emit Withdraw(msg.sender, drcAmount, fees, \"DRC\", totalProofOfDeposit, userProofOfDeposit[msg.sender], podToBurn);\n    }\n\n    function addTwoArrays(uint256[] memory array1, uint256[] memory array2) private pure returns (uint256[] memory) {\n        uint256[] memory array3 = new uint256[](array1.length);\n        for (uint256 i = 0; i < array1.length; i++) {\n            array3[i] = array1[i].add(array2[i]);\n        }\n        return array3;\n    }\n\n    function subTwoArrays(uint256[] memory array1, uint256[] memory array2) private pure returns (uint256[] memory) {\n        uint256[] memory array3 = new uint256[](array1.length);\n        for (uint256 i = 0; i < array1.length; i++) {\n            array3[i] = array1[i].sub(array2[i]);\n        }\n        return array3;\n    }\n\n    function _getTokenAmountByEthAmount(uint256 _amount, address _tokenAddress) private view returns (uint256) {\n        address[] memory path = new address[](2);\n        path[0] = uniswapRouter.WETH();\n        path[1] = _tokenAddress;\n\n        if (path[0] == path[1] || _amount == 0) {\n            return _amount;\n        }\n        return uniswapRouter.getAmountsOut(_amount, path)[1];\n    }\n\n    function _getEthAmountByTokenAmount(uint256 _amount, address _tokenAddress) private view returns (uint256) {\n        address[] memory path = new address[](2);\n        path[0] = _tokenAddress;\n        path[1] = uniswapRouter.WETH();\n\n        if (path[0] == path[1] || _amount == 0) {\n            return _amount;\n        }\n        return uniswapRouter.getAmountsOut(_amount, path)[1];\n    }\n\n    function _getEthAmountByStrategyTokensAmount(uint256[] memory _strategyTokensBalance) private view returns (uint256) {\n        uint256 amountOut;\n        address[] memory path = new address[](2);\n        path[1] = uniswapRouter.WETH();\n\n        for (uint8 i = 0; i < strategyTokenCount; i++) {\n            address tokenAddress = strategyTokens[i];\n            path[0] = tokenAddress;\n            uint256 tokenAmount = _strategyTokensBalance[i];\n            uint256 tokenAmountInEth = _getEthAmountByTokenAmount(tokenAmount, tokenAddress);\n\n            amountOut = amountOut.add(tokenAmountInEth);\n        }\n        return amountOut;\n    }\n\n    function _getStrateTokensByPodAmount(uint256 _amount) private view returns (uint256[] memory) {\n        uint256[] memory strategyTokenAmount = new uint256[](strategyTokenCount);\n\n        uint256 podFraction = _amount.mul(1e10).div(totalProofOfDeposit);\n        for (uint8 i = 0; i < strategyTokenCount; i++) {\n            strategyTokenAmount[i] = IERC20(strategyTokens[i]).balanceOf(address(this)).mul(podFraction).div(1e10);\n        }\n        return strategyTokenAmount;\n    }\n\n    function _convertTokenToEth(\n        uint256 _amount,\n        address _tokenAddress,\n        uint32 deadline\n    ) private {\n        if (_tokenAddress != uniswapRouter.WETH() && _amount != 0) {\n            address[] memory path = new address[](2);\n            path[0] = _tokenAddress;\n            path[1] = uniswapRouter.WETH();\n            SafeERC20.safeApprove(IERC20(path[0]), router, _amount);\n            uint256 amountOut = uniswapRouter.getAmountsOut(_amount, path)[1];\n            uniswapRouter.swapExactTokensForTokens(_amount, amountOut, path, address(this), deadline);\n        }\n    }\n\n    function _convertEthToToken(\n        uint256 _amount,\n        address _tokenAddress,\n        uint32 deadline\n    ) private {\n        if (_tokenAddress != uniswapRouter.WETH() && _amount != 0) {\n            address[] memory path = new address[](2);\n            path[0] = uniswapRouter.WETH();\n            path[1] = _tokenAddress;\n            SafeERC20.safeApprove(IERC20(path[0]), router, _amount);\n            uint256 amountOut = uniswapRouter.getAmountsOut(_amount, path)[1];\n            uniswapRouter.swapExactTokensForTokens(_amount, amountOut, path, address(this), deadline);\n        }\n    }\n\n    function _convertEthToStrategyTokens(uint256 amount, uint32 deadline) private {\n        for (uint8 i = 0; i < strategyTokenCount; i++) {\n            uint256 amountToConvert = amount.mul(tokenPercentage[strategyTokens[i]]).div(100);\n            _convertEthToToken(amountToConvert, strategyTokens[i], deadline);\n        }\n    }\n\n    function _convertStrategyTokensToEth(uint256[] memory amountToConvert, uint32 deadline) private {\n        for (uint8 i = 0; i < strategyTokenCount; i++) {\n            _convertTokenToEth(amountToConvert[i], strategyTokens[i], deadline);\n        }\n    }\n}\n",
  "sourcePath": "/Users/fayexue/if-x-github/digital-reserve/contracts/DigitalReserve.sol",
  "compiler": {
    "name": "solc",
    "version": "0.6.2+commit.bacdbe57.Emscripten.clang"
  },
  "schemaVersion": "3.3.3",
  "updatedAt": "2021-01-16T01:50:25.569Z",
  "devdoc": {
    "methods": {
      "owner()": {
        "details": "Returns the address of the current owner."
      },
      "renounceOwnership()": {
        "details": "Leaves the contract without owner. It will not be possible to call `onlyOwner` functions anymore. Can only be called by the current owner.     * NOTE: Renouncing ownership will leave the contract without an owner, thereby removing any functionality that is only available to the owner."
      },
      "transferOwnership(address)": {
        "details": "Transfers ownership of the contract to a new account (`newOwner`). Can only be called by the current owner."
      }
    }
  },
  "userdoc": {
    "methods": {}
  }
}