{
  "contractName": "DigitalReserve",
  "abi": [
    {
      "inputs": [
        {
          "internalType": "address",
          "name": "_router",
          "type": "address"
        },
        {
          "internalType": "address",
          "name": "_drcAddress",
          "type": "address"
        },
        {
          "internalType": "string",
          "name": "_name",
          "type": "string"
        }
      ],
      "stateMutability": "nonpayable",
      "type": "constructor"
    },
    {
      "anonymous": false,
      "inputs": [
        {
          "indexed": true,
          "internalType": "address",
          "name": "owner",
          "type": "address"
        },
        {
          "indexed": true,
          "internalType": "address",
          "name": "spender",
          "type": "address"
        },
        {
          "indexed": false,
          "internalType": "uint256",
          "name": "value",
          "type": "uint256"
        }
      ],
      "name": "Approval",
      "type": "event"
    },
    {
      "anonymous": false,
      "inputs": [
        {
          "indexed": true,
          "internalType": "address",
          "name": "user",
          "type": "address"
        },
        {
          "indexed": false,
          "internalType": "uint256",
          "name": "amount",
          "type": "uint256"
        },
        {
          "indexed": false,
          "internalType": "uint256",
          "name": "podMinted",
          "type": "uint256"
        },
        {
          "indexed": false,
          "internalType": "uint256",
          "name": "podTotalSupply",
          "type": "uint256"
        },
        {
          "indexed": false,
          "internalType": "uint256[]",
          "name": "tokensStored",
          "type": "uint256[]"
        }
      ],
      "name": "Deposit",
      "type": "event"
    },
    {
      "anonymous": false,
      "inputs": [
        {
          "indexed": true,
          "internalType": "address",
          "name": "previousOwner",
          "type": "address"
        },
        {
          "indexed": true,
          "internalType": "address",
          "name": "newOwner",
          "type": "address"
        }
      ],
      "name": "OwnershipTransferred",
      "type": "event"
    },
    {
      "anonymous": false,
      "inputs": [
        {
          "indexed": false,
          "internalType": "address[]",
          "name": "strategyTokens",
          "type": "address[]"
        },
        {
          "indexed": false,
          "internalType": "uint8[]",
          "name": "tokenPercentage",
          "type": "uint8[]"
        },
        {
          "indexed": false,
          "internalType": "uint256[]",
          "name": "tokensStored",
          "type": "uint256[]"
        }
      ],
      "name": "Rebalance",
      "type": "event"
    },
    {
      "anonymous": false,
      "inputs": [
        {
          "indexed": false,
          "internalType": "address[]",
          "name": "oldTokens",
          "type": "address[]"
        },
        {
          "indexed": false,
          "internalType": "uint8[]",
          "name": "oldPercentage",
          "type": "uint8[]"
        },
        {
          "indexed": false,
          "internalType": "address[]",
          "name": "newTokens",
          "type": "address[]"
        },
        {
          "indexed": false,
          "internalType": "uint8[]",
          "name": "newPercentage",
          "type": "uint8[]"
        },
        {
          "indexed": false,
          "internalType": "uint256[]",
          "name": "tokensStored",
          "type": "uint256[]"
        }
      ],
      "name": "StrategyChange",
      "type": "event"
    },
    {
      "anonymous": false,
      "inputs": [
        {
          "indexed": true,
          "internalType": "address",
          "name": "from",
          "type": "address"
        },
        {
          "indexed": true,
          "internalType": "address",
          "name": "to",
          "type": "address"
        },
        {
          "indexed": false,
          "internalType": "uint256",
          "name": "value",
          "type": "uint256"
        }
      ],
      "name": "Transfer",
      "type": "event"
    },
    {
      "anonymous": false,
      "inputs": [
        {
          "indexed": true,
          "internalType": "address",
          "name": "user",
          "type": "address"
        },
        {
          "indexed": false,
          "internalType": "uint256",
          "name": "amount",
          "type": "uint256"
        },
        {
          "indexed": false,
          "internalType": "uint256",
          "name": "fees",
          "type": "uint256"
        },
        {
          "indexed": false,
          "internalType": "uint256",
          "name": "podBurned",
          "type": "uint256"
        },
        {
          "indexed": false,
          "internalType": "uint256",
          "name": "podTotalSupply",
          "type": "uint256"
        },
        {
          "indexed": false,
          "internalType": "uint256[]",
          "name": "tokensStored",
          "type": "uint256[]"
        }
      ],
      "name": "Withdraw",
      "type": "event"
    },
    {
      "inputs": [
        {
          "internalType": "address",
          "name": "owner",
          "type": "address"
        },
        {
          "internalType": "address",
          "name": "spender",
          "type": "address"
        }
      ],
      "name": "allowance",
      "outputs": [
        {
          "internalType": "uint256",
          "name": "",
          "type": "uint256"
        }
      ],
      "stateMutability": "view",
      "type": "function"
    },
    {
      "inputs": [
        {
          "internalType": "address",
          "name": "spender",
          "type": "address"
        },
        {
          "internalType": "uint256",
          "name": "amount",
          "type": "uint256"
        }
      ],
      "name": "approve",
      "outputs": [
        {
          "internalType": "bool",
          "name": "",
          "type": "bool"
        }
      ],
      "stateMutability": "nonpayable",
      "type": "function"
    },
    {
      "inputs": [
        {
          "internalType": "address",
          "name": "account",
          "type": "address"
        }
      ],
      "name": "balanceOf",
      "outputs": [
        {
          "internalType": "uint256",
          "name": "",
          "type": "uint256"
        }
      ],
      "stateMutability": "view",
      "type": "function"
    },
    {
      "inputs": [],
      "name": "decimals",
      "outputs": [
        {
          "internalType": "uint8",
          "name": "",
          "type": "uint8"
        }
      ],
      "stateMutability": "view",
      "type": "function"
    },
    {
      "inputs": [
        {
          "internalType": "address",
          "name": "spender",
          "type": "address"
        },
        {
          "internalType": "uint256",
          "name": "subtractedValue",
          "type": "uint256"
        }
      ],
      "name": "decreaseAllowance",
      "outputs": [
        {
          "internalType": "bool",
          "name": "",
          "type": "bool"
        }
      ],
      "stateMutability": "nonpayable",
      "type": "function"
    },
    {
      "inputs": [
        {
          "internalType": "address",
          "name": "spender",
          "type": "address"
        },
        {
          "internalType": "uint256",
          "name": "addedValue",
          "type": "uint256"
        }
      ],
      "name": "increaseAllowance",
      "outputs": [
        {
          "internalType": "bool",
          "name": "",
          "type": "bool"
        }
      ],
      "stateMutability": "nonpayable",
      "type": "function"
    },
    {
      "inputs": [],
      "name": "name",
      "outputs": [
        {
          "internalType": "string",
          "name": "",
          "type": "string"
        }
      ],
      "stateMutability": "view",
      "type": "function"
    },
    {
      "inputs": [],
      "name": "owner",
      "outputs": [
        {
          "internalType": "address",
          "name": "",
          "type": "address"
        }
      ],
      "stateMutability": "view",
      "type": "function"
    },
    {
      "inputs": [],
      "name": "renounceOwnership",
      "outputs": [],
      "stateMutability": "nonpayable",
      "type": "function"
    },
    {
      "inputs": [],
      "name": "symbol",
      "outputs": [
        {
          "internalType": "string",
          "name": "",
          "type": "string"
        }
      ],
      "stateMutability": "view",
      "type": "function"
    },
    {
      "inputs": [],
      "name": "totalSupply",
      "outputs": [
        {
          "internalType": "uint256",
          "name": "",
          "type": "uint256"
        }
      ],
      "stateMutability": "view",
      "type": "function"
    },
    {
      "inputs": [
        {
          "internalType": "address",
          "name": "recipient",
          "type": "address"
        },
        {
          "internalType": "uint256",
          "name": "amount",
          "type": "uint256"
        }
      ],
      "name": "transfer",
      "outputs": [
        {
          "internalType": "bool",
          "name": "",
          "type": "bool"
        }
      ],
      "stateMutability": "nonpayable",
      "type": "function"
    },
    {
      "inputs": [
        {
          "internalType": "address",
          "name": "sender",
          "type": "address"
        },
        {
          "internalType": "address",
          "name": "recipient",
          "type": "address"
        },
        {
          "internalType": "uint256",
          "name": "amount",
          "type": "uint256"
        }
      ],
      "name": "transferFrom",
      "outputs": [
        {
          "internalType": "bool",
          "name": "",
          "type": "bool"
        }
      ],
      "stateMutability": "nonpayable",
      "type": "function"
    },
    {
      "inputs": [
        {
          "internalType": "address",
          "name": "newOwner",
          "type": "address"
        }
      ],
      "name": "transferOwnership",
      "outputs": [],
      "stateMutability": "nonpayable",
      "type": "function"
    },
    {
      "inputs": [],
      "name": "strategyTokenCount",
      "outputs": [
        {
          "internalType": "uint256",
          "name": "",
          "type": "uint256"
        }
      ],
      "stateMutability": "view",
      "type": "function"
    },
    {
      "inputs": [
        {
          "internalType": "uint8",
          "name": "index",
          "type": "uint8"
        }
      ],
      "name": "strategyTokens",
      "outputs": [
        {
          "internalType": "address",
          "name": "",
          "type": "address"
        }
      ],
      "stateMutability": "view",
      "type": "function"
    },
    {
      "inputs": [
        {
          "internalType": "address",
          "name": "tokenAddress",
          "type": "address"
        }
      ],
      "name": "tokenPercentage",
      "outputs": [
        {
          "internalType": "uint8",
          "name": "",
          "type": "uint8"
        }
      ],
      "stateMutability": "view",
      "type": "function"
    },
    {
      "inputs": [],
      "name": "withdrawalFee",
      "outputs": [
        {
          "internalType": "uint8",
          "name": "",
          "type": "uint8"
        },
        {
          "internalType": "uint8",
          "name": "",
          "type": "uint8"
        }
      ],
      "stateMutability": "view",
      "type": "function"
    },
    {
      "inputs": [],
      "name": "priceDecimals",
      "outputs": [
        {
          "internalType": "uint8",
          "name": "",
          "type": "uint8"
        }
      ],
      "stateMutability": "view",
      "type": "function"
    },
    {
      "inputs": [],
      "name": "totalTokenStored",
      "outputs": [
        {
          "internalType": "uint256[]",
          "name": "",
          "type": "uint256[]"
        }
      ],
      "stateMutability": "view",
      "type": "function"
    },
    {
      "inputs": [
        {
          "internalType": "address",
          "name": "user",
          "type": "address"
        },
        {
          "internalType": "uint8",
          "name": "percentage",
          "type": "uint8"
        }
      ],
      "name": "getUserVaultInDrc",
      "outputs": [
        {
          "internalType": "uint256",
          "name": "",
          "type": "uint256"
        },
        {
          "internalType": "uint256",
          "name": "",
          "type": "uint256"
        },
        {
          "internalType": "uint256",
          "name": "",
          "type": "uint256"
        }
      ],
      "stateMutability": "view",
      "type": "function"
    },
    {
      "inputs": [],
      "name": "getProofOfDepositPrice",
      "outputs": [
        {
          "internalType": "uint256",
          "name": "",
          "type": "uint256"
        }
      ],
      "stateMutability": "view",
      "type": "function"
    },
    {
      "inputs": [
        {
          "internalType": "uint256",
          "name": "drcAmount",
          "type": "uint256"
        },
        {
          "internalType": "uint32",
          "name": "deadline",
          "type": "uint32"
        }
      ],
      "name": "depositDrc",
      "outputs": [],
      "stateMutability": "nonpayable",
      "type": "function"
    },
    {
      "inputs": [
        {
          "internalType": "uint256",
          "name": "drcAmount",
          "type": "uint256"
        },
        {
          "internalType": "uint32",
          "name": "deadline",
          "type": "uint32"
        }
      ],
      "name": "withdrawDrc",
      "outputs": [],
      "stateMutability": "nonpayable",
      "type": "function"
    },
    {
      "inputs": [
        {
          "internalType": "uint8",
          "name": "percentage",
          "type": "uint8"
        },
        {
          "internalType": "uint32",
          "name": "deadline",
          "type": "uint32"
        }
      ],
      "name": "withdrawPercentage",
      "outputs": [],
      "stateMutability": "nonpayable",
      "type": "function"
    },
    {
      "inputs": [
        {
          "internalType": "bool",
          "name": "status",
          "type": "bool"
        }
      ],
      "name": "changeDepositStatus",
      "outputs": [],
      "stateMutability": "nonpayable",
      "type": "function"
    },
    {
      "inputs": [
        {
          "internalType": "uint8",
          "name": "withdrawalFeeFraction_",
          "type": "uint8"
        },
        {
          "internalType": "uint8",
          "name": "withdrawalFeeBase_",
          "type": "uint8"
        }
      ],
      "name": "changeFee",
      "outputs": [],
      "stateMutability": "nonpayable",
      "type": "function"
    },
    {
      "inputs": [
        {
          "internalType": "address[]",
          "name": "strategyTokens_",
          "type": "address[]"
        },
        {
          "internalType": "uint8[]",
          "name": "tokenPercentage_",
          "type": "uint8[]"
        },
        {
          "internalType": "uint32",
          "name": "deadline",
          "type": "uint32"
        }
      ],
      "name": "changeStrategy",
      "outputs": [],
      "stateMutability": "nonpayable",
      "type": "function"
    },
    {
      "inputs": [
        {
          "internalType": "uint32",
          "name": "deadline",
          "type": "uint32"
        }
      ],
      "name": "rebalance",
      "outputs": [],
      "stateMutability": "nonpayable",
      "type": "function"
    }
  ],
  "bytecode": "0x608060405260088054600160ff199091161761ff0019166164001762ff00001916621200001790556009805460ff60a01b191690553480156200004157600080fd5b506040516200516138038062005161833981810160405260608110156200006757600080fd5b815160208301516040808501805191519395929483019291846401000000008211156200009357600080fd5b908301906020820185811115620000a957600080fd5b8251640100000000811182820188101715620000c457600080fd5b82525081516020918201929091019080838360005b83811015620000f3578181015183820152602001620000d9565b50505050905090810190601f168015620001215780820380516001836020036101000a031916815260200191505b5060408181019052600681526511148b5413d160d21b60208083019190915285518695509193506200015b9250600391908501906200023d565b508051620001719060049060208401906200023d565b50506005805460ff191660121790555060006200018d62000239565b60058054610100600160a81b0319166101006001600160a01b03841690810291909117909155604051919250906000907f8be0079c531659141344cd1fd0a4f28419497f9722a3daafe3b4186f6b6457e0908290a35050600980546001600160a01b03199081166001600160a01b0393841617909155600880546301000000600160b81b03191663010000009490931693840292909217909155600a80549091169091179055620002d9565b3390565b828054600181600116156101000203166002900490600052602060002090601f016020900481019282601f106200028057805160ff1916838001178555620002b0565b82800160010185558215620002b0579182015b82811115620002b057825182559160200191906001019062000293565b50620002be929150620002c2565b5090565b5b80821115620002be5760008155600101620002c3565b614e7880620002e96000396000f3fe608060405234801561001057600080fd5b50600436106101ce5760003560e01c8063715018a611610104578063a457c2d7116100a2578063d34ee4c011610071578063d34ee4c0146106f6578063dd62ed3e14610729578063df9f856414610764578063f2fde38b1461076c576101ce565b8063a457c2d71461060d578063a47c12b514610646578063a9059cbb14610665578063bd8066211461069e576101ce565b80638bc7e8c4116100de5780638bc7e8c41461050a5780638da5cb5b1461053557806395d89b411461053d578063a22af85714610545576101ce565b8063715018a6146104855780637b123c3a1461048d57806380a35fbb146104e7576101ce565b8063313ce567116101715780634c1839181161014b5780634c183918146103d55780636c3f4e07146103fe5780636f827c341461042657806370a0823114610452576101ce565b8063313ce56714610369578063395093511461037157806347e6dece146103aa576101ce565b8063095ea7b3116101ad578063095ea7b3146102b757806318160ddd1461030457806318181a9c1461031e57806323b872dd14610326576101ce565b80627865b5146101d357806305300b281461021c57806306fdde031461023a575b600080fd5b6101f3600480360360208110156101e957600080fd5b503560ff1661079f565b6040805173ffffffffffffffffffffffffffffffffffffffff9092168252519081900360200190f35b6102246107d9565b6040805160ff9092168252519081900360200190f35b6102426107e8565b6040805160208082528351818301528351919283929083019185019080838360005b8381101561027c578181015183820152602001610264565b50505050905090810190601f1680156102a95780820380516001836020036101000a031916815260200191505b509250505060405180910390f35b6102f0600480360360408110156102cd57600080fd5b5073ffffffffffffffffffffffffffffffffffffffff813516906020013561089c565b604080519115158252519081900360200190f35b61030c6108ba565b60408051918252519081900360200190f35b61030c6108c0565b6102f06004803603606081101561033c57600080fd5b5073ffffffffffffffffffffffffffffffffffffffff813581169160208101359091169060400135610910565b6102246109b2565b6102f06004803603604081101561038757600080fd5b5073ffffffffffffffffffffffffffffffffffffffff81351690602001356109bb565b6103d3600480360360408110156103c057600080fd5b508035906020013563ffffffff16610a16565b005b6103d3600480360360408110156103eb57600080fd5b508035906020013563ffffffff16610e7c565b6103d36004803603604081101561041457600080fd5b5060ff8135811691602001351661122c565b6103d36004803603604081101561043c57600080fd5b50803560ff16906020013563ffffffff1661140c565b61030c6004803603602081101561046857600080fd5b503573ffffffffffffffffffffffffffffffffffffffff16611491565b6103d36114b9565b6104c9600480360360408110156104a357600080fd5b50803573ffffffffffffffffffffffffffffffffffffffff16906020013560ff166115c3565b60408051938452602084019290925282820152519081900360600190f35b6103d3600480360360208110156104fd57600080fd5b503563ffffffff16611693565b610512611dcc565b604051808360ff1681526020018260ff1681526020019250505060405180910390f35b6101f3611ddf565b610242611e00565b6103d36004803603606081101561055b57600080fd5b81019060208101813564010000000081111561057657600080fd5b82018360208201111561058857600080fd5b803590602001918460208302840111640100000000831117156105aa57600080fd5b9193909290916020810190356401000000008111156105c857600080fd5b8201836020820111156105da57600080fd5b803590602001918460208302840111640100000000831117156105fc57600080fd5b91935091503563ffffffff16611e7f565b6102f06004803603604081101561062357600080fd5b5073ffffffffffffffffffffffffffffffffffffffff813516906020013561251c565b6103d36004803603602081101561065c57600080fd5b50351515612591565b6102f06004803603604081101561067b57600080fd5b5073ffffffffffffffffffffffffffffffffffffffff8135169060200135612671565b6106a6612685565b60408051602080825283518183015283519192839290830191858101910280838360005b838110156106e25781810151838201526020016106ca565b505050509050019250505060405180910390f35b6102246004803603602081101561070c57600080fd5b503573ffffffffffffffffffffffffffffffffffffffff166127c3565b61030c6004803603604081101561073f57600080fd5b5073ffffffffffffffffffffffffffffffffffffffff813581169160200135166127ee565b61030c612826565b6103d36004803603602081101561078257600080fd5b503573ffffffffffffffffffffffffffffffffffffffff1661282c565b600060068260ff16815481106107b157fe5b60009182526020909120015473ffffffffffffffffffffffffffffffffffffffff1692915050565b60085462010000900460ff1690565b60038054604080516020601f60027fffffffffffffffffffffffffffffffffffffffffffffffffffffffffffffffff6101006001881615020190951694909404938401819004810282018101909252828152606093909290918301828280156108925780601f1061086757610100808354040283529160200191610892565b820191906000526020600020905b81548152906001019060200180831161087557829003601f168201915b5050505050905090565b60006108b06108a96129c6565b84846129ca565b5060015b92915050565b60025490565b60008060006108cd6108ba565b111561090b576109086108de6108ba565b610902670de0b6b3a76400006108fc6108f5612685565b6001612b11565b90612cf8565b90612d6b565b90505b905090565b600061091d848484612dad565b6109a7846109296129c6565b6109a285604051806060016040528060288152602001614cac6028913973ffffffffffffffffffffffffffffffffffffffff8a166000908152600160205260408120906109746129c6565b73ffffffffffffffffffffffffffffffffffffffff1681526020810191909152604001600020549190612f7d565b6129ca565b5060015b9392505050565b60055460ff1690565b60006108b06109c86129c6565b846109a285600160006109d96129c6565b73ffffffffffffffffffffffffffffffffffffffff908116825260208083019390935260409182016000908120918c16815292529020549061302e565b6001610a20612826565b1015610a8d57604080517f08c379a000000000000000000000000000000000000000000000000000000000815260206004820152601960248201527f5374726174656779206861736e2774206265656e207365742e00000000000000604482015290519081900360640190fd5b60095474010000000000000000000000000000000000000000900460ff16610b1657604080517f08c379a000000000000000000000000000000000000000000000000000000000815260206004820152601460248201527f4465706f7369742069732064697361626c65642e000000000000000000000000604482015290519081900360640190fd5b600954604080517fdd62ed3e0000000000000000000000000000000000000000000000000000000081523360048201523060248201529051849273ffffffffffffffffffffffffffffffffffffffff169163dd62ed3e916044808301926020929190829003018186803b158015610b8c57600080fd5b505afa158015610ba0573d6000803e3d6000fd5b505050506040513d6020811015610bb657600080fd5b50511015610c0f576040517f08c379a000000000000000000000000000000000000000000000000000000000815260040180806020018281038252602c815260200180614df2602c913960400191505060405180910390fd5b600954604080517f70a082310000000000000000000000000000000000000000000000000000000081523360048201529051849273ffffffffffffffffffffffffffffffffffffffff16916370a08231916024808301926020929190829003018186803b158015610c7f57600080fd5b505afa158015610c93573d6000803e3d6000fd5b505050506040513d6020811015610ca957600080fd5b50511015610d02576040517f08c379a0000000000000000000000000000000000000000000000000000000008152600401808060200182810382526027815260200180614af96027913960400191505060405180910390fd5b600954610d279073ffffffffffffffffffffffffffffffffffffffff163330856130a2565b6000610d316108c0565b600954909150600090610d5c90859073ffffffffffffffffffffffffffffffffffffffff168561313d565b9050610d6881846136f6565b506000610d736108ba565b610d8f57610d888566038d7ea4c68000612cf8565b9050610dcf565b6000610d9c6108f5612685565b90506000610db68561090284670de0b6b3a7640000612cf8565b9050610dca610dc36108ba565b829061381c565b925050505b610dd9338261385e565b337fb6612cab106733f4b1d00a1ce087eec48ed4655a50cf2faa2e46ff415db691b98683610e056108ba565b610e0d612685565b6040518085815260200184815260200183815260200180602001828103825283818151815260200191508051906020019060200280838360005b83811015610e5f578181015183820152602001610e47565b505050509050019550505050505060405180910390a25050505050565b60408051600280825260608083018452926020830190803683375050600a54604080517fad5c4648000000000000000000000000000000000000000000000000000000008152905193945073ffffffffffffffffffffffffffffffffffffffff9091169263ad5c464892506004808301926020929190829003018186803b158015610f0657600080fd5b505afa158015610f1a573d6000803e3d6000fd5b505050506040513d6020811015610f3057600080fd5b505181518290600090610f3f57fe5b73ffffffffffffffffffffffffffffffffffffffff9283166020918202929092010152600954825191169082906001908110610f7757fe5b73ffffffffffffffffffffffffffffffffffffffff928316602091820292909201810191909152600a54604080517f1f00ca7400000000000000000000000000000000000000000000000000000000815260048101888152602482019283528651604483015286516000969490941694631f00ca74948a948994909260649091019185820191028083838c5b8381101561101b578181015183820152602001611003565b50505050905001935050505060006040518083038186803b15801561103f57600080fd5b505afa158015611053573d6000803e3d6000fd5b505050506040513d6000823e601f3d9081017fffffffffffffffffffffffffffffffffffffffffffffffffffffffffffffffe0168201604052602081101561109a57600080fd5b81019080805160405193929190846401000000008211156110ba57600080fd5b9083019060208201858111156110cf57600080fd5b82518660208202830111640100000000821117156110ec57600080fd5b82525081516020918201928201910280838360005b83811015611119578181015183820152602001611101565b5050505090500160405250505060008151811061113257fe5b60209081029190910101516008549091506000906111679060ff80821661010090920481169182031690610902908590612cf8565b9050606061117c61117733611491565b61398f565b9050600061118b826000612b11565b9050828110156111e6576040517f08c379a000000000000000000000000000000000000000000000000000000000815260040180806020018281038252602d815260200180614cd4602d913960400191505060405180910390fd5b60006111fb82610902866402540be400612cf8565b905060006112156402540be400610902846108fc33611491565b90506112218189613aff565b505050505050505050565b6112346129c6565b600554610100900473ffffffffffffffffffffffffffffffffffffffff9081169116146112c257604080517f08c379a000000000000000000000000000000000000000000000000000000000815260206004820181905260248201527f4f776e61626c653a2063616c6c6572206973206e6f7420746865206f776e6572604482015290519081900360640190fd5b8060ff168260ff16111561133757604080517f08c379a000000000000000000000000000000000000000000000000000000000815260206004820152601b60248201527f466565206672616374696f6e20657863656564656420626173652e0000000000604482015290519081900360640190fd5b60008160ff168360640260ff168161134b57fe5b04905060028160ff1611156113ab576040517f08c379a0000000000000000000000000000000000000000000000000000000008152600401808060200182810382526029815260200180614bad6029913960400191505060405180910390fd5b506008805460ff928316610100027fffffffffffffffffffffffffffffffffffffffffffffffffffffffffffff00ff949093167fffffffffffffffffffffffffffffffffffffffffffffffffffffffffffffff009091161792909216179055565b60648260ff161115611469576040517f08c379a000000000000000000000000000000000000000000000000000000000815260040180806020018281038252602f815260200180614c1f602f913960400191505060405180910390fd5b600061148060646109028560ff166108fc33611491565b905061148c8183613aff565b505050565b73ffffffffffffffffffffffffffffffffffffffff1660009081526020819052604090205490565b6114c16129c6565b600554610100900473ffffffffffffffffffffffffffffffffffffffff90811691161461154f57604080517f08c379a000000000000000000000000000000000000000000000000000000000815260206004820181905260248201527f4f776e61626c653a2063616c6c6572206973206e6f7420746865206f776e6572604482015290519081900360640190fd5b600554604051600091610100900473ffffffffffffffffffffffffffffffffffffffff16907f8be0079c531659141344cd1fd0a4f28419497f9722a3daafe3b4186f6b6457e0908390a3600580547fffffffffffffffffffffff0000000000000000000000000000000000000000ff169055565b600080600060606115e261117760646109028860ff166108fc8b611491565b905060006115f1826001612b11565b90506000611600836000612b11565b60095490915060009061162c90849073ffffffffffffffffffffffffffffffffffffffff166001613cee565b60085490915060009061164f9060ff610100820481169161090291879116612cf8565b90506000611680611660858461381c565b60095473ffffffffffffffffffffffffffffffffffffffff166000613cee565b9298509196509450505050509250925092565b61169b6129c6565b600554610100900473ffffffffffffffffffffffffffffffffffffffff90811691161461172957604080517f08c379a000000000000000000000000000000000000000000000000000000000815260206004820181905260248201527f4f776e61626c653a2063616c6c6572206973206e6f7420746865206f776e6572604482015290519081900360640190fd5b6000611733612826565b1161179f57604080517f08c379a000000000000000000000000000000000000000000000000000000000815260206004820152601860248201527f5374726174656779206861736e2774206265656e207365740000000000000000604482015290519081900360640190fd5b600060606117ab612826565b67ffffffffffffffff811180156117c157600080fd5b506040519080825280602002602001820160405280156117eb578160200160208202803683370190505b50905060005b6117f9612826565b8160ff1610156119255760006118f360068360ff168154811061181857fe5b60009182526020918290200154604080517f70a08231000000000000000000000000000000000000000000000000000000008152306004820152905173ffffffffffffffffffffffffffffffffffffffff909216926370a0823192602480840193829003018186803b15801561188d57600080fd5b505afa1580156118a1573d6000803e3d6000fd5b505050506040513d60208110156118b757600080fd5b50516006805460ff86169081106118ca57fe5b60009182526020909120015473ffffffffffffffffffffffffffffffffffffffff166001613d97565b90506118ff848261302e565b935080838360ff168151811061191157fe5b6020908102919091010152506001016117f1565b506060611930612826565b67ffffffffffffffff8111801561194657600080fd5b50604051908082528060200260200182016040528015611970578160200160208202803683370190505b5090506000806060611980612826565b67ffffffffffffffff8111801561199657600080fd5b506040519080825280602002602001820160405280156119c0578160200160208202803683370190505b50905060005b6119ce612826565b8160ff161015611c19576007600060068360ff16815481106119ec57fe5b600091825260208083209091015473ffffffffffffffffffffffffffffffffffffffff168352820192909252604001902054855160ff918216918791908416908110611a3457fe5b602002602001019060ff16908160ff16815250506000611aa260646109026007600060068760ff1681548110611a6657fe5b600091825260208083209091015473ffffffffffffffffffffffffffffffffffffffff1683528201929092526040019020548b9060ff16612cf8565b905080878360ff1681518110611ab457fe5b602002602001015111611b3557611aea878360ff1681518110611ad357fe5b60200260200101518261381c90919063ffffffff16565b838360ff1681518110611af957fe5b602002602001018181525050611b2e838360ff1681518110611b1757fe5b60200260200101518661302e90919063ffffffff16565b9450611c10565b6000838360ff1681518110611b4657fe5b6020026020010181815250506000611b7d82898560ff1681518110611b6757fe5b602002602001015161381c90919063ffffffff16565b90506000611bbe8260068660ff1681548110611b9557fe5b60009182526020909120015473ffffffffffffffffffffffffffffffffffffffff166001613cee565b90506000611bfe8260068760ff1681548110611bd657fe5b60009182526020909120015473ffffffffffffffffffffffffffffffffffffffff168e61313d565b9050611c0a878261302e565b96505050505b506001016119c6565b5060005b611c25612826565b8160ff161015611ca6576000611c5e85610902858560ff1681518110611c4757fe5b602002602001015187612cf890919063ffffffff16565b9050611c9c8160068460ff1681548110611c7457fe5b60009182526020909120015473ffffffffffffffffffffffffffffffffffffffff168b613e38565b5050600101611c1d565b507f266da61503975711d4058ea98596fa73002f2ba34e14a1984d6b6c9f5d165991600685611cd3612685565b604051808060200180602001806020018481038452878181548152602001915080548015611d3757602002820191906000526020600020905b815473ffffffffffffffffffffffffffffffffffffffff168152600190910190602001808311611d0c575b50508481038352865181528651602091820191808901910280838360005b83811015611d6d578181015183820152602001611d55565b50505050905001848103825285818151815260200191508051906020019060200280838360005b83811015611dac578181015183820152602001611d94565b50505050905001965050505050505060405180910390a150505050505050565b60085460ff808216916101009004169091565b600554610100900473ffffffffffffffffffffffffffffffffffffffff1690565b60048054604080516020601f60027fffffffffffffffffffffffffffffffffffffffffffffffffffffffffffffffff6101006001881615020190951694909404938401819004810282018101909252828152606093909290918301828280156108925780601f1061086757610100808354040283529160200191610892565b611e876129c6565b600554610100900473ffffffffffffffffffffffffffffffffffffffff908116911614611f1557604080517f08c379a000000000000000000000000000000000000000000000000000000000815260206004820181905260248201527f4f776e61626c653a2063616c6c6572206973206e6f7420746865206f776e6572604482015290519081900360640190fd5b6001841015611f8557604080517f08c379a000000000000000000000000000000000000000000000000000000000815260206004820152601d60248201527f53657474696e6720737472617465677920746f203020746f6b656e732e000000604482015290519081900360640190fd5b6005841115611fdf576040517f08c379a0000000000000000000000000000000000000000000000000000000008152600401808060200182810382526027815260200180614d6b6027913960400191505060405180910390fd5b838214612037576040517f08c379a000000000000000000000000000000000000000000000000000000000815260040180806020018281038252603d815260200180614c4e603d913960400191505060405180910390fd5b6000805b60ff81168411156120705784848260ff1681811061205557fe5b9050602002013560ff1682019150808060010191505061203b565b508060ff166064146120cd576040517f08c379a0000000000000000000000000000000000000000000000000000000008152600401808060200182810382526023815260200180614bd66023913960400191505060405180910390fd5b6060600680548060200260200160405190810160405280929190818152602001828054801561213257602002820191906000526020600020905b815473ffffffffffffffffffffffffffffffffffffffff168152600190910190602001808311612107575b505050505090506060612143612826565b67ffffffffffffffff8111801561215957600080fd5b50604051908082528060200260200182016040528015612183578160200160208202803683370190505b50905060005b612191612826565b8160ff16101561227e576007600060068360ff16815481106121af57fe5b600091825260208083209091015473ffffffffffffffffffffffffffffffffffffffff168352820192909252604001902054825160ff9182169184919084169081106121f757fe5b602002602001019060ff16908160ff16815250506007600060068360ff168154811061221f57fe5b600091825260208083209091015473ffffffffffffffffffffffffffffffffffffffff168352820192909252604001902080547fffffffffffffffffffffffffffffffffffffffffffffffffffffffffffffff00169055600101612189565b50600061229261228c612685565b8661400a565b90506122a060068a8a614a39565b5060005b6122ac612826565b8160ff16101561234d5787878260ff168181106122c557fe5b9050602002013560ff166007600060068460ff16815481106122e357fe5b60009182526020808320919091015473ffffffffffffffffffffffffffffffffffffffff168352820192909252604001902080547fffffffffffffffffffffffffffffffffffffffffffffffffffffffffffffff001660ff929092169190911790556001016122a4565b5061235881866136f6565b507f78798c5f9f4b9bd15a3bce2ae480205cb99cf5b89b89b1bb505168c66887a948838360068a8a612388612685565b60405180806020018060200180602001806020018060200186810386528c818151815260200191508051906020019060200280838360005b838110156123d85781810151838201526020016123c0565b5050505090500186810385528b818151815260200191508051906020019060200280838360005b838110156124175781810151838201526020016123ff565b5050505090500186810384528a818154815260200191508054801561247257602002820191906000526020600020905b815473ffffffffffffffffffffffffffffffffffffffff168152600190910190602001808311612447575b505086810383528989828181526020019250602002808284376000838201819052601f9091017fffffffffffffffffffffffffffffffffffffffffffffffffffffffffffffffe0169092018881038452895181528951602091820193828c0193509102908190849084905b838110156124f55781810151838201526020016124dd565b505050509050019b50505050505050505050505060405180910390a1505050505050505050565b60006108b06125296129c6565b846109a285604051806060016040528060258152602001614e1e60259139600160006125536129c6565b73ffffffffffffffffffffffffffffffffffffffff908116825260208083019390935260409182016000908120918d16815292529020549190612f7d565b6125996129c6565b600554610100900473ffffffffffffffffffffffffffffffffffffffff90811691161461262757604080517f08c379a000000000000000000000000000000000000000000000000000000000815260206004820181905260248201527f4f776e61626c653a2063616c6c6572206973206e6f7420746865206f776e6572604482015290519081900360640190fd5b6009805491151574010000000000000000000000000000000000000000027fffffffffffffffffffffff00ffffffffffffffffffffffffffffffffffffffff909216919091179055565b60006108b061267e6129c6565b8484612dad565b606080612690612826565b67ffffffffffffffff811180156126a657600080fd5b506040519080825280602002602001820160405280156126d0578160200160208202803683370190505b50905060005b6126de612826565b8160ff1610156127bd5760068160ff16815481106126f857fe5b60009182526020918290200154604080517f70a08231000000000000000000000000000000000000000000000000000000008152306004820152905173ffffffffffffffffffffffffffffffffffffffff909216926370a0823192602480840193829003018186803b15801561276d57600080fd5b505afa158015612781573d6000803e3d6000fd5b505050506040513d602081101561279757600080fd5b50518251839060ff84169081106127aa57fe5b60209081029190910101526001016126d6565b50905090565b73ffffffffffffffffffffffffffffffffffffffff1660009081526007602052604090205460ff1690565b73ffffffffffffffffffffffffffffffffffffffff918216600090815260016020908152604080832093909416825291909152205490565b60065490565b6128346129c6565b600554610100900473ffffffffffffffffffffffffffffffffffffffff9081169116146128c257604080517f08c379a000000000000000000000000000000000000000000000000000000000815260206004820181905260248201527f4f776e61626c653a2063616c6c6572206973206e6f7420746865206f776e6572604482015290519081900360640190fd5b73ffffffffffffffffffffffffffffffffffffffff811661292e576040517f08c379a0000000000000000000000000000000000000000000000000000000008152600401808060200182810382526026815260200180614b656026913960400191505060405180910390fd5b60055460405173ffffffffffffffffffffffffffffffffffffffff80841692610100900416907f8be0079c531659141344cd1fd0a4f28419497f9722a3daafe3b4186f6b6457e090600090a36005805473ffffffffffffffffffffffffffffffffffffffff909216610100027fffffffffffffffffffffff0000000000000000000000000000000000000000ff909216919091179055565b3390565b73ffffffffffffffffffffffffffffffffffffffff8316612a36576040517f08c379a0000000000000000000000000000000000000000000000000000000008152600401808060200182810382526024815260200180614d476024913960400191505060405180910390fd5b73ffffffffffffffffffffffffffffffffffffffff8216612aa2576040517f08c379a0000000000000000000000000000000000000000000000000000000008152600401808060200182810382526022815260200180614b8b6022913960400191505060405180910390fd5b73ffffffffffffffffffffffffffffffffffffffff808416600081815260016020908152604080832094871680845294825291829020859055815185815291517f8c5be1e5ebec7d5bd14f71427d1e84f3dd0314c0f7b2291e5b200ac8c7c3b9259281900390910190a3505050565b6040805160028082526060808301845260009384939192906020830190803683375050600a54604080517fad5c4648000000000000000000000000000000000000000000000000000000008152905193945073ffffffffffffffffffffffffffffffffffffffff9091169263ad5c464892506004808301926020929190829003018186803b158015612ba257600080fd5b505afa158015612bb6573d6000803e3d6000fd5b505050506040513d6020811015612bcc57600080fd5b5051815182906001908110612bdd57fe5b602002602001019073ffffffffffffffffffffffffffffffffffffffff16908173ffffffffffffffffffffffffffffffffffffffff168152505060005b612c22612826565b8160ff161015612cee57600060068260ff1681548110612c3e57fe5b6000918252602082200154845173ffffffffffffffffffffffffffffffffffffffff909116925082918591612c6f57fe5b602002602001019073ffffffffffffffffffffffffffffffffffffffff16908173ffffffffffffffffffffffffffffffffffffffff16815250506000878360ff1681518110612cba57fe5b602002602001015190506000612cd182848a613d97565b9050612cdd868261302e565b95505060019092019150612c1a9050565b5090949350505050565b600082612d07575060006108b4565b82820282848281612d1457fe5b04146109ab576040517f08c379a0000000000000000000000000000000000000000000000000000000008152600401808060200182810382526021815260200180614c8b6021913960400191505060405180910390fd5b60006109ab83836040518060400160405280601a81526020017f536166654d6174683a206469766973696f6e206279207a65726f00000000000081525061408d565b73ffffffffffffffffffffffffffffffffffffffff8316612e19576040517f08c379a0000000000000000000000000000000000000000000000000000000008152600401808060200182810382526025815260200180614d226025913960400191505060405180910390fd5b73ffffffffffffffffffffffffffffffffffffffff8216612e85576040517f08c379a0000000000000000000000000000000000000000000000000000000008152600401808060200182810382526023815260200180614b206023913960400191505060405180910390fd5b612e9083838361148c565b612eda81604051806060016040528060268152602001614bf96026913973ffffffffffffffffffffffffffffffffffffffff86166000908152602081905260409020549190612f7d565b73ffffffffffffffffffffffffffffffffffffffff8085166000908152602081905260408082209390935590841681522054612f16908261302e565b73ffffffffffffffffffffffffffffffffffffffff8084166000818152602081815260409182902094909455805185815290519193928716927fddf252ad1be2c89b69c2b068fc378daa952ba7f163c4a11628f55a4df523b3ef92918290030190a3505050565b60008184841115613026576040517f08c379a00000000000000000000000000000000000000000000000000000000081526004018080602001828103825283818151815260200191508051906020019080838360005b83811015612feb578181015183820152602001612fd3565b50505050905090810190601f1680156130185780820380516001836020036101000a031916815260200191505b509250505060405180910390fd5b505050900390565b6000828201838110156109ab57604080517f08c379a000000000000000000000000000000000000000000000000000000000815260206004820152601b60248201527f536166654d6174683a206164646974696f6e206f766572666c6f770000000000604482015290519081900360640190fd5b6040805173ffffffffffffffffffffffffffffffffffffffff80861660248301528416604482015260648082018490528251808303909101815260849091019091526020810180517bffffffffffffffffffffffffffffffffffffffffffffffffffffffff167f23b872dd0000000000000000000000000000000000000000000000000000000017905261313790859061410c565b50505050565b600a54604080517fad5c4648000000000000000000000000000000000000000000000000000000008152905160009273ffffffffffffffffffffffffffffffffffffffff169163ad5c4648916004808301926020929190829003018186803b1580156131a857600080fd5b505afa1580156131bc573d6000803e3d6000fd5b505050506040513d60208110156131d257600080fd5b505173ffffffffffffffffffffffffffffffffffffffff848116911614806131f8575083155b156132045750826109ab565b6040805160028082526060808301845292602083019080368337019050509050838160008151811061323257fe5b73ffffffffffffffffffffffffffffffffffffffff928316602091820292909201810191909152600a54604080517fad5c46480000000000000000000000000000000000000000000000000000000081529051919093169263ad5c4648926004808301939192829003018186803b1580156132ac57600080fd5b505afa1580156132c0573d6000803e3d6000fd5b505050506040513d60208110156132d657600080fd5b50518151829060019081106132e757fe5b602002602001019073ffffffffffffffffffffffffffffffffffffffff16908173ffffffffffffffffffffffffffffffffffffffff16815250506133628160008151811061333157fe5b6020026020010151600860039054906101000a900473ffffffffffffffffffffffffffffffffffffffff16876141e4565b600a54604080517fd06ca61f000000000000000000000000000000000000000000000000000000008152600481018881526024820192835284516044830152845160009473ffffffffffffffffffffffffffffffffffffffff169363d06ca61f938b93889390929160640190602080860191028083838c5b838110156133f25781810151838201526020016133da565b50505050905001935050505060006040518083038186803b15801561341657600080fd5b505afa15801561342a573d6000803e3d6000fd5b505050506040513d6000823e601f3d9081017fffffffffffffffffffffffffffffffffffffffffffffffffffffffffffffffe0168201604052602081101561347157600080fd5b810190808051604051939291908464010000000082111561349157600080fd5b9083019060208201858111156134a657600080fd5b82518660208202830111640100000000821117156134c357600080fd5b82525081516020918201928201910280838360005b838110156134f05781810151838201526020016134d8565b5050505090500160405250505060018151811061350957fe5b60200260200101519050600a60009054906101000a900473ffffffffffffffffffffffffffffffffffffffff1673ffffffffffffffffffffffffffffffffffffffff166338ed173987838530896040518663ffffffff1660e01b815260040180868152602001858152602001806020018473ffffffffffffffffffffffffffffffffffffffff1681526020018363ffffffff168152602001828103825285818151815260200191508051906020019060200280838360005b838110156135d95781810151838201526020016135c1565b505050509050019650505050505050600060405180830381600087803b15801561360257600080fd5b505af1158015613616573d6000803e3d6000fd5b505050506040513d6000823e601f3d9081017fffffffffffffffffffffffffffffffffffffffffffffffffffffffffffffffe0168201604052602081101561365d57600080fd5b810190808051604051939291908464010000000082111561367d57600080fd5b90830190602082018581111561369257600080fd5b82518660208202830111640100000000821117156136af57600080fd5b82525081516020918201928201910280838360005b838110156136dc5781810151838201526020016136c4565b505050509050016040525050505080925050509392505050565b606080613701612826565b67ffffffffffffffff8111801561371757600080fd5b50604051908082528060200260200182016040528015613741578160200160208202803683370190505b50905060005b61374f612826565b8160ff1610156138145760006137b360646109026007600060068760ff168154811061377757fe5b600091825260208083209091015473ffffffffffffffffffffffffffffffffffffffff168352820192909252604001902054899060ff16612cf8565b90506137f18160068460ff16815481106137c957fe5b60009182526020909120015473ffffffffffffffffffffffffffffffffffffffff1687613e38565b838360ff168151811061380057fe5b602090810291909101015250600101613747565b509392505050565b60006109ab83836040518060400160405280601e81526020017f536166654d6174683a207375627472616374696f6e206f766572666c6f770000815250612f7d565b73ffffffffffffffffffffffffffffffffffffffff82166138e057604080517f08c379a000000000000000000000000000000000000000000000000000000000815260206004820152601f60248201527f45524332303a206d696e7420746f20746865207a65726f206164647265737300604482015290519081900360640190fd5b6138ec6000838361148c565b6002546138f9908261302e565b60025573ffffffffffffffffffffffffffffffffffffffff821660009081526020819052604090205461392c908261302e565b73ffffffffffffffffffffffffffffffffffffffff83166000818152602081815260408083209490945583518581529351929391927fddf252ad1be2c89b69c2b068fc378daa952ba7f163c4a11628f55a4df523b3ef9281900390910190a35050565b60608061399a612826565b67ffffffffffffffff811180156139b057600080fd5b506040519080825280602002602001820160405280156139da578160200160208202803683370190505b50905060006139f96139ea6108ba565b610902866402540be400612cf8565b905060005b613a06612826565b8160ff161015613af657613ad46402540be4006109028460068560ff1681548110613a2d57fe5b60009182526020918290200154604080517f70a08231000000000000000000000000000000000000000000000000000000008152306004820152905173ffffffffffffffffffffffffffffffffffffffff909216926370a0823192602480840193829003018186803b158015613aa257600080fd5b505afa158015613ab6573d6000803e3d6000fd5b505050506040513d6020811015613acc57600080fd5b505190612cf8565b838260ff1681518110613ae357fe5b60209081029190910101526001016139fe565b50909392505050565b6060613b0a8361398f565b9050613b163384614372565b6000613b22828461400a565b600854909150600090613b459060ff610100820481169161090291869116612cf8565b90506000613b75613b56848461381c565b60095473ffffffffffffffffffffffffffffffffffffffff1687613e38565b600954909150613b9c9073ffffffffffffffffffffffffffffffffffffffff1633836144bc565b600a54604080517fad5c46480000000000000000000000000000000000000000000000000000000081529051613c429273ffffffffffffffffffffffffffffffffffffffff169163ad5c4648916004808301926020929190829003018186803b158015613c0857600080fd5b505afa158015613c1c573d6000803e3d6000fd5b505050506040513d6020811015613c3257600080fd5b5051613c3c611ddf565b846144bc565b337f9dfaab8d9cf3cf8c531d0dbfcd7dcd22f353ccae0b4d1e96cfe491d86734ae73828489613c6f6108ba565b613c77612685565b6040518086815260200185815260200184815260200183815260200180602001828103825283818151815260200191508051906020019060200280838360005b83811015613ccf578181015183820152602001613cb7565b50505050905001965050505050505060405180910390a2505050505050565b6000613d8f84600a60009054906101000a900473ffffffffffffffffffffffffffffffffffffffff1673ffffffffffffffffffffffffffffffffffffffff1663ad5c46486040518163ffffffff1660e01b815260040160206040518083038186803b158015613d5c57600080fd5b505afa158015613d70573d6000803e3d6000fd5b505050506040513d6020811015613d8657600080fd5b50518585614549565b949350505050565b6000613d8f8484600a60009054906101000a900473ffffffffffffffffffffffffffffffffffffffff1673ffffffffffffffffffffffffffffffffffffffff1663ad5c46486040518163ffffffff1660e01b815260040160206040518083038186803b158015613e0657600080fd5b505afa158015613e1a573d6000803e3d6000fd5b505050506040513d6020811015613e3057600080fd5b505185614549565b600a54604080517fad5c4648000000000000000000000000000000000000000000000000000000008152905160009273ffffffffffffffffffffffffffffffffffffffff169163ad5c4648916004808301926020929190829003018186803b158015613ea357600080fd5b505afa158015613eb7573d6000803e3d6000fd5b505050506040513d6020811015613ecd57600080fd5b505173ffffffffffffffffffffffffffffffffffffffff84811691161480613ef3575083155b15613eff5750826109ab565b60408051600280825260608083018452926020830190803683375050600a54604080517fad5c4648000000000000000000000000000000000000000000000000000000008152905193945073ffffffffffffffffffffffffffffffffffffffff9091169263ad5c464892506004808301926020929190829003018186803b158015613f8957600080fd5b505afa158015613f9d573d6000803e3d6000fd5b505050506040513d6020811015613fb357600080fd5b505181518290600090613fc257fe5b602002602001019073ffffffffffffffffffffffffffffffffffffffff16908173ffffffffffffffffffffffffffffffffffffffff168152505083816001815181106132e757fe5b60008060005b614018612826565b8160ff161015613814576000614076868360ff168151811061403657fe5b602002602001015160068460ff168154811061404e57fe5b60009182526020909120015473ffffffffffffffffffffffffffffffffffffffff168761313d565b9050614082838261302e565b925050600101614010565b600081836140f6576040517f08c379a0000000000000000000000000000000000000000000000000000000008152602060048201818152835160248401528351909283926044909101919085019080838360008315612feb578181015183820152602001612fd3565b50600083858161410257fe5b0495945050505050565b606061416e826040518060400160405280602081526020017f5361666545524332303a206c6f772d6c6576656c2063616c6c206661696c65648152508573ffffffffffffffffffffffffffffffffffffffff166148489092919063ffffffff16565b80519091501561148c5780806020019051602081101561418d57600080fd5b505161148c576040517f08c379a000000000000000000000000000000000000000000000000000000000815260040180806020018281038252602a815260200180614d92602a913960400191505060405180910390fd5b8015806142905750604080517fdd62ed3e00000000000000000000000000000000000000000000000000000000815230600482015273ffffffffffffffffffffffffffffffffffffffff848116602483015291519185169163dd62ed3e91604480820192602092909190829003018186803b15801561426257600080fd5b505afa158015614276573d6000803e3d6000fd5b505050506040513d602081101561428c57600080fd5b5051155b6142e5576040517f08c379a0000000000000000000000000000000000000000000000000000000008152600401808060200182810382526036815260200180614dbc6036913960400191505060405180910390fd5b6040805173ffffffffffffffffffffffffffffffffffffffff8416602482015260448082018490528251808303909101815260649091019091526020810180517bffffffffffffffffffffffffffffffffffffffffffffffffffffffff167f095ea7b30000000000000000000000000000000000000000000000000000000017905261148c90849061410c565b73ffffffffffffffffffffffffffffffffffffffff82166143de576040517f08c379a0000000000000000000000000000000000000000000000000000000008152600401808060200182810382526021815260200180614d016021913960400191505060405180910390fd5b6143ea8260008361148c565b61443481604051806060016040528060228152602001614b436022913973ffffffffffffffffffffffffffffffffffffffff85166000908152602081905260409020549190612f7d565b73ffffffffffffffffffffffffffffffffffffffff8316600090815260208190526040902055600254614467908261381c565b60025560408051828152905160009173ffffffffffffffffffffffffffffffffffffffff8516917fddf252ad1be2c89b69c2b068fc378daa952ba7f163c4a11628f55a4df523b3ef9181900360200190a35050565b6040805173ffffffffffffffffffffffffffffffffffffffff8416602482015260448082018490528251808303909101815260649091019091526020810180517bffffffffffffffffffffffffffffffffffffffffffffffffffffffff167fa9059cbb0000000000000000000000000000000000000000000000000000000017905261148c90849061410c565b6040805160028082526060808301845260009390929190602083019080368337019050509050848160008151811061457d57fe5b602002602001019073ffffffffffffffffffffffffffffffffffffffff16908173ffffffffffffffffffffffffffffffffffffffff168152505083816001815181106145c557fe5b602002602001019073ffffffffffffffffffffffffffffffffffffffff16908173ffffffffffffffffffffffffffffffffffffffff16815250508060018151811061460c57fe5b602002602001015173ffffffffffffffffffffffffffffffffffffffff168160008151811061463757fe5b602002602001015173ffffffffffffffffffffffffffffffffffffffff16148061465f575085155b1561466d5785915050613d8f565b600a54604080517fd06ca61f000000000000000000000000000000000000000000000000000000008152600481018981526024820192835284516044830152845160009473ffffffffffffffffffffffffffffffffffffffff169363d06ca61f938c93889390929160640190602080860191028083838c5b838110156146fd5781810151838201526020016146e5565b50505050905001935050505060006040518083038186803b15801561472157600080fd5b505afa158015614735573d6000803e3d6000fd5b505050506040513d6000823e601f3d9081017fffffffffffffffffffffffffffffffffffffffffffffffffffffffffffffffe0168201604052602081101561477c57600080fd5b810190808051604051939291908464010000000082111561479c57600080fd5b9083019060208201858111156147b157600080fd5b82518660208202830111640100000000821117156147ce57600080fd5b82525081516020918201928201910280838360005b838110156147fb5781810151838201526020016147e3565b5050505090500160405250505060018151811061481457fe5b60200260200101519050831561483f576148366103e5610902836103e8612cf8565b92505050613d8f565b9150613d8f9050565b6060613d8f84846000858561485c856149b3565b6148c757604080517f08c379a000000000000000000000000000000000000000000000000000000000815260206004820152601d60248201527f416464726573733a2063616c6c20746f206e6f6e2d636f6e7472616374000000604482015290519081900360640190fd5b600060608673ffffffffffffffffffffffffffffffffffffffff1685876040518082805190602001908083835b6020831061493157805182527fffffffffffffffffffffffffffffffffffffffffffffffffffffffffffffffe090920191602091820191016148f4565b6001836020036101000a03801982511681845116808217855250505050505090500191505060006040518083038185875af1925050503d8060008114614993576040519150601f19603f3d011682016040523d82523d6000602084013e614998565b606091505b50915091506149a88282866149b9565b979650505050505050565b3b151590565b606083156149c85750816109ab565b8251156149d85782518084602001fd5b6040517f08c379a0000000000000000000000000000000000000000000000000000000008152602060048201818152845160248401528451859391928392604401919085019080838360008315612feb578181015183820152602001612fd3565b828054828255906000526020600020908101928215614ab1579160200282015b82811115614ab15781547fffffffffffffffffffffffff00000000000000000000000000000000000000001673ffffffffffffffffffffffffffffffffffffffff843516178255602090920191600190910190614a59565b50614abd929150614ac1565b5090565b5b80821115614abd5780547fffffffffffffffffffffffff0000000000000000000000000000000000000000168155600101614ac256fe417474656d7074656420746f206465706f736974206d6f7265207468616e2062616c616e63652e45524332303a207472616e7366657220746f20746865207a65726f206164647265737345524332303a206275726e20616d6f756e7420657863656564732062616c616e63654f776e61626c653a206e6577206f776e657220697320746865207a65726f206164647265737345524332303a20617070726f766520746f20746865207a65726f2061646472657373417474656d707420746f207365742070657263656e7461676520686967686572207468616e2032252e546f74616c20746f6b656e2070657263656e74616765206973206e6f7420313030252e45524332303a207472616e7366657220616d6f756e7420657863656564732062616c616e6365417474656d707420746f207769746864726177206d6f7265207468616e2031303025206f6620746865206173736574537472617465677920746f6b656e73206c656e67746820646f65736e2774206d6174636820746f6b656e2070657263656e74616765206c656e6774682e536166654d6174683a206d756c7469706c69636174696f6e206f766572666c6f7745524332303a207472616e7366657220616d6f756e74206578636565647320616c6c6f77616e6365417474656d707420746f207769746864726177206d6f7265207468616e2075736572277320686f6c64696e672e45524332303a206275726e2066726f6d20746865207a65726f206164647265737345524332303a207472616e736665722066726f6d20746865207a65726f206164647265737345524332303a20617070726f76652066726f6d20746865207a65726f206164647265737353657474696e6720737472617465677920746f206d6f7265207468616e203520746f6b656e732e5361666545524332303a204552433230206f7065726174696f6e20646964206e6f7420737563636565645361666545524332303a20617070726f76652066726f6d206e6f6e2d7a65726f20746f206e6f6e2d7a65726f20616c6c6f77616e6365436f6e7472616374206973206e6f7420616c6c6f77656420746f207370656e6420757365722773204452432e45524332303a2064656372656173656420616c6c6f77616e63652062656c6f77207a65726fa26469706673582212206ffeffb55496db8715f5b9ff39ca7992122d2f5b1f6644838a920e2deff9235064736f6c634300060c0033",
  "immutableReferences": {},
  "source": "// SPDX-License-Identifier: AGPL-3.0-or-later\n\npragma solidity ^0.6.6;\n\nimport \"@openzeppelin/contracts/access/Ownable.sol\";\nimport \"@openzeppelin/contracts/math/SafeMath.sol\";\nimport \"@openzeppelin/contracts/token/ERC20/ERC20.sol\";\nimport \"@openzeppelin/contracts/token/ERC20/SafeERC20.sol\";\nimport \"@openzeppelin/contracts/utils/ReentrancyGuard.sol\";\n\nimport \"./interfaces/Uniswap/IUniswapV2Router02.sol\";\nimport \"./interfaces/IDigitalReserve.sol\";\n\n/**\n * @dev Implementation of Digital Reserve contract.\n * Digital Reserve contract converts user's DRC into a set of SoV assets using the Uniswap router,\n * and hold these assets for it's users.\n * When users initiate a withdrawal action, the contract converts a share of the vault,\n * that the user is requesting, to DRC and sends it back to their wallet.\n */\ncontract DigitalReserve is IDigitalReserve, ERC20, Ownable {\n    using SafeMath for uint256;\n\n    /**\n     * @dev Set Uniswap router address, DRC token address, DR name.\n     */\n    constructor(\n        address _router,\n        address _drcAddress,\n        string memory _name\n    ) public ERC20(_name, \"DR-POD\") {\n        drcAddress = _drcAddress;\n        router = _router;\n        uniswapRouter = IUniswapV2Router02(_router);\n    }\n\n    address[] private _strategyTokens;\n    mapping(address => uint8) private _tokenPercentage;\n    uint8 private _withdrawalFeeFraction = 1;\n    uint8 private _withdrawalFeeBase = 100;\n    uint8 private _priceDecimals = 18;\n\n    address private router;\n    address private drcAddress;\n\n    bool private depositEnabled = false;\n\n    IUniswapV2Router02 private uniswapRouter;\n\n    /**\n     * @dev See {IDigitalReserve-strategyTokenCount}.\n     */\n    function strategyTokenCount() public view override returns (uint256) {\n        return _strategyTokens.length;\n    }\n\n    /**\n     * @dev See {IDigitalReserve-strategyTokens}.\n     */\n    function strategyTokens(uint8 index) external view override returns (address) {\n        return _strategyTokens[index];\n    }\n\n    /**\n     * @dev See {IDigitalReserve-tokenPercentage}.\n     */\n    function tokenPercentage(address tokenAddress) external view override returns (uint8) {\n        return _tokenPercentage[tokenAddress];\n    }\n\n    /**\n     * @dev See {IDigitalReserve-withdrawalFee}.\n     */\n    function withdrawalFee() external view override returns (uint8, uint8) {\n        return (_withdrawalFeeFraction, _withdrawalFeeBase);\n    }\n\n    /**\n     * @dev See {IDigitalReserve-priceDecimals}.\n     */\n    function priceDecimals() external view override returns (uint8) {\n        return _priceDecimals;\n    }\n\n    /**\n     * @dev See {IDigitalReserve-totalTokenStored}.\n     */\n    function totalTokenStored() public view override returns (uint256[] memory) {\n        uint256[] memory amounts = new uint256[](strategyTokenCount());\n        for (uint8 i = 0; i < strategyTokenCount(); i++) {\n            amounts[i] = IERC20(_strategyTokens[i]).balanceOf(address(this));\n        }\n        return amounts;\n    }\n\n    /**\n     * @dev See {IDigitalReserve-getUserVaultInDrc}.\n     */\n    function getUserVaultInDrc(\n        address user, \n        uint8 percentage\n    ) public view override returns (uint256, uint256, uint256) {\n        uint256[] memory userStrategyTokens = _getStrategyTokensByPodAmount(balanceOf(user).mul(percentage).div(100));\n        uint256 userVaultWorthInEth = _getEthAmountByStrategyTokensAmount(userStrategyTokens, true);\n        uint256 userVaultWorthInEthAfterSwap = _getEthAmountByStrategyTokensAmount(userStrategyTokens, false);\n\n        uint256 drcAmountBeforeFees = _getTokenAmountByEthAmount(userVaultWorthInEth, drcAddress, true);\n\n        uint256 fees = userVaultWorthInEthAfterSwap.mul(_withdrawalFeeFraction).div(_withdrawalFeeBase);\n        uint256 drcAmountAfterFees = _getTokenAmountByEthAmount(userVaultWorthInEthAfterSwap.sub(fees), drcAddress, false);\n\n        return (drcAmountBeforeFees, drcAmountAfterFees, fees);\n    }\n\n    /**\n     * @dev See {IDigitalReserve-getProofOfDepositPrice}.\n     */\n    function getProofOfDepositPrice() public view override returns (uint256) {\n        uint256 proofOfDepositPrice;\n        if (totalSupply() > 0) {\n            proofOfDepositPrice = _getEthAmountByStrategyTokensAmount(totalTokenStored(), true).mul(1e18).div(totalSupply());\n        }\n        return proofOfDepositPrice;\n    }\n\n    /**\n     * @dev See {IDigitalReserve-depositDrc}.\n     */\n    function depositDrc(uint256 drcAmount, uint32 deadline) external override {\n        require(strategyTokenCount() >= 1, \"Strategy hasn't been set.\");\n        require(depositEnabled, \"Deposit is disabled.\");\n        require(IERC20(drcAddress).allowance(msg.sender, address(this)) >= drcAmount, \"Contract is not allowed to spend user's DRC.\");\n        require(IERC20(drcAddress).balanceOf(msg.sender) >= drcAmount, \"Attempted to deposit more than balance.\");\n\n        SafeERC20.safeTransferFrom(IERC20(drcAddress), msg.sender, address(this), drcAmount);\n\n        // Get current unit price before adding tokens to vault\n        uint256 currentPodUnitPrice = getProofOfDepositPrice();\n\n        uint256 ethConverted = _convertTokenToEth(drcAmount, drcAddress, deadline);\n        _convertEthToStrategyTokens(ethConverted, deadline);\n\n        uint256 podToMint = 0;\n        if (totalSupply() == 0) {\n            podToMint = drcAmount.mul(1e15);\n        } else {\n            uint256 vaultTotalInEth = _getEthAmountByStrategyTokensAmount(totalTokenStored(), true);\n            uint256 newPodTotal = vaultTotalInEth.mul(1e18).div(currentPodUnitPrice);\n            podToMint = newPodTotal.sub(totalSupply());\n        }\n\n        _mint(msg.sender, podToMint);\n\n        emit Deposit(msg.sender, drcAmount, podToMint, totalSupply(), totalTokenStored());\n    }\n\n    /**\n     * @dev See {IDigitalReserve-withdrawDrc}.\n     */\n    function withdrawDrc(uint256 drcAmount, uint32 deadline) external override {\n        address[] memory path = new address[](2);\n        path[0] = uniswapRouter.WETH();\n        path[1] = drcAddress;\n\n        uint256 ethNeeded = uniswapRouter.getAmountsIn(drcAmount, path)[0];\n        uint256 ethNeededPlusFee = ethNeeded.mul(_withdrawalFeeBase).div(_withdrawalFeeBase - _withdrawalFeeFraction);\n\n        uint256[] memory userStrategyTokens = _getStrategyTokensByPodAmount(balanceOf(msg.sender));\n        uint256 userVaultWorth = _getEthAmountByStrategyTokensAmount(userStrategyTokens, false);\n\n        require(userVaultWorth >= ethNeededPlusFee, \"Attempt to withdraw more than user's holding.\");\n\n        uint256 amountFraction = ethNeededPlusFee.mul(1e10).div(userVaultWorth);\n        uint256 podToBurn = balanceOf(msg.sender).mul(amountFraction).div(1e10);\n\n        _withdrawProofOfDeposit(podToBurn, deadline);\n    }\n\n    /**\n     * @dev See {IDigitalReserve-withdrawPercentage}.\n     */\n    function withdrawPercentage(uint8 percentage, uint32 deadline) external override {\n        require(percentage <= 100, \"Attempt to withdraw more than 100% of the asset\");\n\n        uint256 podToBurn = balanceOf(msg.sender).mul(percentage).div(100);\n        _withdrawProofOfDeposit(podToBurn, deadline);\n    }\n\n    /**\n     * @dev Enable or disable deposit.\n     * @param status Deposit allowed or not\n     * Disable deposit if it is to protect users' fund if there's any security issue or assist DR upgrade.\n     */\n    function changeDepositStatus(bool status) external onlyOwner {\n        depositEnabled = status;\n    }\n\n    /**\n     * @dev Change withdrawal fee percentage.\n     * If 1%, then input (1,100)\n     * If 0.5%, then input (5,1000)\n     * @param withdrawalFeeFraction_ Fraction of withdrawal fee based on withdrawalFeeBase_\n     * @param withdrawalFeeBase_ Fraction of withdrawal fee base\n     */\n    function changeFee(uint8 withdrawalFeeFraction_, uint8 withdrawalFeeBase_) external onlyOwner {\n        require(withdrawalFeeFraction_ <= withdrawalFeeBase_, \"Fee fraction exceeded base.\");\n        uint8 percentage = (withdrawalFeeFraction_ * 100) / withdrawalFeeBase_;\n        require(percentage <= 2, \"Attempt to set percentage higher than 2%.\"); // Requested by community\n\n        _withdrawalFeeFraction = withdrawalFeeFraction_;\n        _withdrawalFeeBase = withdrawalFeeBase_;\n    }\n\n    /**\n     * @dev Set or change DR strategy tokens and allocations.\n     * @param strategyTokens_ Array of strategy tokens.\n     * @param tokenPercentage_ Array of strategy tokens' percentage allocations.\n     * @param deadline Unix timestamp after which the transaction will revert.\n     */\n    function changeStrategy(\n        address[] calldata strategyTokens_,\n        uint8[] calldata tokenPercentage_,\n        uint32 deadline\n    ) external onlyOwner {\n        require(strategyTokens_.length >= 1, \"Setting strategy to 0 tokens.\");\n        require(strategyTokens_.length <= 5, \"Setting strategy to more than 5 tokens.\");\n        require(strategyTokens_.length == tokenPercentage_.length, \"Strategy tokens length doesn't match token percentage length.\");\n\n        uint8 totalPercentage = 0;\n        for (uint8 i = 0; i < tokenPercentage_.length; i++) {\n            totalPercentage += tokenPercentage_[i];\n        }\n        require(totalPercentage == 100, \"Total token percentage is not 100%.\");\n\n        address[] memory oldTokens = _strategyTokens;\n        uint8[] memory oldPercentage = new uint8[](strategyTokenCount());\n        for (uint8 i = 0; i < strategyTokenCount(); i++) {\n            oldPercentage[i] = _tokenPercentage[_strategyTokens[i]];\n            delete _tokenPercentage[_strategyTokens[i]];\n        }\n\n        // Before mutate strategyTokens, convert current strategy tokens to ETH\n        uint256 ethConverted = _convertStrategyTokensToEth(totalTokenStored(), deadline);\n\n        _strategyTokens = strategyTokens_;\n        for (uint8 i = 0; i < strategyTokenCount(); i++) {\n            _tokenPercentage[_strategyTokens[i]] = tokenPercentage_[i];\n        }\n\n        _convertEthToStrategyTokens(ethConverted, deadline);\n\n        emit StrategyChange(oldTokens, oldPercentage, _strategyTokens, tokenPercentage_, totalTokenStored());\n    }\n\n    /**\n     * @dev Realigning the weighting of a portfolio of assets to the strategy allocation that is defined.\n     * Only convert the amount that's necessory to convert to not be charged 0.3% uniswap fee for everything.\n     * This in total saves 0.6% fee for majority of the assets.\n     * @param deadline Unix timestamp after which the transaction will revert.\n     */\n    function rebalance(uint32 deadline) external onlyOwner {\n        require(strategyTokenCount() > 0, \"Strategy hasn't been set\");\n\n        // Get each tokens worth and the total worth in ETH\n        uint256 totalWorthInEth;\n        uint256[] memory tokensWorthInEth = new uint256[](strategyTokenCount());\n\n        for (uint8 i = 0; i < strategyTokenCount(); i++) {\n            uint256 tokenWorth = _getEthAmountByTokenAmount(IERC20(_strategyTokens[i]).balanceOf(address(this)), _strategyTokens[i], true);\n            totalWorthInEth = totalWorthInEth.add(tokenWorth);\n            tokensWorthInEth[i] = tokenWorth;\n        }\n\n        uint8[] memory percentageArray = new uint8[](strategyTokenCount()); // Get percentages for event param\n        uint256 totalInEthToConvert = 0; // Get total token worth in ETH needed to be converted\n        uint256 totalEthConverted = 0; // Get total token worth in ETH needed to be converted\n        uint256[] memory tokenInEthNeeded = new uint256[](strategyTokenCount()); // Get token worth need to be filled\n\n        for (uint8 i = 0; i < strategyTokenCount(); i++) {\n            percentageArray[i] = _tokenPercentage[_strategyTokens[i]];\n\n            uint256 tokenShouldWorth = totalWorthInEth.mul(_tokenPercentage[_strategyTokens[i]]).div(100);\n\n            if (tokensWorthInEth[i] <= tokenShouldWorth) {\n                // If token worth less than should be, calculate the diff and store as needed\n                tokenInEthNeeded[i] = tokenShouldWorth.sub(tokensWorthInEth[i]);\n                totalInEthToConvert = totalInEthToConvert.add(tokenInEthNeeded[i]);\n            } else {\n                tokenInEthNeeded[i] = 0;\n\n                // If token worth more than should be, convert the overflowed amount to ETH\n                uint256 tokenInEthOverflowed = tokensWorthInEth[i].sub(tokenShouldWorth);\n                uint256 tokensToConvert = _getTokenAmountByEthAmount(tokenInEthOverflowed, _strategyTokens[i], true);\n                uint256 ethConverted = _convertTokenToEth(tokensToConvert, _strategyTokens[i], deadline);\n                totalEthConverted = totalEthConverted.add(ethConverted);\n            }\n            // Need the total value to help calculate how to distributed the converted ETH\n        }\n\n        // Distribute newly converted ETH by portion of each token to be converted to, and convert to that token needed.\n        // Note: totalEthConverted would be a bit smaller than totalInEthToConvert due to Uniswap fee.\n        // Converting everything is another way of rebalancing, but Uniswap would take 0.6% fee on everything.\n        // In this method we reach the closest number with the lowest possible swapping fee.\n        for (uint8 i = 0; i < strategyTokenCount(); i++) {\n            uint256 ethToConvert = totalEthConverted.mul(tokenInEthNeeded[i]).div(totalInEthToConvert);\n            _convertEthToToken(ethToConvert, _strategyTokens[i], deadline);\n        }\n\n        emit Rebalance(_strategyTokens, percentageArray, totalTokenStored());\n    }\n\n    /**\n     * @dev Withdraw DRC by DR-POD amount to burn.\n     * @param podToBurn Amount of DR-POD to burn in exchange for DRC.\n     * @param deadline Unix timestamp after which the transaction will revert.\n     */\n    function _withdrawProofOfDeposit(uint256 podToBurn, uint32 deadline) private {\n        uint256[] memory strategyTokensToWithdraw = _getStrategyTokensByPodAmount(podToBurn);\n\n        _burn(msg.sender, podToBurn);\n\n        uint256 ethConverted = _convertStrategyTokensToEth(strategyTokensToWithdraw, deadline);\n        uint256 fees = ethConverted.mul(_withdrawalFeeFraction).div(_withdrawalFeeBase);\n\n        uint256 drcAmount = _convertEthToToken(ethConverted.sub(fees), drcAddress, deadline);\n\n        SafeERC20.safeTransfer(IERC20(drcAddress), msg.sender, drcAmount);\n        SafeERC20.safeTransfer(IERC20(uniswapRouter.WETH()), owner(), fees);\n\n        emit Withdraw(msg.sender, drcAmount, fees, podToBurn, totalSupply(), totalTokenStored());\n    }\n\n    /**\n     * @dev Get ETH worth of a certain amount of a token.\n     * @param _amount Amount of token to convert.\n     * @param _fromAddress Address of token to convert from.\n     * @param _toAddress Address of token to convert to.\n     * @param excludeFees If uniswap fees is considered.\n     */\n    function _getAAmountByBAmount(\n        uint256 _amount,\n        address _fromAddress,\n        address _toAddress,\n        bool excludeFees\n    ) private view returns (uint256) {\n        address[] memory path = new address[](2);\n        path[0] = _fromAddress;\n        path[1] = _toAddress;\n\n        if (path[0] == path[1] || _amount == 0) {\n            return _amount;\n        }\n\n        uint256 amountOut = uniswapRouter.getAmountsOut(_amount, path)[1];\n\n        if (excludeFees) {\n            return amountOut.mul(1000).div(997);\n        } else {\n            return amountOut;\n        }\n    }\n\n    /**\n     * @dev Get the worth in a token of a certain amount of ETH.\n     * @param _amount Amount of ETH to convert.\n     * @param _tokenAddress Address of the token to convert to.\n     * @param excludeFees If uniswap fees is considered.\n     */\n    function _getTokenAmountByEthAmount(\n        uint256 _amount,\n        address _tokenAddress,\n        bool excludeFees\n    ) private view returns (uint256) {\n        return _getAAmountByBAmount(_amount, uniswapRouter.WETH(), _tokenAddress, excludeFees);\n    }\n\n    /**\n     * @dev Get ETH worth of a certain amount of a token.\n     * @param _amount Amount of token to convert.\n     * @param _tokenAddress Address of token to convert from.\n     * @param excludeFees If uniswap fees is considered.\n     */\n    function _getEthAmountByTokenAmount(\n        uint256 _amount,\n        address _tokenAddress,\n        bool excludeFees\n    ) private view returns (uint256) {\n        return _getAAmountByBAmount(_amount, _tokenAddress, uniswapRouter.WETH(), excludeFees);\n    }\n\n    /**\n     * @dev Get ETH worth of an array of strategy tokens.\n     * @param strategyTokensBalance_ Array amounts of strategy tokens to convert.\n     * @param excludeFees If uniswap fees is considered.\n     */\n    function _getEthAmountByStrategyTokensAmount(\n        uint256[] memory strategyTokensBalance_, \n        bool excludeFees\n    ) private view returns (uint256) {\n        uint256 amountOut;\n        address[] memory path = new address[](2);\n        path[1] = uniswapRouter.WETH();\n\n        for (uint8 i = 0; i < strategyTokenCount(); i++) {\n            address tokenAddress = _strategyTokens[i];\n            path[0] = tokenAddress;\n            uint256 tokenAmount = strategyTokensBalance_[i];\n            uint256 tokenAmountInEth = _getEthAmountByTokenAmount(tokenAmount, tokenAddress, excludeFees);\n\n            amountOut = amountOut.add(tokenAmountInEth);\n        }\n        return amountOut;\n    }\n\n    /**\n     * @dev Get DR-POD worth in an array of strategy tokens.\n     * @param _amount Amount of DR-POD to convert.\n     */\n    function _getStrategyTokensByPodAmount(uint256 _amount) private view returns (uint256[] memory) {\n        uint256[] memory strategyTokenAmount = new uint256[](strategyTokenCount());\n\n        uint256 podFraction = _amount.mul(1e10).div(totalSupply());\n        for (uint8 i = 0; i < strategyTokenCount(); i++) {\n            strategyTokenAmount[i] = IERC20(_strategyTokens[i]).balanceOf(address(this)).mul(podFraction).div(1e10);\n        }\n        return strategyTokenAmount;\n    }\n\n    /**\n     * @dev Convert a token to WETH via the Uniswap router.\n     * @param _amount Amount of tokens to swap.\n     * @param _tokenAddress Address of token to swap.\n     * @param deadline Unix timestamp after which the transaction will revert.\n     */\n    function _convertTokenToEth(\n        uint256 _amount,\n        address _tokenAddress,\n        uint32 deadline\n    ) private returns (uint256) {\n        if (_tokenAddress == uniswapRouter.WETH() || _amount == 0) {\n            return _amount;\n        }\n        address[] memory path = new address[](2);\n        path[0] = _tokenAddress;\n        path[1] = uniswapRouter.WETH();\n        SafeERC20.safeApprove(IERC20(path[0]), router, _amount);\n        uint256 amountOut = uniswapRouter.getAmountsOut(_amount, path)[1];\n        uniswapRouter.swapExactTokensForTokens(_amount, amountOut, path, address(this), deadline);\n        return amountOut;\n    }\n\n    /**\n     * @dev Convert ETH to another token via the Uniswap router.\n     * @param _amount Amount of WETH to swap.\n     * @param _tokenAddress Address of token to swap to.\n     * @param deadline Unix timestamp after which the transaction will revert.\n     */\n    function _convertEthToToken(\n        uint256 _amount,\n        address _tokenAddress,\n        uint32 deadline\n    ) private returns (uint256) {\n        if (_tokenAddress == uniswapRouter.WETH() || _amount == 0) {\n            return _amount;\n        }\n        address[] memory path = new address[](2);\n        path[0] = uniswapRouter.WETH();\n        path[1] = _tokenAddress;\n        SafeERC20.safeApprove(IERC20(path[0]), router, _amount);\n        uint256 amountOut = uniswapRouter.getAmountsOut(_amount, path)[1];\n        uniswapRouter.swapExactTokensForTokens(_amount, amountOut, path, address(this), deadline);\n        return amountOut;\n    }\n\n    /**\n     * @dev Convert ETH to strategy tokens of DR in their allocation percentage.\n     * @param amount Amount of WETH to swap.\n     * @param deadline Unix timestamp after which the transaction will revert.\n     */\n    function _convertEthToStrategyTokens(\n        uint256 amount, \n        uint32 deadline\n    ) private returns (uint256[] memory) {\n        uint256[] memory amounts = new uint256[](strategyTokenCount());\n        for (uint8 i = 0; i < strategyTokenCount(); i++) {\n            uint256 amountToConvert = amount.mul(_tokenPercentage[_strategyTokens[i]]).div(100);\n            amounts[i] = _convertEthToToken(amountToConvert, _strategyTokens[i], deadline);\n        }\n        return amounts;\n    }\n\n    /**\n     * @dev Convert strategy tokens to WETH.\n     * @param amountToConvert Array of the amounts of strategy tokens to swap.\n     * @param deadline Unix timestamp after which the transaction will revert.\n     */\n    function _convertStrategyTokensToEth(\n        uint256[] memory amountToConvert, \n        uint32 deadline\n    ) private returns (uint256) {\n        uint256 ethConverted;\n        for (uint8 i = 0; i < strategyTokenCount(); i++) {\n            uint256 amountConverted = _convertTokenToEth(amountToConvert[i], _strategyTokens[i], deadline);\n            ethConverted = ethConverted.add(amountConverted);\n        }\n        return ethConverted;\n    }\n}\n",
  "sourcePath": "/Users/fayexue/if-x-github/digital-reserve/contracts/DigitalReserve.sol",
  "compiler": {
    "name": "solc",
    "version": "0.6.12+commit.27d51765.Emscripten.clang"
  },
  "schemaVersion": "3.3.3",
  "updatedAt": "2021-02-10T22:40:26.790Z",
  "devdoc": {
    "details": "Implementation of Digital Reserve contract. Digital Reserve contract converts user's DRC into a set of SoV assets using the Uniswap router, and hold these assets for it's users. When users initiate a withdrawal action, the contract converts a share of the vault, that the user is requesting, to DRC and sends it back to their wallet.",
    "kind": "dev",
    "methods": {
      "allowance(address,address)": {
        "details": "See {IERC20-allowance}."
      },
      "approve(address,uint256)": {
        "details": "See {IERC20-approve}. Requirements: - `spender` cannot be the zero address."
      },
      "balanceOf(address)": {
        "details": "See {IERC20-balanceOf}."
      },
      "changeDepositStatus(bool)": {
        "details": "Enable or disable deposit.",
        "params": {
          "status": "Deposit allowed or not Disable deposit if it is to protect users' fund if there's any security issue or assist DR upgrade."
        }
      },
      "changeFee(uint8,uint8)": {
        "details": "Change withdrawal fee percentage. If 1%, then input (1,100) If 0.5%, then input (5,1000)",
        "params": {
          "withdrawalFeeBase_": "Fraction of withdrawal fee base",
          "withdrawalFeeFraction_": "Fraction of withdrawal fee based on withdrawalFeeBase_"
        }
      },
      "changeStrategy(address[],uint8[],uint32)": {
        "details": "Set or change DR strategy tokens and allocations.",
        "params": {
          "deadline": "Unix timestamp after which the transaction will revert.",
          "strategyTokens_": "Array of strategy tokens.",
          "tokenPercentage_": "Array of strategy tokens' percentage allocations."
        }
      },
      "constructor": {
        "details": "Set Uniswap router address, DRC token address, DR name."
      },
      "decimals()": {
        "details": "Returns the number of decimals used to get its user representation. For example, if `decimals` equals `2`, a balance of `505` tokens should be displayed to a user as `5,05` (`505 / 10 ** 2`). Tokens usually opt for a value of 18, imitating the relationship between Ether and Wei. This is the value {ERC20} uses, unless {_setupDecimals} is called. NOTE: This information is only used for _display_ purposes: it in no way affects any of the arithmetic of the contract, including {IERC20-balanceOf} and {IERC20-transfer}."
      },
      "decreaseAllowance(address,uint256)": {
        "details": "Atomically decreases the allowance granted to `spender` by the caller. This is an alternative to {approve} that can be used as a mitigation for problems described in {IERC20-approve}. Emits an {Approval} event indicating the updated allowance. Requirements: - `spender` cannot be the zero address. - `spender` must have allowance for the caller of at least `subtractedValue`."
      },
      "depositDrc(uint256,uint32)": {
        "details": "See {IDigitalReserve-depositDrc}."
      },
      "getProofOfDepositPrice()": {
        "details": "See {IDigitalReserve-getProofOfDepositPrice}."
      },
      "getUserVaultInDrc(address,uint8)": {
        "details": "See {IDigitalReserve-getUserVaultInDrc}."
      },
      "increaseAllowance(address,uint256)": {
        "details": "Atomically increases the allowance granted to `spender` by the caller. This is an alternative to {approve} that can be used as a mitigation for problems described in {IERC20-approve}. Emits an {Approval} event indicating the updated allowance. Requirements: - `spender` cannot be the zero address."
      },
      "name()": {
        "details": "Returns the name of the token."
      },
      "owner()": {
        "details": "Returns the address of the current owner."
      },
      "priceDecimals()": {
        "details": "See {IDigitalReserve-priceDecimals}."
      },
      "rebalance(uint32)": {
        "details": "Realigning the weighting of a portfolio of assets to the strategy allocation that is defined. Only convert the amount that's necessory to convert to not be charged 0.3% uniswap fee for everything. This in total saves 0.6% fee for majority of the assets.",
        "params": {
          "deadline": "Unix timestamp after which the transaction will revert."
        }
      },
      "renounceOwnership()": {
        "details": "Leaves the contract without owner. It will not be possible to call `onlyOwner` functions anymore. Can only be called by the current owner. NOTE: Renouncing ownership will leave the contract without an owner, thereby removing any functionality that is only available to the owner."
      },
      "strategyTokenCount()": {
        "details": "See {IDigitalReserve-strategyTokenCount}."
      },
      "strategyTokens(uint8)": {
        "details": "See {IDigitalReserve-strategyTokens}."
      },
      "symbol()": {
        "details": "Returns the symbol of the token, usually a shorter version of the name."
      },
      "tokenPercentage(address)": {
        "details": "See {IDigitalReserve-tokenPercentage}."
      },
      "totalSupply()": {
        "details": "See {IERC20-totalSupply}."
      },
      "totalTokenStored()": {
        "details": "See {IDigitalReserve-totalTokenStored}."
      },
      "transfer(address,uint256)": {
        "details": "See {IERC20-transfer}. Requirements: - `recipient` cannot be the zero address. - the caller must have a balance of at least `amount`."
      },
      "transferFrom(address,address,uint256)": {
        "details": "See {IERC20-transferFrom}. Emits an {Approval} event indicating the updated allowance. This is not required by the EIP. See the note at the beginning of {ERC20}. Requirements: - `sender` and `recipient` cannot be the zero address. - `sender` must have a balance of at least `amount`. - the caller must have allowance for ``sender``'s tokens of at least `amount`."
      },
      "transferOwnership(address)": {
        "details": "Transfers ownership of the contract to a new account (`newOwner`). Can only be called by the current owner."
      },
      "withdrawDrc(uint256,uint32)": {
        "details": "See {IDigitalReserve-withdrawDrc}."
      },
      "withdrawPercentage(uint8,uint32)": {
        "details": "See {IDigitalReserve-withdrawPercentage}."
      },
      "withdrawalFee()": {
        "details": "See {IDigitalReserve-withdrawalFee}."
      }
    },
    "version": 1
  },
  "userdoc": {
    "kind": "user",
    "methods": {},
    "version": 1
  }
}