{
  "contractName": "DigitalReserve",
  "abi": [
    {
      "inputs": [
        {
          "internalType": "address",
          "name": "_router",
          "type": "address"
        },
        {
          "internalType": "address",
          "name": "_drcAddress",
          "type": "address"
        }
      ],
      "stateMutability": "nonpayable",
      "type": "constructor"
    },
    {
      "anonymous": false,
      "inputs": [
        {
          "indexed": true,
          "internalType": "address",
          "name": "owner",
          "type": "address"
        },
        {
          "indexed": true,
          "internalType": "address",
          "name": "spender",
          "type": "address"
        },
        {
          "indexed": false,
          "internalType": "uint256",
          "name": "value",
          "type": "uint256"
        }
      ],
      "name": "Approval",
      "type": "event"
    },
    {
      "anonymous": false,
      "inputs": [
        {
          "indexed": false,
          "internalType": "address",
          "name": "user",
          "type": "address"
        },
        {
          "indexed": false,
          "internalType": "uint256",
          "name": "amount",
          "type": "uint256"
        }
      ],
      "name": "Deposit",
      "type": "event"
    },
    {
      "anonymous": false,
      "inputs": [
        {
          "indexed": true,
          "internalType": "address",
          "name": "previousOwner",
          "type": "address"
        },
        {
          "indexed": true,
          "internalType": "address",
          "name": "newOwner",
          "type": "address"
        }
      ],
      "name": "OwnershipTransferred",
      "type": "event"
    },
    {
      "anonymous": false,
      "inputs": [
        {
          "indexed": false,
          "internalType": "address[]",
          "name": "strategyTokens",
          "type": "address[]"
        },
        {
          "indexed": false,
          "internalType": "uint8[]",
          "name": "tokenPercentage",
          "type": "uint8[]"
        }
      ],
      "name": "Rebalance",
      "type": "event"
    },
    {
      "anonymous": false,
      "inputs": [
        {
          "indexed": false,
          "internalType": "address[]",
          "name": "oldTokens",
          "type": "address[]"
        },
        {
          "indexed": false,
          "internalType": "uint8[]",
          "name": "oldPercentage",
          "type": "uint8[]"
        },
        {
          "indexed": false,
          "internalType": "address[]",
          "name": "newTokens",
          "type": "address[]"
        },
        {
          "indexed": false,
          "internalType": "uint8[]",
          "name": "newPercentage",
          "type": "uint8[]"
        }
      ],
      "name": "StrategyChange",
      "type": "event"
    },
    {
      "anonymous": false,
      "inputs": [
        {
          "indexed": true,
          "internalType": "address",
          "name": "from",
          "type": "address"
        },
        {
          "indexed": true,
          "internalType": "address",
          "name": "to",
          "type": "address"
        },
        {
          "indexed": false,
          "internalType": "uint256",
          "name": "value",
          "type": "uint256"
        }
      ],
      "name": "Transfer",
      "type": "event"
    },
    {
      "anonymous": false,
      "inputs": [
        {
          "indexed": false,
          "internalType": "address",
          "name": "user",
          "type": "address"
        },
        {
          "indexed": false,
          "internalType": "uint256",
          "name": "amount",
          "type": "uint256"
        },
        {
          "indexed": false,
          "internalType": "uint256",
          "name": "fees",
          "type": "uint256"
        }
      ],
      "name": "Withdraw",
      "type": "event"
    },
    {
      "inputs": [
        {
          "internalType": "address",
          "name": "owner",
          "type": "address"
        },
        {
          "internalType": "address",
          "name": "spender",
          "type": "address"
        }
      ],
      "name": "allowance",
      "outputs": [
        {
          "internalType": "uint256",
          "name": "",
          "type": "uint256"
        }
      ],
      "stateMutability": "view",
      "type": "function"
    },
    {
      "inputs": [
        {
          "internalType": "address",
          "name": "spender",
          "type": "address"
        },
        {
          "internalType": "uint256",
          "name": "amount",
          "type": "uint256"
        }
      ],
      "name": "approve",
      "outputs": [
        {
          "internalType": "bool",
          "name": "",
          "type": "bool"
        }
      ],
      "stateMutability": "nonpayable",
      "type": "function"
    },
    {
      "inputs": [
        {
          "internalType": "address",
          "name": "account",
          "type": "address"
        }
      ],
      "name": "balanceOf",
      "outputs": [
        {
          "internalType": "uint256",
          "name": "",
          "type": "uint256"
        }
      ],
      "stateMutability": "view",
      "type": "function"
    },
    {
      "inputs": [],
      "name": "decimals",
      "outputs": [
        {
          "internalType": "uint8",
          "name": "",
          "type": "uint8"
        }
      ],
      "stateMutability": "view",
      "type": "function"
    },
    {
      "inputs": [
        {
          "internalType": "address",
          "name": "spender",
          "type": "address"
        },
        {
          "internalType": "uint256",
          "name": "subtractedValue",
          "type": "uint256"
        }
      ],
      "name": "decreaseAllowance",
      "outputs": [
        {
          "internalType": "bool",
          "name": "",
          "type": "bool"
        }
      ],
      "stateMutability": "nonpayable",
      "type": "function"
    },
    {
      "inputs": [],
      "name": "feePercentage",
      "outputs": [
        {
          "internalType": "uint8",
          "name": "",
          "type": "uint8"
        }
      ],
      "stateMutability": "view",
      "type": "function"
    },
    {
      "inputs": [
        {
          "internalType": "address",
          "name": "spender",
          "type": "address"
        },
        {
          "internalType": "uint256",
          "name": "addedValue",
          "type": "uint256"
        }
      ],
      "name": "increaseAllowance",
      "outputs": [
        {
          "internalType": "bool",
          "name": "",
          "type": "bool"
        }
      ],
      "stateMutability": "nonpayable",
      "type": "function"
    },
    {
      "inputs": [],
      "name": "name",
      "outputs": [
        {
          "internalType": "string",
          "name": "",
          "type": "string"
        }
      ],
      "stateMutability": "view",
      "type": "function"
    },
    {
      "inputs": [],
      "name": "owner",
      "outputs": [
        {
          "internalType": "address",
          "name": "",
          "type": "address"
        }
      ],
      "stateMutability": "view",
      "type": "function"
    },
    {
      "inputs": [],
      "name": "priceDecimals",
      "outputs": [
        {
          "internalType": "uint8",
          "name": "",
          "type": "uint8"
        }
      ],
      "stateMutability": "view",
      "type": "function"
    },
    {
      "inputs": [],
      "name": "renounceOwnership",
      "outputs": [],
      "stateMutability": "nonpayable",
      "type": "function"
    },
    {
      "inputs": [],
      "name": "strategyTokenCount",
      "outputs": [
        {
          "internalType": "uint8",
          "name": "",
          "type": "uint8"
        }
      ],
      "stateMutability": "view",
      "type": "function"
    },
    {
      "inputs": [
        {
          "internalType": "uint256",
          "name": "",
          "type": "uint256"
        }
      ],
      "name": "strategyTokens",
      "outputs": [
        {
          "internalType": "address",
          "name": "",
          "type": "address"
        }
      ],
      "stateMutability": "view",
      "type": "function"
    },
    {
      "inputs": [],
      "name": "symbol",
      "outputs": [
        {
          "internalType": "string",
          "name": "",
          "type": "string"
        }
      ],
      "stateMutability": "view",
      "type": "function"
    },
    {
      "inputs": [
        {
          "internalType": "address",
          "name": "",
          "type": "address"
        }
      ],
      "name": "tokenPercentage",
      "outputs": [
        {
          "internalType": "uint8",
          "name": "",
          "type": "uint8"
        }
      ],
      "stateMutability": "view",
      "type": "function"
    },
    {
      "inputs": [],
      "name": "totalSupply",
      "outputs": [
        {
          "internalType": "uint256",
          "name": "",
          "type": "uint256"
        }
      ],
      "stateMutability": "view",
      "type": "function"
    },
    {
      "inputs": [
        {
          "internalType": "address",
          "name": "recipient",
          "type": "address"
        },
        {
          "internalType": "uint256",
          "name": "amount",
          "type": "uint256"
        }
      ],
      "name": "transfer",
      "outputs": [
        {
          "internalType": "bool",
          "name": "",
          "type": "bool"
        }
      ],
      "stateMutability": "nonpayable",
      "type": "function"
    },
    {
      "inputs": [
        {
          "internalType": "address",
          "name": "sender",
          "type": "address"
        },
        {
          "internalType": "address",
          "name": "recipient",
          "type": "address"
        },
        {
          "internalType": "uint256",
          "name": "amount",
          "type": "uint256"
        }
      ],
      "name": "transferFrom",
      "outputs": [
        {
          "internalType": "bool",
          "name": "",
          "type": "bool"
        }
      ],
      "stateMutability": "nonpayable",
      "type": "function"
    },
    {
      "inputs": [
        {
          "internalType": "address",
          "name": "newOwner",
          "type": "address"
        }
      ],
      "name": "transferOwnership",
      "outputs": [],
      "stateMutability": "nonpayable",
      "type": "function"
    },
    {
      "inputs": [
        {
          "internalType": "bool",
          "name": "_status",
          "type": "bool"
        }
      ],
      "name": "changeDepositStatus",
      "outputs": [],
      "stateMutability": "nonpayable",
      "type": "function"
    },
    {
      "inputs": [
        {
          "internalType": "bool",
          "name": "_status",
          "type": "bool"
        }
      ],
      "name": "changeWithdrawalStatus",
      "outputs": [],
      "stateMutability": "nonpayable",
      "type": "function"
    },
    {
      "inputs": [
        {
          "internalType": "uint8",
          "name": "_feePercentage",
          "type": "uint8"
        }
      ],
      "name": "changeFee",
      "outputs": [],
      "stateMutability": "nonpayable",
      "type": "function"
    },
    {
      "inputs": [],
      "name": "totalTokenStored",
      "outputs": [
        {
          "internalType": "uint256[]",
          "name": "",
          "type": "uint256[]"
        }
      ],
      "stateMutability": "view",
      "type": "function"
    },
    {
      "inputs": [
        {
          "internalType": "address",
          "name": "_user",
          "type": "address"
        }
      ],
      "name": "getUserVaultInDrc",
      "outputs": [
        {
          "internalType": "uint256",
          "name": "",
          "type": "uint256"
        },
        {
          "internalType": "uint256",
          "name": "",
          "type": "uint256"
        },
        {
          "internalType": "uint256",
          "name": "",
          "type": "uint256"
        }
      ],
      "stateMutability": "view",
      "type": "function"
    },
    {
      "inputs": [],
      "name": "getProofOfDepositPrice",
      "outputs": [
        {
          "internalType": "uint256",
          "name": "",
          "type": "uint256"
        }
      ],
      "stateMutability": "view",
      "type": "function"
    },
    {
      "inputs": [
        {
          "internalType": "uint256",
          "name": "_amount",
          "type": "uint256"
        },
        {
          "internalType": "uint32",
          "name": "deadline",
          "type": "uint32"
        }
      ],
      "name": "depositDrc",
      "outputs": [],
      "stateMutability": "nonpayable",
      "type": "function"
    },
    {
      "inputs": [
        {
          "internalType": "uint256",
          "name": "drcAmount",
          "type": "uint256"
        },
        {
          "internalType": "uint32",
          "name": "deadline",
          "type": "uint32"
        }
      ],
      "name": "withdrawDrc",
      "outputs": [],
      "stateMutability": "nonpayable",
      "type": "function"
    },
    {
      "inputs": [
        {
          "internalType": "uint8",
          "name": "percentage",
          "type": "uint8"
        },
        {
          "internalType": "uint32",
          "name": "deadline",
          "type": "uint32"
        }
      ],
      "name": "withdrawPercentage",
      "outputs": [],
      "stateMutability": "nonpayable",
      "type": "function"
    },
    {
      "inputs": [
        {
          "internalType": "address[]",
          "name": "_strategyTokens",
          "type": "address[]"
        },
        {
          "internalType": "uint8[]",
          "name": "_tokenPercentage",
          "type": "uint8[]"
        },
        {
          "internalType": "uint8",
          "name": "_strategyTokenCount",
          "type": "uint8"
        },
        {
          "internalType": "uint32",
          "name": "deadline",
          "type": "uint32"
        }
      ],
      "name": "changeStrategy",
      "outputs": [],
      "stateMutability": "nonpayable",
      "type": "function"
    },
    {
      "inputs": [
        {
          "internalType": "uint32",
          "name": "deadline",
          "type": "uint32"
        }
      ],
      "name": "rebalance",
      "outputs": [],
      "stateMutability": "nonpayable",
      "type": "function"
    }
  ],
  "bytecode": "0x60806040526001600860006101000a81548160ff021916908360ff1602179055506012600860016101000a81548160ff021916908360ff1602179055506000600960146101000a81548160ff0219169083151502179055506001600960156101000a81548160ff0219169083151502179055503480156200007f57600080fd5b50604051620063863803806200638683398181016040526040811015620000a557600080fd5b8101908080519060200190929190805190602001909291905050506040518060400160405280600f81526020017f4469676974616c205265736572766500000000000000000000000000000000008152506040518060400160405280600681526020017f44522d504f44000000000000000000000000000000000000000000000000000081525081600390805190602001906200014492919062000300565b5080600490805190602001906200015d92919062000300565b506012600560006101000a81548160ff021916908360ff160217905550505060006200018e620002f860201b60201c565b905080600560016101000a81548173ffffffffffffffffffffffffffffffffffffffff021916908373ffffffffffffffffffffffffffffffffffffffff1602179055508073ffffffffffffffffffffffffffffffffffffffff16600073ffffffffffffffffffffffffffffffffffffffff167f8be0079c531659141344cd1fd0a4f28419497f9722a3daafe3b4186f6b6457e060405160405180910390a35080600960006101000a81548173ffffffffffffffffffffffffffffffffffffffff021916908373ffffffffffffffffffffffffffffffffffffffff16021790555081600860026101000a81548173ffffffffffffffffffffffffffffffffffffffff021916908373ffffffffffffffffffffffffffffffffffffffff16021790555081600a60006101000a81548173ffffffffffffffffffffffffffffffffffffffff021916908373ffffffffffffffffffffffffffffffffffffffff1602179055505050620003af565b600033905090565b828054600181600116156101000203166002900490600052602060002090601f016020900481019282601f106200034357805160ff191683800117855562000374565b8280016001018555821562000374579182015b828111156200037357825182559160200191906001019062000356565b5b50905062000383919062000387565b5090565b620003ac91905b80821115620003a85760008160009055506001016200038e565b5090565b90565b615fc780620003bf6000396000f3fe608060405234801561001057600080fd5b50600436106101da5760003560e01c806380a35fbb11610104578063b73b9e0d116100a2578063dd62ed3e11610071578063dd62ed3e1461096a578063df9f8564146109e2578063e48e192e14610a06578063f2fde38b14610af1576101da565b8063b73b9e0d14610817578063bb2a9ad714610847578063bd806621146108ad578063d34ee4c01461090c576101da565b8063a001ecdd116100de578063a001ecdd146106f7578063a457c2d71461071b578063a47c12b514610781578063a9059cbb146107b1576101da565b806380a35fbb146105f65780638da5cb5b1461062a57806395d89b4114610674576101da565b8063395093511161017c5780634cd46f001161014b5780634cd46f00146104e55780636f827c341461055357806370a0823114610594578063715018a6146105ec576101da565b806339509351146103d2578063438bacaa1461043857806347e6dece146104695780634c183918146104a7576101da565b806318160ddd116101b857806318160ddd146102ec57806318181a9c1461030a57806323b872dd14610328578063313ce567146103ae576101da565b806305300b28146101df57806306fdde0314610203578063095ea7b314610286575b600080fd5b6101e7610b35565b604051808260ff1660ff16815260200191505060405180910390f35b61020b610b48565b6040518080602001828103825283818151815260200191508051906020019080838360005b8381101561024b578082015181840152602081019050610230565b50505050905090810190601f1680156102785780820380516001836020036101000a031916815260200191505b509250505060405180910390f35b6102d26004803603604081101561029c57600080fd5b81019080803573ffffffffffffffffffffffffffffffffffffffff16906020019092919080359060200190929190505050610bea565b604051808215151515815260200191505060405180910390f35b6102f4610c08565b6040518082815260200191505060405180910390f35b610312610c12565b6040518082815260200191505060405180910390f35b6103946004803603606081101561033e57600080fd5b81019080803573ffffffffffffffffffffffffffffffffffffffff169060200190929190803573ffffffffffffffffffffffffffffffffffffffff16906020019092919080359060200190929190505050610c72565b604051808215151515815260200191505060405180910390f35b6103b6610d4b565b604051808260ff1660ff16815260200191505060405180910390f35b61041e600480360360408110156103e857600080fd5b81019080803573ffffffffffffffffffffffffffffffffffffffff16906020019092919080359060200190929190505050610d62565b604051808215151515815260200191505060405180910390f35b6104676004803603602081101561044e57600080fd5b81019080803560ff169060200190929190505050610e15565b005b6104a56004803603604081101561047f57600080fd5b8101908080359060200190929190803563ffffffff169060200190929190505050610f77565b005b6104e3600480360360408110156104bd57600080fd5b8101908080359060200190929190803563ffffffff16906020019092919050505061141d565b005b610511600480360360208110156104fb57600080fd5b810190808035906020019092919050505061157c565b604051808273ffffffffffffffffffffffffffffffffffffffff1673ffffffffffffffffffffffffffffffffffffffff16815260200191505060405180910390f35b6105926004803603604081101561056957600080fd5b81019080803560ff169060200190929190803563ffffffff1690602001909291905050506115b8565b005b6105d6600480360360208110156105aa57600080fd5b81019080803573ffffffffffffffffffffffffffffffffffffffff1690602001909291905050506116db565b6040518082815260200191505060405180910390f35b6105f4611723565b005b6106286004803603602081101561060c57600080fd5b81019080803563ffffffff1690602001909291905050506118ae565b005b610632611c41565b604051808273ffffffffffffffffffffffffffffffffffffffff1673ffffffffffffffffffffffffffffffffffffffff16815260200191505060405180910390f35b61067c611c6b565b6040518080602001828103825283818151815260200191508051906020019080838360005b838110156106bc5780820151818401526020810190506106a1565b50505050905090810190601f1680156106e95780820380516001836020036101000a031916815260200191505b509250505060405180910390f35b6106ff611d0d565b604051808260ff1660ff16815260200191505060405180910390f35b6107676004803603604081101561073157600080fd5b81019080803573ffffffffffffffffffffffffffffffffffffffff16906020019092919080359060200190929190505050611d20565b604051808215151515815260200191505060405180910390f35b6107af6004803603602081101561079757600080fd5b81019080803515159060200190929190505050611ded565b005b6107fd600480360360408110156107c757600080fd5b81019080803573ffffffffffffffffffffffffffffffffffffffff16906020019092919080359060200190929190505050611ed4565b604051808215151515815260200191505060405180910390f35b6108456004803603602081101561082d57600080fd5b81019080803515159060200190929190505050611ef2565b005b6108896004803603602081101561085d57600080fd5b81019080803573ffffffffffffffffffffffffffffffffffffffff169060200190929190505050611fd9565b60405180848152602001838152602001828152602001935050505060405180910390f35b6108b56120df565b6040518080602001828103825283818151815260200191508051906020019060200280838360005b838110156108f85780820151818401526020810190506108dd565b505050509050019250505060405180910390f35b61094e6004803603602081101561092257600080fd5b81019080803573ffffffffffffffffffffffffffffffffffffffff16906020019092919050505061226b565b604051808260ff1660ff16815260200191505060405180910390f35b6109cc6004803603604081101561098057600080fd5b81019080803573ffffffffffffffffffffffffffffffffffffffff169060200190929190803573ffffffffffffffffffffffffffffffffffffffff16906020019092919050505061228b565b6040518082815260200191505060405180910390f35b6109ea612312565b604051808260ff1660ff16815260200191505060405180910390f35b610aef60048036036080811015610a1c57600080fd5b8101908080359060200190640100000000811115610a3957600080fd5b820183602082011115610a4b57600080fd5b80359060200191846020830284011164010000000083111715610a6d57600080fd5b909192939192939080359060200190640100000000811115610a8e57600080fd5b820183602082011115610aa057600080fd5b80359060200191846020830284011164010000000083111715610ac257600080fd5b9091929391929390803560ff169060200190929190803563ffffffff169060200190929190505050612325565b005b610b3360048036036020811015610b0757600080fd5b81019080803573ffffffffffffffffffffffffffffffffffffffff169060200190929190505050612af4565b005b600860019054906101000a900460ff1681565b606060038054600181600116156101000203166002900480601f016020809104026020016040519081016040528092919081815260200182805460018160011615610100020316600290048015610be05780601f10610bb557610100808354040283529160200191610be0565b820191906000526020600020905b815481529060010190602001808311610bc357829003601f168201915b5050505050905090565b6000610bfe610bf7612d04565b8484612d0c565b6001905092915050565b6000600254905090565b6000806000610c1f610c08565b1115610c6b57610c68610c30610c08565b610c5a670de0b6b3a7640000610c4c610c476120df565b612f03565b61312890919063ffffffff16565b6131ae90919063ffffffff16565b90505b8091505090565b6000610c7f8484846131f8565b610d4084610c8b612d04565b610d3b85604051806060016040528060288152602001615e2260289139600160008b73ffffffffffffffffffffffffffffffffffffffff1673ffffffffffffffffffffffffffffffffffffffff1681526020019081526020016000206000610cf1612d04565b73ffffffffffffffffffffffffffffffffffffffff1673ffffffffffffffffffffffffffffffffffffffff168152602001908152602001600020546134b99092919063ffffffff16565b612d0c565b600190509392505050565b6000600560009054906101000a900460ff16905090565b6000610e0b610d6f612d04565b84610e068560016000610d80612d04565b73ffffffffffffffffffffffffffffffffffffffff1673ffffffffffffffffffffffffffffffffffffffff16815260200190815260200160002060008973ffffffffffffffffffffffffffffffffffffffff1673ffffffffffffffffffffffffffffffffffffffff1681526020019081526020016000205461357990919063ffffffff16565b612d0c565b6001905092915050565b610e1d612d04565b73ffffffffffffffffffffffffffffffffffffffff16600560019054906101000a900473ffffffffffffffffffffffffffffffffffffffff1673ffffffffffffffffffffffffffffffffffffffff1614610edf576040517f08c379a00000000000000000000000000000000000000000000000000000000081526004018080602001828103825260208152602001807f4f776e61626c653a2063616c6c6572206973206e6f7420746865206f776e657281525060200191505060405180910390fd5b60648160ff161115610f59576040517f08c379a000000000000000000000000000000000000000000000000000000000815260040180806020018281038252601c8152602001807f4665652070657263656e74616765206578636565646564203130302e0000000081525060200191505060405180910390fd5b80600860006101000a81548160ff021916908360ff16021790555050565b600960149054906101000a900460ff16610ff9576040517f08c379a00000000000000000000000000000000000000000000000000000000081526004018080602001828103825260148152602001807f4465706f7369742069732064697361626c65642e00000000000000000000000081525060200191505060405180910390fd5b81600960009054906101000a900473ffffffffffffffffffffffffffffffffffffffff1673ffffffffffffffffffffffffffffffffffffffff1663dd62ed3e33306040518363ffffffff1660e01b8152600401808373ffffffffffffffffffffffffffffffffffffffff1673ffffffffffffffffffffffffffffffffffffffff1681526020018273ffffffffffffffffffffffffffffffffffffffff1673ffffffffffffffffffffffffffffffffffffffff1681526020019250505060206040518083038186803b1580156110cd57600080fd5b505afa1580156110e1573d6000803e3d6000fd5b505050506040513d60208110156110f757600080fd5b8101908080519060200190929190505050101561115f576040517f08c379a000000000000000000000000000000000000000000000000000000000815260040180806020018281038252602c815260200180615f41602c913960400191505060405180910390fd5b81600960009054906101000a900473ffffffffffffffffffffffffffffffffffffffff1673ffffffffffffffffffffffffffffffffffffffff166370a08231336040518263ffffffff1660e01b8152600401808273ffffffffffffffffffffffffffffffffffffffff1673ffffffffffffffffffffffffffffffffffffffff16815260200191505060206040518083038186803b1580156111ff57600080fd5b505afa158015611213573d6000803e3d6000fd5b505050506040513d602081101561122957600080fd5b81019080805190602001909291905050501015611291576040517f08c379a0000000000000000000000000000000000000000000000000000000008152600401808060200182810382526027815260200180615c546027913960400191505060405180910390fd5b6112bf600960009054906101000a900473ffffffffffffffffffffffffffffffffffffffff16333085613601565b60006112c9610c12565b905060006112fa84600960009054906101000a900473ffffffffffffffffffffffffffffffffffffffff16856136ee565b90506113068184613d15565b5060008090506000611316610c08565b141561133d5761133666038d7ea4c680008661312890919063ffffffff16565b90506113a1565b600061134f61134a6120df565b612f03565b9050600061138085611372670de0b6b3a76400008561312890919063ffffffff16565b6131ae90919063ffffffff16565b905061139c61138d610c08565b82613eab90919063ffffffff16565b925050505b6113ab3382613ef5565b7fe1fffcc4923d04b559f4d29a8bfc6cda04eb5b0d3c460751c2402c5c5cc9109c3386604051808373ffffffffffffffffffffffffffffffffffffffff1673ffffffffffffffffffffffffffffffffffffffff1681526020018281526020019250505060405180910390a15050505050565b600960159054906101000a900460ff1661149f576040517f08c379a00000000000000000000000000000000000000000000000000000000081526004018080602001828103825260158152602001807f57697468647261772069732064697361626c65642e000000000000000000000081525060200191505060405180910390fd5b60006114aa33611fd9565b5091505082811015611507576040517f08c379a000000000000000000000000000000000000000000000000000000000815260040180806020018281038252602d815260200180615e4a602d913960400191505060405180910390fd5b6000611533826115256402540be4008761312890919063ffffffff16565b6131ae90919063ffffffff16565b905060006115696402540be40061155b8461154d336116db565b61312890919063ffffffff16565b6131ae90919063ffffffff16565b905061157581856140bc565b5050505050565b6006818154811061158957fe5b906000526020600020016000915054906101000a900473ffffffffffffffffffffffffffffffffffffffff1681565b600960159054906101000a900460ff1661163a576040517f08c379a00000000000000000000000000000000000000000000000000000000081526004018080602001828103825260158152602001807f57697468647261772069732064697361626c65642e000000000000000000000081525060200191505060405180910390fd5b60648260ff161115611697576040517f08c379a000000000000000000000000000000000000000000000000000000000815260040180806020018281038252602f815260200180615da0602f913960400191505060405180910390fd5b60006116ca60646116bc8560ff166116ae336116db565b61312890919063ffffffff16565b6131ae90919063ffffffff16565b90506116d681836140bc565b505050565b60008060008373ffffffffffffffffffffffffffffffffffffffff1673ffffffffffffffffffffffffffffffffffffffff168152602001908152602001600020549050919050565b61172b612d04565b73ffffffffffffffffffffffffffffffffffffffff16600560019054906101000a900473ffffffffffffffffffffffffffffffffffffffff1673ffffffffffffffffffffffffffffffffffffffff16146117ed576040517f08c379a00000000000000000000000000000000000000000000000000000000081526004018080602001828103825260208152602001807f4f776e61626c653a2063616c6c6572206973206e6f7420746865206f776e657281525060200191505060405180910390fd5b600073ffffffffffffffffffffffffffffffffffffffff16600560019054906101000a900473ffffffffffffffffffffffffffffffffffffffff1673ffffffffffffffffffffffffffffffffffffffff167f8be0079c531659141344cd1fd0a4f28419497f9722a3daafe3b4186f6b6457e060405160405180910390a36000600560016101000a81548173ffffffffffffffffffffffffffffffffffffffff021916908373ffffffffffffffffffffffffffffffffffffffff160217905550565b6118b6612d04565b73ffffffffffffffffffffffffffffffffffffffff16600560019054906101000a900473ffffffffffffffffffffffffffffffffffffffff1673ffffffffffffffffffffffffffffffffffffffff1614611978576040517f08c379a00000000000000000000000000000000000000000000000000000000081526004018080602001828103825260208152602001807f4f776e61626c653a2063616c6c6572206973206e6f7420746865206f776e657281525060200191505060405180910390fd5b6000600560159054906101000a900460ff1660ff1611611a00576040517f08c379a00000000000000000000000000000000000000000000000000000000081526004018080602001828103825260188152602001807f5374726174656779206861736e2774206265656e20736574000000000000000081525060200191505060405180910390fd5b6060600560159054906101000a900460ff1660ff16604051908082528060200260200182016040528015611a435781602001602082028038833980820191505090505b50905060008090505b600560159054906101000a900460ff1660ff168160ff161015611b26576007600060068360ff1681548110611a7d57fe5b9060005260206000200160009054906101000a900473ffffffffffffffffffffffffffffffffffffffff1673ffffffffffffffffffffffffffffffffffffffff1673ffffffffffffffffffffffffffffffffffffffff16815260200190815260200160002060009054906101000a900460ff16828260ff1681518110611aff57fe5b602002602001018181510191509060ff16908160ff16815250508080600101915050611a4c565b507fb32bb5a705a3fe2dcd1ccb4c9d06b92fec03383d384acf8bfbc4e376db590d516006826040518080602001806020018381038352858181548152602001915080548015611bca57602002820191906000526020600020905b8160009054906101000a900473ffffffffffffffffffffffffffffffffffffffff1673ffffffffffffffffffffffffffffffffffffffff1681526020019060010190808311611b80575b5050838103825284818151815260200191508051906020019060200280838360005b83811015611c07578082015181840152602081019050611bec565b5050505090500194505050505060405180910390a16000611c2f611c296120df565b846142bc565b9050611c3b8184613d15565b50505050565b6000600560019054906101000a900473ffffffffffffffffffffffffffffffffffffffff16905090565b606060048054600181600116156101000203166002900480601f016020809104026020016040519081016040528092919081815260200182805460018160011615610100020316600290048015611d035780601f10611cd857610100808354040283529160200191611d03565b820191906000526020600020905b815481529060010190602001808311611ce657829003601f168201915b5050505050905090565b600860009054906101000a900460ff1681565b6000611de3611d2d612d04565b84611dde85604051806060016040528060258152602001615f6d6025913960016000611d57612d04565b73ffffffffffffffffffffffffffffffffffffffff1673ffffffffffffffffffffffffffffffffffffffff16815260200190815260200160002060008a73ffffffffffffffffffffffffffffffffffffffff1673ffffffffffffffffffffffffffffffffffffffff168152602001908152602001600020546134b99092919063ffffffff16565b612d0c565b6001905092915050565b611df5612d04565b73ffffffffffffffffffffffffffffffffffffffff16600560019054906101000a900473ffffffffffffffffffffffffffffffffffffffff1673ffffffffffffffffffffffffffffffffffffffff1614611eb7576040517f08c379a00000000000000000000000000000000000000000000000000000000081526004018080602001828103825260208152602001807f4f776e61626c653a2063616c6c6572206973206e6f7420746865206f776e657281525060200191505060405180910390fd5b80600960146101000a81548160ff02191690831515021790555050565b6000611ee8611ee1612d04565b84846131f8565b6001905092915050565b611efa612d04565b73ffffffffffffffffffffffffffffffffffffffff16600560019054906101000a900473ffffffffffffffffffffffffffffffffffffffff1673ffffffffffffffffffffffffffffffffffffffff1614611fbc576040517f08c379a00000000000000000000000000000000000000000000000000000000081526004018080602001828103825260208152602001807f4f776e61626c653a2063616c6c6572206973206e6f7420746865206f776e657281525060200191505060405180910390fd5b80600960156101000a81548160ff02191690831515021790555050565b60008060008061201b670de0b6b3a764000061200d611ff6610c12565b611fff896116db565b61312890919063ffffffff16565b6131ae90919063ffffffff16565b905060006120576064612049600860009054906101000a900460ff1660ff168561312890919063ffffffff16565b6131ae90919063ffffffff16565b9050600061208783600960009054906101000a900473ffffffffffffffffffffffffffffffffffffffff1661436f565b905060006120c96120a18486613eab90919063ffffffff16565b600960009054906101000a900473ffffffffffffffffffffffffffffffffffffffff1661436f565b9050818184965096509650505050509193909250565b606080600560159054906101000a900460ff1660ff166040519080825280602002602001820160405280156121235781602001602082028038833980820191505090505b50905060008090505b600560159054906101000a900460ff1660ff168160ff1610156122635760068160ff168154811061215957fe5b9060005260206000200160009054906101000a900473ffffffffffffffffffffffffffffffffffffffff1673ffffffffffffffffffffffffffffffffffffffff166370a08231306040518263ffffffff1660e01b8152600401808273ffffffffffffffffffffffffffffffffffffffff1673ffffffffffffffffffffffffffffffffffffffff16815260200191505060206040518083038186803b15801561220057600080fd5b505afa158015612214573d6000803e3d6000fd5b505050506040513d602081101561222a57600080fd5b8101908080519060200190929190505050828260ff168151811061224a57fe5b602002602001018181525050808060010191505061212c565b508091505090565b60076020528060005260406000206000915054906101000a900460ff1681565b6000600160008473ffffffffffffffffffffffffffffffffffffffff1673ffffffffffffffffffffffffffffffffffffffff16815260200190815260200160002060008373ffffffffffffffffffffffffffffffffffffffff1673ffffffffffffffffffffffffffffffffffffffff16815260200190815260200160002054905092915050565b600560159054906101000a900460ff1681565b61232d612d04565b73ffffffffffffffffffffffffffffffffffffffff16600560019054906101000a900473ffffffffffffffffffffffffffffffffffffffff1673ffffffffffffffffffffffffffffffffffffffff16146123ef576040517f08c379a00000000000000000000000000000000000000000000000000000000081526004018080602001828103825260208152602001807f4f776e61626c653a2063616c6c6572206973206e6f7420746865206f776e657281525060200191505060405180910390fd5b60018260ff161015612469576040517f08c379a000000000000000000000000000000000000000000000000000000000815260040180806020018281038252601d8152602001807f53657474696e6720737472617465677920746f203020746f6b656e732e00000081525060200191505060405180910390fd5b8160ff1686869050146124c7576040517f08c379a0000000000000000000000000000000000000000000000000000000008152600401808060200182810382526027815260200180615cc06027913960400191505060405180910390fd5b8160ff168484905014612525576040517f08c379a0000000000000000000000000000000000000000000000000000000008152600401808060200182810382526032815260200180615dcf6032913960400191505060405180910390fd5b600080905060008090505b8360ff168160ff16101561265757600960009054906101000a900473ffffffffffffffffffffffffffffffffffffffff1673ffffffffffffffffffffffffffffffffffffffff1688888360ff1681811061258657fe5b9050602002013573ffffffffffffffffffffffffffffffffffffffff1673ffffffffffffffffffffffffffffffffffffffff16141561262d576040517f08c379a00000000000000000000000000000000000000000000000000000000081526004018080602001828103825260138152602001807f546f6b656e2063616e2774206265204452432e0000000000000000000000000081525060200191505060405180910390fd5b85858260ff1681811061263c57fe5b9050602002013560ff16820191508080600101915050612530565b5060648160ff16146126b4576040517f08c379a0000000000000000000000000000000000000000000000000000000008152600401808060200182810382526025815260200180615d7b6025913960400191505060405180910390fd5b6060600560159054906101000a900460ff1660ff166040519080825280602002602001820160405280156126f75781602001602082028038833980820191505090505b50905060008090505b600560159054906101000a900460ff1660ff168160ff16101561285d576007600060068360ff168154811061273157fe5b9060005260206000200160009054906101000a900473ffffffffffffffffffffffffffffffffffffffff1673ffffffffffffffffffffffffffffffffffffffff1673ffffffffffffffffffffffffffffffffffffffff16815260200190815260200160002060009054906101000a900460ff16828260ff16815181106127b357fe5b602002602001019060ff16908160ff16815250506007600060068360ff16815481106127db57fe5b9060005260206000200160009054906101000a900473ffffffffffffffffffffffffffffffffffffffff1673ffffffffffffffffffffffffffffffffffffffff1673ffffffffffffffffffffffffffffffffffffffff16815260200190815260200160002060006101000a81549060ff02191690558080600101915050612700565b507f3e92ff021819876e3929d389ccc560772c36af85773e666546da33084b3bdc896006828a8a8a8a604051808060200180602001806020018060200185810385528b818154815260200191508054801561290d57602002820191906000526020600020905b8160009054906101000a900473ffffffffffffffffffffffffffffffffffffffff1673ffffffffffffffffffffffffffffffffffffffff16815260200190600101908083116128c3575b505085810384528a818151815260200191508051906020019060200280838360005b8381101561294a57808201518184015260208101905061292f565b505050509050018581038352898982818152602001925060200280828437600081840152601f19601f8201169050808301925050508581038252878782818152602001925060200280828437600081840152601f19601f8201169050808301925050509a505050505050505050505060405180910390a160006129d46129ce6120df565b856142bc565b90508888600691906129e7929190615b70565b5084600560156101000a81548160ff021916908360ff16021790555060008090505b600560159054906101000a900460ff1660ff168160ff161015612add5787878260ff16818110612a3557fe5b9050602002013560ff166007600060068460ff1681548110612a5357fe5b9060005260206000200160009054906101000a900473ffffffffffffffffffffffffffffffffffffffff1673ffffffffffffffffffffffffffffffffffffffff1673ffffffffffffffffffffffffffffffffffffffff16815260200190815260200160002060006101000a81548160ff021916908360ff1602179055508080600101915050612a09565b50612ae88185613d15565b50505050505050505050565b612afc612d04565b73ffffffffffffffffffffffffffffffffffffffff16600560019054906101000a900473ffffffffffffffffffffffffffffffffffffffff1673ffffffffffffffffffffffffffffffffffffffff1614612bbe576040517f08c379a00000000000000000000000000000000000000000000000000000000081526004018080602001828103825260208152602001807f4f776e61626c653a2063616c6c6572206973206e6f7420746865206f776e657281525060200191505060405180910390fd5b600073ffffffffffffffffffffffffffffffffffffffff168173ffffffffffffffffffffffffffffffffffffffff161415612c44576040517f08c379a0000000000000000000000000000000000000000000000000000000008152600401808060200182810382526026815260200180615ce76026913960400191505060405180910390fd5b8073ffffffffffffffffffffffffffffffffffffffff16600560019054906101000a900473ffffffffffffffffffffffffffffffffffffffff1673ffffffffffffffffffffffffffffffffffffffff167f8be0079c531659141344cd1fd0a4f28419497f9722a3daafe3b4186f6b6457e060405160405180910390a380600560016101000a81548173ffffffffffffffffffffffffffffffffffffffff021916908373ffffffffffffffffffffffffffffffffffffffff16021790555050565b600033905090565b600073ffffffffffffffffffffffffffffffffffffffff168373ffffffffffffffffffffffffffffffffffffffff161415612d92576040517f08c379a0000000000000000000000000000000000000000000000000000000008152600401808060200182810382526024815260200180615ebd6024913960400191505060405180910390fd5b600073ffffffffffffffffffffffffffffffffffffffff168273ffffffffffffffffffffffffffffffffffffffff161415612e18576040517f08c379a0000000000000000000000000000000000000000000000000000000008152600401808060200182810382526022815260200180615d0d6022913960400191505060405180910390fd5b80600160008573ffffffffffffffffffffffffffffffffffffffff1673ffffffffffffffffffffffffffffffffffffffff16815260200190815260200160002060008473ffffffffffffffffffffffffffffffffffffffff1673ffffffffffffffffffffffffffffffffffffffff168152602001908152602001600020819055508173ffffffffffffffffffffffffffffffffffffffff168373ffffffffffffffffffffffffffffffffffffffff167f8c5be1e5ebec7d5bd14f71427d1e84f3dd0314c0f7b2291e5b200ac8c7c3b925836040518082815260200191505060405180910390a3505050565b60008060606002604051908082528060200260200182016040528015612f385781602001602082028038833980820191505090505b509050600a60009054906101000a900473ffffffffffffffffffffffffffffffffffffffff1673ffffffffffffffffffffffffffffffffffffffff1663ad5c46486040518163ffffffff1660e01b815260040160206040518083038186803b158015612fa357600080fd5b505afa158015612fb7573d6000803e3d6000fd5b505050506040513d6020811015612fcd57600080fd5b810190808051906020019092919050505081600181518110612feb57fe5b602002602001019073ffffffffffffffffffffffffffffffffffffffff16908173ffffffffffffffffffffffffffffffffffffffff168152505060008090505b600560159054906101000a900460ff1660ff168160ff16101561311d57600060068260ff168154811061305a57fe5b9060005260206000200160009054906101000a900473ffffffffffffffffffffffffffffffffffffffff169050808360008151811061309557fe5b602002602001019073ffffffffffffffffffffffffffffffffffffffff16908173ffffffffffffffffffffffffffffffffffffffff16815250506000868360ff16815181106130e057fe5b6020026020010151905060006130f682846146f7565b905061310b818761357990919063ffffffff16565b9550505050808060010191505061302b565b508192505050919050565b60008083141561313b57600090506131a8565b600082840290508284828161314c57fe5b04146131a3576040517f08c379a0000000000000000000000000000000000000000000000000000000008152600401808060200182810382526021815260200180615e016021913960400191505060405180910390fd5b809150505b92915050565b60006131f083836040518060400160405280601a81526020017f536166654d6174683a206469766973696f6e206279207a65726f000000000000815250614a7f565b905092915050565b600073ffffffffffffffffffffffffffffffffffffffff168373ffffffffffffffffffffffffffffffffffffffff16141561327e576040517f08c379a0000000000000000000000000000000000000000000000000000000008152600401808060200182810382526025815260200180615e986025913960400191505060405180910390fd5b600073ffffffffffffffffffffffffffffffffffffffff168273ffffffffffffffffffffffffffffffffffffffff161415613304576040517f08c379a0000000000000000000000000000000000000000000000000000000008152600401808060200182810382526023815260200180615c7b6023913960400191505060405180910390fd5b61330f838383614b45565b61337a81604051806060016040528060268152602001615d2f602691396000808773ffffffffffffffffffffffffffffffffffffffff1673ffffffffffffffffffffffffffffffffffffffff168152602001908152602001600020546134b99092919063ffffffff16565b6000808573ffffffffffffffffffffffffffffffffffffffff1673ffffffffffffffffffffffffffffffffffffffff1681526020019081526020016000208190555061340d816000808573ffffffffffffffffffffffffffffffffffffffff1673ffffffffffffffffffffffffffffffffffffffff1681526020019081526020016000205461357990919063ffffffff16565b6000808473ffffffffffffffffffffffffffffffffffffffff1673ffffffffffffffffffffffffffffffffffffffff168152602001908152602001600020819055508173ffffffffffffffffffffffffffffffffffffffff168373ffffffffffffffffffffffffffffffffffffffff167fddf252ad1be2c89b69c2b068fc378daa952ba7f163c4a11628f55a4df523b3ef836040518082815260200191505060405180910390a3505050565b6000838311158290613566576040517f08c379a00000000000000000000000000000000000000000000000000000000081526004018080602001828103825283818151815260200191508051906020019080838360005b8381101561352b578082015181840152602081019050613510565b50505050905090810190601f1680156135585780820380516001836020036101000a031916815260200191505b509250505060405180910390fd5b5060008385039050809150509392505050565b6000808284019050838110156135f7576040517f08c379a000000000000000000000000000000000000000000000000000000000815260040180806020018281038252601b8152602001807f536166654d6174683a206164646974696f6e206f766572666c6f77000000000081525060200191505060405180910390fd5b8091505092915050565b6136e8846323b872dd60e01b858585604051602401808473ffffffffffffffffffffffffffffffffffffffff1673ffffffffffffffffffffffffffffffffffffffff1681526020018373ffffffffffffffffffffffffffffffffffffffff1673ffffffffffffffffffffffffffffffffffffffff1681526020018281526020019350505050604051602081830303815290604052907bffffffffffffffffffffffffffffffffffffffffffffffffffffffff19166020820180517bffffffffffffffffffffffffffffffffffffffffffffffffffffffff8381831617835250505050614b4a565b50505050565b6000600a60009054906101000a900473ffffffffffffffffffffffffffffffffffffffff1673ffffffffffffffffffffffffffffffffffffffff1663ad5c46486040518163ffffffff1660e01b815260040160206040518083038186803b15801561375857600080fd5b505afa15801561376c573d6000803e3d6000fd5b505050506040513d602081101561378257600080fd5b810190808051906020019092919050505073ffffffffffffffffffffffffffffffffffffffff168373ffffffffffffffffffffffffffffffffffffffff16141580156137cf575060008414155b15613d0d57606060026040519080825280602002602001820160405280156138065781602001602082028038833980820191505090505b509050838160008151811061381757fe5b602002602001019073ffffffffffffffffffffffffffffffffffffffff16908173ffffffffffffffffffffffffffffffffffffffff1681525050600a60009054906101000a900473ffffffffffffffffffffffffffffffffffffffff1673ffffffffffffffffffffffffffffffffffffffff1663ad5c46486040518163ffffffff1660e01b815260040160206040518083038186803b1580156138b957600080fd5b505afa1580156138cd573d6000803e3d6000fd5b505050506040513d60208110156138e357600080fd5b81019080805190602001909291905050508160018151811061390157fe5b602002602001019073ffffffffffffffffffffffffffffffffffffffff16908173ffffffffffffffffffffffffffffffffffffffff168152505061397c8160008151811061394b57fe5b6020026020010151600860029054906101000a900473ffffffffffffffffffffffffffffffffffffffff1687614c39565b6000600a60009054906101000a900473ffffffffffffffffffffffffffffffffffffffff1673ffffffffffffffffffffffffffffffffffffffff1663d06ca61f87846040518363ffffffff1660e01b81526004018083815260200180602001828103825283818151815260200191508051906020019060200280838360005b83811015613a165780820151818401526020810190506139fb565b50505050905001935050505060006040518083038186803b158015613a3a57600080fd5b505afa158015613a4e573d6000803e3d6000fd5b505050506040513d6000823e3d601f19601f820116820180604052506020811015613a7857600080fd5b8101908080516040519392919084640100000000821115613a9857600080fd5b83820191506020820185811115613aae57600080fd5b8251866020820283011164010000000082111715613acb57600080fd5b8083526020830192505050908051906020019060200280838360005b83811015613b02578082015181840152602081019050613ae7565b50505050905001604052505050600181518110613b1b57fe5b60200260200101519050600a60009054906101000a900473ffffffffffffffffffffffffffffffffffffffff1673ffffffffffffffffffffffffffffffffffffffff166338ed173987838530896040518663ffffffff1660e01b815260040180868152602001858152602001806020018473ffffffffffffffffffffffffffffffffffffffff1673ffffffffffffffffffffffffffffffffffffffff1681526020018363ffffffff168152602001828103825285818151815260200191508051906020019060200280838360005b83811015613c04578082015181840152602081019050613be9565b505050509050019650505050505050600060405180830381600087803b158015613c2d57600080fd5b505af1158015613c41573d6000803e3d6000fd5b505050506040513d6000823e3d601f19601f820116820180604052506020811015613c6b57600080fd5b8101908080516040519392919084640100000000821115613c8b57600080fd5b83820191506020820185811115613ca157600080fd5b8251866020820283011164010000000082111715613cbe57600080fd5b8083526020830192505050908051906020019060200280838360005b83811015613cf5578082015181840152602081019050613cda565b50505050905001604052505050508092505050613d0e565b5b9392505050565b606080600560159054906101000a900460ff1660ff16604051908082528060200260200182016040528015613d595781602001602082028038833980820191505090505b50905060008090505b600560159054906101000a900460ff1660ff168160ff161015613ea0576000613e306064613e226007600060068760ff1681548110613d9d57fe5b9060005260206000200160009054906101000a900473ffffffffffffffffffffffffffffffffffffffff1673ffffffffffffffffffffffffffffffffffffffff1673ffffffffffffffffffffffffffffffffffffffff16815260200190815260200160002060009054906101000a900460ff1660ff168961312890919063ffffffff16565b6131ae90919063ffffffff16565b9050613e778160068460ff1681548110613e4657fe5b9060005260206000200160009054906101000a900473ffffffffffffffffffffffffffffffffffffffff1687614e40565b838360ff1681518110613e8657fe5b602002602001018181525050508080600101915050613d62565b508091505092915050565b6000613eed83836040518060400160405280601e81526020017f536166654d6174683a207375627472616374696f6e206f766572666c6f7700008152506134b9565b905092915050565b600073ffffffffffffffffffffffffffffffffffffffff168273ffffffffffffffffffffffffffffffffffffffff161415613f98576040517f08c379a000000000000000000000000000000000000000000000000000000000815260040180806020018281038252601f8152602001807f45524332303a206d696e7420746f20746865207a65726f20616464726573730081525060200191505060405180910390fd5b613fa460008383614b45565b613fb98160025461357990919063ffffffff16565b600281905550614010816000808573ffffffffffffffffffffffffffffffffffffffff1673ffffffffffffffffffffffffffffffffffffffff1681526020019081526020016000205461357990919063ffffffff16565b6000808473ffffffffffffffffffffffffffffffffffffffff1673ffffffffffffffffffffffffffffffffffffffff168152602001908152602001600020819055508173ffffffffffffffffffffffffffffffffffffffff16600073ffffffffffffffffffffffffffffffffffffffff167fddf252ad1be2c89b69c2b068fc378daa952ba7f163c4a11628f55a4df523b3ef836040518082815260200191505060405180910390a35050565b60606140c783615467565b90506140d33384615654565b60006140df82846142bc565b9050600061411b606461410d600860009054906101000a900460ff1660ff168561312890919063ffffffff16565b6131ae90919063ffffffff16565b9050600061415e6141358385613eab90919063ffffffff16565b600960009054906101000a900473ffffffffffffffffffffffffffffffffffffffff1687614e40565b905061418d600960009054906101000a900473ffffffffffffffffffffffffffffffffffffffff163383615818565b614241600a60009054906101000a900473ffffffffffffffffffffffffffffffffffffffff1673ffffffffffffffffffffffffffffffffffffffff1663ad5c46486040518163ffffffff1660e01b815260040160206040518083038186803b1580156141f857600080fd5b505afa15801561420c573d6000803e3d6000fd5b505050506040513d602081101561422257600080fd5b810190808051906020019092919050505061423b611c41565b84615818565b7ff279e6a1f5e320cca91135676d9cb6e44ca8a08c0b88342bcdb1144f6511b568338284604051808473ffffffffffffffffffffffffffffffffffffffff1673ffffffffffffffffffffffffffffffffffffffff168152602001838152602001828152602001935050505060405180910390a1505050505050565b60008060008090505b600560159054906101000a900460ff1660ff168160ff16101561436457600061433f868360ff16815181106142f657fe5b602002602001015160068460ff168154811061430e57fe5b9060005260206000200160009054906101000a900473ffffffffffffffffffffffffffffffffffffffff16876136ee565b9050614354818461357990919063ffffffff16565b92505080806001019150506142c5565b508091505092915050565b6000606060026040519080825280602002602001820160405280156143a35781602001602082028038833980820191505090505b509050600a60009054906101000a900473ffffffffffffffffffffffffffffffffffffffff1673ffffffffffffffffffffffffffffffffffffffff1663ad5c46486040518163ffffffff1660e01b815260040160206040518083038186803b15801561440e57600080fd5b505afa158015614422573d6000803e3d6000fd5b505050506040513d602081101561443857600080fd5b81019080805190602001909291905050508160008151811061445657fe5b602002602001019073ffffffffffffffffffffffffffffffffffffffff16908173ffffffffffffffffffffffffffffffffffffffff1681525050828160018151811061449e57fe5b602002602001019073ffffffffffffffffffffffffffffffffffffffff16908173ffffffffffffffffffffffffffffffffffffffff1681525050806001815181106144e557fe5b602002602001015173ffffffffffffffffffffffffffffffffffffffff168160008151811061451057fe5b602002602001015173ffffffffffffffffffffffffffffffffffffffff161415801561453d575060008414155b156146ef57600a60009054906101000a900473ffffffffffffffffffffffffffffffffffffffff1673ffffffffffffffffffffffffffffffffffffffff1663d06ca61f85836040518363ffffffff1660e01b81526004018083815260200180602001828103825283818151815260200191508051906020019060200280838360005b838110156145da5780820151818401526020810190506145bf565b50505050905001935050505060006040518083038186803b1580156145fe57600080fd5b505afa158015614612573d6000803e3d6000fd5b505050506040513d6000823e3d601f19601f82011682018060405250602081101561463c57600080fd5b810190808051604051939291908464010000000082111561465c57600080fd5b8382019150602082018581111561467257600080fd5b825186602082028301116401000000008211171561468f57600080fd5b8083526020830192505050908051906020019060200280838360005b838110156146c65780820151818401526020810190506146ab565b505050509050016040525050506001815181106146df57fe5b60200260200101519150506146f1565b505b92915050565b60006060600260405190808252806020026020018201604052801561472b5781602001602082028038833980820191505090505b509050828160008151811061473c57fe5b602002602001019073ffffffffffffffffffffffffffffffffffffffff16908173ffffffffffffffffffffffffffffffffffffffff1681525050600a60009054906101000a900473ffffffffffffffffffffffffffffffffffffffff1673ffffffffffffffffffffffffffffffffffffffff1663ad5c46486040518163ffffffff1660e01b815260040160206040518083038186803b1580156147de57600080fd5b505afa1580156147f2573d6000803e3d6000fd5b505050506040513d602081101561480857600080fd5b81019080805190602001909291905050508160018151811061482657fe5b602002602001019073ffffffffffffffffffffffffffffffffffffffff16908173ffffffffffffffffffffffffffffffffffffffff16815250508060018151811061486d57fe5b602002602001015173ffffffffffffffffffffffffffffffffffffffff168160008151811061489857fe5b602002602001015173ffffffffffffffffffffffffffffffffffffffff16141580156148c5575060008414155b15614a7757600a60009054906101000a900473ffffffffffffffffffffffffffffffffffffffff1673ffffffffffffffffffffffffffffffffffffffff1663d06ca61f85836040518363ffffffff1660e01b81526004018083815260200180602001828103825283818151815260200191508051906020019060200280838360005b83811015614962578082015181840152602081019050614947565b50505050905001935050505060006040518083038186803b15801561498657600080fd5b505afa15801561499a573d6000803e3d6000fd5b505050506040513d6000823e3d601f19601f8201168201806040525060208110156149c457600080fd5b81019080805160405193929190846401000000008211156149e457600080fd5b838201915060208201858111156149fa57600080fd5b8251866020820283011164010000000082111715614a1757600080fd5b8083526020830192505050908051906020019060200280838360005b83811015614a4e578082015181840152602081019050614a33565b50505050905001604052505050600181518110614a6757fe5b6020026020010151915050614a79565b505b92915050565b60008083118290614b2b576040517f08c379a00000000000000000000000000000000000000000000000000000000081526004018080602001828103825283818151815260200191508051906020019080838360005b83811015614af0578082015181840152602081019050614ad5565b50505050905090810190601f168015614b1d5780820380516001836020036101000a031916815260200191505b509250505060405180910390fd5b506000838581614b3757fe5b049050809150509392505050565b505050565b6060614bac826040518060400160405280602081526020017f5361666545524332303a206c6f772d6c6576656c2063616c6c206661696c65648152508573ffffffffffffffffffffffffffffffffffffffff166158d09092919063ffffffff16565b9050600081511115614c3457808060200190516020811015614bcd57600080fd5b8101908080519060200190929190505050614c33576040517f08c379a000000000000000000000000000000000000000000000000000000000815260040180806020018281038252602a815260200180615ee1602a913960400191505060405180910390fd5b5b505050565b6000811480614d33575060008373ffffffffffffffffffffffffffffffffffffffff1663dd62ed3e30856040518363ffffffff1660e01b8152600401808373ffffffffffffffffffffffffffffffffffffffff1673ffffffffffffffffffffffffffffffffffffffff1681526020018273ffffffffffffffffffffffffffffffffffffffff1673ffffffffffffffffffffffffffffffffffffffff1681526020019250505060206040518083038186803b158015614cf657600080fd5b505afa158015614d0a573d6000803e3d6000fd5b505050506040513d6020811015614d2057600080fd5b8101908080519060200190929190505050145b614d88576040517f08c379a0000000000000000000000000000000000000000000000000000000008152600401808060200182810382526036815260200180615f0b6036913960400191505060405180910390fd5b614e3b8363095ea7b360e01b8484604051602401808373ffffffffffffffffffffffffffffffffffffffff1673ffffffffffffffffffffffffffffffffffffffff16815260200182815260200192505050604051602081830303815290604052907bffffffffffffffffffffffffffffffffffffffffffffffffffffffff19166020820180517bffffffffffffffffffffffffffffffffffffffffffffffffffffffff8381831617835250505050614b4a565b505050565b6000600a60009054906101000a900473ffffffffffffffffffffffffffffffffffffffff1673ffffffffffffffffffffffffffffffffffffffff1663ad5c46486040518163ffffffff1660e01b815260040160206040518083038186803b158015614eaa57600080fd5b505afa158015614ebe573d6000803e3d6000fd5b505050506040513d6020811015614ed457600080fd5b810190808051906020019092919050505073ffffffffffffffffffffffffffffffffffffffff168373ffffffffffffffffffffffffffffffffffffffff1614158015614f21575060008414155b1561545f5760606002604051908082528060200260200182016040528015614f585781602001602082028038833980820191505090505b509050600a60009054906101000a900473ffffffffffffffffffffffffffffffffffffffff1673ffffffffffffffffffffffffffffffffffffffff1663ad5c46486040518163ffffffff1660e01b815260040160206040518083038186803b158015614fc357600080fd5b505afa158015614fd7573d6000803e3d6000fd5b505050506040513d6020811015614fed57600080fd5b81019080805190602001909291905050508160008151811061500b57fe5b602002602001019073ffffffffffffffffffffffffffffffffffffffff16908173ffffffffffffffffffffffffffffffffffffffff1681525050838160018151811061505357fe5b602002602001019073ffffffffffffffffffffffffffffffffffffffff16908173ffffffffffffffffffffffffffffffffffffffff16815250506150ce8160008151811061509d57fe5b6020026020010151600860029054906101000a900473ffffffffffffffffffffffffffffffffffffffff1687614c39565b6000600a60009054906101000a900473ffffffffffffffffffffffffffffffffffffffff1673ffffffffffffffffffffffffffffffffffffffff1663d06ca61f87846040518363ffffffff1660e01b81526004018083815260200180602001828103825283818151815260200191508051906020019060200280838360005b8381101561516857808201518184015260208101905061514d565b50505050905001935050505060006040518083038186803b15801561518c57600080fd5b505afa1580156151a0573d6000803e3d6000fd5b505050506040513d6000823e3d601f19601f8201168201806040525060208110156151ca57600080fd5b81019080805160405193929190846401000000008211156151ea57600080fd5b8382019150602082018581111561520057600080fd5b825186602082028301116401000000008211171561521d57600080fd5b8083526020830192505050908051906020019060200280838360005b83811015615254578082015181840152602081019050615239565b5050505090500160405250505060018151811061526d57fe5b60200260200101519050600a60009054906101000a900473ffffffffffffffffffffffffffffffffffffffff1673ffffffffffffffffffffffffffffffffffffffff166338ed173987838530896040518663ffffffff1660e01b815260040180868152602001858152602001806020018473ffffffffffffffffffffffffffffffffffffffff1673ffffffffffffffffffffffffffffffffffffffff1681526020018363ffffffff168152602001828103825285818151815260200191508051906020019060200280838360005b8381101561535657808201518184015260208101905061533b565b505050509050019650505050505050600060405180830381600087803b15801561537f57600080fd5b505af1158015615393573d6000803e3d6000fd5b505050506040513d6000823e3d601f19601f8201168201806040525060208110156153bd57600080fd5b81019080805160405193929190846401000000008211156153dd57600080fd5b838201915060208201858111156153f357600080fd5b825186602082028301116401000000008211171561541057600080fd5b8083526020830192505050908051906020019060200280838360005b8381101561544757808201518184015260208101905061542c565b50505050905001604052505050508092505050615460565b5b9392505050565b606080600560159054906101000a900460ff1660ff166040519080825280602002602001820160405280156154ab5781602001602082028038833980820191505090505b50905060006154e16154bb610c08565b6154d36402540be4008761312890919063ffffffff16565b6131ae90919063ffffffff16565b905060008090505b600560159054906101000a900460ff1660ff168160ff161015615649576156216402540be4006156138460068560ff168154811061552357fe5b9060005260206000200160009054906101000a900473ffffffffffffffffffffffffffffffffffffffff1673ffffffffffffffffffffffffffffffffffffffff166370a08231306040518263ffffffff1660e01b8152600401808273ffffffffffffffffffffffffffffffffffffffff1673ffffffffffffffffffffffffffffffffffffffff16815260200191505060206040518083038186803b1580156155ca57600080fd5b505afa1580156155de573d6000803e3d6000fd5b505050506040513d60208110156155f457600080fd5b810190808051906020019092919050505061312890919063ffffffff16565b6131ae90919063ffffffff16565b838260ff168151811061563057fe5b60200260200101818152505080806001019150506154e9565b508192505050919050565b600073ffffffffffffffffffffffffffffffffffffffff168273ffffffffffffffffffffffffffffffffffffffff1614156156da576040517f08c379a0000000000000000000000000000000000000000000000000000000008152600401808060200182810382526021815260200180615e776021913960400191505060405180910390fd5b6156e682600083614b45565b61575181604051806060016040528060228152602001615c9e602291396000808673ffffffffffffffffffffffffffffffffffffffff1673ffffffffffffffffffffffffffffffffffffffff168152602001908152602001600020546134b99092919063ffffffff16565b6000808473ffffffffffffffffffffffffffffffffffffffff1673ffffffffffffffffffffffffffffffffffffffff168152602001908152602001600020819055506157a881600254613eab90919063ffffffff16565b600281905550600073ffffffffffffffffffffffffffffffffffffffff168273ffffffffffffffffffffffffffffffffffffffff167fddf252ad1be2c89b69c2b068fc378daa952ba7f163c4a11628f55a4df523b3ef836040518082815260200191505060405180910390a35050565b6158cb8363a9059cbb60e01b8484604051602401808373ffffffffffffffffffffffffffffffffffffffff1673ffffffffffffffffffffffffffffffffffffffff16815260200182815260200192505050604051602081830303815290604052907bffffffffffffffffffffffffffffffffffffffffffffffffffffffff19166020820180517bffffffffffffffffffffffffffffffffffffffffffffffffffffffff8381831617835250505050614b4a565b505050565b60606158df84846000856158e8565b90509392505050565b606082471015615943576040517f08c379a0000000000000000000000000000000000000000000000000000000008152600401808060200182810382526026815260200180615d556026913960400191505060405180910390fd5b61594c85615a91565b6159be576040517f08c379a000000000000000000000000000000000000000000000000000000000815260040180806020018281038252601d8152602001807f416464726573733a2063616c6c20746f206e6f6e2d636f6e747261637400000081525060200191505060405180910390fd5b600060608673ffffffffffffffffffffffffffffffffffffffff1685876040518082805190602001908083835b60208310615a0e57805182526020820191506020810190506020830392506159eb565b6001836020036101000a03801982511681845116808217855250505050505090500191505060006040518083038185875af1925050503d8060008114615a70576040519150601f19603f3d011682016040523d82523d6000602084013e615a75565b606091505b5091509150615a85828286615aa4565b92505050949350505050565b600080823b905060008111915050919050565b60608315615ab457829050615b69565b600083511115615ac75782518084602001fd5b816040517f08c379a00000000000000000000000000000000000000000000000000000000081526004018080602001828103825283818151815260200191508051906020019080838360005b83811015615b2e578082015181840152602081019050615b13565b50505050905090810190601f168015615b5b5780820380516001836020036101000a031916815260200191505b509250505060405180910390fd5b9392505050565b828054828255906000526020600020908101928215615bff579160200282015b82811115615bfe57823573ffffffffffffffffffffffffffffffffffffffff168260006101000a81548173ffffffffffffffffffffffffffffffffffffffff021916908373ffffffffffffffffffffffffffffffffffffffff16021790555091602001919060010190615b90565b5b509050615c0c9190615c10565b5090565b615c5091905b80821115615c4c57600081816101000a81549073ffffffffffffffffffffffffffffffffffffffff021916905550600101615c16565b5090565b9056fe417474656d7074656420746f206465706f736974206d6f7265207468616e2062616c616e63652e45524332303a207472616e7366657220746f20746865207a65726f206164647265737345524332303a206275726e20616d6f756e7420657863656564732062616c616e6365546f6b656e20636f756e7420646f65736e2774206d6174636820746f6b656e73206c656e6774684f776e61626c653a206e6577206f776e657220697320746865207a65726f206164647265737345524332303a20617070726f766520746f20746865207a65726f206164647265737345524332303a207472616e7366657220616d6f756e7420657863656564732062616c616e6365416464726573733a20696e73756666696369656e742062616c616e636520666f722063616c6c546f74616c20746f6b656e2070657263656e7461676520657863656564656420313030252e417474656d707420746f207769746864726177206d6f7265207468616e2031303025206f6620746865206173736574546f6b656e20636f756e7420646f65736e2774206d6174636820746f6b656e2070657263656e7461676573206c656e677468536166654d6174683a206d756c7469706c69636174696f6e206f766572666c6f7745524332303a207472616e7366657220616d6f756e74206578636565647320616c6c6f77616e6365417474656d707420746f207769746864726177206d6f7265207468616e2075736572277320686f6c64696e672e45524332303a206275726e2066726f6d20746865207a65726f206164647265737345524332303a207472616e736665722066726f6d20746865207a65726f206164647265737345524332303a20617070726f76652066726f6d20746865207a65726f20616464726573735361666545524332303a204552433230206f7065726174696f6e20646964206e6f7420737563636565645361666545524332303a20617070726f76652066726f6d206e6f6e2d7a65726f20746f206e6f6e2d7a65726f20616c6c6f77616e6365436f6e7472616374206973206e6f7420616c6c6f77656420746f207370656e6420757365722773204452432e45524332303a2064656372656173656420616c6c6f77616e63652062656c6f77207a65726fa2646970667358221220706f3a7ee0f1362e74f58d151633d77a71ce9c4e405982e1a2c7e8e775d77a7464736f6c63430006020033",
  "source": "// SPDX-License-Identifier: GPL-3.0-or-later\n\npragma solidity ^0.6.0;\n\nimport \"@openzeppelin/contracts/math/SafeMath.sol\";\nimport \"@openzeppelin/contracts/utils/ReentrancyGuard.sol\";\nimport \"@openzeppelin/contracts/token/ERC20/SafeERC20.sol\";\nimport \"@openzeppelin/contracts/token/ERC20/ERC20.sol\";\nimport \"@openzeppelin/contracts/access/Ownable.sol\";\n\nimport \"./Interfaces/Uniswap/IUniswapV2Router02.sol\";\n\ncontract DigitalReserve is ERC20(\"Digital Reserve\", \"DR-POD\"), Ownable {\n    using SafeMath for uint256;\n\n    constructor(address _router, address _drcAddress) public {\n        drcAddress = _drcAddress;\n        router = _router;\n        uniswapRouter = IUniswapV2Router02(_router);\n    }\n\n    uint8 public strategyTokenCount;\n    address[] public strategyTokens;\n    mapping(address => uint8) public tokenPercentage;\n    uint8 public feePercentage = 1;\n    uint8 public priceDecimals = 18;\n\n    address private router;\n    address private drcAddress;\n\n    bool private depositEnabled = false;\n    bool private withdrawalEnabled = true;\n\n    IUniswapV2Router02 private uniswapRouter;\n\n    event StrategyChange(address[] oldTokens, uint8[] oldPercentage, address[] newTokens, uint8[] newPercentage);\n    event Rebalance(address[] strategyTokens, uint8[] tokenPercentage);\n    event Deposit(address user, uint256 amount);\n    event Withdraw(address user, uint256 amount, uint256 fees);\n\n    function changeDepositStatus(bool _status) external onlyOwner {\n        depositEnabled = _status;\n    }\n\n    function changeWithdrawalStatus(bool _status) external onlyOwner {\n        withdrawalEnabled = _status;\n    }\n\n    function changeFee(uint8 _feePercentage) external onlyOwner {\n        require(_feePercentage <= 100, \"Fee percentage exceeded 100.\");\n        feePercentage = _feePercentage;\n    }\n\n    function totalTokenStored() public view returns (uint256[] memory) {\n        uint256[] memory amounts = new uint256[](strategyTokenCount);\n        for (uint8 i = 0; i < strategyTokenCount; i++) {\n            amounts[i] = IERC20(strategyTokens[i]).balanceOf(address(this));\n        }\n        return amounts;\n    }\n\n    function getUserVaultInDrc(address _user) public view returns (uint256, uint256, uint256) {\n        uint256 userVaultWorthInEth = balanceOf(_user).mul(getProofOfDepositPrice()).div(1e18);\n\n        uint256 fees = userVaultWorthInEth.mul(feePercentage).div(100);\n        uint256 drcAmount = _getTokenAmountByEthAmount(userVaultWorthInEth, drcAddress);\n        uint256 drcAmountExcludeFees = _getTokenAmountByEthAmount(userVaultWorthInEth.sub(fees), drcAddress);\n\n        return (drcAmount, drcAmountExcludeFees, fees);\n    }\n\n    function getProofOfDepositPrice() public view returns (uint256) {\n        uint256 proofOfDepositPrice;\n        if (totalSupply() > 0) {\n            proofOfDepositPrice = _getEthAmountByStrategyTokensAmount(totalTokenStored()).mul(1e18).div(totalSupply());\n        }\n        return proofOfDepositPrice;\n    }\n\n    function depositDrc(uint256 _amount, uint32 deadline) external {\n        require(depositEnabled, \"Deposit is disabled.\");\n        require(IERC20(drcAddress).allowance(msg.sender, address(this)) >= _amount, \"Contract is not allowed to spend user's DRC.\");\n        require(IERC20(drcAddress).balanceOf(msg.sender) >= _amount, \"Attempted to deposit more than balance.\");\n\n        SafeERC20.safeTransferFrom(IERC20(drcAddress), msg.sender, address(this), _amount);\n\n        // Get current unit price before adding tokens to vault\n        uint256 currentPodUnitPrice = getProofOfDepositPrice();\n\n        uint256 ethConverted = _convertTokenToEth(_amount, drcAddress, deadline);\n        _convertEthToStrategyTokens(ethConverted, deadline);\n\n        uint256 podToMint = 0;\n        if (totalSupply() == 0) {\n            podToMint = _amount.mul(1e15);\n        } else {\n            uint256 vaultTotalInEth = _getEthAmountByStrategyTokensAmount(totalTokenStored());\n            uint256 newPodTotal = vaultTotalInEth.mul(1e18).div(currentPodUnitPrice);\n            podToMint = newPodTotal.sub(totalSupply());\n        }\n\n        _mint(msg.sender, podToMint);\n\n        emit Deposit(msg.sender, _amount);\n    }\n\n    function withdrawDrc(uint256 drcAmount, uint32 deadline) external {\n        require(withdrawalEnabled, \"Withdraw is disabled.\");\n\n        (, uint256 userVaultInDrc, ) = getUserVaultInDrc(msg.sender);\n        require(userVaultInDrc >= drcAmount, \"Attempt to withdraw more than user's holding.\");\n\n        uint256 amountFraction = drcAmount.mul(1e10).div(userVaultInDrc);\n        uint256 podToBurn = balanceOf(msg.sender).mul(amountFraction).div(1e10);\n        _withdrawProofOfDeposit(podToBurn, deadline);\n    }\n\n    function withdrawPercentage(uint8 percentage, uint32 deadline) external {\n        require(withdrawalEnabled, \"Withdraw is disabled.\");\n        require(percentage <= 100, \"Attempt to withdraw more than 100% of the asset\");\n\n        uint256 podToBurn = balanceOf(msg.sender).mul(percentage).div(100);\n        _withdrawProofOfDeposit(podToBurn, deadline);\n    }\n\n    function changeStrategy(\n        address[] calldata _strategyTokens,\n        uint8[] calldata _tokenPercentage,\n        uint8 _strategyTokenCount,\n        uint32 deadline\n    ) external onlyOwner {\n        require(_strategyTokenCount >= 1, \"Setting strategy to 0 tokens.\");\n        require(_strategyTokens.length == _strategyTokenCount, \"Token count doesn't match tokens length\");\n        require(_tokenPercentage.length == _strategyTokenCount, \"Token count doesn't match token percentages length\");\n        \n        uint8 totalPercentage = 0;\n        for (uint8 i = 0; i < _strategyTokenCount; i++) {\n            require(_strategyTokens[i] != drcAddress, \"Token can't be DRC.\");\n            totalPercentage += _tokenPercentage[i];\n        }\n        require(totalPercentage == 100, \"Total token percentage exceeded 100%.\");\n\n        uint8[] memory oldPercentage = new uint8[](strategyTokenCount);\n        for (uint8 i = 0; i < strategyTokenCount; i++) {\n            oldPercentage[i] = tokenPercentage[strategyTokens[i]];\n            delete tokenPercentage[strategyTokens[i]];\n        }\n\n        emit StrategyChange(strategyTokens, oldPercentage, _strategyTokens, _tokenPercentage);\n\n        // Before mutate strategyTokens, convert current strategy tokens to ETH\n        uint256 ethConverted = _convertStrategyTokensToEth(totalTokenStored(), deadline);\n\n        strategyTokens = _strategyTokens;\n        strategyTokenCount = _strategyTokenCount;\n        for (uint8 i = 0; i < strategyTokenCount; i++) {\n            tokenPercentage[strategyTokens[i]] = _tokenPercentage[i];\n        }\n\n        _convertEthToStrategyTokens(ethConverted, deadline);\n    }\n\n    function rebalance(uint32 deadline) external onlyOwner {\n        require(strategyTokenCount > 0, \"Strategy hasn't been set\");\n\n        uint8[] memory percentageArray = new uint8[](strategyTokenCount);\n        for (uint8 i = 0; i < strategyTokenCount; i++) {\n            percentageArray[i] += tokenPercentage[strategyTokens[i]];\n        }\n\n        emit Rebalance(strategyTokens, percentageArray);\n\n        uint256 ethConverted = _convertStrategyTokensToEth(totalTokenStored(), deadline);\n        _convertEthToStrategyTokens(ethConverted, deadline);\n    }\n\n    function _withdrawProofOfDeposit(uint256 podToBurn, uint32 deadline) private {\n        uint256[] memory strategyTokensToWithdraw = _getStrateTokensByPodAmount(podToBurn);\n\n        _burn(msg.sender, podToBurn);\n\n        uint256 ethConverted = _convertStrategyTokensToEth(strategyTokensToWithdraw, deadline);\n        uint256 fees = ethConverted.mul(feePercentage).div(100);\n\n        uint256 drcAmount = _convertEthToToken(ethConverted.sub(fees), drcAddress, deadline);\n        SafeERC20.safeTransfer(IERC20(drcAddress), msg.sender, drcAmount);\n        SafeERC20.safeTransfer(IERC20(uniswapRouter.WETH()), owner(), fees);\n        emit Withdraw(msg.sender, drcAmount, fees);\n    }\n\n    function _getTokenAmountByEthAmount(uint256 _amount, address _tokenAddress) private view returns (uint256) {\n        address[] memory path = new address[](2);\n        path[0] = uniswapRouter.WETH();\n        path[1] = _tokenAddress;\n\n        if (path[0] != path[1] && _amount != 0) {\n            return uniswapRouter.getAmountsOut(_amount, path)[1];\n        }\n    }\n\n    function _getEthAmountByTokenAmount(uint256 _amount, address _tokenAddress) private view returns (uint256) {\n        address[] memory path = new address[](2);\n        path[0] = _tokenAddress;\n        path[1] = uniswapRouter.WETH();\n\n        if (path[0] != path[1] && _amount != 0) {\n            return uniswapRouter.getAmountsOut(_amount, path)[1];\n        }\n    }\n\n    function _getEthAmountByStrategyTokensAmount(uint256[] memory _strategyTokensBalance) private view returns (uint256) {\n        uint256 amountOut;\n        address[] memory path = new address[](2);\n        path[1] = uniswapRouter.WETH();\n\n        for (uint8 i = 0; i < strategyTokenCount; i++) {\n            address tokenAddress = strategyTokens[i];\n            path[0] = tokenAddress;\n            uint256 tokenAmount = _strategyTokensBalance[i];\n            uint256 tokenAmountInEth = _getEthAmountByTokenAmount(tokenAmount, tokenAddress);\n\n            amountOut = amountOut.add(tokenAmountInEth);\n        }\n        return amountOut;\n    }\n\n    function _getStrateTokensByPodAmount(uint256 _amount) private view returns (uint256[] memory) {\n        uint256[] memory strategyTokenAmount = new uint256[](strategyTokenCount);\n        \n        uint256 podFraction = _amount.mul(1e10).div(totalSupply());\n        for (uint8 i = 0; i < strategyTokenCount; i++) {\n            strategyTokenAmount[i] = IERC20(strategyTokens[i]).balanceOf(address(this)).mul(podFraction).div(1e10);\n        }\n        return strategyTokenAmount;\n    }\n\n    function _convertTokenToEth(uint256 _amount, address _tokenAddress,uint32 deadline) private returns (uint256) {\n        if (_tokenAddress != uniswapRouter.WETH() && _amount != 0) {\n            address[] memory path = new address[](2);\n            path[0] = _tokenAddress;\n            path[1] = uniswapRouter.WETH();\n            SafeERC20.safeApprove(IERC20(path[0]), router, _amount);\n            uint256 amountOut = uniswapRouter.getAmountsOut(_amount, path)[1];\n            uniswapRouter.swapExactTokensForTokens(_amount, amountOut, path, address(this), deadline);\n            return amountOut;\n        }\n    }\n\n    function _convertEthToToken(uint256 _amount, address _tokenAddress, uint32 deadline) private returns (uint256) {\n        if (_tokenAddress != uniswapRouter.WETH() && _amount != 0) {\n            address[] memory path = new address[](2);\n            path[0] = uniswapRouter.WETH();\n            path[1] = _tokenAddress;\n            SafeERC20.safeApprove(IERC20(path[0]), router, _amount);\n            uint256 amountOut = uniswapRouter.getAmountsOut(_amount, path)[1];\n            uniswapRouter.swapExactTokensForTokens(_amount, amountOut, path, address(this), deadline);\n            return amountOut;\n        }\n    }\n\n    function _convertEthToStrategyTokens(uint256 amount, uint32 deadline) private returns (uint256[] memory) {\n        uint256[] memory amounts = new uint256[](strategyTokenCount);\n        for (uint8 i = 0; i < strategyTokenCount; i++) {\n            uint256 amountToConvert = amount.mul(tokenPercentage[strategyTokens[i]]).div(100);\n            amounts[i] = _convertEthToToken(amountToConvert, strategyTokens[i], deadline);\n        }\n        return amounts;\n    }\n\n    function _convertStrategyTokensToEth(uint256[] memory amountToConvert, uint32 deadline) private returns (uint256) {\n        uint256 ethConverted;\n        for (uint8 i = 0; i < strategyTokenCount; i++) {\n            uint256 amountConverted = _convertTokenToEth(amountToConvert[i], strategyTokens[i], deadline);\n            ethConverted = ethConverted.add(amountConverted);\n        }\n        return ethConverted;\n    }\n}\n",
  "sourcePath": "/Users/fayexue/if-x-github/digital-reserve/contracts/DigitalReserve.sol",
  "compiler": {
    "name": "solc",
    "version": "0.6.2+commit.bacdbe57.Emscripten.clang"
  },
  "schemaVersion": "3.3.3",
  "updatedAt": "2021-01-16T09:08:26.011Z",
  "devdoc": {
    "methods": {
      "allowance(address,address)": {
        "details": "See {IERC20-allowance}."
      },
      "approve(address,uint256)": {
        "details": "See {IERC20-approve}.     * Requirements:     * - `spender` cannot be the zero address."
      },
      "balanceOf(address)": {
        "details": "See {IERC20-balanceOf}."
      },
      "decimals()": {
        "details": "Returns the number of decimals used to get its user representation. For example, if `decimals` equals `2`, a balance of `505` tokens should be displayed to a user as `5,05` (`505 / 10 ** 2`).     * Tokens usually opt for a value of 18, imitating the relationship between Ether and Wei. This is the value {ERC20} uses, unless {_setupDecimals} is called.     * NOTE: This information is only used for _display_ purposes: it in no way affects any of the arithmetic of the contract, including {IERC20-balanceOf} and {IERC20-transfer}."
      },
      "decreaseAllowance(address,uint256)": {
        "details": "Atomically decreases the allowance granted to `spender` by the caller.     * This is an alternative to {approve} that can be used as a mitigation for problems described in {IERC20-approve}.     * Emits an {Approval} event indicating the updated allowance.     * Requirements:     * - `spender` cannot be the zero address. - `spender` must have allowance for the caller of at least `subtractedValue`."
      },
      "increaseAllowance(address,uint256)": {
        "details": "Atomically increases the allowance granted to `spender` by the caller.     * This is an alternative to {approve} that can be used as a mitigation for problems described in {IERC20-approve}.     * Emits an {Approval} event indicating the updated allowance.     * Requirements:     * - `spender` cannot be the zero address."
      },
      "name()": {
        "details": "Returns the name of the token."
      },
      "owner()": {
        "details": "Returns the address of the current owner."
      },
      "renounceOwnership()": {
        "details": "Leaves the contract without owner. It will not be possible to call `onlyOwner` functions anymore. Can only be called by the current owner.     * NOTE: Renouncing ownership will leave the contract without an owner, thereby removing any functionality that is only available to the owner."
      },
      "symbol()": {
        "details": "Returns the symbol of the token, usually a shorter version of the name."
      },
      "totalSupply()": {
        "details": "See {IERC20-totalSupply}."
      },
      "transfer(address,uint256)": {
        "details": "See {IERC20-transfer}.     * Requirements:     * - `recipient` cannot be the zero address. - the caller must have a balance of at least `amount`."
      },
      "transferFrom(address,address,uint256)": {
        "details": "See {IERC20-transferFrom}.     * Emits an {Approval} event indicating the updated allowance. This is not required by the EIP. See the note at the beginning of {ERC20}.     * Requirements:     * - `sender` and `recipient` cannot be the zero address. - `sender` must have a balance of at least `amount`. - the caller must have allowance for ``sender``'s tokens of at least `amount`."
      },
      "transferOwnership(address)": {
        "details": "Transfers ownership of the contract to a new account (`newOwner`). Can only be called by the current owner."
      }
    }
  },
  "userdoc": {
    "methods": {}
  }
}