{
  "contractName": "ERC20Detailed",
  "abi": [
    {
      "inputs": [
        {
          "internalType": "string",
          "name": "name",
          "type": "string"
        },
        {
          "internalType": "string",
          "name": "symbol",
          "type": "string"
        },
        {
          "internalType": "uint8",
          "name": "decimals",
          "type": "uint8"
        }
      ],
      "payable": false,
      "stateMutability": "nonpayable",
      "type": "constructor"
    },
    {
      "constant": true,
      "inputs": [],
      "name": "name",
      "outputs": [
        {
          "internalType": "string",
          "name": "",
          "type": "string"
        }
      ],
      "payable": false,
      "stateMutability": "view",
      "type": "function"
    },
    {
      "constant": true,
      "inputs": [],
      "name": "symbol",
      "outputs": [
        {
          "internalType": "string",
          "name": "",
          "type": "string"
        }
      ],
      "payable": false,
      "stateMutability": "view",
      "type": "function"
    },
    {
      "constant": true,
      "inputs": [],
      "name": "decimals",
      "outputs": [
        {
          "internalType": "uint8",
          "name": "",
          "type": "uint8"
        }
      ],
      "payable": false,
      "stateMutability": "view",
      "type": "function"
    }
  ],
  "bytecode": "0x608060405234801561001057600080fd5b506040516105b73803806105b78339818101604052606081101561003357600080fd5b810190808051604051939291908464010000000082111561005357600080fd5b8382019150602082018581111561006957600080fd5b825186600182028301116401000000008211171561008657600080fd5b8083526020830192505050908051906020019080838360005b838110156100ba57808201518184015260208101905061009f565b50505050905090810190601f1680156100e75780820380516001836020036101000a031916815260200191505b506040526020018051604051939291908464010000000082111561010a57600080fd5b8382019150602082018581111561012057600080fd5b825186600182028301116401000000008211171561013d57600080fd5b8083526020830192505050908051906020019080838360005b83811015610171578082015181840152602081019050610156565b50505050905090810190601f16801561019e5780820380516001836020036101000a031916815260200191505b506040526020018051906020019092919050505082600090805190602001906101c8929190610203565b5081600190805190602001906101df929190610203565b5080600260006101000a81548160ff021916908360ff1602179055505050506102a8565b828054600181600116156101000203166002900490600052602060002090601f016020900481019282601f1061024457805160ff1916838001178555610272565b82800160010185558215610272579182015b82811115610271578251825591602001919060010190610256565b5b50905061027f9190610283565b5090565b6102a591905b808211156102a1576000816000905550600101610289565b5090565b90565b610300806102b76000396000f3fe608060405234801561001057600080fd5b50600436106100415760003560e01c806306fdde0314610046578063313ce567146100c957806395d89b41146100ed575b600080fd5b61004e610170565b6040518080602001828103825283818151815260200191508051906020019080838360005b8381101561008e578082015181840152602081019050610073565b50505050905090810190601f1680156100bb5780820380516001836020036101000a031916815260200191505b509250505060405180910390f35b6100d1610212565b604051808260ff1660ff16815260200191505060405180910390f35b6100f5610229565b6040518080602001828103825283818151815260200191508051906020019080838360005b8381101561013557808201518184015260208101905061011a565b50505050905090810190601f1680156101625780820380516001836020036101000a031916815260200191505b509250505060405180910390f35b606060008054600181600116156101000203166002900480601f0160208091040260200160405190810160405280929190818152602001828054600181600116156101000203166002900480156102085780601f106101dd57610100808354040283529160200191610208565b820191906000526020600020905b8154815290600101906020018083116101eb57829003601f168201915b5050505050905090565b6000600260009054906101000a900460ff16905090565b606060018054600181600116156101000203166002900480601f0160208091040260200160405190810160405280929190818152602001828054600181600116156101000203166002900480156102c15780601f10610296576101008083540402835291602001916102c1565b820191906000526020600020905b8154815290600101906020018083116102a457829003601f168201915b505050505090509056fea265627a7a72315820ea86e9bc14e2e0033766cc854150b08ab1760a6932e58db4acb81933495ea3c864736f6c63430005110032",
  "source": "pragma solidity ^0.5.2;\n\n/**\n * @title ERC20Detailed token\n * @dev The decimals are only for visualization purposes.\n * All the operations are done using the smallest and indivisible token unit,\n * just as on Ethereum all the operations are done in wei.\n */\ncontract ERC20Detailed {\n    string internal _name;\n    string internal _symbol;\n    uint8 internal _decimals;\n\n    constructor (string memory name, string memory symbol, uint8 decimals) public {\n        _name = name;\n        _symbol = symbol;\n        _decimals = decimals;\n    }\n\n    /**\n     * @return the name of the token.\n     */\n    function name() public view returns (string memory) {\n        return _name;\n    }\n\n    /**\n     * @return the symbol of the token.\n     */\n    function symbol() public view returns (string memory) {\n        return _symbol;\n    }\n\n    /**\n     * @return the number of decimals of the token.\n     */\n    function decimals() public view returns (uint8) {\n        return _decimals;\n    }\n}\n",
  "sourcePath": "/Users/fayexue/if-x-github/matic-childnode/contracts/ERC20Detailed.sol",
  "compiler": {
    "name": "solc",
    "version": "0.5.17+commit.d19bba13.Emscripten.clang"
  },
  "schemaVersion": "3.3.3",
  "updatedAt": "2021-02-27T11:16:45.097Z",
  "devdoc": {
    "details": "The decimals are only for visualization purposes. All the operations are done using the smallest and indivisible token unit, just as on Ethereum all the operations are done in wei.",
    "methods": {
      "decimals()": {
        "return": "the number of decimals of the token."
      },
      "name()": {
        "return": "the name of the token."
      },
      "symbol()": {
        "return": "the symbol of the token."
      }
    },
    "title": "ERC20Detailed token"
  },
  "userdoc": {
    "methods": {}
  }
}