{
  "contractName": "LibEIP712Domain",
  "abi": [
    {
      "inputs": [],
      "payable": false,
      "stateMutability": "nonpayable",
      "type": "constructor"
    },
    {
      "constant": true,
      "inputs": [],
      "name": "EIP712_DOMAIN_HASH",
      "outputs": [
        {
          "internalType": "bytes32",
          "name": "",
          "type": "bytes32"
        }
      ],
      "payable": false,
      "stateMutability": "view",
      "type": "function"
    },
    {
      "constant": true,
      "inputs": [],
      "name": "EIP712_DOMAIN_SCHEMA_HASH",
      "outputs": [
        {
          "internalType": "bytes32",
          "name": "",
          "type": "bytes32"
        }
      ],
      "payable": false,
      "stateMutability": "view",
      "type": "function"
    }
  ],
  "bytecode": "0x608060405234801561001057600080fd5b5060405180608001604052806052815260200161032e605291396040516020018082805190602001908083835b60208310610060578051825260208201915060208101905060208303925061003d565b6001836020036101000a038019825116818451168082178552505050505050905001915050604051602081830303815290604052805190602001206040518060400160405280600d81526020017f4d61746963204e6574776f726b00000000000000000000000000000000000000815250805190602001206040518060400160405280600181526020017f3100000000000000000000000000000000000000000000000000000000000000815250805190602001206201388130604051602001808681526020018581526020018481526020018381526020018273ffffffffffffffffffffffffffffffffffffffff1673ffffffffffffffffffffffffffffffffffffffff16815260200195505050505050604051602081830303815290604052805190602001206000819055506101918061019d6000396000f3fe608060405234801561001057600080fd5b50600436106100365760003560e01c8063e306f7791461003b578063e614d0d614610059575b600080fd5b610043610077565b6040518082815260200191505060405180910390f35b61006161007d565b6040518082815260200191505060405180910390f35b60005481565b60405180608001604052806052815260200161010b605291396040516020018082805190602001908083835b602083106100cc57805182526020820191506020810190506020830392506100a9565b6001836020036101000a038019825116818451168082178552505050505050905001915050604051602081830303815290604052805190602001208156fe454950373132446f6d61696e28737472696e67206e616d652c737472696e672076657273696f6e2c75696e7432353620636861696e49642c6164647265737320766572696679696e67436f6e747261637429a265627a7a7231582036b6caf4ec33f19d3a6c6abd976b9866391e4a64d57cae3d8a5bb4834782298a64736f6c63430005110032454950373132446f6d61696e28737472696e67206e616d652c737472696e672076657273696f6e2c75696e7432353620636861696e49642c6164647265737320766572696679696e67436f6e747261637429",
  "source": "pragma solidity ^0.5.2;\n\ncontract LibEIP712Domain {\n    string internal constant EIP712_DOMAIN_SCHEMA = \"EIP712Domain(string name,string version,uint256 chainId,address verifyingContract)\";\n    bytes32 public constant EIP712_DOMAIN_SCHEMA_HASH = keccak256(\n        abi.encodePacked(EIP712_DOMAIN_SCHEMA)\n    );\n\n    string internal constant EIP712_DOMAIN_NAME = \"Matic Network\";\n    string internal constant EIP712_DOMAIN_VERSION = \"1\";\n    uint256 internal constant EIP712_DOMAIN_CHAINID = 80001;\n\n    bytes32 public EIP712_DOMAIN_HASH;\n\n    constructor() public {\n        EIP712_DOMAIN_HASH = keccak256(\n            abi.encode(\n                EIP712_DOMAIN_SCHEMA_HASH,\n                keccak256(bytes(EIP712_DOMAIN_NAME)),\n                keccak256(bytes(EIP712_DOMAIN_VERSION)),\n                EIP712_DOMAIN_CHAINID,\n                address(this)\n            )\n        );\n    }\n\n    function hashEIP712Message(bytes32 hashStruct)\n        internal\n        view\n        returns (bytes32 result)\n    {\n        return _hashEIP712Message(hashStruct, EIP712_DOMAIN_HASH);\n    }\n\n    function hashEIP712MessageWithAddress(bytes32 hashStruct, address add)\n        internal\n        pure\n        returns (bytes32 result)\n    {\n        bytes32 domainHash = keccak256(\n            abi.encode(\n                EIP712_DOMAIN_SCHEMA_HASH,\n                keccak256(bytes(EIP712_DOMAIN_NAME)),\n                keccak256(bytes(EIP712_DOMAIN_VERSION)),\n                EIP712_DOMAIN_CHAINID,\n                add\n            )\n        );\n        return _hashEIP712Message(hashStruct, domainHash);\n    }\n\n    function _hashEIP712Message(bytes32 hashStruct, bytes32 domainHash)\n        internal\n        pure\n        returns (bytes32 result)\n    {\n        assembly {\n            // Load free memory pointer\n            let memPtr := mload(64)\n\n            mstore(\n                memPtr,\n                0x1901000000000000000000000000000000000000000000000000000000000000\n            ) // EIP191 header\n            mstore(add(memPtr, 2), domainHash) // EIP712 domain hash\n            mstore(add(memPtr, 34), hashStruct) // Hash of struct\n\n            // Compute hash\n            result := keccak256(memPtr, 66)\n        }\n    }\n}\n",
  "sourcePath": "/Users/fayexue/if-x-github/matic-childnode/contracts/misc/EIP712.sol",
  "compiler": {
    "name": "solc",
    "version": "0.5.17+commit.d19bba13.Emscripten.clang"
  },
  "schemaVersion": "3.3.3",
  "updatedAt": "2021-02-27T11:16:45.104Z",
  "devdoc": {
    "methods": {}
  },
  "userdoc": {
    "methods": {}
  }
}