{
  "contractName": "LibEIP712Domain",
  "abi": [
    {
      "inputs": [],
      "stateMutability": "nonpayable",
      "type": "constructor"
    },
    {
      "inputs": [],
      "name": "EIP712_DOMAIN_HASH",
      "outputs": [
        {
          "internalType": "bytes32",
          "name": "",
          "type": "bytes32"
        }
      ],
      "stateMutability": "view",
      "type": "function"
    },
    {
      "inputs": [],
      "name": "EIP712_DOMAIN_SCHEMA_HASH",
      "outputs": [
        {
          "internalType": "bytes32",
          "name": "",
          "type": "bytes32"
        }
      ],
      "stateMutability": "view",
      "type": "function"
    }
  ],
  "bytecode": "0x608060405234801561001057600080fd5b50604051806080016040528060528152602001610319605291396040516020018082805190602001908083835b60208310610060578051825260208201915060208101905060208303925061003d565b6001836020036101000a038019825116818451168082178552505050505050905001915050604051602081830303815290604052805190602001206040518060400160405280600d81526020017f4d61746963204e6574776f726b00000000000000000000000000000000000000815250805190602001206040518060400160405280600181526020017f3100000000000000000000000000000000000000000000000000000000000000815250805190602001206201388130604051602001808681526020018581526020018481526020018381526020018273ffffffffffffffffffffffffffffffffffffffff1681526020019550505050505060405160208183030381529060405280519060200120600081905550610192806101876000396000f3fe608060405234801561001057600080fd5b50600436106100365760003560e01c8063e306f7791461003b578063e614d0d614610059575b600080fd5b610043610077565b6040518082815260200191505060405180910390f35b61006161007d565b6040518082815260200191505060405180910390f35b60005481565b60405180608001604052806052815260200161010b605291396040516020018082805190602001908083835b602083106100cc57805182526020820191506020810190506020830392506100a9565b6001836020036101000a038019825116818451168082178552505050505050905001915050604051602081830303815290604052805190602001208156fe454950373132446f6d61696e28737472696e67206e616d652c737472696e672076657273696f6e2c75696e7432353620636861696e49642c6164647265737320766572696679696e67436f6e747261637429a2646970667358221220e132c804f27702f340a602a4c6e8ff37fdd90197b787f18f5cfdc4c3f3c37e0264736f6c634300060c0033454950373132446f6d61696e28737472696e67206e616d652c737472696e672076657273696f6e2c75696e7432353620636861696e49642c6164647265737320766572696679696e67436f6e747261637429",
  "immutableReferences": {},
  "source": "// SPDX-License-Identifier: MIT\n\npragma solidity =0.6.12;\n\ncontract LibEIP712Domain {\n    string internal constant EIP712_DOMAIN_SCHEMA = \"EIP712Domain(string name,string version,uint256 chainId,address verifyingContract)\";\n    bytes32 public constant EIP712_DOMAIN_SCHEMA_HASH = keccak256(\n        abi.encodePacked(EIP712_DOMAIN_SCHEMA)\n    );\n\n    string internal constant EIP712_DOMAIN_NAME = \"Matic Network\";\n    string internal constant EIP712_DOMAIN_VERSION = \"1\";\n    uint256 internal constant EIP712_DOMAIN_CHAINID = 80001; // TODO: Change this for Polygon chain\n\n    bytes32 public EIP712_DOMAIN_HASH;\n\n    constructor() public {\n        EIP712_DOMAIN_HASH = keccak256(\n            abi.encode(\n                EIP712_DOMAIN_SCHEMA_HASH,\n                keccak256(bytes(EIP712_DOMAIN_NAME)),\n                keccak256(bytes(EIP712_DOMAIN_VERSION)),\n                EIP712_DOMAIN_CHAINID,\n                address(this)\n            )\n        );\n    }\n\n    function hashEIP712Message(bytes32 hashStruct)\n        internal\n        view\n        returns (bytes32 result)\n    {\n        bytes32 domainHash = EIP712_DOMAIN_HASH;\n\n        // Assembly for more efficient computing:\n        // keccak256(abi.encode(\n        //     EIP191_HEADER,\n        //     domainHash,\n        //     hashStruct\n        // ));\n\n        assembly {\n            // Load free memory pointer\n            let memPtr := mload(64)\n\n            mstore(\n                memPtr,\n                0x1901000000000000000000000000000000000000000000000000000000000000\n            ) // EIP191 header\n            mstore(add(memPtr, 2), domainHash) // EIP712 domain hash\n            mstore(add(memPtr, 34), hashStruct) // Hash of struct\n\n            // Compute hash\n            result := keccak256(memPtr, 66)\n        }\n        return result;\n    }\n}",
  "sourcePath": "/Users/fayexue/if-x-github/matic-childnode/contracts/misc/EIP712.sol",
  "compiler": {
    "name": "solc",
    "version": "0.6.12+commit.27d51765.Emscripten.clang"
  },
  "schemaVersion": "3.3.3",
  "updatedAt": "2021-02-27T07:16:33.465Z",
  "devdoc": {
    "kind": "dev",
    "methods": {},
    "version": 1
  },
  "userdoc": {
    "kind": "user",
    "methods": {},
    "version": 1
  }
}