{
  "contractName": "LibTokenTransferOrder",
  "abi": [
    {
      "inputs": [],
      "name": "EIP712_DOMAIN_HASH",
      "outputs": [
        {
          "internalType": "bytes32",
          "name": "",
          "type": "bytes32"
        }
      ],
      "stateMutability": "view",
      "type": "function"
    },
    {
      "inputs": [],
      "name": "EIP712_DOMAIN_SCHEMA_HASH",
      "outputs": [
        {
          "internalType": "bytes32",
          "name": "",
          "type": "bytes32"
        }
      ],
      "stateMutability": "view",
      "type": "function"
    },
    {
      "inputs": [],
      "name": "EIP712_TOKEN_TRANSFER_ORDER_SCHEMA_HASH",
      "outputs": [
        {
          "internalType": "bytes32",
          "name": "",
          "type": "bytes32"
        }
      ],
      "stateMutability": "view",
      "type": "function"
    },
    {
      "inputs": [
        {
          "internalType": "address",
          "name": "spender",
          "type": "address"
        },
        {
          "internalType": "uint256",
          "name": "tokenIdOrAmount",
          "type": "uint256"
        },
        {
          "internalType": "bytes32",
          "name": "data",
          "type": "bytes32"
        },
        {
          "internalType": "uint256",
          "name": "expiration",
          "type": "uint256"
        }
      ],
      "name": "getTokenTransferOrderHash",
      "outputs": [
        {
          "internalType": "bytes32",
          "name": "orderHash",
          "type": "bytes32"
        }
      ],
      "stateMutability": "view",
      "type": "function"
    }
  ],
  "bytecode": "0x608060405234801561001057600080fd5b506040518060800160405280605281526020016105e5605291396040516020018082805190602001908083835b60208310610060578051825260208201915060208101905060208303925061003d565b6001836020036101000a038019825116818451168082178552505050505050905001915050604051602081830303815290604052805190602001206040518060400160405280600d81526020017f4d61746963204e6574776f726b00000000000000000000000000000000000000815250805190602001206040518060400160405280600181526020017f3100000000000000000000000000000000000000000000000000000000000000815250805190602001206201388130604051602001808681526020018581526020018481526020018381526020018273ffffffffffffffffffffffffffffffffffffffff168152602001955050505050506040516020818303038152906040528051906020012060008190555061045e806101876000396000f3fe608060405234801561001057600080fd5b506004361061004c5760003560e01c8063abceeba214610051578063b789543c1461006f578063e306f779146100e5578063e614d0d614610103575b600080fd5b610059610121565b6040518082815260200191505060405180910390f35b6100cf6004803603608081101561008557600080fd5b81019080803573ffffffffffffffffffffffffffffffffffffffff1690602001909291908035906020019092919080359060200190929190803590602001909291905050506101ae565b6040518082815260200191505060405180910390f35b6100ed6101ce565b6040518082815260200191505060405180910390f35b61010b6101d4565b6040518082815260200191505060405180910390f35b6040518060800160405280605b81526020016103ce605b91396040516020018082805190602001908083835b60208310610170578051825260208201915060208101905060208303925061014d565b6001836020036101000a0380198251168184511680821785525050505050509050019150506040516020818303038152906040528051906020012081565b60006101c46101bf86868686610261565b610334565b9050949350505050565b60005481565b60405180608001604052806052815260200161037c605291396040516020018082805190602001908083835b602083106102235780518252602082019150602081019050602083039250610200565b6001836020036101000a0380198251168184511680821785525050505050509050019150506040516020818303038152906040528051906020012081565b6000806040518060800160405280605b81526020016103ce605b91396040516020018082805190602001908083835b602083106102b35780518252602082019150602081019050602083039250610290565b6001836020036101000a03801982511681845116808217855250505050505090500191505060405160208183030381529060405280519060200120905060405181815273ffffffffffffffffffffffffffffffffffffffff8716602082015285604082015284606082015283608082015260a0812092505050949350505050565b60008060005490506040517f19010000000000000000000000000000000000000000000000000000000000008152816002820152836022820152604281209250505091905056fe454950373132446f6d61696e28737472696e67206e616d652c737472696e672076657273696f6e2c75696e7432353620636861696e49642c6164647265737320766572696679696e67436f6e747261637429546f6b656e5472616e736665724f726465722861646472657373207370656e6465722c75696e7432353620746f6b656e49644f72416d6f756e742c6279746573333220646174612c75696e743235362065787069726174696f6e29a2646970667358221220006496d028c2be5c6058e66d0cfde0f182f20a882950d0d70274e548c518d06d64736f6c634300060c0033454950373132446f6d61696e28737472696e67206e616d652c737472696e672076657273696f6e2c75696e7432353620636861696e49642c6164647265737320766572696679696e67436f6e747261637429",
  "immutableReferences": {},
  "source": "// SPDX-License-Identifier: MIT\n\npragma solidity =0.6.12;\n\nimport \"./EIP712.sol\";\n\ncontract LibTokenTransferOrder is LibEIP712Domain {\n    string internal constant EIP712_TOKEN_TRANSFER_ORDER_SCHEMA = \"TokenTransferOrder(address spender,uint256 tokenIdOrAmount,bytes32 data,uint256 expiration)\";\n    bytes32 public constant EIP712_TOKEN_TRANSFER_ORDER_SCHEMA_HASH = keccak256(\n        abi.encodePacked(EIP712_TOKEN_TRANSFER_ORDER_SCHEMA)\n    );\n\n    struct TokenTransferOrder {\n        address spender;\n        uint256 tokenIdOrAmount;\n        bytes32 data;\n        uint256 expiration;\n    }\n\n    function getTokenTransferOrderHash(\n        address spender,\n        uint256 tokenIdOrAmount,\n        bytes32 data,\n        uint256 expiration\n    ) public view returns (bytes32 orderHash) {\n        orderHash = hashEIP712Message(\n            hashTokenTransferOrder(spender, tokenIdOrAmount, data, expiration)\n        );\n    }\n\n    function hashTokenTransferOrder(\n        address spender,\n        uint256 tokenIdOrAmount,\n        bytes32 data,\n        uint256 expiration\n    ) internal pure returns (bytes32 result) {\n        bytes32 schemaHash = EIP712_TOKEN_TRANSFER_ORDER_SCHEMA_HASH;\n\n        // Assembly for more efficiently computing:\n        // return keccak256(abi.encode(\n        //   schemaHash,\n        //   spender,\n        //   tokenIdOrAmount,\n        //   data,\n        //   expiration\n        // ));\n\n        assembly {\n            // Load free memory pointer\n            let memPtr := mload(64)\n\n            mstore(memPtr, schemaHash) // hash of schema\n            mstore(\n                add(memPtr, 32),\n                and(spender, 0xffffffffffffffffffffffffffffffffffffffff)\n            ) // spender\n            mstore(add(memPtr, 64), tokenIdOrAmount) // tokenIdOrAmount\n            mstore(add(memPtr, 96), data) // hash of data\n            mstore(add(memPtr, 128), expiration) // expiration\n\n            // Compute hash\n            result := keccak256(memPtr, 160)\n        }\n        return result;\n    }\n}\n",
  "sourcePath": "/Users/fayexue/if-x-github/matic-childnode/contracts/misc/LibTokenTransferOrder.sol",
  "compiler": {
    "name": "solc",
    "version": "0.6.12+commit.27d51765.Emscripten.clang"
  },
  "schemaVersion": "3.3.3",
  "updatedAt": "2021-02-27T06:34:39.139Z",
  "devdoc": {
    "kind": "dev",
    "methods": {},
    "version": 1
  },
  "userdoc": {
    "kind": "user",
    "methods": {},
    "version": 1
  }
}